{
  "contractName": "Color",
  "abi": [
    {
      "inputs": [],
      "stateMutability": "nonpayable",
      "type": "constructor"
    },
    {
      "anonymous": false,
      "inputs": [
        {
          "indexed": true,
          "internalType": "address",
          "name": "owner",
          "type": "address"
        },
        {
          "indexed": true,
          "internalType": "address",
          "name": "approved",
          "type": "address"
        },
        {
          "indexed": true,
          "internalType": "uint256",
          "name": "tokenId",
          "type": "uint256"
        }
      ],
      "name": "Approval",
      "type": "event"
    },
    {
      "anonymous": false,
      "inputs": [
        {
          "indexed": true,
          "internalType": "address",
          "name": "owner",
          "type": "address"
        },
        {
          "indexed": true,
          "internalType": "address",
          "name": "operator",
          "type": "address"
        },
        {
          "indexed": false,
          "internalType": "bool",
          "name": "approved",
          "type": "bool"
        }
      ],
      "name": "ApprovalForAll",
      "type": "event"
    },
    {
      "anonymous": false,
      "inputs": [
        {
          "indexed": true,
          "internalType": "address",
          "name": "from",
          "type": "address"
        },
        {
          "indexed": true,
          "internalType": "address",
          "name": "to",
          "type": "address"
        },
        {
          "indexed": true,
          "internalType": "uint256",
          "name": "tokenId",
          "type": "uint256"
        }
      ],
      "name": "Transfer",
      "type": "event"
    },
    {
      "inputs": [
        {
          "internalType": "address",
          "name": "to",
          "type": "address"
        },
        {
          "internalType": "uint256",
          "name": "tokenId",
          "type": "uint256"
        }
      ],
      "name": "approve",
      "outputs": [],
      "stateMutability": "nonpayable",
      "type": "function"
    },
    {
      "inputs": [
        {
          "internalType": "address",
          "name": "owner",
          "type": "address"
        }
      ],
      "name": "balanceOf",
      "outputs": [
        {
          "internalType": "uint256",
          "name": "",
          "type": "uint256"
        }
      ],
      "stateMutability": "view",
      "type": "function"
    },
    {
      "inputs": [
        {
          "internalType": "uint256",
          "name": "",
          "type": "uint256"
        }
      ],
      "name": "colors",
      "outputs": [
        {
          "internalType": "string",
          "name": "",
          "type": "string"
        }
      ],
      "stateMutability": "view",
      "type": "function"
    },
    {
      "inputs": [
        {
          "internalType": "uint256",
          "name": "tokenId",
          "type": "uint256"
        }
      ],
      "name": "getApproved",
      "outputs": [
        {
          "internalType": "address",
          "name": "",
          "type": "address"
        }
      ],
      "stateMutability": "view",
      "type": "function"
    },
    {
      "inputs": [
        {
          "internalType": "address",
          "name": "owner",
          "type": "address"
        },
        {
          "internalType": "address",
          "name": "operator",
          "type": "address"
        }
      ],
      "name": "isApprovedForAll",
      "outputs": [
        {
          "internalType": "bool",
          "name": "",
          "type": "bool"
        }
      ],
      "stateMutability": "view",
      "type": "function"
    },
    {
      "inputs": [],
      "name": "name",
      "outputs": [
        {
          "internalType": "string",
          "name": "",
          "type": "string"
        }
      ],
      "stateMutability": "view",
      "type": "function"
    },
    {
      "inputs": [
        {
          "internalType": "uint256",
          "name": "tokenId",
          "type": "uint256"
        }
      ],
      "name": "ownerOf",
      "outputs": [
        {
          "internalType": "address",
          "name": "",
          "type": "address"
        }
      ],
      "stateMutability": "view",
      "type": "function"
    },
    {
      "inputs": [
        {
          "internalType": "address",
          "name": "from",
          "type": "address"
        },
        {
          "internalType": "address",
          "name": "to",
          "type": "address"
        },
        {
          "internalType": "uint256",
          "name": "tokenId",
          "type": "uint256"
        }
      ],
      "name": "safeTransferFrom",
      "outputs": [],
      "stateMutability": "nonpayable",
      "type": "function"
    },
    {
      "inputs": [
        {
          "internalType": "address",
          "name": "from",
          "type": "address"
        },
        {
          "internalType": "address",
          "name": "to",
          "type": "address"
        },
        {
          "internalType": "uint256",
          "name": "tokenId",
          "type": "uint256"
        },
        {
          "internalType": "bytes",
          "name": "_data",
          "type": "bytes"
        }
      ],
      "name": "safeTransferFrom",
      "outputs": [],
      "stateMutability": "nonpayable",
      "type": "function"
    },
    {
      "inputs": [
        {
          "internalType": "address",
          "name": "operator",
          "type": "address"
        },
        {
          "internalType": "bool",
          "name": "approved",
          "type": "bool"
        }
      ],
      "name": "setApprovalForAll",
      "outputs": [],
      "stateMutability": "nonpayable",
      "type": "function"
    },
    {
      "inputs": [
        {
          "internalType": "bytes4",
          "name": "interfaceId",
          "type": "bytes4"
        }
      ],
      "name": "supportsInterface",
      "outputs": [
        {
          "internalType": "bool",
          "name": "",
          "type": "bool"
        }
      ],
      "stateMutability": "view",
      "type": "function"
    },
    {
      "inputs": [],
      "name": "symbol",
      "outputs": [
        {
          "internalType": "string",
          "name": "",
          "type": "string"
        }
      ],
      "stateMutability": "view",
      "type": "function"
    },
    {
      "inputs": [
        {
          "internalType": "uint256",
          "name": "tokenId",
          "type": "uint256"
        }
      ],
      "name": "tokenURI",
      "outputs": [
        {
          "internalType": "string",
          "name": "",
          "type": "string"
        }
      ],
      "stateMutability": "view",
      "type": "function"
    },
    {
      "inputs": [
        {
          "internalType": "address",
          "name": "from",
          "type": "address"
        },
        {
          "internalType": "address",
          "name": "to",
          "type": "address"
        },
        {
          "internalType": "uint256",
          "name": "tokenId",
          "type": "uint256"
        }
      ],
      "name": "transferFrom",
      "outputs": [],
      "stateMutability": "nonpayable",
      "type": "function"
    },
    {
      "inputs": [
        {
          "internalType": "string",
          "name": "_color",
          "type": "string"
        }
      ],
      "name": "mint",
      "outputs": [],
      "stateMutability": "nonpayable",
      "type": "function"
    }
  ],
  "bytecode": "0x60806040523480156200001157600080fd5b506040518060400160405280600581526020017f436f6c6f720000000000000000000000000000000000000000000000000000008152506040518060400160405280600581526020017f434f4c4f52000000000000000000000000000000000000000000000000000000815250816000908051906020019062000096929190620000b8565b508060019080519060200190620000af929190620000b8565b505050620001cd565b828054620000c69062000168565b90600052602060002090601f016020900481019282620000ea576000855562000136565b82601f106200010557805160ff191683800117855562000136565b8280016001018555821562000136579182015b828111156200013557825182559160200191906001019062000118565b5b50905062000145919062000149565b5090565b5b80821115620001645760008160009055506001016200014a565b5090565b600060028204905060018216806200018157607f821691505b602082108114156200019857620001976200019e565b5b50919050565b7f4e487b7100000000000000000000000000000000000000000000000000000000600052602260045260246000fd5b6128ef80620001dd6000396000f3fe608060405234801561001057600080fd5b50600436106100f55760003560e01c806370a0823111610097578063bd11f69d11610066578063bd11f69d14610282578063c87b56dd146102b2578063d85d3d27146102e2578063e985e9c5146102fe576100f5565b806370a08231146101fc57806395d89b411461022c578063a22cb4651461024a578063b88d4fde14610266576100f5565b8063095ea7b3116100d3578063095ea7b31461017857806323b872dd1461019457806342842e0e146101b05780636352211e146101cc576100f5565b806301ffc9a7146100fa57806306fdde031461012a578063081812fc14610148575b600080fd5b610114600480360381019061010f9190611b37565b61032e565b6040516101219190612287565b60405180910390f35b610132610410565b60405161013f91906122a2565b60405180910390f35b610162600480360381019061015d9190611bca565b6104a2565b60405161016f9190612220565b60405180910390f35b610192600480360381019061018d9190611afb565b610527565b005b6101ae60048036038101906101a991906119f5565b61063f565b005b6101ca60048036038101906101c591906119f5565b61069f565b005b6101e660048036038101906101e19190611bca565b6106bf565b6040516101f39190612220565b60405180910390f35b61021660048036038101906102119190611990565b610771565b6040516102239190612484565b60405180910390f35b610234610829565b60405161024191906122a2565b60405180910390f35b610264600480360381019061025f9190611abf565b6108bb565b005b610280600480360381019061027b9190611a44565b610a3c565b005b61029c60048036038101906102979190611bca565b610a9e565b6040516102a991906122a2565b60405180910390f35b6102cc60048036038101906102c79190611bca565b610b4a565b6040516102d991906122a2565b60405180910390f35b6102fc60048036038101906102f79190611b89565b610bf1565b005b610318600480360381019061031391906119b9565b610cb2565b6040516103259190612287565b60405180910390f35b60007f80ac58cd000000000000000000000000000000000000000000000000000000007bffffffffffffffffffffffffffffffffffffffffffffffffffffffff1916827bffffffffffffffffffffffffffffffffffffffffffffffffffffffff191614806103f957507f5b5e139f000000000000000000000000000000000000000000000000000000007bffffffffffffffffffffffffffffffffffffffffffffffffffffffff1916827bffffffffffffffffffffffffffffffffffffffffffffffffffffffff1916145b80610409575061040882610d46565b5b9050919050565b60606000805461041f906126e4565b80601f016020809104026020016040519081016040528092919081815260200182805461044b906126e4565b80156104985780601f1061046d57610100808354040283529160200191610498565b820191906000526020600020905b81548152906001019060200180831161047b57829003601f168201915b5050505050905090565b60006104ad82610db0565b6104ec576040517f08c379a00000000000000000000000000000000000000000000000000000000081526004016104e3906123e4565b60405180910390fd5b6004600083815260200190815260200160002060009054906101000a900473ffffffffffffffffffffffffffffffffffffffff169050919050565b6000610532826106bf565b90508073ffffffffffffffffffffffffffffffffffffffff168373ffffffffffffffffffffffffffffffffffffffff1614156105a3576040517f08c379a000000000000000000000000000000000000000000000000000000000815260040161059a90612444565b60405180910390fd5b8073ffffffffffffffffffffffffffffffffffffffff166105c2610e1c565b73ffffffffffffffffffffffffffffffffffffffff1614806105f157506105f0816105eb610e1c565b610cb2565b5b610630576040517f08c379a000000000000000000000000000000000000000000000000000000000815260040161062790612364565b60405180910390fd5b61063a8383610e24565b505050565b61065061064a610e1c565b82610edd565b61068f576040517f08c379a000000000000000000000000000000000000000000000000000000000815260040161068690612464565b60405180910390fd5b61069a838383610fbb565b505050565b6106ba83838360405180602001604052806000815250610a3c565b505050565b6000806002600084815260200190815260200160002060009054906101000a900473ffffffffffffffffffffffffffffffffffffffff169050600073ffffffffffffffffffffffffffffffffffffffff168173ffffffffffffffffffffffffffffffffffffffff161415610768576040517f08c379a000000000000000000000000000000000000000000000000000000000815260040161075f906123a4565b60405180910390fd5b80915050919050565b60008073ffffffffffffffffffffffffffffffffffffffff168273ffffffffffffffffffffffffffffffffffffffff1614156107e2576040517f08c379a00000000000000000000000000000000000000000000000000000000081526004016107d990612384565b60405180910390fd5b600360008373ffffffffffffffffffffffffffffffffffffffff1673ffffffffffffffffffffffffffffffffffffffff168152602001908152602001600020549050919050565b606060018054610838906126e4565b80601f0160208091040260200160405190810160405280929190818152602001828054610864906126e4565b80156108b15780601f10610886576101008083540402835291602001916108b1565b820191906000526020600020905b81548152906001019060200180831161089457829003601f168201915b5050505050905090565b6108c3610e1c565b73ffffffffffffffffffffffffffffffffffffffff168273ffffffffffffffffffffffffffffffffffffffff161415610931576040517f08c379a000000000000000000000000000000000000000000000000000000000815260040161092890612324565b60405180910390fd5b806005600061093e610e1c565b73ffffffffffffffffffffffffffffffffffffffff1673ffffffffffffffffffffffffffffffffffffffff16815260200190815260200160002060008473ffffffffffffffffffffffffffffffffffffffff1673ffffffffffffffffffffffffffffffffffffffff16815260200190815260200160002060006101000a81548160ff0219169083151502179055508173ffffffffffffffffffffffffffffffffffffffff166109eb610e1c565b73ffffffffffffffffffffffffffffffffffffffff167f17307eab39ab6107e8899845ad3d59bd9653f200f220920489ca2b5937696c3183604051610a309190612287565b60405180910390a35050565b610a4d610a47610e1c565b83610edd565b610a8c576040517f08c379a0000000000000000000000000000000000000000000000000000000008152600401610a8390612464565b60405180910390fd5b610a9884848484611217565b50505050565b60068181548110610aae57600080fd5b906000526020600020016000915090508054610ac9906126e4565b80601f0160208091040260200160405190810160405280929190818152602001828054610af5906126e4565b8015610b425780601f10610b1757610100808354040283529160200191610b42565b820191906000526020600020905b815481529060010190602001808311610b2557829003601f168201915b505050505081565b6060610b5582610db0565b610b94576040517f08c379a0000000000000000000000000000000000000000000000000000000008152600401610b8b90612424565b60405180910390fd5b6000610b9e611273565b90506000815111610bbe5760405180602001604052806000815250610be9565b80610bc88461128a565b604051602001610bd99291906121fc565b6040516020818303038152906040525b915050919050565b600781604051610c0191906121e5565b908152602001604051809103902060009054906101000a900460ff1615610c2757600080fd5b600681908060018154018082558091505060019003906000526020600020016000909190919091509080519060200190610c629291906117b4565b5060006006805490509050610c773382611437565b6001600783604051610c8991906121e5565b908152602001604051809103902060006101000a81548160ff0219169083151502179055505050565b6000600560008473ffffffffffffffffffffffffffffffffffffffff1673ffffffffffffffffffffffffffffffffffffffff16815260200190815260200160002060008373ffffffffffffffffffffffffffffffffffffffff1673ffffffffffffffffffffffffffffffffffffffff16815260200190815260200160002060009054906101000a900460ff16905092915050565b60007f01ffc9a7000000000000000000000000000000000000000000000000000000007bffffffffffffffffffffffffffffffffffffffffffffffffffffffff1916827bffffffffffffffffffffffffffffffffffffffffffffffffffffffff1916149050919050565b60008073ffffffffffffffffffffffffffffffffffffffff166002600084815260200190815260200160002060009054906101000a900473ffffffffffffffffffffffffffffffffffffffff1673ffffffffffffffffffffffffffffffffffffffff1614159050919050565b600033905090565b816004600083815260200190815260200160002060006101000a81548173ffffffffffffffffffffffffffffffffffffffff021916908373ffffffffffffffffffffffffffffffffffffffff160217905550808273ffffffffffffffffffffffffffffffffffffffff16610e97836106bf565b73ffffffffffffffffffffffffffffffffffffffff167f8c5be1e5ebec7d5bd14f71427d1e84f3dd0314c0f7b2291e5b200ac8c7c3b92560405160405180910390a45050565b6000610ee882610db0565b610f27576040517f08c379a0000000000000000000000000000000000000000000000000000000008152600401610f1e90612344565b60405180910390fd5b6000610f32836106bf565b90508073ffffffffffffffffffffffffffffffffffffffff168473ffffffffffffffffffffffffffffffffffffffff161480610fa157508373ffffffffffffffffffffffffffffffffffffffff16610f89846104a2565b73ffffffffffffffffffffffffffffffffffffffff16145b80610fb25750610fb18185610cb2565b5b91505092915050565b8273ffffffffffffffffffffffffffffffffffffffff16610fdb826106bf565b73ffffffffffffffffffffffffffffffffffffffff1614611031576040517f08c379a000000000000000000000000000000000000000000000000000000000815260040161102890612404565b60405180910390fd5b600073ffffffffffffffffffffffffffffffffffffffff168273ffffffffffffffffffffffffffffffffffffffff1614156110a1576040517f08c379a000000000000000000000000000000000000000000000000000000000815260040161109890612304565b60405180910390fd5b6110ac838383611605565b6110b7600082610e24565b6001600360008573ffffffffffffffffffffffffffffffffffffffff1673ffffffffffffffffffffffffffffffffffffffff168152602001908152602001600020600082825461110791906125fa565b925050819055506001600360008473ffffffffffffffffffffffffffffffffffffffff1673ffffffffffffffffffffffffffffffffffffffff168152602001908152602001600020600082825461115e9190612573565b92505081905550816002600083815260200190815260200160002060006101000a81548173ffffffffffffffffffffffffffffffffffffffff021916908373ffffffffffffffffffffffffffffffffffffffff160217905550808273ffffffffffffffffffffffffffffffffffffffff168473ffffffffffffffffffffffffffffffffffffffff167fddf252ad1be2c89b69c2b068fc378daa952ba7f163c4a11628f55a4df523b3ef60405160405180910390a4505050565b611222848484610fbb565b61122e8484848461160a565b61126d576040517f08c379a0000000000000000000000000000000000000000000000000000000008152600401611264906122c4565b60405180910390fd5b50505050565b606060405180602001604052806000815250905090565b606060008214156112d2576040518060400160405280600181526020017f30000000000000000000000000000000000000000000000000000000000000008152509050611432565b600082905060005b600082146113045780806112ed90612716565b915050600a826112fd91906125c9565b91506112da565b60008167ffffffffffffffff811115611346577f4e487b7100000000000000000000000000000000000000000000000000000000600052604160045260246000fd5b6040519080825280601f01601f1916602001820160405280156113785781602001600182028036833780820191505090505b5090505b6000851461142b5760018261139191906125fa565b9150600a856113a0919061275f565b60306113ac9190612573565b60f81b8183815181106113e8577f4e487b7100000000000000000000000000000000000000000000000000000000600052603260045260246000fd5b60200101907effffffffffffffffffffffffffffffffffffffffffffffffffffffffffffff1916908160001a905350600a8561142491906125c9565b945061137c565b8093505050505b919050565b600073ffffffffffffffffffffffffffffffffffffffff168273ffffffffffffffffffffffffffffffffffffffff1614156114a7576040517f08c379a000000000000000000000000000000000000000000000000000000000815260040161149e906123c4565b60405180910390fd5b6114b081610db0565b156114f0576040517f08c379a00000000000000000000000000000000000000000000000000000000081526004016114e7906122e4565b60405180910390fd5b6114fc60008383611605565b6001600360008473ffffffffffffffffffffffffffffffffffffffff1673ffffffffffffffffffffffffffffffffffffffff168152602001908152602001600020600082825461154c9190612573565b92505081905550816002600083815260200190815260200160002060006101000a81548173ffffffffffffffffffffffffffffffffffffffff021916908373ffffffffffffffffffffffffffffffffffffffff160217905550808273ffffffffffffffffffffffffffffffffffffffff16600073ffffffffffffffffffffffffffffffffffffffff167fddf252ad1be2c89b69c2b068fc378daa952ba7f163c4a11628f55a4df523b3ef60405160405180910390a45050565b505050565b600061162b8473ffffffffffffffffffffffffffffffffffffffff166117a1565b15611794578373ffffffffffffffffffffffffffffffffffffffff1663150b7a02611654610e1c565b8786866040518563ffffffff1660e01b8152600401611676949392919061223b565b602060405180830381600087803b15801561169057600080fd5b505af19250505080156116c157506040513d601f19601f820116820180604052508101906116be9190611b60565b60015b611744573d80600081146116f1576040519150601f19603f3d011682016040523d82523d6000602084013e6116f6565b606091505b5060008151141561173c576040517f08c379a0000000000000000000000000000000000000000000000000000000008152600401611733906122c4565b60405180910390fd5b805181602001fd5b63150b7a0260e01b7bffffffffffffffffffffffffffffffffffffffffffffffffffffffff1916817bffffffffffffffffffffffffffffffffffffffffffffffffffffffff191614915050611799565b600190505b949350505050565b600080823b905060008111915050919050565b8280546117c0906126e4565b90600052602060002090601f0160209004810192826117e25760008555611829565b82601f106117fb57805160ff1916838001178555611829565b82800160010185558215611829579182015b8281111561182857825182559160200191906001019061180d565b5b509050611836919061183a565b5090565b5b8082111561185357600081600090555060010161183b565b5090565b600061186a611865846124d0565b61249f565b90508281526020810184848401111561188257600080fd5b61188d8482856126a2565b509392505050565b60006118a86118a384612500565b61249f565b9050828152602081018484840111156118c057600080fd5b6118cb8482856126a2565b509392505050565b6000813590506118e28161285d565b92915050565b6000813590506118f781612874565b92915050565b60008135905061190c8161288b565b92915050565b6000815190506119218161288b565b92915050565b600082601f83011261193857600080fd5b8135611948848260208601611857565b91505092915050565b600082601f83011261196257600080fd5b8135611972848260208601611895565b91505092915050565b60008135905061198a816128a2565b92915050565b6000602082840312156119a257600080fd5b60006119b0848285016118d3565b91505092915050565b600080604083850312156119cc57600080fd5b60006119da858286016118d3565b92505060206119eb858286016118d3565b9150509250929050565b600080600060608486031215611a0a57600080fd5b6000611a18868287016118d3565b9350506020611a29868287016118d3565b9250506040611a3a8682870161197b565b9150509250925092565b60008060008060808587031215611a5a57600080fd5b6000611a68878288016118d3565b9450506020611a79878288016118d3565b9350506040611a8a8782880161197b565b925050606085013567ffffffffffffffff811115611aa757600080fd5b611ab387828801611927565b91505092959194509250565b60008060408385031215611ad257600080fd5b6000611ae0858286016118d3565b9250506020611af1858286016118e8565b9150509250929050565b60008060408385031215611b0e57600080fd5b6000611b1c858286016118d3565b9250506020611b2d8582860161197b565b9150509250929050565b600060208284031215611b4957600080fd5b6000611b57848285016118fd565b91505092915050565b600060208284031215611b7257600080fd5b6000611b8084828501611912565b91505092915050565b600060208284031215611b9b57600080fd5b600082013567ffffffffffffffff811115611bb557600080fd5b611bc184828501611951565b91505092915050565b600060208284031215611bdc57600080fd5b6000611bea8482850161197b565b91505092915050565b611bfc8161262e565b82525050565b611c0b81612640565b82525050565b6000611c1c82612530565b611c268185612546565b9350611c368185602086016126b1565b611c3f8161284c565b840191505092915050565b6000611c558261253b565b611c5f8185612557565b9350611c6f8185602086016126b1565b611c788161284c565b840191505092915050565b6000611c8e8261253b565b611c988185612568565b9350611ca88185602086016126b1565b80840191505092915050565b6000611cc1603283612557565b91507f4552433732313a207472616e7366657220746f206e6f6e20455243373231526560008301527f63656976657220696d706c656d656e74657200000000000000000000000000006020830152604082019050919050565b6000611d27601c83612557565b91507f4552433732313a20746f6b656e20616c7265616479206d696e746564000000006000830152602082019050919050565b6000611d67602483612557565b91507f4552433732313a207472616e7366657220746f20746865207a65726f2061646460008301527f72657373000000000000000000000000000000000000000000000000000000006020830152604082019050919050565b6000611dcd601983612557565b91507f4552433732313a20617070726f766520746f2063616c6c6572000000000000006000830152602082019050919050565b6000611e0d602c83612557565b91507f4552433732313a206f70657261746f7220717565727920666f72206e6f6e657860008301527f697374656e7420746f6b656e00000000000000000000000000000000000000006020830152604082019050919050565b6000611e73603883612557565b91507f4552433732313a20617070726f76652063616c6c6572206973206e6f74206f7760008301527f6e6572206e6f7220617070726f76656420666f7220616c6c00000000000000006020830152604082019050919050565b6000611ed9602a83612557565b91507f4552433732313a2062616c616e636520717565727920666f7220746865207a6560008301527f726f2061646472657373000000000000000000000000000000000000000000006020830152604082019050919050565b6000611f3f602983612557565b91507f4552433732313a206f776e657220717565727920666f72206e6f6e657869737460008301527f656e7420746f6b656e00000000000000000000000000000000000000000000006020830152604082019050919050565b6000611fa5602083612557565b91507f4552433732313a206d696e7420746f20746865207a65726f20616464726573736000830152602082019050919050565b6000611fe5602c83612557565b91507f4552433732313a20617070726f76656420717565727920666f72206e6f6e657860008301527f697374656e7420746f6b656e00000000000000000000000000000000000000006020830152604082019050919050565b600061204b602983612557565b91507f4552433732313a207472616e73666572206f6620746f6b656e2074686174206960008301527f73206e6f74206f776e00000000000000000000000000000000000000000000006020830152604082019050919050565b60006120b1602f83612557565b91507f4552433732314d657461646174613a2055524920717565727920666f72206e6f60008301527f6e6578697374656e7420746f6b656e00000000000000000000000000000000006020830152604082019050919050565b6000612117602183612557565b91507f4552433732313a20617070726f76616c20746f2063757272656e74206f776e6560008301527f72000000000000000000000000000000000000000000000000000000000000006020830152604082019050919050565b600061217d603183612557565b91507f4552433732313a207472616e736665722063616c6c6572206973206e6f74206f60008301527f776e6572206e6f7220617070726f7665640000000000000000000000000000006020830152604082019050919050565b6121df81612698565b82525050565b60006121f18284611c83565b915081905092915050565b60006122088285611c83565b91506122148284611c83565b91508190509392505050565b60006020820190506122356000830184611bf3565b92915050565b60006080820190506122506000830187611bf3565b61225d6020830186611bf3565b61226a60408301856121d6565b818103606083015261227c8184611c11565b905095945050505050565b600060208201905061229c6000830184611c02565b92915050565b600060208201905081810360008301526122bc8184611c4a565b905092915050565b600060208201905081810360008301526122dd81611cb4565b9050919050565b600060208201905081810360008301526122fd81611d1a565b9050919050565b6000602082019050818103600083015261231d81611d5a565b9050919050565b6000602082019050818103600083015261233d81611dc0565b9050919050565b6000602082019050818103600083015261235d81611e00565b9050919050565b6000602082019050818103600083015261237d81611e66565b9050919050565b6000602082019050818103600083015261239d81611ecc565b9050919050565b600060208201905081810360008301526123bd81611f32565b9050919050565b600060208201905081810360008301526123dd81611f98565b9050919050565b600060208201905081810360008301526123fd81611fd8565b9050919050565b6000602082019050818103600083015261241d8161203e565b9050919050565b6000602082019050818103600083015261243d816120a4565b9050919050565b6000602082019050818103600083015261245d8161210a565b9050919050565b6000602082019050818103600083015261247d81612170565b9050919050565b600060208201905061249960008301846121d6565b92915050565b6000604051905081810181811067ffffffffffffffff821117156124c6576124c561281d565b5b8060405250919050565b600067ffffffffffffffff8211156124eb576124ea61281d565b5b601f19601f8301169050602081019050919050565b600067ffffffffffffffff82111561251b5761251a61281d565b5b601f19601f8301169050602081019050919050565b600081519050919050565b600081519050919050565b600082825260208201905092915050565b600082825260208201905092915050565b600081905092915050565b600061257e82612698565b915061258983612698565b9250827fffffffffffffffffffffffffffffffffffffffffffffffffffffffffffffffff038211156125be576125bd612790565b5b828201905092915050565b60006125d482612698565b91506125df83612698565b9250826125ef576125ee6127bf565b5b828204905092915050565b600061260582612698565b915061261083612698565b92508282101561262357612622612790565b5b828203905092915050565b600061263982612678565b9050919050565b60008115159050919050565b60007fffffffff0000000000000000000000000000000000000000000000000000000082169050919050565b600073ffffffffffffffffffffffffffffffffffffffff82169050919050565b6000819050919050565b82818337600083830152505050565b60005b838110156126cf5780820151818401526020810190506126b4565b838111156126de576000848401525b50505050565b600060028204905060018216806126fc57607f821691505b602082108114156127105761270f6127ee565b5b50919050565b600061272182612698565b91507fffffffffffffffffffffffffffffffffffffffffffffffffffffffffffffffff82141561275457612753612790565b5b600182019050919050565b600061276a82612698565b915061277583612698565b925082612785576127846127bf565b5b828206905092915050565b7f4e487b7100000000000000000000000000000000000000000000000000000000600052601160045260246000fd5b7f4e487b7100000000000000000000000000000000000000000000000000000000600052601260045260246000fd5b7f4e487b7100000000000000000000000000000000000000000000000000000000600052602260045260246000fd5b7f4e487b7100000000000000000000000000000000000000000000000000000000600052604160045260246000fd5b6000601f19601f8301169050919050565b6128668161262e565b811461287157600080fd5b50565b61287d81612640565b811461288857600080fd5b50565b6128948161264c565b811461289f57600080fd5b50565b6128ab81612698565b81146128b657600080fd5b5056fea26469706673582212200a8cf141f0617ef421d94d0e26dc86883f960770ca7c3cee9f86abaa8c61fc2664736f6c63430008000033",
  "immutableReferences": {},
  "source": "pragma solidity  ^0.8.0;\r\n\r\nimport \"@openzeppelin/contracts/token/ERC721/ERC721.sol\";\r\n\r\ncontract Color is ERC721{\r\n  string[] public colors;\r\n  mapping(string => bool) _colorExists;\r\n\r\n  constructor() ERC721(\"Color\", \"COLOR\"){\r\n  }\r\n\r\n  // E.G. color = \"#FFFFFF\"\r\n  function mint(string memory _color) public {\r\n    require(!_colorExists[_color]);\r\n    colors.push(_color);\r\n    uint _id = colors.length;\r\n    _mint(msg.sender, _id);\r\n    _colorExists[_color] = true;\r\n  }\r\n}",
  "sourcePath": "D:\\gNFT_test\\contracts\\gNFT.sol",
  "compiler": {
    "name": "solc",
    "version": "0.8.0+commit.c7dfd78e.Emscripten.clang"
  },
  "schemaVersion": "3.4.3",
  "updatedAt": "2021-09-14T08:30:25.572Z",
  "devdoc": {
    "kind": "dev",
    "methods": {
      "approve(address,uint256)": {
        "details": "See {IERC721-approve}."
      },
      "balanceOf(address)": {
        "details": "See {IERC721-balanceOf}."
      },
      "getApproved(uint256)": {
        "details": "See {IERC721-getApproved}."
      },
      "isApprovedForAll(address,address)": {
        "details": "See {IERC721-isApprovedForAll}."
      },
      "name()": {
        "details": "See {IERC721Metadata-name}."
      },
      "ownerOf(uint256)": {
        "details": "See {IERC721-ownerOf}."
      },
      "safeTransferFrom(address,address,uint256)": {
        "details": "See {IERC721-safeTransferFrom}."
      },
      "safeTransferFrom(address,address,uint256,bytes)": {
        "details": "See {IERC721-safeTransferFrom}."
      },
      "setApprovalForAll(address,bool)": {
        "details": "See {IERC721-setApprovalForAll}."
      },
      "supportsInterface(bytes4)": {
        "details": "See {IERC165-supportsInterface}."
      },
      "symbol()": {
        "details": "See {IERC721Metadata-symbol}."
      },
      "tokenURI(uint256)": {
        "details": "See {IERC721Metadata-tokenURI}."
      },
      "transferFrom(address,address,uint256)": {
        "details": "See {IERC721-transferFrom}."
      }
    },
    "version": 1
  },
  "userdoc": {
    "kind": "user",
    "methods": {},
    "version": 1
  }
}