{
  "contractName": "ERC1155Preset",
  "abi": [
    {
      "inputs": [
        {
          "internalType": "string",
          "name": "_name",
          "type": "string"
        },
        {
          "internalType": "string",
          "name": "_symbol",
          "type": "string"
        },
        {
          "internalType": "string",
          "name": "_uri",
          "type": "string"
        }
      ],
      "stateMutability": "nonpayable",
      "type": "constructor"
    },
    {
      "anonymous": false,
      "inputs": [
        {
          "indexed": true,
          "internalType": "address",
          "name": "account",
          "type": "address"
        },
        {
          "indexed": true,
          "internalType": "address",
          "name": "operator",
          "type": "address"
        },
        {
          "indexed": false,
          "internalType": "bool",
          "name": "approved",
          "type": "bool"
        }
      ],
      "name": "ApprovalForAll",
      "type": "event"
    },
    {
      "anonymous": false,
      "inputs": [
        {
          "indexed": true,
          "internalType": "address",
          "name": "previousOwner",
          "type": "address"
        },
        {
          "indexed": true,
          "internalType": "address",
          "name": "newOwner",
          "type": "address"
        }
      ],
      "name": "OwnershipTransferred",
      "type": "event"
    },
    {
      "anonymous": false,
      "inputs": [
        {
          "indexed": false,
          "internalType": "address",
          "name": "account",
          "type": "address"
        }
      ],
      "name": "Paused",
      "type": "event"
    },
    {
      "anonymous": false,
      "inputs": [
        {
          "indexed": true,
          "internalType": "address",
          "name": "operator",
          "type": "address"
        },
        {
          "indexed": true,
          "internalType": "address",
          "name": "from",
          "type": "address"
        },
        {
          "indexed": true,
          "internalType": "address",
          "name": "to",
          "type": "address"
        },
        {
          "indexed": false,
          "internalType": "uint256[]",
          "name": "ids",
          "type": "uint256[]"
        },
        {
          "indexed": false,
          "internalType": "uint256[]",
          "name": "values",
          "type": "uint256[]"
        }
      ],
      "name": "TransferBatch",
      "type": "event"
    },
    {
      "anonymous": false,
      "inputs": [
        {
          "indexed": true,
          "internalType": "address",
          "name": "operator",
          "type": "address"
        },
        {
          "indexed": true,
          "internalType": "address",
          "name": "from",
          "type": "address"
        },
        {
          "indexed": true,
          "internalType": "address",
          "name": "to",
          "type": "address"
        },
        {
          "indexed": false,
          "internalType": "uint256",
          "name": "id",
          "type": "uint256"
        },
        {
          "indexed": false,
          "internalType": "uint256",
          "name": "value",
          "type": "uint256"
        }
      ],
      "name": "TransferSingle",
      "type": "event"
    },
    {
      "anonymous": false,
      "inputs": [
        {
          "indexed": false,
          "internalType": "string",
          "name": "value",
          "type": "string"
        },
        {
          "indexed": true,
          "internalType": "uint256",
          "name": "id",
          "type": "uint256"
        }
      ],
      "name": "URI",
      "type": "event"
    },
    {
      "anonymous": false,
      "inputs": [
        {
          "indexed": false,
          "internalType": "address",
          "name": "account",
          "type": "address"
        }
      ],
      "name": "Unpaused",
      "type": "event"
    },
    {
      "inputs": [
        {
          "internalType": "address",
          "name": "account",
          "type": "address"
        },
        {
          "internalType": "uint256",
          "name": "id",
          "type": "uint256"
        }
      ],
      "name": "balanceOf",
      "outputs": [
        {
          "internalType": "uint256",
          "name": "",
          "type": "uint256"
        }
      ],
      "stateMutability": "view",
      "type": "function"
    },
    {
      "inputs": [
        {
          "internalType": "address[]",
          "name": "accounts",
          "type": "address[]"
        },
        {
          "internalType": "uint256[]",
          "name": "ids",
          "type": "uint256[]"
        }
      ],
      "name": "balanceOfBatch",
      "outputs": [
        {
          "internalType": "uint256[]",
          "name": "",
          "type": "uint256[]"
        }
      ],
      "stateMutability": "view",
      "type": "function"
    },
    {
      "inputs": [
        {
          "internalType": "uint256",
          "name": "",
          "type": "uint256"
        }
      ],
      "name": "creators",
      "outputs": [
        {
          "internalType": "address",
          "name": "",
          "type": "address"
        }
      ],
      "stateMutability": "view",
      "type": "function"
    },
    {
      "inputs": [
        {
          "internalType": "uint256",
          "name": "",
          "type": "uint256"
        }
      ],
      "name": "customUri",
      "outputs": [
        {
          "internalType": "string",
          "name": "",
          "type": "string"
        }
      ],
      "stateMutability": "view",
      "type": "function"
    },
    {
      "inputs": [
        {
          "internalType": "address",
          "name": "account",
          "type": "address"
        },
        {
          "internalType": "address",
          "name": "operator",
          "type": "address"
        }
      ],
      "name": "isApprovedForAll",
      "outputs": [
        {
          "internalType": "bool",
          "name": "",
          "type": "bool"
        }
      ],
      "stateMutability": "view",
      "type": "function"
    },
    {
      "inputs": [],
      "name": "name",
      "outputs": [
        {
          "internalType": "string",
          "name": "",
          "type": "string"
        }
      ],
      "stateMutability": "view",
      "type": "function"
    },
    {
      "inputs": [],
      "name": "owner",
      "outputs": [
        {
          "internalType": "address",
          "name": "",
          "type": "address"
        }
      ],
      "stateMutability": "view",
      "type": "function"
    },
    {
      "inputs": [],
      "name": "paused",
      "outputs": [
        {
          "internalType": "bool",
          "name": "",
          "type": "bool"
        }
      ],
      "stateMutability": "view",
      "type": "function"
    },
    {
      "inputs": [],
      "name": "renounceOwnership",
      "outputs": [],
      "stateMutability": "nonpayable",
      "type": "function"
    },
    {
      "inputs": [
        {
          "internalType": "address",
          "name": "from",
          "type": "address"
        },
        {
          "internalType": "address",
          "name": "to",
          "type": "address"
        },
        {
          "internalType": "uint256[]",
          "name": "ids",
          "type": "uint256[]"
        },
        {
          "internalType": "uint256[]",
          "name": "amounts",
          "type": "uint256[]"
        },
        {
          "internalType": "bytes",
          "name": "data",
          "type": "bytes"
        }
      ],
      "name": "safeBatchTransferFrom",
      "outputs": [],
      "stateMutability": "nonpayable",
      "type": "function"
    },
    {
      "inputs": [
        {
          "internalType": "address",
          "name": "from",
          "type": "address"
        },
        {
          "internalType": "address",
          "name": "to",
          "type": "address"
        },
        {
          "internalType": "uint256",
          "name": "id",
          "type": "uint256"
        },
        {
          "internalType": "uint256",
          "name": "amount",
          "type": "uint256"
        },
        {
          "internalType": "bytes",
          "name": "data",
          "type": "bytes"
        }
      ],
      "name": "safeTransferFrom",
      "outputs": [],
      "stateMutability": "nonpayable",
      "type": "function"
    },
    {
      "inputs": [
        {
          "internalType": "address",
          "name": "operator",
          "type": "address"
        },
        {
          "internalType": "bool",
          "name": "approved",
          "type": "bool"
        }
      ],
      "name": "setApprovalForAll",
      "outputs": [],
      "stateMutability": "nonpayable",
      "type": "function"
    },
    {
      "inputs": [],
      "name": "symbol",
      "outputs": [
        {
          "internalType": "string",
          "name": "",
          "type": "string"
        }
      ],
      "stateMutability": "view",
      "type": "function"
    },
    {
      "inputs": [
        {
          "internalType": "uint256",
          "name": "",
          "type": "uint256"
        }
      ],
      "name": "tokenSupply",
      "outputs": [
        {
          "internalType": "uint256",
          "name": "",
          "type": "uint256"
        }
      ],
      "stateMutability": "view",
      "type": "function"
    },
    {
      "inputs": [
        {
          "internalType": "address",
          "name": "newOwner",
          "type": "address"
        }
      ],
      "name": "transferOwnership",
      "outputs": [],
      "stateMutability": "nonpayable",
      "type": "function"
    },
    {
      "inputs": [
        {
          "internalType": "uint256",
          "name": "",
          "type": "uint256"
        }
      ],
      "name": "uri",
      "outputs": [
        {
          "internalType": "string",
          "name": "",
          "type": "string"
        }
      ],
      "stateMutability": "view",
      "type": "function"
    },
    {
      "inputs": [
        {
          "internalType": "uint256",
          "name": "_id",
          "type": "uint256"
        }
      ],
      "name": "totalSupply",
      "outputs": [
        {
          "internalType": "uint256",
          "name": "",
          "type": "uint256"
        }
      ],
      "stateMutability": "view",
      "type": "function"
    },
    {
      "inputs": [
        {
          "internalType": "string",
          "name": "_newURI",
          "type": "string"
        }
      ],
      "name": "setURI",
      "outputs": [],
      "stateMutability": "nonpayable",
      "type": "function"
    },
    {
      "inputs": [
        {
          "internalType": "uint256",
          "name": "_tokenId",
          "type": "uint256"
        },
        {
          "internalType": "string",
          "name": "_newURI",
          "type": "string"
        }
      ],
      "name": "setCustomURI",
      "outputs": [],
      "stateMutability": "nonpayable",
      "type": "function"
    },
    {
      "inputs": [
        {
          "internalType": "uint256",
          "name": "_id",
          "type": "uint256"
        }
      ],
      "name": "creatorOf",
      "outputs": [
        {
          "internalType": "address",
          "name": "",
          "type": "address"
        }
      ],
      "stateMutability": "view",
      "type": "function"
    },
    {
      "inputs": [
        {
          "internalType": "address",
          "name": "_initialOwner",
          "type": "address"
        },
        {
          "internalType": "uint256",
          "name": "_id",
          "type": "uint256"
        },
        {
          "internalType": "uint256",
          "name": "_initialSupply",
          "type": "uint256"
        },
        {
          "internalType": "string",
          "name": "_uri",
          "type": "string"
        },
        {
          "internalType": "bytes",
          "name": "_data",
          "type": "bytes"
        }
      ],
      "name": "create",
      "outputs": [
        {
          "internalType": "uint256",
          "name": "",
          "type": "uint256"
        }
      ],
      "stateMutability": "nonpayable",
      "type": "function"
    },
    {
      "inputs": [
        {
          "internalType": "address",
          "name": "_to",
          "type": "address"
        },
        {
          "internalType": "uint256",
          "name": "_id",
          "type": "uint256"
        },
        {
          "internalType": "uint256",
          "name": "_quantity",
          "type": "uint256"
        },
        {
          "internalType": "bytes",
          "name": "_data",
          "type": "bytes"
        }
      ],
      "name": "mint",
      "outputs": [],
      "stateMutability": "nonpayable",
      "type": "function"
    },
    {
      "inputs": [
        {
          "internalType": "address",
          "name": "_to",
          "type": "address"
        },
        {
          "internalType": "uint256[]",
          "name": "_ids",
          "type": "uint256[]"
        },
        {
          "internalType": "uint256[]",
          "name": "_quantities",
          "type": "uint256[]"
        },
        {
          "internalType": "bytes",
          "name": "_data",
          "type": "bytes"
        }
      ],
      "name": "batchMint",
      "outputs": [],
      "stateMutability": "nonpayable",
      "type": "function"
    },
    {
      "inputs": [
        {
          "internalType": "uint256",
          "name": "_id",
          "type": "uint256"
        },
        {
          "internalType": "uint256",
          "name": "_quantity",
          "type": "uint256"
        }
      ],
      "name": "burn",
      "outputs": [],
      "stateMutability": "nonpayable",
      "type": "function"
    },
    {
      "inputs": [
        {
          "internalType": "uint256[]",
          "name": "_ids",
          "type": "uint256[]"
        },
        {
          "internalType": "uint256[]",
          "name": "_quantities",
          "type": "uint256[]"
        }
      ],
      "name": "batchBurn",
      "outputs": [],
      "stateMutability": "nonpayable",
      "type": "function"
    },
    {
      "inputs": [],
      "name": "pause",
      "outputs": [],
      "stateMutability": "nonpayable",
      "type": "function"
    },
    {
      "inputs": [],
      "name": "unpause",
      "outputs": [],
      "stateMutability": "nonpayable",
      "type": "function"
    },
    {
      "inputs": [
        {
          "internalType": "address",
          "name": "_to",
          "type": "address"
        },
        {
          "internalType": "uint256[]",
          "name": "_ids",
          "type": "uint256[]"
        }
      ],
      "name": "setCreator",
      "outputs": [],
      "stateMutability": "nonpayable",
      "type": "function"
    },
    {
      "inputs": [
        {
          "internalType": "bytes4",
          "name": "interfaceId",
          "type": "bytes4"
        }
      ],
      "name": "supportsInterface",
      "outputs": [
        {
          "internalType": "bool",
          "name": "",
          "type": "bool"
        }
      ],
      "stateMutability": "view",
      "type": "function"
    },
    {
      "inputs": [
        {
          "internalType": "uint256",
          "name": "_id",
          "type": "uint256"
        }
      ],
      "name": "exists",
      "outputs": [
        {
          "internalType": "bool",
          "name": "",
          "type": "bool"
        }
      ],
      "stateMutability": "view",
      "type": "function"
    }
  ],
  "bytecode": "0x60806040523480156200001157600080fd5b5060405162005653380380620056538339818101604052810190620000379190620002cc565b806200004981620000c060201b60201c565b506000600360006101000a81548160ff0219169083151502179055506200008562000079620000dc60201b60201c565b620000e460201b60201c565b82600790805190602001906200009d929190620001aa565b508160089080519060200190620000b6929190620001aa565b505050506200049e565b8060029080519060200190620000d8929190620001aa565b5050565b600033905090565b6000600360019054906101000a900473ffffffffffffffffffffffffffffffffffffffff16905081600360016101000a81548173ffffffffffffffffffffffffffffffffffffffff021916908373ffffffffffffffffffffffffffffffffffffffff1602179055508173ffffffffffffffffffffffffffffffffffffffff168173ffffffffffffffffffffffffffffffffffffffff167f8be0079c531659141344cd1fd0a4f28419497f9722a3daafe3b4186f6b6457e060405160405180910390a35050565b828054620001b8906200040a565b90600052602060002090601f016020900481019282620001dc576000855562000228565b82601f10620001f757805160ff191683800117855562000228565b8280016001018555821562000228579182015b82811115620002275782518255916020019190600101906200020a565b5b5090506200023791906200023b565b5090565b5b80821115620002565760008160009055506001016200023c565b5090565b6000620002716200026b84620003a1565b6200036d565b9050828152602081018484840111156200028a57600080fd5b62000297848285620003d4565b509392505050565b600082601f830112620002b157600080fd5b8151620002c38482602086016200025a565b91505092915050565b600080600060608486031215620002e257600080fd5b600084015167ffffffffffffffff811115620002fd57600080fd5b6200030b868287016200029f565b935050602084015167ffffffffffffffff8111156200032957600080fd5b62000337868287016200029f565b925050604084015167ffffffffffffffff8111156200035557600080fd5b62000363868287016200029f565b9150509250925092565b6000604051905081810181811067ffffffffffffffff821117156200039757620003966200046f565b5b8060405250919050565b600067ffffffffffffffff821115620003bf57620003be6200046f565b5b601f19601f8301169050602081019050919050565b60005b83811015620003f4578082015181840152602081019050620003d7565b8381111562000404576000848401525b50505050565b600060028204905060018216806200042357607f821691505b602082108114156200043a576200043962000440565b5b50919050565b7f4e487b7100000000000000000000000000000000000000000000000000000000600052602260045260246000fd5b7f4e487b7100000000000000000000000000000000000000000000000000000000600052604160045260246000fd5b6151a580620004ae6000396000f3fe608060405234801561001057600080fd5b50600436106101d95760003560e01c8063715018a611610104578063b390c0ab116100a2578063d2a6b51a11610071578063d2a6b51a14610564578063e985e9c514610580578063f242432a146105b0578063f2fde38b146105cc576101d9565b8063b390c0ab146104cc578063b48ab8b6146104e8578063bd85b03914610504578063cd53d08e14610534576101d9565b80638a28a5a2116100de5780638a28a5a2146104445780638da5cb5b1461047457806395d89b4114610492578063a22cb465146104b0576101d9565b8063715018a614610414578063731133e91461041e5780638456cb591461043a576101d9565b80632eb2c2d61161017c5780634e1273f41161014b5780634e1273f4146103665780634f558e7914610396578063589a1743146103c65780635c975abb146103f6576101d9565b80632eb2c2d6146102f457806336a100d5146103105780633adf80b4146103405780633f4ba83a1461035c576101d9565b806306fdde03116101b857806306fdde031461025a5780630e89341c1461027857806320ec271b146102a85780632693ebf2146102c4576101d9565b8062fdd58e146101de57806301ffc9a71461020e57806302fe53051461023e575b600080fd5b6101f860048036038101906101f39190613a9f565b6105e8565b6040516102059190614c59565b60405180910390f35b61022860048036038101906102239190613cde565b6106b1565b604051610235919061493c565b60405180910390f35b61025860048036038101906102539190613d30565b6106c3565b005b61026261074b565b60405161026f9190614957565b60405180910390f35b610292600480360381019061028d9190613d71565b6107d9565b60405161029f9190614957565b60405180910390f35b6102c260048036038101906102bd9190613c69565b61086d565b005b6102de60048036038101906102d99190613d71565b610a3c565b6040516102eb9190614c59565b60405180910390f35b61030e6004803603810190610309919061380e565b610a54565b005b61032a60048036038101906103259190613b56565b610af5565b6040516103379190614c59565b60405180910390f35b61035a60048036038101906103559190613d9a565b610cb0565b005b610364610dbe565b005b610380600480360381019061037b9190613bfd565b610e44565b60405161038d91906148e3565b60405180910390f35b6103b060048036038101906103ab9190613d71565b610ff5565b6040516103bd919061493c565b60405180910390f35b6103e060048036038101906103db9190613d71565b611007565b6040516103ed9190614806565b60405180910390f35b6103fe611044565b60405161040b919061493c565b60405180910390f35b61041c61105b565b005b61043860048036038101906104339190613adb565b6110e3565b005b6104426111dc565b005b61045e60048036038101906104599190613d71565b611262565b60405161046b9190614957565b60405180910390f35b61047c611302565b6040516104899190614806565b60405180910390f35b61049a61132c565b6040516104a79190614957565b60405180910390f35b6104ca60048036038101906104c59190613a63565b6113ba565b005b6104e660048036038101906104e19190613dee565b61153b565b005b61050260048036038101906104fd919061395c565b6115e3565b005b61051e60048036038101906105199190613d71565b61180a565b60405161052b9190614c59565b60405180910390f35b61054e60048036038101906105499190613d71565b611827565b60405161055b9190614806565b60405180910390f35b61057e60048036038101906105799190613a0f565b61185a565b005b61059a600480360381019061059591906137d2565b61193e565b6040516105a7919061493c565b60405180910390f35b6105ca60048036038101906105c591906138cd565b6119d2565b005b6105e660048036038101906105e191906137a9565b611a73565b005b60008073ffffffffffffffffffffffffffffffffffffffff168373ffffffffffffffffffffffffffffffffffffffff161415610659576040517f08c379a0000000000000000000000000000000000000000000000000000000008152600401610650906149d9565b60405180910390fd5b60008083815260200190815260200160002060008473ffffffffffffffffffffffffffffffffffffffff1673ffffffffffffffffffffffffffffffffffffffff16815260200190815260200160002054905092915050565b60006106bc82611b6b565b9050919050565b6106cb611c4d565b73ffffffffffffffffffffffffffffffffffffffff166106e9611302565b73ffffffffffffffffffffffffffffffffffffffff161461073f576040517f08c379a000000000000000000000000000000000000000000000000000000000815260040161073690614b99565b60405180910390fd5b61074881611c55565b50565b6007805461075890614f37565b80601f016020809104026020016040519081016040528092919081815260200182805461078490614f37565b80156107d15780601f106107a6576101008083540402835291602001916107d1565b820191906000526020600020905b8154815290600101906020018083116107b457829003601f168201915b505050505081565b6060600280546107e890614f37565b80601f016020809104026020016040519081016040528092919081815260200182805461081490614f37565b80156108615780601f1061083657610100808354040283529160200191610861565b820191906000526020600020905b81548152906001019060200180831161084457829003601f168201915b50505050509050919050565b60005b848490508110156109a85760008585838181106108b6577f4e487b7100000000000000000000000000000000000000000000000000000000600052603260045260246000fd5b90506020020135905060006108d26108cc611c4d565b836105e8565b11610912576040517f08c379a000000000000000000000000000000000000000000000000000000000815260040161090990614a99565b60405180910390fd5b600084848481811061094d577f4e487b7100000000000000000000000000000000000000000000000000000000600052603260045260246000fd5b90506020020135905061097c816005600085815260200190815260200160002054611c6f90919063ffffffff16565b6005600084815260200190815260200160002081905550505080806109a090614f69565b915050610870565b50610a3633858580806020026020016040519081016040528093929190818152602001838360200280828437600081840152601f19601f82011690508083019250505050505050848480806020026020016040519081016040528093929190818152602001838360200280828437600081840152601f19601f82011690508083019250505050505050611c85565b50505050565b60056020528060005260406000206000915090505481565b610a5c611c4d565b73ffffffffffffffffffffffffffffffffffffffff168573ffffffffffffffffffffffffffffffffffffffff161480610aa25750610aa185610a9c611c4d565b61193e565b5b610ae1576040517f08c379a0000000000000000000000000000000000000000000000000000000008152600401610ad890614b19565b60405180910390fd5b610aee8585858585611f82565b5050505050565b6000610aff611c4d565b73ffffffffffffffffffffffffffffffffffffffff16610b1d611302565b73ffffffffffffffffffffffffffffffffffffffff1614610b73576040517f08c379a0000000000000000000000000000000000000000000000000000000008152600401610b6a90614b99565b60405180910390fd5b610b7c856122e2565b15610bbc576040517f08c379a0000000000000000000000000000000000000000000000000000000008152600401610bb390614b39565b60405180910390fd5b610bc4611c4d565b6004600087815260200190815260200160002060006101000a81548173ffffffffffffffffffffffffffffffffffffffff021916908373ffffffffffffffffffffffffffffffffffffffff160217905550600083511115610c805782600660008781526020019081526020016000209080519060200190610c46929190613457565b50847f6bb7ff708619ba0610cba295a58592e0451dee2622938c8755667688daf3529b84604051610c779190614957565b60405180910390a25b610c8c8686868561234e565b83600560008781526020019081526020016000208190555084905095945050505050565b81610cb9611c4d565b73ffffffffffffffffffffffffffffffffffffffff166004600083815260200190815260200160002060009054906101000a900473ffffffffffffffffffffffffffffffffffffffff1673ffffffffffffffffffffffffffffffffffffffff1614610d59576040517f08c379a0000000000000000000000000000000000000000000000000000000008152600401610d5090614a19565b60405180910390fd5b81600660008581526020019081526020016000209080519060200190610d80929190613457565b50827f6bb7ff708619ba0610cba295a58592e0451dee2622938c8755667688daf3529b83604051610db19190614957565b60405180910390a2505050565b610dc6611c4d565b73ffffffffffffffffffffffffffffffffffffffff16610de4611302565b73ffffffffffffffffffffffffffffffffffffffff1614610e3a576040517f08c379a0000000000000000000000000000000000000000000000000000000008152600401610e3190614b99565b60405180910390fd5b610e426124e4565b565b60608151835114610e8a576040517f08c379a0000000000000000000000000000000000000000000000000000000008152600401610e8190614bf9565b60405180910390fd5b6000835167ffffffffffffffff811115610ecd577f4e487b7100000000000000000000000000000000000000000000000000000000600052604160045260246000fd5b604051908082528060200260200182016040528015610efb5781602001602082028036833780820191505090505b50905060005b8451811015610fea57610f94858281518110610f46577f4e487b7100000000000000000000000000000000000000000000000000000000600052603260045260246000fd5b6020026020010151858381518110610f87577f4e487b7100000000000000000000000000000000000000000000000000000000600052603260045260246000fd5b60200260200101516105e8565b828281518110610fcd577f4e487b7100000000000000000000000000000000000000000000000000000000600052603260045260246000fd5b60200260200101818152505080610fe390614f69565b9050610f01565b508091505092915050565b6000611000826122e2565b9050919050565b60006004600083815260200190815260200160002060009054906101000a900473ffffffffffffffffffffffffffffffffffffffff169050919050565b6000600360009054906101000a900460ff16905090565b611063611c4d565b73ffffffffffffffffffffffffffffffffffffffff16611081611302565b73ffffffffffffffffffffffffffffffffffffffff16146110d7576040517f08c379a00000000000000000000000000000000000000000000000000000000081526004016110ce90614b99565b60405180910390fd5b6110e16000612586565b565b826110ec611c4d565b73ffffffffffffffffffffffffffffffffffffffff166004600083815260200190815260200160002060009054906101000a900473ffffffffffffffffffffffffffffffffffffffff1673ffffffffffffffffffffffffffffffffffffffff161461118c576040517f08c379a000000000000000000000000000000000000000000000000000000000815260040161118390614a19565b60405180910390fd5b6111988585858561234e565b6111be83600560008781526020019081526020016000205461264c90919063ffffffff16565b60056000868152602001908152602001600020819055505050505050565b6111e4611c4d565b73ffffffffffffffffffffffffffffffffffffffff16611202611302565b73ffffffffffffffffffffffffffffffffffffffff1614611258576040517f08c379a000000000000000000000000000000000000000000000000000000000815260040161124f90614b99565b60405180910390fd5b611260612662565b565b6006602052806000526040600020600091509050805461128190614f37565b80601f01602080910402602001604051908101604052809291908181526020018280546112ad90614f37565b80156112fa5780601f106112cf576101008083540402835291602001916112fa565b820191906000526020600020905b8154815290600101906020018083116112dd57829003601f168201915b505050505081565b6000600360019054906101000a900473ffffffffffffffffffffffffffffffffffffffff16905090565b6008805461133990614f37565b80601f016020809104026020016040519081016040528092919081815260200182805461136590614f37565b80156113b25780601f10611387576101008083540402835291602001916113b2565b820191906000526020600020905b81548152906001019060200180831161139557829003601f168201915b505050505081565b8173ffffffffffffffffffffffffffffffffffffffff166113d9611c4d565b73ffffffffffffffffffffffffffffffffffffffff161415611430576040517f08c379a000000000000000000000000000000000000000000000000000000000815260040161142790614bd9565b60405180910390fd5b806001600061143d611c4d565b73ffffffffffffffffffffffffffffffffffffffff1673ffffffffffffffffffffffffffffffffffffffff16815260200190815260200160002060008473ffffffffffffffffffffffffffffffffffffffff1673ffffffffffffffffffffffffffffffffffffffff16815260200190815260200160002060006101000a81548160ff0219169083151502179055508173ffffffffffffffffffffffffffffffffffffffff166114ea611c4d565b73ffffffffffffffffffffffffffffffffffffffff167f17307eab39ab6107e8899845ad3d59bd9653f200f220920489ca2b5937696c318360405161152f919061493c565b60405180910390a35050565b81600061154f611549611c4d565b836105e8565b1161158f576040517f08c379a000000000000000000000000000000000000000000000000000000000815260040161158690614a99565b60405180910390fd5b6115a161159a611c4d565b8484612705565b6115c7826005600086815260200190815260200160002054611c6f90919063ffffffff16565b6005600085815260200190815260200160002081905550505050565b60005b8585905081101561177357600086868381811061162c577f4e487b7100000000000000000000000000000000000000000000000000000000600052603260045260246000fd5b90506020020135905061163d611c4d565b73ffffffffffffffffffffffffffffffffffffffff166004600083815260200190815260200160002060009054906101000a900473ffffffffffffffffffffffffffffffffffffffff1673ffffffffffffffffffffffffffffffffffffffff16146116dd576040517f08c379a00000000000000000000000000000000000000000000000000000000081526004016116d490614ab9565b60405180910390fd5b6000858584818110611718577f4e487b7100000000000000000000000000000000000000000000000000000000600052603260045260246000fd5b90506020020135905061174781600560008581526020019081526020016000205461264c90919063ffffffff16565b60056000848152602001908152602001600020819055505050808061176b90614f69565b9150506115e6565b5061180286868680806020026020016040519081016040528093929190818152602001838360200280828437600081840152601f19601f82011690508083019250505050505050858580806020026020016040519081016040528093929190818152602001838360200280828437600081840152601f19601f8201169050808301925050505050505084612922565b505050505050565b600060056000838152602001908152602001600020549050919050565b60046020528060005260406000206000915054906101000a900473ffffffffffffffffffffffffffffffffffffffff1681565b600073ffffffffffffffffffffffffffffffffffffffff168273ffffffffffffffffffffffffffffffffffffffff1614156118ca576040517f08c379a00000000000000000000000000000000000000000000000000000000081526004016118c190614bb9565b60405180910390fd5b60005b8151811015611939576000828281518110611911577f4e487b7100000000000000000000000000000000000000000000000000000000600052603260045260246000fd5b602002602001015190506119258482612b8c565b50808061193190614f69565b9150506118cd565b505050565b6000600160008473ffffffffffffffffffffffffffffffffffffffff1673ffffffffffffffffffffffffffffffffffffffff16815260200190815260200160002060008373ffffffffffffffffffffffffffffffffffffffff1673ffffffffffffffffffffffffffffffffffffffff16815260200190815260200160002060009054906101000a900460ff16905092915050565b6119da611c4d565b73ffffffffffffffffffffffffffffffffffffffff168573ffffffffffffffffffffffffffffffffffffffff161480611a205750611a1f85611a1a611c4d565b61193e565b5b611a5f576040517f08c379a0000000000000000000000000000000000000000000000000000000008152600401611a5690614a79565b60405180910390fd5b611a6c8585858585612c8c565b5050505050565b611a7b611c4d565b73ffffffffffffffffffffffffffffffffffffffff16611a99611302565b73ffffffffffffffffffffffffffffffffffffffff1614611aef576040517f08c379a0000000000000000000000000000000000000000000000000000000008152600401611ae690614b99565b60405180910390fd5b600073ffffffffffffffffffffffffffffffffffffffff168173ffffffffffffffffffffffffffffffffffffffff161415611b5f576040517f08c379a0000000000000000000000000000000000000000000000000000000008152600401611b56906149f9565b60405180910390fd5b611b6881612586565b50565b60007fd9b67a26000000000000000000000000000000000000000000000000000000007bffffffffffffffffffffffffffffffffffffffffffffffffffffffff1916827bffffffffffffffffffffffffffffffffffffffffffffffffffffffff19161480611c3657507f0e89341c000000000000000000000000000000000000000000000000000000007bffffffffffffffffffffffffffffffffffffffffffffffffffffffff1916827bffffffffffffffffffffffffffffffffffffffffffffffffffffffff1916145b80611c465750611c4582612f0e565b5b9050919050565b600033905090565b8060029080519060200190611c6b929190613457565b5050565b60008183611c7d9190614e4d565b905092915050565b600073ffffffffffffffffffffffffffffffffffffffff168373ffffffffffffffffffffffffffffffffffffffff161415611cf5576040517f08c379a0000000000000000000000000000000000000000000000000000000008152600401611cec90614b59565b60405180910390fd5b8051825114611d39576040517f08c379a0000000000000000000000000000000000000000000000000000000008152600401611d3090614c19565b60405180910390fd5b6000611d43611c4d565b9050611d6381856000868660405180602001604052806000815250612f78565b60005b8351811015611efc576000848281518110611daa577f4e487b7100000000000000000000000000000000000000000000000000000000600052603260045260246000fd5b602002602001015190506000848381518110611def577f4e487b7100000000000000000000000000000000000000000000000000000000600052603260045260246000fd5b60200260200101519050600080600084815260200190815260200160002060008973ffffffffffffffffffffffffffffffffffffffff1673ffffffffffffffffffffffffffffffffffffffff16815260200190815260200160002054905081811015611e90576040517f08c379a0000000000000000000000000000000000000000000000000000000008152600401611e8790614a39565b60405180910390fd5b81810360008085815260200190815260200160002060008a73ffffffffffffffffffffffffffffffffffffffff1673ffffffffffffffffffffffffffffffffffffffff168152602001908152602001600020819055505050508080611ef490614f69565b915050611d66565b50600073ffffffffffffffffffffffffffffffffffffffff168473ffffffffffffffffffffffffffffffffffffffff168273ffffffffffffffffffffffffffffffffffffffff167f4a39dc06d4c0dbc64b70af90fd698a233a518aa5d07e595d983b8c0526c8f7fb8686604051611f74929190614905565b60405180910390a450505050565b8151835114611fc6576040517f08c379a0000000000000000000000000000000000000000000000000000000008152600401611fbd90614c19565b60405180910390fd5b600073ffffffffffffffffffffffffffffffffffffffff168473ffffffffffffffffffffffffffffffffffffffff161415612036576040517f08c379a000000000000000000000000000000000000000000000000000000000815260040161202d90614af9565b60405180910390fd5b6000612040611c4d565b9050612050818787878787612f78565b60005b845181101561224d576000858281518110612097577f4e487b7100000000000000000000000000000000000000000000000000000000600052603260045260246000fd5b6020026020010151905060008583815181106120dc577f4e487b7100000000000000000000000000000000000000000000000000000000600052603260045260246000fd5b60200260200101519050600080600084815260200190815260200160002060008b73ffffffffffffffffffffffffffffffffffffffff1673ffffffffffffffffffffffffffffffffffffffff1681526020019081526020016000205490508181101561217d576040517f08c379a000000000000000000000000000000000000000000000000000000000815260040161217490614b79565b60405180910390fd5b81810360008085815260200190815260200160002060008c73ffffffffffffffffffffffffffffffffffffffff1673ffffffffffffffffffffffffffffffffffffffff168152602001908152602001600020819055508160008085815260200190815260200160002060008b73ffffffffffffffffffffffffffffffffffffffff1673ffffffffffffffffffffffffffffffffffffffff16815260200190815260200160002060008282546122329190614df7565b925050819055505050508061224690614f69565b9050612053565b508473ffffffffffffffffffffffffffffffffffffffff168673ffffffffffffffffffffffffffffffffffffffff168273ffffffffffffffffffffffffffffffffffffffff167f4a39dc06d4c0dbc64b70af90fd698a233a518aa5d07e595d983b8c0526c8f7fb87876040516122c4929190614905565b60405180910390a46122da818787878787612fd6565b505050505050565b60008073ffffffffffffffffffffffffffffffffffffffff166004600084815260200190815260200160002060009054906101000a900473ffffffffffffffffffffffffffffffffffffffff1673ffffffffffffffffffffffffffffffffffffffff1614159050919050565b600073ffffffffffffffffffffffffffffffffffffffff168473ffffffffffffffffffffffffffffffffffffffff1614156123be576040517f08c379a00000000000000000000000000000000000000000000000000000000081526004016123b590614c39565b60405180910390fd5b60006123c8611c4d565b90506123e9816000876123da886131a6565b6123e3886131a6565b87612f78565b8260008086815260200190815260200160002060008773ffffffffffffffffffffffffffffffffffffffff1673ffffffffffffffffffffffffffffffffffffffff16815260200190815260200160002060008282546124489190614df7565b925050819055508473ffffffffffffffffffffffffffffffffffffffff16600073ffffffffffffffffffffffffffffffffffffffff168273ffffffffffffffffffffffffffffffffffffffff167fc3d58168c5ae7397731d063d5bbf3d657854427343f4c083240f7aacaa2d0f6287876040516124c6929190614c74565b60405180910390a46124dd8160008787878761326c565b5050505050565b6124ec611044565b61252b576040517f08c379a0000000000000000000000000000000000000000000000000000000008152600401612522906149b9565b60405180910390fd5b6000600360006101000a81548160ff0219169083151502179055507f5db9ee0a495bf2e6ff9c91a7834c1ba4fdd244a5e8aa4e537bd38aeae4b073aa61256f611c4d565b60405161257c9190614806565b60405180910390a1565b6000600360019054906101000a900473ffffffffffffffffffffffffffffffffffffffff16905081600360016101000a81548173ffffffffffffffffffffffffffffffffffffffff021916908373ffffffffffffffffffffffffffffffffffffffff1602179055508173ffffffffffffffffffffffffffffffffffffffff168173ffffffffffffffffffffffffffffffffffffffff167f8be0079c531659141344cd1fd0a4f28419497f9722a3daafe3b4186f6b6457e060405160405180910390a35050565b6000818361265a9190614df7565b905092915050565b61266a611044565b156126aa576040517f08c379a00000000000000000000000000000000000000000000000000000000081526004016126a190614ad9565b60405180910390fd5b6001600360006101000a81548160ff0219169083151502179055507f62e78cea01bee320cd4e420270b5ea74000d11b0c9f74754ebdbfc544b05a2586126ee611c4d565b6040516126fb9190614806565b60405180910390a1565b600073ffffffffffffffffffffffffffffffffffffffff168373ffffffffffffffffffffffffffffffffffffffff161415612775576040517f08c379a000000000000000000000000000000000000000000000000000000000815260040161276c90614b59565b60405180910390fd5b600061277f611c4d565b90506127af81856000612791876131a6565b61279a876131a6565b60405180602001604052806000815250612f78565b600080600085815260200190815260200160002060008673ffffffffffffffffffffffffffffffffffffffff1673ffffffffffffffffffffffffffffffffffffffff16815260200190815260200160002054905082811015612846576040517f08c379a000000000000000000000000000000000000000000000000000000000815260040161283d90614a39565b60405180910390fd5b82810360008086815260200190815260200160002060008773ffffffffffffffffffffffffffffffffffffffff1673ffffffffffffffffffffffffffffffffffffffff16815260200190815260200160002081905550600073ffffffffffffffffffffffffffffffffffffffff168573ffffffffffffffffffffffffffffffffffffffff168373ffffffffffffffffffffffffffffffffffffffff167fc3d58168c5ae7397731d063d5bbf3d657854427343f4c083240f7aacaa2d0f628787604051612913929190614c74565b60405180910390a45050505050565b600073ffffffffffffffffffffffffffffffffffffffff168473ffffffffffffffffffffffffffffffffffffffff161415612992576040517f08c379a000000000000000000000000000000000000000000000000000000000815260040161298990614c39565b60405180910390fd5b81518351146129d6576040517f08c379a00000000000000000000000000000000000000000000000000000000081526004016129cd90614c19565b60405180910390fd5b60006129e0611c4d565b90506129f181600087878787612f78565b60005b8451811015612af657838181518110612a36577f4e487b7100000000000000000000000000000000000000000000000000000000600052603260045260246000fd5b6020026020010151600080878481518110612a7a577f4e487b7100000000000000000000000000000000000000000000000000000000600052603260045260246000fd5b6020026020010151815260200190815260200160002060008873ffffffffffffffffffffffffffffffffffffffff1673ffffffffffffffffffffffffffffffffffffffff1681526020019081526020016000206000828254612adc9190614df7565b925050819055508080612aee90614f69565b9150506129f4565b508473ffffffffffffffffffffffffffffffffffffffff16600073ffffffffffffffffffffffffffffffffffffffff168273ffffffffffffffffffffffffffffffffffffffff167f4a39dc06d4c0dbc64b70af90fd698a233a518aa5d07e595d983b8c0526c8f7fb8787604051612b6e929190614905565b60405180910390a4612b8581600087878787612fd6565b5050505050565b80612b95611c4d565b73ffffffffffffffffffffffffffffffffffffffff166004600083815260200190815260200160002060009054906101000a900473ffffffffffffffffffffffffffffffffffffffff1673ffffffffffffffffffffffffffffffffffffffff1614612c35576040517f08c379a0000000000000000000000000000000000000000000000000000000008152600401612c2c90614a19565b60405180910390fd5b826004600084815260200190815260200160002060006101000a81548173ffffffffffffffffffffffffffffffffffffffff021916908373ffffffffffffffffffffffffffffffffffffffff160217905550505050565b600073ffffffffffffffffffffffffffffffffffffffff168473ffffffffffffffffffffffffffffffffffffffff161415612cfc576040517f08c379a0000000000000000000000000000000000000000000000000000000008152600401612cf390614af9565b60405180910390fd5b6000612d06611c4d565b9050612d26818787612d17886131a6565b612d20886131a6565b87612f78565b600080600086815260200190815260200160002060008873ffffffffffffffffffffffffffffffffffffffff1673ffffffffffffffffffffffffffffffffffffffff16815260200190815260200160002054905083811015612dbd576040517f08c379a0000000000000000000000000000000000000000000000000000000008152600401612db490614b79565b60405180910390fd5b83810360008087815260200190815260200160002060008973ffffffffffffffffffffffffffffffffffffffff1673ffffffffffffffffffffffffffffffffffffffff168152602001908152602001600020819055508360008087815260200190815260200160002060008873ffffffffffffffffffffffffffffffffffffffff1673ffffffffffffffffffffffffffffffffffffffff1681526020019081526020016000206000828254612e729190614df7565b925050819055508573ffffffffffffffffffffffffffffffffffffffff168773ffffffffffffffffffffffffffffffffffffffff168373ffffffffffffffffffffffffffffffffffffffff167fc3d58168c5ae7397731d063d5bbf3d657854427343f4c083240f7aacaa2d0f628888604051612eef929190614c74565b60405180910390a4612f0582888888888861326c565b50505050505050565b60007f01ffc9a7000000000000000000000000000000000000000000000000000000007bffffffffffffffffffffffffffffffffffffffffffffffffffffffff1916827bffffffffffffffffffffffffffffffffffffffffffffffffffffffff1916149050919050565b612f8686868686868661343c565b612f8e611044565b15612fce576040517f08c379a0000000000000000000000000000000000000000000000000000000008152600401612fc590614a59565b60405180910390fd5b505050505050565b612ff58473ffffffffffffffffffffffffffffffffffffffff16613444565b1561319e578373ffffffffffffffffffffffffffffffffffffffff1663bc197c8187878686866040518663ffffffff1660e01b815260040161303b959493929190614821565b602060405180830381600087803b15801561305557600080fd5b505af192505050801561308657506040513d601f19601f820116820180604052508101906130839190613d07565b60015b6131155761309261505d565b8061309d57506130da565b806040517f08c379a00000000000000000000000000000000000000000000000000000000081526004016130d19190614957565b60405180910390fd5b6040517f08c379a000000000000000000000000000000000000000000000000000000000815260040161310c90614979565b60405180910390fd5b63bc197c8160e01b7bffffffffffffffffffffffffffffffffffffffffffffffffffffffff1916817bffffffffffffffffffffffffffffffffffffffffffffffffffffffff19161461319c576040517f08c379a000000000000000000000000000000000000000000000000000000000815260040161319390614999565b60405180910390fd5b505b505050505050565b60606000600167ffffffffffffffff8111156131eb577f4e487b7100000000000000000000000000000000000000000000000000000000600052604160045260246000fd5b6040519080825280602002602001820160405280156132195781602001602082028036833780820191505090505b5090508281600081518110613257577f4e487b7100000000000000000000000000000000000000000000000000000000600052603260045260246000fd5b60200260200101818152505080915050919050565b61328b8473ffffffffffffffffffffffffffffffffffffffff16613444565b15613434578373ffffffffffffffffffffffffffffffffffffffff1663f23a6e6187878686866040518663ffffffff1660e01b81526004016132d1959493929190614889565b602060405180830381600087803b1580156132eb57600080fd5b505af192505050801561331c57506040513d601f19601f820116820180604052508101906133199190613d07565b60015b6133ab5761332861505d565b806133335750613370565b806040517f08c379a00000000000000000000000000000000000000000000000000000000081526004016133679190614957565b60405180910390fd5b6040517f08c379a00000000000000000000000000000000000000000000000000000000081526004016133a290614979565b60405180910390fd5b63f23a6e6160e01b7bffffffffffffffffffffffffffffffffffffffffffffffffffffffff1916817bffffffffffffffffffffffffffffffffffffffffffffffffffffffff191614613432576040517f08c379a000000000000000000000000000000000000000000000000000000000815260040161342990614999565b60405180910390fd5b505b505050505050565b505050505050565b600080823b905060008111915050919050565b82805461346390614f37565b90600052602060002090601f01602090048101928261348557600085556134cc565b82601f1061349e57805160ff19168380011785556134cc565b828001600101855582156134cc579182015b828111156134cb5782518255916020019190600101906134b0565b5b5090506134d991906134dd565b5090565b5b808211156134f65760008160009055506001016134de565b5090565b600061350d61350884614cce565b614c9d565b9050808382526020820190508285602086028201111561352c57600080fd5b60005b8581101561355c5781613542888261364e565b84526020840193506020830192505060018101905061352f565b5050509392505050565b600061357961357484614cfa565b614c9d565b9050808382526020820190508285602086028201111561359857600080fd5b60005b858110156135c857816135ae8882613794565b84526020840193506020830192505060018101905061359b565b5050509392505050565b60006135e56135e084614d26565b614c9d565b9050828152602081018484840111156135fd57600080fd5b613608848285614ef5565b509392505050565b600061362361361e84614d56565b614c9d565b90508281526020810184848401111561363b57600080fd5b613646848285614ef5565b509392505050565b60008135905061365d81615113565b92915050565b600082601f83011261367457600080fd5b81356136848482602086016134fa565b91505092915050565b60008083601f84011261369f57600080fd5b8235905067ffffffffffffffff8111156136b857600080fd5b6020830191508360208202830111156136d057600080fd5b9250929050565b600082601f8301126136e857600080fd5b81356136f8848260208601613566565b91505092915050565b6000813590506137108161512a565b92915050565b60008135905061372581615141565b92915050565b60008151905061373a81615141565b92915050565b600082601f83011261375157600080fd5b81356137618482602086016135d2565b91505092915050565b600082601f83011261377b57600080fd5b813561378b848260208601613610565b91505092915050565b6000813590506137a381615158565b92915050565b6000602082840312156137bb57600080fd5b60006137c98482850161364e565b91505092915050565b600080604083850312156137e557600080fd5b60006137f38582860161364e565b92505060206138048582860161364e565b9150509250929050565b600080600080600060a0868803121561382657600080fd5b60006138348882890161364e565b95505060206138458882890161364e565b945050604086013567ffffffffffffffff81111561386257600080fd5b61386e888289016136d7565b935050606086013567ffffffffffffffff81111561388b57600080fd5b613897888289016136d7565b925050608086013567ffffffffffffffff8111156138b457600080fd5b6138c088828901613740565b9150509295509295909350565b600080600080600060a086880312156138e557600080fd5b60006138f38882890161364e565b95505060206139048882890161364e565b945050604061391588828901613794565b935050606061392688828901613794565b925050608086013567ffffffffffffffff81111561394357600080fd5b61394f88828901613740565b9150509295509295909350565b6000806000806000806080878903121561397557600080fd5b600061398389828a0161364e565b965050602087013567ffffffffffffffff8111156139a057600080fd5b6139ac89828a0161368d565b9550955050604087013567ffffffffffffffff8111156139cb57600080fd5b6139d789828a0161368d565b9350935050606087013567ffffffffffffffff8111156139f657600080fd5b613a0289828a01613740565b9150509295509295509295565b60008060408385031215613a2257600080fd5b6000613a308582860161364e565b925050602083013567ffffffffffffffff811115613a4d57600080fd5b613a59858286016136d7565b9150509250929050565b60008060408385031215613a7657600080fd5b6000613a848582860161364e565b9250506020613a9585828601613701565b9150509250929050565b60008060408385031215613ab257600080fd5b6000613ac08582860161364e565b9250506020613ad185828601613794565b9150509250929050565b60008060008060808587031215613af157600080fd5b6000613aff8782880161364e565b9450506020613b1087828801613794565b9350506040613b2187828801613794565b925050606085013567ffffffffffffffff811115613b3e57600080fd5b613b4a87828801613740565b91505092959194509250565b600080600080600060a08688031215613b6e57600080fd5b6000613b7c8882890161364e565b9550506020613b8d88828901613794565b9450506040613b9e88828901613794565b935050606086013567ffffffffffffffff811115613bbb57600080fd5b613bc78882890161376a565b925050608086013567ffffffffffffffff811115613be457600080fd5b613bf088828901613740565b9150509295509295909350565b60008060408385031215613c1057600080fd5b600083013567ffffffffffffffff811115613c2a57600080fd5b613c3685828601613663565b925050602083013567ffffffffffffffff811115613c5357600080fd5b613c5f858286016136d7565b9150509250929050565b60008060008060408587031215613c7f57600080fd5b600085013567ffffffffffffffff811115613c9957600080fd5b613ca58782880161368d565b9450945050602085013567ffffffffffffffff811115613cc457600080fd5b613cd08782880161368d565b925092505092959194509250565b600060208284031215613cf057600080fd5b6000613cfe84828501613716565b91505092915050565b600060208284031215613d1957600080fd5b6000613d278482850161372b565b91505092915050565b600060208284031215613d4257600080fd5b600082013567ffffffffffffffff811115613d5c57600080fd5b613d688482850161376a565b91505092915050565b600060208284031215613d8357600080fd5b6000613d9184828501613794565b91505092915050565b60008060408385031215613dad57600080fd5b6000613dbb85828601613794565b925050602083013567ffffffffffffffff811115613dd857600080fd5b613de48582860161376a565b9150509250929050565b60008060408385031215613e0157600080fd5b6000613e0f85828601613794565b9250506020613e2085828601613794565b9150509250929050565b6000613e3683836147e8565b60208301905092915050565b613e4b81614e81565b82525050565b6000613e5c82614d96565b613e668185614dc4565b9350613e7183614d86565b8060005b83811015613ea2578151613e898882613e2a565b9750613e9483614db7565b925050600181019050613e75565b5085935050505092915050565b613eb881614e93565b82525050565b6000613ec982614da1565b613ed38185614dd5565b9350613ee3818560208601614f04565b613eec8161503f565b840191505092915050565b6000613f0282614dac565b613f0c8185614de6565b9350613f1c818560208601614f04565b613f258161503f565b840191505092915050565b6000613f3d603483614de6565b91507f455243313135353a207472616e7366657220746f206e6f6e204552433131353560008301527f526563656976657220696d706c656d656e7465720000000000000000000000006020830152604082019050919050565b6000613fa3602883614de6565b91507f455243313135353a204552433131353552656365697665722072656a6563746560008301527f6420746f6b656e730000000000000000000000000000000000000000000000006020830152604082019050919050565b6000614009601483614de6565b91507f5061757361626c653a206e6f74207061757365640000000000000000000000006000830152602082019050919050565b6000614049602b83614de6565b91507f455243313135353a2062616c616e636520717565727920666f7220746865207a60008301527f65726f20616464726573730000000000000000000000000000000000000000006020830152604082019050919050565b60006140af602683614de6565b91507f4f776e61626c653a206e6577206f776e657220697320746865207a65726f206160008301527f64647265737300000000000000000000000000000000000000000000000000006020830152604082019050919050565b6000614115602f83614de6565b91507f455243313135355072657365742363726561746f724f6e6c793a204f4e4c595f60008301527f43524541544f525f414c4c4f57454400000000000000000000000000000000006020830152604082019050919050565b600061417b602483614de6565b91507f455243313135353a206275726e20616d6f756e7420657863656564732062616c60008301527f616e6365000000000000000000000000000000000000000000000000000000006020830152604082019050919050565b60006141e1602c83614de6565b91507f455243313135355061757361626c653a20746f6b656e207472616e736665722060008301527f7768696c652070617573656400000000000000000000000000000000000000006020830152604082019050919050565b6000614247602983614de6565b91507f455243313135353a2063616c6c6572206973206e6f74206f776e6572206e6f7260008301527f20617070726f76656400000000000000000000000000000000000000000000006020830152604082019050919050565b60006142ad602d83614de6565b91507f45524331313535507265736574236f776e6572734f6e6c793a204f4e4c595f4f60008301527f574e4552535f414c4c4f574544000000000000000000000000000000000000006020830152604082019050919050565b6000614313602d83614de6565b91507f455243313135355072657365742362617463684d696e743a204f4e4c595f435260008301527f4541544f525f414c4c4f574544000000000000000000000000000000000000006020830152604082019050919050565b6000614379601083614de6565b91507f5061757361626c653a20706175736564000000000000000000000000000000006000830152602082019050919050565b60006143b9602583614de6565b91507f455243313135353a207472616e7366657220746f20746865207a65726f20616460008301527f64726573730000000000000000000000000000000000000000000000000000006020830152604082019050919050565b600061441f603283614de6565b91507f455243313135353a207472616e736665722063616c6c6572206973206e6f742060008301527f6f776e6572206e6f7220617070726f76656400000000000000000000000000006020830152604082019050919050565b6000614485602e83614de6565b91507f45524331313535507265736574236372656174653a20746f6b656e205f69642060008301527f616c7265616479206578697374730000000000000000000000000000000000006020830152604082019050919050565b60006144eb602383614de6565b91507f455243313135353a206275726e2066726f6d20746865207a65726f206164647260008301527f65737300000000000000000000000000000000000000000000000000000000006020830152604082019050919050565b6000614551602a83614de6565b91507f455243313135353a20696e73756666696369656e742062616c616e636520666f60008301527f72207472616e73666572000000000000000000000000000000000000000000006020830152604082019050919050565b60006145b7602083614de6565b91507f4f776e61626c653a2063616c6c6572206973206e6f7420746865206f776e65726000830152602082019050919050565b60006145f7602a83614de6565b91507f455243313135355072657365742373657443726561746f723a20494e56414c4960008301527f445f414444524553532e000000000000000000000000000000000000000000006020830152604082019050919050565b600061465d602983614de6565b91507f455243313135353a2073657474696e6720617070726f76616c2073746174757360008301527f20666f722073656c6600000000000000000000000000000000000000000000006020830152604082019050919050565b60006146c3602983614de6565b91507f455243313135353a206163636f756e747320616e6420696473206c656e67746860008301527f206d69736d6174636800000000000000000000000000000000000000000000006020830152604082019050919050565b6000614729602883614de6565b91507f455243313135353a2069647320616e6420616d6f756e7473206c656e6774682060008301527f6d69736d617463680000000000000000000000000000000000000000000000006020830152604082019050919050565b600061478f602183614de6565b91507f455243313135353a206d696e7420746f20746865207a65726f2061646472657360008301527f73000000000000000000000000000000000000000000000000000000000000006020830152604082019050919050565b6147f181614eeb565b82525050565b61480081614eeb565b82525050565b600060208201905061481b6000830184613e42565b92915050565b600060a0820190506148366000830188613e42565b6148436020830187613e42565b81810360408301526148558186613e51565b905081810360608301526148698185613e51565b9050818103608083015261487d8184613ebe565b90509695505050505050565b600060a08201905061489e6000830188613e42565b6148ab6020830187613e42565b6148b860408301866147f7565b6148c560608301856147f7565b81810360808301526148d78184613ebe565b90509695505050505050565b600060208201905081810360008301526148fd8184613e51565b905092915050565b6000604082019050818103600083015261491f8185613e51565b905081810360208301526149338184613e51565b90509392505050565b60006020820190506149516000830184613eaf565b92915050565b600060208201905081810360008301526149718184613ef7565b905092915050565b6000602082019050818103600083015261499281613f30565b9050919050565b600060208201905081810360008301526149b281613f96565b9050919050565b600060208201905081810360008301526149d281613ffc565b9050919050565b600060208201905081810360008301526149f28161403c565b9050919050565b60006020820190508181036000830152614a12816140a2565b9050919050565b60006020820190508181036000830152614a3281614108565b9050919050565b60006020820190508181036000830152614a528161416e565b9050919050565b60006020820190508181036000830152614a72816141d4565b9050919050565b60006020820190508181036000830152614a928161423a565b9050919050565b60006020820190508181036000830152614ab2816142a0565b9050919050565b60006020820190508181036000830152614ad281614306565b9050919050565b60006020820190508181036000830152614af28161436c565b9050919050565b60006020820190508181036000830152614b12816143ac565b9050919050565b60006020820190508181036000830152614b3281614412565b9050919050565b60006020820190508181036000830152614b5281614478565b9050919050565b60006020820190508181036000830152614b72816144de565b9050919050565b60006020820190508181036000830152614b9281614544565b9050919050565b60006020820190508181036000830152614bb2816145aa565b9050919050565b60006020820190508181036000830152614bd2816145ea565b9050919050565b60006020820190508181036000830152614bf281614650565b9050919050565b60006020820190508181036000830152614c12816146b6565b9050919050565b60006020820190508181036000830152614c328161471c565b9050919050565b60006020820190508181036000830152614c5281614782565b9050919050565b6000602082019050614c6e60008301846147f7565b92915050565b6000604082019050614c8960008301856147f7565b614c9660208301846147f7565b9392505050565b6000604051905081810181811067ffffffffffffffff82111715614cc457614cc3615010565b5b8060405250919050565b600067ffffffffffffffff821115614ce957614ce8615010565b5b602082029050602081019050919050565b600067ffffffffffffffff821115614d1557614d14615010565b5b602082029050602081019050919050565b600067ffffffffffffffff821115614d4157614d40615010565b5b601f19601f8301169050602081019050919050565b600067ffffffffffffffff821115614d7157614d70615010565b5b601f19601f8301169050602081019050919050565b6000819050602082019050919050565b600081519050919050565b600081519050919050565b600081519050919050565b6000602082019050919050565b600082825260208201905092915050565b600082825260208201905092915050565b600082825260208201905092915050565b6000614e0282614eeb565b9150614e0d83614eeb565b9250827fffffffffffffffffffffffffffffffffffffffffffffffffffffffffffffffff03821115614e4257614e41614fb2565b5b828201905092915050565b6000614e5882614eeb565b9150614e6383614eeb565b925082821015614e7657614e75614fb2565b5b828203905092915050565b6000614e8c82614ecb565b9050919050565b60008115159050919050565b60007fffffffff0000000000000000000000000000000000000000000000000000000082169050919050565b600073ffffffffffffffffffffffffffffffffffffffff82169050919050565b6000819050919050565b82818337600083830152505050565b60005b83811015614f22578082015181840152602081019050614f07565b83811115614f31576000848401525b50505050565b60006002820490506001821680614f4f57607f821691505b60208210811415614f6357614f62614fe1565b5b50919050565b6000614f7482614eeb565b91507fffffffffffffffffffffffffffffffffffffffffffffffffffffffffffffffff821415614fa757614fa6614fb2565b5b600182019050919050565b7f4e487b7100000000000000000000000000000000000000000000000000000000600052601160045260246000fd5b7f4e487b7100000000000000000000000000000000000000000000000000000000600052602260045260246000fd5b7f4e487b7100000000000000000000000000000000000000000000000000000000600052604160045260246000fd5b6000601f19601f8301169050919050565b60008160e01c9050919050565b600060443d101561506d57615110565b60046000803e61507e600051615050565b6308c379a0811461508f5750615110565b60405160043d036004823e80513d602482011167ffffffffffffffff821117156150bb57505050615110565b808201805167ffffffffffffffff8111156150da575050505050615110565b8060208301013d85018111156150f557505050505050615110565b6150fe8261503f565b60208401016040528296505050505050505b90565b61511c81614e81565b811461512757600080fd5b50565b61513381614e93565b811461513e57600080fd5b50565b61514a81614e9f565b811461515557600080fd5b50565b61516181614eeb565b811461516c57600080fd5b5056fea264697066735822122033f663d13fb7248207af06bcfa9929c0c5c33b3ad7f58d49bc47e229b0f6df1064736f6c63430008000033",
  "immutableReferences": {},
  "source": "// SPDX-License-Identifier: MIT\r\n\r\npragma solidity ^0.8.0;\r\n\r\nimport \"openzeppelin-solidity/contracts/access/Ownable.sol\";\r\nimport \"openzeppelin-solidity/contracts/utils/math/SafeMath.sol\";\r\nimport \"openzeppelin-solidity/contracts/utils/Address.sol\";\r\nimport \"openzeppelin-solidity/contracts/utils/Strings.sol\";\r\nimport \"openzeppelin-solidity/contracts/token/ERC1155/ERC1155.sol\";\r\nimport \"openzeppelin-solidity/contracts/token/ERC1155/IERC1155Receiver.sol\";\r\nimport \"openzeppelin-solidity/contracts/token/ERC1155/extensions/ERC1155Pausable.sol\";\r\n\r\n/**\r\n * @title ERC1155Preset\r\n * ERC1155Preset - ERC1155 contract has create and mint functionality, and supports useful standards from OpenZeppelin,\r\n  like _exists(), name(), symbol(), and totalSupply()\r\n */\r\ncontract ERC1155Preset is ERC1155Pausable, Ownable {\r\n    using Address for address;\r\n    using Strings for uint256;\r\n    using SafeMath for uint256;\r\n\r\n    mapping(uint256 => address) public creators;\r\n    mapping(uint256 => uint256) public tokenSupply;\r\n    mapping(uint256 => string) public customUri;\r\n\r\n    // Contract name\r\n    string public name;\r\n    // Contract symbol\r\n    string public symbol;\r\n\r\n    /**\r\n     * @dev Require _msgSender() to be the creator of the token id\r\n     */\r\n    modifier creatorOnly(uint256 _id) {\r\n        require(\r\n            creators[_id] == _msgSender(),\r\n            \"ERC1155Preset#creatorOnly: ONLY_CREATOR_ALLOWED\"\r\n        );\r\n        _;\r\n    }\r\n\r\n    /**\r\n     * @dev Require _msgSender() to own more than 0 of the token id\r\n     */\r\n    modifier ownersOnly(uint256 _id) {\r\n        require(\r\n            balanceOf(_msgSender(), _id) > 0,\r\n            \"ERC1155Preset#ownersOnly: ONLY_OWNERS_ALLOWED\"\r\n        );\r\n        _;\r\n    }\r\n\r\n    constructor(\r\n        string memory _name,\r\n        string memory _symbol,\r\n        string memory _uri\r\n    ) ERC1155(_uri) {\r\n        name = _name;\r\n        symbol = _symbol;\r\n    }\r\n\r\n    /**\r\n     * @dev Returns the total quantity for a token ID\r\n     * @param _id uint256 ID of the token to query\r\n     * @return amount of token in existence\r\n     */\r\n    function totalSupply(uint256 _id) public view returns (uint256) {\r\n        return tokenSupply[_id];\r\n    }\r\n\r\n    /**\r\n     * @dev Sets a new URI for all token types, by relying on the token type ID\r\n     * substitution mechanism\r\n     * https://eips.ethereum.org/EIPS/eip-1155#metadata[defined in the EIP].\r\n     * @param _newURI New URI for all tokens\r\n     */\r\n    function setURI(string memory _newURI) public onlyOwner {\r\n        _setURI(_newURI);\r\n    }\r\n\r\n    /**\r\n     * @dev Will update the base URI for the token\r\n     * @param _tokenId The token to update. _msgSender() must be its creator.\r\n     * @param _newURI New URI for the token.\r\n     */\r\n    function setCustomURI(uint256 _tokenId, string memory _newURI)\r\n        public\r\n        creatorOnly(_tokenId)\r\n    {\r\n        customUri[_tokenId] = _newURI;\r\n        emit URI(_newURI, _tokenId);\r\n    }\r\n\r\n    function creatorOf(uint256 _id) public view returns (address) {\r\n        return creators[_id];\r\n    }\r\n\r\n    /**\r\n     * @dev Creates a new token type and assigns _initialSupply to an address\r\n     * NOTE: remove onlyOwner if you want third parties to create new tokens on\r\n     *       your contract (which may change your IDs)\r\n     * NOTE: The token id must be passed. This allows lazy creation of tokens or\r\n     *       creating NFTs by setting the id's high bits with the method\r\n     *       described in ERC1155 or to use ids representing values other than\r\n     *       successive small integers. If you wish to create ids as successive\r\n     *       small integers you can either subclass this class to count onchain\r\n     *       or maintain the offchain cache of identifiers recommended in\r\n     *       ERC1155 and calculate successive ids from that.\r\n     * @param _initialOwner address of the first owner of the token\r\n     * @param _id The id of the token to create (must not currenty exist).\r\n     * @param _initialSupply amount to supply the first owner\r\n     * @param _uri Optional URI for this token type\r\n     * @param _data Data to pass if receiver is contract\r\n     * @return The newly created token ID\r\n     */\r\n    function create(\r\n        address _initialOwner,\r\n        uint256 _id,\r\n        uint256 _initialSupply,\r\n        string memory _uri,\r\n        bytes memory _data\r\n    ) public onlyOwner returns (uint256) {\r\n        require(\r\n            !_exists(_id),\r\n            \"ERC1155Preset#create: token _id already exists\"\r\n        );\r\n        creators[_id] = _msgSender();\r\n\r\n        if (bytes(_uri).length > 0) {\r\n            customUri[_id] = _uri;\r\n            emit URI(_uri, _id);\r\n        }\r\n\r\n        _mint(_initialOwner, _id, _initialSupply, _data);\r\n\r\n        tokenSupply[_id] = _initialSupply;\r\n        return _id;\r\n    }\r\n\r\n    /**\r\n     * @dev Mints some amount of tokens to an address\r\n     * @param _to          Address of the future owner of the token\r\n     * @param _id          Token ID to mint\r\n     * @param _quantity    Amount of tokens to mint\r\n     * @param _data        Data to pass if receiver is contract\r\n     */\r\n    function mint(\r\n        address _to,\r\n        uint256 _id,\r\n        uint256 _quantity,\r\n        bytes memory _data\r\n    ) public virtual creatorOnly(_id) {\r\n        _mint(_to, _id, _quantity, _data);\r\n        tokenSupply[_id] = tokenSupply[_id].add(_quantity);\r\n    }\r\n\r\n    /**\r\n     * @dev Mint tokens for each id in _ids\r\n     * @param _to          The address to mint tokens to\r\n     * @param _ids         Array of ids to mint\r\n     * @param _quantities  Array of amounts of tokens to mint per id\r\n     * @param _data        Data to pass if receiver is contract\r\n     */\r\n    function batchMint(\r\n        address _to,\r\n        uint256[] calldata _ids,\r\n        uint256[] calldata _quantities,\r\n        bytes memory _data\r\n    ) public {\r\n        for (uint256 i = 0; i < _ids.length; i++) {\r\n            uint256 _id = _ids[i];\r\n            require(\r\n                creators[_id] == _msgSender(),\r\n                \"ERC1155Preset#batchMint: ONLY_CREATOR_ALLOWED\"\r\n            );\r\n            uint256 quantity = _quantities[i];\r\n            tokenSupply[_id] = tokenSupply[_id].add(quantity);\r\n        }\r\n        _mintBatch(_to, _ids, _quantities, _data);\r\n    }\r\n\r\n    /**\r\n     * @notice Burn _quantity of tokens of a given id from msg.sender\r\n     * @dev This will not change the current issuance tracked in _supplyManagerAddr.\r\n     * @param _id     Asset id to burn\r\n     * @param _quantity The amount to be burn\r\n     */\r\n    function burn(uint256 _id, uint256 _quantity) public ownersOnly(_id) {\r\n        _burn(_msgSender(), _id, _quantity);\r\n        tokenSupply[_id] = tokenSupply[_id].sub(_quantity);\r\n    }\r\n\r\n    /**\r\n     * @notice Burn _quantities of tokens of given ids from msg.sender\r\n     * @dev This will not change the current issuance tracked in _supplyManagerAddr.\r\n     * @param _ids     Asset id to burn\r\n     * @param _quantities The amount to be burn\r\n     */\r\n    function batchBurn(uint256[] calldata _ids, uint256[] calldata _quantities)\r\n        public\r\n    {\r\n        for (uint256 i = 0; i < _ids.length; i++) {\r\n            uint256 _id = _ids[i];\r\n            require(\r\n                balanceOf(_msgSender(), _id) > 0,\r\n                \"ERC1155Preset#ownersOnly: ONLY_OWNERS_ALLOWED\"\r\n            );\r\n            uint256 quantity = _quantities[i];\r\n            tokenSupply[_id] = tokenSupply[_id].sub(quantity);\r\n        }\r\n        _burnBatch(msg.sender, _ids, _quantities);\r\n    }\r\n\r\n    /**\r\n     * @dev Pauses all token transfers.\r\n     *\r\n     * See {ERC1155Pausable} and {Pausable-_pause}.\r\n     *\r\n     * Requirements:\r\n     *\r\n     * - the caller must contract owner.\r\n     */\r\n    function pause() public onlyOwner {\r\n        _pause();\r\n    }\r\n\r\n    /**\r\n     * @dev Unpauses all token transfers.\r\n     *\r\n     * See {ERC1155Pausable} and {Pausable-_unpause}.\r\n     *\r\n     * Requirements:\r\n     *\r\n     * - the caller must contract owner.\r\n     */\r\n    function unpause() public onlyOwner {\r\n        _unpause();\r\n    }\r\n\r\n    /**\r\n     * @dev Change the creator address for given tokens\r\n     * @param _to   Address of the new creator\r\n     * @param _ids  Array of Token IDs to change creator\r\n     */\r\n    function setCreator(address _to, uint256[] memory _ids) public {\r\n        require(\r\n            _to != address(0),\r\n            \"ERC1155Preset#setCreator: INVALID_ADDRESS.\"\r\n        );\r\n        for (uint256 i = 0; i < _ids.length; i++) {\r\n            uint256 id = _ids[i];\r\n            _setCreator(_to, id);\r\n        }\r\n    }\r\n\r\n    /**\r\n     * @dev See {IERC165-supportsInterface}.\r\n     */\r\n    function supportsInterface(bytes4 interfaceId)\r\n        public\r\n        view\r\n        virtual\r\n        override(ERC1155)\r\n        returns (bool)\r\n    {\r\n        return super.supportsInterface(interfaceId);\r\n    }\r\n\r\n    /**\r\n     * @dev Change the creator address for given token\r\n     * @param _to   Address of the new creator\r\n     * @param _id  Token IDs to change creator of\r\n     */\r\n    function _setCreator(address _to, uint256 _id) internal creatorOnly(_id) {\r\n        creators[_id] = _to;\r\n    }\r\n\r\n    /**\r\n     * @dev Returns whether the specified token exists by checking to see if it has a creator\r\n     * @param _id uint256 ID of the token to query the existence of\r\n     * @return bool whether the token exists\r\n     */\r\n    function _exists(uint256 _id) internal view returns (bool) {\r\n        return creators[_id] != address(0);\r\n    }\r\n\r\n    function exists(uint256 _id) external view returns (bool) {\r\n        return _exists(_id);\r\n    }\r\n}\r\n",
  "sourcePath": "D:\\MetaNFT\\MetaNFT\\contracts\\ERC1155\\ERC1155Preset.sol",
  "compiler": {
    "name": "solc",
    "version": "0.8.0+commit.c7dfd78e.Emscripten.clang"
  },
  "schemaVersion": "3.4.3",
  "updatedAt": "2021-09-22T09:26:13.250Z",
  "devdoc": {
    "kind": "dev",
    "methods": {
      "balanceOf(address,uint256)": {
        "details": "See {IERC1155-balanceOf}. Requirements: - `account` cannot be the zero address."
      },
      "balanceOfBatch(address[],uint256[])": {
        "details": "See {IERC1155-balanceOfBatch}. Requirements: - `accounts` and `ids` must have the same length."
      },
      "batchBurn(uint256[],uint256[])": {
        "details": "This will not change the current issuance tracked in _supplyManagerAddr.",
        "params": {
          "_ids": "Asset id to burn",
          "_quantities": "The amount to be burn"
        }
      },
      "batchMint(address,uint256[],uint256[],bytes)": {
        "details": "Mint tokens for each id in _ids",
        "params": {
          "_data": "Data to pass if receiver is contract",
          "_ids": "Array of ids to mint",
          "_quantities": "Array of amounts of tokens to mint per id",
          "_to": "The address to mint tokens to"
        }
      },
      "burn(uint256,uint256)": {
        "details": "This will not change the current issuance tracked in _supplyManagerAddr.",
        "params": {
          "_id": "Asset id to burn",
          "_quantity": "The amount to be burn"
        }
      },
      "create(address,uint256,uint256,string,bytes)": {
        "details": "Creates a new token type and assigns _initialSupply to an address NOTE: remove onlyOwner if you want third parties to create new tokens on       your contract (which may change your IDs) NOTE: The token id must be passed. This allows lazy creation of tokens or       creating NFTs by setting the id's high bits with the method       described in ERC1155 or to use ids representing values other than       successive small integers. If you wish to create ids as successive       small integers you can either subclass this class to count onchain       or maintain the offchain cache of identifiers recommended in       ERC1155 and calculate successive ids from that.",
        "params": {
          "_data": "Data to pass if receiver is contract",
          "_id": "The id of the token to create (must not currenty exist).",
          "_initialOwner": "address of the first owner of the token",
          "_initialSupply": "amount to supply the first owner",
          "_uri": "Optional URI for this token type"
        },
        "returns": {
          "_0": "The newly created token ID"
        }
      },
      "isApprovedForAll(address,address)": {
        "details": "See {IERC1155-isApprovedForAll}."
      },
      "mint(address,uint256,uint256,bytes)": {
        "details": "Mints some amount of tokens to an address",
        "params": {
          "_data": "Data to pass if receiver is contract",
          "_id": "Token ID to mint",
          "_quantity": "Amount of tokens to mint",
          "_to": "Address of the future owner of the token"
        }
      },
      "owner()": {
        "details": "Returns the address of the current owner."
      },
      "pause()": {
        "details": "Pauses all token transfers. See {ERC1155Pausable} and {Pausable-_pause}. Requirements: - the caller must contract owner."
      },
      "paused()": {
        "details": "Returns true if the contract is paused, and false otherwise."
      },
      "renounceOwnership()": {
        "details": "Leaves the contract without owner. It will not be possible to call `onlyOwner` functions anymore. Can only be called by the current owner. NOTE: Renouncing ownership will leave the contract without an owner, thereby removing any functionality that is only available to the owner."
      },
      "safeBatchTransferFrom(address,address,uint256[],uint256[],bytes)": {
        "details": "See {IERC1155-safeBatchTransferFrom}."
      },
      "safeTransferFrom(address,address,uint256,uint256,bytes)": {
        "details": "See {IERC1155-safeTransferFrom}."
      },
      "setApprovalForAll(address,bool)": {
        "details": "See {IERC1155-setApprovalForAll}."
      },
      "setCreator(address,uint256[])": {
        "details": "Change the creator address for given tokens",
        "params": {
          "_ids": "Array of Token IDs to change creator",
          "_to": "Address of the new creator"
        }
      },
      "setCustomURI(uint256,string)": {
        "details": "Will update the base URI for the token",
        "params": {
          "_newURI": "New URI for the token.",
          "_tokenId": "The token to update. _msgSender() must be its creator."
        }
      },
      "setURI(string)": {
        "details": "Sets a new URI for all token types, by relying on the token type ID substitution mechanism https://eips.ethereum.org/EIPS/eip-1155#metadata[defined in the EIP].",
        "params": {
          "_newURI": "New URI for all tokens"
        }
      },
      "supportsInterface(bytes4)": {
        "details": "See {IERC165-supportsInterface}."
      },
      "totalSupply(uint256)": {
        "details": "Returns the total quantity for a token ID",
        "params": {
          "_id": "uint256 ID of the token to query"
        },
        "returns": {
          "_0": "amount of token in existence"
        }
      },
      "transferOwnership(address)": {
        "details": "Transfers ownership of the contract to a new account (`newOwner`). Can only be called by the current owner."
      },
      "unpause()": {
        "details": "Unpauses all token transfers. See {ERC1155Pausable} and {Pausable-_unpause}. Requirements: - the caller must contract owner."
      },
      "uri(uint256)": {
        "details": "See {IERC1155MetadataURI-uri}. This implementation returns the same URI for *all* token types. It relies on the token type ID substitution mechanism https://eips.ethereum.org/EIPS/eip-1155#metadata[defined in the EIP]. Clients calling this function must replace the `\\{id\\}` substring with the actual token type ID."
      }
    },
    "title": "ERC1155Preset ERC1155Preset - ERC1155 contract has create and mint functionality, and supports useful standards from OpenZeppelin, like _exists(), name(), symbol(), and totalSupply()",
    "version": 1
  },
  "userdoc": {
    "kind": "user",
    "methods": {
      "batchBurn(uint256[],uint256[])": {
        "notice": "Burn _quantities of tokens of given ids from msg.sender"
      },
      "burn(uint256,uint256)": {
        "notice": "Burn _quantity of tokens of a given id from msg.sender"
      }
    },
    "version": 1
  }
}