{
  "contractName": "ERC3664",
  "abi": [
    {
      "inputs": [],
      "stateMutability": "nonpayable",
      "type": "constructor"
    },
    {
      "anonymous": false,
      "inputs": [
        {
          "indexed": true,
          "internalType": "address",
          "name": "operator",
          "type": "address"
        },
        {
          "indexed": true,
          "internalType": "uint256",
          "name": "attrId",
          "type": "uint256"
        },
        {
          "indexed": false,
          "internalType": "string",
          "name": "name",
          "type": "string"
        },
        {
          "indexed": false,
          "internalType": "string",
          "name": "symbol",
          "type": "string"
        },
        {
          "indexed": false,
          "internalType": "string",
          "name": "uri",
          "type": "string"
        }
      ],
      "name": "NewAttribute",
      "type": "event"
    },
    {
      "anonymous": false,
      "inputs": [
        {
          "indexed": true,
          "internalType": "address",
          "name": "operator",
          "type": "address"
        },
        {
          "indexed": true,
          "internalType": "uint256[]",
          "name": "attrIds",
          "type": "uint256[]"
        },
        {
          "indexed": false,
          "internalType": "string[]",
          "name": "names",
          "type": "string[]"
        },
        {
          "indexed": false,
          "internalType": "string[]",
          "name": "symbols",
          "type": "string[]"
        },
        {
          "indexed": false,
          "internalType": "string[]",
          "name": "uris",
          "type": "string[]"
        }
      ],
      "name": "NewAttributeBatch",
      "type": "event"
    },
    {
      "anonymous": false,
      "inputs": [
        {
          "indexed": true,
          "internalType": "address",
          "name": "operator",
          "type": "address"
        },
        {
          "indexed": false,
          "internalType": "uint256",
          "name": "from",
          "type": "uint256"
        },
        {
          "indexed": false,
          "internalType": "uint256",
          "name": "to",
          "type": "uint256"
        },
        {
          "indexed": true,
          "internalType": "uint256[]",
          "name": "attrIds",
          "type": "uint256[]"
        },
        {
          "indexed": false,
          "internalType": "uint256[]",
          "name": "values",
          "type": "uint256[]"
        }
      ],
      "name": "TransferBatch",
      "type": "event"
    },
    {
      "anonymous": false,
      "inputs": [
        {
          "indexed": true,
          "internalType": "address",
          "name": "operator",
          "type": "address"
        },
        {
          "indexed": false,
          "internalType": "uint256",
          "name": "from",
          "type": "uint256"
        },
        {
          "indexed": false,
          "internalType": "uint256",
          "name": "to",
          "type": "uint256"
        },
        {
          "indexed": true,
          "internalType": "uint256",
          "name": "attrId",
          "type": "uint256"
        },
        {
          "indexed": false,
          "internalType": "uint256",
          "name": "value",
          "type": "uint256"
        }
      ],
      "name": "TransferSingle",
      "type": "event"
    },
    {
      "inputs": [
        {
          "internalType": "uint256",
          "name": "",
          "type": "uint256"
        }
      ],
      "name": "_attrMetadatas",
      "outputs": [
        {
          "internalType": "string",
          "name": "name",
          "type": "string"
        },
        {
          "internalType": "string",
          "name": "symbol",
          "type": "string"
        },
        {
          "internalType": "string",
          "name": "uri",
          "type": "string"
        },
        {
          "internalType": "bool",
          "name": "exist",
          "type": "bool"
        }
      ],
      "stateMutability": "view",
      "type": "function"
    },
    {
      "inputs": [
        {
          "internalType": "uint256",
          "name": "",
          "type": "uint256"
        },
        {
          "internalType": "uint256",
          "name": "",
          "type": "uint256"
        }
      ],
      "name": "_balances",
      "outputs": [
        {
          "internalType": "uint256",
          "name": "",
          "type": "uint256"
        }
      ],
      "stateMutability": "view",
      "type": "function"
    },
    {
      "inputs": [
        {
          "internalType": "uint256",
          "name": "",
          "type": "uint256"
        },
        {
          "internalType": "uint256",
          "name": "",
          "type": "uint256"
        }
      ],
      "name": "_texts",
      "outputs": [
        {
          "internalType": "bytes",
          "name": "",
          "type": "bytes"
        }
      ],
      "stateMutability": "view",
      "type": "function"
    },
    {
      "inputs": [
        {
          "internalType": "uint256",
          "name": "",
          "type": "uint256"
        }
      ],
      "name": "primaryAttrs",
      "outputs": [
        {
          "internalType": "uint256",
          "name": "",
          "type": "uint256"
        }
      ],
      "stateMutability": "view",
      "type": "function"
    },
    {
      "inputs": [
        {
          "internalType": "uint256",
          "name": "",
          "type": "uint256"
        },
        {
          "internalType": "uint256",
          "name": "",
          "type": "uint256"
        }
      ],
      "name": "secondaryAttrs",
      "outputs": [
        {
          "internalType": "uint256",
          "name": "",
          "type": "uint256"
        }
      ],
      "stateMutability": "view",
      "type": "function"
    },
    {
      "inputs": [
        {
          "internalType": "bytes4",
          "name": "interfaceId",
          "type": "bytes4"
        }
      ],
      "name": "supportsInterface",
      "outputs": [
        {
          "internalType": "bool",
          "name": "",
          "type": "bool"
        }
      ],
      "stateMutability": "view",
      "type": "function"
    },
    {
      "inputs": [
        {
          "internalType": "uint256",
          "name": "attrId",
          "type": "uint256"
        }
      ],
      "name": "name",
      "outputs": [
        {
          "internalType": "string",
          "name": "",
          "type": "string"
        }
      ],
      "stateMutability": "view",
      "type": "function"
    },
    {
      "inputs": [
        {
          "internalType": "uint256",
          "name": "attrId",
          "type": "uint256"
        }
      ],
      "name": "symbol",
      "outputs": [
        {
          "internalType": "string",
          "name": "",
          "type": "string"
        }
      ],
      "stateMutability": "view",
      "type": "function"
    },
    {
      "inputs": [
        {
          "internalType": "uint256",
          "name": "attrId",
          "type": "uint256"
        }
      ],
      "name": "attrURI",
      "outputs": [
        {
          "internalType": "string",
          "name": "",
          "type": "string"
        }
      ],
      "stateMutability": "view",
      "type": "function"
    },
    {
      "inputs": [
        {
          "internalType": "uint256",
          "name": "tokenId",
          "type": "uint256"
        }
      ],
      "name": "primaryAttributeOf",
      "outputs": [
        {
          "internalType": "uint256",
          "name": "",
          "type": "uint256"
        }
      ],
      "stateMutability": "view",
      "type": "function"
    },
    {
      "inputs": [
        {
          "internalType": "uint256",
          "name": "tokenId",
          "type": "uint256"
        }
      ],
      "name": "attributesOf",
      "outputs": [
        {
          "internalType": "uint256[]",
          "name": "",
          "type": "uint256[]"
        }
      ],
      "stateMutability": "view",
      "type": "function"
    },
    {
      "inputs": [
        {
          "internalType": "uint256",
          "name": "tokenId",
          "type": "uint256"
        },
        {
          "internalType": "uint256",
          "name": "attrId",
          "type": "uint256"
        }
      ],
      "name": "balanceOf",
      "outputs": [
        {
          "internalType": "uint256",
          "name": "",
          "type": "uint256"
        }
      ],
      "stateMutability": "view",
      "type": "function"
    },
    {
      "inputs": [
        {
          "internalType": "uint256",
          "name": "tokenId",
          "type": "uint256"
        },
        {
          "internalType": "uint256[]",
          "name": "attrIds",
          "type": "uint256[]"
        }
      ],
      "name": "balanceOfBatch",
      "outputs": [
        {
          "internalType": "uint256[]",
          "name": "",
          "type": "uint256[]"
        }
      ],
      "stateMutability": "view",
      "type": "function"
    },
    {
      "inputs": [
        {
          "internalType": "uint256",
          "name": "tokenId",
          "type": "uint256"
        },
        {
          "internalType": "uint256",
          "name": "attrId",
          "type": "uint256"
        }
      ],
      "name": "textOf",
      "outputs": [
        {
          "internalType": "bytes",
          "name": "",
          "type": "bytes"
        }
      ],
      "stateMutability": "view",
      "type": "function"
    },
    {
      "inputs": [
        {
          "internalType": "uint256",
          "name": "tokenId",
          "type": "uint256"
        },
        {
          "internalType": "uint256",
          "name": "attrId",
          "type": "uint256"
        },
        {
          "internalType": "uint256",
          "name": "amount",
          "type": "uint256"
        },
        {
          "internalType": "bytes",
          "name": "text",
          "type": "bytes"
        },
        {
          "internalType": "bool",
          "name": "isPrimary",
          "type": "bool"
        }
      ],
      "name": "attach",
      "outputs": [],
      "stateMutability": "nonpayable",
      "type": "function"
    },
    {
      "inputs": [
        {
          "internalType": "uint256",
          "name": "tokenId",
          "type": "uint256"
        },
        {
          "internalType": "uint256[]",
          "name": "attrIds",
          "type": "uint256[]"
        },
        {
          "internalType": "uint256[]",
          "name": "amounts",
          "type": "uint256[]"
        },
        {
          "internalType": "bytes[]",
          "name": "texts",
          "type": "bytes[]"
        }
      ],
      "name": "batchAttach",
      "outputs": [],
      "stateMutability": "nonpayable",
      "type": "function"
    }
  ],
  "bytecode": "0x608060405234801561001057600080fd5b506126ae806100206000396000f3fe608060405234801561001057600080fd5b50600436106100ff5760003560e01c806387793623116100975780639a046ac5116100665780639a046ac51461031f5780639bc5ae541461034f578063b888fd0e1461037f578063ea699633146103af576100ff565b8063877936231461027357806387e21d42146102a35780638df5a792146102d3578063936ca9e614610303576100ff565b806345e74373116100d357806345e74373146101c45780634e41a1fb146101e05780635245110d146102105780635d12611014610243576100ff565b8062ad800c1461010457806301ffc9a71461013457806309363c44146101645780632773707114610194575b600080fd5b61011e600480360381019061011991906119d8565b6103df565b60405161012b91906120f3565b60405180910390f35b61014e600480360381019061014991906119af565b6104ce565b60405161015b919061203f565b60405180910390f35b61017e600480360381019061017991906119d8565b6105b0565b60405161018b919061201d565b60405180910390f35b6101ae60048036038101906101a99190611b12565b61061b565b6040516101bb919061220f565b60405180910390f35b6101de60048036038101906101d99190611a59565b61064c565b005b6101fa60048036038101906101f591906119d8565b610ac9565b60405161020791906120f3565b60405180910390f35b61022a600480360381019061022591906119d8565b610bb8565b60405161023a9493929190612115565b60405180910390f35b61025d60048036038101906102589190611a01565b610d8d565b60405161026a919061201d565b60405180910390f35b61028d60048036038101906102889190611b12565b610ebe565b60405161029a919061220f565b60405180910390f35b6102bd60048036038101906102b891906119d8565b610ee3565b6040516102ca919061220f565b60405180910390f35b6102ed60048036038101906102e891906119d8565b610f00565b6040516102fa919061220f565b60405180910390f35b61031d60048036038101906103189190611b4e565b610f18565b005b61033960048036038101906103349190611b12565b611101565b604051610346919061205a565b60405180910390f35b610369600480360381019061036491906119d8565b6111b8565b60405161037691906120f3565b60405180910390f35b61039960048036038101906103949190611b12565b61133f565b6040516103a6919061205a565b60405180910390f35b6103c960048036038101906103c49190611b12565b6113ec565b6040516103d6919061220f565b60405180910390f35b60606103ea8261141b565b610429576040517f08c379a0000000000000000000000000000000000000000000000000000000008152600401610420906121ef565b60405180910390fd5b6000808381526020019081526020016000206000018054610449906124ba565b80601f0160208091040260200160405190810160405280929190818152602001828054610475906124ba565b80156104c25780601f10610497576101008083540402835291602001916104c2565b820191906000526020600020905b8154815290600101906020018083116104a557829003601f168201915b50505050509050919050565b60007f75205675000000000000000000000000000000000000000000000000000000007bffffffffffffffffffffffffffffffffffffffffffffffffffffffff1916827bffffffffffffffffffffffffffffffffffffffffffffffffffffffff1916148061059957507fd5298fa3000000000000000000000000000000000000000000000000000000007bffffffffffffffffffffffffffffffffffffffffffffffffffffffff1916827bffffffffffffffffffffffffffffffffffffffffffffffffffffffff1916145b806105a957506105a882611447565b5b9050919050565b60606004600083815260200190815260200160002080548060200260200160405190810160405280929190818152602001828054801561060f57602002820191906000526020600020905b8154815260200190600101908083116105fb575b50505050509050919050565b6004602052816000526040600020818154811061063757600080fd5b90600052602060002001600091509150505481565b60006106566114b1565b90506106f88160008a8a8a80806020026020016040519081016040528093929190818152602001838360200280828437600081840152601f19601f82011690508083019250505050505050898980806020026020016040519081016040528093929190818152602001838360200280828437600081840152601f19601f82011690508083019250505050505050604051806020016040528060008152506114b9565b60005b87879050811015610a515761074e888883818110610742577f4e487b7100000000000000000000000000000000000000000000000000000000600052603260045260246000fd5b9050602002013561141b565b61078d576040517f08c379a00000000000000000000000000000000000000000000000000000000081526004016107849061216f565b60405180910390fd5b6000600160008a8a858181106107cc577f4e487b7100000000000000000000000000000000000000000000000000000000600052603260045260246000fd5b90506020020135815260200190815260200160002060008b815260200190815260200160002054141561087357600460008a8152602001908152602001600020888883818110610845577f4e487b7100000000000000000000000000000000000000000000000000000000600052603260045260246000fd5b9050602002013590806001815401808255809150506001900390600052602060002001600090919091909150555b60008484838181106108ae577f4e487b7100000000000000000000000000000000000000000000000000000000600052603260045260246000fd5b90506020028101906108c0919061222a565b9050111561098557838382818110610901577f4e487b7100000000000000000000000000000000000000000000000000000000600052603260045260246000fd5b9050602002810190610913919061222a565b600260008b8b86818110610950577f4e487b7100000000000000000000000000000000000000000000000000000000600052603260045260246000fd5b90506020020135815260200190815260200160002060008c8152602001908152602001600020919061098392919061174b565b505b8585828181106109be577f4e487b7100000000000000000000000000000000000000000000000000000000600052603260045260246000fd5b90506020020135600160008a8a85818110610a02577f4e487b7100000000000000000000000000000000000000000000000000000000600052603260045260246000fd5b90506020020135815260200190815260200160002060008b81526020019081526020016000206000828254610a379190612369565b925050819055508080610a49906124ec565b9150506106fb565b508686604051610a62929190611fe0565b60405180910390208173ffffffffffffffffffffffffffffffffffffffff167fbfb4d8e5891aebe97980c97616b6b0af2006a58ccabe6e1b7e3da24d0906a85660008b8989604051610ab7949392919061207c565b60405180910390a35050505050505050565b6060610ad48261141b565b610b13576040517f08c379a0000000000000000000000000000000000000000000000000000000008152600401610b0a9061218f565b60405180910390fd5b6000808381526020019081526020016000206001018054610b33906124ba565b80601f0160208091040260200160405190810160405280929190818152602001828054610b5f906124ba565b8015610bac5780601f10610b8157610100808354040283529160200191610bac565b820191906000526020600020905b815481529060010190602001808311610b8f57829003601f168201915b50505050509050919050565b6000602052806000526040600020600091509050806000018054610bdb906124ba565b80601f0160208091040260200160405190810160405280929190818152602001828054610c07906124ba565b8015610c545780601f10610c2957610100808354040283529160200191610c54565b820191906000526020600020905b815481529060010190602001808311610c3757829003601f168201915b505050505090806001018054610c69906124ba565b80601f0160208091040260200160405190810160405280929190818152602001828054610c95906124ba565b8015610ce25780601f10610cb757610100808354040283529160200191610ce2565b820191906000526020600020905b815481529060010190602001808311610cc557829003601f168201915b505050505090806002018054610cf7906124ba565b80601f0160208091040260200160405190810160405280929190818152602001828054610d23906124ba565b8015610d705780601f10610d4557610100808354040283529160200191610d70565b820191906000526020600020905b815481529060010190602001808311610d5357829003601f168201915b5050505050908060030160009054906101000a900460ff16905084565b606060008383905067ffffffffffffffff811115610dd4577f4e487b7100000000000000000000000000000000000000000000000000000000600052604160045260246000fd5b604051908082528060200260200182016040528015610e025781602001602082028036833780820191505090505b50905060005b84849050811015610eb257610e5c86868684818110610e50577f4e487b7100000000000000000000000000000000000000000000000000000000600052603260045260246000fd5b905060200201356113ec565b828281518110610e95577f4e487b7100000000000000000000000000000000000000000000000000000000600052603260045260246000fd5b60200260200101818152505080610eab906124ec565b9050610e08565b50809150509392505050565b6001602052816000526040600020602052806000526040600020600091509150505481565b600060036000838152602001908152602001600020549050919050565b60036020528060005260406000206000915090505481565b610f218461141b565b610f60576040517f08c379a0000000000000000000000000000000000000000000000000000000008152600401610f57906121cf565b60405180910390fd5b6000610f6a6114b1565b9050610f9a81600088610f7c896114c1565b610f85896114c1565b604051806020016040528060008152506114b9565b6000600160008781526020019081526020016000206000888152602001908152602001600020541415611026578115610fea57846003600088815260200190815260200160002081905550611025565b600460008781526020019081526020016000208590806001815401808255809150506001900390600052602060002001600090919091909150555b5b60008351111561106a578260026000878152602001908152602001600020600088815260200190815260200160002090805190602001906110689291906117d1565b505b83600160008781526020019081526020016000206000888152602001908152602001600020600082825461109e9190612369565b92505081905550848173ffffffffffffffffffffffffffffffffffffffff167f73b5fbfbf0177b0de2ffe9fd0ae9887dd73d0d865db7ab5ff3c4a6b9bb8db1e3600089886040516110f1939291906120bc565b60405180910390a3505050505050565b60606002600083815260200190815260200160002060008481526020019081526020016000208054611132906124ba565b80601f016020809104026020016040519081016040528092919081815260200182805461115e906124ba565b80156111ab5780601f10611180576101008083540402835291602001916111ab565b820191906000526020600020905b81548152906001019060200180831161118e57829003601f168201915b5050505050905092915050565b60606111c38261141b565b611202576040517f08c379a00000000000000000000000000000000000000000000000000000000081526004016111f9906121af565b60405180910390fd5b60008060008481526020019081526020016000206002018054611224906124ba565b80601f0160208091040260200160405190810160405280929190818152602001828054611250906124ba565b801561129d5780601f106112725761010080835404028352916020019161129d565b820191906000526020600020905b81548152906001019060200180831161128057829003601f168201915b505050505090506000815111156112e057806112b884611587565b6040516020016112c9929190611ff9565b60405160208183030381529060405291505061133a565b60006112ea611734565b9050600081511161130a5760405180602001604052806000815250611335565b8061131485611587565b604051602001611325929190611ff9565b6040516020818303038152906040525b925050505b919050565b600260205281600052604060002060205280600052604060002060009150915050805461136b906124ba565b80601f0160208091040260200160405190810160405280929190818152602001828054611397906124ba565b80156113e45780601f106113b9576101008083540402835291602001916113e4565b820191906000526020600020905b8154815290600101906020018083116113c757829003601f168201915b505050505081565b600060016000838152602001908152602001600020600084815260200190815260200160002054905092915050565b600080600083815260200190815260200160002060030160009054906101000a900460ff169050919050565b60007f01ffc9a7000000000000000000000000000000000000000000000000000000007bffffffffffffffffffffffffffffffffffffffffffffffffffffffff1916827bffffffffffffffffffffffffffffffffffffffffffffffffffffffff1916149050919050565b600033905090565b505050505050565b60606000600167ffffffffffffffff811115611506577f4e487b7100000000000000000000000000000000000000000000000000000000600052604160045260246000fd5b6040519080825280602002602001820160405280156115345781602001602082028036833780820191505090505b5090508281600081518110611572577f4e487b7100000000000000000000000000000000000000000000000000000000600052603260045260246000fd5b60200260200101818152505080915050919050565b606060008214156115cf576040518060400160405280600181526020017f3000000000000000000000000000000000000000000000000000000000000000815250905061172f565b600082905060005b600082146116015780806115ea906124ec565b915050600a826115fa91906123bf565b91506115d7565b60008167ffffffffffffffff811115611643577f4e487b7100000000000000000000000000000000000000000000000000000000600052604160045260246000fd5b6040519080825280601f01601f1916602001820160405280156116755781602001600182028036833780820191505090505b5090505b600085146117285760018261168e91906123f0565b9150600a8561169d9190612535565b60306116a99190612369565b60f81b8183815181106116e5577f4e487b7100000000000000000000000000000000000000000000000000000000600052603260045260246000fd5b60200101907effffffffffffffffffffffffffffffffffffffffffffffffffffffffffffff1916908160001a905350600a8561172191906123bf565b9450611679565b8093505050505b919050565b606060405180602001604052806000815250905090565b828054611757906124ba565b90600052602060002090601f01602090048101928261177957600085556117c0565b82601f1061179257803560ff19168380011785556117c0565b828001600101855582156117c0579182015b828111156117bf5782358255916020019190600101906117a4565b5b5090506117cd9190611857565b5090565b8280546117dd906124ba565b90600052602060002090601f0160209004810192826117ff5760008555611846565b82601f1061181857805160ff1916838001178555611846565b82800160010185558215611846579182015b8281111561184557825182559160200191906001019061182a565b5b5090506118539190611857565b5090565b5b80821115611870576000816000905550600101611858565b5090565b6000611887611882846122b2565b612281565b90508281526020810184848401111561189f57600080fd5b6118aa848285612478565b509392505050565b60008083601f8401126118c457600080fd5b8235905067ffffffffffffffff8111156118dd57600080fd5b6020830191508360208202830111156118f557600080fd5b9250929050565b60008083601f84011261190e57600080fd5b8235905067ffffffffffffffff81111561192757600080fd5b60208301915083602082028301111561193f57600080fd5b9250929050565b60008135905061195581612633565b92915050565b60008135905061196a8161264a565b92915050565b600082601f83011261198157600080fd5b8135611991848260208601611874565b91505092915050565b6000813590506119a981612661565b92915050565b6000602082840312156119c157600080fd5b60006119cf8482850161195b565b91505092915050565b6000602082840312156119ea57600080fd5b60006119f88482850161199a565b91505092915050565b600080600060408486031215611a1657600080fd5b6000611a248682870161199a565b935050602084013567ffffffffffffffff811115611a4157600080fd5b611a4d868287016118fc565b92509250509250925092565b60008060008060008060006080888a031215611a7457600080fd5b6000611a828a828b0161199a565b975050602088013567ffffffffffffffff811115611a9f57600080fd5b611aab8a828b016118fc565b9650965050604088013567ffffffffffffffff811115611aca57600080fd5b611ad68a828b016118fc565b9450945050606088013567ffffffffffffffff811115611af557600080fd5b611b018a828b016118b2565b925092505092959891949750929550565b60008060408385031215611b2557600080fd5b6000611b338582860161199a565b9250506020611b448582860161199a565b9150509250929050565b600080600080600060a08688031215611b6657600080fd5b6000611b748882890161199a565b9550506020611b858882890161199a565b9450506040611b968882890161199a565b935050606086013567ffffffffffffffff811115611bb357600080fd5b611bbf88828901611970565b9250506080611bd088828901611946565b9150509295509295909350565b6000611be98383611fc2565b60208301905092915050565b6000611c018385612320565b93507f07ffffffffffffffffffffffffffffffffffffffffffffffffffffffffffffff831115611c3057600080fd5b602083029250611c41838584612478565b82840190509392505050565b6000611c598385612331565b93507f07ffffffffffffffffffffffffffffffffffffffffffffffffffffffffffffff831115611c8857600080fd5b602083029250611c99838584612478565b82840190509392505050565b6000611cb0826122f2565b611cba8185612320565b9350611cc5836122e2565b8060005b83811015611cf6578151611cdd8882611bdd565b9750611ce883612313565b925050600181019050611cc9565b5085935050505092915050565b611d0c81612424565b82525050565b6000611d1d826122fd565b611d27818561233c565b9350611d37818560208601612487565b611d4081612622565b840191505092915050565b611d5481612466565b82525050565b6000611d6582612308565b611d6f818561234d565b9350611d7f818560208601612487565b611d8881612622565b840191505092915050565b6000611d9e82612308565b611da8818561235e565b9350611db8818560208601612487565b80840191505092915050565b6000611dd1602e8361234d565b91507f455243333636343a20626174636841747461636820666f72206e6f6e6578697360008301527f74656e74206174747269627574650000000000000000000000000000000000006020830152604082019050919050565b6000611e37602f8361234d565b91507f455243333636343a2073796d626f6c20717565727920666f72206e6f6e65786960008301527f7374656e742061747472696275746500000000000000000000000000000000006020830152604082019050919050565b6000611e9d602c8361234d565b91507f455243333636343a2055524920717565727920666f72206e6f6e65786973746560008301527f6e742061747472696275746500000000000000000000000000000000000000006020830152604082019050919050565b6000611f0360298361234d565b91507f455243333636343a2061747461636820666f72206e6f6e6578697374656e742060008301527f61747472696275746500000000000000000000000000000000000000000000006020830152604082019050919050565b6000611f69602d8361234d565b91507f455243333636343a206e616d6520717565727920666f72206e6f6e657869737460008301527f656e7420617474726962757465000000000000000000000000000000000000006020830152604082019050919050565b611fcb8161245c565b82525050565b611fda8161245c565b82525050565b6000611fed828486611c4d565b91508190509392505050565b60006120058285611d93565b91506120118284611d93565b91508190509392505050565b600060208201905081810360008301526120378184611ca5565b905092915050565b60006020820190506120546000830184611d03565b92915050565b600060208201905081810360008301526120748184611d12565b905092915050565b60006060820190506120916000830187611d4b565b61209e6020830186611fd1565b81810360408301526120b1818486611bf5565b905095945050505050565b60006060820190506120d16000830186611d4b565b6120de6020830185611fd1565b6120eb6040830184611fd1565b949350505050565b6000602082019050818103600083015261210d8184611d5a565b905092915050565b6000608082019050818103600083015261212f8187611d5a565b905081810360208301526121438186611d5a565b905081810360408301526121578185611d5a565b90506121666060830184611d03565b95945050505050565b6000602082019050818103600083015261218881611dc4565b9050919050565b600060208201905081810360008301526121a881611e2a565b9050919050565b600060208201905081810360008301526121c881611e90565b9050919050565b600060208201905081810360008301526121e881611ef6565b9050919050565b6000602082019050818103600083015261220881611f5c565b9050919050565b60006020820190506122246000830184611fd1565b92915050565b6000808335600160200384360303811261224357600080fd5b80840192508235915067ffffffffffffffff82111561226157600080fd5b60208301925060018202360383131561227957600080fd5b509250929050565b6000604051905081810181811067ffffffffffffffff821117156122a8576122a76125f3565b5b8060405250919050565b600067ffffffffffffffff8211156122cd576122cc6125f3565b5b601f19601f8301169050602081019050919050565b6000819050602082019050919050565b600081519050919050565b600081519050919050565b600081519050919050565b6000602082019050919050565b600082825260208201905092915050565b600081905092915050565b600082825260208201905092915050565b600082825260208201905092915050565b600081905092915050565b60006123748261245c565b915061237f8361245c565b9250827fffffffffffffffffffffffffffffffffffffffffffffffffffffffffffffffff038211156123b4576123b3612566565b5b828201905092915050565b60006123ca8261245c565b91506123d58361245c565b9250826123e5576123e4612595565b5b828204905092915050565b60006123fb8261245c565b91506124068361245c565b92508282101561241957612418612566565b5b828203905092915050565b60008115159050919050565b60007fffffffff0000000000000000000000000000000000000000000000000000000082169050919050565b6000819050919050565b60006124718261245c565b9050919050565b82818337600083830152505050565b60005b838110156124a557808201518184015260208101905061248a565b838111156124b4576000848401525b50505050565b600060028204905060018216806124d257607f821691505b602082108114156124e6576124e56125c4565b5b50919050565b60006124f78261245c565b91507fffffffffffffffffffffffffffffffffffffffffffffffffffffffffffffffff82141561252a57612529612566565b5b600182019050919050565b60006125408261245c565b915061254b8361245c565b92508261255b5761255a612595565b5b828206905092915050565b7f4e487b7100000000000000000000000000000000000000000000000000000000600052601160045260246000fd5b7f4e487b7100000000000000000000000000000000000000000000000000000000600052601260045260246000fd5b7f4e487b7100000000000000000000000000000000000000000000000000000000600052602260045260246000fd5b7f4e487b7100000000000000000000000000000000000000000000000000000000600052604160045260246000fd5b6000601f19601f8301169050919050565b61263c81612424565b811461264757600080fd5b50565b61265381612430565b811461265e57600080fd5b50565b61266a8161245c565b811461267557600080fd5b5056fea2646970667358221220a524d21a4b3ce268ac530ec06fa4a9fa636042a64d69f1fb64709fc632a1757e64736f6c63430008000033",
  "immutableReferences": {},
  "source": "// SPDX-License-Identifier: MIT\r\n\r\npragma solidity ^0.8.0;\r\n\r\nimport \"openzeppelin-solidity/contracts/utils/Context.sol\";\r\nimport \"openzeppelin-solidity/contracts/utils/Strings.sol\";\r\nimport \"openzeppelin-solidity/contracts/utils/introspection/ERC165.sol\";\r\nimport \"./IERC3664.sol\";\r\nimport \"./extensions/IERC3664Metadata.sol\";\r\n\r\ncontract ERC3664 is Context, ERC165, IERC3664, IERC3664Metadata {\r\n    using Strings for uint256;\r\n\r\n    struct AttrMetadata {\r\n        string name;\r\n        string symbol;\r\n        string uri;\r\n        bool exist;\r\n    }\r\n\r\n    // attrId => metadata\r\n    mapping(uint256 => AttrMetadata) public _attrMetadatas;\r\n    // attrId => tokenId => amount\r\n    mapping(uint256 => mapping(uint256 => uint256)) public _balances;\r\n    // attrId => tokenId => text\r\n    mapping(uint256 => mapping(uint256 => bytes)) public _texts;\r\n    // tokenId => primaryId\r\n    mapping(uint256 => uint256) public primaryAttrs;\r\n    // tokenId => secondaryIds\r\n    mapping(uint256 => uint256[]) public secondaryAttrs;\r\n\r\n    constructor() {}\r\n\r\n    /**\r\n     * @dev See {IERC165-supportsInterface}.\r\n     */\r\n    function supportsInterface(bytes4 interfaceId)\r\n        public\r\n        view\r\n        virtual\r\n        override(ERC165, IERC165)\r\n        returns (bool)\r\n    {\r\n        return\r\n            interfaceId == type(IERC3664).interfaceId ||\r\n            interfaceId == type(IERC3664Metadata).interfaceId ||\r\n            super.supportsInterface(interfaceId);\r\n    }\r\n\r\n    /**\r\n     * @dev See {IERC3664Metadata-name}.\r\n     */\r\n    function name(uint256 attrId)\r\n        public\r\n        view\r\n        virtual\r\n        override\r\n        returns (string memory)\r\n    {\r\n        require(\r\n            _attrExists(attrId),\r\n            \"ERC3664: name query for nonexistent attribute\"\r\n        );\r\n\r\n        return _attrMetadatas[attrId].name;\r\n    }\r\n\r\n    /**\r\n     * @dev See {IERC3664Metadata-symbol}.\r\n     */\r\n    function symbol(uint256 attrId)\r\n        public\r\n        view\r\n        virtual\r\n        override\r\n        returns (string memory)\r\n    {\r\n        require(\r\n            _attrExists(attrId),\r\n            \"ERC3664: symbol query for nonexistent attribute\"\r\n        );\r\n\r\n        return _attrMetadatas[attrId].symbol;\r\n    }\r\n\r\n    /**\r\n     * @dev See {IERC721Metadata-attrURI}.\r\n     */\r\n    function attrURI(uint256 attrId)\r\n        public\r\n        view\r\n        virtual\r\n        override\r\n        returns (string memory)\r\n    {\r\n        require(\r\n            _attrExists(attrId),\r\n            \"ERC3664: URI query for nonexistent attribute\"\r\n        );\r\n\r\n        string memory uri = _attrMetadatas[attrId].uri;\r\n        if (bytes(uri).length > 0) {\r\n            return string(abi.encodePacked(uri, attrId.toString()));\r\n        } else {\r\n            string memory baseURI = _baseAttrURI();\r\n            return\r\n                bytes(baseURI).length > 0\r\n                    ? string(abi.encodePacked(baseURI, attrId.toString()))\r\n                    : \"\";\r\n        }\r\n    }\r\n\r\n    function primaryAttributeOf(uint256 tokenId)\r\n        public\r\n        view\r\n        virtual\r\n        override\r\n        returns (uint256)\r\n    {\r\n        return primaryAttrs[tokenId];\r\n    }\r\n\r\n    /**\r\n     * @dev See {IERC3664-attributesOf}.\r\n     */\r\n    function attributesOf(uint256 tokenId)\r\n        public\r\n        view\r\n        virtual\r\n        override\r\n        returns (uint256[] memory)\r\n    {\r\n        return secondaryAttrs[tokenId];\r\n    }\r\n\r\n    /**\r\n     * @dev See {IERC3664-balanceOf}.\r\n     */\r\n    function balanceOf(uint256 tokenId, uint256 attrId)\r\n        public\r\n        view\r\n        virtual\r\n        override\r\n        returns (uint256)\r\n    {\r\n        return _balances[attrId][tokenId];\r\n    }\r\n\r\n    /**\r\n     * @dev See {IERC3664-balanceOfBatch}.\r\n     */\r\n    function balanceOfBatch(uint256 tokenId, uint256[] calldata attrIds)\r\n        public\r\n        view\r\n        virtual\r\n        override\r\n        returns (uint256[] memory)\r\n    {\r\n        uint256[] memory batchBalances = new uint256[](attrIds.length);\r\n\r\n        for (uint256 i = 0; i < attrIds.length; ++i) {\r\n            batchBalances[i] = balanceOf(tokenId, attrIds[i]);\r\n        }\r\n\r\n        return batchBalances;\r\n    }\r\n\r\n    /**\r\n     * @dev See {IERC3664-textOf}.\r\n     */\r\n    function textOf(uint256 tokenId, uint256 attrId)\r\n        public\r\n        view\r\n        virtual\r\n        override\r\n        returns (bytes memory)\r\n    {\r\n        return _texts[attrId][tokenId];\r\n    }\r\n\r\n    /**\r\n     * @dev See {IERC3664-attach}.\r\n     */\r\n    function attach(\r\n        uint256 tokenId,\r\n        uint256 attrId,\r\n        uint256 amount,\r\n        bytes memory text,\r\n        bool isPrimary\r\n    ) public virtual override {\r\n        require(\r\n            _attrExists(attrId),\r\n            \"ERC3664: attach for nonexistent attribute\"\r\n        );\r\n\r\n        address operator = _msgSender();\r\n\r\n        _beforeAttrTransfer(\r\n            operator,\r\n            0,\r\n            tokenId,\r\n            _asSingletonArray(attrId),\r\n            _asSingletonArray(amount),\r\n            \"\"\r\n        );\r\n\r\n        if (_balances[attrId][tokenId] == 0) {\r\n            if (isPrimary) {\r\n                primaryAttrs[tokenId] = attrId;\r\n            } else {\r\n                secondaryAttrs[tokenId].push(attrId);\r\n            }\r\n        }\r\n\r\n        if (text.length > 0) {\r\n            _texts[attrId][tokenId] = text;\r\n        }\r\n\r\n        _balances[attrId][tokenId] += amount;\r\n\r\n        emit TransferSingle(operator, 0, tokenId, attrId, amount);\r\n    }\r\n\r\n    /**\r\n     * @dev See {IERC3664-batchAttach}.\r\n     */\r\n    function batchAttach(\r\n        uint256 tokenId,\r\n        uint256[] calldata attrIds,\r\n        uint256[] calldata amounts,\r\n        bytes[] calldata texts\r\n    ) public virtual override {\r\n        address operator = _msgSender();\r\n\r\n        _beforeAttrTransfer(operator, 0, tokenId, attrIds, amounts, \"\");\r\n\r\n        for (uint256 i = 0; i < attrIds.length; i++) {\r\n            require(\r\n                _attrExists(attrIds[i]),\r\n                \"ERC3664: batchAttach for nonexistent attribute\"\r\n            );\r\n\r\n            if (_balances[attrIds[i]][tokenId] == 0) {\r\n                secondaryAttrs[tokenId].push(attrIds[i]);\r\n            }\r\n\r\n            if (texts[i].length > 0) {\r\n                _texts[attrIds[i]][tokenId] = texts[i];\r\n            }\r\n\r\n            _balances[attrIds[i]][tokenId] += amounts[i];\r\n        }\r\n\r\n        emit TransferBatch(operator, 0, tokenId, attrIds, amounts);\r\n    }\r\n\r\n    /**\r\n     * @dev Mint new attribute type with metadata.\r\n     *\r\n     * Emits a {NewAttribute} event.\r\n     */\r\n    function _mint(\r\n        uint256 attrId,\r\n        string memory _name,\r\n        string memory _symbol,\r\n        string memory _uri\r\n    ) internal virtual {\r\n        require(!_attrExists(attrId), \"ERC3664: attribute already exists\");\r\n\r\n        address operator = _msgSender();\r\n\r\n        AttrMetadata memory data = AttrMetadata(_name, _symbol, _uri, true);\r\n        _attrMetadatas[attrId] = data;\r\n\r\n        emit NewAttribute(operator, attrId, _name, _symbol, _uri);\r\n    }\r\n\r\n    /**\r\n     * @dev [Batched] version of {_mint}.\r\n     */\r\n    function _mintBatch(\r\n        uint256[] memory attrIds,\r\n        string[] memory names,\r\n        string[] memory symbols,\r\n        string[] memory uris\r\n    ) internal virtual {\r\n        require(\r\n            attrIds.length == names.length,\r\n            \"ERC3664: attrIds and names length mismatch\"\r\n        );\r\n        require(\r\n            names.length == symbols.length,\r\n            \"ERC3664: names and symbols length mismatch\"\r\n        );\r\n        require(\r\n            symbols.length == uris.length,\r\n            \"ERC3664: symbols and uris length mismatch\"\r\n        );\r\n\r\n        address operator = _msgSender();\r\n\r\n        for (uint256 i = 0; i < attrIds.length; i++) {\r\n            require(\r\n                !_attrExists(attrIds[i]),\r\n                \"ERC3664: attribute already exists\"\r\n            );\r\n\r\n            AttrMetadata memory data = AttrMetadata(\r\n                names[i],\r\n                symbols[i],\r\n                uris[i],\r\n                true\r\n            );\r\n            _attrMetadatas[attrIds[i]] = data;\r\n        }\r\n\r\n        emit NewAttributeBatch(operator, attrIds, names, symbols, uris);\r\n    }\r\n\r\n    /**\r\n     * @dev Destroys `amount` values of attribute type `attrId` from `tokenId`\r\n     */\r\n    function _burn(\r\n        uint256 tokenId,\r\n        uint256 attrId,\r\n        uint256 amount\r\n    ) internal virtual {\r\n        address operator = _msgSender();\r\n\r\n        _beforeAttrTransfer(\r\n            operator,\r\n            tokenId,\r\n            0,\r\n            _asSingletonArray(attrId),\r\n            _asSingletonArray(amount),\r\n            \"\"\r\n        );\r\n\r\n        uint256 tokenBalance = _balances[attrId][tokenId];\r\n        require(\r\n            tokenBalance >= amount,\r\n            \"ERC3664: insufficient balance for transfer\"\r\n        );\r\n        unchecked {\r\n            _balances[attrId][tokenId] = tokenBalance - amount;\r\n        }\r\n\r\n        emit TransferSingle(operator, tokenId, 0, attrId, amount);\r\n    }\r\n\r\n    /**\r\n     * @dev [Batched] version of {_burn}.\r\n     */\r\n    function _burnBatch(\r\n        uint256 tokenId,\r\n        uint256[] memory attrIds,\r\n        uint256[] memory amounts\r\n    ) internal virtual {\r\n        require(\r\n            attrIds.length == amounts.length,\r\n            \"ERC3664: attrIds and amounts length mismatch\"\r\n        );\r\n\r\n        address operator = _msgSender();\r\n\r\n        _beforeAttrTransfer(operator, tokenId, 0, attrIds, amounts, \"\");\r\n\r\n        for (uint256 i = 0; i < attrIds.length; i++) {\r\n            uint256 tokenBalance = _balances[attrIds[i]][tokenId];\r\n            require(\r\n                tokenBalance >= amounts[i],\r\n                \"ERC3664: insufficient balance for transfer\"\r\n            );\r\n            unchecked {\r\n                _balances[attrIds[i]][tokenId] = tokenBalance - amounts[i];\r\n            }\r\n        }\r\n\r\n        emit TransferBatch(operator, tokenId, 0, attrIds, amounts);\r\n    }\r\n\r\n    /**\r\n     * @dev Hook that is called before any attribute transfer. This includes attaching\r\n     * and removing, as well as batched variants.\r\n     *\r\n     * The same hook is called on both single and batched variants. For single\r\n     * attaches, the length of the `attrIds` and `amounts` arrays will be 1.\r\n     *\r\n     * Calling conditions (for each `attrIds` and `amounts` pair):\r\n     */\r\n    function _beforeAttrTransfer(\r\n        address operator,\r\n        uint256 from,\r\n        uint256 to,\r\n        uint256[] memory attrIds,\r\n        uint256[] memory amounts,\r\n        bytes memory data\r\n    ) internal virtual {}\r\n\r\n    /**\r\n     * @dev Base URI for computing {attrURI}. If set, the resulting URI for each\r\n     * token will be the concatenation of the `baseURI` and the `attrId`. Empty\r\n     * by default, can be overriden in child contracts.\r\n     */\r\n    function _baseAttrURI() internal view virtual returns (string memory) {\r\n        return \"\";\r\n    }\r\n\r\n    /**\r\n     * @dev Returns whether `attrId` exists.\r\n     *\r\n     * Attribute start existing when they are minted (`_mint`),\r\n     * and stop existing when they are burned (`_burn`).\r\n     */\r\n    function _attrExists(uint256 attrId) internal view returns (bool) {\r\n        return _attrMetadatas[attrId].exist;\r\n    }\r\n\r\n    function _hasAttr(uint256 tokenId, uint256 attrId)\r\n        internal\r\n        view\r\n        returns (bool)\r\n    {\r\n        return _balances[attrId][tokenId] > 0;\r\n    }\r\n\r\n    function _asSingletonArray(uint256 element)\r\n        internal\r\n        pure\r\n        returns (uint256[] memory)\r\n    {\r\n        uint256[] memory array = new uint256[](1);\r\n        array[0] = element;\r\n\r\n        return array;\r\n    }\r\n\r\n    function _removeByValue(uint256[] storage values, uint256 value) internal {\r\n        uint256 i = 0;\r\n        while (values[i] != value) {\r\n            i++;\r\n        }\r\n        delete values[i];\r\n    }\r\n}\r\n",
  "sourcePath": "D:\\MetaNFT\\MetaNFT\\contracts\\ERC3664\\ERC3664.sol",
  "compiler": {
    "name": "solc",
    "version": "0.8.0+commit.c7dfd78e.Emscripten.clang"
  },
  "schemaVersion": "3.4.3",
  "updatedAt": "2021-09-22T09:26:13.280Z",
  "devdoc": {
    "kind": "dev",
    "methods": {
      "attach(uint256,uint256,uint256,bytes,bool)": {
        "details": "See {IERC3664-attach}."
      },
      "attrURI(uint256)": {
        "details": "See {IERC721Metadata-attrURI}."
      },
      "attributesOf(uint256)": {
        "details": "See {IERC3664-attributesOf}."
      },
      "balanceOf(uint256,uint256)": {
        "details": "See {IERC3664-balanceOf}."
      },
      "balanceOfBatch(uint256,uint256[])": {
        "details": "See {IERC3664-balanceOfBatch}."
      },
      "batchAttach(uint256,uint256[],uint256[],bytes[])": {
        "details": "See {IERC3664-batchAttach}."
      },
      "name(uint256)": {
        "details": "See {IERC3664Metadata-name}."
      },
      "primaryAttributeOf(uint256)": {
        "details": "Returns primary attribute type of owned by `tokenId`."
      },
      "supportsInterface(bytes4)": {
        "details": "See {IERC165-supportsInterface}."
      },
      "symbol(uint256)": {
        "details": "See {IERC3664Metadata-symbol}."
      },
      "textOf(uint256,uint256)": {
        "details": "See {IERC3664-textOf}."
      }
    },
    "version": 1
  },
  "userdoc": {
    "kind": "user",
    "methods": {},
    "version": 1
  }
}