{
  "contractName": "ERC3664Synthetic",
  "abi": [
    {
      "inputs": [],
      "stateMutability": "nonpayable",
      "type": "constructor"
    },
    {
      "anonymous": false,
      "inputs": [
        {
          "indexed": true,
          "internalType": "address",
          "name": "operator",
          "type": "address"
        },
        {
          "indexed": true,
          "internalType": "uint256",
          "name": "attrId",
          "type": "uint256"
        },
        {
          "indexed": false,
          "internalType": "string",
          "name": "name",
          "type": "string"
        },
        {
          "indexed": false,
          "internalType": "string",
          "name": "symbol",
          "type": "string"
        },
        {
          "indexed": false,
          "internalType": "string",
          "name": "uri",
          "type": "string"
        }
      ],
      "name": "NewAttribute",
      "type": "event"
    },
    {
      "anonymous": false,
      "inputs": [
        {
          "indexed": true,
          "internalType": "address",
          "name": "operator",
          "type": "address"
        },
        {
          "indexed": true,
          "internalType": "uint256[]",
          "name": "attrIds",
          "type": "uint256[]"
        },
        {
          "indexed": false,
          "internalType": "string[]",
          "name": "names",
          "type": "string[]"
        },
        {
          "indexed": false,
          "internalType": "string[]",
          "name": "symbols",
          "type": "string[]"
        },
        {
          "indexed": false,
          "internalType": "string[]",
          "name": "uris",
          "type": "string[]"
        }
      ],
      "name": "NewAttributeBatch",
      "type": "event"
    },
    {
      "anonymous": false,
      "inputs": [
        {
          "indexed": true,
          "internalType": "address",
          "name": "operator",
          "type": "address"
        },
        {
          "indexed": false,
          "internalType": "uint256",
          "name": "from",
          "type": "uint256"
        },
        {
          "indexed": false,
          "internalType": "uint256",
          "name": "to",
          "type": "uint256"
        },
        {
          "indexed": true,
          "internalType": "uint256[]",
          "name": "attrIds",
          "type": "uint256[]"
        },
        {
          "indexed": false,
          "internalType": "uint256[]",
          "name": "values",
          "type": "uint256[]"
        }
      ],
      "name": "TransferBatch",
      "type": "event"
    },
    {
      "anonymous": false,
      "inputs": [
        {
          "indexed": true,
          "internalType": "address",
          "name": "operator",
          "type": "address"
        },
        {
          "indexed": false,
          "internalType": "uint256",
          "name": "from",
          "type": "uint256"
        },
        {
          "indexed": false,
          "internalType": "uint256",
          "name": "to",
          "type": "uint256"
        },
        {
          "indexed": true,
          "internalType": "uint256",
          "name": "attrId",
          "type": "uint256"
        },
        {
          "indexed": false,
          "internalType": "uint256",
          "name": "value",
          "type": "uint256"
        }
      ],
      "name": "TransferSingle",
      "type": "event"
    },
    {
      "inputs": [
        {
          "internalType": "uint256",
          "name": "",
          "type": "uint256"
        }
      ],
      "name": "_attrMetadatas",
      "outputs": [
        {
          "internalType": "string",
          "name": "name",
          "type": "string"
        },
        {
          "internalType": "string",
          "name": "symbol",
          "type": "string"
        },
        {
          "internalType": "string",
          "name": "uri",
          "type": "string"
        },
        {
          "internalType": "bool",
          "name": "exist",
          "type": "bool"
        }
      ],
      "stateMutability": "view",
      "type": "function"
    },
    {
      "inputs": [
        {
          "internalType": "uint256",
          "name": "",
          "type": "uint256"
        },
        {
          "internalType": "uint256",
          "name": "",
          "type": "uint256"
        }
      ],
      "name": "_balances",
      "outputs": [
        {
          "internalType": "uint256",
          "name": "",
          "type": "uint256"
        }
      ],
      "stateMutability": "view",
      "type": "function"
    },
    {
      "inputs": [
        {
          "internalType": "uint256",
          "name": "",
          "type": "uint256"
        },
        {
          "internalType": "uint256",
          "name": "",
          "type": "uint256"
        }
      ],
      "name": "_texts",
      "outputs": [
        {
          "internalType": "bytes",
          "name": "",
          "type": "bytes"
        }
      ],
      "stateMutability": "view",
      "type": "function"
    },
    {
      "inputs": [
        {
          "internalType": "uint256",
          "name": "tokenId",
          "type": "uint256"
        },
        {
          "internalType": "uint256",
          "name": "attrId",
          "type": "uint256"
        },
        {
          "internalType": "uint256",
          "name": "amount",
          "type": "uint256"
        },
        {
          "internalType": "bytes",
          "name": "text",
          "type": "bytes"
        },
        {
          "internalType": "bool",
          "name": "isPrimary",
          "type": "bool"
        }
      ],
      "name": "attach",
      "outputs": [],
      "stateMutability": "nonpayable",
      "type": "function"
    },
    {
      "inputs": [
        {
          "internalType": "uint256",
          "name": "attrId",
          "type": "uint256"
        }
      ],
      "name": "attrURI",
      "outputs": [
        {
          "internalType": "string",
          "name": "",
          "type": "string"
        }
      ],
      "stateMutability": "view",
      "type": "function"
    },
    {
      "inputs": [
        {
          "internalType": "uint256",
          "name": "tokenId",
          "type": "uint256"
        }
      ],
      "name": "attributesOf",
      "outputs": [
        {
          "internalType": "uint256[]",
          "name": "",
          "type": "uint256[]"
        }
      ],
      "stateMutability": "view",
      "type": "function"
    },
    {
      "inputs": [
        {
          "internalType": "uint256",
          "name": "tokenId",
          "type": "uint256"
        },
        {
          "internalType": "uint256",
          "name": "attrId",
          "type": "uint256"
        }
      ],
      "name": "balanceOf",
      "outputs": [
        {
          "internalType": "uint256",
          "name": "",
          "type": "uint256"
        }
      ],
      "stateMutability": "view",
      "type": "function"
    },
    {
      "inputs": [
        {
          "internalType": "uint256",
          "name": "tokenId",
          "type": "uint256"
        },
        {
          "internalType": "uint256[]",
          "name": "attrIds",
          "type": "uint256[]"
        }
      ],
      "name": "balanceOfBatch",
      "outputs": [
        {
          "internalType": "uint256[]",
          "name": "",
          "type": "uint256[]"
        }
      ],
      "stateMutability": "view",
      "type": "function"
    },
    {
      "inputs": [
        {
          "internalType": "uint256",
          "name": "tokenId",
          "type": "uint256"
        },
        {
          "internalType": "uint256[]",
          "name": "attrIds",
          "type": "uint256[]"
        },
        {
          "internalType": "uint256[]",
          "name": "amounts",
          "type": "uint256[]"
        },
        {
          "internalType": "bytes[]",
          "name": "texts",
          "type": "bytes[]"
        }
      ],
      "name": "batchAttach",
      "outputs": [],
      "stateMutability": "nonpayable",
      "type": "function"
    },
    {
      "inputs": [
        {
          "internalType": "uint256",
          "name": "attrId",
          "type": "uint256"
        }
      ],
      "name": "name",
      "outputs": [
        {
          "internalType": "string",
          "name": "",
          "type": "string"
        }
      ],
      "stateMutability": "view",
      "type": "function"
    },
    {
      "inputs": [
        {
          "internalType": "uint256",
          "name": "tokenId",
          "type": "uint256"
        }
      ],
      "name": "primaryAttributeOf",
      "outputs": [
        {
          "internalType": "uint256",
          "name": "",
          "type": "uint256"
        }
      ],
      "stateMutability": "view",
      "type": "function"
    },
    {
      "inputs": [
        {
          "internalType": "uint256",
          "name": "",
          "type": "uint256"
        }
      ],
      "name": "primaryAttrs",
      "outputs": [
        {
          "internalType": "uint256",
          "name": "",
          "type": "uint256"
        }
      ],
      "stateMutability": "view",
      "type": "function"
    },
    {
      "inputs": [
        {
          "internalType": "uint256",
          "name": "",
          "type": "uint256"
        },
        {
          "internalType": "uint256",
          "name": "",
          "type": "uint256"
        }
      ],
      "name": "secondaryAttrs",
      "outputs": [
        {
          "internalType": "uint256",
          "name": "",
          "type": "uint256"
        }
      ],
      "stateMutability": "view",
      "type": "function"
    },
    {
      "inputs": [
        {
          "internalType": "uint256",
          "name": "",
          "type": "uint256"
        }
      ],
      "name": "subTokens",
      "outputs": [
        {
          "internalType": "uint256",
          "name": "",
          "type": "uint256"
        }
      ],
      "stateMutability": "view",
      "type": "function"
    },
    {
      "inputs": [
        {
          "internalType": "bytes4",
          "name": "interfaceId",
          "type": "bytes4"
        }
      ],
      "name": "supportsInterface",
      "outputs": [
        {
          "internalType": "bool",
          "name": "",
          "type": "bool"
        }
      ],
      "stateMutability": "view",
      "type": "function"
    },
    {
      "inputs": [
        {
          "internalType": "uint256",
          "name": "attrId",
          "type": "uint256"
        }
      ],
      "name": "symbol",
      "outputs": [
        {
          "internalType": "string",
          "name": "",
          "type": "string"
        }
      ],
      "stateMutability": "view",
      "type": "function"
    },
    {
      "inputs": [
        {
          "internalType": "uint256",
          "name": "",
          "type": "uint256"
        },
        {
          "internalType": "uint256",
          "name": "",
          "type": "uint256"
        }
      ],
      "name": "synthesizedTokens",
      "outputs": [
        {
          "internalType": "address",
          "name": "owner",
          "type": "address"
        },
        {
          "internalType": "uint256",
          "name": "id",
          "type": "uint256"
        }
      ],
      "stateMutability": "view",
      "type": "function"
    },
    {
      "inputs": [
        {
          "internalType": "uint256",
          "name": "tokenId",
          "type": "uint256"
        },
        {
          "internalType": "uint256",
          "name": "attrId",
          "type": "uint256"
        }
      ],
      "name": "textOf",
      "outputs": [
        {
          "internalType": "bytes",
          "name": "",
          "type": "bytes"
        }
      ],
      "stateMutability": "view",
      "type": "function"
    },
    {
      "inputs": [
        {
          "internalType": "address",
          "name": "owner",
          "type": "address"
        },
        {
          "internalType": "uint256",
          "name": "tokenId",
          "type": "uint256"
        },
        {
          "internalType": "uint256",
          "name": "subId",
          "type": "uint256"
        }
      ],
      "name": "recordSynthesized",
      "outputs": [],
      "stateMutability": "nonpayable",
      "type": "function"
    },
    {
      "inputs": [
        {
          "internalType": "uint256",
          "name": "tokenId",
          "type": "uint256"
        }
      ],
      "name": "getSynthesizedTokens",
      "outputs": [
        {
          "components": [
            {
              "internalType": "address",
              "name": "owner",
              "type": "address"
            },
            {
              "internalType": "uint256",
              "name": "id",
              "type": "uint256"
            }
          ],
          "internalType": "struct ERC3664Synthetic.SynthesizedToken[]",
          "name": "",
          "type": "tuple[]"
        }
      ],
      "stateMutability": "view",
      "type": "function"
    }
  ],
  "bytecode": "0x608060405234801561001057600080fd5b50612b9d806100206000396000f3fe608060405234801561001057600080fd5b506004361061012b5760003560e01c80635d126110116100ad5780639a046ac5116100715780639a046ac5146103c85780639bc5ae54146103f8578063b888fd0e14610428578063ea69963314610458578063f52ce425146104885761012b565b80635d126110146102ec578063877936231461031c57806387e21d421461034c5780638df5a7921461037c578063936ca9e6146103ac5761012b565b806327737071116100f4578063277370711461022157806345e74373146102515780634e41a1fb1461026d5780635245110d1461029d5780635303a579146102d05761012b565b8062ad800c1461013057806301ffc9a71461016057806309363c44146101905780630ccaa34f146101c057806326e1ce64146101f1575b600080fd5b61014a60048036038101906101459190611d37565b6104b8565b6040516101579190612560565b60405180910390f35b61017a60048036038101906101759190611d0e565b6105a7565b60405161018791906124ac565b60405180910390f35b6101aa60048036038101906101a59190611d37565b610689565b6040516101b7919061248a565b60405180910390f35b6101da60048036038101906101d59190611e71565b6106f4565b6040516101e892919061243f565b60405180910390f35b61020b60048036038101906102069190611d37565b610755565b6040516102189190612468565b60405180910390f35b61023b60048036038101906102369190611e71565b610827565b604051610248919061267c565b60405180910390f35b61026b60048036038101906102669190611db8565b610858565b005b61028760048036038101906102829190611d37565b610cd5565b6040516102949190612560565b60405180910390f35b6102b760048036038101906102b29190611d37565b610dc4565b6040516102c79493929190612582565b60405180910390f35b6102ea60048036038101906102e59190611cbf565b610f99565b005b61030660048036038101906103019190611d60565b611070565b604051610313919061248a565b60405180910390f35b61033660048036038101906103319190611e71565b6111a1565b604051610343919061267c565b60405180910390f35b61036660048036038101906103619190611d37565b6111c6565b604051610373919061267c565b60405180910390f35b61039660048036038101906103919190611d37565b6111e3565b6040516103a3919061267c565b60405180910390f35b6103c660048036038101906103c19190611ead565b6111fb565b005b6103e260048036038101906103dd9190611e71565b6113e4565b6040516103ef91906124c7565b60405180910390f35b610412600480360381019061040d9190611d37565b61149b565b60405161041f9190612560565b60405180910390f35b610442600480360381019061043d9190611e71565b611622565b60405161044f91906124c7565b60405180910390f35b610472600480360381019061046d9190611e71565b6116cf565b60405161047f919061267c565b60405180910390f35b6104a2600480360381019061049d9190611d37565b6116fe565b6040516104af919061267c565b60405180910390f35b60606104c382611716565b610502576040517f08c379a00000000000000000000000000000000000000000000000000000000081526004016104f99061265c565b60405180910390fd5b600080838152602001908152602001600020600001805461052290612992565b80601f016020809104026020016040519081016040528092919081815260200182805461054e90612992565b801561059b5780601f106105705761010080835404028352916020019161059b565b820191906000526020600020905b81548152906001019060200180831161057e57829003601f168201915b50505050509050919050565b60007f75205675000000000000000000000000000000000000000000000000000000007bffffffffffffffffffffffffffffffffffffffffffffffffffffffff1916827bffffffffffffffffffffffffffffffffffffffffffffffffffffffff1916148061067257507fd5298fa3000000000000000000000000000000000000000000000000000000007bffffffffffffffffffffffffffffffffffffffffffffffffffffffff1916827bffffffffffffffffffffffffffffffffffffffffffffffffffffffff1916145b80610682575061068182611742565b5b9050919050565b6060600460008381526020019081526020016000208054806020026020016040519081016040528092919081815260200182805480156106e857602002820191906000526020600020905b8154815260200190600101908083116106d4575b50505050509050919050565b6005602052816000526040600020818154811061071057600080fd5b9060005260206000209060020201600091509150508060000160009054906101000a900473ffffffffffffffffffffffffffffffffffffffff16908060010154905082565b606060056000838152602001908152602001600020805480602002602001604051908101604052809291908181526020016000905b8282101561081c57838290600052602060002090600202016040518060400160405290816000820160009054906101000a900473ffffffffffffffffffffffffffffffffffffffff1673ffffffffffffffffffffffffffffffffffffffff1673ffffffffffffffffffffffffffffffffffffffff1681526020016001820154815250508152602001906001019061078a565b505050509050919050565b6004602052816000526040600020818154811061084357600080fd5b90600052602060002001600091509150505481565b60006108626117ac565b90506109048160008a8a8a80806020026020016040519081016040528093929190818152602001838360200280828437600081840152601f19601f82011690508083019250505050505050898980806020026020016040519081016040528093929190818152602001838360200280828437600081840152601f19601f82011690508083019250505050505050604051806020016040528060008152506117b4565b60005b87879050811015610c5d5761095a88888381811061094e577f4e487b7100000000000000000000000000000000000000000000000000000000600052603260045260246000fd5b90506020020135611716565b610999576040517f08c379a0000000000000000000000000000000000000000000000000000000008152600401610990906125dc565b60405180910390fd5b6000600160008a8a858181106109d8577f4e487b7100000000000000000000000000000000000000000000000000000000600052603260045260246000fd5b90506020020135815260200190815260200160002060008b8152602001908152602001600020541415610a7f57600460008a8152602001908152602001600020888883818110610a51577f4e487b7100000000000000000000000000000000000000000000000000000000600052603260045260246000fd5b9050602002013590806001815401808255809150506001900390600052602060002001600090919091909150555b6000848483818110610aba577f4e487b7100000000000000000000000000000000000000000000000000000000600052603260045260246000fd5b9050602002810190610acc9190612697565b90501115610b9157838382818110610b0d577f4e487b7100000000000000000000000000000000000000000000000000000000600052603260045260246000fd5b9050602002810190610b1f9190612697565b600260008b8b86818110610b5c577f4e487b7100000000000000000000000000000000000000000000000000000000600052603260045260246000fd5b90506020020135815260200190815260200160002060008c81526020019081526020016000209190610b8f929190611a46565b505b858582818110610bca577f4e487b7100000000000000000000000000000000000000000000000000000000600052603260045260246000fd5b90506020020135600160008a8a85818110610c0e577f4e487b7100000000000000000000000000000000000000000000000000000000600052603260045260246000fd5b90506020020135815260200190815260200160002060008b81526020019081526020016000206000828254610c43919061280f565b925050819055508080610c55906129c4565b915050610907565b508686604051610c6e929190612402565b60405180910390208173ffffffffffffffffffffffffffffffffffffffff167fbfb4d8e5891aebe97980c97616b6b0af2006a58ccabe6e1b7e3da24d0906a85660008b8989604051610cc394939291906124e9565b60405180910390a35050505050505050565b6060610ce082611716565b610d1f576040517f08c379a0000000000000000000000000000000000000000000000000000000008152600401610d16906125fc565b60405180910390fd5b6000808381526020019081526020016000206001018054610d3f90612992565b80601f0160208091040260200160405190810160405280929190818152602001828054610d6b90612992565b8015610db85780601f10610d8d57610100808354040283529160200191610db8565b820191906000526020600020905b815481529060010190602001808311610d9b57829003601f168201915b50505050509050919050565b6000602052806000526040600020600091509050806000018054610de790612992565b80601f0160208091040260200160405190810160405280929190818152602001828054610e1390612992565b8015610e605780601f10610e3557610100808354040283529160200191610e60565b820191906000526020600020905b815481529060010190602001808311610e4357829003601f168201915b505050505090806001018054610e7590612992565b80601f0160208091040260200160405190810160405280929190818152602001828054610ea190612992565b8015610eee5780601f10610ec357610100808354040283529160200191610eee565b820191906000526020600020905b815481529060010190602001808311610ed157829003601f168201915b505050505090806002018054610f0390612992565b80601f0160208091040260200160405190810160405280929190818152602001828054610f2f90612992565b8015610f7c5780601f10610f5157610100808354040283529160200191610f7c565b820191906000526020600020905b815481529060010190602001808311610f5f57829003601f168201915b5050505050908060030160009054906101000a900460ff16905084565b6005600083815260200190815260200160002060405180604001604052808573ffffffffffffffffffffffffffffffffffffffff16815260200183815250908060018154018082558091505060019003906000526020600020906002020160009091909190915060008201518160000160006101000a81548173ffffffffffffffffffffffffffffffffffffffff021916908373ffffffffffffffffffffffffffffffffffffffff160217905550602082015181600101555050816006600083815260200190815260200160002081905550505050565b606060008383905067ffffffffffffffff8111156110b7577f4e487b7100000000000000000000000000000000000000000000000000000000600052604160045260246000fd5b6040519080825280602002602001820160405280156110e55781602001602082028036833780820191505090505b50905060005b848490508110156111955761113f86868684818110611133577f4e487b7100000000000000000000000000000000000000000000000000000000600052603260045260246000fd5b905060200201356116cf565b828281518110611178577f4e487b7100000000000000000000000000000000000000000000000000000000600052603260045260246000fd5b6020026020010181815250508061118e906129c4565b90506110eb565b50809150509392505050565b6001602052816000526040600020602052806000526040600020600091509150505481565b600060036000838152602001908152602001600020549050919050565b60036020528060005260406000206000915090505481565b61120484611716565b611243576040517f08c379a000000000000000000000000000000000000000000000000000000000815260040161123a9061263c565b60405180910390fd5b600061124d6117ac565b905061127d8160008861125f896117bc565b611268896117bc565b604051806020016040528060008152506117b4565b60006001600087815260200190815260200160002060008881526020019081526020016000205414156113095781156112cd57846003600088815260200190815260200160002081905550611308565b600460008781526020019081526020016000208590806001815401808255809150506001900390600052602060002001600090919091909150555b5b60008351111561134d5782600260008781526020019081526020016000206000888152602001908152602001600020908051906020019061134b929190611acc565b505b836001600087815260200190815260200160002060008881526020019081526020016000206000828254611381919061280f565b92505081905550848173ffffffffffffffffffffffffffffffffffffffff167f73b5fbfbf0177b0de2ffe9fd0ae9887dd73d0d865db7ab5ff3c4a6b9bb8db1e3600089886040516113d493929190612529565b60405180910390a3505050505050565b6060600260008381526020019081526020016000206000848152602001908152602001600020805461141590612992565b80601f016020809104026020016040519081016040528092919081815260200182805461144190612992565b801561148e5780601f106114635761010080835404028352916020019161148e565b820191906000526020600020905b81548152906001019060200180831161147157829003601f168201915b5050505050905092915050565b60606114a682611716565b6114e5576040517f08c379a00000000000000000000000000000000000000000000000000000000081526004016114dc9061261c565b60405180910390fd5b6000806000848152602001908152602001600020600201805461150790612992565b80601f016020809104026020016040519081016040528092919081815260200182805461153390612992565b80156115805780601f1061155557610100808354040283529160200191611580565b820191906000526020600020905b81548152906001019060200180831161156357829003601f168201915b505050505090506000815111156115c3578061159b84611882565b6040516020016115ac92919061241b565b60405160208183030381529060405291505061161d565b60006115cd611a2f565b905060008151116115ed5760405180602001604052806000815250611618565b806115f785611882565b60405160200161160892919061241b565b6040516020818303038152906040525b925050505b919050565b600260205281600052604060002060205280600052604060002060009150915050805461164e90612992565b80601f016020809104026020016040519081016040528092919081815260200182805461167a90612992565b80156116c75780601f1061169c576101008083540402835291602001916116c7565b820191906000526020600020905b8154815290600101906020018083116116aa57829003601f168201915b505050505081565b600060016000838152602001908152602001600020600084815260200190815260200160002054905092915050565b60066020528060005260406000206000915090505481565b600080600083815260200190815260200160002060030160009054906101000a900460ff169050919050565b60007f01ffc9a7000000000000000000000000000000000000000000000000000000007bffffffffffffffffffffffffffffffffffffffffffffffffffffffff1916827bffffffffffffffffffffffffffffffffffffffffffffffffffffffff1916149050919050565b600033905090565b505050505050565b60606000600167ffffffffffffffff811115611801577f4e487b7100000000000000000000000000000000000000000000000000000000600052604160045260246000fd5b60405190808252806020026020018201604052801561182f5781602001602082028036833780820191505090505b509050828160008151811061186d577f4e487b7100000000000000000000000000000000000000000000000000000000600052603260045260246000fd5b60200260200101818152505080915050919050565b606060008214156118ca576040518060400160405280600181526020017f30000000000000000000000000000000000000000000000000000000000000008152509050611a2a565b600082905060005b600082146118fc5780806118e5906129c4565b915050600a826118f59190612865565b91506118d2565b60008167ffffffffffffffff81111561193e577f4e487b7100000000000000000000000000000000000000000000000000000000600052604160045260246000fd5b6040519080825280601f01601f1916602001820160405280156119705781602001600182028036833780820191505090505b5090505b60008514611a23576001826119899190612896565b9150600a856119989190612a0d565b60306119a4919061280f565b60f81b8183815181106119e0577f4e487b7100000000000000000000000000000000000000000000000000000000600052603260045260246000fd5b60200101907effffffffffffffffffffffffffffffffffffffffffffffffffffffffffffff1916908160001a905350600a85611a1c9190612865565b9450611974565b8093505050505b919050565b606060405180602001604052806000815250905090565b828054611a5290612992565b90600052602060002090601f016020900481019282611a745760008555611abb565b82601f10611a8d57803560ff1916838001178555611abb565b82800160010185558215611abb579182015b82811115611aba578235825591602001919060010190611a9f565b5b509050611ac89190611b52565b5090565b828054611ad890612992565b90600052602060002090601f016020900481019282611afa5760008555611b41565b82601f10611b1357805160ff1916838001178555611b41565b82800160010185558215611b41579182015b82811115611b40578251825591602001919060010190611b25565b5b509050611b4e9190611b52565b5090565b5b80821115611b6b576000816000905550600101611b53565b5090565b6000611b82611b7d8461271f565b6126ee565b905082815260208101848484011115611b9a57600080fd5b611ba5848285612950565b509392505050565b600081359050611bbc81612b0b565b92915050565b60008083601f840112611bd457600080fd5b8235905067ffffffffffffffff811115611bed57600080fd5b602083019150836020820283011115611c0557600080fd5b9250929050565b60008083601f840112611c1e57600080fd5b8235905067ffffffffffffffff811115611c3757600080fd5b602083019150836020820283011115611c4f57600080fd5b9250929050565b600081359050611c6581612b22565b92915050565b600081359050611c7a81612b39565b92915050565b600082601f830112611c9157600080fd5b8135611ca1848260208601611b6f565b91505092915050565b600081359050611cb981612b50565b92915050565b600080600060608486031215611cd457600080fd5b6000611ce286828701611bad565b9350506020611cf386828701611caa565b9250506040611d0486828701611caa565b9150509250925092565b600060208284031215611d2057600080fd5b6000611d2e84828501611c6b565b91505092915050565b600060208284031215611d4957600080fd5b6000611d5784828501611caa565b91505092915050565b600080600060408486031215611d7557600080fd5b6000611d8386828701611caa565b935050602084013567ffffffffffffffff811115611da057600080fd5b611dac86828701611c0c565b92509250509250925092565b60008060008060008060006080888a031215611dd357600080fd5b6000611de18a828b01611caa565b975050602088013567ffffffffffffffff811115611dfe57600080fd5b611e0a8a828b01611c0c565b9650965050604088013567ffffffffffffffff811115611e2957600080fd5b611e358a828b01611c0c565b9450945050606088013567ffffffffffffffff811115611e5457600080fd5b611e608a828b01611bc2565b925092505092959891949750929550565b60008060408385031215611e8457600080fd5b6000611e9285828601611caa565b9250506020611ea385828601611caa565b9150509250929050565b600080600080600060a08688031215611ec557600080fd5b6000611ed388828901611caa565b9550506020611ee488828901611caa565b9450506040611ef588828901611caa565b935050606086013567ffffffffffffffff811115611f1257600080fd5b611f1e88828901611c80565b9250506080611f2f88828901611c56565b9150509295509295909350565b6000611f4883836123b5565b60408301905092915050565b6000611f6083836123e4565b60208301905092915050565b611f75816128ca565b82525050565b611f84816128ca565b82525050565b6000611f958261276f565b611f9f81856127b5565b9350611faa8361274f565b8060005b83811015611fdb578151611fc28882611f3c565b9750611fcd8361279b565b925050600181019050611fae565b5085935050505092915050565b6000611ff483856127c6565b93507f07ffffffffffffffffffffffffffffffffffffffffffffffffffffffffffffff83111561202357600080fd5b602083029250612034838584612950565b82840190509392505050565b600061204c83856127d7565b93507f07ffffffffffffffffffffffffffffffffffffffffffffffffffffffffffffff83111561207b57600080fd5b60208302925061208c838584612950565b82840190509392505050565b60006120a38261277a565b6120ad81856127c6565b93506120b88361275f565b8060005b838110156120e95781516120d08882611f54565b97506120db836127a8565b9250506001810190506120bc565b5085935050505092915050565b6120ff816128dc565b82525050565b600061211082612785565b61211a81856127e2565b935061212a81856020860161295f565b61213381612afa565b840191505092915050565b6121478161293e565b82525050565b600061215882612790565b61216281856127f3565b935061217281856020860161295f565b61217b81612afa565b840191505092915050565b600061219182612790565b61219b8185612804565b93506121ab81856020860161295f565b80840191505092915050565b60006121c4602e836127f3565b91507f455243333636343a20626174636841747461636820666f72206e6f6e6578697360008301527f74656e74206174747269627574650000000000000000000000000000000000006020830152604082019050919050565b600061222a602f836127f3565b91507f455243333636343a2073796d626f6c20717565727920666f72206e6f6e65786960008301527f7374656e742061747472696275746500000000000000000000000000000000006020830152604082019050919050565b6000612290602c836127f3565b91507f455243333636343a2055524920717565727920666f72206e6f6e65786973746560008301527f6e742061747472696275746500000000000000000000000000000000000000006020830152604082019050919050565b60006122f66029836127f3565b91507f455243333636343a2061747461636820666f72206e6f6e6578697374656e742060008301527f61747472696275746500000000000000000000000000000000000000000000006020830152604082019050919050565b600061235c602d836127f3565b91507f455243333636343a206e616d6520717565727920666f72206e6f6e657869737460008301527f656e7420617474726962757465000000000000000000000000000000000000006020830152604082019050919050565b6040820160008201516123cb6000850182611f6c565b5060208201516123de60208501826123e4565b50505050565b6123ed81612934565b82525050565b6123fc81612934565b82525050565b600061240f828486612040565b91508190509392505050565b60006124278285612186565b91506124338284612186565b91508190509392505050565b60006040820190506124546000830185611f7b565b61246160208301846123f3565b9392505050565b600060208201905081810360008301526124828184611f8a565b905092915050565b600060208201905081810360008301526124a48184612098565b905092915050565b60006020820190506124c160008301846120f6565b92915050565b600060208201905081810360008301526124e18184612105565b905092915050565b60006060820190506124fe600083018761213e565b61250b60208301866123f3565b818103604083015261251e818486611fe8565b905095945050505050565b600060608201905061253e600083018661213e565b61254b60208301856123f3565b61255860408301846123f3565b949350505050565b6000602082019050818103600083015261257a818461214d565b905092915050565b6000608082019050818103600083015261259c818761214d565b905081810360208301526125b0818661214d565b905081810360408301526125c4818561214d565b90506125d360608301846120f6565b95945050505050565b600060208201905081810360008301526125f5816121b7565b9050919050565b600060208201905081810360008301526126158161221d565b9050919050565b6000602082019050818103600083015261263581612283565b9050919050565b60006020820190508181036000830152612655816122e9565b9050919050565b600060208201905081810360008301526126758161234f565b9050919050565b600060208201905061269160008301846123f3565b92915050565b600080833560016020038436030381126126b057600080fd5b80840192508235915067ffffffffffffffff8211156126ce57600080fd5b6020830192506001820236038313156126e657600080fd5b509250929050565b6000604051905081810181811067ffffffffffffffff8211171561271557612714612acb565b5b8060405250919050565b600067ffffffffffffffff82111561273a57612739612acb565b5b601f19601f8301169050602081019050919050565b6000819050602082019050919050565b6000819050602082019050919050565b600081519050919050565b600081519050919050565b600081519050919050565b600081519050919050565b6000602082019050919050565b6000602082019050919050565b600082825260208201905092915050565b600082825260208201905092915050565b600081905092915050565b600082825260208201905092915050565b600082825260208201905092915050565b600081905092915050565b600061281a82612934565b915061282583612934565b9250827fffffffffffffffffffffffffffffffffffffffffffffffffffffffffffffffff0382111561285a57612859612a3e565b5b828201905092915050565b600061287082612934565b915061287b83612934565b92508261288b5761288a612a6d565b5b828204905092915050565b60006128a182612934565b91506128ac83612934565b9250828210156128bf576128be612a3e565b5b828203905092915050565b60006128d582612914565b9050919050565b60008115159050919050565b60007fffffffff0000000000000000000000000000000000000000000000000000000082169050919050565b600073ffffffffffffffffffffffffffffffffffffffff82169050919050565b6000819050919050565b600061294982612934565b9050919050565b82818337600083830152505050565b60005b8381101561297d578082015181840152602081019050612962565b8381111561298c576000848401525b50505050565b600060028204905060018216806129aa57607f821691505b602082108114156129be576129bd612a9c565b5b50919050565b60006129cf82612934565b91507fffffffffffffffffffffffffffffffffffffffffffffffffffffffffffffffff821415612a0257612a01612a3e565b5b600182019050919050565b6000612a1882612934565b9150612a2383612934565b925082612a3357612a32612a6d565b5b828206905092915050565b7f4e487b7100000000000000000000000000000000000000000000000000000000600052601160045260246000fd5b7f4e487b7100000000000000000000000000000000000000000000000000000000600052601260045260246000fd5b7f4e487b7100000000000000000000000000000000000000000000000000000000600052602260045260246000fd5b7f4e487b7100000000000000000000000000000000000000000000000000000000600052604160045260246000fd5b6000601f19601f8301169050919050565b612b14816128ca565b8114612b1f57600080fd5b50565b612b2b816128dc565b8114612b3657600080fd5b50565b612b42816128e8565b8114612b4d57600080fd5b50565b612b5981612934565b8114612b6457600080fd5b5056fea2646970667358221220261c914e67d07da74e882ad79a7172810a04e2e1cd83e852cb7075f0af0b916f64736f6c63430008000033",
  "immutableReferences": {},
  "source": "// SPDX-License-Identifier: MIT\r\n\r\npragma solidity ^0.8.0;\r\n\r\nimport \"../ERC3664.sol\";\r\n\r\n/**\r\n * @dev Implementation of the {ERC3664Synthetic} interface.\r\n */\r\ncontract ERC3664Synthetic is ERC3664 {\r\n    struct SynthesizedToken {\r\n        address owner;\r\n        uint256 id;\r\n    }\r\n\r\n    // mainToken => SynthesizedToken\r\n    mapping(uint256 => SynthesizedToken[]) public synthesizedTokens;\r\n\r\n    // subToken => mainToken\r\n    mapping(uint256 => uint256) public subTokens;\r\n\r\n    // Mapping from token ID to approved another token.\r\n    mapping(uint256 => uint256) private _combineApprovals;\r\n\r\n    constructor() ERC3664() {}\r\n\r\n    function recordSynthesized(\r\n        address owner,\r\n        uint256 tokenId,\r\n        uint256 subId\r\n    ) public {\r\n        synthesizedTokens[tokenId].push(SynthesizedToken(owner, subId));\r\n        subTokens[subId] = tokenId;\r\n    }\r\n\r\n    function getSynthesizedTokens(uint256 tokenId)\r\n        public\r\n        view\r\n        returns (SynthesizedToken[] memory)\r\n    {\r\n        return synthesizedTokens[tokenId];\r\n    }\r\n\r\n    function tokenAttributes(uint256 tokenId)\r\n        internal\r\n        view\r\n        returns (string memory)\r\n    {\r\n        bytes memory data = \"\";\r\n        uint256[] memory attrs = attributesOf(tokenId);\r\n        for (uint256 i = 0; i < attrs.length; i++) {\r\n            if (data.length > 0) {\r\n                data = abi.encodePacked(data, \",\");\r\n            }\r\n            data = abi.encodePacked(\r\n                data,\r\n                '{\"trait_type\":\"',\r\n                symbol(attrs[i]),\r\n                '\",\"value\":\"',\r\n                textOf(tokenId, attrs[i]),\r\n                '\"}'\r\n            );\r\n        }\r\n        data = abi.encodePacked(data, getSubAttributes(tokenId));\r\n\r\n        return string(data);\r\n    }\r\n\r\n    function getSubAttributes(uint256 tokenId)\r\n        internal\r\n        view\r\n        returns (bytes memory)\r\n    {\r\n        bytes memory data = \"\";\r\n        SynthesizedToken[] memory sTokens = synthesizedTokens[tokenId];\r\n        for (uint256 i = 0; i < sTokens.length; i++) {\r\n            if (data.length > 0) {\r\n                data = abi.encodePacked(data, \",\");\r\n            }\r\n            data = abi.encodePacked(data, tokenAttributes(sTokens[i].id));\r\n        }\r\n        return data;\r\n    }\r\n}\r\n",
  "sourcePath": "D:\\MetaNFT\\MetaNFT\\contracts\\ERC3664\\extensions\\ERC3664Synthetic.sol",
  "compiler": {
    "name": "solc",
    "version": "0.8.0+commit.c7dfd78e.Emscripten.clang"
  },
  "schemaVersion": "3.4.3",
  "updatedAt": "2021-09-22T09:26:13.431Z",
  "devdoc": {
    "details": "Implementation of the {ERC3664Synthetic} interface.",
    "kind": "dev",
    "methods": {
      "attach(uint256,uint256,uint256,bytes,bool)": {
        "details": "See {IERC3664-attach}."
      },
      "attrURI(uint256)": {
        "details": "See {IERC721Metadata-attrURI}."
      },
      "attributesOf(uint256)": {
        "details": "See {IERC3664-attributesOf}."
      },
      "balanceOf(uint256,uint256)": {
        "details": "See {IERC3664-balanceOf}."
      },
      "balanceOfBatch(uint256,uint256[])": {
        "details": "See {IERC3664-balanceOfBatch}."
      },
      "batchAttach(uint256,uint256[],uint256[],bytes[])": {
        "details": "See {IERC3664-batchAttach}."
      },
      "name(uint256)": {
        "details": "See {IERC3664Metadata-name}."
      },
      "primaryAttributeOf(uint256)": {
        "details": "Returns primary attribute type of owned by `tokenId`."
      },
      "supportsInterface(bytes4)": {
        "details": "See {IERC165-supportsInterface}."
      },
      "symbol(uint256)": {
        "details": "See {IERC3664Metadata-symbol}."
      },
      "textOf(uint256,uint256)": {
        "details": "See {IERC3664-textOf}."
      }
    },
    "version": 1
  },
  "userdoc": {
    "kind": "user",
    "methods": {},
    "version": 1
  }
}