{
  "contractName": "ERC3664Generic",
  "abi": [
    {
      "inputs": [],
      "stateMutability": "nonpayable",
      "type": "constructor"
    },
    {
      "anonymous": false,
      "inputs": [
        {
          "indexed": true,
          "internalType": "address",
          "name": "operator",
          "type": "address"
        },
        {
          "indexed": true,
          "internalType": "uint256",
          "name": "attrId",
          "type": "uint256"
        },
        {
          "indexed": false,
          "internalType": "string",
          "name": "name",
          "type": "string"
        },
        {
          "indexed": false,
          "internalType": "string",
          "name": "symbol",
          "type": "string"
        },
        {
          "indexed": false,
          "internalType": "string",
          "name": "uri",
          "type": "string"
        }
      ],
      "name": "NewAttribute",
      "type": "event"
    },
    {
      "anonymous": false,
      "inputs": [
        {
          "indexed": true,
          "internalType": "address",
          "name": "operator",
          "type": "address"
        },
        {
          "indexed": true,
          "internalType": "uint256[]",
          "name": "attrIds",
          "type": "uint256[]"
        },
        {
          "indexed": false,
          "internalType": "string[]",
          "name": "names",
          "type": "string[]"
        },
        {
          "indexed": false,
          "internalType": "string[]",
          "name": "symbols",
          "type": "string[]"
        },
        {
          "indexed": false,
          "internalType": "string[]",
          "name": "uris",
          "type": "string[]"
        }
      ],
      "name": "NewAttributeBatch",
      "type": "event"
    },
    {
      "anonymous": false,
      "inputs": [
        {
          "indexed": true,
          "internalType": "bytes32",
          "name": "role",
          "type": "bytes32"
        },
        {
          "indexed": true,
          "internalType": "bytes32",
          "name": "previousAdminRole",
          "type": "bytes32"
        },
        {
          "indexed": true,
          "internalType": "bytes32",
          "name": "newAdminRole",
          "type": "bytes32"
        }
      ],
      "name": "RoleAdminChanged",
      "type": "event"
    },
    {
      "anonymous": false,
      "inputs": [
        {
          "indexed": true,
          "internalType": "bytes32",
          "name": "role",
          "type": "bytes32"
        },
        {
          "indexed": true,
          "internalType": "address",
          "name": "account",
          "type": "address"
        },
        {
          "indexed": true,
          "internalType": "address",
          "name": "sender",
          "type": "address"
        }
      ],
      "name": "RoleGranted",
      "type": "event"
    },
    {
      "anonymous": false,
      "inputs": [
        {
          "indexed": true,
          "internalType": "bytes32",
          "name": "role",
          "type": "bytes32"
        },
        {
          "indexed": true,
          "internalType": "address",
          "name": "account",
          "type": "address"
        },
        {
          "indexed": true,
          "internalType": "address",
          "name": "sender",
          "type": "address"
        }
      ],
      "name": "RoleRevoked",
      "type": "event"
    },
    {
      "anonymous": false,
      "inputs": [
        {
          "indexed": true,
          "internalType": "address",
          "name": "operator",
          "type": "address"
        },
        {
          "indexed": false,
          "internalType": "uint256",
          "name": "from",
          "type": "uint256"
        },
        {
          "indexed": false,
          "internalType": "uint256",
          "name": "to",
          "type": "uint256"
        },
        {
          "indexed": true,
          "internalType": "uint256[]",
          "name": "attrIds",
          "type": "uint256[]"
        },
        {
          "indexed": false,
          "internalType": "uint256[]",
          "name": "values",
          "type": "uint256[]"
        }
      ],
      "name": "TransferBatch",
      "type": "event"
    },
    {
      "anonymous": false,
      "inputs": [
        {
          "indexed": true,
          "internalType": "address",
          "name": "operator",
          "type": "address"
        },
        {
          "indexed": false,
          "internalType": "uint256",
          "name": "from",
          "type": "uint256"
        },
        {
          "indexed": false,
          "internalType": "uint256",
          "name": "to",
          "type": "uint256"
        },
        {
          "indexed": true,
          "internalType": "uint256",
          "name": "attrId",
          "type": "uint256"
        },
        {
          "indexed": false,
          "internalType": "uint256",
          "name": "value",
          "type": "uint256"
        }
      ],
      "name": "TransferSingle",
      "type": "event"
    },
    {
      "inputs": [],
      "name": "ATTACH_ROLE",
      "outputs": [
        {
          "internalType": "bytes32",
          "name": "",
          "type": "bytes32"
        }
      ],
      "stateMutability": "view",
      "type": "function"
    },
    {
      "inputs": [],
      "name": "DEFAULT_ADMIN_ROLE",
      "outputs": [
        {
          "internalType": "bytes32",
          "name": "",
          "type": "bytes32"
        }
      ],
      "stateMutability": "view",
      "type": "function"
    },
    {
      "inputs": [],
      "name": "MINTER_ROLE",
      "outputs": [
        {
          "internalType": "bytes32",
          "name": "",
          "type": "bytes32"
        }
      ],
      "stateMutability": "view",
      "type": "function"
    },
    {
      "inputs": [
        {
          "internalType": "uint256",
          "name": "",
          "type": "uint256"
        }
      ],
      "name": "_attrMetadatas",
      "outputs": [
        {
          "internalType": "string",
          "name": "name",
          "type": "string"
        },
        {
          "internalType": "string",
          "name": "symbol",
          "type": "string"
        },
        {
          "internalType": "string",
          "name": "uri",
          "type": "string"
        },
        {
          "internalType": "bool",
          "name": "exist",
          "type": "bool"
        }
      ],
      "stateMutability": "view",
      "type": "function"
    },
    {
      "inputs": [
        {
          "internalType": "uint256",
          "name": "",
          "type": "uint256"
        },
        {
          "internalType": "uint256",
          "name": "",
          "type": "uint256"
        }
      ],
      "name": "_balances",
      "outputs": [
        {
          "internalType": "uint256",
          "name": "",
          "type": "uint256"
        }
      ],
      "stateMutability": "view",
      "type": "function"
    },
    {
      "inputs": [
        {
          "internalType": "uint256",
          "name": "",
          "type": "uint256"
        },
        {
          "internalType": "uint256",
          "name": "",
          "type": "uint256"
        }
      ],
      "name": "_texts",
      "outputs": [
        {
          "internalType": "bytes",
          "name": "",
          "type": "bytes"
        }
      ],
      "stateMutability": "view",
      "type": "function"
    },
    {
      "inputs": [
        {
          "internalType": "uint256",
          "name": "attrId",
          "type": "uint256"
        }
      ],
      "name": "attrURI",
      "outputs": [
        {
          "internalType": "string",
          "name": "",
          "type": "string"
        }
      ],
      "stateMutability": "view",
      "type": "function"
    },
    {
      "inputs": [
        {
          "internalType": "uint256",
          "name": "tokenId",
          "type": "uint256"
        }
      ],
      "name": "attributesOf",
      "outputs": [
        {
          "internalType": "uint256[]",
          "name": "",
          "type": "uint256[]"
        }
      ],
      "stateMutability": "view",
      "type": "function"
    },
    {
      "inputs": [
        {
          "internalType": "uint256",
          "name": "tokenId",
          "type": "uint256"
        },
        {
          "internalType": "uint256",
          "name": "attrId",
          "type": "uint256"
        }
      ],
      "name": "balanceOf",
      "outputs": [
        {
          "internalType": "uint256",
          "name": "",
          "type": "uint256"
        }
      ],
      "stateMutability": "view",
      "type": "function"
    },
    {
      "inputs": [
        {
          "internalType": "uint256",
          "name": "tokenId",
          "type": "uint256"
        },
        {
          "internalType": "uint256[]",
          "name": "attrIds",
          "type": "uint256[]"
        }
      ],
      "name": "balanceOfBatch",
      "outputs": [
        {
          "internalType": "uint256[]",
          "name": "",
          "type": "uint256[]"
        }
      ],
      "stateMutability": "view",
      "type": "function"
    },
    {
      "inputs": [
        {
          "internalType": "bytes32",
          "name": "role",
          "type": "bytes32"
        }
      ],
      "name": "getRoleAdmin",
      "outputs": [
        {
          "internalType": "bytes32",
          "name": "",
          "type": "bytes32"
        }
      ],
      "stateMutability": "view",
      "type": "function"
    },
    {
      "inputs": [
        {
          "internalType": "bytes32",
          "name": "role",
          "type": "bytes32"
        },
        {
          "internalType": "uint256",
          "name": "index",
          "type": "uint256"
        }
      ],
      "name": "getRoleMember",
      "outputs": [
        {
          "internalType": "address",
          "name": "",
          "type": "address"
        }
      ],
      "stateMutability": "view",
      "type": "function"
    },
    {
      "inputs": [
        {
          "internalType": "bytes32",
          "name": "role",
          "type": "bytes32"
        }
      ],
      "name": "getRoleMemberCount",
      "outputs": [
        {
          "internalType": "uint256",
          "name": "",
          "type": "uint256"
        }
      ],
      "stateMutability": "view",
      "type": "function"
    },
    {
      "inputs": [
        {
          "internalType": "bytes32",
          "name": "role",
          "type": "bytes32"
        },
        {
          "internalType": "address",
          "name": "account",
          "type": "address"
        }
      ],
      "name": "grantRole",
      "outputs": [],
      "stateMutability": "nonpayable",
      "type": "function"
    },
    {
      "inputs": [
        {
          "internalType": "bytes32",
          "name": "role",
          "type": "bytes32"
        },
        {
          "internalType": "address",
          "name": "account",
          "type": "address"
        }
      ],
      "name": "hasRole",
      "outputs": [
        {
          "internalType": "bool",
          "name": "",
          "type": "bool"
        }
      ],
      "stateMutability": "view",
      "type": "function"
    },
    {
      "inputs": [
        {
          "internalType": "uint256",
          "name": "attrId",
          "type": "uint256"
        }
      ],
      "name": "name",
      "outputs": [
        {
          "internalType": "string",
          "name": "",
          "type": "string"
        }
      ],
      "stateMutability": "view",
      "type": "function"
    },
    {
      "inputs": [
        {
          "internalType": "uint256",
          "name": "tokenId",
          "type": "uint256"
        }
      ],
      "name": "primaryAttributeOf",
      "outputs": [
        {
          "internalType": "uint256",
          "name": "",
          "type": "uint256"
        }
      ],
      "stateMutability": "view",
      "type": "function"
    },
    {
      "inputs": [
        {
          "internalType": "uint256",
          "name": "",
          "type": "uint256"
        }
      ],
      "name": "primaryAttrs",
      "outputs": [
        {
          "internalType": "uint256",
          "name": "",
          "type": "uint256"
        }
      ],
      "stateMutability": "view",
      "type": "function"
    },
    {
      "inputs": [
        {
          "internalType": "bytes32",
          "name": "role",
          "type": "bytes32"
        },
        {
          "internalType": "address",
          "name": "account",
          "type": "address"
        }
      ],
      "name": "renounceRole",
      "outputs": [],
      "stateMutability": "nonpayable",
      "type": "function"
    },
    {
      "inputs": [
        {
          "internalType": "bytes32",
          "name": "role",
          "type": "bytes32"
        },
        {
          "internalType": "address",
          "name": "account",
          "type": "address"
        }
      ],
      "name": "revokeRole",
      "outputs": [],
      "stateMutability": "nonpayable",
      "type": "function"
    },
    {
      "inputs": [
        {
          "internalType": "uint256",
          "name": "",
          "type": "uint256"
        },
        {
          "internalType": "uint256",
          "name": "",
          "type": "uint256"
        }
      ],
      "name": "secondaryAttrs",
      "outputs": [
        {
          "internalType": "uint256",
          "name": "",
          "type": "uint256"
        }
      ],
      "stateMutability": "view",
      "type": "function"
    },
    {
      "inputs": [
        {
          "internalType": "uint256",
          "name": "attrId",
          "type": "uint256"
        }
      ],
      "name": "symbol",
      "outputs": [
        {
          "internalType": "string",
          "name": "",
          "type": "string"
        }
      ],
      "stateMutability": "view",
      "type": "function"
    },
    {
      "inputs": [
        {
          "internalType": "uint256",
          "name": "tokenId",
          "type": "uint256"
        },
        {
          "internalType": "uint256",
          "name": "attrId",
          "type": "uint256"
        }
      ],
      "name": "textOf",
      "outputs": [
        {
          "internalType": "bytes",
          "name": "",
          "type": "bytes"
        }
      ],
      "stateMutability": "view",
      "type": "function"
    },
    {
      "inputs": [
        {
          "internalType": "uint256",
          "name": "attrId",
          "type": "uint256"
        },
        {
          "internalType": "string",
          "name": "_name",
          "type": "string"
        },
        {
          "internalType": "string",
          "name": "_symbol",
          "type": "string"
        },
        {
          "internalType": "string",
          "name": "_uri",
          "type": "string"
        }
      ],
      "name": "mint",
      "outputs": [],
      "stateMutability": "nonpayable",
      "type": "function"
    },
    {
      "inputs": [
        {
          "internalType": "uint256[]",
          "name": "attrIds",
          "type": "uint256[]"
        },
        {
          "internalType": "string[]",
          "name": "names",
          "type": "string[]"
        },
        {
          "internalType": "string[]",
          "name": "symbols",
          "type": "string[]"
        },
        {
          "internalType": "string[]",
          "name": "uris",
          "type": "string[]"
        }
      ],
      "name": "mintBatch",
      "outputs": [],
      "stateMutability": "nonpayable",
      "type": "function"
    },
    {
      "inputs": [
        {
          "internalType": "uint256",
          "name": "tokenId",
          "type": "uint256"
        },
        {
          "internalType": "uint256",
          "name": "attrId",
          "type": "uint256"
        },
        {
          "internalType": "uint256",
          "name": "amount",
          "type": "uint256"
        },
        {
          "internalType": "bytes",
          "name": "text",
          "type": "bytes"
        },
        {
          "internalType": "bool",
          "name": "isPrimary",
          "type": "bool"
        }
      ],
      "name": "attach",
      "outputs": [],
      "stateMutability": "nonpayable",
      "type": "function"
    },
    {
      "inputs": [
        {
          "internalType": "uint256",
          "name": "tokenId",
          "type": "uint256"
        },
        {
          "internalType": "uint256[]",
          "name": "attrIds",
          "type": "uint256[]"
        },
        {
          "internalType": "uint256[]",
          "name": "amounts",
          "type": "uint256[]"
        },
        {
          "internalType": "bytes[]",
          "name": "texts",
          "type": "bytes[]"
        }
      ],
      "name": "batchAttach",
      "outputs": [],
      "stateMutability": "nonpayable",
      "type": "function"
    },
    {
      "inputs": [
        {
          "internalType": "bytes4",
          "name": "interfaceId",
          "type": "bytes4"
        }
      ],
      "name": "supportsInterface",
      "outputs": [
        {
          "internalType": "bool",
          "name": "",
          "type": "bool"
        }
      ],
      "stateMutability": "view",
      "type": "function"
    }
  ],
  "bytecode": "0x60806040523480156200001157600080fd5b50620000366000801b6200002a620000be60201b60201c565b620000c660201b60201c565b620000777f9f2df0fed2c77648de5860a4cc508cd0818c85b8b8a1ab4ceeef8d981c8956a66200006b620000be60201b60201c565b620000c660201b60201c565b620000b87f8b16888c296865dbfb46a3f5241555370dc784c1a8890b825830bee0b73996df620000ac620000be60201b60201c565b620000c660201b60201c565b62000354565b600033905090565b620000dd82826200010e60201b620013921760201c565b6200010981600160008581526020019081526020016000206200012460201b620013a01790919060201c565b505050565b6200012082826200015c60201b60201c565b5050565b600062000154836000018373ffffffffffffffffffffffffffffffffffffffff1660001b6200024d60201b60201c565b905092915050565b6200016e8282620002c760201b60201c565b6200024957600160008084815260200190815260200160002060000160008373ffffffffffffffffffffffffffffffffffffffff1673ffffffffffffffffffffffffffffffffffffffff16815260200190815260200160002060006101000a81548160ff021916908315150217905550620001ee620000be60201b60201c565b73ffffffffffffffffffffffffffffffffffffffff168173ffffffffffffffffffffffffffffffffffffffff16837f2f8788117e7eff1d82e926ec794901d17c78024a50270940304540a733656f0d60405160405180910390a45b5050565b60006200026183836200033160201b60201c565b620002bc578260000182908060018154018082558091505060019003906000526020600020016000909190919091505582600001805490508360010160008481526020019081526020016000208190555060019050620002c1565b600090505b92915050565b600080600084815260200190815260200160002060000160008373ffffffffffffffffffffffffffffffffffffffff1673ffffffffffffffffffffffffffffffffffffffff16815260200190815260200160002060009054906101000a900460ff16905092915050565b600080836001016000848152602001908152602001600020541415905092915050565b61494b80620003646000396000f3fe608060405234801561001057600080fd5b50600436106101c35760003560e01c80638df5a792116100f9578063a217fddf11610097578063ca15c87311610071578063ca15c873146105af578063d5391393146105df578063d547741f146105fd578063ea69963314610619576101c3565b8063a217fddf14610545578063acdd145414610563578063b888fd0e1461057f576101c3565b8063936ca9e6116100d3578063936ca9e6146104ab57806398ec8f33146104c75780639a046ac5146104e55780639bc5ae5414610515576101c3565b80638df5a7921461041b5780639010d07c1461044b57806391d148541461047b576101c3565b80633fffa0c1116101665780635245110d116101405780635245110d146103585780635d1261101461038b57806387793623146103bb57806387e21d42146103eb576101c3565b80633fffa0c1146102f057806345e743731461030c5780634e41a1fb14610328576101c3565b8063248a9ca3116101a2578063248a9ca31461025857806327737071146102885780632f2ff15d146102b857806336568abe146102d4576101c3565b8062ad800c146101c857806301ffc9a7146101f857806309363c4414610228575b600080fd5b6101e260048036038101906101dd9190613313565b610649565b6040516101ef919061409b565b60405180910390f35b610212600480360381019061020d91906132ea565b610739565b60405161021f9190613fcc565b60405180910390f35b610242600480360381019061023d9190613313565b61074b565b60405161024f9190613faa565b60405180910390f35b610272600480360381019061026d9190613249565b6107b6565b60405161027f9190613fe7565b60405180910390f35b6102a2600480360381019061029d91906134f8565b6107d5565b6040516102af9190614303565b60405180910390f35b6102d260048036038101906102cd9190613272565b610806565b005b6102ee60048036038101906102e99190613272565b61083a565b005b61030a60048036038101906103059190613174565b61086e565b005b61032660048036038101906103219190613394565b610959565b005b610342600480360381019061033d9190613313565b6109e1565b60405161034f919061409b565b60405180910390f35b610372600480360381019061036d9190613313565b610ad1565b6040516103829493929190614109565b60405180910390f35b6103a560048036038101906103a0919061333c565b610ca6565b6040516103b29190613faa565b60405180910390f35b6103d560048036038101906103d091906134f8565b610dd7565b6040516103e29190614303565b60405180910390f35b61040560048036038101906104009190613313565b610dfc565b6040516104129190614303565b60405180910390f35b61043560048036038101906104309190613313565b610e19565b6040516104429190614303565b60405180910390f35b610465600480360381019061046091906132ae565b610e31565b6040516104729190613f43565b60405180910390f35b61049560048036038101906104909190613272565b610e60565b6040516104a29190613fcc565b60405180910390f35b6104c560048036038101906104c09190613534565b610eca565b005b6104cf610f4e565b6040516104dc9190613fe7565b60405180910390f35b6104ff60048036038101906104fa91906134f8565b610f72565b60405161050c9190614002565b60405180910390f35b61052f600480360381019061052a9190613313565b611029565b60405161053c919061409b565b60405180910390f35b61054d6111b1565b60405161055a9190613fe7565b60405180910390f35b61057d6004803603810190610578919061344d565b6111b8565b005b610599600480360381019061059491906134f8565b61123a565b6040516105a69190614002565b60405180910390f35b6105c960048036038101906105c49190613249565b6112e7565b6040516105d69190614303565b60405180910390f35b6105e761130b565b6040516105f49190613fe7565b60405180910390f35b61061760048036038101906106129190613272565b61132f565b005b610633600480360381019061062e91906134f8565b611363565b6040516106409190614303565b60405180910390f35b6060610654826113d0565b610693576040517f08c379a000000000000000000000000000000000000000000000000000000000815260040161068a906142a3565b60405180910390fd5b6002600083815260200190815260200160002060000180546106b490614729565b80601f01602080910402602001604051908101604052809291908181526020018280546106e090614729565b801561072d5780601f106107025761010080835404028352916020019161072d565b820191906000526020600020905b81548152906001019060200180831161071057829003601f168201915b50505050509050919050565b6000610744826113fd565b9050919050565b6060600660008381526020019081526020016000208054806020026020016040519081016040528092919081815260200182805480156107aa57602002820191906000526020600020905b815481526020019060010190808311610796575b50505050509050919050565b6000806000838152602001908152602001600020600101549050919050565b600660205281600052604060002081815481106107f157600080fd5b90600052602060002001600091509150505481565b61081082826114df565b61083581600160008581526020019081526020016000206113a090919063ffffffff16565b505050565b6108448282611508565b610869816001600085815260200190815260200160002061158b90919063ffffffff16565b505050565b61089f7f9f2df0fed2c77648de5860a4cc508cd0818c85b8b8a1ab4ceeef8d981c8956a661089a6115bb565b610e60565b6108de576040517f08c379a00000000000000000000000000000000000000000000000000000000081526004016108d590614263565b60405180910390fd5b61094f888880806020026020016040519081016040528093929190818152602001838360200280828437600081840152601f19601f820116905080830192505050505050508787906109309190614696565b86869061093d9190614696565b85859061094a9190614696565b6115c3565b5050505050505050565b61098a7f8b16888c296865dbfb46a3f5241555370dc784c1a8890b825830bee0b73996df6109856115bb565b610e60565b6109c9576040517f08c379a00000000000000000000000000000000000000000000000000000000081526004016109c090614183565b60405180910390fd5b6109d88787878787878761196a565b50505050505050565b60606109ec826113d0565b610a2b576040517f08c379a0000000000000000000000000000000000000000000000000000000008152600401610a22906141e3565b60405180910390fd5b600260008381526020019081526020016000206001018054610a4c90614729565b80601f0160208091040260200160405190810160405280929190818152602001828054610a7890614729565b8015610ac55780601f10610a9a57610100808354040283529160200191610ac5565b820191906000526020600020905b815481529060010190602001808311610aa857829003601f168201915b50505050509050919050565b6002602052806000526040600020600091509050806000018054610af490614729565b80601f0160208091040260200160405190810160405280929190818152602001828054610b2090614729565b8015610b6d5780601f10610b4257610100808354040283529160200191610b6d565b820191906000526020600020905b815481529060010190602001808311610b5057829003601f168201915b505050505090806001018054610b8290614729565b80601f0160208091040260200160405190810160405280929190818152602001828054610bae90614729565b8015610bfb5780601f10610bd057610100808354040283529160200191610bfb565b820191906000526020600020905b815481529060010190602001808311610bde57829003601f168201915b505050505090806002018054610c1090614729565b80601f0160208091040260200160405190810160405280929190818152602001828054610c3c90614729565b8015610c895780601f10610c5e57610100808354040283529160200191610c89565b820191906000526020600020905b815481529060010190602001808311610c6c57829003601f168201915b5050505050908060030160009054906101000a900460ff16905084565b606060008383905067ffffffffffffffff811115610ced577f4e487b7100000000000000000000000000000000000000000000000000000000600052604160045260246000fd5b604051908082528060200260200182016040528015610d1b5781602001602082028036833780820191505090505b50905060005b84849050811015610dcb57610d7586868684818110610d69577f4e487b7100000000000000000000000000000000000000000000000000000000600052603260045260246000fd5b90506020020135611363565b828281518110610dae577f4e487b7100000000000000000000000000000000000000000000000000000000600052603260045260246000fd5b60200260200101818152505080610dc49061475b565b9050610d21565b50809150509392505050565b6003602052816000526040600020602052806000526040600020600091509150505481565b600060056000838152602001908152602001600020549050919050565b60056020528060005260406000206000915090505481565b6000610e588260016000868152602001908152602001600020611de790919063ffffffff16565b905092915050565b600080600084815260200190815260200160002060000160008373ffffffffffffffffffffffffffffffffffffffff1673ffffffffffffffffffffffffffffffffffffffff16815260200190815260200160002060009054906101000a900460ff16905092915050565b610efb7f8b16888c296865dbfb46a3f5241555370dc784c1a8890b825830bee0b73996df610ef66115bb565b610e60565b610f3a576040517f08c379a0000000000000000000000000000000000000000000000000000000008152600401610f3190614183565b60405180910390fd5b610f478585858585611e01565b5050505050565b7f8b16888c296865dbfb46a3f5241555370dc784c1a8890b825830bee0b73996df81565b60606004600083815260200190815260200160002060008481526020019081526020016000208054610fa390614729565b80601f0160208091040260200160405190810160405280929190818152602001828054610fcf90614729565b801561101c5780601f10610ff15761010080835404028352916020019161101c565b820191906000526020600020905b815481529060010190602001808311610fff57829003601f168201915b5050505050905092915050565b6060611034826113d0565b611073576040517f08c379a000000000000000000000000000000000000000000000000000000000815260040161106a90614223565b60405180910390fd5b600060026000848152602001908152602001600020600201805461109690614729565b80601f01602080910402602001604051908101604052809291908181526020018280546110c290614729565b801561110f5780601f106110e45761010080835404028352916020019161110f565b820191906000526020600020905b8154815290600101906020018083116110f257829003601f168201915b50505050509050600081511115611152578061112a84611fea565b60405160200161113b929190613ee5565b6040516020818303038152906040529150506111ac565b600061115c612197565b9050600081511161117c57604051806020016040528060008152506111a7565b8061118685611fea565b604051602001611197929190613ee5565b6040516020818303038152906040525b925050505b919050565b6000801b81565b6111e97f9f2df0fed2c77648de5860a4cc508cd0818c85b8b8a1ab4ceeef8d981c8956a66111e46115bb565b610e60565b611228576040517f08c379a000000000000000000000000000000000000000000000000000000000815260040161121f90614263565b60405180910390fd5b611234848484846121ae565b50505050565b600460205281600052604060002060205280600052604060002060009150915050805461126690614729565b80601f016020809104026020016040519081016040528092919081815260200182805461129290614729565b80156112df5780601f106112b4576101008083540402835291602001916112df565b820191906000526020600020905b8154815290600101906020018083116112c257829003601f168201915b505050505081565b600061130460016000848152602001908152602001600020612314565b9050919050565b7f9f2df0fed2c77648de5860a4cc508cd0818c85b8b8a1ab4ceeef8d981c8956a681565b6113398282612329565b61135e816001600085815260200190815260200160002061158b90919063ffffffff16565b505050565b600060036000838152602001908152602001600020600084815260200190815260200160002054905092915050565b61139c8282612352565b5050565b60006113c8836000018373ffffffffffffffffffffffffffffffffffffffff1660001b612432565b905092915050565b60006002600083815260200190815260200160002060030160009054906101000a900460ff169050919050565b60007f75205675000000000000000000000000000000000000000000000000000000007bffffffffffffffffffffffffffffffffffffffffffffffffffffffff1916827bffffffffffffffffffffffffffffffffffffffffffffffffffffffff191614806114c857507fd5298fa3000000000000000000000000000000000000000000000000000000007bffffffffffffffffffffffffffffffffffffffffffffffffffffffff1916827bffffffffffffffffffffffffffffffffffffffffffffffffffffffff1916145b806114d857506114d7826124a2565b5b9050919050565b6114e8826107b6565b6114f9816114f46115bb565b61251c565b6115038383612352565b505050565b6115106115bb565b73ffffffffffffffffffffffffffffffffffffffff168173ffffffffffffffffffffffffffffffffffffffff161461157d576040517f08c379a0000000000000000000000000000000000000000000000000000000008152600401611574906142e3565b60405180910390fd5b61158782826125b9565b5050565b60006115b3836000018373ffffffffffffffffffffffffffffffffffffffff1660001b61269a565b905092915050565b600033905090565b8251845114611607576040517f08c379a00000000000000000000000000000000000000000000000000000000081526004016115fe906142c3565b60405180910390fd5b815183511461164b576040517f08c379a000000000000000000000000000000000000000000000000000000000815260040161164290614243565b60405180910390fd5b805182511461168f576040517f08c379a000000000000000000000000000000000000000000000000000000000815260040161168690614203565b60405180910390fd5b60006116996115bb565b905060005b85518110156118fa576116f08682815181106116e3577f4e487b7100000000000000000000000000000000000000000000000000000000600052603260045260246000fd5b60200260200101516113d0565b15611730576040517f08c379a0000000000000000000000000000000000000000000000000000000008152600401611727906141a3565b60405180910390fd5b60006040518060800160405280878481518110611776577f4e487b7100000000000000000000000000000000000000000000000000000000600052603260045260246000fd5b602002602001015181526020018684815181106117bc577f4e487b7100000000000000000000000000000000000000000000000000000000600052603260045260246000fd5b60200260200101518152602001858481518110611802577f4e487b7100000000000000000000000000000000000000000000000000000000600052603260045260246000fd5b602002602001015181526020016001151581525090508060026000898581518110611856577f4e487b7100000000000000000000000000000000000000000000000000000000600052603260045260246000fd5b602002602001015181526020019081526020016000206000820151816000019080519060200190611888929190612d51565b5060208201518160010190805190602001906118a5929190612d51565b5060408201518160020190805190602001906118c2929190612d51565b5060608201518160030160006101000a81548160ff0219169083151502179055509050505080806118f29061475b565b91505061169e565b50846040516119099190613ece565b60405180910390208173ffffffffffffffffffffffffffffffffffffffff167fa564cb1998afa54a5836b472bb8181177cda6b9978d9291b84cc905926d507f586868660405161195b93929190613f5e565b60405180910390a35050505050565b60006119746115bb565b9050611a168160008a8a8a80806020026020016040519081016040528093929190818152602001838360200280828437600081840152601f19601f82011690508083019250505050505050898980806020026020016040519081016040528093929190818152602001838360200280828437600081840152601f19601f8201169050808301925050505050505060405180602001604052806000815250612820565b60005b87879050811015611d6f57611a6c888883818110611a60577f4e487b7100000000000000000000000000000000000000000000000000000000600052603260045260246000fd5b905060200201356113d0565b611aab576040517f08c379a0000000000000000000000000000000000000000000000000000000008152600401611aa2906141c3565b60405180910390fd5b6000600360008a8a85818110611aea577f4e487b7100000000000000000000000000000000000000000000000000000000600052603260045260246000fd5b90506020020135815260200190815260200160002060008b8152602001908152602001600020541415611b9157600660008a8152602001908152602001600020888883818110611b63577f4e487b7100000000000000000000000000000000000000000000000000000000600052603260045260246000fd5b9050602002013590806001815401808255809150506001900390600052602060002001600090919091909150555b6000848483818110611bcc577f4e487b7100000000000000000000000000000000000000000000000000000000600052603260045260246000fd5b9050602002810190611bde919061431e565b90501115611ca357838382818110611c1f577f4e487b7100000000000000000000000000000000000000000000000000000000600052603260045260246000fd5b9050602002810190611c31919061431e565b600460008b8b86818110611c6e577f4e487b7100000000000000000000000000000000000000000000000000000000600052603260045260246000fd5b90506020020135815260200190815260200160002060008c81526020019081526020016000209190611ca1929190612dd7565b505b858582818110611cdc577f4e487b7100000000000000000000000000000000000000000000000000000000600052603260045260246000fd5b90506020020135600360008a8a85818110611d20577f4e487b7100000000000000000000000000000000000000000000000000000000600052603260045260246000fd5b90506020020135815260200190815260200160002060008b81526020019081526020016000206000828254611d559190614503565b925050819055508080611d679061475b565b915050611a19565b508686604051611d80929190613eb5565b60405180910390208173ffffffffffffffffffffffffffffffffffffffff167fbfb4d8e5891aebe97980c97616b6b0af2006a58ccabe6e1b7e3da24d0906a85660008b8989604051611dd59493929190614024565b60405180910390a35050505050505050565b6000611df68360000183612828565b60001c905092915050565b611e0a846113d0565b611e49576040517f08c379a0000000000000000000000000000000000000000000000000000000008152600401611e4090614283565b60405180910390fd5b6000611e536115bb565b9050611e8381600088611e6589612879565b611e6e89612879565b60405180602001604052806000815250612820565b6000600360008781526020019081526020016000206000888152602001908152602001600020541415611f0f578115611ed357846005600088815260200190815260200160002081905550611f0e565b600660008781526020019081526020016000208590806001815401808255809150506001900390600052602060002001600090919091909150555b5b600083511115611f5357826004600087815260200190815260200160002060008881526020019081526020016000209080519060200190611f51929190612e5d565b505b836003600087815260200190815260200160002060008881526020019081526020016000206000828254611f879190614503565b92505081905550848173ffffffffffffffffffffffffffffffffffffffff167f73b5fbfbf0177b0de2ffe9fd0ae9887dd73d0d865db7ab5ff3c4a6b9bb8db1e360008988604051611fda93929190614064565b60405180910390a3505050505050565b60606000821415612032576040518060400160405280600181526020017f30000000000000000000000000000000000000000000000000000000000000008152509050612192565b600082905060005b6000821461206457808061204d9061475b565b915050600a8261205d9190614559565b915061203a565b60008167ffffffffffffffff8111156120a6577f4e487b7100000000000000000000000000000000000000000000000000000000600052604160045260246000fd5b6040519080825280601f01601f1916602001820160405280156120d85781602001600182028036833780820191505090505b5090505b6000851461218b576001826120f191906145e4565b9150600a8561210091906147a4565b603061210c9190614503565b60f81b818381518110612148577f4e487b7100000000000000000000000000000000000000000000000000000000600052603260045260246000fd5b60200101907effffffffffffffffffffffffffffffffffffffffffffffffffffffffffffff1916908160001a905350600a856121849190614559565b94506120dc565b8093505050505b919050565b606060405180602001604052806000815250905090565b6121b7846113d0565b156121f7576040517f08c379a00000000000000000000000000000000000000000000000000000000081526004016121ee906141a3565b60405180910390fd5b60006122016115bb565b9050600060405180608001604052808681526020018581526020018481526020016001151581525090508060026000888152602001908152602001600020600082015181600001908051906020019061225b929190612d51565b506020820151816001019080519060200190612278929190612d51565b506040820151816002019080519060200190612295929190612d51565b5060608201518160030160006101000a81548160ff021916908315150217905550905050858273ffffffffffffffffffffffffffffffffffffffff167f0f95c7b6e09a6cd1ff57e6238b940fa674ce6ce983d94900b6a8a6393929be3f878787604051612304939291906140bd565b60405180910390a3505050505050565b60006123228260000161293f565b9050919050565b612332826107b6565b6123438161233e6115bb565b61251c565b61234d83836125b9565b505050565b61235c8282610e60565b61242e57600160008084815260200190815260200160002060000160008373ffffffffffffffffffffffffffffffffffffffff1673ffffffffffffffffffffffffffffffffffffffff16815260200190815260200160002060006101000a81548160ff0219169083151502179055506123d36115bb565b73ffffffffffffffffffffffffffffffffffffffff168173ffffffffffffffffffffffffffffffffffffffff16837f2f8788117e7eff1d82e926ec794901d17c78024a50270940304540a733656f0d60405160405180910390a45b5050565b600061243e8383612950565b61249757826000018290806001815401808255809150506001900390600052602060002001600090919091909150558260000180549050836001016000848152602001908152602001600020819055506001905061249c565b600090505b92915050565b60007f5a05180f000000000000000000000000000000000000000000000000000000007bffffffffffffffffffffffffffffffffffffffffffffffffffffffff1916827bffffffffffffffffffffffffffffffffffffffffffffffffffffffff19161480612515575061251482612973565b5b9050919050565b6125268282610e60565b6125b55761254b8173ffffffffffffffffffffffffffffffffffffffff1660146129ed565b6125598360001c60206129ed565b60405160200161256a929190613f09565b6040516020818303038152906040526040517f08c379a00000000000000000000000000000000000000000000000000000000081526004016125ac919061409b565b60405180910390fd5b5050565b6125c38282610e60565b1561269657600080600084815260200190815260200160002060000160008373ffffffffffffffffffffffffffffffffffffffff1673ffffffffffffffffffffffffffffffffffffffff16815260200190815260200160002060006101000a81548160ff02191690831515021790555061263b6115bb565b73ffffffffffffffffffffffffffffffffffffffff168173ffffffffffffffffffffffffffffffffffffffff16837ff6391f5c32d9c69d2a47ea670b442974b53935d1edc7fd64eb21e047a839171b60405160405180910390a45b5050565b600080836001016000848152602001908152602001600020549050600081146128145760006001826126cc91906145e4565b90506000600186600001805490506126e491906145e4565b905081811461279f57600086600001828154811061272b577f4e487b7100000000000000000000000000000000000000000000000000000000600052603260045260246000fd5b9060005260206000200154905080876000018481548110612775577f4e487b7100000000000000000000000000000000000000000000000000000000600052603260045260246000fd5b90600052602060002001819055508387600101600083815260200190815260200160002081905550505b856000018054806127d9577f4e487b7100000000000000000000000000000000000000000000000000000000600052603160045260246000fd5b60019003818190600052602060002001600090559055856001016000868152602001908152602001600020600090556001935050505061281a565b60009150505b92915050565b505050505050565b6000826000018281548110612866577f4e487b7100000000000000000000000000000000000000000000000000000000600052603260045260246000fd5b9060005260206000200154905092915050565b60606000600167ffffffffffffffff8111156128be577f4e487b7100000000000000000000000000000000000000000000000000000000600052604160045260246000fd5b6040519080825280602002602001820160405280156128ec5781602001602082028036833780820191505090505b509050828160008151811061292a577f4e487b7100000000000000000000000000000000000000000000000000000000600052603260045260246000fd5b60200260200101818152505080915050919050565b600081600001805490509050919050565b600080836001016000848152602001908152602001600020541415905092915050565b60007f7965db0b000000000000000000000000000000000000000000000000000000007bffffffffffffffffffffffffffffffffffffffffffffffffffffffff1916827bffffffffffffffffffffffffffffffffffffffffffffffffffffffff191614806129e657506129e582612ce7565b5b9050919050565b606060006002836002612a00919061458a565b612a0a9190614503565b67ffffffffffffffff811115612a49577f4e487b7100000000000000000000000000000000000000000000000000000000600052604160045260246000fd5b6040519080825280601f01601f191660200182016040528015612a7b5781602001600182028036833780820191505090505b5090507f300000000000000000000000000000000000000000000000000000000000000081600081518110612ad9577f4e487b7100000000000000000000000000000000000000000000000000000000600052603260045260246000fd5b60200101907effffffffffffffffffffffffffffffffffffffffffffffffffffffffffffff1916908160001a9053507f780000000000000000000000000000000000000000000000000000000000000081600181518110612b63577f4e487b7100000000000000000000000000000000000000000000000000000000600052603260045260246000fd5b60200101907effffffffffffffffffffffffffffffffffffffffffffffffffffffffffffff1916908160001a90535060006001846002612ba3919061458a565b612bad9190614503565b90505b6001811115612c99577f3031323334353637383961626364656600000000000000000000000000000000600f861660108110612c15577f4e487b7100000000000000000000000000000000000000000000000000000000600052603260045260246000fd5b1a60f81b828281518110612c52577f4e487b7100000000000000000000000000000000000000000000000000000000600052603260045260246000fd5b60200101907effffffffffffffffffffffffffffffffffffffffffffffffffffffffffffff1916908160001a905350600485901c945080612c92906146ff565b9050612bb0565b5060008414612cdd576040517f08c379a0000000000000000000000000000000000000000000000000000000008152600401612cd490614163565b60405180910390fd5b8091505092915050565b60007f01ffc9a7000000000000000000000000000000000000000000000000000000007bffffffffffffffffffffffffffffffffffffffffffffffffffffffff1916827bffffffffffffffffffffffffffffffffffffffffffffffffffffffff1916149050919050565b828054612d5d90614729565b90600052602060002090601f016020900481019282612d7f5760008555612dc6565b82601f10612d9857805160ff1916838001178555612dc6565b82800160010185558215612dc6579182015b82811115612dc5578251825591602001919060010190612daa565b5b509050612dd39190612ee3565b5090565b828054612de390614729565b90600052602060002090601f016020900481019282612e055760008555612e4c565b82601f10612e1e57803560ff1916838001178555612e4c565b82800160010185558215612e4c579182015b82811115612e4b578235825591602001919060010190612e30565b5b509050612e599190612ee3565b5090565b828054612e6990614729565b90600052602060002090601f016020900481019282612e8b5760008555612ed2565b82601f10612ea457805160ff1916838001178555612ed2565b82800160010185558215612ed2579182015b82811115612ed1578251825591602001919060010190612eb6565b5b509050612edf9190612ee3565b5090565b5b80821115612efc576000816000905550600101612ee4565b5090565b6000612f13612f0e846143a6565b614375565b9050808382526020820190508260005b85811015612f535781358501612f398882613135565b845260208401935060208301925050600181019050612f23565b5050509392505050565b6000612f70612f6b846143d2565b614375565b905082815260208101848484011115612f8857600080fd5b612f938482856146bd565b509392505050565b6000612fae612fa984614402565b614375565b905082815260208101848484011115612fc657600080fd5b612fd18482856146bd565b509392505050565b600081359050612fe8816148a2565b92915050565b60008083601f84011261300057600080fd5b8235905067ffffffffffffffff81111561301957600080fd5b60208301915083602082028301111561303157600080fd5b9250929050565b60008083601f84011261304a57600080fd5b8235905067ffffffffffffffff81111561306357600080fd5b60208301915083602082028301111561307b57600080fd5b9250929050565b60008083601f84011261309457600080fd5b8235905067ffffffffffffffff8111156130ad57600080fd5b6020830191508360208202830111156130c557600080fd5b9250929050565b6000813590506130db816148b9565b92915050565b6000813590506130f0816148d0565b92915050565b600081359050613105816148e7565b92915050565b600082601f83011261311c57600080fd5b813561312c848260208601612f5d565b91505092915050565b600082601f83011261314657600080fd5b8135613156848260208601612f9b565b91505092915050565b60008135905061316e816148fe565b92915050565b6000806000806000806000806080898b03121561319057600080fd5b600089013567ffffffffffffffff8111156131aa57600080fd5b6131b68b828c01613082565b9850985050602089013567ffffffffffffffff8111156131d557600080fd5b6131e18b828c01613038565b9650965050604089013567ffffffffffffffff81111561320057600080fd5b61320c8b828c01613038565b9450945050606089013567ffffffffffffffff81111561322b57600080fd5b6132378b828c01613038565b92509250509295985092959890939650565b60006020828403121561325b57600080fd5b6000613269848285016130e1565b91505092915050565b6000806040838503121561328557600080fd5b6000613293858286016130e1565b92505060206132a485828601612fd9565b9150509250929050565b600080604083850312156132c157600080fd5b60006132cf858286016130e1565b92505060206132e08582860161315f565b9150509250929050565b6000602082840312156132fc57600080fd5b600061330a848285016130f6565b91505092915050565b60006020828403121561332557600080fd5b60006133338482850161315f565b91505092915050565b60008060006040848603121561335157600080fd5b600061335f8682870161315f565b935050602084013567ffffffffffffffff81111561337c57600080fd5b61338886828701613082565b92509250509250925092565b60008060008060008060006080888a0312156133af57600080fd5b60006133bd8a828b0161315f565b975050602088013567ffffffffffffffff8111156133da57600080fd5b6133e68a828b01613082565b9650965050604088013567ffffffffffffffff81111561340557600080fd5b6134118a828b01613082565b9450945050606088013567ffffffffffffffff81111561343057600080fd5b61343c8a828b01612fee565b925092505092959891949750929550565b6000806000806080858703121561346357600080fd5b60006134718782880161315f565b945050602085013567ffffffffffffffff81111561348e57600080fd5b61349a87828801613135565b935050604085013567ffffffffffffffff8111156134b757600080fd5b6134c387828801613135565b925050606085013567ffffffffffffffff8111156134e057600080fd5b6134ec87828801613135565b91505092959194509250565b6000806040838503121561350b57600080fd5b60006135198582860161315f565b925050602061352a8582860161315f565b9150509250929050565b600080600080600060a0868803121561354c57600080fd5b600061355a8882890161315f565b955050602061356b8882890161315f565b945050604061357c8882890161315f565b935050606086013567ffffffffffffffff81111561359957600080fd5b6135a58882890161310b565b92505060806135b6888289016130cc565b9150509295509295909350565b60006135cf838361385d565b905092915050565b60006135e38383613e88565b60208301905092915050565b60006135fb8383613ea6565b60208301905092915050565b61361081614618565b82525050565b600061362182614452565b61362b8185614498565b93508360208202850161363d85614432565b8060005b85811015613679578484038952815161365a85826135c3565b94506136658361447e565b925060208a01995050600181019050613641565b50829750879550505050505092915050565b600061369783856144a9565b93507f07ffffffffffffffffffffffffffffffffffffffffffffffffffffffffffffff8311156136c657600080fd5b6020830292506136d78385846146bd565b82840190509392505050565b60006136ef83856144ba565b93507f07ffffffffffffffffffffffffffffffffffffffffffffffffffffffffffffff83111561371e57600080fd5b60208302925061372f8385846146bd565b82840190509392505050565b60006137468261445d565b61375081856144a9565b935061375b83614442565b8060005b8381101561378c57815161377388826135d7565b975061377e8361448b565b92505060018101905061375f565b5085935050505092915050565b60006137a48261445d565b6137ae81856144ba565b93506137b983614442565b8060005b838110156137ea5781516137d188826135ef565b97506137dc8361448b565b9250506001810190506137bd565b5085935050505092915050565b6138008161462a565b82525050565b61380f81614636565b82525050565b600061382082614468565b61382a81856144c5565b935061383a8185602086016146cc565b61384381614891565b840191505092915050565b613857816146ab565b82525050565b600061386882614473565b61387281856144d6565b93506138828185602086016146cc565b61388b81614891565b840191505092915050565b60006138a182614473565b6138ab81856144e7565b93506138bb8185602086016146cc565b6138c481614891565b840191505092915050565b60006138da82614473565b6138e481856144f8565b93506138f48185602086016146cc565b80840191505092915050565b600061390d6020836144e7565b91507f537472696e67733a20686578206c656e67746820696e73756666696369656e746000830152602082019050919050565b600061394d602f836144e7565b91507f4552433336363447656e657269633a206d75737420686176652061747461636860008301527f20726f6c6520746f2061747461636800000000000000000000000000000000006020830152604082019050919050565b60006139b36021836144e7565b91507f455243333636343a2061747472696275746520616c726561647920657869737460008301527f73000000000000000000000000000000000000000000000000000000000000006020830152604082019050919050565b6000613a19602e836144e7565b91507f455243333636343a20626174636841747461636820666f72206e6f6e6578697360008301527f74656e74206174747269627574650000000000000000000000000000000000006020830152604082019050919050565b6000613a7f602f836144e7565b91507f455243333636343a2073796d626f6c20717565727920666f72206e6f6e65786960008301527f7374656e742061747472696275746500000000000000000000000000000000006020830152604082019050919050565b6000613ae56029836144e7565b91507f455243333636343a2073796d626f6c7320616e642075726973206c656e67746860008301527f206d69736d6174636800000000000000000000000000000000000000000000006020830152604082019050919050565b6000613b4b602c836144e7565b91507f455243333636343a2055524920717565727920666f72206e6f6e65786973746560008301527f6e742061747472696275746500000000000000000000000000000000000000006020830152604082019050919050565b6000613bb1602a836144e7565b91507f455243333636343a206e616d657320616e642073796d626f6c73206c656e677460008301527f68206d69736d61746368000000000000000000000000000000000000000000006020830152604082019050919050565b6000613c17602d836144e7565b91507f4552433336363447656e657269633a206d7573742068617665206d696e74657260008301527f20726f6c6520746f206d696e74000000000000000000000000000000000000006020830152604082019050919050565b6000613c7d6029836144e7565b91507f455243333636343a2061747461636820666f72206e6f6e6578697374656e742060008301527f61747472696275746500000000000000000000000000000000000000000000006020830152604082019050919050565b6000613ce36017836144f8565b91507f416363657373436f6e74726f6c3a206163636f756e74200000000000000000006000830152601782019050919050565b6000613d23602d836144e7565b91507f455243333636343a206e616d6520717565727920666f72206e6f6e657869737460008301527f656e7420617474726962757465000000000000000000000000000000000000006020830152604082019050919050565b6000613d89602a836144e7565b91507f455243333636343a206174747249647320616e64206e616d6573206c656e677460008301527f68206d69736d61746368000000000000000000000000000000000000000000006020830152604082019050919050565b6000613def6011836144f8565b91507f206973206d697373696e6720726f6c65200000000000000000000000000000006000830152601182019050919050565b6000613e2f602f836144e7565b91507f416363657373436f6e74726f6c3a2063616e206f6e6c792072656e6f756e636560008301527f20726f6c657320666f722073656c6600000000000000000000000000000000006020830152604082019050919050565b613e918161468c565b82525050565b613ea08161468c565b82525050565b613eaf8161468c565b82525050565b6000613ec28284866136e3565b91508190509392505050565b6000613eda8284613799565b915081905092915050565b6000613ef182856138cf565b9150613efd82846138cf565b91508190509392505050565b6000613f1482613cd6565b9150613f2082856138cf565b9150613f2b82613de2565b9150613f3782846138cf565b91508190509392505050565b6000602082019050613f586000830184613607565b92915050565b60006060820190508181036000830152613f788186613616565b90508181036020830152613f8c8185613616565b90508181036040830152613fa08184613616565b9050949350505050565b60006020820190508181036000830152613fc4818461373b565b905092915050565b6000602082019050613fe160008301846137f7565b92915050565b6000602082019050613ffc6000830184613806565b92915050565b6000602082019050818103600083015261401c8184613815565b905092915050565b6000606082019050614039600083018761384e565b6140466020830186613e97565b818103604083015261405981848661368b565b905095945050505050565b6000606082019050614079600083018661384e565b6140866020830185613e97565b6140936040830184613e97565b949350505050565b600060208201905081810360008301526140b58184613896565b905092915050565b600060608201905081810360008301526140d78186613896565b905081810360208301526140eb8185613896565b905081810360408301526140ff8184613896565b9050949350505050565b600060808201905081810360008301526141238187613896565b905081810360208301526141378186613896565b9050818103604083015261414b8185613896565b905061415a60608301846137f7565b95945050505050565b6000602082019050818103600083015261417c81613900565b9050919050565b6000602082019050818103600083015261419c81613940565b9050919050565b600060208201905081810360008301526141bc816139a6565b9050919050565b600060208201905081810360008301526141dc81613a0c565b9050919050565b600060208201905081810360008301526141fc81613a72565b9050919050565b6000602082019050818103600083015261421c81613ad8565b9050919050565b6000602082019050818103600083015261423c81613b3e565b9050919050565b6000602082019050818103600083015261425c81613ba4565b9050919050565b6000602082019050818103600083015261427c81613c0a565b9050919050565b6000602082019050818103600083015261429c81613c70565b9050919050565b600060208201905081810360008301526142bc81613d16565b9050919050565b600060208201905081810360008301526142dc81613d7c565b9050919050565b600060208201905081810360008301526142fc81613e22565b9050919050565b60006020820190506143186000830184613e97565b92915050565b6000808335600160200384360303811261433757600080fd5b80840192508235915067ffffffffffffffff82111561435557600080fd5b60208301925060018202360383131561436d57600080fd5b509250929050565b6000604051905081810181811067ffffffffffffffff8211171561439c5761439b614862565b5b8060405250919050565b600067ffffffffffffffff8211156143c1576143c0614862565b5b602082029050602081019050919050565b600067ffffffffffffffff8211156143ed576143ec614862565b5b601f19601f8301169050602081019050919050565b600067ffffffffffffffff82111561441d5761441c614862565b5b601f19601f8301169050602081019050919050565b6000819050602082019050919050565b6000819050602082019050919050565b600081519050919050565b600081519050919050565b600081519050919050565b600081519050919050565b6000602082019050919050565b6000602082019050919050565b600082825260208201905092915050565b600082825260208201905092915050565b600081905092915050565b600082825260208201905092915050565b600082825260208201905092915050565b600082825260208201905092915050565b600081905092915050565b600061450e8261468c565b91506145198361468c565b9250827fffffffffffffffffffffffffffffffffffffffffffffffffffffffffffffffff0382111561454e5761454d6147d5565b5b828201905092915050565b60006145648261468c565b915061456f8361468c565b92508261457f5761457e614804565b5b828204905092915050565b60006145958261468c565b91506145a08361468c565b9250817fffffffffffffffffffffffffffffffffffffffffffffffffffffffffffffffff04831182151516156145d9576145d86147d5565b5b828202905092915050565b60006145ef8261468c565b91506145fa8361468c565b92508282101561460d5761460c6147d5565b5b828203905092915050565b60006146238261466c565b9050919050565b60008115159050919050565b6000819050919050565b60007fffffffff0000000000000000000000000000000000000000000000000000000082169050919050565b600073ffffffffffffffffffffffffffffffffffffffff82169050919050565b6000819050919050565b60006146a3368484612f00565b905092915050565b60006146b68261468c565b9050919050565b82818337600083830152505050565b60005b838110156146ea5780820151818401526020810190506146cf565b838111156146f9576000848401525b50505050565b600061470a8261468c565b9150600082141561471e5761471d6147d5565b5b600182039050919050565b6000600282049050600182168061474157607f821691505b6020821081141561475557614754614833565b5b50919050565b60006147668261468c565b91507fffffffffffffffffffffffffffffffffffffffffffffffffffffffffffffffff821415614799576147986147d5565b5b600182019050919050565b60006147af8261468c565b91506147ba8361468c565b9250826147ca576147c9614804565b5b828206905092915050565b7f4e487b7100000000000000000000000000000000000000000000000000000000600052601160045260246000fd5b7f4e487b7100000000000000000000000000000000000000000000000000000000600052601260045260246000fd5b7f4e487b7100000000000000000000000000000000000000000000000000000000600052602260045260246000fd5b7f4e487b7100000000000000000000000000000000000000000000000000000000600052604160045260246000fd5b6000601f19601f8301169050919050565b6148ab81614618565b81146148b657600080fd5b50565b6148c28161462a565b81146148cd57600080fd5b50565b6148d981614636565b81146148e457600080fd5b50565b6148f081614640565b81146148fb57600080fd5b50565b6149078161468c565b811461491257600080fd5b5056fea2646970667358221220f9b4ef07e1407cf2f34fad4eb5fa387656afca261ed5eb37a4a91c87d58ba97664736f6c63430008000033",
  "immutableReferences": {},
  "source": "// SPDX-License-Identifier: MIT\r\n\r\npragma solidity ^0.8.0;\r\n\r\nimport \"openzeppelin-solidity/contracts/utils/Context.sol\";\r\nimport \"openzeppelin-solidity/contracts/access/AccessControlEnumerable.sol\";\r\nimport \"../ERC3664.sol\";\r\n\r\ncontract ERC3664Generic is Context, AccessControlEnumerable, ERC3664 {\r\n    bytes32 public constant MINTER_ROLE = keccak256(\"MINTER_ROLE\");\r\n    bytes32 public constant ATTACH_ROLE = keccak256(\"ATTACH_ROLE\");\r\n\r\n    constructor() ERC3664() {\r\n        _setupRole(DEFAULT_ADMIN_ROLE, _msgSender());\r\n\r\n        _setupRole(MINTER_ROLE, _msgSender());\r\n        _setupRole(ATTACH_ROLE, _msgSender());\r\n    }\r\n\r\n    /**\r\n     * @dev Mint new attribute type with metadata.\r\n     *\r\n     * See {ERC3664-_mint}.\r\n     */\r\n    function mint(\r\n        uint256 attrId,\r\n        string memory _name,\r\n        string memory _symbol,\r\n        string memory _uri\r\n    ) public virtual {\r\n        require(\r\n            hasRole(MINTER_ROLE, _msgSender()),\r\n            \"ERC3664Generic: must have minter role to mint\"\r\n        );\r\n\r\n        _mint(attrId, _name, _symbol, _uri);\r\n    }\r\n\r\n    /**\r\n     * @dev [Batched] version of {mint}.\r\n     */\r\n    function mintBatch(\r\n        uint256[] calldata attrIds,\r\n        string[] calldata names,\r\n        string[] calldata symbols,\r\n        string[] calldata uris\r\n    ) public virtual {\r\n        require(\r\n            hasRole(MINTER_ROLE, _msgSender()),\r\n            \"ERC3664Generic: must have minter role to mint\"\r\n        );\r\n\r\n        _mintBatch(attrIds, names, symbols, uris);\r\n    }\r\n\r\n    /**\r\n     * @dev See {ERC3664-attach}.\r\n     */\r\n    function attach(\r\n        uint256 tokenId,\r\n        uint256 attrId,\r\n        uint256 amount,\r\n        bytes memory text,\r\n        bool isPrimary\r\n    ) public virtual override {\r\n        require(\r\n            hasRole(ATTACH_ROLE, _msgSender()),\r\n            \"ERC3664Generic: must have attach role to attach\"\r\n        );\r\n\r\n        super.attach(tokenId, attrId, amount, text, isPrimary);\r\n    }\r\n\r\n    /**\r\n     * @dev See {ERC3664-batchAttach}.\r\n     */\r\n    function batchAttach(\r\n        uint256 tokenId,\r\n        uint256[] calldata attrIds,\r\n        uint256[] calldata amounts,\r\n        bytes[] calldata texts\r\n    ) public virtual override {\r\n        require(\r\n            hasRole(ATTACH_ROLE, _msgSender()),\r\n            \"ERC3664Generic: must have attach role to attach\"\r\n        );\r\n\r\n        super.batchAttach(tokenId, attrIds, amounts, texts);\r\n    }\r\n\r\n    /**\r\n     * @dev See {IERC165-supportsInterface}.\r\n     */\r\n    function supportsInterface(bytes4 interfaceId)\r\n        public\r\n        view\r\n        virtual\r\n        override(AccessControlEnumerable, ERC3664)\r\n        returns (bool)\r\n    {\r\n        return super.supportsInterface(interfaceId);\r\n    }\r\n}\r\n",
  "sourcePath": "D:\\MetaNFT\\MetaNFT\\contracts\\ERC3664\\extensions\\ERC3664Generic.sol",
  "compiler": {
    "name": "solc",
    "version": "0.8.0+commit.c7dfd78e.Emscripten.clang"
  },
  "schemaVersion": "3.4.3",
  "updatedAt": "2021-09-22T09:26:13.412Z",
  "devdoc": {
    "kind": "dev",
    "methods": {
      "attach(uint256,uint256,uint256,bytes,bool)": {
        "details": "See {ERC3664-attach}."
      },
      "attrURI(uint256)": {
        "details": "See {IERC721Metadata-attrURI}."
      },
      "attributesOf(uint256)": {
        "details": "See {IERC3664-attributesOf}."
      },
      "balanceOf(uint256,uint256)": {
        "details": "See {IERC3664-balanceOf}."
      },
      "balanceOfBatch(uint256,uint256[])": {
        "details": "See {IERC3664-balanceOfBatch}."
      },
      "batchAttach(uint256,uint256[],uint256[],bytes[])": {
        "details": "See {ERC3664-batchAttach}."
      },
      "getRoleAdmin(bytes32)": {
        "details": "Returns the admin role that controls `role`. See {grantRole} and {revokeRole}. To change a role's admin, use {_setRoleAdmin}."
      },
      "getRoleMember(bytes32,uint256)": {
        "details": "Returns one of the accounts that have `role`. `index` must be a value between 0 and {getRoleMemberCount}, non-inclusive. Role bearers are not sorted in any particular way, and their ordering may change at any point. WARNING: When using {getRoleMember} and {getRoleMemberCount}, make sure you perform all queries on the same block. See the following https://forum.openzeppelin.com/t/iterating-over-elements-on-enumerableset-in-openzeppelin-contracts/2296[forum post] for more information."
      },
      "getRoleMemberCount(bytes32)": {
        "details": "Returns the number of accounts that have `role`. Can be used together with {getRoleMember} to enumerate all bearers of a role."
      },
      "grantRole(bytes32,address)": {
        "details": "Overload {grantRole} to track enumerable memberships"
      },
      "hasRole(bytes32,address)": {
        "details": "Returns `true` if `account` has been granted `role`."
      },
      "mint(uint256,string,string,string)": {
        "details": "Mint new attribute type with metadata. See {ERC3664-_mint}."
      },
      "mintBatch(uint256[],string[],string[],string[])": {
        "details": "[Batched] version of {mint}."
      },
      "name(uint256)": {
        "details": "See {IERC3664Metadata-name}."
      },
      "primaryAttributeOf(uint256)": {
        "details": "Returns primary attribute type of owned by `tokenId`."
      },
      "renounceRole(bytes32,address)": {
        "details": "Overload {renounceRole} to track enumerable memberships"
      },
      "revokeRole(bytes32,address)": {
        "details": "Overload {revokeRole} to track enumerable memberships"
      },
      "supportsInterface(bytes4)": {
        "details": "See {IERC165-supportsInterface}."
      },
      "symbol(uint256)": {
        "details": "See {IERC3664Metadata-symbol}."
      },
      "textOf(uint256,uint256)": {
        "details": "See {IERC3664-textOf}."
      }
    },
    "version": 1
  },
  "userdoc": {
    "kind": "user",
    "methods": {},
    "version": 1
  }
}