{
  "contractName": "ERC3664Transferable",
  "abi": [
    {
      "inputs": [
        {
          "internalType": "address",
          "name": "nft",
          "type": "address"
        }
      ],
      "stateMutability": "nonpayable",
      "type": "constructor"
    },
    {
      "anonymous": false,
      "inputs": [
        {
          "indexed": true,
          "internalType": "address",
          "name": "operator",
          "type": "address"
        },
        {
          "indexed": false,
          "internalType": "uint256",
          "name": "from",
          "type": "uint256"
        },
        {
          "indexed": false,
          "internalType": "uint256",
          "name": "to",
          "type": "uint256"
        },
        {
          "indexed": false,
          "internalType": "uint256",
          "name": "attrId",
          "type": "uint256"
        }
      ],
      "name": "AttributeApproval",
      "type": "event"
    },
    {
      "anonymous": false,
      "inputs": [
        {
          "indexed": true,
          "internalType": "address",
          "name": "operator",
          "type": "address"
        },
        {
          "indexed": true,
          "internalType": "uint256",
          "name": "attrId",
          "type": "uint256"
        },
        {
          "indexed": false,
          "internalType": "string",
          "name": "name",
          "type": "string"
        },
        {
          "indexed": false,
          "internalType": "string",
          "name": "symbol",
          "type": "string"
        },
        {
          "indexed": false,
          "internalType": "string",
          "name": "uri",
          "type": "string"
        }
      ],
      "name": "NewAttribute",
      "type": "event"
    },
    {
      "anonymous": false,
      "inputs": [
        {
          "indexed": true,
          "internalType": "address",
          "name": "operator",
          "type": "address"
        },
        {
          "indexed": true,
          "internalType": "uint256[]",
          "name": "attrIds",
          "type": "uint256[]"
        },
        {
          "indexed": false,
          "internalType": "string[]",
          "name": "names",
          "type": "string[]"
        },
        {
          "indexed": false,
          "internalType": "string[]",
          "name": "symbols",
          "type": "string[]"
        },
        {
          "indexed": false,
          "internalType": "string[]",
          "name": "uris",
          "type": "string[]"
        }
      ],
      "name": "NewAttributeBatch",
      "type": "event"
    },
    {
      "anonymous": false,
      "inputs": [
        {
          "indexed": true,
          "internalType": "bytes32",
          "name": "role",
          "type": "bytes32"
        },
        {
          "indexed": true,
          "internalType": "bytes32",
          "name": "previousAdminRole",
          "type": "bytes32"
        },
        {
          "indexed": true,
          "internalType": "bytes32",
          "name": "newAdminRole",
          "type": "bytes32"
        }
      ],
      "name": "RoleAdminChanged",
      "type": "event"
    },
    {
      "anonymous": false,
      "inputs": [
        {
          "indexed": true,
          "internalType": "bytes32",
          "name": "role",
          "type": "bytes32"
        },
        {
          "indexed": true,
          "internalType": "address",
          "name": "account",
          "type": "address"
        },
        {
          "indexed": true,
          "internalType": "address",
          "name": "sender",
          "type": "address"
        }
      ],
      "name": "RoleGranted",
      "type": "event"
    },
    {
      "anonymous": false,
      "inputs": [
        {
          "indexed": true,
          "internalType": "bytes32",
          "name": "role",
          "type": "bytes32"
        },
        {
          "indexed": true,
          "internalType": "address",
          "name": "account",
          "type": "address"
        },
        {
          "indexed": true,
          "internalType": "address",
          "name": "sender",
          "type": "address"
        }
      ],
      "name": "RoleRevoked",
      "type": "event"
    },
    {
      "anonymous": false,
      "inputs": [
        {
          "indexed": true,
          "internalType": "address",
          "name": "operator",
          "type": "address"
        },
        {
          "indexed": false,
          "internalType": "uint256",
          "name": "from",
          "type": "uint256"
        },
        {
          "indexed": false,
          "internalType": "uint256",
          "name": "to",
          "type": "uint256"
        },
        {
          "indexed": true,
          "internalType": "uint256[]",
          "name": "attrIds",
          "type": "uint256[]"
        },
        {
          "indexed": false,
          "internalType": "uint256[]",
          "name": "values",
          "type": "uint256[]"
        }
      ],
      "name": "TransferBatch",
      "type": "event"
    },
    {
      "anonymous": false,
      "inputs": [
        {
          "indexed": true,
          "internalType": "address",
          "name": "operator",
          "type": "address"
        },
        {
          "indexed": false,
          "internalType": "uint256",
          "name": "from",
          "type": "uint256"
        },
        {
          "indexed": false,
          "internalType": "uint256",
          "name": "to",
          "type": "uint256"
        },
        {
          "indexed": true,
          "internalType": "uint256",
          "name": "attrId",
          "type": "uint256"
        },
        {
          "indexed": false,
          "internalType": "uint256",
          "name": "value",
          "type": "uint256"
        }
      ],
      "name": "TransferSingle",
      "type": "event"
    },
    {
      "inputs": [],
      "name": "ATTACH_ROLE",
      "outputs": [
        {
          "internalType": "bytes32",
          "name": "",
          "type": "bytes32"
        }
      ],
      "stateMutability": "view",
      "type": "function"
    },
    {
      "inputs": [],
      "name": "DEFAULT_ADMIN_ROLE",
      "outputs": [
        {
          "internalType": "bytes32",
          "name": "",
          "type": "bytes32"
        }
      ],
      "stateMutability": "view",
      "type": "function"
    },
    {
      "inputs": [],
      "name": "MINTER_ROLE",
      "outputs": [
        {
          "internalType": "bytes32",
          "name": "",
          "type": "bytes32"
        }
      ],
      "stateMutability": "view",
      "type": "function"
    },
    {
      "inputs": [],
      "name": "TRANSFER_ROLE",
      "outputs": [
        {
          "internalType": "bytes32",
          "name": "",
          "type": "bytes32"
        }
      ],
      "stateMutability": "view",
      "type": "function"
    },
    {
      "inputs": [
        {
          "internalType": "uint256",
          "name": "",
          "type": "uint256"
        }
      ],
      "name": "_attrMetadatas",
      "outputs": [
        {
          "internalType": "string",
          "name": "name",
          "type": "string"
        },
        {
          "internalType": "string",
          "name": "symbol",
          "type": "string"
        },
        {
          "internalType": "string",
          "name": "uri",
          "type": "string"
        },
        {
          "internalType": "bool",
          "name": "exist",
          "type": "bool"
        }
      ],
      "stateMutability": "view",
      "type": "function"
    },
    {
      "inputs": [
        {
          "internalType": "uint256",
          "name": "",
          "type": "uint256"
        },
        {
          "internalType": "uint256",
          "name": "",
          "type": "uint256"
        }
      ],
      "name": "_balances",
      "outputs": [
        {
          "internalType": "uint256",
          "name": "",
          "type": "uint256"
        }
      ],
      "stateMutability": "view",
      "type": "function"
    },
    {
      "inputs": [
        {
          "internalType": "uint256",
          "name": "",
          "type": "uint256"
        },
        {
          "internalType": "uint256",
          "name": "",
          "type": "uint256"
        }
      ],
      "name": "_texts",
      "outputs": [
        {
          "internalType": "bytes",
          "name": "",
          "type": "bytes"
        }
      ],
      "stateMutability": "view",
      "type": "function"
    },
    {
      "inputs": [
        {
          "internalType": "uint256",
          "name": "tokenId",
          "type": "uint256"
        },
        {
          "internalType": "uint256",
          "name": "attrId",
          "type": "uint256"
        },
        {
          "internalType": "uint256",
          "name": "amount",
          "type": "uint256"
        },
        {
          "internalType": "bytes",
          "name": "text",
          "type": "bytes"
        },
        {
          "internalType": "bool",
          "name": "isPrimary",
          "type": "bool"
        }
      ],
      "name": "attach",
      "outputs": [],
      "stateMutability": "nonpayable",
      "type": "function"
    },
    {
      "inputs": [
        {
          "internalType": "uint256",
          "name": "attrId",
          "type": "uint256"
        }
      ],
      "name": "attrURI",
      "outputs": [
        {
          "internalType": "string",
          "name": "",
          "type": "string"
        }
      ],
      "stateMutability": "view",
      "type": "function"
    },
    {
      "inputs": [
        {
          "internalType": "uint256",
          "name": "tokenId",
          "type": "uint256"
        }
      ],
      "name": "attributesOf",
      "outputs": [
        {
          "internalType": "uint256[]",
          "name": "",
          "type": "uint256[]"
        }
      ],
      "stateMutability": "view",
      "type": "function"
    },
    {
      "inputs": [
        {
          "internalType": "uint256",
          "name": "tokenId",
          "type": "uint256"
        },
        {
          "internalType": "uint256",
          "name": "attrId",
          "type": "uint256"
        }
      ],
      "name": "balanceOf",
      "outputs": [
        {
          "internalType": "uint256",
          "name": "",
          "type": "uint256"
        }
      ],
      "stateMutability": "view",
      "type": "function"
    },
    {
      "inputs": [
        {
          "internalType": "uint256",
          "name": "tokenId",
          "type": "uint256"
        },
        {
          "internalType": "uint256[]",
          "name": "attrIds",
          "type": "uint256[]"
        }
      ],
      "name": "balanceOfBatch",
      "outputs": [
        {
          "internalType": "uint256[]",
          "name": "",
          "type": "uint256[]"
        }
      ],
      "stateMutability": "view",
      "type": "function"
    },
    {
      "inputs": [
        {
          "internalType": "uint256",
          "name": "tokenId",
          "type": "uint256"
        },
        {
          "internalType": "uint256[]",
          "name": "attrIds",
          "type": "uint256[]"
        },
        {
          "internalType": "uint256[]",
          "name": "amounts",
          "type": "uint256[]"
        },
        {
          "internalType": "bytes[]",
          "name": "texts",
          "type": "bytes[]"
        }
      ],
      "name": "batchAttach",
      "outputs": [],
      "stateMutability": "nonpayable",
      "type": "function"
    },
    {
      "inputs": [
        {
          "internalType": "bytes32",
          "name": "role",
          "type": "bytes32"
        }
      ],
      "name": "getRoleAdmin",
      "outputs": [
        {
          "internalType": "bytes32",
          "name": "",
          "type": "bytes32"
        }
      ],
      "stateMutability": "view",
      "type": "function"
    },
    {
      "inputs": [
        {
          "internalType": "bytes32",
          "name": "role",
          "type": "bytes32"
        },
        {
          "internalType": "uint256",
          "name": "index",
          "type": "uint256"
        }
      ],
      "name": "getRoleMember",
      "outputs": [
        {
          "internalType": "address",
          "name": "",
          "type": "address"
        }
      ],
      "stateMutability": "view",
      "type": "function"
    },
    {
      "inputs": [
        {
          "internalType": "bytes32",
          "name": "role",
          "type": "bytes32"
        }
      ],
      "name": "getRoleMemberCount",
      "outputs": [
        {
          "internalType": "uint256",
          "name": "",
          "type": "uint256"
        }
      ],
      "stateMutability": "view",
      "type": "function"
    },
    {
      "inputs": [
        {
          "internalType": "bytes32",
          "name": "role",
          "type": "bytes32"
        },
        {
          "internalType": "address",
          "name": "account",
          "type": "address"
        }
      ],
      "name": "grantRole",
      "outputs": [],
      "stateMutability": "nonpayable",
      "type": "function"
    },
    {
      "inputs": [
        {
          "internalType": "bytes32",
          "name": "role",
          "type": "bytes32"
        },
        {
          "internalType": "address",
          "name": "account",
          "type": "address"
        }
      ],
      "name": "hasRole",
      "outputs": [
        {
          "internalType": "bool",
          "name": "",
          "type": "bool"
        }
      ],
      "stateMutability": "view",
      "type": "function"
    },
    {
      "inputs": [
        {
          "internalType": "uint256",
          "name": "attrId",
          "type": "uint256"
        },
        {
          "internalType": "string",
          "name": "_name",
          "type": "string"
        },
        {
          "internalType": "string",
          "name": "_symbol",
          "type": "string"
        },
        {
          "internalType": "string",
          "name": "_uri",
          "type": "string"
        }
      ],
      "name": "mint",
      "outputs": [],
      "stateMutability": "nonpayable",
      "type": "function"
    },
    {
      "inputs": [
        {
          "internalType": "uint256[]",
          "name": "attrIds",
          "type": "uint256[]"
        },
        {
          "internalType": "string[]",
          "name": "names",
          "type": "string[]"
        },
        {
          "internalType": "string[]",
          "name": "symbols",
          "type": "string[]"
        },
        {
          "internalType": "string[]",
          "name": "uris",
          "type": "string[]"
        }
      ],
      "name": "mintBatch",
      "outputs": [],
      "stateMutability": "nonpayable",
      "type": "function"
    },
    {
      "inputs": [
        {
          "internalType": "uint256",
          "name": "attrId",
          "type": "uint256"
        }
      ],
      "name": "name",
      "outputs": [
        {
          "internalType": "string",
          "name": "",
          "type": "string"
        }
      ],
      "stateMutability": "view",
      "type": "function"
    },
    {
      "inputs": [
        {
          "internalType": "uint256",
          "name": "tokenId",
          "type": "uint256"
        }
      ],
      "name": "primaryAttributeOf",
      "outputs": [
        {
          "internalType": "uint256",
          "name": "",
          "type": "uint256"
        }
      ],
      "stateMutability": "view",
      "type": "function"
    },
    {
      "inputs": [
        {
          "internalType": "uint256",
          "name": "",
          "type": "uint256"
        }
      ],
      "name": "primaryAttrs",
      "outputs": [
        {
          "internalType": "uint256",
          "name": "",
          "type": "uint256"
        }
      ],
      "stateMutability": "view",
      "type": "function"
    },
    {
      "inputs": [
        {
          "internalType": "bytes32",
          "name": "role",
          "type": "bytes32"
        },
        {
          "internalType": "address",
          "name": "account",
          "type": "address"
        }
      ],
      "name": "renounceRole",
      "outputs": [],
      "stateMutability": "nonpayable",
      "type": "function"
    },
    {
      "inputs": [
        {
          "internalType": "bytes32",
          "name": "role",
          "type": "bytes32"
        },
        {
          "internalType": "address",
          "name": "account",
          "type": "address"
        }
      ],
      "name": "revokeRole",
      "outputs": [],
      "stateMutability": "nonpayable",
      "type": "function"
    },
    {
      "inputs": [
        {
          "internalType": "uint256",
          "name": "",
          "type": "uint256"
        },
        {
          "internalType": "uint256",
          "name": "",
          "type": "uint256"
        }
      ],
      "name": "secondaryAttrs",
      "outputs": [
        {
          "internalType": "uint256",
          "name": "",
          "type": "uint256"
        }
      ],
      "stateMutability": "view",
      "type": "function"
    },
    {
      "inputs": [
        {
          "internalType": "bytes4",
          "name": "interfaceId",
          "type": "bytes4"
        }
      ],
      "name": "supportsInterface",
      "outputs": [
        {
          "internalType": "bool",
          "name": "",
          "type": "bool"
        }
      ],
      "stateMutability": "view",
      "type": "function"
    },
    {
      "inputs": [
        {
          "internalType": "uint256",
          "name": "attrId",
          "type": "uint256"
        }
      ],
      "name": "symbol",
      "outputs": [
        {
          "internalType": "string",
          "name": "",
          "type": "string"
        }
      ],
      "stateMutability": "view",
      "type": "function"
    },
    {
      "inputs": [
        {
          "internalType": "uint256",
          "name": "tokenId",
          "type": "uint256"
        },
        {
          "internalType": "uint256",
          "name": "attrId",
          "type": "uint256"
        }
      ],
      "name": "textOf",
      "outputs": [
        {
          "internalType": "bytes",
          "name": "",
          "type": "bytes"
        }
      ],
      "stateMutability": "view",
      "type": "function"
    },
    {
      "inputs": [
        {
          "internalType": "uint256",
          "name": "from",
          "type": "uint256"
        },
        {
          "internalType": "uint256",
          "name": "to",
          "type": "uint256"
        },
        {
          "internalType": "uint256",
          "name": "attrId",
          "type": "uint256"
        }
      ],
      "name": "isApproved",
      "outputs": [
        {
          "internalType": "bool",
          "name": "",
          "type": "bool"
        }
      ],
      "stateMutability": "view",
      "type": "function"
    },
    {
      "inputs": [
        {
          "internalType": "uint256",
          "name": "from",
          "type": "uint256"
        },
        {
          "internalType": "uint256",
          "name": "to",
          "type": "uint256"
        },
        {
          "internalType": "uint256",
          "name": "attrId",
          "type": "uint256"
        }
      ],
      "name": "approve",
      "outputs": [],
      "stateMutability": "nonpayable",
      "type": "function"
    },
    {
      "inputs": [
        {
          "internalType": "uint256",
          "name": "from",
          "type": "uint256"
        },
        {
          "internalType": "uint256",
          "name": "to",
          "type": "uint256"
        },
        {
          "internalType": "uint256",
          "name": "attrId",
          "type": "uint256"
        }
      ],
      "name": "transferFrom",
      "outputs": [],
      "stateMutability": "nonpayable",
      "type": "function"
    }
  ],
  "bytecode": "0x60806040523480156200001157600080fd5b506040516200596738038062005967833981810160405281019062000037919062000413565b6200005b6000801b6200004f6200016660201b60201c565b6200016e60201b60201c565b6200009c7f9f2df0fed2c77648de5860a4cc508cd0818c85b8b8a1ab4ceeef8d981c8956a6620000906200016660201b60201c565b6200016e60201b60201c565b620000dd7f8b16888c296865dbfb46a3f5241555370dc784c1a8890b825830bee0b73996df620000d16200016660201b60201c565b6200016e60201b60201c565b80600860006101000a81548173ffffffffffffffffffffffffffffffffffffffff021916908373ffffffffffffffffffffffffffffffffffffffff1602179055506200015f7f8502233096d909befbda0999bb8ea2f3a6be3c138b9fbf003752a4c8bce86f6c620001536200016660201b60201c565b6200016e60201b60201c565b506200048d565b600033905090565b620001858282620001b660201b62001a261760201c565b620001b18160016000858152602001908152602001600020620001cc60201b62001a341790919060201c565b505050565b620001c882826200020460201b60201c565b5050565b6000620001fc836000018373ffffffffffffffffffffffffffffffffffffffff1660001b620002f560201b60201c565b905092915050565b6200021682826200036f60201b60201c565b620002f157600160008084815260200190815260200160002060000160008373ffffffffffffffffffffffffffffffffffffffff1673ffffffffffffffffffffffffffffffffffffffff16815260200190815260200160002060006101000a81548160ff021916908315150217905550620002966200016660201b60201c565b73ffffffffffffffffffffffffffffffffffffffff168173ffffffffffffffffffffffffffffffffffffffff16837f2f8788117e7eff1d82e926ec794901d17c78024a50270940304540a733656f0d60405160405180910390a45b5050565b6000620003098383620003d960201b60201c565b6200036457826000018290806001815401808255809150506001900390600052602060002001600090919091909150558260000180549050836001016000848152602001908152602001600020819055506001905062000369565b600090505b92915050565b600080600084815260200190815260200160002060000160008373ffffffffffffffffffffffffffffffffffffffff1673ffffffffffffffffffffffffffffffffffffffff16815260200190815260200160002060009054906101000a900460ff16905092915050565b600080836001016000848152602001908152602001600020541415905092915050565b6000815190506200040d8162000473565b92915050565b6000602082840312156200042657600080fd5b60006200043684828501620003fc565b91505092915050565b60006200044c8262000453565b9050919050565b600073ffffffffffffffffffffffffffffffffffffffff82169050919050565b6200047e816200043f565b81146200048a57600080fd5b50565b6154ca806200049d6000396000f3fe608060405234801561001057600080fd5b50600436106101ef5760003560e01c806387e21d421161010f578063a217fddf116100a2578063ca15c87311610071578063ca15c87314610661578063d539139314610691578063d547741f146106af578063ea699633146106cb576101ef565b8063a217fddf146105db578063acdd1454146105f9578063b866c8a414610615578063b888fd0e14610631576101ef565b8063936ca9e6116100de578063936ca9e61461054157806398ec8f331461055d5780639a046ac51461057b5780639bc5ae54146105ab576101ef565b806387e21d42146104815780638df5a792146104b15780639010d07c146104e157806391d1485414610511576101ef565b8063310ed7f0116101875780634e41a1fb116101565780634e41a1fb146103be5780635245110d146103ee5780635d126110146104215780638779362314610451576101ef565b8063310ed7f01461034e57806336568abe1461036a5780633fffa0c11461038657806345e74373146103a2576101ef565b8063237306e8116101c3578063237306e8146102a2578063248a9ca3146102d257806327737071146103025780632f2ff15d14610332576101ef565b8062ad800c146101f457806301ffc9a71461022457806309363c4414610254578063206b60f914610284575b600080fd5b61020e60048036038101906102099190613a16565b6106fb565b60405161021b9190614b03565b60405180910390f35b61023e600480360381019061023991906139ed565b6107eb565b60405161024b9190614a34565b60405180910390f35b61026e60048036038101906102699190613a16565b6107fd565b60405161027b9190614a12565b60405180910390f35b61028c610868565b6040516102999190614a4f565b60405180910390f35b6102bc60048036038101906102b79190613c37565b61088c565b6040516102c99190614a34565b60405180910390f35b6102ec60048036038101906102e7919061394c565b6108be565b6040516102f99190614a4f565b60405180910390f35b61031c60048036038101906103179190613bfb565b6108dd565b6040516103299190614e4b565b60405180910390f35b61034c60048036038101906103479190613975565b61090e565b005b61036860048036038101906103639190613c37565b610942565b005b610384600480360381019061037f9190613975565b610c54565b005b6103a0600480360381019061039b9190613877565b610c88565b005b6103bc60048036038101906103b79190613a97565b610d73565b005b6103d860048036038101906103d39190613a16565b610dfb565b6040516103e59190614b03565b60405180910390f35b61040860048036038101906104039190613a16565b610eeb565b6040516104189493929190614b71565b60405180910390f35b61043b60048036038101906104369190613a3f565b6110c0565b6040516104489190614a12565b60405180910390f35b61046b60048036038101906104669190613bfb565b6111f1565b6040516104789190614e4b565b60405180910390f35b61049b60048036038101906104969190613a16565b611216565b6040516104a89190614e4b565b60405180910390f35b6104cb60048036038101906104c69190613a16565b611233565b6040516104d89190614e4b565b60405180910390f35b6104fb60048036038101906104f691906139b1565b61124b565b60405161050891906149ab565b60405180910390f35b61052b60048036038101906105269190613975565b61127a565b6040516105389190614a34565b60405180910390f35b61055b60048036038101906105569190613c86565b6112e4565b005b610565611368565b6040516105729190614a4f565b60405180910390f35b61059560048036038101906105909190613bfb565b61138c565b6040516105a29190614a6a565b60405180910390f35b6105c560048036038101906105c09190613a16565b611443565b6040516105d29190614b03565b60405180910390f35b6105e36115cb565b6040516105f09190614a4f565b60405180910390f35b610613600480360381019061060e9190613b50565b6115d2565b005b61062f600480360381019061062a9190613c37565b611654565b005b61064b60048036038101906106469190613bfb565b6118ce565b6040516106589190614a6a565b60405180910390f35b61067b6004803603810190610676919061394c565b61197b565b6040516106889190614e4b565b60405180910390f35b61069961199f565b6040516106a69190614a4f565b60405180910390f35b6106c960048036038101906106c49190613975565b6119c3565b005b6106e560048036038101906106e09190613bfb565b6119f7565b6040516106f29190614e4b565b60405180910390f35b606061070682611a64565b610745576040517f08c379a000000000000000000000000000000000000000000000000000000000815260040161073c90614deb565b60405180910390fd5b600260008381526020019081526020016000206000018054610766906152a8565b80601f0160208091040260200160405190810160405280929190818152602001828054610792906152a8565b80156107df5780601f106107b4576101008083540402835291602001916107df565b820191906000526020600020905b8154815290600101906020018083116107c257829003601f168201915b50505050509050919050565b60006107f682611a91565b9050919050565b60606006600083815260200190815260200160002080548060200260200160405190810160405280929190818152602001828054801561085c57602002820191906000526020600020905b815481526020019060010190808311610848575b50505050509050919050565b7f8502233096d909befbda0999bb8ea2f3a6be3c138b9fbf003752a4c8bce86f6c81565b600082600760008481526020019081526020016000206000868152602001908152602001600020541490509392505050565b6000806000838152602001908152602001600020600101549050919050565b600660205281600052604060002081815481106108f957600080fd5b90600052602060002001600091509150505481565b6109188282611b73565b61093d8160016000858152602001908152602001600020611a3490919063ffffffff16565b505050565b600061094c611b9c565b90508073ffffffffffffffffffffffffffffffffffffffff16600860009054906101000a900473ffffffffffffffffffffffffffffffffffffffff1673ffffffffffffffffffffffffffffffffffffffff1663dbacc237866040518263ffffffff1660e01b81526004016109c09190614e4b565b60206040518083038186803b1580156109d857600080fd5b505afa1580156109ec573d6000803e3d6000fd5b505050506040513d601f19601f82011682018060405250810190610a10919061384e565b73ffffffffffffffffffffffffffffffffffffffff161480610a585750610a577f8502233096d909befbda0999bb8ea2f3a6be3c138b9fbf003752a4c8bce86f6c8261127a565b5b610a97576040517f08c379a0000000000000000000000000000000000000000000000000000000008152600401610a8e90614c4b565b60405180910390fd5b610aa284848461088c565b610ae1576040517f08c379a0000000000000000000000000000000000000000000000000000000008152600401610ad890614dab565b60405180910390fd5b610aeb8383611ba4565b15610b2b576040517f08c379a0000000000000000000000000000000000000000000000000000000008152600401610b2290614cab565b60405180910390fd5b6000600360008481526020019081526020016000206000868152602001908152602001600020549050610b81828686610b6387611bd5565b610b6c86611bd5565b60405180602001604052806000815250611c9b565b80600360008581526020019081526020016000206000868152602001908152602001600020819055506003600084815260200190815260200160002060008681526020019081526020016000206000905560076000848152602001908152602001600020600086815260200190815260200160002060009055828273ffffffffffffffffffffffffffffffffffffffff167f73b5fbfbf0177b0de2ffe9fd0ae9887dd73d0d865db7ab5ff3c4a6b9bb8db1e3878785604051610c4593929190614e66565b60405180910390a35050505050565b610c5e8282611ca3565b610c838160016000858152602001908152602001600020611d2690919063ffffffff16565b505050565b610cb97f9f2df0fed2c77648de5860a4cc508cd0818c85b8b8a1ab4ceeef8d981c8956a6610cb4611b9c565b61127a565b610cf8576040517f08c379a0000000000000000000000000000000000000000000000000000000008152600401610cef90614d4b565b60405180910390fd5b610d69888880806020026020016040519081016040528093929190818152602001838360200280828437600081840152601f19601f82011690508083019250505050505050878790610d4a9190615215565b868690610d579190615215565b858590610d649190615215565b611d56565b5050505050505050565b610da47f8b16888c296865dbfb46a3f5241555370dc784c1a8890b825830bee0b73996df610d9f611b9c565b61127a565b610de3576040517f08c379a0000000000000000000000000000000000000000000000000000000008152600401610dda90614beb565b60405180910390fd5b610df2878787878787876120fd565b50505050505050565b6060610e0682611a64565b610e45576040517f08c379a0000000000000000000000000000000000000000000000000000000008152600401610e3c90614c6b565b60405180910390fd5b600260008381526020019081526020016000206001018054610e66906152a8565b80601f0160208091040260200160405190810160405280929190818152602001828054610e92906152a8565b8015610edf5780601f10610eb457610100808354040283529160200191610edf565b820191906000526020600020905b815481529060010190602001808311610ec257829003601f168201915b50505050509050919050565b6002602052806000526040600020600091509050806000018054610f0e906152a8565b80601f0160208091040260200160405190810160405280929190818152602001828054610f3a906152a8565b8015610f875780601f10610f5c57610100808354040283529160200191610f87565b820191906000526020600020905b815481529060010190602001808311610f6a57829003601f168201915b505050505090806001018054610f9c906152a8565b80601f0160208091040260200160405190810160405280929190818152602001828054610fc8906152a8565b80156110155780601f10610fea57610100808354040283529160200191611015565b820191906000526020600020905b815481529060010190602001808311610ff857829003601f168201915b50505050509080600201805461102a906152a8565b80601f0160208091040260200160405190810160405280929190818152602001828054611056906152a8565b80156110a35780601f10611078576101008083540402835291602001916110a3565b820191906000526020600020905b81548152906001019060200180831161108657829003601f168201915b5050505050908060030160009054906101000a900460ff16905084565b606060008383905067ffffffffffffffff811115611107577f4e487b7100000000000000000000000000000000000000000000000000000000600052604160045260246000fd5b6040519080825280602002602001820160405280156111355781602001602082028036833780820191505090505b50905060005b848490508110156111e55761118f86868684818110611183577f4e487b7100000000000000000000000000000000000000000000000000000000600052603260045260246000fd5b905060200201356119f7565b8282815181106111c8577f4e487b7100000000000000000000000000000000000000000000000000000000600052603260045260246000fd5b602002602001018181525050806111de906152da565b905061113b565b50809150509392505050565b6003602052816000526040600020602052806000526040600020600091509150505481565b600060056000838152602001908152602001600020549050919050565b60056020528060005260406000206000915090505481565b6000611272826001600086815260200190815260200160002061257a90919063ffffffff16565b905092915050565b600080600084815260200190815260200160002060000160008373ffffffffffffffffffffffffffffffffffffffff1673ffffffffffffffffffffffffffffffffffffffff16815260200190815260200160002060009054906101000a900460ff16905092915050565b6113157f8b16888c296865dbfb46a3f5241555370dc784c1a8890b825830bee0b73996df611310611b9c565b61127a565b611354576040517f08c379a000000000000000000000000000000000000000000000000000000000815260040161134b90614beb565b60405180910390fd5b6113618585858585612594565b5050505050565b7f8b16888c296865dbfb46a3f5241555370dc784c1a8890b825830bee0b73996df81565b606060046000838152602001908152602001600020600084815260200190815260200160002080546113bd906152a8565b80601f01602080910402602001604051908101604052809291908181526020018280546113e9906152a8565b80156114365780601f1061140b57610100808354040283529160200191611436565b820191906000526020600020905b81548152906001019060200180831161141957829003601f168201915b5050505050905092915050565b606061144e82611a64565b61148d576040517f08c379a000000000000000000000000000000000000000000000000000000000815260040161148490614ccb565b60405180910390fd5b60006002600084815260200190815260200160002060020180546114b0906152a8565b80601f01602080910402602001604051908101604052809291908181526020018280546114dc906152a8565b80156115295780601f106114fe57610100808354040283529160200191611529565b820191906000526020600020905b81548152906001019060200180831161150c57829003601f168201915b5050505050905060008151111561156c57806115448461277d565b60405160200161155592919061494d565b6040516020818303038152906040529150506115c6565b600061157661292a565b9050600081511161159657604051806020016040528060008152506115c1565b806115a08561277d565b6040516020016115b192919061494d565b6040516020818303038152906040525b925050505b919050565b6000801b81565b6116037f9f2df0fed2c77648de5860a4cc508cd0818c85b8b8a1ab4ceeef8d981c8956a66115fe611b9c565b61127a565b611642576040517f08c379a000000000000000000000000000000000000000000000000000000000815260040161163990614d4b565b60405180910390fd5b61164e84848484612941565b50505050565b8261165d611b9c565b73ffffffffffffffffffffffffffffffffffffffff16600860009054906101000a900473ffffffffffffffffffffffffffffffffffffffff1673ffffffffffffffffffffffffffffffffffffffff1663dbacc237836040518263ffffffff1660e01b81526004016116ce9190614e4b565b60206040518083038186803b1580156116e657600080fd5b505afa1580156116fa573d6000803e3d6000fd5b505050506040513d601f19601f8201168201806040525081019061171e919061384e565b73ffffffffffffffffffffffffffffffffffffffff1614611774576040517f08c379a000000000000000000000000000000000000000000000000000000000815260040161176b90614d6b565b60405180910390fd5b60008414156117b8576040517f08c379a00000000000000000000000000000000000000000000000000000000081526004016117af90614ceb565b60405180910390fd5b60008314156117fc576040517f08c379a00000000000000000000000000000000000000000000000000000000081526004016117f390614d2b565b60405180910390fd5b6118068383611ba4565b15611846576040517f08c379a000000000000000000000000000000000000000000000000000000000815260040161183d90614dcb565b60405180910390fd5b8260076000848152602001908152602001600020600086815260200190815260200160002081905550611877611b9c565b73ffffffffffffffffffffffffffffffffffffffff167f6565b688f546de180373d4414390a2d7d1ff98f4a22d6a48534e178d3b2d072e8585856040516118c093929190614e66565b60405180910390a250505050565b60046020528160005260406000206020528060005260406000206000915091505080546118fa906152a8565b80601f0160208091040260200160405190810160405280929190818152602001828054611926906152a8565b80156119735780601f1061194857610100808354040283529160200191611973565b820191906000526020600020905b81548152906001019060200180831161195657829003601f168201915b505050505081565b600061199860016000848152602001908152602001600020612aa7565b9050919050565b7f9f2df0fed2c77648de5860a4cc508cd0818c85b8b8a1ab4ceeef8d981c8956a681565b6119cd8282612abc565b6119f28160016000858152602001908152602001600020611d2690919063ffffffff16565b505050565b600060036000838152602001908152602001600020600084815260200190815260200160002054905092915050565b611a308282612ae5565b5050565b6000611a5c836000018373ffffffffffffffffffffffffffffffffffffffff1660001b612bc5565b905092915050565b60006002600083815260200190815260200160002060030160009054906101000a900460ff169050919050565b60007f75205675000000000000000000000000000000000000000000000000000000007bffffffffffffffffffffffffffffffffffffffffffffffffffffffff1916827bffffffffffffffffffffffffffffffffffffffffffffffffffffffff19161480611b5c57507fd5298fa3000000000000000000000000000000000000000000000000000000007bffffffffffffffffffffffffffffffffffffffffffffffffffffffff1916827bffffffffffffffffffffffffffffffffffffffffffffffffffffffff1916145b80611b6c5750611b6b82612c35565b5b9050919050565b611b7c826108be565b611b8d81611b88611b9c565b612caf565b611b978383612ae5565b505050565b600033905090565b6000806003600084815260200190815260200160002060008581526020019081526020016000205411905092915050565b60606000600167ffffffffffffffff811115611c1a577f4e487b7100000000000000000000000000000000000000000000000000000000600052604160045260246000fd5b604051908082528060200260200182016040528015611c485781602001602082028036833780820191505090505b5090508281600081518110611c86577f4e487b7100000000000000000000000000000000000000000000000000000000600052603260045260246000fd5b60200260200101818152505080915050919050565b505050505050565b611cab611b9c565b73ffffffffffffffffffffffffffffffffffffffff168173ffffffffffffffffffffffffffffffffffffffff1614611d18576040517f08c379a0000000000000000000000000000000000000000000000000000000008152600401611d0f90614e2b565b60405180910390fd5b611d228282612d4c565b5050565b6000611d4e836000018373ffffffffffffffffffffffffffffffffffffffff1660001b612e2d565b905092915050565b8251845114611d9a576040517f08c379a0000000000000000000000000000000000000000000000000000000008152600401611d9190614e0b565b60405180910390fd5b8151835114611dde576040517f08c379a0000000000000000000000000000000000000000000000000000000008152600401611dd590614d0b565b60405180910390fd5b8051825114611e22576040517f08c379a0000000000000000000000000000000000000000000000000000000008152600401611e1990614c8b565b60405180910390fd5b6000611e2c611b9c565b905060005b855181101561208d57611e83868281518110611e76577f4e487b7100000000000000000000000000000000000000000000000000000000600052603260045260246000fd5b6020026020010151611a64565b15611ec3576040517f08c379a0000000000000000000000000000000000000000000000000000000008152600401611eba90614c0b565b60405180910390fd5b60006040518060800160405280878481518110611f09577f4e487b7100000000000000000000000000000000000000000000000000000000600052603260045260246000fd5b60200260200101518152602001868481518110611f4f577f4e487b7100000000000000000000000000000000000000000000000000000000600052603260045260246000fd5b60200260200101518152602001858481518110611f95577f4e487b7100000000000000000000000000000000000000000000000000000000600052603260045260246000fd5b602002602001015181526020016001151581525090508060026000898581518110611fe9577f4e487b7100000000000000000000000000000000000000000000000000000000600052603260045260246000fd5b60200260200101518152602001908152602001600020600082015181600001908051906020019061201b929190613416565b506020820151816001019080519060200190612038929190613416565b506040820151816002019080519060200190612055929190613416565b5060608201518160030160006101000a81548160ff021916908315150217905550905050508080612085906152da565b915050611e31565b508460405161209c9190614936565b60405180910390208173ffffffffffffffffffffffffffffffffffffffff167fa564cb1998afa54a5836b472bb8181177cda6b9978d9291b84cc905926d507f58686866040516120ee939291906149c6565b60405180910390a35050505050565b6000612107611b9c565b90506121a98160008a8a8a80806020026020016040519081016040528093929190818152602001838360200280828437600081840152601f19601f82011690508083019250505050505050898980806020026020016040519081016040528093929190818152602001838360200280828437600081840152601f19601f8201169050808301925050505050505060405180602001604052806000815250611c9b565b60005b87879050811015612502576121ff8888838181106121f3577f4e487b7100000000000000000000000000000000000000000000000000000000600052603260045260246000fd5b90506020020135611a64565b61223e576040517f08c379a000000000000000000000000000000000000000000000000000000000815260040161223590614c2b565b60405180910390fd5b6000600360008a8a8581811061227d577f4e487b7100000000000000000000000000000000000000000000000000000000600052603260045260246000fd5b90506020020135815260200190815260200160002060008b815260200190815260200160002054141561232457600660008a81526020019081526020016000208888838181106122f6577f4e487b7100000000000000000000000000000000000000000000000000000000600052603260045260246000fd5b9050602002013590806001815401808255809150506001900390600052602060002001600090919091909150555b600084848381811061235f577f4e487b7100000000000000000000000000000000000000000000000000000000600052603260045260246000fd5b90506020028101906123719190614e9d565b90501115612436578383828181106123b2577f4e487b7100000000000000000000000000000000000000000000000000000000600052603260045260246000fd5b90506020028101906123c49190614e9d565b600460008b8b86818110612401577f4e487b7100000000000000000000000000000000000000000000000000000000600052603260045260246000fd5b90506020020135815260200190815260200160002060008c8152602001908152602001600020919061243492919061349c565b505b85858281811061246f577f4e487b7100000000000000000000000000000000000000000000000000000000600052603260045260246000fd5b90506020020135600360008a8a858181106124b3577f4e487b7100000000000000000000000000000000000000000000000000000000600052603260045260246000fd5b90506020020135815260200190815260200160002060008b815260200190815260200160002060008282546124e89190615082565b9250508190555080806124fa906152da565b9150506121ac565b50868660405161251392919061491d565b60405180910390208173ffffffffffffffffffffffffffffffffffffffff167fbfb4d8e5891aebe97980c97616b6b0af2006a58ccabe6e1b7e3da24d0906a85660008b89896040516125689493929190614a8c565b60405180910390a35050505050505050565b60006125898360000183612fb3565b60001c905092915050565b61259d84611a64565b6125dc576040517f08c379a00000000000000000000000000000000000000000000000000000000081526004016125d390614d8b565b60405180910390fd5b60006125e6611b9c565b9050612616816000886125f889611bd5565b61260189611bd5565b60405180602001604052806000815250611c9b565b60006003600087815260200190815260200160002060008881526020019081526020016000205414156126a2578115612666578460056000888152602001908152602001600020819055506126a1565b600660008781526020019081526020016000208590806001815401808255809150506001900390600052602060002001600090919091909150555b5b6000835111156126e6578260046000878152602001908152602001600020600088815260200190815260200160002090805190602001906126e4929190613522565b505b83600360008781526020019081526020016000206000888152602001908152602001600020600082825461271a9190615082565b92505081905550848173ffffffffffffffffffffffffffffffffffffffff167f73b5fbfbf0177b0de2ffe9fd0ae9887dd73d0d865db7ab5ff3c4a6b9bb8db1e36000898860405161276d93929190614acc565b60405180910390a3505050505050565b606060008214156127c5576040518060400160405280600181526020017f30000000000000000000000000000000000000000000000000000000000000008152509050612925565b600082905060005b600082146127f75780806127e0906152da565b915050600a826127f091906150d8565b91506127cd565b60008167ffffffffffffffff811115612839577f4e487b7100000000000000000000000000000000000000000000000000000000600052604160045260246000fd5b6040519080825280601f01601f19166020018201604052801561286b5781602001600182028036833780820191505090505b5090505b6000851461291e576001826128849190615163565b9150600a856128939190615323565b603061289f9190615082565b60f81b8183815181106128db577f4e487b7100000000000000000000000000000000000000000000000000000000600052603260045260246000fd5b60200101907effffffffffffffffffffffffffffffffffffffffffffffffffffffffffffff1916908160001a905350600a8561291791906150d8565b945061286f565b8093505050505b919050565b606060405180602001604052806000815250905090565b61294a84611a64565b1561298a576040517f08c379a000000000000000000000000000000000000000000000000000000000815260040161298190614c0b565b60405180910390fd5b6000612994611b9c565b905060006040518060800160405280868152602001858152602001848152602001600115158152509050806002600088815260200190815260200160002060008201518160000190805190602001906129ee929190613416565b506020820151816001019080519060200190612a0b929190613416565b506040820151816002019080519060200190612a28929190613416565b5060608201518160030160006101000a81548160ff021916908315150217905550905050858273ffffffffffffffffffffffffffffffffffffffff167f0f95c7b6e09a6cd1ff57e6238b940fa674ce6ce983d94900b6a8a6393929be3f878787604051612a9793929190614b25565b60405180910390a3505050505050565b6000612ab582600001613004565b9050919050565b612ac5826108be565b612ad681612ad1611b9c565b612caf565b612ae08383612d4c565b505050565b612aef828261127a565b612bc157600160008084815260200190815260200160002060000160008373ffffffffffffffffffffffffffffffffffffffff1673ffffffffffffffffffffffffffffffffffffffff16815260200190815260200160002060006101000a81548160ff021916908315150217905550612b66611b9c565b73ffffffffffffffffffffffffffffffffffffffff168173ffffffffffffffffffffffffffffffffffffffff16837f2f8788117e7eff1d82e926ec794901d17c78024a50270940304540a733656f0d60405160405180910390a45b5050565b6000612bd18383613015565b612c2a578260000182908060018154018082558091505060019003906000526020600020016000909190919091505582600001805490508360010160008481526020019081526020016000208190555060019050612c2f565b600090505b92915050565b60007f5a05180f000000000000000000000000000000000000000000000000000000007bffffffffffffffffffffffffffffffffffffffffffffffffffffffff1916827bffffffffffffffffffffffffffffffffffffffffffffffffffffffff19161480612ca85750612ca782613038565b5b9050919050565b612cb9828261127a565b612d4857612cde8173ffffffffffffffffffffffffffffffffffffffff1660146130b2565b612cec8360001c60206130b2565b604051602001612cfd929190614971565b6040516020818303038152906040526040517f08c379a0000000000000000000000000000000000000000000000000000000008152600401612d3f9190614b03565b60405180910390fd5b5050565b612d56828261127a565b15612e2957600080600084815260200190815260200160002060000160008373ffffffffffffffffffffffffffffffffffffffff1673ffffffffffffffffffffffffffffffffffffffff16815260200190815260200160002060006101000a81548160ff021916908315150217905550612dce611b9c565b73ffffffffffffffffffffffffffffffffffffffff168173ffffffffffffffffffffffffffffffffffffffff16837ff6391f5c32d9c69d2a47ea670b442974b53935d1edc7fd64eb21e047a839171b60405160405180910390a45b5050565b60008083600101600084815260200190815260200160002054905060008114612fa7576000600182612e5f9190615163565b9050600060018660000180549050612e779190615163565b9050818114612f32576000866000018281548110612ebe577f4e487b7100000000000000000000000000000000000000000000000000000000600052603260045260246000fd5b9060005260206000200154905080876000018481548110612f08577f4e487b7100000000000000000000000000000000000000000000000000000000600052603260045260246000fd5b90600052602060002001819055508387600101600083815260200190815260200160002081905550505b85600001805480612f6c577f4e487b7100000000000000000000000000000000000000000000000000000000600052603160045260246000fd5b600190038181906000526020600020016000905590558560010160008681526020019081526020016000206000905560019350505050612fad565b60009150505b92915050565b6000826000018281548110612ff1577f4e487b7100000000000000000000000000000000000000000000000000000000600052603260045260246000fd5b9060005260206000200154905092915050565b600081600001805490509050919050565b600080836001016000848152602001908152602001600020541415905092915050565b60007f7965db0b000000000000000000000000000000000000000000000000000000007bffffffffffffffffffffffffffffffffffffffffffffffffffffffff1916827bffffffffffffffffffffffffffffffffffffffffffffffffffffffff191614806130ab57506130aa826133ac565b5b9050919050565b6060600060028360026130c59190615109565b6130cf9190615082565b67ffffffffffffffff81111561310e577f4e487b7100000000000000000000000000000000000000000000000000000000600052604160045260246000fd5b6040519080825280601f01601f1916602001820160405280156131405781602001600182028036833780820191505090505b5090507f30000000000000000000000000000000000000000000000000000000000000008160008151811061319e577f4e487b7100000000000000000000000000000000000000000000000000000000600052603260045260246000fd5b60200101907effffffffffffffffffffffffffffffffffffffffffffffffffffffffffffff1916908160001a9053507f780000000000000000000000000000000000000000000000000000000000000081600181518110613228577f4e487b7100000000000000000000000000000000000000000000000000000000600052603260045260246000fd5b60200101907effffffffffffffffffffffffffffffffffffffffffffffffffffffffffffff1916908160001a905350600060018460026132689190615109565b6132729190615082565b90505b600181111561335e577f3031323334353637383961626364656600000000000000000000000000000000600f8616601081106132da577f4e487b7100000000000000000000000000000000000000000000000000000000600052603260045260246000fd5b1a60f81b828281518110613317577f4e487b7100000000000000000000000000000000000000000000000000000000600052603260045260246000fd5b60200101907effffffffffffffffffffffffffffffffffffffffffffffffffffffffffffff1916908160001a905350600485901c9450806133579061527e565b9050613275565b50600084146133a2576040517f08c379a000000000000000000000000000000000000000000000000000000000815260040161339990614bcb565b60405180910390fd5b8091505092915050565b60007f01ffc9a7000000000000000000000000000000000000000000000000000000007bffffffffffffffffffffffffffffffffffffffffffffffffffffffff1916827bffffffffffffffffffffffffffffffffffffffffffffffffffffffff1916149050919050565b828054613422906152a8565b90600052602060002090601f016020900481019282613444576000855561348b565b82601f1061345d57805160ff191683800117855561348b565b8280016001018555821561348b579182015b8281111561348a57825182559160200191906001019061346f565b5b50905061349891906135a8565b5090565b8280546134a8906152a8565b90600052602060002090601f0160209004810192826134ca5760008555613511565b82601f106134e357803560ff1916838001178555613511565b82800160010185558215613511579182015b828111156135105782358255916020019190600101906134f5565b5b50905061351e91906135a8565b5090565b82805461352e906152a8565b90600052602060002090601f0160209004810192826135505760008555613597565b82601f1061356957805160ff1916838001178555613597565b82800160010185558215613597579182015b8281111561359657825182559160200191906001019061357b565b5b5090506135a491906135a8565b5090565b5b808211156135c15760008160009055506001016135a9565b5090565b60006135d86135d384614f25565b614ef4565b9050808382526020820190508260005b8581101561361857813585016135fe888261380f565b8452602084019350602083019250506001810190506135e8565b5050509392505050565b600061363561363084614f51565b614ef4565b90508281526020810184848401111561364d57600080fd5b61365884828561523c565b509392505050565b600061367361366e84614f81565b614ef4565b90508281526020810184848401111561368b57600080fd5b61369684828561523c565b509392505050565b6000813590506136ad81615421565b92915050565b6000815190506136c281615421565b92915050565b60008083601f8401126136da57600080fd5b8235905067ffffffffffffffff8111156136f357600080fd5b60208301915083602082028301111561370b57600080fd5b9250929050565b60008083601f84011261372457600080fd5b8235905067ffffffffffffffff81111561373d57600080fd5b60208301915083602082028301111561375557600080fd5b9250929050565b60008083601f84011261376e57600080fd5b8235905067ffffffffffffffff81111561378757600080fd5b60208301915083602082028301111561379f57600080fd5b9250929050565b6000813590506137b581615438565b92915050565b6000813590506137ca8161544f565b92915050565b6000813590506137df81615466565b92915050565b600082601f8301126137f657600080fd5b8135613806848260208601613622565b91505092915050565b600082601f83011261382057600080fd5b8135613830848260208601613660565b91505092915050565b6000813590506138488161547d565b92915050565b60006020828403121561386057600080fd5b600061386e848285016136b3565b91505092915050565b6000806000806000806000806080898b03121561389357600080fd5b600089013567ffffffffffffffff8111156138ad57600080fd5b6138b98b828c0161375c565b9850985050602089013567ffffffffffffffff8111156138d857600080fd5b6138e48b828c01613712565b9650965050604089013567ffffffffffffffff81111561390357600080fd5b61390f8b828c01613712565b9450945050606089013567ffffffffffffffff81111561392e57600080fd5b61393a8b828c01613712565b92509250509295985092959890939650565b60006020828403121561395e57600080fd5b600061396c848285016137bb565b91505092915050565b6000806040838503121561398857600080fd5b6000613996858286016137bb565b92505060206139a78582860161369e565b9150509250929050565b600080604083850312156139c457600080fd5b60006139d2858286016137bb565b92505060206139e385828601613839565b9150509250929050565b6000602082840312156139ff57600080fd5b6000613a0d848285016137d0565b91505092915050565b600060208284031215613a2857600080fd5b6000613a3684828501613839565b91505092915050565b600080600060408486031215613a5457600080fd5b6000613a6286828701613839565b935050602084013567ffffffffffffffff811115613a7f57600080fd5b613a8b8682870161375c565b92509250509250925092565b60008060008060008060006080888a031215613ab257600080fd5b6000613ac08a828b01613839565b975050602088013567ffffffffffffffff811115613add57600080fd5b613ae98a828b0161375c565b9650965050604088013567ffffffffffffffff811115613b0857600080fd5b613b148a828b0161375c565b9450945050606088013567ffffffffffffffff811115613b3357600080fd5b613b3f8a828b016136c8565b925092505092959891949750929550565b60008060008060808587031215613b6657600080fd5b6000613b7487828801613839565b945050602085013567ffffffffffffffff811115613b9157600080fd5b613b9d8782880161380f565b935050604085013567ffffffffffffffff811115613bba57600080fd5b613bc68782880161380f565b925050606085013567ffffffffffffffff811115613be357600080fd5b613bef8782880161380f565b91505092959194509250565b60008060408385031215613c0e57600080fd5b6000613c1c85828601613839565b9250506020613c2d85828601613839565b9150509250929050565b600080600060608486031215613c4c57600080fd5b6000613c5a86828701613839565b9350506020613c6b86828701613839565b9250506040613c7c86828701613839565b9150509250925092565b600080600080600060a08688031215613c9e57600080fd5b6000613cac88828901613839565b9550506020613cbd88828901613839565b9450506040613cce88828901613839565b935050606086013567ffffffffffffffff811115613ceb57600080fd5b613cf7888289016137e5565b9250506080613d08888289016137a6565b9150509295509295909350565b6000613d218383613faf565b905092915050565b6000613d3583836148f0565b60208301905092915050565b6000613d4d838361490e565b60208301905092915050565b613d6281615197565b82525050565b6000613d7382614fd1565b613d7d8185615017565b935083602082028501613d8f85614fb1565b8060005b85811015613dcb5784840389528151613dac8582613d15565b9450613db783614ffd565b925060208a01995050600181019050613d93565b50829750879550505050505092915050565b6000613de98385615028565b93507f07ffffffffffffffffffffffffffffffffffffffffffffffffffffffffffffff831115613e1857600080fd5b602083029250613e2983858461523c565b82840190509392505050565b6000613e418385615039565b93507f07ffffffffffffffffffffffffffffffffffffffffffffffffffffffffffffff831115613e7057600080fd5b602083029250613e8183858461523c565b82840190509392505050565b6000613e9882614fdc565b613ea28185615028565b9350613ead83614fc1565b8060005b83811015613ede578151613ec58882613d29565b9750613ed08361500a565b925050600181019050613eb1565b5085935050505092915050565b6000613ef682614fdc565b613f008185615039565b9350613f0b83614fc1565b8060005b83811015613f3c578151613f238882613d41565b9750613f2e8361500a565b925050600181019050613f0f565b5085935050505092915050565b613f52816151a9565b82525050565b613f61816151b5565b82525050565b6000613f7282614fe7565b613f7c8185615044565b9350613f8c81856020860161524b565b613f9581615410565b840191505092915050565b613fa98161522a565b82525050565b6000613fba82614ff2565b613fc48185615055565b9350613fd481856020860161524b565b613fdd81615410565b840191505092915050565b6000613ff382614ff2565b613ffd8185615066565b935061400d81856020860161524b565b61401681615410565b840191505092915050565b600061402c82614ff2565b6140368185615077565b935061404681856020860161524b565b80840191505092915050565b600061405f602083615066565b91507f537472696e67733a20686578206c656e67746820696e73756666696369656e746000830152602082019050919050565b600061409f602f83615066565b91507f4552433336363447656e657269633a206d75737420686176652061747461636860008301527f20726f6c6520746f2061747461636800000000000000000000000000000000006020830152604082019050919050565b6000614105602183615066565b91507f455243333636343a2061747472696275746520616c726561647920657869737460008301527f73000000000000000000000000000000000000000000000000000000000000006020830152604082019050919050565b600061416b602e83615066565b91507f455243333636343a20626174636841747461636820666f72206e6f6e6578697360008301527f74656e74206174747269627574650000000000000000000000000000000000006020830152604082019050919050565b60006141d1602e83615066565b91507f455243333636345472616e7366657261626c653a2063616c6c6572206e6f207460008301527f72616e73666572206163636573730000000000000000000000000000000000006020830152604082019050919050565b6000614237602f83615066565b91507f455243333636343a2073796d626f6c20717565727920666f72206e6f6e65786960008301527f7374656e742061747472696275746500000000000000000000000000000000006020830152604082019050919050565b600061429d602983615066565b91507f455243333636343a2073796d626f6c7320616e642075726973206c656e67746860008301527f206d69736d6174636800000000000000000000000000000000000000000000006020830152604082019050919050565b6000614303603983615066565b91507f455243333636345472616e7366657261626c653a20726563697069656e74206860008301527f61732061747461636865642074686520617474726962757465000000000000006020830152604082019050919050565b6000614369602c83615066565b91507f455243333636343a2055524920717565727920666f72206e6f6e65786973746560008301527f6e742061747472696275746500000000000000000000000000000000000000006020830152604082019050919050565b60006143cf603283615066565b91507f455243333636345472616e7366657261626c653a20617070726f76652066726f60008301527f6d20746865207a65726f206164647265737300000000000000000000000000006020830152604082019050919050565b6000614435602a83615066565b91507f455243333636343a206e616d657320616e642073796d626f6c73206c656e677460008301527f68206d69736d61746368000000000000000000000000000000000000000000006020830152604082019050919050565b600061449b603083615066565b91507f455243333636345472616e7366657261626c653a20617070726f766520746f2060008301527f746865207a65726f2061646472657373000000000000000000000000000000006020830152604082019050919050565b6000614501602d83615066565b91507f4552433336363447656e657269633a206d7573742068617665206d696e74657260008301527f20726f6c6520746f206d696e74000000000000000000000000000000000000006020830152604082019050919050565b6000614567603183615066565b91507f455243333636345472616e7366657261626c653a2063616c6c6572206973206e60008301527f6f7420746865206e667420686f6c6465720000000000000000000000000000006020830152604082019050919050565b60006145cd602983615066565b91507f455243333636343a2061747461636820666f72206e6f6e6578697374656e742060008301527f61747472696275746500000000000000000000000000000000000000000000006020830152604082019050919050565b6000614633604683615066565b91507f455243333636345472616e7366657261626c653a206e667420686f6c6465722060008301527f6e6f7420617070726f7665207468652061747472696275746520746f2072656360208301527f697069656e7400000000000000000000000000000000000000000000000000006040830152606082019050919050565b60006146bf604783615066565b91507f455243333636345472616e7366657261626c653a20726563697069656e74207460008301527f6f6b656e2068617320616c72656164792061747461636865642074686520617460208301527f74726962757465000000000000000000000000000000000000000000000000006040830152606082019050919050565b600061474b601783615077565b91507f416363657373436f6e74726f6c3a206163636f756e74200000000000000000006000830152601782019050919050565b600061478b602d83615066565b91507f455243333636343a206e616d6520717565727920666f72206e6f6e657869737460008301527f656e7420617474726962757465000000000000000000000000000000000000006020830152604082019050919050565b60006147f1602a83615066565b91507f455243333636343a206174747249647320616e64206e616d6573206c656e677460008301527f68206d69736d61746368000000000000000000000000000000000000000000006020830152604082019050919050565b6000614857601183615077565b91507f206973206d697373696e6720726f6c65200000000000000000000000000000006000830152601182019050919050565b6000614897602f83615066565b91507f416363657373436f6e74726f6c3a2063616e206f6e6c792072656e6f756e636560008301527f20726f6c657320666f722073656c6600000000000000000000000000000000006020830152604082019050919050565b6148f98161520b565b82525050565b6149088161520b565b82525050565b6149178161520b565b82525050565b600061492a828486613e35565b91508190509392505050565b60006149428284613eeb565b915081905092915050565b60006149598285614021565b91506149658284614021565b91508190509392505050565b600061497c8261473e565b91506149888285614021565b91506149938261484a565b915061499f8284614021565b91508190509392505050565b60006020820190506149c06000830184613d59565b92915050565b600060608201905081810360008301526149e08186613d68565b905081810360208301526149f48185613d68565b90508181036040830152614a088184613d68565b9050949350505050565b60006020820190508181036000830152614a2c8184613e8d565b905092915050565b6000602082019050614a496000830184613f49565b92915050565b6000602082019050614a646000830184613f58565b92915050565b60006020820190508181036000830152614a848184613f67565b905092915050565b6000606082019050614aa16000830187613fa0565b614aae60208301866148ff565b8181036040830152614ac1818486613ddd565b905095945050505050565b6000606082019050614ae16000830186613fa0565b614aee60208301856148ff565b614afb60408301846148ff565b949350505050565b60006020820190508181036000830152614b1d8184613fe8565b905092915050565b60006060820190508181036000830152614b3f8186613fe8565b90508181036020830152614b538185613fe8565b90508181036040830152614b678184613fe8565b9050949350505050565b60006080820190508181036000830152614b8b8187613fe8565b90508181036020830152614b9f8186613fe8565b90508181036040830152614bb38185613fe8565b9050614bc26060830184613f49565b95945050505050565b60006020820190508181036000830152614be481614052565b9050919050565b60006020820190508181036000830152614c0481614092565b9050919050565b60006020820190508181036000830152614c24816140f8565b9050919050565b60006020820190508181036000830152614c448161415e565b9050919050565b60006020820190508181036000830152614c64816141c4565b9050919050565b60006020820190508181036000830152614c848161422a565b9050919050565b60006020820190508181036000830152614ca481614290565b9050919050565b60006020820190508181036000830152614cc4816142f6565b9050919050565b60006020820190508181036000830152614ce48161435c565b9050919050565b60006020820190508181036000830152614d04816143c2565b9050919050565b60006020820190508181036000830152614d2481614428565b9050919050565b60006020820190508181036000830152614d448161448e565b9050919050565b60006020820190508181036000830152614d64816144f4565b9050919050565b60006020820190508181036000830152614d848161455a565b9050919050565b60006020820190508181036000830152614da4816145c0565b9050919050565b60006020820190508181036000830152614dc481614626565b9050919050565b60006020820190508181036000830152614de4816146b2565b9050919050565b60006020820190508181036000830152614e048161477e565b9050919050565b60006020820190508181036000830152614e24816147e4565b9050919050565b60006020820190508181036000830152614e448161488a565b9050919050565b6000602082019050614e6060008301846148ff565b92915050565b6000606082019050614e7b60008301866148ff565b614e8860208301856148ff565b614e9560408301846148ff565b949350505050565b60008083356001602003843603038112614eb657600080fd5b80840192508235915067ffffffffffffffff821115614ed457600080fd5b602083019250600182023603831315614eec57600080fd5b509250929050565b6000604051905081810181811067ffffffffffffffff82111715614f1b57614f1a6153e1565b5b8060405250919050565b600067ffffffffffffffff821115614f4057614f3f6153e1565b5b602082029050602081019050919050565b600067ffffffffffffffff821115614f6c57614f6b6153e1565b5b601f19601f8301169050602081019050919050565b600067ffffffffffffffff821115614f9c57614f9b6153e1565b5b601f19601f8301169050602081019050919050565b6000819050602082019050919050565b6000819050602082019050919050565b600081519050919050565b600081519050919050565b600081519050919050565b600081519050919050565b6000602082019050919050565b6000602082019050919050565b600082825260208201905092915050565b600082825260208201905092915050565b600081905092915050565b600082825260208201905092915050565b600082825260208201905092915050565b600082825260208201905092915050565b600081905092915050565b600061508d8261520b565b91506150988361520b565b9250827fffffffffffffffffffffffffffffffffffffffffffffffffffffffffffffffff038211156150cd576150cc615354565b5b828201905092915050565b60006150e38261520b565b91506150ee8361520b565b9250826150fe576150fd615383565b5b828204905092915050565b60006151148261520b565b915061511f8361520b565b9250817fffffffffffffffffffffffffffffffffffffffffffffffffffffffffffffffff048311821515161561515857615157615354565b5b828202905092915050565b600061516e8261520b565b91506151798361520b565b92508282101561518c5761518b615354565b5b828203905092915050565b60006151a2826151eb565b9050919050565b60008115159050919050565b6000819050919050565b60007fffffffff0000000000000000000000000000000000000000000000000000000082169050919050565b600073ffffffffffffffffffffffffffffffffffffffff82169050919050565b6000819050919050565b60006152223684846135c5565b905092915050565b60006152358261520b565b9050919050565b82818337600083830152505050565b60005b8381101561526957808201518184015260208101905061524e565b83811115615278576000848401525b50505050565b60006152898261520b565b9150600082141561529d5761529c615354565b5b600182039050919050565b600060028204905060018216806152c057607f821691505b602082108114156152d4576152d36153b2565b5b50919050565b60006152e58261520b565b91507fffffffffffffffffffffffffffffffffffffffffffffffffffffffffffffffff82141561531857615317615354565b5b600182019050919050565b600061532e8261520b565b91506153398361520b565b92508261534957615348615383565b5b828206905092915050565b7f4e487b7100000000000000000000000000000000000000000000000000000000600052601160045260246000fd5b7f4e487b7100000000000000000000000000000000000000000000000000000000600052601260045260246000fd5b7f4e487b7100000000000000000000000000000000000000000000000000000000600052602260045260246000fd5b7f4e487b7100000000000000000000000000000000000000000000000000000000600052604160045260246000fd5b6000601f19601f8301169050919050565b61542a81615197565b811461543557600080fd5b50565b615441816151a9565b811461544c57600080fd5b50565b615458816151b5565b811461546357600080fd5b50565b61546f816151bf565b811461547a57600080fd5b50565b6154868161520b565b811461549157600080fd5b5056fea2646970667358221220a7f75e5f0553708ebfa30a13009cdf1821b606f55cc975b6e3804b07988cbe3264736f6c63430008000033",
  "immutableReferences": {},
  "source": "// SPDX-License-Identifier: MIT\r\n\r\npragma solidity ^0.8.0;\r\n\r\nimport \"./IERC3664Transferable.sol\";\r\nimport \"./ERC3664Generic.sol\";\r\nimport \"../../utils/ITokenHolder.sol\";\r\n\r\n/**\r\n * @dev Implementation of the {ERC3664Transferable} interface.\r\n */\r\ncontract ERC3664Transferable is IERC3664Transferable, ERC3664Generic {\r\n    bytes32 public constant TRANSFER_ROLE = keccak256(\"TRANSFER_ROLE\");\r\n\r\n    // attribute ID => from token ID => to token ID\r\n    mapping(uint256 => mapping(uint256 => uint256)) private _allowances;\r\n\r\n    address private _nft;\r\n\r\n    modifier onlyHolder(uint256 tokenId) {\r\n        require(\r\n            ITokenHolder(_nft).holderOf(tokenId) == _msgSender(),\r\n            \"ERC3664Transferable: caller is not the nft holder\"\r\n        );\r\n        _;\r\n    }\r\n\r\n    constructor(address nft) ERC3664Generic() {\r\n        _nft = nft;\r\n\r\n        _setupRole(TRANSFER_ROLE, _msgSender());\r\n    }\r\n\r\n    /**\r\n     * @dev See {IERC3664Transferable-isApproved}.\r\n     */\r\n    function isApproved(\r\n        uint256 from,\r\n        uint256 to,\r\n        uint256 attrId\r\n    ) public view virtual override returns (bool) {\r\n        return _allowances[attrId][from] == to;\r\n    }\r\n\r\n    /**\r\n     * @dev See {IERC3664Transferable-approve}.\r\n     */\r\n    function approve(\r\n        uint256 from,\r\n        uint256 to,\r\n        uint256 attrId\r\n    ) public virtual override onlyHolder(from) {\r\n        require(\r\n            from != 0,\r\n            \"ERC3664Transferable: approve from the zero address\"\r\n        );\r\n        require(to != 0, \"ERC3664Transferable: approve to the zero address\");\r\n        require(\r\n            !_hasAttr(to, attrId),\r\n            \"ERC3664Transferable: recipient token has already attached the attribute\"\r\n        );\r\n\r\n        _allowances[attrId][from] = to;\r\n\r\n        emit AttributeApproval(_msgSender(), from, to, attrId);\r\n    }\r\n\r\n    /**\r\n     * @dev See {IERC3664Transferable-transferFrom}.\r\n     */\r\n    function transferFrom(\r\n        uint256 from,\r\n        uint256 to,\r\n        uint256 attrId\r\n    ) public virtual override {\r\n        address operator = _msgSender();\r\n        require(\r\n            ITokenHolder(_nft).holderOf(from) == operator ||\r\n                hasRole(TRANSFER_ROLE, operator),\r\n            \"ERC3664Transferable: caller no transfer access\"\r\n        );\r\n        require(\r\n            isApproved(from, to, attrId),\r\n            \"ERC3664Transferable: nft holder not approve the attribute to recipient\"\r\n        );\r\n        require(\r\n            !_hasAttr(to, attrId),\r\n            \"ERC3664Transferable: recipient has attached the attribute\"\r\n        );\r\n\r\n        uint256 amount = _balances[attrId][from];\r\n        _beforeAttrTransfer(\r\n            operator,\r\n            from,\r\n            to,\r\n            _asSingletonArray(attrId),\r\n            _asSingletonArray(amount),\r\n            \"\"\r\n        );\r\n\r\n        _balances[attrId][to] = amount;\r\n        delete _balances[attrId][from];\r\n        delete _allowances[attrId][from];\r\n\r\n        emit TransferSingle(operator, from, to, attrId, amount);\r\n    }\r\n}\r\n",
  "sourcePath": "D:\\MetaNFT\\MetaNFT\\contracts\\ERC3664\\extensions\\ERC3664Transferable.sol",
  "compiler": {
    "name": "solc",
    "version": "0.8.0+commit.c7dfd78e.Emscripten.clang"
  },
  "schemaVersion": "3.4.3",
  "updatedAt": "2021-09-22T09:26:13.451Z",
  "devdoc": {
    "details": "Implementation of the {ERC3664Transferable} interface.",
    "kind": "dev",
    "methods": {
      "approve(uint256,uint256,uint256)": {
        "details": "See {IERC3664Transferable-approve}."
      },
      "attach(uint256,uint256,uint256,bytes,bool)": {
        "details": "See {ERC3664-attach}."
      },
      "attrURI(uint256)": {
        "details": "See {IERC721Metadata-attrURI}."
      },
      "attributesOf(uint256)": {
        "details": "See {IERC3664-attributesOf}."
      },
      "balanceOf(uint256,uint256)": {
        "details": "See {IERC3664-balanceOf}."
      },
      "balanceOfBatch(uint256,uint256[])": {
        "details": "See {IERC3664-balanceOfBatch}."
      },
      "batchAttach(uint256,uint256[],uint256[],bytes[])": {
        "details": "See {ERC3664-batchAttach}."
      },
      "getRoleAdmin(bytes32)": {
        "details": "Returns the admin role that controls `role`. See {grantRole} and {revokeRole}. To change a role's admin, use {_setRoleAdmin}."
      },
      "getRoleMember(bytes32,uint256)": {
        "details": "Returns one of the accounts that have `role`. `index` must be a value between 0 and {getRoleMemberCount}, non-inclusive. Role bearers are not sorted in any particular way, and their ordering may change at any point. WARNING: When using {getRoleMember} and {getRoleMemberCount}, make sure you perform all queries on the same block. See the following https://forum.openzeppelin.com/t/iterating-over-elements-on-enumerableset-in-openzeppelin-contracts/2296[forum post] for more information."
      },
      "getRoleMemberCount(bytes32)": {
        "details": "Returns the number of accounts that have `role`. Can be used together with {getRoleMember} to enumerate all bearers of a role."
      },
      "grantRole(bytes32,address)": {
        "details": "Overload {grantRole} to track enumerable memberships"
      },
      "hasRole(bytes32,address)": {
        "details": "Returns `true` if `account` has been granted `role`."
      },
      "isApproved(uint256,uint256,uint256)": {
        "details": "See {IERC3664Transferable-isApproved}."
      },
      "mint(uint256,string,string,string)": {
        "details": "Mint new attribute type with metadata. See {ERC3664-_mint}."
      },
      "mintBatch(uint256[],string[],string[],string[])": {
        "details": "[Batched] version of {mint}."
      },
      "name(uint256)": {
        "details": "See {IERC3664Metadata-name}."
      },
      "primaryAttributeOf(uint256)": {
        "details": "Returns primary attribute type of owned by `tokenId`."
      },
      "renounceRole(bytes32,address)": {
        "details": "Overload {renounceRole} to track enumerable memberships"
      },
      "revokeRole(bytes32,address)": {
        "details": "Overload {revokeRole} to track enumerable memberships"
      },
      "supportsInterface(bytes4)": {
        "details": "See {IERC165-supportsInterface}."
      },
      "symbol(uint256)": {
        "details": "See {IERC3664Metadata-symbol}."
      },
      "textOf(uint256,uint256)": {
        "details": "See {IERC3664-textOf}."
      },
      "transferFrom(uint256,uint256,uint256)": {
        "details": "See {IERC3664Transferable-transferFrom}."
      }
    },
    "version": 1
  },
  "userdoc": {
    "kind": "user",
    "methods": {},
    "version": 1
  }
}