{
  "contractName": "ERC3664Evolvable",
  "abi": [
    {
      "inputs": [],
      "stateMutability": "nonpayable",
      "type": "constructor"
    },
    {
      "anonymous": false,
      "inputs": [
        {
          "indexed": true,
          "internalType": "address",
          "name": "operator",
          "type": "address"
        },
        {
          "indexed": false,
          "internalType": "uint256",
          "name": "tokenId",
          "type": "uint256"
        },
        {
          "indexed": false,
          "internalType": "uint256",
          "name": "attrId",
          "type": "uint256"
        },
        {
          "indexed": false,
          "internalType": "bool",
          "name": "status",
          "type": "bool"
        }
      ],
      "name": "AttributeEvolvable",
      "type": "event"
    },
    {
      "anonymous": false,
      "inputs": [
        {
          "indexed": true,
          "internalType": "address",
          "name": "operator",
          "type": "address"
        },
        {
          "indexed": false,
          "internalType": "uint256",
          "name": "tokenId",
          "type": "uint256"
        },
        {
          "indexed": false,
          "internalType": "uint256",
          "name": "attrId",
          "type": "uint256"
        }
      ],
      "name": "AttributeRepaired",
      "type": "event"
    },
    {
      "anonymous": false,
      "inputs": [
        {
          "indexed": true,
          "internalType": "address",
          "name": "operator",
          "type": "address"
        },
        {
          "indexed": true,
          "internalType": "uint256",
          "name": "attrId",
          "type": "uint256"
        },
        {
          "indexed": false,
          "internalType": "string",
          "name": "name",
          "type": "string"
        },
        {
          "indexed": false,
          "internalType": "string",
          "name": "symbol",
          "type": "string"
        },
        {
          "indexed": false,
          "internalType": "string",
          "name": "uri",
          "type": "string"
        }
      ],
      "name": "NewAttribute",
      "type": "event"
    },
    {
      "anonymous": false,
      "inputs": [
        {
          "indexed": true,
          "internalType": "address",
          "name": "operator",
          "type": "address"
        },
        {
          "indexed": true,
          "internalType": "uint256[]",
          "name": "attrIds",
          "type": "uint256[]"
        },
        {
          "indexed": false,
          "internalType": "string[]",
          "name": "names",
          "type": "string[]"
        },
        {
          "indexed": false,
          "internalType": "string[]",
          "name": "symbols",
          "type": "string[]"
        },
        {
          "indexed": false,
          "internalType": "string[]",
          "name": "uris",
          "type": "string[]"
        }
      ],
      "name": "NewAttributeBatch",
      "type": "event"
    },
    {
      "anonymous": false,
      "inputs": [
        {
          "indexed": true,
          "internalType": "bytes32",
          "name": "role",
          "type": "bytes32"
        },
        {
          "indexed": true,
          "internalType": "bytes32",
          "name": "previousAdminRole",
          "type": "bytes32"
        },
        {
          "indexed": true,
          "internalType": "bytes32",
          "name": "newAdminRole",
          "type": "bytes32"
        }
      ],
      "name": "RoleAdminChanged",
      "type": "event"
    },
    {
      "anonymous": false,
      "inputs": [
        {
          "indexed": true,
          "internalType": "bytes32",
          "name": "role",
          "type": "bytes32"
        },
        {
          "indexed": true,
          "internalType": "address",
          "name": "account",
          "type": "address"
        },
        {
          "indexed": true,
          "internalType": "address",
          "name": "sender",
          "type": "address"
        }
      ],
      "name": "RoleGranted",
      "type": "event"
    },
    {
      "anonymous": false,
      "inputs": [
        {
          "indexed": true,
          "internalType": "bytes32",
          "name": "role",
          "type": "bytes32"
        },
        {
          "indexed": true,
          "internalType": "address",
          "name": "account",
          "type": "address"
        },
        {
          "indexed": true,
          "internalType": "address",
          "name": "sender",
          "type": "address"
        }
      ],
      "name": "RoleRevoked",
      "type": "event"
    },
    {
      "anonymous": false,
      "inputs": [
        {
          "indexed": true,
          "internalType": "address",
          "name": "operator",
          "type": "address"
        },
        {
          "indexed": false,
          "internalType": "uint256",
          "name": "from",
          "type": "uint256"
        },
        {
          "indexed": false,
          "internalType": "uint256",
          "name": "to",
          "type": "uint256"
        },
        {
          "indexed": true,
          "internalType": "uint256[]",
          "name": "attrIds",
          "type": "uint256[]"
        },
        {
          "indexed": false,
          "internalType": "uint256[]",
          "name": "values",
          "type": "uint256[]"
        }
      ],
      "name": "TransferBatch",
      "type": "event"
    },
    {
      "anonymous": false,
      "inputs": [
        {
          "indexed": true,
          "internalType": "address",
          "name": "operator",
          "type": "address"
        },
        {
          "indexed": false,
          "internalType": "uint256",
          "name": "from",
          "type": "uint256"
        },
        {
          "indexed": false,
          "internalType": "uint256",
          "name": "to",
          "type": "uint256"
        },
        {
          "indexed": true,
          "internalType": "uint256",
          "name": "attrId",
          "type": "uint256"
        },
        {
          "indexed": false,
          "internalType": "uint256",
          "name": "value",
          "type": "uint256"
        }
      ],
      "name": "TransferSingle",
      "type": "event"
    },
    {
      "inputs": [],
      "name": "ATTACH_ROLE",
      "outputs": [
        {
          "internalType": "bytes32",
          "name": "",
          "type": "bytes32"
        }
      ],
      "stateMutability": "view",
      "type": "function"
    },
    {
      "inputs": [],
      "name": "DEFAULT_ADMIN_ROLE",
      "outputs": [
        {
          "internalType": "bytes32",
          "name": "",
          "type": "bytes32"
        }
      ],
      "stateMutability": "view",
      "type": "function"
    },
    {
      "inputs": [],
      "name": "EVOLUTIVER_ROLE",
      "outputs": [
        {
          "internalType": "bytes32",
          "name": "",
          "type": "bytes32"
        }
      ],
      "stateMutability": "view",
      "type": "function"
    },
    {
      "inputs": [],
      "name": "MINTER_ROLE",
      "outputs": [
        {
          "internalType": "bytes32",
          "name": "",
          "type": "bytes32"
        }
      ],
      "stateMutability": "view",
      "type": "function"
    },
    {
      "inputs": [
        {
          "internalType": "uint256",
          "name": "",
          "type": "uint256"
        }
      ],
      "name": "_attrMetadatas",
      "outputs": [
        {
          "internalType": "string",
          "name": "name",
          "type": "string"
        },
        {
          "internalType": "string",
          "name": "symbol",
          "type": "string"
        },
        {
          "internalType": "string",
          "name": "uri",
          "type": "string"
        },
        {
          "internalType": "bool",
          "name": "exist",
          "type": "bool"
        }
      ],
      "stateMutability": "view",
      "type": "function"
    },
    {
      "inputs": [
        {
          "internalType": "uint256",
          "name": "",
          "type": "uint256"
        },
        {
          "internalType": "uint256",
          "name": "",
          "type": "uint256"
        }
      ],
      "name": "_balances",
      "outputs": [
        {
          "internalType": "uint256",
          "name": "",
          "type": "uint256"
        }
      ],
      "stateMutability": "view",
      "type": "function"
    },
    {
      "inputs": [
        {
          "internalType": "uint256",
          "name": "",
          "type": "uint256"
        },
        {
          "internalType": "uint256",
          "name": "",
          "type": "uint256"
        }
      ],
      "name": "_texts",
      "outputs": [
        {
          "internalType": "bytes",
          "name": "",
          "type": "bytes"
        }
      ],
      "stateMutability": "view",
      "type": "function"
    },
    {
      "inputs": [
        {
          "internalType": "uint256",
          "name": "attrId",
          "type": "uint256"
        }
      ],
      "name": "attrURI",
      "outputs": [
        {
          "internalType": "string",
          "name": "",
          "type": "string"
        }
      ],
      "stateMutability": "view",
      "type": "function"
    },
    {
      "inputs": [
        {
          "internalType": "uint256",
          "name": "tokenId",
          "type": "uint256"
        }
      ],
      "name": "attributesOf",
      "outputs": [
        {
          "internalType": "uint256[]",
          "name": "",
          "type": "uint256[]"
        }
      ],
      "stateMutability": "view",
      "type": "function"
    },
    {
      "inputs": [
        {
          "internalType": "uint256",
          "name": "tokenId",
          "type": "uint256"
        },
        {
          "internalType": "uint256",
          "name": "attrId",
          "type": "uint256"
        }
      ],
      "name": "balanceOf",
      "outputs": [
        {
          "internalType": "uint256",
          "name": "",
          "type": "uint256"
        }
      ],
      "stateMutability": "view",
      "type": "function"
    },
    {
      "inputs": [
        {
          "internalType": "uint256",
          "name": "tokenId",
          "type": "uint256"
        },
        {
          "internalType": "uint256[]",
          "name": "attrIds",
          "type": "uint256[]"
        }
      ],
      "name": "balanceOfBatch",
      "outputs": [
        {
          "internalType": "uint256[]",
          "name": "",
          "type": "uint256[]"
        }
      ],
      "stateMutability": "view",
      "type": "function"
    },
    {
      "inputs": [
        {
          "internalType": "uint256",
          "name": "tokenId",
          "type": "uint256"
        },
        {
          "internalType": "uint256[]",
          "name": "attrIds",
          "type": "uint256[]"
        },
        {
          "internalType": "uint256[]",
          "name": "amounts",
          "type": "uint256[]"
        },
        {
          "internalType": "bytes[]",
          "name": "texts",
          "type": "bytes[]"
        }
      ],
      "name": "batchAttach",
      "outputs": [],
      "stateMutability": "nonpayable",
      "type": "function"
    },
    {
      "inputs": [
        {
          "internalType": "bytes32",
          "name": "role",
          "type": "bytes32"
        }
      ],
      "name": "getRoleAdmin",
      "outputs": [
        {
          "internalType": "bytes32",
          "name": "",
          "type": "bytes32"
        }
      ],
      "stateMutability": "view",
      "type": "function"
    },
    {
      "inputs": [
        {
          "internalType": "bytes32",
          "name": "role",
          "type": "bytes32"
        },
        {
          "internalType": "uint256",
          "name": "index",
          "type": "uint256"
        }
      ],
      "name": "getRoleMember",
      "outputs": [
        {
          "internalType": "address",
          "name": "",
          "type": "address"
        }
      ],
      "stateMutability": "view",
      "type": "function"
    },
    {
      "inputs": [
        {
          "internalType": "bytes32",
          "name": "role",
          "type": "bytes32"
        }
      ],
      "name": "getRoleMemberCount",
      "outputs": [
        {
          "internalType": "uint256",
          "name": "",
          "type": "uint256"
        }
      ],
      "stateMutability": "view",
      "type": "function"
    },
    {
      "inputs": [
        {
          "internalType": "bytes32",
          "name": "role",
          "type": "bytes32"
        },
        {
          "internalType": "address",
          "name": "account",
          "type": "address"
        }
      ],
      "name": "grantRole",
      "outputs": [],
      "stateMutability": "nonpayable",
      "type": "function"
    },
    {
      "inputs": [
        {
          "internalType": "bytes32",
          "name": "role",
          "type": "bytes32"
        },
        {
          "internalType": "address",
          "name": "account",
          "type": "address"
        }
      ],
      "name": "hasRole",
      "outputs": [
        {
          "internalType": "bool",
          "name": "",
          "type": "bool"
        }
      ],
      "stateMutability": "view",
      "type": "function"
    },
    {
      "inputs": [
        {
          "internalType": "uint256",
          "name": "attrId",
          "type": "uint256"
        },
        {
          "internalType": "string",
          "name": "_name",
          "type": "string"
        },
        {
          "internalType": "string",
          "name": "_symbol",
          "type": "string"
        },
        {
          "internalType": "string",
          "name": "_uri",
          "type": "string"
        }
      ],
      "name": "mint",
      "outputs": [],
      "stateMutability": "nonpayable",
      "type": "function"
    },
    {
      "inputs": [
        {
          "internalType": "uint256[]",
          "name": "attrIds",
          "type": "uint256[]"
        },
        {
          "internalType": "string[]",
          "name": "names",
          "type": "string[]"
        },
        {
          "internalType": "string[]",
          "name": "symbols",
          "type": "string[]"
        },
        {
          "internalType": "string[]",
          "name": "uris",
          "type": "string[]"
        }
      ],
      "name": "mintBatch",
      "outputs": [],
      "stateMutability": "nonpayable",
      "type": "function"
    },
    {
      "inputs": [
        {
          "internalType": "uint256",
          "name": "attrId",
          "type": "uint256"
        }
      ],
      "name": "name",
      "outputs": [
        {
          "internalType": "string",
          "name": "",
          "type": "string"
        }
      ],
      "stateMutability": "view",
      "type": "function"
    },
    {
      "inputs": [
        {
          "internalType": "uint256",
          "name": "tokenId",
          "type": "uint256"
        }
      ],
      "name": "primaryAttributeOf",
      "outputs": [
        {
          "internalType": "uint256",
          "name": "",
          "type": "uint256"
        }
      ],
      "stateMutability": "view",
      "type": "function"
    },
    {
      "inputs": [
        {
          "internalType": "uint256",
          "name": "",
          "type": "uint256"
        }
      ],
      "name": "primaryAttrs",
      "outputs": [
        {
          "internalType": "uint256",
          "name": "",
          "type": "uint256"
        }
      ],
      "stateMutability": "view",
      "type": "function"
    },
    {
      "inputs": [
        {
          "internalType": "bytes32",
          "name": "role",
          "type": "bytes32"
        },
        {
          "internalType": "address",
          "name": "account",
          "type": "address"
        }
      ],
      "name": "renounceRole",
      "outputs": [],
      "stateMutability": "nonpayable",
      "type": "function"
    },
    {
      "inputs": [
        {
          "internalType": "bytes32",
          "name": "role",
          "type": "bytes32"
        },
        {
          "internalType": "address",
          "name": "account",
          "type": "address"
        }
      ],
      "name": "revokeRole",
      "outputs": [],
      "stateMutability": "nonpayable",
      "type": "function"
    },
    {
      "inputs": [
        {
          "internalType": "uint256",
          "name": "",
          "type": "uint256"
        },
        {
          "internalType": "uint256",
          "name": "",
          "type": "uint256"
        }
      ],
      "name": "secondaryAttrs",
      "outputs": [
        {
          "internalType": "uint256",
          "name": "",
          "type": "uint256"
        }
      ],
      "stateMutability": "view",
      "type": "function"
    },
    {
      "inputs": [
        {
          "internalType": "bytes4",
          "name": "interfaceId",
          "type": "bytes4"
        }
      ],
      "name": "supportsInterface",
      "outputs": [
        {
          "internalType": "bool",
          "name": "",
          "type": "bool"
        }
      ],
      "stateMutability": "view",
      "type": "function"
    },
    {
      "inputs": [
        {
          "internalType": "uint256",
          "name": "attrId",
          "type": "uint256"
        }
      ],
      "name": "symbol",
      "outputs": [
        {
          "internalType": "string",
          "name": "",
          "type": "string"
        }
      ],
      "stateMutability": "view",
      "type": "function"
    },
    {
      "inputs": [
        {
          "internalType": "uint256",
          "name": "tokenId",
          "type": "uint256"
        },
        {
          "internalType": "uint256",
          "name": "attrId",
          "type": "uint256"
        }
      ],
      "name": "textOf",
      "outputs": [
        {
          "internalType": "bytes",
          "name": "",
          "type": "bytes"
        }
      ],
      "stateMutability": "view",
      "type": "function"
    },
    {
      "inputs": [
        {
          "internalType": "uint256",
          "name": "tokenId",
          "type": "uint256"
        },
        {
          "internalType": "uint256",
          "name": "attrId",
          "type": "uint256"
        }
      ],
      "name": "period",
      "outputs": [
        {
          "internalType": "uint256",
          "name": "",
          "type": "uint256"
        }
      ],
      "stateMutability": "view",
      "type": "function"
    },
    {
      "inputs": [
        {
          "internalType": "uint256",
          "name": "attrId",
          "type": "uint256"
        },
        {
          "internalType": "string",
          "name": "name",
          "type": "string"
        },
        {
          "internalType": "string",
          "name": "symbol",
          "type": "string"
        },
        {
          "internalType": "string",
          "name": "uri",
          "type": "string"
        },
        {
          "internalType": "uint8[]",
          "name": "probabilities",
          "type": "uint8[]"
        },
        {
          "internalType": "uint256[]",
          "name": "evolutiveIntervals",
          "type": "uint256[]"
        }
      ],
      "name": "mintWith",
      "outputs": [],
      "stateMutability": "nonpayable",
      "type": "function"
    },
    {
      "inputs": [
        {
          "internalType": "uint256",
          "name": "tokenId",
          "type": "uint256"
        },
        {
          "internalType": "uint256",
          "name": "attrId",
          "type": "uint256"
        },
        {
          "internalType": "uint256",
          "name": "amount",
          "type": "uint256"
        },
        {
          "internalType": "bytes",
          "name": "text",
          "type": "bytes"
        },
        {
          "internalType": "bool",
          "name": "isPrimary",
          "type": "bool"
        }
      ],
      "name": "attach",
      "outputs": [],
      "stateMutability": "nonpayable",
      "type": "function"
    },
    {
      "inputs": [
        {
          "internalType": "uint256",
          "name": "tokenId",
          "type": "uint256"
        },
        {
          "internalType": "uint256",
          "name": "attrId",
          "type": "uint256"
        }
      ],
      "name": "evolutive",
      "outputs": [],
      "stateMutability": "nonpayable",
      "type": "function"
    },
    {
      "inputs": [
        {
          "internalType": "uint256",
          "name": "tokenId",
          "type": "uint256"
        },
        {
          "internalType": "uint256",
          "name": "attrId",
          "type": "uint256"
        }
      ],
      "name": "repair",
      "outputs": [],
      "stateMutability": "nonpayable",
      "type": "function"
    }
  ],
  "bytecode": "0x60806040523480156200001157600080fd5b50620000366000801b6200002a620000ff60201b60201c565b6200010760201b60201c565b620000777f9f2df0fed2c77648de5860a4cc508cd0818c85b8b8a1ab4ceeef8d981c8956a66200006b620000ff60201b60201c565b6200010760201b60201c565b620000b87f8b16888c296865dbfb46a3f5241555370dc784c1a8890b825830bee0b73996df620000ac620000ff60201b60201c565b6200010760201b60201c565b620000f97fde795f88fe55fc30d86f43041d7e35bb28d6fe4852bfef1d35a39b93081526d9620000ed620000ff60201b60201c565b6200010760201b60201c565b62000395565b600033905090565b6200011e82826200014f60201b62001cf11760201c565b6200014a81600160008581526020019081526020016000206200016560201b62001cff1790919060201c565b505050565b6200016182826200019d60201b60201c565b5050565b600062000195836000018373ffffffffffffffffffffffffffffffffffffffff1660001b6200028e60201b60201c565b905092915050565b620001af82826200030860201b60201c565b6200028a57600160008084815260200190815260200160002060000160008373ffffffffffffffffffffffffffffffffffffffff1673ffffffffffffffffffffffffffffffffffffffff16815260200190815260200160002060006101000a81548160ff0219169083151502179055506200022f620000ff60201b60201c565b73ffffffffffffffffffffffffffffffffffffffff168173ffffffffffffffffffffffffffffffffffffffff16837f2f8788117e7eff1d82e926ec794901d17c78024a50270940304540a733656f0d60405160405180910390a45b5050565b6000620002a283836200037260201b60201c565b620002fd57826000018290806001815401808255809150506001900390600052602060002001600090919091909150558260000180549050836001016000848152602001908152602001600020819055506001905062000302565b600090505b92915050565b600080600084815260200190815260200160002060000160008373ffffffffffffffffffffffffffffffffffffffff1673ffffffffffffffffffffffffffffffffffffffff16815260200190815260200160002060009054906101000a900460ff16905092915050565b600080836001016000848152602001908152602001600020541415905092915050565b615d2e80620003a56000396000f3fe608060405234801561001057600080fd5b50600436106101fa5760003560e01c806387e21d421161011a578063a217fddf116100ad578063ca15c8731161007c578063ca15c87314610658578063cff376ac14610688578063d5391393146106b8578063d547741f146106d6578063ea699633146106f2576101fa565b8063a217fddf146105d2578063acdd1454146105f0578063b888fd0e1461060c578063c5c5e2821461063c576101fa565b8063936ca9e6116100e9578063936ca9e61461053857806398ec8f33146105545780639a046ac5146105725780639bc5ae54146105a2576101fa565b806387e21d42146104785780638df5a792146104a85780639010d07c146104d857806391d1485414610508576101fa565b80633fffa0c1116101925780635d126110116101615780635d126110146103e057806360742c2c1461041057806374f21df91461042c5780638779362314610448576101fa565b80633fffa0c11461034557806345e74373146103615780634e41a1fb1461037d5780635245110d146103ad576101fa565b806327737071116101ce57806327737071146102bf5780632f2ff15d146102ef57806336568abe1461030b5780633b564b7d14610327576101fa565b8062ad800c146101ff57806301ffc9a71461022f57806309363c441461025f578063248a9ca31461028f575b600080fd5b61021960048036038101906102149190613fa1565b610722565b60405161022691906151fc565b60405180910390f35b61024960048036038101906102449190613f78565b610812565b604051610256919061512d565b60405180910390f35b61027960048036038101906102749190613fa1565b610824565b604051610286919061510b565b60405180910390f35b6102a960048036038101906102a49190613ed7565b61088f565b6040516102b69190615148565b60405180910390f35b6102d960048036038101906102d49190614287565b6108ae565b6040516102e69190615564565b60405180910390f35b61030960048036038101906103049190613f00565b6108df565b005b61032560048036038101906103209190613f00565b610913565b005b61032f610947565b60405161033c9190615148565b60405180910390f35b61035f600480360381019061035a9190613e02565b61096b565b005b61037b60048036038101906103769190614022565b610a56565b005b61039760048036038101906103929190613fa1565b610ade565b6040516103a491906151fc565b60405180910390f35b6103c760048036038101906103c29190613fa1565b610bce565b6040516103d7949392919061526a565b60405180910390f35b6103fa60048036038101906103f59190613fca565b610da3565b604051610407919061510b565b60405180910390f35b61042a60048036038101906104259190614287565b610ed4565b005b61044660048036038101906104419190614186565b611310565b005b610462600480360381019061045d9190614287565b6113cd565b60405161046f9190615564565b60405180910390f35b610492600480360381019061048d9190613fa1565b6113f2565b60405161049f9190615564565b60405180910390f35b6104c260048036038101906104bd9190613fa1565b61140f565b6040516104cf9190615564565b60405180910390f35b6104f260048036038101906104ed9190613f3c565b611427565b6040516104ff91906150a4565b60405180910390f35b610522600480360381019061051d9190613f00565b611456565b60405161052f919061512d565b60405180910390f35b610552600480360381019061054d91906142c3565b6114c0565b005b61055c6115dc565b6040516105699190615148565b60405180910390f35b61058c60048036038101906105879190614287565b611600565b6040516105999190615163565b60405180910390f35b6105bc60048036038101906105b79190613fa1565b6116b7565b6040516105c991906151fc565b60405180910390f35b6105da61183f565b6040516105e79190615148565b60405180910390f35b61060a600480360381019061060591906140db565b611846565b005b61062660048036038101906106219190614287565b6118c8565b6040516106339190615163565b60405180910390f35b61065660048036038101906106519190614287565b611975565b005b610672600480360381019061066d9190613ed7565b611bd0565b60405161067f9190615564565b60405180910390f35b6106a2600480360381019061069d9190614287565b611bf4565b6040516106af9190615564565b60405180910390f35b6106c0611c6a565b6040516106cd9190615148565b60405180910390f35b6106f060048036038101906106eb9190613f00565b611c8e565b005b61070c60048036038101906107079190614287565b611cc2565b6040516107199190615564565b60405180910390f35b606061072d82611d2f565b61076c576040517f08c379a000000000000000000000000000000000000000000000000000000000815260040161076390615504565b60405180910390fd5b60026000838152602001908152602001600020600001805461078d90615aba565b80601f01602080910402602001604051908101604052809291908181526020018280546107b990615aba565b80156108065780601f106107db57610100808354040283529160200191610806565b820191906000526020600020905b8154815290600101906020018083116107e957829003601f168201915b50505050509050919050565b600061081d82611d5c565b9050919050565b60606006600083815260200190815260200160002080548060200260200160405190810160405280929190818152602001828054801561088357602002820191906000526020600020905b81548152602001906001019080831161086f575b50505050509050919050565b6000806000838152602001908152602001600020600101549050919050565b600660205281600052604060002081815481106108ca57600080fd5b90600052602060002001600091509150505481565b6108e98282611e3e565b61090e8160016000858152602001908152602001600020611cff90919063ffffffff16565b505050565b61091d8282611e67565b6109428160016000858152602001908152602001600020611eea90919063ffffffff16565b505050565b7fde795f88fe55fc30d86f43041d7e35bb28d6fe4852bfef1d35a39b93081526d981565b61099c7f9f2df0fed2c77648de5860a4cc508cd0818c85b8b8a1ab4ceeef8d981c8956a6610997611f1a565b611456565b6109db576040517f08c379a00000000000000000000000000000000000000000000000000000000081526004016109d290615444565b60405180910390fd5b610a4c888880806020026020016040519081016040528093929190818152602001838360200280828437600081840152601f19601f82011690508083019250505050505050878790610a2d9190615a27565b868690610a3a9190615a27565b858590610a479190615a27565b611f22565b5050505050505050565b610a877f8b16888c296865dbfb46a3f5241555370dc784c1a8890b825830bee0b73996df610a82611f1a565b611456565b610ac6576040517f08c379a0000000000000000000000000000000000000000000000000000000008152600401610abd906152e4565b60405180910390fd5b610ad5878787878787876122c9565b50505050505050565b6060610ae982611d2f565b610b28576040517f08c379a0000000000000000000000000000000000000000000000000000000008152600401610b1f90615384565b60405180910390fd5b600260008381526020019081526020016000206001018054610b4990615aba565b80601f0160208091040260200160405190810160405280929190818152602001828054610b7590615aba565b8015610bc25780601f10610b9757610100808354040283529160200191610bc2565b820191906000526020600020905b815481529060010190602001808311610ba557829003601f168201915b50505050509050919050565b6002602052806000526040600020600091509050806000018054610bf190615aba565b80601f0160208091040260200160405190810160405280929190818152602001828054610c1d90615aba565b8015610c6a5780601f10610c3f57610100808354040283529160200191610c6a565b820191906000526020600020905b815481529060010190602001808311610c4d57829003601f168201915b505050505090806001018054610c7f90615aba565b80601f0160208091040260200160405190810160405280929190818152602001828054610cab90615aba565b8015610cf85780601f10610ccd57610100808354040283529160200191610cf8565b820191906000526020600020905b815481529060010190602001808311610cdb57829003601f168201915b505050505090806002018054610d0d90615aba565b80601f0160208091040260200160405190810160405280929190818152602001828054610d3990615aba565b8015610d865780601f10610d5b57610100808354040283529160200191610d86565b820191906000526020600020905b815481529060010190602001808311610d6957829003601f168201915b5050505050908060030160009054906101000a900460ff16905084565b606060008383905067ffffffffffffffff811115610dea577f4e487b7100000000000000000000000000000000000000000000000000000000600052604160045260246000fd5b604051908082528060200260200182016040528015610e185781602001602082028036833780820191505090505b50905060005b84849050811015610ec857610e7286868684818110610e66577f4e487b7100000000000000000000000000000000000000000000000000000000600052603260045260246000fd5b90506020020135611cc2565b828281518110610eab577f4e487b7100000000000000000000000000000000000000000000000000000000600052603260045260246000fd5b60200260200101818152505080610ec190615aec565b9050610e1e565b50809150509392505050565b610f057fde795f88fe55fc30d86f43041d7e35bb28d6fe4852bfef1d35a39b93081526d9610f00611f1a565b611456565b610f44576040517f08c379a0000000000000000000000000000000000000000000000000000000008152600401610f3b90615304565b60405180910390fd5b610f4e8282612746565b610f8d576040517f08c379a0000000000000000000000000000000000000000000000000000000008152600401610f84906154a4565b60405180910390fd5b60086000828152602001908152602001600020600083815260200190815260200160002060030160009054906101000a900460ff16611001576040517f08c379a0000000000000000000000000000000000000000000000000000000008152600401610ff8906153c4565b60405180910390fd5b600060086000838152602001908152602001600020600084815260200190815260200160002060000160009054906101000a900460ff16905060076000838152602001908152602001600020600001805490508160ff161115611099576040517f08c379a0000000000000000000000000000000000000000000000000000000008152600401611090906154e4565b60405180910390fd5b60086000838152602001908152602001600020600084815260200190815260200160002060020154431015611103576040517f08c379a00000000000000000000000000000000000000000000000000000000081526004016110fa906154c4565b60405180910390fd5b60006008600084815260200190815260200160002060008581526020019081526020016000209050600061113f611138611f1a565b6064612777565b9050600760008581526020019081526020016000206000016001846111649190615968565b60ff168154811061119e577f4e487b7100000000000000000000000000000000000000000000000000000000600052603260045260246000fd5b90600052602060002090602091828204019190069054906101000a900460ff1660ff1681116112815760018260000160008282829054906101000a900460ff166111e89190615872565b92506101000a81548160ff021916908360ff160217905550600760008581526020019081526020016000206000018360ff1681548110611251577f4e487b7100000000000000000000000000000000000000000000000000000000600052603260045260246000fd5b90600052602060002090602091828204019190069054906101000a900460ff1660ff16826002018190555061129f565b60008260030160006101000a81548160ff0219169083151502179055505b6112a7611f1a565b73ffffffffffffffffffffffffffffffffffffffff167f852a01ea65d72dd4dd73d8801251821b2a6161166e7362becd1884afc55c394086868560030160009054906101000a900460ff16604051611301939291906155a8565b60405180910390a25050505050565b8051825114611354576040517f08c379a000000000000000000000000000000000000000000000000000000000815260040161134b906153e4565b60405180910390fd5b61136086868686611846565b6040518060400160405280838152602001828152506007600088815260200190815260200160002060008201518160000190805190602001906113a49291906137aa565b5060208201518160010190805190602001906113c1929190613851565b50905050505050505050565b6003602052816000526040600020602052806000526040600020600091509150505481565b600060056000838152602001908152602001600020549050919050565b60056020528060005260406000206000915090505481565b600061144e82600160008681526020019081526020016000206127bc90919063ffffffff16565b905092915050565b600080600084815260200190815260200160002060000160008373ffffffffffffffffffffffffffffffffffffffff1673ffffffffffffffffffffffffffffffffffffffff16815260200190815260200160002060009054906101000a900460ff16905092915050565b6114cd85858585856127d6565b6040518060800160405280600160ff16815260200143815260200160076000878152602001908152602001600020600101600081548110611537577f4e487b7100000000000000000000000000000000000000000000000000000000600052603260045260246000fd5b90600052602060002001544361154d919061581c565b81526020016001151581525060086000868152602001908152602001600020600087815260200190815260200160002060008201518160000160006101000a81548160ff021916908360ff160217905550602082015181600101556040820151816002015560608201518160030160006101000a81548160ff0219169083151502179055509050505050505050565b7f8b16888c296865dbfb46a3f5241555370dc784c1a8890b825830bee0b73996df81565b6060600460008381526020019081526020016000206000848152602001908152602001600020805461163190615aba565b80601f016020809104026020016040519081016040528092919081815260200182805461165d90615aba565b80156116aa5780601f1061167f576101008083540402835291602001916116aa565b820191906000526020600020905b81548152906001019060200180831161168d57829003601f168201915b5050505050905092915050565b60606116c282611d2f565b611701576040517f08c379a00000000000000000000000000000000000000000000000000000000081526004016116f890615404565b60405180910390fd5b600060026000848152602001908152602001600020600201805461172490615aba565b80601f016020809104026020016040519081016040528092919081815260200182805461175090615aba565b801561179d5780601f106117725761010080835404028352916020019161179d565b820191906000526020600020905b81548152906001019060200180831161178057829003601f168201915b505050505090506000815111156117e057806117b88461285a565b6040516020016117c9929190615046565b60405160208183030381529060405291505061183a565b60006117ea612a07565b9050600081511161180a5760405180602001604052806000815250611835565b806118148561285a565b604051602001611825929190615046565b6040516020818303038152906040525b925050505b919050565b6000801b81565b6118777f9f2df0fed2c77648de5860a4cc508cd0818c85b8b8a1ab4ceeef8d981c8956a6611872611f1a565b611456565b6118b6576040517f08c379a00000000000000000000000000000000000000000000000000000000081526004016118ad90615444565b60405180910390fd5b6118c284848484612a1e565b50505050565b60046020528160005260406000206020528060005260406000206000915091505080546118f490615aba565b80601f016020809104026020016040519081016040528092919081815260200182805461192090615aba565b801561196d5780601f106119425761010080835404028352916020019161196d565b820191906000526020600020905b81548152906001019060200180831161195057829003601f168201915b505050505081565b6119a67fde795f88fe55fc30d86f43041d7e35bb28d6fe4852bfef1d35a39b93081526d96119a1611f1a565b611456565b6119e5576040517f08c379a00000000000000000000000000000000000000000000000000000000081526004016119dc90615344565b60405180910390fd5b6119ef8282612746565b611a2e576040517f08c379a0000000000000000000000000000000000000000000000000000000008152600401611a25906154a4565b60405180910390fd5b60086000828152602001908152602001600020600083815260200190815260200160002060030160009054906101000a900460ff1615611aa3576040517f08c379a0000000000000000000000000000000000000000000000000000000008152600401611a9a90615464565b60405180910390fd5b6000600860008381526020019081526020016000206000848152602001908152602001600020905060018160030160006101000a81548160ff0219169083151502179055506007600083815260200190815260200160002060010160018260000160009054906101000a900460ff16611b1c9190615968565b60ff1681548110611b56577f4e487b7100000000000000000000000000000000000000000000000000000000600052603260045260246000fd5b906000526020600020015443611b6c919061581c565b8160020181905550611b7c611f1a565b73ffffffffffffffffffffffffffffffffffffffff167f6df84a857323077c8482910b19adbabdd85ac0487da74ee6fe668e0fb9adc0b78484604051611bc392919061557f565b60405180910390a2505050565b6000611bed60016000848152602001908152602001600020612b84565b9050919050565b600043600860008481526020019081526020016000206000858152602001908152602001600020600201541115611c5f574360086000848152602001908152602001600020600085815260200190815260200160002060020154611c589190615934565b9050611c64565b600090505b92915050565b7f9f2df0fed2c77648de5860a4cc508cd0818c85b8b8a1ab4ceeef8d981c8956a681565b611c988282612b99565b611cbd8160016000858152602001908152602001600020611eea90919063ffffffff16565b505050565b600060036000838152602001908152602001600020600084815260200190815260200160002054905092915050565b611cfb8282612bc2565b5050565b6000611d27836000018373ffffffffffffffffffffffffffffffffffffffff1660001b612ca2565b905092915050565b60006002600083815260200190815260200160002060030160009054906101000a900460ff169050919050565b60007f75205675000000000000000000000000000000000000000000000000000000007bffffffffffffffffffffffffffffffffffffffffffffffffffffffff1916827bffffffffffffffffffffffffffffffffffffffffffffffffffffffff19161480611e2757507fd5298fa3000000000000000000000000000000000000000000000000000000007bffffffffffffffffffffffffffffffffffffffffffffffffffffffff1916827bffffffffffffffffffffffffffffffffffffffffffffffffffffffff1916145b80611e375750611e3682612d12565b5b9050919050565b611e478261088f565b611e5881611e53611f1a565b612d8c565b611e628383612bc2565b505050565b611e6f611f1a565b73ffffffffffffffffffffffffffffffffffffffff168173ffffffffffffffffffffffffffffffffffffffff1614611edc576040517f08c379a0000000000000000000000000000000000000000000000000000000008152600401611ed390615544565b60405180910390fd5b611ee68282612e29565b5050565b6000611f12836000018373ffffffffffffffffffffffffffffffffffffffff1660001b612f0a565b905092915050565b600033905090565b8251845114611f66576040517f08c379a0000000000000000000000000000000000000000000000000000000008152600401611f5d90615524565b60405180910390fd5b8151835114611faa576040517f08c379a0000000000000000000000000000000000000000000000000000000008152600401611fa190615424565b60405180910390fd5b8051825114611fee576040517f08c379a0000000000000000000000000000000000000000000000000000000008152600401611fe5906153a4565b60405180910390fd5b6000611ff8611f1a565b905060005b85518110156122595761204f868281518110612042577f4e487b7100000000000000000000000000000000000000000000000000000000600052603260045260246000fd5b6020026020010151611d2f565b1561208f576040517f08c379a000000000000000000000000000000000000000000000000000000000815260040161208690615324565b60405180910390fd5b600060405180608001604052808784815181106120d5577f4e487b7100000000000000000000000000000000000000000000000000000000600052603260045260246000fd5b6020026020010151815260200186848151811061211b577f4e487b7100000000000000000000000000000000000000000000000000000000600052603260045260246000fd5b60200260200101518152602001858481518110612161577f4e487b7100000000000000000000000000000000000000000000000000000000600052603260045260246000fd5b6020026020010151815260200160011515815250905080600260008985815181106121b5577f4e487b7100000000000000000000000000000000000000000000000000000000600052603260045260246000fd5b6020026020010151815260200190815260200160002060008201518160000190805190602001906121e792919061389e565b50602082015181600101908051906020019061220492919061389e565b50604082015181600201908051906020019061222192919061389e565b5060608201518160030160006101000a81548160ff02191690831515021790555090505050808061225190615aec565b915050611ffd565b5084604051612268919061502f565b60405180910390208173ffffffffffffffffffffffffffffffffffffffff167fa564cb1998afa54a5836b472bb8181177cda6b9978d9291b84cc905926d507f58686866040516122ba939291906150bf565b60405180910390a35050505050565b60006122d3611f1a565b90506123758160008a8a8a80806020026020016040519081016040528093929190818152602001838360200280828437600081840152601f19601f82011690508083019250505050505050898980806020026020016040519081016040528093929190818152602001838360200280828437600081840152601f19601f8201169050808301925050505050505060405180602001604052806000815250613090565b60005b878790508110156126ce576123cb8888838181106123bf577f4e487b7100000000000000000000000000000000000000000000000000000000600052603260045260246000fd5b90506020020135611d2f565b61240a576040517f08c379a000000000000000000000000000000000000000000000000000000000815260040161240190615364565b60405180910390fd5b6000600360008a8a85818110612449577f4e487b7100000000000000000000000000000000000000000000000000000000600052603260045260246000fd5b90506020020135815260200190815260200160002060008b81526020019081526020016000205414156124f057600660008a81526020019081526020016000208888838181106124c2577f4e487b7100000000000000000000000000000000000000000000000000000000600052603260045260246000fd5b9050602002013590806001815401808255809150506001900390600052602060002001600090919091909150555b600084848381811061252b577f4e487b7100000000000000000000000000000000000000000000000000000000600052603260045260246000fd5b905060200281019061253d91906155df565b905011156126025783838281811061257e577f4e487b7100000000000000000000000000000000000000000000000000000000600052603260045260246000fd5b905060200281019061259091906155df565b600460008b8b868181106125cd577f4e487b7100000000000000000000000000000000000000000000000000000000600052603260045260246000fd5b90506020020135815260200190815260200160002060008c81526020019081526020016000209190612600929190613924565b505b85858281811061263b577f4e487b7100000000000000000000000000000000000000000000000000000000600052603260045260246000fd5b90506020020135600360008a8a8581811061267f577f4e487b7100000000000000000000000000000000000000000000000000000000600052603260045260246000fd5b90506020020135815260200190815260200160002060008b815260200190815260200160002060008282546126b4919061581c565b9250508190555080806126c690615aec565b915050612378565b5086866040516126df929190615016565b60405180910390208173ffffffffffffffffffffffffffffffffffffffff167fbfb4d8e5891aebe97980c97616b6b0af2006a58ccabe6e1b7e3da24d0906a85660008b89896040516127349493929190615185565b60405180910390a35050505050505050565b6000806003600084815260200190815260200160002060008581526020019081526020016000205411905092915050565b600081834342446040516020016127919493929190614fc8565b6040516020818303038152906040528051906020012060001c6127b49190615b63565b905092915050565b60006127cb8360000183613098565b60001c905092915050565b6128077f8b16888c296865dbfb46a3f5241555370dc784c1a8890b825830bee0b73996df612802611f1a565b611456565b612846576040517f08c379a000000000000000000000000000000000000000000000000000000000815260040161283d906152e4565b60405180910390fd5b61285385858585856130e9565b5050505050565b606060008214156128a2576040518060400160405280600181526020017f30000000000000000000000000000000000000000000000000000000000000008152509050612a02565b600082905060005b600082146128d45780806128bd90615aec565b915050600a826128cd91906158a9565b91506128aa565b60008167ffffffffffffffff811115612916577f4e487b7100000000000000000000000000000000000000000000000000000000600052604160045260246000fd5b6040519080825280601f01601f1916602001820160405280156129485781602001600182028036833780820191505090505b5090505b600085146129fb576001826129619190615934565b9150600a856129709190615b63565b603061297c919061581c565b60f81b8183815181106129b8577f4e487b7100000000000000000000000000000000000000000000000000000000600052603260045260246000fd5b60200101907effffffffffffffffffffffffffffffffffffffffffffffffffffffffffffff1916908160001a905350600a856129f491906158a9565b945061294c565b8093505050505b919050565b606060405180602001604052806000815250905090565b612a2784611d2f565b15612a67576040517f08c379a0000000000000000000000000000000000000000000000000000000008152600401612a5e90615324565b60405180910390fd5b6000612a71611f1a565b90506000604051806080016040528086815260200185815260200184815260200160011515815250905080600260008881526020019081526020016000206000820151816000019080519060200190612acb92919061389e565b506020820151816001019080519060200190612ae892919061389e565b506040820151816002019080519060200190612b0592919061389e565b5060608201518160030160006101000a81548160ff021916908315150217905550905050858273ffffffffffffffffffffffffffffffffffffffff167f0f95c7b6e09a6cd1ff57e6238b940fa674ce6ce983d94900b6a8a6393929be3f878787604051612b749392919061521e565b60405180910390a3505050505050565b6000612b92826000016132d2565b9050919050565b612ba28261088f565b612bb381612bae611f1a565b612d8c565b612bbd8383612e29565b505050565b612bcc8282611456565b612c9e57600160008084815260200190815260200160002060000160008373ffffffffffffffffffffffffffffffffffffffff1673ffffffffffffffffffffffffffffffffffffffff16815260200190815260200160002060006101000a81548160ff021916908315150217905550612c43611f1a565b73ffffffffffffffffffffffffffffffffffffffff168173ffffffffffffffffffffffffffffffffffffffff16837f2f8788117e7eff1d82e926ec794901d17c78024a50270940304540a733656f0d60405160405180910390a45b5050565b6000612cae83836132e3565b612d07578260000182908060018154018082558091505060019003906000526020600020016000909190919091505582600001805490508360010160008481526020019081526020016000208190555060019050612d0c565b600090505b92915050565b60007f5a05180f000000000000000000000000000000000000000000000000000000007bffffffffffffffffffffffffffffffffffffffffffffffffffffffff1916827bffffffffffffffffffffffffffffffffffffffffffffffffffffffff19161480612d855750612d8482613306565b5b9050919050565b612d968282611456565b612e2557612dbb8173ffffffffffffffffffffffffffffffffffffffff166014613380565b612dc98360001c6020613380565b604051602001612dda92919061506a565b6040516020818303038152906040526040517f08c379a0000000000000000000000000000000000000000000000000000000008152600401612e1c91906151fc565b60405180910390fd5b5050565b612e338282611456565b15612f0657600080600084815260200190815260200160002060000160008373ffffffffffffffffffffffffffffffffffffffff1673ffffffffffffffffffffffffffffffffffffffff16815260200190815260200160002060006101000a81548160ff021916908315150217905550612eab611f1a565b73ffffffffffffffffffffffffffffffffffffffff168173ffffffffffffffffffffffffffffffffffffffff16837ff6391f5c32d9c69d2a47ea670b442974b53935d1edc7fd64eb21e047a839171b60405160405180910390a45b5050565b60008083600101600084815260200190815260200160002054905060008114613084576000600182612f3c9190615934565b9050600060018660000180549050612f549190615934565b905081811461300f576000866000018281548110612f9b577f4e487b7100000000000000000000000000000000000000000000000000000000600052603260045260246000fd5b9060005260206000200154905080876000018481548110612fe5577f4e487b7100000000000000000000000000000000000000000000000000000000600052603260045260246000fd5b90600052602060002001819055508387600101600083815260200190815260200160002081905550505b85600001805480613049577f4e487b7100000000000000000000000000000000000000000000000000000000600052603160045260246000fd5b60019003818190600052602060002001600090559055856001016000868152602001908152602001600020600090556001935050505061308a565b60009150505b92915050565b505050505050565b60008260000182815481106130d6577f4e487b7100000000000000000000000000000000000000000000000000000000600052603260045260246000fd5b9060005260206000200154905092915050565b6130f284611d2f565b613131576040517f08c379a000000000000000000000000000000000000000000000000000000000815260040161312890615484565b60405180910390fd5b600061313b611f1a565b905061316b8160008861314d8961367a565b6131568961367a565b60405180602001604052806000815250613090565b60006003600087815260200190815260200160002060008881526020019081526020016000205414156131f75781156131bb578460056000888152602001908152602001600020819055506131f6565b600660008781526020019081526020016000208590806001815401808255809150506001900390600052602060002001600090919091909150555b5b60008351111561323b578260046000878152602001908152602001600020600088815260200190815260200160002090805190602001906132399291906139aa565b505b83600360008781526020019081526020016000206000888152602001908152602001600020600082825461326f919061581c565b92505081905550848173ffffffffffffffffffffffffffffffffffffffff167f73b5fbfbf0177b0de2ffe9fd0ae9887dd73d0d865db7ab5ff3c4a6b9bb8db1e3600089886040516132c2939291906151c5565b60405180910390a3505050505050565b600081600001805490509050919050565b600080836001016000848152602001908152602001600020541415905092915050565b60007f7965db0b000000000000000000000000000000000000000000000000000000007bffffffffffffffffffffffffffffffffffffffffffffffffffffffff1916827bffffffffffffffffffffffffffffffffffffffffffffffffffffffff19161480613379575061337882613740565b5b9050919050565b60606000600283600261339391906158da565b61339d919061581c565b67ffffffffffffffff8111156133dc577f4e487b7100000000000000000000000000000000000000000000000000000000600052604160045260246000fd5b6040519080825280601f01601f19166020018201604052801561340e5781602001600182028036833780820191505090505b5090507f30000000000000000000000000000000000000000000000000000000000000008160008151811061346c577f4e487b7100000000000000000000000000000000000000000000000000000000600052603260045260246000fd5b60200101907effffffffffffffffffffffffffffffffffffffffffffffffffffffffffffff1916908160001a9053507f7800000000000000000000000000000000000000000000000000000000000000816001815181106134f6577f4e487b7100000000000000000000000000000000000000000000000000000000600052603260045260246000fd5b60200101907effffffffffffffffffffffffffffffffffffffffffffffffffffffffffffff1916908160001a9053506000600184600261353691906158da565b613540919061581c565b90505b600181111561362c577f3031323334353637383961626364656600000000000000000000000000000000600f8616601081106135a8577f4e487b7100000000000000000000000000000000000000000000000000000000600052603260045260246000fd5b1a60f81b8282815181106135e5577f4e487b7100000000000000000000000000000000000000000000000000000000600052603260045260246000fd5b60200101907effffffffffffffffffffffffffffffffffffffffffffffffffffffffffffff1916908160001a905350600485901c94508061362590615a90565b9050613543565b5060008414613670576040517f08c379a0000000000000000000000000000000000000000000000000000000008152600401613667906152c4565b60405180910390fd5b8091505092915050565b60606000600167ffffffffffffffff8111156136bf577f4e487b7100000000000000000000000000000000000000000000000000000000600052604160045260246000fd5b6040519080825280602002602001820160405280156136ed5781602001602082028036833780820191505090505b509050828160008151811061372b577f4e487b7100000000000000000000000000000000000000000000000000000000600052603260045260246000fd5b60200260200101818152505080915050919050565b60007f01ffc9a7000000000000000000000000000000000000000000000000000000007bffffffffffffffffffffffffffffffffffffffffffffffffffffffff1916827bffffffffffffffffffffffffffffffffffffffffffffffffffffffff1916149050919050565b82805482825590600052602060002090601f016020900481019282156138405791602002820160005b8382111561381157835183826101000a81548160ff021916908360ff16021790555092602001926001016020816000010492830192600103026137d3565b801561383e5782816101000a81549060ff0219169055600101602081600001049283019260010302613811565b505b50905061384d9190613a30565b5090565b82805482825590600052602060002090810192821561388d579160200282015b8281111561388c578251825591602001919060010190613871565b5b50905061389a9190613a30565b5090565b8280546138aa90615aba565b90600052602060002090601f0160209004810192826138cc5760008555613913565b82601f106138e557805160ff1916838001178555613913565b82800160010185558215613913579182015b828111156139125782518255916020019190600101906138f7565b5b5090506139209190613a30565b5090565b82805461393090615aba565b90600052602060002090601f0160209004810192826139525760008555613999565b82601f1061396b57803560ff1916838001178555613999565b82800160010185558215613999579182015b8281111561399857823582559160200191906001019061397d565b5b5090506139a69190613a30565b5090565b8280546139b690615aba565b90600052602060002090601f0160209004810192826139d85760008555613a1f565b82601f106139f157805160ff1916838001178555613a1f565b82800160010185558215613a1f579182015b82811115613a1e578251825591602001919060010190613a03565b5b509050613a2c9190613a30565b5090565b5b80821115613a49576000816000905550600101613a31565b5090565b6000613a60613a5b84615667565b615636565b9050808382526020820190508260005b85811015613aa05781358501613a868882613dae565b845260208401935060208301925050600181019050613a70565b5050509392505050565b6000613abd613ab884615693565b615636565b90508083825260208201905082856020860282011115613adc57600080fd5b60005b85811015613b0c5781613af28882613dd8565b845260208401935060208301925050600181019050613adf565b5050509392505050565b6000613b29613b24846156bf565b615636565b90508083825260208201905082856020860282011115613b4857600080fd5b60005b85811015613b785781613b5e8882613ded565b845260208401935060208301925050600181019050613b4b565b5050509392505050565b6000613b95613b90846156eb565b615636565b905082815260208101848484011115613bad57600080fd5b613bb8848285615a4e565b509392505050565b6000613bd3613bce8461571b565b615636565b905082815260208101848484011115613beb57600080fd5b613bf6848285615a4e565b509392505050565b600081359050613c0d81615c6e565b92915050565b60008083601f840112613c2557600080fd5b8235905067ffffffffffffffff811115613c3e57600080fd5b602083019150836020820283011115613c5657600080fd5b9250929050565b60008083601f840112613c6f57600080fd5b8235905067ffffffffffffffff811115613c8857600080fd5b602083019150836020820283011115613ca057600080fd5b9250929050565b60008083601f840112613cb957600080fd5b8235905067ffffffffffffffff811115613cd257600080fd5b602083019150836020820283011115613cea57600080fd5b9250929050565b600082601f830112613d0257600080fd5b8135613d12848260208601613aaa565b91505092915050565b600082601f830112613d2c57600080fd5b8135613d3c848260208601613b16565b91505092915050565b600081359050613d5481615c85565b92915050565b600081359050613d6981615c9c565b92915050565b600081359050613d7e81615cb3565b92915050565b600082601f830112613d9557600080fd5b8135613da5848260208601613b82565b91505092915050565b600082601f830112613dbf57600080fd5b8135613dcf848260208601613bc0565b91505092915050565b600081359050613de781615cca565b92915050565b600081359050613dfc81615ce1565b92915050565b6000806000806000806000806080898b031215613e1e57600080fd5b600089013567ffffffffffffffff811115613e3857600080fd5b613e448b828c01613ca7565b9850985050602089013567ffffffffffffffff811115613e6357600080fd5b613e6f8b828c01613c5d565b9650965050604089013567ffffffffffffffff811115613e8e57600080fd5b613e9a8b828c01613c5d565b9450945050606089013567ffffffffffffffff811115613eb957600080fd5b613ec58b828c01613c5d565b92509250509295985092959890939650565b600060208284031215613ee957600080fd5b6000613ef784828501613d5a565b91505092915050565b60008060408385031215613f1357600080fd5b6000613f2185828601613d5a565b9250506020613f3285828601613bfe565b9150509250929050565b60008060408385031215613f4f57600080fd5b6000613f5d85828601613d5a565b9250506020613f6e85828601613dd8565b9150509250929050565b600060208284031215613f8a57600080fd5b6000613f9884828501613d6f565b91505092915050565b600060208284031215613fb357600080fd5b6000613fc184828501613dd8565b91505092915050565b600080600060408486031215613fdf57600080fd5b6000613fed86828701613dd8565b935050602084013567ffffffffffffffff81111561400a57600080fd5b61401686828701613ca7565b92509250509250925092565b60008060008060008060006080888a03121561403d57600080fd5b600061404b8a828b01613dd8565b975050602088013567ffffffffffffffff81111561406857600080fd5b6140748a828b01613ca7565b9650965050604088013567ffffffffffffffff81111561409357600080fd5b61409f8a828b01613ca7565b9450945050606088013567ffffffffffffffff8111156140be57600080fd5b6140ca8a828b01613c13565b925092505092959891949750929550565b600080600080608085870312156140f157600080fd5b60006140ff87828801613dd8565b945050602085013567ffffffffffffffff81111561411c57600080fd5b61412887828801613dae565b935050604085013567ffffffffffffffff81111561414557600080fd5b61415187828801613dae565b925050606085013567ffffffffffffffff81111561416e57600080fd5b61417a87828801613dae565b91505092959194509250565b60008060008060008060c0878903121561419f57600080fd5b60006141ad89828a01613dd8565b965050602087013567ffffffffffffffff8111156141ca57600080fd5b6141d689828a01613dae565b955050604087013567ffffffffffffffff8111156141f357600080fd5b6141ff89828a01613dae565b945050606087013567ffffffffffffffff81111561421c57600080fd5b61422889828a01613dae565b935050608087013567ffffffffffffffff81111561424557600080fd5b61425189828a01613d1b565b92505060a087013567ffffffffffffffff81111561426e57600080fd5b61427a89828a01613cf1565b9150509295509295509295565b6000806040838503121561429a57600080fd5b60006142a885828601613dd8565b92505060206142b985828601613dd8565b9150509250929050565b600080600080600060a086880312156142db57600080fd5b60006142e988828901613dd8565b95505060206142fa88828901613dd8565b945050604061430b88828901613dd8565b935050606086013567ffffffffffffffff81111561432857600080fd5b61433488828901613d84565b925050608061434588828901613d45565b9150509295509295909350565b600061435e8383614603565b905092915050565b60006143728383614f84565b60208301905092915050565b600061438a8383614fa2565b60208301905092915050565b61439f8161599c565b82525050565b6143b66143b18261599c565b615b35565b82525050565b60006143c78261576b565b6143d181856157b1565b9350836020820285016143e38561574b565b8060005b8581101561441f57848403895281516144008582614352565b945061440b83615797565b925060208a019950506001810190506143e7565b50829750879550505050505092915050565b600061443d83856157c2565b93507f07ffffffffffffffffffffffffffffffffffffffffffffffffffffffffffffff83111561446c57600080fd5b60208302925061447d838584615a4e565b82840190509392505050565b600061449583856157d3565b93507f07ffffffffffffffffffffffffffffffffffffffffffffffffffffffffffffff8311156144c457600080fd5b6020830292506144d5838584615a4e565b82840190509392505050565b60006144ec82615776565b6144f681856157c2565b93506145018361575b565b8060005b838110156145325781516145198882614366565b9750614524836157a4565b925050600181019050614505565b5085935050505092915050565b600061454a82615776565b61455481856157d3565b935061455f8361575b565b8060005b83811015614590578151614577888261437e565b9750614582836157a4565b925050600181019050614563565b5085935050505092915050565b6145a6816159ae565b82525050565b6145b5816159ba565b82525050565b60006145c682615781565b6145d081856157de565b93506145e0818560208601615a5d565b6145e981615c50565b840191505092915050565b6145fd81615a3c565b82525050565b600061460e8261578c565b61461881856157ef565b9350614628818560208601615a5d565b61463181615c50565b840191505092915050565b60006146478261578c565b6146518185615800565b9350614661818560208601615a5d565b61466a81615c50565b840191505092915050565b60006146808261578c565b61468a8185615811565b935061469a818560208601615a5d565b80840191505092915050565b60006146b3602083615800565b91507f537472696e67733a20686578206c656e67746820696e73756666696369656e746000830152602082019050919050565b60006146f3602f83615800565b91507f4552433336363447656e657269633a206d75737420686176652061747461636860008301527f20726f6c6520746f2061747461636800000000000000000000000000000000006020830152604082019050919050565b6000614759603883615800565b91507f4552433336363445766f6c7661626c653a206d75737420686176652065766f6c60008301527f75746976657220726f6c6520746f2065766f6c757469766500000000000000006020830152604082019050919050565b60006147bf602183615800565b91507f455243333636343a2061747472696275746520616c726561647920657869737460008301527f73000000000000000000000000000000000000000000000000000000000000006020830152604082019050919050565b6000614825603583615800565b91507f4552433336363445766f6c7661626c653a206d75737420686176652065766f6c60008301527f75746976657220726f6c6520746f2072657061697200000000000000000000006020830152604082019050919050565b600061488b602e83615800565b91507f455243333636343a20626174636841747461636820666f72206e6f6e6578697360008301527f74656e74206174747269627574650000000000000000000000000000000000006020830152604082019050919050565b60006148f1602f83615800565b91507f455243333636343a2073796d626f6c20717565727920666f72206e6f6e65786960008301527f7374656e742061747472696275746500000000000000000000000000000000006020830152604082019050919050565b6000614957602983615800565b91507f455243333636343a2073796d626f6c7320616e642075726973206c656e67746860008301527f206d69736d6174636800000000000000000000000000000000000000000000006020830152604082019050919050565b60006149bd602283615800565b91507f4552433336363445766f6c7661626c653a20746f6b656e206861732062726f6b60008301527f656e0000000000000000000000000000000000000000000000000000000000006020830152604082019050919050565b6000614a23604683615800565b91507f4552433336363445766f6c7661626c653a2070726f626162696c69746965732060008301527f616e642065766f6c7574697665496e74657276616c73206c656e677468206d6960208301527f736d6174636800000000000000000000000000000000000000000000000000006040830152606082019050919050565b6000614aaf602c83615800565b91507f455243333636343a2055524920717565727920666f72206e6f6e65786973746560008301527f6e742061747472696275746500000000000000000000000000000000000000006020830152604082019050919050565b6000614b15602a83615800565b91507f455243333636343a206e616d657320616e642073796d626f6c73206c656e677460008301527f68206d69736d61746368000000000000000000000000000000000000000000006020830152604082019050919050565b6000614b7b602d83615800565b91507f4552433336363447656e657269633a206d7573742068617665206d696e74657260008301527f20726f6c6520746f206d696e74000000000000000000000000000000000000006020830152604082019050919050565b6000614be1602183615800565b91507f4552433336363445766f6c7661626c653a20746f6b656e206973206e6f726d6160008301527f6c000000000000000000000000000000000000000000000000000000000000006020830152604082019050919050565b6000614c47602983615800565b91507f455243333636343a2061747461636820666f72206e6f6e6578697374656e742060008301527f61747472696275746500000000000000000000000000000000000000000000006020830152604082019050919050565b6000614cad603683615800565b91507f4552433336363445766f6c7661626c653a20746f6b656e20686173206e6f742060008301527f61747461636865642074686520617474726962757465000000000000000000006020830152604082019050919050565b6000614d13603083615800565b91507f45766f6c7661626c654174747269627574653a20646964206e6f74207265616360008301527f682065766f6c7574696f6e2074696d65000000000000000000000000000000006020830152604082019050919050565b6000614d79602c83615800565b91507f4552433336363445766f6c7661626c653a20657863656564656420746865206d60008301527f6178696d756d206c6576656c00000000000000000000000000000000000000006020830152604082019050919050565b6000614ddf601783615811565b91507f416363657373436f6e74726f6c3a206163636f756e74200000000000000000006000830152601782019050919050565b6000614e1f602d83615800565b91507f455243333636343a206e616d6520717565727920666f72206e6f6e657869737460008301527f656e7420617474726962757465000000000000000000000000000000000000006020830152604082019050919050565b6000614e85602a83615800565b91507f455243333636343a206174747249647320616e64206e616d6573206c656e677460008301527f68206d69736d61746368000000000000000000000000000000000000000000006020830152604082019050919050565b6000614eeb601183615811565b91507f206973206d697373696e6720726f6c65200000000000000000000000000000006000830152601182019050919050565b6000614f2b602f83615800565b91507f416363657373436f6e74726f6c3a2063616e206f6e6c792072656e6f756e636560008301527f20726f6c657320666f722073656c6600000000000000000000000000000000006020830152604082019050919050565b614f8d81615a10565b82525050565b614f9c81615a10565b82525050565b614fab81615a10565b82525050565b614fc2614fbd82615a10565b615b59565b82525050565b6000614fd482876143a5565b601482019150614fe48286614fb1565b602082019150614ff48285614fb1565b6020820191506150048284614fb1565b60208201915081905095945050505050565b6000615023828486614489565b91508190509392505050565b600061503b828461453f565b915081905092915050565b60006150528285614675565b915061505e8284614675565b91508190509392505050565b600061507582614dd2565b91506150818285614675565b915061508c82614ede565b91506150988284614675565b91508190509392505050565b60006020820190506150b96000830184614396565b92915050565b600060608201905081810360008301526150d981866143bc565b905081810360208301526150ed81856143bc565b9050818103604083015261510181846143bc565b9050949350505050565b6000602082019050818103600083015261512581846144e1565b905092915050565b6000602082019050615142600083018461459d565b92915050565b600060208201905061515d60008301846145ac565b92915050565b6000602082019050818103600083015261517d81846145bb565b905092915050565b600060608201905061519a60008301876145f4565b6151a76020830186614f93565b81810360408301526151ba818486614431565b905095945050505050565b60006060820190506151da60008301866145f4565b6151e76020830185614f93565b6151f46040830184614f93565b949350505050565b60006020820190508181036000830152615216818461463c565b905092915050565b60006060820190508181036000830152615238818661463c565b9050818103602083015261524c818561463c565b90508181036040830152615260818461463c565b9050949350505050565b60006080820190508181036000830152615284818761463c565b90508181036020830152615298818661463c565b905081810360408301526152ac818561463c565b90506152bb606083018461459d565b95945050505050565b600060208201905081810360008301526152dd816146a6565b9050919050565b600060208201905081810360008301526152fd816146e6565b9050919050565b6000602082019050818103600083015261531d8161474c565b9050919050565b6000602082019050818103600083015261533d816147b2565b9050919050565b6000602082019050818103600083015261535d81614818565b9050919050565b6000602082019050818103600083015261537d8161487e565b9050919050565b6000602082019050818103600083015261539d816148e4565b9050919050565b600060208201905081810360008301526153bd8161494a565b9050919050565b600060208201905081810360008301526153dd816149b0565b9050919050565b600060208201905081810360008301526153fd81614a16565b9050919050565b6000602082019050818103600083015261541d81614aa2565b9050919050565b6000602082019050818103600083015261543d81614b08565b9050919050565b6000602082019050818103600083015261545d81614b6e565b9050919050565b6000602082019050818103600083015261547d81614bd4565b9050919050565b6000602082019050818103600083015261549d81614c3a565b9050919050565b600060208201905081810360008301526154bd81614ca0565b9050919050565b600060208201905081810360008301526154dd81614d06565b9050919050565b600060208201905081810360008301526154fd81614d6c565b9050919050565b6000602082019050818103600083015261551d81614e12565b9050919050565b6000602082019050818103600083015261553d81614e78565b9050919050565b6000602082019050818103600083015261555d81614f1e565b9050919050565b60006020820190506155796000830184614f93565b92915050565b60006040820190506155946000830185614f93565b6155a16020830184614f93565b9392505050565b60006060820190506155bd6000830186614f93565b6155ca6020830185614f93565b6155d7604083018461459d565b949350505050565b600080833560016020038436030381126155f857600080fd5b80840192508235915067ffffffffffffffff82111561561657600080fd5b60208301925060018202360383131561562e57600080fd5b509250929050565b6000604051905081810181811067ffffffffffffffff8211171561565d5761565c615c21565b5b8060405250919050565b600067ffffffffffffffff82111561568257615681615c21565b5b602082029050602081019050919050565b600067ffffffffffffffff8211156156ae576156ad615c21565b5b602082029050602081019050919050565b600067ffffffffffffffff8211156156da576156d9615c21565b5b602082029050602081019050919050565b600067ffffffffffffffff82111561570657615705615c21565b5b601f19601f8301169050602081019050919050565b600067ffffffffffffffff82111561573657615735615c21565b5b601f19601f8301169050602081019050919050565b6000819050602082019050919050565b6000819050602082019050919050565b600081519050919050565b600081519050919050565b600081519050919050565b600081519050919050565b6000602082019050919050565b6000602082019050919050565b600082825260208201905092915050565b600082825260208201905092915050565b600081905092915050565b600082825260208201905092915050565b600082825260208201905092915050565b600082825260208201905092915050565b600081905092915050565b600061582782615a10565b915061583283615a10565b9250827fffffffffffffffffffffffffffffffffffffffffffffffffffffffffffffffff0382111561586757615866615b94565b5b828201905092915050565b600061587d82615a1a565b915061588883615a1a565b92508260ff0382111561589e5761589d615b94565b5b828201905092915050565b60006158b482615a10565b91506158bf83615a10565b9250826158cf576158ce615bc3565b5b828204905092915050565b60006158e582615a10565b91506158f083615a10565b9250817fffffffffffffffffffffffffffffffffffffffffffffffffffffffffffffffff048311821515161561592957615928615b94565b5b828202905092915050565b600061593f82615a10565b915061594a83615a10565b92508282101561595d5761595c615b94565b5b828203905092915050565b600061597382615a1a565b915061597e83615a1a565b92508282101561599157615990615b94565b5b828203905092915050565b60006159a7826159f0565b9050919050565b60008115159050919050565b6000819050919050565b60007fffffffff0000000000000000000000000000000000000000000000000000000082169050919050565b600073ffffffffffffffffffffffffffffffffffffffff82169050919050565b6000819050919050565b600060ff82169050919050565b6000615a34368484613a4d565b905092915050565b6000615a4782615a10565b9050919050565b82818337600083830152505050565b60005b83811015615a7b578082015181840152602081019050615a60565b83811115615a8a576000848401525b50505050565b6000615a9b82615a10565b91506000821415615aaf57615aae615b94565b5b600182039050919050565b60006002820490506001821680615ad257607f821691505b60208210811415615ae657615ae5615bf2565b5b50919050565b6000615af782615a10565b91507fffffffffffffffffffffffffffffffffffffffffffffffffffffffffffffffff821415615b2a57615b29615b94565b5b600182019050919050565b6000615b4082615b47565b9050919050565b6000615b5282615c61565b9050919050565b6000819050919050565b6000615b6e82615a10565b9150615b7983615a10565b925082615b8957615b88615bc3565b5b828206905092915050565b7f4e487b7100000000000000000000000000000000000000000000000000000000600052601160045260246000fd5b7f4e487b7100000000000000000000000000000000000000000000000000000000600052601260045260246000fd5b7f4e487b7100000000000000000000000000000000000000000000000000000000600052602260045260246000fd5b7f4e487b7100000000000000000000000000000000000000000000000000000000600052604160045260246000fd5b6000601f19601f8301169050919050565b60008160601b9050919050565b615c778161599c565b8114615c8257600080fd5b50565b615c8e816159ae565b8114615c9957600080fd5b50565b615ca5816159ba565b8114615cb057600080fd5b50565b615cbc816159c4565b8114615cc757600080fd5b50565b615cd381615a10565b8114615cde57600080fd5b50565b615cea81615a1a565b8114615cf557600080fd5b5056fea26469706673582212207d0ce846fd99970a52650752b4abb52cfcae2e4a80d03f08281d54cf317ddf9764736f6c63430008000033",
  "immutableReferences": {},
  "source": "// SPDX-License-Identifier: MIT\r\n\r\npragma solidity ^0.8.0;\r\n\r\nimport \"./IERC3664Evolvable.sol\";\r\nimport \"./ERC3664Generic.sol\";\r\n\r\ncontract ERC3664Evolvable is ERC3664Generic, IERC3664Evolvable {\r\n    bytes32 public constant EVOLUTIVER_ROLE = keccak256(\"EVOLUTIVER_ROLE\");\r\n\r\n    struct EvolutiveSettings {\r\n        // Probability in basis points (out of 100) of receiving each level (descending)\r\n        uint8[] probabilities;\r\n        // Block interval required for evolutive\r\n        uint256[] evolutiveIntervals;\r\n    }\r\n\r\n    struct EvolutiveState {\r\n        uint8 curLevel;\r\n        uint256 birthBlock;\r\n        uint256 nextEvolutiveBlock;\r\n        // normal or broken\r\n        bool status;\r\n    }\r\n\r\n    // attribute ID => evolutive settings\r\n    mapping(uint256 => EvolutiveSettings) private _settings;\r\n\r\n    // attribute ID => token ID => evolutive state\r\n    mapping(uint256 => mapping(uint256 => EvolutiveState)) private _states;\r\n\r\n    constructor() ERC3664Generic() {\r\n        _setupRole(EVOLUTIVER_ROLE, _msgSender());\r\n    }\r\n\r\n    function period(uint256 tokenId, uint256 attrId)\r\n        public\r\n        view\r\n        override\r\n        returns (uint256)\r\n    {\r\n        if (_states[attrId][tokenId].nextEvolutiveBlock > block.number) {\r\n            return _states[attrId][tokenId].nextEvolutiveBlock - block.number;\r\n        }\r\n        return 0;\r\n    }\r\n\r\n    function mintWith(\r\n        uint256 attrId,\r\n        string memory name,\r\n        string memory symbol,\r\n        string memory uri,\r\n        uint8[] memory probabilities,\r\n        uint256[] memory evolutiveIntervals\r\n    ) public {\r\n        require(\r\n            probabilities.length == evolutiveIntervals.length,\r\n            \"ERC3664Evolvable: probabilities and evolutiveIntervals length mismatch\"\r\n        );\r\n\r\n        super.mint(attrId, name, symbol, uri);\r\n\r\n        _settings[attrId] = EvolutiveSettings(\r\n            probabilities,\r\n            evolutiveIntervals\r\n        );\r\n    }\r\n\r\n    function attach(\r\n        uint256 tokenId,\r\n        uint256 attrId,\r\n        uint256 amount,\r\n        bytes memory text,\r\n        bool isPrimary\r\n    ) public virtual override(ERC3664Generic, IERC3664) {\r\n        super.attach(tokenId, attrId, amount, text, isPrimary);\r\n\r\n        _states[attrId][tokenId] = EvolutiveState(\r\n            1,\r\n            block.number,\r\n            block.number + _settings[attrId].evolutiveIntervals[0],\r\n            true\r\n        );\r\n    }\r\n\r\n    function evolutive(uint256 tokenId, uint256 attrId)\r\n        public\r\n        virtual\r\n        override\r\n    {\r\n        require(\r\n            hasRole(EVOLUTIVER_ROLE, _msgSender()),\r\n            \"ERC3664Evolvable: must have evolutiver role to evolutive\"\r\n        );\r\n        require(\r\n            _hasAttr(tokenId, attrId),\r\n            \"ERC3664Evolvable: token has not attached the attribute\"\r\n        );\r\n        require(\r\n            _states[attrId][tokenId].status,\r\n            \"ERC3664Evolvable: token has broken\"\r\n        );\r\n        uint8 curLv = _states[attrId][tokenId].curLevel;\r\n        require(\r\n            curLv <= _settings[attrId].probabilities.length,\r\n            \"ERC3664Evolvable: exceeded the maximum level\"\r\n        );\r\n        require(\r\n            block.number >= _states[attrId][tokenId].nextEvolutiveBlock,\r\n            \"EvolvableAttribute: did not reach evolution time\"\r\n        );\r\n\r\n        // random evolutive\r\n        EvolutiveState storage s = _states[attrId][tokenId];\r\n        uint256 n = _seed(_msgSender(), 100);\r\n        if (n <= _settings[attrId].probabilities[curLv - 1]) {\r\n            // succeed\r\n            s.curLevel += 1;\r\n            s.nextEvolutiveBlock = _settings[attrId].probabilities[curLv];\r\n        } else {\r\n            // failed\r\n            s.status = false;\r\n        }\r\n\r\n        emit AttributeEvolvable(_msgSender(), tokenId, attrId, s.status);\r\n    }\r\n\r\n    function repair(uint256 tokenId, uint256 attrId) public virtual override {\r\n        require(\r\n            hasRole(EVOLUTIVER_ROLE, _msgSender()),\r\n            \"ERC3664Evolvable: must have evolutiver role to repair\"\r\n        );\r\n        require(\r\n            _hasAttr(tokenId, attrId),\r\n            \"ERC3664Evolvable: token has not attached the attribute\"\r\n        );\r\n        require(\r\n            !_states[attrId][tokenId].status,\r\n            \"ERC3664Evolvable: token is normal\"\r\n        );\r\n\r\n        EvolutiveState storage s = _states[attrId][tokenId];\r\n        s.status = true;\r\n        s.nextEvolutiveBlock =\r\n            block.number +\r\n            _settings[attrId].evolutiveIntervals[s.curLevel - 1];\r\n\r\n        emit AttributeRepaired(_msgSender(), tokenId, attrId);\r\n    }\r\n\r\n    function _seed(address _user, uint256 _supply)\r\n        internal\r\n        view\r\n        returns (uint256)\r\n    {\r\n        return\r\n            uint256(\r\n                uint256(\r\n                    keccak256(\r\n                        abi.encodePacked(\r\n                            _user,\r\n                            block.number,\r\n                            block.timestamp,\r\n                            block.difficulty\r\n                        )\r\n                    )\r\n                ) % _supply\r\n            );\r\n    }\r\n}\r\n",
  "sourcePath": "D:\\MetaNFT\\MetaNFT\\contracts\\ERC3664\\extensions\\ERC3664Evolvable.sol",
  "compiler": {
    "name": "solc",
    "version": "0.8.0+commit.c7dfd78e.Emscripten.clang"
  },
  "schemaVersion": "3.4.3",
  "updatedAt": "2021-09-22T09:26:13.383Z",
  "devdoc": {
    "kind": "dev",
    "methods": {
      "attrURI(uint256)": {
        "details": "See {IERC721Metadata-attrURI}."
      },
      "attributesOf(uint256)": {
        "details": "See {IERC3664-attributesOf}."
      },
      "balanceOf(uint256,uint256)": {
        "details": "See {IERC3664-balanceOf}."
      },
      "balanceOfBatch(uint256,uint256[])": {
        "details": "See {IERC3664-balanceOfBatch}."
      },
      "batchAttach(uint256,uint256[],uint256[],bytes[])": {
        "details": "See {ERC3664-batchAttach}."
      },
      "getRoleAdmin(bytes32)": {
        "details": "Returns the admin role that controls `role`. See {grantRole} and {revokeRole}. To change a role's admin, use {_setRoleAdmin}."
      },
      "getRoleMember(bytes32,uint256)": {
        "details": "Returns one of the accounts that have `role`. `index` must be a value between 0 and {getRoleMemberCount}, non-inclusive. Role bearers are not sorted in any particular way, and their ordering may change at any point. WARNING: When using {getRoleMember} and {getRoleMemberCount}, make sure you perform all queries on the same block. See the following https://forum.openzeppelin.com/t/iterating-over-elements-on-enumerableset-in-openzeppelin-contracts/2296[forum post] for more information."
      },
      "getRoleMemberCount(bytes32)": {
        "details": "Returns the number of accounts that have `role`. Can be used together with {getRoleMember} to enumerate all bearers of a role."
      },
      "grantRole(bytes32,address)": {
        "details": "Overload {grantRole} to track enumerable memberships"
      },
      "hasRole(bytes32,address)": {
        "details": "Returns `true` if `account` has been granted `role`."
      },
      "mint(uint256,string,string,string)": {
        "details": "Mint new attribute type with metadata. See {ERC3664-_mint}."
      },
      "mintBatch(uint256[],string[],string[],string[])": {
        "details": "[Batched] version of {mint}."
      },
      "name(uint256)": {
        "details": "See {IERC3664Metadata-name}."
      },
      "primaryAttributeOf(uint256)": {
        "details": "Returns primary attribute type of owned by `tokenId`."
      },
      "renounceRole(bytes32,address)": {
        "details": "Overload {renounceRole} to track enumerable memberships"
      },
      "revokeRole(bytes32,address)": {
        "details": "Overload {revokeRole} to track enumerable memberships"
      },
      "supportsInterface(bytes4)": {
        "details": "See {IERC165-supportsInterface}."
      },
      "symbol(uint256)": {
        "details": "See {IERC3664Metadata-symbol}."
      },
      "textOf(uint256,uint256)": {
        "details": "See {IERC3664-textOf}."
      }
    },
    "version": 1
  },
  "userdoc": {
    "kind": "user",
    "methods": {},
    "version": 1
  }
}