{
  "contractName": "ERC3664Updatable",
  "abi": [
    {
      "inputs": [],
      "stateMutability": "nonpayable",
      "type": "constructor"
    },
    {
      "anonymous": false,
      "inputs": [
        {
          "indexed": true,
          "internalType": "address",
          "name": "operator",
          "type": "address"
        },
        {
          "indexed": true,
          "internalType": "uint256",
          "name": "attrId",
          "type": "uint256"
        },
        {
          "indexed": false,
          "internalType": "string",
          "name": "name",
          "type": "string"
        },
        {
          "indexed": false,
          "internalType": "string",
          "name": "symbol",
          "type": "string"
        },
        {
          "indexed": false,
          "internalType": "string",
          "name": "uri",
          "type": "string"
        }
      ],
      "name": "NewAttribute",
      "type": "event"
    },
    {
      "anonymous": false,
      "inputs": [
        {
          "indexed": true,
          "internalType": "address",
          "name": "operator",
          "type": "address"
        },
        {
          "indexed": true,
          "internalType": "uint256[]",
          "name": "attrIds",
          "type": "uint256[]"
        },
        {
          "indexed": false,
          "internalType": "string[]",
          "name": "names",
          "type": "string[]"
        },
        {
          "indexed": false,
          "internalType": "string[]",
          "name": "symbols",
          "type": "string[]"
        },
        {
          "indexed": false,
          "internalType": "string[]",
          "name": "uris",
          "type": "string[]"
        }
      ],
      "name": "NewAttributeBatch",
      "type": "event"
    },
    {
      "anonymous": false,
      "inputs": [
        {
          "indexed": true,
          "internalType": "bytes32",
          "name": "role",
          "type": "bytes32"
        },
        {
          "indexed": true,
          "internalType": "bytes32",
          "name": "previousAdminRole",
          "type": "bytes32"
        },
        {
          "indexed": true,
          "internalType": "bytes32",
          "name": "newAdminRole",
          "type": "bytes32"
        }
      ],
      "name": "RoleAdminChanged",
      "type": "event"
    },
    {
      "anonymous": false,
      "inputs": [
        {
          "indexed": true,
          "internalType": "bytes32",
          "name": "role",
          "type": "bytes32"
        },
        {
          "indexed": true,
          "internalType": "address",
          "name": "account",
          "type": "address"
        },
        {
          "indexed": true,
          "internalType": "address",
          "name": "sender",
          "type": "address"
        }
      ],
      "name": "RoleGranted",
      "type": "event"
    },
    {
      "anonymous": false,
      "inputs": [
        {
          "indexed": true,
          "internalType": "bytes32",
          "name": "role",
          "type": "bytes32"
        },
        {
          "indexed": true,
          "internalType": "address",
          "name": "account",
          "type": "address"
        },
        {
          "indexed": true,
          "internalType": "address",
          "name": "sender",
          "type": "address"
        }
      ],
      "name": "RoleRevoked",
      "type": "event"
    },
    {
      "anonymous": false,
      "inputs": [
        {
          "indexed": true,
          "internalType": "address",
          "name": "operator",
          "type": "address"
        },
        {
          "indexed": false,
          "internalType": "uint256",
          "name": "from",
          "type": "uint256"
        },
        {
          "indexed": false,
          "internalType": "uint256",
          "name": "to",
          "type": "uint256"
        },
        {
          "indexed": true,
          "internalType": "uint256[]",
          "name": "attrIds",
          "type": "uint256[]"
        },
        {
          "indexed": false,
          "internalType": "uint256[]",
          "name": "values",
          "type": "uint256[]"
        }
      ],
      "name": "TransferBatch",
      "type": "event"
    },
    {
      "anonymous": false,
      "inputs": [
        {
          "indexed": true,
          "internalType": "address",
          "name": "operator",
          "type": "address"
        },
        {
          "indexed": false,
          "internalType": "uint256",
          "name": "from",
          "type": "uint256"
        },
        {
          "indexed": false,
          "internalType": "uint256",
          "name": "to",
          "type": "uint256"
        },
        {
          "indexed": true,
          "internalType": "uint256",
          "name": "attrId",
          "type": "uint256"
        },
        {
          "indexed": false,
          "internalType": "uint256",
          "name": "value",
          "type": "uint256"
        }
      ],
      "name": "TransferSingle",
      "type": "event"
    },
    {
      "inputs": [],
      "name": "ATTACH_ROLE",
      "outputs": [
        {
          "internalType": "bytes32",
          "name": "",
          "type": "bytes32"
        }
      ],
      "stateMutability": "view",
      "type": "function"
    },
    {
      "inputs": [],
      "name": "DEFAULT_ADMIN_ROLE",
      "outputs": [
        {
          "internalType": "bytes32",
          "name": "",
          "type": "bytes32"
        }
      ],
      "stateMutability": "view",
      "type": "function"
    },
    {
      "inputs": [],
      "name": "MINTER_ROLE",
      "outputs": [
        {
          "internalType": "bytes32",
          "name": "",
          "type": "bytes32"
        }
      ],
      "stateMutability": "view",
      "type": "function"
    },
    {
      "inputs": [],
      "name": "UPDATER_ROLE",
      "outputs": [
        {
          "internalType": "bytes32",
          "name": "",
          "type": "bytes32"
        }
      ],
      "stateMutability": "view",
      "type": "function"
    },
    {
      "inputs": [
        {
          "internalType": "uint256",
          "name": "",
          "type": "uint256"
        }
      ],
      "name": "_attrMetadatas",
      "outputs": [
        {
          "internalType": "string",
          "name": "name",
          "type": "string"
        },
        {
          "internalType": "string",
          "name": "symbol",
          "type": "string"
        },
        {
          "internalType": "string",
          "name": "uri",
          "type": "string"
        },
        {
          "internalType": "bool",
          "name": "exist",
          "type": "bool"
        }
      ],
      "stateMutability": "view",
      "type": "function"
    },
    {
      "inputs": [
        {
          "internalType": "uint256",
          "name": "",
          "type": "uint256"
        },
        {
          "internalType": "uint256",
          "name": "",
          "type": "uint256"
        }
      ],
      "name": "_balances",
      "outputs": [
        {
          "internalType": "uint256",
          "name": "",
          "type": "uint256"
        }
      ],
      "stateMutability": "view",
      "type": "function"
    },
    {
      "inputs": [
        {
          "internalType": "uint256",
          "name": "",
          "type": "uint256"
        },
        {
          "internalType": "uint256",
          "name": "",
          "type": "uint256"
        }
      ],
      "name": "_texts",
      "outputs": [
        {
          "internalType": "bytes",
          "name": "",
          "type": "bytes"
        }
      ],
      "stateMutability": "view",
      "type": "function"
    },
    {
      "inputs": [
        {
          "internalType": "uint256",
          "name": "tokenId",
          "type": "uint256"
        },
        {
          "internalType": "uint256",
          "name": "attrId",
          "type": "uint256"
        },
        {
          "internalType": "uint256",
          "name": "amount",
          "type": "uint256"
        },
        {
          "internalType": "bytes",
          "name": "text",
          "type": "bytes"
        },
        {
          "internalType": "bool",
          "name": "isPrimary",
          "type": "bool"
        }
      ],
      "name": "attach",
      "outputs": [],
      "stateMutability": "nonpayable",
      "type": "function"
    },
    {
      "inputs": [
        {
          "internalType": "uint256",
          "name": "attrId",
          "type": "uint256"
        }
      ],
      "name": "attrURI",
      "outputs": [
        {
          "internalType": "string",
          "name": "",
          "type": "string"
        }
      ],
      "stateMutability": "view",
      "type": "function"
    },
    {
      "inputs": [
        {
          "internalType": "uint256",
          "name": "tokenId",
          "type": "uint256"
        }
      ],
      "name": "attributesOf",
      "outputs": [
        {
          "internalType": "uint256[]",
          "name": "",
          "type": "uint256[]"
        }
      ],
      "stateMutability": "view",
      "type": "function"
    },
    {
      "inputs": [
        {
          "internalType": "uint256",
          "name": "tokenId",
          "type": "uint256"
        },
        {
          "internalType": "uint256",
          "name": "attrId",
          "type": "uint256"
        }
      ],
      "name": "balanceOf",
      "outputs": [
        {
          "internalType": "uint256",
          "name": "",
          "type": "uint256"
        }
      ],
      "stateMutability": "view",
      "type": "function"
    },
    {
      "inputs": [
        {
          "internalType": "uint256",
          "name": "tokenId",
          "type": "uint256"
        },
        {
          "internalType": "uint256[]",
          "name": "attrIds",
          "type": "uint256[]"
        }
      ],
      "name": "balanceOfBatch",
      "outputs": [
        {
          "internalType": "uint256[]",
          "name": "",
          "type": "uint256[]"
        }
      ],
      "stateMutability": "view",
      "type": "function"
    },
    {
      "inputs": [
        {
          "internalType": "uint256",
          "name": "tokenId",
          "type": "uint256"
        },
        {
          "internalType": "uint256[]",
          "name": "attrIds",
          "type": "uint256[]"
        },
        {
          "internalType": "uint256[]",
          "name": "amounts",
          "type": "uint256[]"
        },
        {
          "internalType": "bytes[]",
          "name": "texts",
          "type": "bytes[]"
        }
      ],
      "name": "batchAttach",
      "outputs": [],
      "stateMutability": "nonpayable",
      "type": "function"
    },
    {
      "inputs": [
        {
          "internalType": "bytes32",
          "name": "role",
          "type": "bytes32"
        }
      ],
      "name": "getRoleAdmin",
      "outputs": [
        {
          "internalType": "bytes32",
          "name": "",
          "type": "bytes32"
        }
      ],
      "stateMutability": "view",
      "type": "function"
    },
    {
      "inputs": [
        {
          "internalType": "bytes32",
          "name": "role",
          "type": "bytes32"
        },
        {
          "internalType": "uint256",
          "name": "index",
          "type": "uint256"
        }
      ],
      "name": "getRoleMember",
      "outputs": [
        {
          "internalType": "address",
          "name": "",
          "type": "address"
        }
      ],
      "stateMutability": "view",
      "type": "function"
    },
    {
      "inputs": [
        {
          "internalType": "bytes32",
          "name": "role",
          "type": "bytes32"
        }
      ],
      "name": "getRoleMemberCount",
      "outputs": [
        {
          "internalType": "uint256",
          "name": "",
          "type": "uint256"
        }
      ],
      "stateMutability": "view",
      "type": "function"
    },
    {
      "inputs": [
        {
          "internalType": "bytes32",
          "name": "role",
          "type": "bytes32"
        },
        {
          "internalType": "address",
          "name": "account",
          "type": "address"
        }
      ],
      "name": "grantRole",
      "outputs": [],
      "stateMutability": "nonpayable",
      "type": "function"
    },
    {
      "inputs": [
        {
          "internalType": "bytes32",
          "name": "role",
          "type": "bytes32"
        },
        {
          "internalType": "address",
          "name": "account",
          "type": "address"
        }
      ],
      "name": "hasRole",
      "outputs": [
        {
          "internalType": "bool",
          "name": "",
          "type": "bool"
        }
      ],
      "stateMutability": "view",
      "type": "function"
    },
    {
      "inputs": [
        {
          "internalType": "uint256",
          "name": "attrId",
          "type": "uint256"
        },
        {
          "internalType": "string",
          "name": "_name",
          "type": "string"
        },
        {
          "internalType": "string",
          "name": "_symbol",
          "type": "string"
        },
        {
          "internalType": "string",
          "name": "_uri",
          "type": "string"
        }
      ],
      "name": "mint",
      "outputs": [],
      "stateMutability": "nonpayable",
      "type": "function"
    },
    {
      "inputs": [
        {
          "internalType": "uint256[]",
          "name": "attrIds",
          "type": "uint256[]"
        },
        {
          "internalType": "string[]",
          "name": "names",
          "type": "string[]"
        },
        {
          "internalType": "string[]",
          "name": "symbols",
          "type": "string[]"
        },
        {
          "internalType": "string[]",
          "name": "uris",
          "type": "string[]"
        }
      ],
      "name": "mintBatch",
      "outputs": [],
      "stateMutability": "nonpayable",
      "type": "function"
    },
    {
      "inputs": [
        {
          "internalType": "uint256",
          "name": "attrId",
          "type": "uint256"
        }
      ],
      "name": "name",
      "outputs": [
        {
          "internalType": "string",
          "name": "",
          "type": "string"
        }
      ],
      "stateMutability": "view",
      "type": "function"
    },
    {
      "inputs": [
        {
          "internalType": "uint256",
          "name": "tokenId",
          "type": "uint256"
        }
      ],
      "name": "primaryAttributeOf",
      "outputs": [
        {
          "internalType": "uint256",
          "name": "",
          "type": "uint256"
        }
      ],
      "stateMutability": "view",
      "type": "function"
    },
    {
      "inputs": [
        {
          "internalType": "uint256",
          "name": "",
          "type": "uint256"
        }
      ],
      "name": "primaryAttrs",
      "outputs": [
        {
          "internalType": "uint256",
          "name": "",
          "type": "uint256"
        }
      ],
      "stateMutability": "view",
      "type": "function"
    },
    {
      "inputs": [
        {
          "internalType": "bytes32",
          "name": "role",
          "type": "bytes32"
        },
        {
          "internalType": "address",
          "name": "account",
          "type": "address"
        }
      ],
      "name": "renounceRole",
      "outputs": [],
      "stateMutability": "nonpayable",
      "type": "function"
    },
    {
      "inputs": [
        {
          "internalType": "bytes32",
          "name": "role",
          "type": "bytes32"
        },
        {
          "internalType": "address",
          "name": "account",
          "type": "address"
        }
      ],
      "name": "revokeRole",
      "outputs": [],
      "stateMutability": "nonpayable",
      "type": "function"
    },
    {
      "inputs": [
        {
          "internalType": "uint256",
          "name": "",
          "type": "uint256"
        },
        {
          "internalType": "uint256",
          "name": "",
          "type": "uint256"
        }
      ],
      "name": "secondaryAttrs",
      "outputs": [
        {
          "internalType": "uint256",
          "name": "",
          "type": "uint256"
        }
      ],
      "stateMutability": "view",
      "type": "function"
    },
    {
      "inputs": [
        {
          "internalType": "bytes4",
          "name": "interfaceId",
          "type": "bytes4"
        }
      ],
      "name": "supportsInterface",
      "outputs": [
        {
          "internalType": "bool",
          "name": "",
          "type": "bool"
        }
      ],
      "stateMutability": "view",
      "type": "function"
    },
    {
      "inputs": [
        {
          "internalType": "uint256",
          "name": "attrId",
          "type": "uint256"
        }
      ],
      "name": "symbol",
      "outputs": [
        {
          "internalType": "string",
          "name": "",
          "type": "string"
        }
      ],
      "stateMutability": "view",
      "type": "function"
    },
    {
      "inputs": [
        {
          "internalType": "uint256",
          "name": "tokenId",
          "type": "uint256"
        },
        {
          "internalType": "uint256",
          "name": "attrId",
          "type": "uint256"
        }
      ],
      "name": "textOf",
      "outputs": [
        {
          "internalType": "bytes",
          "name": "",
          "type": "bytes"
        }
      ],
      "stateMutability": "view",
      "type": "function"
    },
    {
      "inputs": [
        {
          "internalType": "uint256",
          "name": "tokenId",
          "type": "uint256"
        },
        {
          "internalType": "uint256",
          "name": "attrId",
          "type": "uint256"
        }
      ],
      "name": "remove",
      "outputs": [],
      "stateMutability": "nonpayable",
      "type": "function"
    },
    {
      "inputs": [
        {
          "internalType": "uint256",
          "name": "tokenId",
          "type": "uint256"
        },
        {
          "internalType": "uint256",
          "name": "attrId",
          "type": "uint256"
        },
        {
          "internalType": "uint256",
          "name": "amount",
          "type": "uint256"
        }
      ],
      "name": "increase",
      "outputs": [],
      "stateMutability": "nonpayable",
      "type": "function"
    },
    {
      "inputs": [
        {
          "internalType": "uint256",
          "name": "tokenId",
          "type": "uint256"
        },
        {
          "internalType": "uint256",
          "name": "attrId",
          "type": "uint256"
        },
        {
          "internalType": "uint256",
          "name": "amount",
          "type": "uint256"
        }
      ],
      "name": "decrease",
      "outputs": [],
      "stateMutability": "nonpayable",
      "type": "function"
    }
  ],
  "bytecode": "0x60806040523480156200001157600080fd5b50620000366000801b6200002a620000ff60201b60201c565b6200010760201b60201c565b620000777f9f2df0fed2c77648de5860a4cc508cd0818c85b8b8a1ab4ceeef8d981c8956a66200006b620000ff60201b60201c565b6200010760201b60201c565b620000b87f8b16888c296865dbfb46a3f5241555370dc784c1a8890b825830bee0b73996df620000ac620000ff60201b60201c565b6200010760201b60201c565b620000f97f73e573f9566d61418a34d5de3ff49360f9c51fec37f7486551670290f6285dab620000ed620000ff60201b60201c565b6200010760201b60201c565b62000395565b600033905090565b6200011e82826200014f60201b62001a201760201c565b6200014a81600160008581526020019081526020016000206200016560201b62001a2e1790919060201c565b505050565b6200016182826200019d60201b60201c565b5050565b600062000195836000018373ffffffffffffffffffffffffffffffffffffffff1660001b6200028e60201b60201c565b905092915050565b620001af82826200030860201b60201c565b6200028a57600160008084815260200190815260200160002060000160008373ffffffffffffffffffffffffffffffffffffffff1673ffffffffffffffffffffffffffffffffffffffff16815260200190815260200160002060006101000a81548160ff0219169083151502179055506200022f620000ff60201b60201c565b73ffffffffffffffffffffffffffffffffffffffff168173ffffffffffffffffffffffffffffffffffffffff16837f2f8788117e7eff1d82e926ec794901d17c78024a50270940304540a733656f0d60405160405180910390a45b5050565b6000620002a283836200037260201b60201c565b620002fd57826000018290806001815401808255809150506001900390600052602060002001600090919091909150558260000180549050836001016000848152602001908152602001600020819055506001905062000302565b600090505b92915050565b600080600084815260200190815260200160002060000160008373ffffffffffffffffffffffffffffffffffffffff1673ffffffffffffffffffffffffffffffffffffffff16815260200190815260200160002060009054906101000a900460ff16905092915050565b600080836001016000848152602001908152602001600020541415905092915050565b6154e680620003a56000396000f3fe608060405234801561001057600080fd5b50600436106101ef5760003560e01c806387e21d421161010f578063a217fddf116100a2578063d539139311610071578063d539139314610661578063d547741f1461067f578063ea6996331461069b578063f8fb14fa146106cb576101ef565b8063a217fddf146105c7578063acdd1454146105e5578063b888fd0e14610601578063ca15c87314610631576101ef565b8063936ca9e6116100de578063936ca9e61461052d57806398ec8f33146105495780639a046ac5146105675780639bc5ae5414610597576101ef565b806387e21d421461046d5780638df5a7921461049d5780639010d07c146104cd57806391d14854146104fd576101ef565b806345e74373116101875780635d126110116101565780635d126110146103d55780636526db7a14610405578063756cb82314610421578063877936231461043d576101ef565b806345e743731461033857806347e63380146103545780634e41a1fb146103725780635245110d146103a2576101ef565b806327737071116101c357806327737071146102b45780632f2ff15d146102e457806336568abe146103005780633fffa0c11461031c576101ef565b8062ad800c146101f457806301ffc9a71461022457806309363c4414610254578063248a9ca314610284575b600080fd5b61020e60048036038101906102099190613a7e565b6106e7565b60405161021b9190614b1f565b60405180910390f35b61023e60048036038101906102399190613a55565b6107d7565b60405161024b9190614a50565b60405180910390f35b61026e60048036038101906102699190613a7e565b6107e9565b60405161027b9190614a2e565b60405180910390f35b61029e600480360381019061029991906139b4565b610854565b6040516102ab9190614a6b565b60405180910390f35b6102ce60048036038101906102c99190613c63565b610873565b6040516102db9190614e67565b60405180910390f35b6102fe60048036038101906102f991906139dd565b6108a4565b005b61031a600480360381019061031591906139dd565b6108d8565b005b610336600480360381019061033191906138df565b61090c565b005b610352600480360381019061034d9190613aff565b6109f7565b005b61035c610a7f565b6040516103699190614a6b565b60405180910390f35b61038c60048036038101906103879190613a7e565b610aa3565b6040516103999190614b1f565b60405180910390f35b6103bc60048036038101906103b79190613a7e565b610b93565b6040516103cc9493929190614b8d565b60405180910390f35b6103ef60048036038101906103ea9190613aa7565b610d68565b6040516103fc9190614a2e565b60405180910390f35b61041f600480360381019061041a9190613c63565b610e99565b005b61043b60048036038101906104369190613c9f565b611095565b005b61045760048036038101906104529190613c63565b611265565b6040516104649190614e67565b60405180910390f35b61048760048036038101906104829190613a7e565b61128a565b6040516104949190614e67565b60405180910390f35b6104b760048036038101906104b29190613a7e565b6112a7565b6040516104c49190614e67565b60405180910390f35b6104e760048036038101906104e29190613a19565b6112bf565b6040516104f491906149c7565b60405180910390f35b610517600480360381019061051291906139dd565b6112ee565b6040516105249190614a50565b60405180910390f35b61054760048036038101906105429190613cee565b611358565b005b6105516113dc565b60405161055e9190614a6b565b60405180910390f35b610581600480360381019061057c9190613c63565b611400565b60405161058e9190614a86565b60405180910390f35b6105b160048036038101906105ac9190613a7e565b6114b7565b6040516105be9190614b1f565b60405180910390f35b6105cf61163f565b6040516105dc9190614a6b565b60405180910390f35b6105ff60048036038101906105fa9190613bb8565b611646565b005b61061b60048036038101906106169190613c63565b6116c8565b6040516106289190614a86565b60405180910390f35b61064b600480360381019061064691906139b4565b611775565b6040516106589190614e67565b60405180910390f35b610669611799565b6040516106769190614a6b565b60405180910390f35b610699600480360381019061069491906139dd565b6117bd565b005b6106b560048036038101906106b09190613c63565b6117f1565b6040516106c29190614e67565b60405180910390f35b6106e560048036038101906106e09190613c9f565b611820565b005b60606106f282611a5e565b610731576040517f08c379a000000000000000000000000000000000000000000000000000000000815260040161072890614de7565b60405180910390fd5b600260008381526020019081526020016000206000018054610752906152c4565b80601f016020809104026020016040519081016040528092919081815260200182805461077e906152c4565b80156107cb5780601f106107a0576101008083540402835291602001916107cb565b820191906000526020600020905b8154815290600101906020018083116107ae57829003601f168201915b50505050509050919050565b60006107e282611a8b565b9050919050565b60606006600083815260200190815260200160002080548060200260200160405190810160405280929190818152602001828054801561084857602002820191906000526020600020905b815481526020019060010190808311610834575b50505050509050919050565b6000806000838152602001908152602001600020600101549050919050565b6006602052816000526040600020818154811061088f57600080fd5b90600052602060002001600091509150505481565b6108ae8282611b6d565b6108d38160016000858152602001908152602001600020611a2e90919063ffffffff16565b505050565b6108e28282611b96565b6109078160016000858152602001908152602001600020611c1990919063ffffffff16565b505050565b61093d7f9f2df0fed2c77648de5860a4cc508cd0818c85b8b8a1ab4ceeef8d981c8956a6610938611c49565b6112ee565b61097c576040517f08c379a000000000000000000000000000000000000000000000000000000000815260040161097390614d27565b60405180910390fd5b6109ed888880806020026020016040519081016040528093929190818152602001838360200280828437600081840152601f19601f820116905080830192505050505050508787906109ce9190615231565b8686906109db9190615231565b8585906109e89190615231565b611c51565b5050505050505050565b610a287f8b16888c296865dbfb46a3f5241555370dc784c1a8890b825830bee0b73996df610a23611c49565b6112ee565b610a67576040517f08c379a0000000000000000000000000000000000000000000000000000000008152600401610a5e90614c07565b60405180910390fd5b610a7687878787878787611ff8565b50505050505050565b7f73e573f9566d61418a34d5de3ff49360f9c51fec37f7486551670290f6285dab81565b6060610aae82611a5e565b610aed576040517f08c379a0000000000000000000000000000000000000000000000000000000008152600401610ae490614c87565b60405180910390fd5b600260008381526020019081526020016000206001018054610b0e906152c4565b80601f0160208091040260200160405190810160405280929190818152602001828054610b3a906152c4565b8015610b875780601f10610b5c57610100808354040283529160200191610b87565b820191906000526020600020905b815481529060010190602001808311610b6a57829003601f168201915b50505050509050919050565b6002602052806000526040600020600091509050806000018054610bb6906152c4565b80601f0160208091040260200160405190810160405280929190818152602001828054610be2906152c4565b8015610c2f5780601f10610c0457610100808354040283529160200191610c2f565b820191906000526020600020905b815481529060010190602001808311610c1257829003601f168201915b505050505090806001018054610c44906152c4565b80601f0160208091040260200160405190810160405280929190818152602001828054610c70906152c4565b8015610cbd5780601f10610c9257610100808354040283529160200191610cbd565b820191906000526020600020905b815481529060010190602001808311610ca057829003601f168201915b505050505090806002018054610cd2906152c4565b80601f0160208091040260200160405190810160405280929190818152602001828054610cfe906152c4565b8015610d4b5780601f10610d2057610100808354040283529160200191610d4b565b820191906000526020600020905b815481529060010190602001808311610d2e57829003601f168201915b5050505050908060030160009054906101000a900460ff16905084565b606060008383905067ffffffffffffffff811115610daf577f4e487b7100000000000000000000000000000000000000000000000000000000600052604160045260246000fd5b604051908082528060200260200182016040528015610ddd5781602001602082028036833780820191505090505b50905060005b84849050811015610e8d57610e3786868684818110610e2b577f4e487b7100000000000000000000000000000000000000000000000000000000600052603260045260246000fd5b905060200201356117f1565b828281518110610e70577f4e487b7100000000000000000000000000000000000000000000000000000000600052603260045260246000fd5b60200260200101818152505080610e86906152f6565b9050610de3565b50809150509392505050565b610eca7f73e573f9566d61418a34d5de3ff49360f9c51fec37f7486551670290f6285dab610ec5611c49565b6112ee565b610f09576040517f08c379a0000000000000000000000000000000000000000000000000000000008152600401610f0090614c27565b60405180910390fd5b610f1281611a5e565b610f51576040517f08c379a0000000000000000000000000000000000000000000000000000000008152600401610f4890614cc7565b60405180910390fd5b600060036000838152602001908152602001600020600084815260200190815260200160002054905060008111610fbd576040517f08c379a0000000000000000000000000000000000000000000000000000000008152600401610fb490614e07565b60405180910390fd5b6000610fc7611c49565b9050610ff781856000610fd987612475565b610fe287612475565b6040518060200160405280600081525061253b565b6003600084815260200190815260200160002060008581526020019081526020016000206000905561103b6006600086815260200190815260200160002084612543565b828173ffffffffffffffffffffffffffffffffffffffff167f73b5fbfbf0177b0de2ffe9fd0ae9887dd73d0d865db7ab5ff3c4a6b9bb8db1e38660008660405161108793929190614e82565b60405180910390a350505050565b6110c67f73e573f9566d61418a34d5de3ff49360f9c51fec37f7486551670290f6285dab6110c1611c49565b6112ee565b611105576040517f08c379a00000000000000000000000000000000000000000000000000000000081526004016110fc90614d67565b60405180910390fd5b61110e82611a5e565b61114d576040517f08c379a000000000000000000000000000000000000000000000000000000000815260040161114490614da7565b60405180910390fd5b61115783836125ef565b611196576040517f08c379a000000000000000000000000000000000000000000000000000000000815260040161118d90614e07565b60405180910390fd5b60006111a0611c49565b90506111d0816000866111b287612475565b6111bb87612475565b6040518060200160405280600081525061253b565b816003600085815260200190815260200160002060008681526020019081526020016000206000828254611204919061509e565b92505081905550828173ffffffffffffffffffffffffffffffffffffffff167f73b5fbfbf0177b0de2ffe9fd0ae9887dd73d0d865db7ab5ff3c4a6b9bb8db1e36000878660405161125793929190614ae8565b60405180910390a350505050565b6003602052816000526040600020602052806000526040600020600091509150505481565b600060056000838152602001908152602001600020549050919050565b60056020528060005260406000206000915090505481565b60006112e6826001600086815260200190815260200160002061262090919063ffffffff16565b905092915050565b600080600084815260200190815260200160002060000160008373ffffffffffffffffffffffffffffffffffffffff1673ffffffffffffffffffffffffffffffffffffffff16815260200190815260200160002060009054906101000a900460ff16905092915050565b6113897f8b16888c296865dbfb46a3f5241555370dc784c1a8890b825830bee0b73996df611384611c49565b6112ee565b6113c8576040517f08c379a00000000000000000000000000000000000000000000000000000000081526004016113bf90614c07565b60405180910390fd5b6113d5858585858561263a565b5050505050565b7f8b16888c296865dbfb46a3f5241555370dc784c1a8890b825830bee0b73996df81565b60606004600083815260200190815260200160002060008481526020019081526020016000208054611431906152c4565b80601f016020809104026020016040519081016040528092919081815260200182805461145d906152c4565b80156114aa5780601f1061147f576101008083540402835291602001916114aa565b820191906000526020600020905b81548152906001019060200180831161148d57829003601f168201915b5050505050905092915050565b60606114c282611a5e565b611501576040517f08c379a00000000000000000000000000000000000000000000000000000000081526004016114f890614ce7565b60405180910390fd5b6000600260008481526020019081526020016000206002018054611524906152c4565b80601f0160208091040260200160405190810160405280929190818152602001828054611550906152c4565b801561159d5780601f106115725761010080835404028352916020019161159d565b820191906000526020600020905b81548152906001019060200180831161158057829003601f168201915b505050505090506000815111156115e057806115b884612823565b6040516020016115c9929190614969565b60405160208183030381529060405291505061163a565b60006115ea6129d0565b9050600081511161160a5760405180602001604052806000815250611635565b8061161485612823565b604051602001611625929190614969565b6040516020818303038152906040525b925050505b919050565b6000801b81565b6116777f9f2df0fed2c77648de5860a4cc508cd0818c85b8b8a1ab4ceeef8d981c8956a6611672611c49565b6112ee565b6116b6576040517f08c379a00000000000000000000000000000000000000000000000000000000081526004016116ad90614d27565b60405180910390fd5b6116c2848484846129e7565b50505050565b60046020528160005260406000206020528060005260406000206000915091505080546116f4906152c4565b80601f0160208091040260200160405190810160405280929190818152602001828054611720906152c4565b801561176d5780601f106117425761010080835404028352916020019161176d565b820191906000526020600020905b81548152906001019060200180831161175057829003601f168201915b505050505081565b600061179260016000848152602001908152602001600020612b4d565b9050919050565b7f9f2df0fed2c77648de5860a4cc508cd0818c85b8b8a1ab4ceeef8d981c8956a681565b6117c78282612b62565b6117ec8160016000858152602001908152602001600020611c1990919063ffffffff16565b505050565b600060036000838152602001908152602001600020600084815260200190815260200160002054905092915050565b6118517f73e573f9566d61418a34d5de3ff49360f9c51fec37f7486551670290f6285dab61184c611c49565b6112ee565b611890576040517f08c379a000000000000000000000000000000000000000000000000000000000815260040161188790614d87565b60405180910390fd5b61189982611a5e565b6118d8576040517f08c379a00000000000000000000000000000000000000000000000000000000081526004016118cf90614dc7565b60405180910390fd5b6118e283836125ef565b611921576040517f08c379a000000000000000000000000000000000000000000000000000000000815260040161191890614e07565b60405180910390fd5b600061192b611c49565b905061195b8185600061193d87612475565b61194687612475565b6040518060200160405280600081525061253b565b60006003600085815260200190815260200160002060008681526020019081526020016000205490508281101561199157600080fd5b828161199d919061517f565b60036000868152602001908152602001600020600087815260200190815260200160002081905550838273ffffffffffffffffffffffffffffffffffffffff167f73b5fbfbf0177b0de2ffe9fd0ae9887dd73d0d865db7ab5ff3c4a6b9bb8db1e387600087604051611a1193929190614e82565b60405180910390a35050505050565b611a2a8282612b8b565b5050565b6000611a56836000018373ffffffffffffffffffffffffffffffffffffffff1660001b612c6b565b905092915050565b60006002600083815260200190815260200160002060030160009054906101000a900460ff169050919050565b60007f75205675000000000000000000000000000000000000000000000000000000007bffffffffffffffffffffffffffffffffffffffffffffffffffffffff1916827bffffffffffffffffffffffffffffffffffffffffffffffffffffffff19161480611b5657507fd5298fa3000000000000000000000000000000000000000000000000000000007bffffffffffffffffffffffffffffffffffffffffffffffffffffffff1916827bffffffffffffffffffffffffffffffffffffffffffffffffffffffff1916145b80611b665750611b6582612cdb565b5b9050919050565b611b7682610854565b611b8781611b82611c49565b612d55565b611b918383612b8b565b505050565b611b9e611c49565b73ffffffffffffffffffffffffffffffffffffffff168173ffffffffffffffffffffffffffffffffffffffff1614611c0b576040517f08c379a0000000000000000000000000000000000000000000000000000000008152600401611c0290614e47565b60405180910390fd5b611c158282612df2565b5050565b6000611c41836000018373ffffffffffffffffffffffffffffffffffffffff1660001b612ed3565b905092915050565b600033905090565b8251845114611c95576040517f08c379a0000000000000000000000000000000000000000000000000000000008152600401611c8c90614e27565b60405180910390fd5b8151835114611cd9576040517f08c379a0000000000000000000000000000000000000000000000000000000008152600401611cd090614d07565b60405180910390fd5b8051825114611d1d576040517f08c379a0000000000000000000000000000000000000000000000000000000008152600401611d1490614ca7565b60405180910390fd5b6000611d27611c49565b905060005b8551811015611f8857611d7e868281518110611d71577f4e487b7100000000000000000000000000000000000000000000000000000000600052603260045260246000fd5b6020026020010151611a5e565b15611dbe576040517f08c379a0000000000000000000000000000000000000000000000000000000008152600401611db590614c47565b60405180910390fd5b60006040518060800160405280878481518110611e04577f4e487b7100000000000000000000000000000000000000000000000000000000600052603260045260246000fd5b60200260200101518152602001868481518110611e4a577f4e487b7100000000000000000000000000000000000000000000000000000000600052603260045260246000fd5b60200260200101518152602001858481518110611e90577f4e487b7100000000000000000000000000000000000000000000000000000000600052603260045260246000fd5b602002602001015181526020016001151581525090508060026000898581518110611ee4577f4e487b7100000000000000000000000000000000000000000000000000000000600052603260045260246000fd5b602002602001015181526020019081526020016000206000820151816000019080519060200190611f169291906134bc565b506020820151816001019080519060200190611f339291906134bc565b506040820151816002019080519060200190611f509291906134bc565b5060608201518160030160006101000a81548160ff021916908315150217905550905050508080611f80906152f6565b915050611d2c565b5084604051611f979190614952565b60405180910390208173ffffffffffffffffffffffffffffffffffffffff167fa564cb1998afa54a5836b472bb8181177cda6b9978d9291b84cc905926d507f5868686604051611fe9939291906149e2565b60405180910390a35050505050565b6000612002611c49565b90506120a48160008a8a8a80806020026020016040519081016040528093929190818152602001838360200280828437600081840152601f19601f82011690508083019250505050505050898980806020026020016040519081016040528093929190818152602001838360200280828437600081840152601f19601f820116905080830192505050505050506040518060200160405280600081525061253b565b60005b878790508110156123fd576120fa8888838181106120ee577f4e487b7100000000000000000000000000000000000000000000000000000000600052603260045260246000fd5b90506020020135611a5e565b612139576040517f08c379a000000000000000000000000000000000000000000000000000000000815260040161213090614c67565b60405180910390fd5b6000600360008a8a85818110612178577f4e487b7100000000000000000000000000000000000000000000000000000000600052603260045260246000fd5b90506020020135815260200190815260200160002060008b815260200190815260200160002054141561221f57600660008a81526020019081526020016000208888838181106121f1577f4e487b7100000000000000000000000000000000000000000000000000000000600052603260045260246000fd5b9050602002013590806001815401808255809150506001900390600052602060002001600090919091909150555b600084848381811061225a577f4e487b7100000000000000000000000000000000000000000000000000000000600052603260045260246000fd5b905060200281019061226c9190614eb9565b90501115612331578383828181106122ad577f4e487b7100000000000000000000000000000000000000000000000000000000600052603260045260246000fd5b90506020028101906122bf9190614eb9565b600460008b8b868181106122fc577f4e487b7100000000000000000000000000000000000000000000000000000000600052603260045260246000fd5b90506020020135815260200190815260200160002060008c8152602001908152602001600020919061232f929190613542565b505b85858281811061236a577f4e487b7100000000000000000000000000000000000000000000000000000000600052603260045260246000fd5b90506020020135600360008a8a858181106123ae577f4e487b7100000000000000000000000000000000000000000000000000000000600052603260045260246000fd5b90506020020135815260200190815260200160002060008b815260200190815260200160002060008282546123e3919061509e565b9250508190555080806123f5906152f6565b9150506120a7565b50868660405161240e929190614939565b60405180910390208173ffffffffffffffffffffffffffffffffffffffff167fbfb4d8e5891aebe97980c97616b6b0af2006a58ccabe6e1b7e3da24d0906a85660008b89896040516124639493929190614aa8565b60405180910390a35050505050505050565b60606000600167ffffffffffffffff8111156124ba577f4e487b7100000000000000000000000000000000000000000000000000000000600052604160045260246000fd5b6040519080825280602002602001820160405280156124e85781602001602082028036833780820191505090505b5090508281600081518110612526577f4e487b7100000000000000000000000000000000000000000000000000000000600052603260045260246000fd5b60200260200101818152505080915050919050565b505050505050565b60005b81838281548110612580577f4e487b7100000000000000000000000000000000000000000000000000000000600052603260045260246000fd5b9060005260206000200154146125a357808061259b906152f6565b915050612546565b8281815481106125dc577f4e487b7100000000000000000000000000000000000000000000000000000000600052603260045260246000fd5b9060005260206000200160009055505050565b6000806003600084815260200190815260200160002060008581526020019081526020016000205411905092915050565b600061262f8360000183613059565b60001c905092915050565b61264384611a5e565b612682576040517f08c379a000000000000000000000000000000000000000000000000000000000815260040161267990614d47565b60405180910390fd5b600061268c611c49565b90506126bc8160008861269e89612475565b6126a789612475565b6040518060200160405280600081525061253b565b600060036000878152602001908152602001600020600088815260200190815260200160002054141561274857811561270c57846005600088815260200190815260200160002081905550612747565b600660008781526020019081526020016000208590806001815401808255809150506001900390600052602060002001600090919091909150555b5b60008351111561278c5782600460008781526020019081526020016000206000888152602001908152602001600020908051906020019061278a9291906135c8565b505b8360036000878152602001908152602001600020600088815260200190815260200160002060008282546127c0919061509e565b92505081905550848173ffffffffffffffffffffffffffffffffffffffff167f73b5fbfbf0177b0de2ffe9fd0ae9887dd73d0d865db7ab5ff3c4a6b9bb8db1e36000898860405161281393929190614ae8565b60405180910390a3505050505050565b6060600082141561286b576040518060400160405280600181526020017f300000000000000000000000000000000000000000000000000000000000000081525090506129cb565b600082905060005b6000821461289d578080612886906152f6565b915050600a8261289691906150f4565b9150612873565b60008167ffffffffffffffff8111156128df577f4e487b7100000000000000000000000000000000000000000000000000000000600052604160045260246000fd5b6040519080825280601f01601f1916602001820160405280156129115781602001600182028036833780820191505090505b5090505b600085146129c45760018261292a919061517f565b9150600a85612939919061533f565b6030612945919061509e565b60f81b818381518110612981577f4e487b7100000000000000000000000000000000000000000000000000000000600052603260045260246000fd5b60200101907effffffffffffffffffffffffffffffffffffffffffffffffffffffffffffff1916908160001a905350600a856129bd91906150f4565b9450612915565b8093505050505b919050565b606060405180602001604052806000815250905090565b6129f084611a5e565b15612a30576040517f08c379a0000000000000000000000000000000000000000000000000000000008152600401612a2790614c47565b60405180910390fd5b6000612a3a611c49565b90506000604051806080016040528086815260200185815260200184815260200160011515815250905080600260008881526020019081526020016000206000820151816000019080519060200190612a949291906134bc565b506020820151816001019080519060200190612ab19291906134bc565b506040820151816002019080519060200190612ace9291906134bc565b5060608201518160030160006101000a81548160ff021916908315150217905550905050858273ffffffffffffffffffffffffffffffffffffffff167f0f95c7b6e09a6cd1ff57e6238b940fa674ce6ce983d94900b6a8a6393929be3f878787604051612b3d93929190614b41565b60405180910390a3505050505050565b6000612b5b826000016130aa565b9050919050565b612b6b82610854565b612b7c81612b77611c49565b612d55565b612b868383612df2565b505050565b612b9582826112ee565b612c6757600160008084815260200190815260200160002060000160008373ffffffffffffffffffffffffffffffffffffffff1673ffffffffffffffffffffffffffffffffffffffff16815260200190815260200160002060006101000a81548160ff021916908315150217905550612c0c611c49565b73ffffffffffffffffffffffffffffffffffffffff168173ffffffffffffffffffffffffffffffffffffffff16837f2f8788117e7eff1d82e926ec794901d17c78024a50270940304540a733656f0d60405160405180910390a45b5050565b6000612c7783836130bb565b612cd0578260000182908060018154018082558091505060019003906000526020600020016000909190919091505582600001805490508360010160008481526020019081526020016000208190555060019050612cd5565b600090505b92915050565b60007f5a05180f000000000000000000000000000000000000000000000000000000007bffffffffffffffffffffffffffffffffffffffffffffffffffffffff1916827bffffffffffffffffffffffffffffffffffffffffffffffffffffffff19161480612d4e5750612d4d826130de565b5b9050919050565b612d5f82826112ee565b612dee57612d848173ffffffffffffffffffffffffffffffffffffffff166014613158565b612d928360001c6020613158565b604051602001612da392919061498d565b6040516020818303038152906040526040517f08c379a0000000000000000000000000000000000000000000000000000000008152600401612de59190614b1f565b60405180910390fd5b5050565b612dfc82826112ee565b15612ecf57600080600084815260200190815260200160002060000160008373ffffffffffffffffffffffffffffffffffffffff1673ffffffffffffffffffffffffffffffffffffffff16815260200190815260200160002060006101000a81548160ff021916908315150217905550612e74611c49565b73ffffffffffffffffffffffffffffffffffffffff168173ffffffffffffffffffffffffffffffffffffffff16837ff6391f5c32d9c69d2a47ea670b442974b53935d1edc7fd64eb21e047a839171b60405160405180910390a45b5050565b6000808360010160008481526020019081526020016000205490506000811461304d576000600182612f05919061517f565b9050600060018660000180549050612f1d919061517f565b9050818114612fd8576000866000018281548110612f64577f4e487b7100000000000000000000000000000000000000000000000000000000600052603260045260246000fd5b9060005260206000200154905080876000018481548110612fae577f4e487b7100000000000000000000000000000000000000000000000000000000600052603260045260246000fd5b90600052602060002001819055508387600101600083815260200190815260200160002081905550505b85600001805480613012577f4e487b7100000000000000000000000000000000000000000000000000000000600052603160045260246000fd5b600190038181906000526020600020016000905590558560010160008681526020019081526020016000206000905560019350505050613053565b60009150505b92915050565b6000826000018281548110613097577f4e487b7100000000000000000000000000000000000000000000000000000000600052603260045260246000fd5b9060005260206000200154905092915050565b600081600001805490509050919050565b600080836001016000848152602001908152602001600020541415905092915050565b60007f7965db0b000000000000000000000000000000000000000000000000000000007bffffffffffffffffffffffffffffffffffffffffffffffffffffffff1916827bffffffffffffffffffffffffffffffffffffffffffffffffffffffff19161480613151575061315082613452565b5b9050919050565b60606000600283600261316b9190615125565b613175919061509e565b67ffffffffffffffff8111156131b4577f4e487b7100000000000000000000000000000000000000000000000000000000600052604160045260246000fd5b6040519080825280601f01601f1916602001820160405280156131e65781602001600182028036833780820191505090505b5090507f300000000000000000000000000000000000000000000000000000000000000081600081518110613244577f4e487b7100000000000000000000000000000000000000000000000000000000600052603260045260246000fd5b60200101907effffffffffffffffffffffffffffffffffffffffffffffffffffffffffffff1916908160001a9053507f7800000000000000000000000000000000000000000000000000000000000000816001815181106132ce577f4e487b7100000000000000000000000000000000000000000000000000000000600052603260045260246000fd5b60200101907effffffffffffffffffffffffffffffffffffffffffffffffffffffffffffff1916908160001a9053506000600184600261330e9190615125565b613318919061509e565b90505b6001811115613404577f3031323334353637383961626364656600000000000000000000000000000000600f861660108110613380577f4e487b7100000000000000000000000000000000000000000000000000000000600052603260045260246000fd5b1a60f81b8282815181106133bd577f4e487b7100000000000000000000000000000000000000000000000000000000600052603260045260246000fd5b60200101907effffffffffffffffffffffffffffffffffffffffffffffffffffffffffffff1916908160001a905350600485901c9450806133fd9061529a565b905061331b565b5060008414613448576040517f08c379a000000000000000000000000000000000000000000000000000000000815260040161343f90614be7565b60405180910390fd5b8091505092915050565b60007f01ffc9a7000000000000000000000000000000000000000000000000000000007bffffffffffffffffffffffffffffffffffffffffffffffffffffffff1916827bffffffffffffffffffffffffffffffffffffffffffffffffffffffff1916149050919050565b8280546134c8906152c4565b90600052602060002090601f0160209004810192826134ea5760008555613531565b82601f1061350357805160ff1916838001178555613531565b82800160010185558215613531579182015b82811115613530578251825591602001919060010190613515565b5b50905061353e919061364e565b5090565b82805461354e906152c4565b90600052602060002090601f01602090048101928261357057600085556135b7565b82601f1061358957803560ff19168380011785556135b7565b828001600101855582156135b7579182015b828111156135b657823582559160200191906001019061359b565b5b5090506135c4919061364e565b5090565b8280546135d4906152c4565b90600052602060002090601f0160209004810192826135f6576000855561363d565b82601f1061360f57805160ff191683800117855561363d565b8280016001018555821561363d579182015b8281111561363c578251825591602001919060010190613621565b5b50905061364a919061364e565b5090565b5b8082111561366757600081600090555060010161364f565b5090565b600061367e61367984614f41565b614f10565b9050808382526020820190508260005b858110156136be57813585016136a488826138a0565b84526020840193506020830192505060018101905061368e565b5050509392505050565b60006136db6136d684614f6d565b614f10565b9050828152602081018484840111156136f357600080fd5b6136fe848285615258565b509392505050565b600061371961371484614f9d565b614f10565b90508281526020810184848401111561373157600080fd5b61373c848285615258565b509392505050565b6000813590506137538161543d565b92915050565b60008083601f84011261376b57600080fd5b8235905067ffffffffffffffff81111561378457600080fd5b60208301915083602082028301111561379c57600080fd5b9250929050565b60008083601f8401126137b557600080fd5b8235905067ffffffffffffffff8111156137ce57600080fd5b6020830191508360208202830111156137e657600080fd5b9250929050565b60008083601f8401126137ff57600080fd5b8235905067ffffffffffffffff81111561381857600080fd5b60208301915083602082028301111561383057600080fd5b9250929050565b60008135905061384681615454565b92915050565b60008135905061385b8161546b565b92915050565b60008135905061387081615482565b92915050565b600082601f83011261388757600080fd5b81356138978482602086016136c8565b91505092915050565b600082601f8301126138b157600080fd5b81356138c1848260208601613706565b91505092915050565b6000813590506138d981615499565b92915050565b6000806000806000806000806080898b0312156138fb57600080fd5b600089013567ffffffffffffffff81111561391557600080fd5b6139218b828c016137ed565b9850985050602089013567ffffffffffffffff81111561394057600080fd5b61394c8b828c016137a3565b9650965050604089013567ffffffffffffffff81111561396b57600080fd5b6139778b828c016137a3565b9450945050606089013567ffffffffffffffff81111561399657600080fd5b6139a28b828c016137a3565b92509250509295985092959890939650565b6000602082840312156139c657600080fd5b60006139d48482850161384c565b91505092915050565b600080604083850312156139f057600080fd5b60006139fe8582860161384c565b9250506020613a0f85828601613744565b9150509250929050565b60008060408385031215613a2c57600080fd5b6000613a3a8582860161384c565b9250506020613a4b858286016138ca565b9150509250929050565b600060208284031215613a6757600080fd5b6000613a7584828501613861565b91505092915050565b600060208284031215613a9057600080fd5b6000613a9e848285016138ca565b91505092915050565b600080600060408486031215613abc57600080fd5b6000613aca868287016138ca565b935050602084013567ffffffffffffffff811115613ae757600080fd5b613af3868287016137ed565b92509250509250925092565b60008060008060008060006080888a031215613b1a57600080fd5b6000613b288a828b016138ca565b975050602088013567ffffffffffffffff811115613b4557600080fd5b613b518a828b016137ed565b9650965050604088013567ffffffffffffffff811115613b7057600080fd5b613b7c8a828b016137ed565b9450945050606088013567ffffffffffffffff811115613b9b57600080fd5b613ba78a828b01613759565b925092505092959891949750929550565b60008060008060808587031215613bce57600080fd5b6000613bdc878288016138ca565b945050602085013567ffffffffffffffff811115613bf957600080fd5b613c05878288016138a0565b935050604085013567ffffffffffffffff811115613c2257600080fd5b613c2e878288016138a0565b925050606085013567ffffffffffffffff811115613c4b57600080fd5b613c57878288016138a0565b91505092959194509250565b60008060408385031215613c7657600080fd5b6000613c84858286016138ca565b9250506020613c95858286016138ca565b9150509250929050565b600080600060608486031215613cb457600080fd5b6000613cc2868287016138ca565b9350506020613cd3868287016138ca565b9250506040613ce4868287016138ca565b9150509250925092565b600080600080600060a08688031215613d0657600080fd5b6000613d14888289016138ca565b9550506020613d25888289016138ca565b9450506040613d36888289016138ca565b935050606086013567ffffffffffffffff811115613d5357600080fd5b613d5f88828901613876565b9250506080613d7088828901613837565b9150509295509295909350565b6000613d898383614017565b905092915050565b6000613d9d838361490c565b60208301905092915050565b6000613db5838361492a565b60208301905092915050565b613dca816151b3565b82525050565b6000613ddb82614fed565b613de58185615033565b935083602082028501613df785614fcd565b8060005b85811015613e335784840389528151613e148582613d7d565b9450613e1f83615019565b925060208a01995050600181019050613dfb565b50829750879550505050505092915050565b6000613e518385615044565b93507f07ffffffffffffffffffffffffffffffffffffffffffffffffffffffffffffff831115613e8057600080fd5b602083029250613e91838584615258565b82840190509392505050565b6000613ea98385615055565b93507f07ffffffffffffffffffffffffffffffffffffffffffffffffffffffffffffff831115613ed857600080fd5b602083029250613ee9838584615258565b82840190509392505050565b6000613f0082614ff8565b613f0a8185615044565b9350613f1583614fdd565b8060005b83811015613f46578151613f2d8882613d91565b9750613f3883615026565b925050600181019050613f19565b5085935050505092915050565b6000613f5e82614ff8565b613f688185615055565b9350613f7383614fdd565b8060005b83811015613fa4578151613f8b8882613da9565b9750613f9683615026565b925050600181019050613f77565b5085935050505092915050565b613fba816151c5565b82525050565b613fc9816151d1565b82525050565b6000613fda82615003565b613fe48185615060565b9350613ff4818560208601615267565b613ffd8161542c565b840191505092915050565b61401181615246565b82525050565b60006140228261500e565b61402c8185615071565b935061403c818560208601615267565b6140458161542c565b840191505092915050565b600061405b8261500e565b6140658185615082565b9350614075818560208601615267565b61407e8161542c565b840191505092915050565b60006140948261500e565b61409e8185615093565b93506140ae818560208601615267565b80840191505092915050565b60006140c7602083615082565b91507f537472696e67733a20686578206c656e67746820696e73756666696369656e746000830152602082019050919050565b6000614107602f83615082565b91507f4552433336363447656e657269633a206d75737420686176652061747461636860008301527f20726f6c6520746f2061747461636800000000000000000000000000000000006020830152604082019050919050565b600061416d603283615082565b91507f45524333363634557064617461626c653a206d7573742068617665207570646160008301527f74657220726f6c6520746f2072656d6f766500000000000000000000000000006020830152604082019050919050565b60006141d3602183615082565b91507f455243333636343a2061747472696275746520616c726561647920657869737460008301527f73000000000000000000000000000000000000000000000000000000000000006020830152604082019050919050565b6000614239602e83615082565b91507f455243333636343a20626174636841747461636820666f72206e6f6e6578697360008301527f74656e74206174747269627574650000000000000000000000000000000000006020830152604082019050919050565b600061429f602f83615082565b91507f455243333636343a2073796d626f6c20717565727920666f72206e6f6e65786960008301527f7374656e742061747472696275746500000000000000000000000000000000006020830152604082019050919050565b6000614305602983615082565b91507f455243333636343a2073796d626f6c7320616e642075726973206c656e67746860008301527f206d69736d6174636800000000000000000000000000000000000000000000006020830152604082019050919050565b600061436b603283615082565b91507f45524333363634557064617461626c653a2072656d6f766520666f72206e6f6e60008301527f6578697374656e742061747472696275746500000000000000000000000000006020830152604082019050919050565b60006143d1602c83615082565b91507f455243333636343a2055524920717565727920666f72206e6f6e65786973746560008301527f6e742061747472696275746500000000000000000000000000000000000000006020830152604082019050919050565b6000614437602a83615082565b91507f455243333636343a206e616d657320616e642073796d626f6c73206c656e677460008301527f68206d69736d61746368000000000000000000000000000000000000000000006020830152604082019050919050565b600061449d602d83615082565b91507f4552433336363447656e657269633a206d7573742068617665206d696e74657260008301527f20726f6c6520746f206d696e74000000000000000000000000000000000000006020830152604082019050919050565b6000614503602983615082565b91507f455243333636343a2061747461636820666f72206e6f6e6578697374656e742060008301527f61747472696275746500000000000000000000000000000000000000000000006020830152604082019050919050565b6000614569603483615082565b91507f45524333363634557064617461626c653a206d7573742068617665207570646160008301527f74657220726f6c6520746f20696e6372656173650000000000000000000000006020830152604082019050919050565b60006145cf603483615082565b91507f45524333363634557064617461626c653a206d7573742068617665207570646160008301527f74657220726f6c6520746f2064656372656173650000000000000000000000006020830152604082019050919050565b6000614635603483615082565b91507f45524333363634557064617461626c653a20696e63726561736520666f72206e60008301527f6f6e6578697374656e74206174747269627574650000000000000000000000006020830152604082019050919050565b600061469b603483615082565b91507f45524333363634557064617461626c653a20646563726561736520666f72206e60008301527f6f6e6578697374656e74206174747269627574650000000000000000000000006020830152604082019050919050565b6000614701601783615093565b91507f416363657373436f6e74726f6c3a206163636f756e74200000000000000000006000830152601782019050919050565b6000614741602d83615082565b91507f455243333636343a206e616d6520717565727920666f72206e6f6e657869737460008301527f656e7420617474726962757465000000000000000000000000000000000000006020830152604082019050919050565b60006147a7603683615082565b91507f45524333363634557064617461626c653a20746f6b656e20686173206e6f742060008301527f61747461636865642074686520617474726962757465000000000000000000006020830152604082019050919050565b600061480d602a83615082565b91507f455243333636343a206174747249647320616e64206e616d6573206c656e677460008301527f68206d69736d61746368000000000000000000000000000000000000000000006020830152604082019050919050565b6000614873601183615093565b91507f206973206d697373696e6720726f6c65200000000000000000000000000000006000830152601182019050919050565b60006148b3602f83615082565b91507f416363657373436f6e74726f6c3a2063616e206f6e6c792072656e6f756e636560008301527f20726f6c657320666f722073656c6600000000000000000000000000000000006020830152604082019050919050565b61491581615227565b82525050565b61492481615227565b82525050565b61493381615227565b82525050565b6000614946828486613e9d565b91508190509392505050565b600061495e8284613f53565b915081905092915050565b60006149758285614089565b91506149818284614089565b91508190509392505050565b6000614998826146f4565b91506149a48285614089565b91506149af82614866565b91506149bb8284614089565b91508190509392505050565b60006020820190506149dc6000830184613dc1565b92915050565b600060608201905081810360008301526149fc8186613dd0565b90508181036020830152614a108185613dd0565b90508181036040830152614a248184613dd0565b9050949350505050565b60006020820190508181036000830152614a488184613ef5565b905092915050565b6000602082019050614a656000830184613fb1565b92915050565b6000602082019050614a806000830184613fc0565b92915050565b60006020820190508181036000830152614aa08184613fcf565b905092915050565b6000606082019050614abd6000830187614008565b614aca602083018661491b565b8181036040830152614add818486613e45565b905095945050505050565b6000606082019050614afd6000830186614008565b614b0a602083018561491b565b614b17604083018461491b565b949350505050565b60006020820190508181036000830152614b398184614050565b905092915050565b60006060820190508181036000830152614b5b8186614050565b90508181036020830152614b6f8185614050565b90508181036040830152614b838184614050565b9050949350505050565b60006080820190508181036000830152614ba78187614050565b90508181036020830152614bbb8186614050565b90508181036040830152614bcf8185614050565b9050614bde6060830184613fb1565b95945050505050565b60006020820190508181036000830152614c00816140ba565b9050919050565b60006020820190508181036000830152614c20816140fa565b9050919050565b60006020820190508181036000830152614c4081614160565b9050919050565b60006020820190508181036000830152614c60816141c6565b9050919050565b60006020820190508181036000830152614c808161422c565b9050919050565b60006020820190508181036000830152614ca081614292565b9050919050565b60006020820190508181036000830152614cc0816142f8565b9050919050565b60006020820190508181036000830152614ce08161435e565b9050919050565b60006020820190508181036000830152614d00816143c4565b9050919050565b60006020820190508181036000830152614d208161442a565b9050919050565b60006020820190508181036000830152614d4081614490565b9050919050565b60006020820190508181036000830152614d60816144f6565b9050919050565b60006020820190508181036000830152614d808161455c565b9050919050565b60006020820190508181036000830152614da0816145c2565b9050919050565b60006020820190508181036000830152614dc081614628565b9050919050565b60006020820190508181036000830152614de08161468e565b9050919050565b60006020820190508181036000830152614e0081614734565b9050919050565b60006020820190508181036000830152614e208161479a565b9050919050565b60006020820190508181036000830152614e4081614800565b9050919050565b60006020820190508181036000830152614e60816148a6565b9050919050565b6000602082019050614e7c600083018461491b565b92915050565b6000606082019050614e97600083018661491b565b614ea46020830185614008565b614eb1604083018461491b565b949350505050565b60008083356001602003843603038112614ed257600080fd5b80840192508235915067ffffffffffffffff821115614ef057600080fd5b602083019250600182023603831315614f0857600080fd5b509250929050565b6000604051905081810181811067ffffffffffffffff82111715614f3757614f366153fd565b5b8060405250919050565b600067ffffffffffffffff821115614f5c57614f5b6153fd565b5b602082029050602081019050919050565b600067ffffffffffffffff821115614f8857614f876153fd565b5b601f19601f8301169050602081019050919050565b600067ffffffffffffffff821115614fb857614fb76153fd565b5b601f19601f8301169050602081019050919050565b6000819050602082019050919050565b6000819050602082019050919050565b600081519050919050565b600081519050919050565b600081519050919050565b600081519050919050565b6000602082019050919050565b6000602082019050919050565b600082825260208201905092915050565b600082825260208201905092915050565b600081905092915050565b600082825260208201905092915050565b600082825260208201905092915050565b600082825260208201905092915050565b600081905092915050565b60006150a982615227565b91506150b483615227565b9250827fffffffffffffffffffffffffffffffffffffffffffffffffffffffffffffffff038211156150e9576150e8615370565b5b828201905092915050565b60006150ff82615227565b915061510a83615227565b92508261511a5761511961539f565b5b828204905092915050565b600061513082615227565b915061513b83615227565b9250817fffffffffffffffffffffffffffffffffffffffffffffffffffffffffffffffff048311821515161561517457615173615370565b5b828202905092915050565b600061518a82615227565b915061519583615227565b9250828210156151a8576151a7615370565b5b828203905092915050565b60006151be82615207565b9050919050565b60008115159050919050565b6000819050919050565b60007fffffffff0000000000000000000000000000000000000000000000000000000082169050919050565b600073ffffffffffffffffffffffffffffffffffffffff82169050919050565b6000819050919050565b600061523e36848461366b565b905092915050565b600061525182615227565b9050919050565b82818337600083830152505050565b60005b8381101561528557808201518184015260208101905061526a565b83811115615294576000848401525b50505050565b60006152a582615227565b915060008214156152b9576152b8615370565b5b600182039050919050565b600060028204905060018216806152dc57607f821691505b602082108114156152f0576152ef6153ce565b5b50919050565b600061530182615227565b91507fffffffffffffffffffffffffffffffffffffffffffffffffffffffffffffffff82141561533457615333615370565b5b600182019050919050565b600061534a82615227565b915061535583615227565b9250826153655761536461539f565b5b828206905092915050565b7f4e487b7100000000000000000000000000000000000000000000000000000000600052601160045260246000fd5b7f4e487b7100000000000000000000000000000000000000000000000000000000600052601260045260246000fd5b7f4e487b7100000000000000000000000000000000000000000000000000000000600052602260045260246000fd5b7f4e487b7100000000000000000000000000000000000000000000000000000000600052604160045260246000fd5b6000601f19601f8301169050919050565b615446816151b3565b811461545157600080fd5b50565b61545d816151c5565b811461546857600080fd5b50565b615474816151d1565b811461547f57600080fd5b50565b61548b816151db565b811461549657600080fd5b50565b6154a281615227565b81146154ad57600080fd5b5056fea26469706673582212202975cebb9bef77058a1626aa452dcddfc1ff019c4c8c5c8ce1018aa733b8fe6164736f6c63430008000033",
  "immutableReferences": {},
  "source": "// SPDX-License-Identifier: MIT\r\n\r\npragma solidity ^0.8.0;\r\n\r\nimport \"./IERC3664Updatable.sol\";\r\nimport \"./ERC3664Generic.sol\";\r\n\r\ncontract ERC3664Updatable is IERC3664Updatable, ERC3664Generic {\r\n    bytes32 public constant UPDATER_ROLE = keccak256(\"UPDATER_ROLE\");\r\n\r\n    constructor() ERC3664Generic() {\r\n        _setupRole(UPDATER_ROLE, _msgSender());\r\n    }\r\n\r\n    /**\r\n     * @dev See {IERC3664Updatable-remove}.\r\n     */\r\n    function remove(uint256 tokenId, uint256 attrId) public virtual override {\r\n        require(\r\n            hasRole(UPDATER_ROLE, _msgSender()),\r\n            \"ERC3664Updatable: must have updater role to remove\"\r\n        );\r\n        require(\r\n            _attrExists(attrId),\r\n            \"ERC3664Updatable: remove for nonexistent attribute\"\r\n        );\r\n        uint256 amount = _balances[attrId][tokenId];\r\n        require(\r\n            amount > 0,\r\n            \"ERC3664Updatable: token has not attached the attribute\"\r\n        );\r\n\r\n        address operator = _msgSender();\r\n        _beforeAttrTransfer(\r\n            operator,\r\n            tokenId,\r\n            0,\r\n            _asSingletonArray(attrId),\r\n            _asSingletonArray(amount),\r\n            \"\"\r\n        );\r\n\r\n        delete _balances[attrId][tokenId];\r\n        _removeByValue(secondaryAttrs[tokenId], attrId);\r\n\r\n        emit TransferSingle(operator, tokenId, 0, attrId, amount);\r\n    }\r\n\r\n    /**\r\n     * @dev See {IERC3664Updatable-increase}.\r\n     */\r\n    function increase(\r\n        uint256 tokenId,\r\n        uint256 attrId,\r\n        uint256 amount\r\n    ) public virtual override {\r\n        require(\r\n            hasRole(UPDATER_ROLE, _msgSender()),\r\n            \"ERC3664Updatable: must have updater role to increase\"\r\n        );\r\n        require(\r\n            _attrExists(attrId),\r\n            \"ERC3664Updatable: increase for nonexistent attribute\"\r\n        );\r\n        require(\r\n            _hasAttr(tokenId, attrId),\r\n            \"ERC3664Updatable: token has not attached the attribute\"\r\n        );\r\n\r\n        address operator = _msgSender();\r\n        _beforeAttrTransfer(\r\n            operator,\r\n            0,\r\n            tokenId,\r\n            _asSingletonArray(attrId),\r\n            _asSingletonArray(amount),\r\n            \"\"\r\n        );\r\n\r\n        _balances[attrId][tokenId] += amount;\r\n\r\n        emit TransferSingle(operator, 0, tokenId, attrId, amount);\r\n    }\r\n\r\n    /**\r\n     * @dev See {IERC3664Updatable-decrease}.\r\n     */\r\n    function decrease(\r\n        uint256 tokenId,\r\n        uint256 attrId,\r\n        uint256 amount\r\n    ) public virtual override {\r\n        require(\r\n            hasRole(UPDATER_ROLE, _msgSender()),\r\n            \"ERC3664Updatable: must have updater role to decrease\"\r\n        );\r\n        require(\r\n            _attrExists(attrId),\r\n            \"ERC3664Updatable: decrease for nonexistent attribute\"\r\n        );\r\n        require(\r\n            _hasAttr(tokenId, attrId),\r\n            \"ERC3664Updatable: token has not attached the attribute\"\r\n        );\r\n\r\n        address operator = _msgSender();\r\n        _beforeAttrTransfer(\r\n            operator,\r\n            tokenId,\r\n            0,\r\n            _asSingletonArray(attrId),\r\n            _asSingletonArray(amount),\r\n            \"\"\r\n        );\r\n\r\n        uint256 tb = _balances[attrId][tokenId];\r\n        require(tb >= amount);\r\n        _balances[attrId][tokenId] = tb - amount;\r\n\r\n        emit TransferSingle(operator, tokenId, 0, attrId, amount);\r\n    }\r\n}\r\n",
  "sourcePath": "D:\\MetaNFT\\MetaNFT\\contracts\\ERC3664\\extensions\\ERC3664Updatable.sol",
  "compiler": {
    "name": "solc",
    "version": "0.8.0+commit.c7dfd78e.Emscripten.clang"
  },
  "schemaVersion": "3.4.3",
  "updatedAt": "2021-09-22T09:26:13.476Z",
  "devdoc": {
    "kind": "dev",
    "methods": {
      "attach(uint256,uint256,uint256,bytes,bool)": {
        "details": "See {ERC3664-attach}."
      },
      "attrURI(uint256)": {
        "details": "See {IERC721Metadata-attrURI}."
      },
      "attributesOf(uint256)": {
        "details": "See {IERC3664-attributesOf}."
      },
      "balanceOf(uint256,uint256)": {
        "details": "See {IERC3664-balanceOf}."
      },
      "balanceOfBatch(uint256,uint256[])": {
        "details": "See {IERC3664-balanceOfBatch}."
      },
      "batchAttach(uint256,uint256[],uint256[],bytes[])": {
        "details": "See {ERC3664-batchAttach}."
      },
      "decrease(uint256,uint256,uint256)": {
        "details": "See {IERC3664Updatable-decrease}."
      },
      "getRoleAdmin(bytes32)": {
        "details": "Returns the admin role that controls `role`. See {grantRole} and {revokeRole}. To change a role's admin, use {_setRoleAdmin}."
      },
      "getRoleMember(bytes32,uint256)": {
        "details": "Returns one of the accounts that have `role`. `index` must be a value between 0 and {getRoleMemberCount}, non-inclusive. Role bearers are not sorted in any particular way, and their ordering may change at any point. WARNING: When using {getRoleMember} and {getRoleMemberCount}, make sure you perform all queries on the same block. See the following https://forum.openzeppelin.com/t/iterating-over-elements-on-enumerableset-in-openzeppelin-contracts/2296[forum post] for more information."
      },
      "getRoleMemberCount(bytes32)": {
        "details": "Returns the number of accounts that have `role`. Can be used together with {getRoleMember} to enumerate all bearers of a role."
      },
      "grantRole(bytes32,address)": {
        "details": "Overload {grantRole} to track enumerable memberships"
      },
      "hasRole(bytes32,address)": {
        "details": "Returns `true` if `account` has been granted `role`."
      },
      "increase(uint256,uint256,uint256)": {
        "details": "See {IERC3664Updatable-increase}."
      },
      "mint(uint256,string,string,string)": {
        "details": "Mint new attribute type with metadata. See {ERC3664-_mint}."
      },
      "mintBatch(uint256[],string[],string[],string[])": {
        "details": "[Batched] version of {mint}."
      },
      "name(uint256)": {
        "details": "See {IERC3664Metadata-name}."
      },
      "primaryAttributeOf(uint256)": {
        "details": "Returns primary attribute type of owned by `tokenId`."
      },
      "remove(uint256,uint256)": {
        "details": "See {IERC3664Updatable-remove}."
      },
      "renounceRole(bytes32,address)": {
        "details": "Overload {renounceRole} to track enumerable memberships"
      },
      "revokeRole(bytes32,address)": {
        "details": "Overload {revokeRole} to track enumerable memberships"
      },
      "supportsInterface(bytes4)": {
        "details": "See {IERC165-supportsInterface}."
      },
      "symbol(uint256)": {
        "details": "See {IERC3664Metadata-symbol}."
      },
      "textOf(uint256,uint256)": {
        "details": "See {IERC3664-textOf}."
      }
    },
    "version": 1
  },
  "userdoc": {
    "kind": "user",
    "methods": {},
    "version": 1
  }
}