{
  "contractName": "ERC721",
  "abi": [
    {
      "inputs": [
        {
          "internalType": "string",
          "name": "name_",
          "type": "string"
        },
        {
          "internalType": "string",
          "name": "symbol_",
          "type": "string"
        }
      ],
      "stateMutability": "nonpayable",
      "type": "constructor"
    },
    {
      "anonymous": false,
      "inputs": [
        {
          "indexed": true,
          "internalType": "address",
          "name": "owner",
          "type": "address"
        },
        {
          "indexed": true,
          "internalType": "address",
          "name": "approved",
          "type": "address"
        },
        {
          "indexed": true,
          "internalType": "uint256",
          "name": "tokenId",
          "type": "uint256"
        }
      ],
      "name": "Approval",
      "type": "event"
    },
    {
      "anonymous": false,
      "inputs": [
        {
          "indexed": true,
          "internalType": "address",
          "name": "owner",
          "type": "address"
        },
        {
          "indexed": true,
          "internalType": "address",
          "name": "operator",
          "type": "address"
        },
        {
          "indexed": false,
          "internalType": "bool",
          "name": "approved",
          "type": "bool"
        }
      ],
      "name": "ApprovalForAll",
      "type": "event"
    },
    {
      "anonymous": false,
      "inputs": [
        {
          "indexed": true,
          "internalType": "address",
          "name": "from",
          "type": "address"
        },
        {
          "indexed": true,
          "internalType": "address",
          "name": "to",
          "type": "address"
        },
        {
          "indexed": true,
          "internalType": "uint256",
          "name": "tokenId",
          "type": "uint256"
        }
      ],
      "name": "Transfer",
      "type": "event"
    },
    {
      "inputs": [
        {
          "internalType": "bytes4",
          "name": "interfaceId",
          "type": "bytes4"
        }
      ],
      "name": "supportsInterface",
      "outputs": [
        {
          "internalType": "bool",
          "name": "",
          "type": "bool"
        }
      ],
      "stateMutability": "view",
      "type": "function"
    },
    {
      "inputs": [
        {
          "internalType": "address",
          "name": "owner",
          "type": "address"
        }
      ],
      "name": "balanceOf",
      "outputs": [
        {
          "internalType": "uint256",
          "name": "",
          "type": "uint256"
        }
      ],
      "stateMutability": "view",
      "type": "function"
    },
    {
      "inputs": [
        {
          "internalType": "uint256",
          "name": "tokenId",
          "type": "uint256"
        }
      ],
      "name": "ownerOf",
      "outputs": [
        {
          "internalType": "address",
          "name": "",
          "type": "address"
        }
      ],
      "stateMutability": "view",
      "type": "function"
    },
    {
      "inputs": [],
      "name": "name",
      "outputs": [
        {
          "internalType": "string",
          "name": "",
          "type": "string"
        }
      ],
      "stateMutability": "view",
      "type": "function"
    },
    {
      "inputs": [],
      "name": "symbol",
      "outputs": [
        {
          "internalType": "string",
          "name": "",
          "type": "string"
        }
      ],
      "stateMutability": "view",
      "type": "function"
    },
    {
      "inputs": [
        {
          "internalType": "uint256",
          "name": "tokenId",
          "type": "uint256"
        }
      ],
      "name": "tokenURI",
      "outputs": [
        {
          "internalType": "string",
          "name": "",
          "type": "string"
        }
      ],
      "stateMutability": "view",
      "type": "function"
    },
    {
      "inputs": [
        {
          "internalType": "address",
          "name": "to",
          "type": "address"
        },
        {
          "internalType": "uint256",
          "name": "tokenId",
          "type": "uint256"
        }
      ],
      "name": "approve",
      "outputs": [],
      "stateMutability": "nonpayable",
      "type": "function"
    },
    {
      "inputs": [
        {
          "internalType": "uint256",
          "name": "tokenId",
          "type": "uint256"
        }
      ],
      "name": "getApproved",
      "outputs": [
        {
          "internalType": "address",
          "name": "",
          "type": "address"
        }
      ],
      "stateMutability": "view",
      "type": "function"
    },
    {
      "inputs": [
        {
          "internalType": "address",
          "name": "operator",
          "type": "address"
        },
        {
          "internalType": "bool",
          "name": "approved",
          "type": "bool"
        }
      ],
      "name": "setApprovalForAll",
      "outputs": [],
      "stateMutability": "nonpayable",
      "type": "function"
    },
    {
      "inputs": [
        {
          "internalType": "address",
          "name": "owner",
          "type": "address"
        },
        {
          "internalType": "address",
          "name": "operator",
          "type": "address"
        }
      ],
      "name": "isApprovedForAll",
      "outputs": [
        {
          "internalType": "bool",
          "name": "",
          "type": "bool"
        }
      ],
      "stateMutability": "view",
      "type": "function"
    },
    {
      "inputs": [
        {
          "internalType": "address",
          "name": "from",
          "type": "address"
        },
        {
          "internalType": "address",
          "name": "to",
          "type": "address"
        },
        {
          "internalType": "uint256",
          "name": "tokenId",
          "type": "uint256"
        }
      ],
      "name": "transferFrom",
      "outputs": [],
      "stateMutability": "nonpayable",
      "type": "function"
    },
    {
      "inputs": [
        {
          "internalType": "address",
          "name": "from",
          "type": "address"
        },
        {
          "internalType": "address",
          "name": "to",
          "type": "address"
        },
        {
          "internalType": "uint256",
          "name": "tokenId",
          "type": "uint256"
        }
      ],
      "name": "safeTransferFrom",
      "outputs": [],
      "stateMutability": "nonpayable",
      "type": "function"
    },
    {
      "inputs": [
        {
          "internalType": "address",
          "name": "from",
          "type": "address"
        },
        {
          "internalType": "address",
          "name": "to",
          "type": "address"
        },
        {
          "internalType": "uint256",
          "name": "tokenId",
          "type": "uint256"
        },
        {
          "internalType": "bytes",
          "name": "_data",
          "type": "bytes"
        }
      ],
      "name": "safeTransferFrom",
      "outputs": [],
      "stateMutability": "nonpayable",
      "type": "function"
    }
  ],
  "bytecode": "0x60806040523480156200001157600080fd5b506040516200263638038062002636833981810160405281019062000037919062000193565b81600090805190602001906200004f92919062000071565b5080600190805190602001906200006892919062000071565b50505062000337565b8280546200007f90620002a3565b90600052602060002090601f016020900481019282620000a35760008555620000ef565b82601f10620000be57805160ff1916838001178555620000ef565b82800160010185558215620000ef579182015b82811115620000ee578251825591602001919060010190620000d1565b5b509050620000fe919062000102565b5090565b5b808211156200011d57600081600090555060010162000103565b5090565b60006200013862000132846200023a565b62000206565b9050828152602081018484840111156200015157600080fd5b6200015e8482856200026d565b509392505050565b600082601f8301126200017857600080fd5b81516200018a84826020860162000121565b91505092915050565b60008060408385031215620001a757600080fd5b600083015167ffffffffffffffff811115620001c257600080fd5b620001d08582860162000166565b925050602083015167ffffffffffffffff811115620001ee57600080fd5b620001fc8582860162000166565b9150509250929050565b6000604051905081810181811067ffffffffffffffff8211171562000230576200022f62000308565b5b8060405250919050565b600067ffffffffffffffff82111562000258576200025762000308565b5b601f19601f8301169050602081019050919050565b60005b838110156200028d57808201518184015260208101905062000270565b838111156200029d576000848401525b50505050565b60006002820490506001821680620002bc57607f821691505b60208210811415620002d357620002d2620002d9565b5b50919050565b7f4e487b7100000000000000000000000000000000000000000000000000000000600052602260045260246000fd5b7f4e487b7100000000000000000000000000000000000000000000000000000000600052604160045260246000fd5b6122ef80620003476000396000f3fe608060405234801561001057600080fd5b50600436106100cf5760003560e01c80636352211e1161008c578063a22cb46511610066578063a22cb46514610224578063b88d4fde14610240578063c87b56dd1461025c578063e985e9c51461028c576100cf565b80636352211e146101a657806370a08231146101d657806395d89b4114610206576100cf565b806301ffc9a7146100d457806306fdde0314610104578063081812fc14610122578063095ea7b31461015257806323b872dd1461016e57806342842e0e1461018a575b600080fd5b6100ee60048036038101906100e9919061167f565b6102bc565b6040516100fb9190611cf7565b60405180910390f35b61010c61039e565b6040516101199190611d12565b60405180910390f35b61013c600480360381019061013791906116d1565b610430565b6040516101499190611c90565b60405180910390f35b61016c60048036038101906101679190611643565b6104b5565b005b6101886004803603810190610183919061153d565b6105cd565b005b6101a4600480360381019061019f919061153d565b61062d565b005b6101c060048036038101906101bb91906116d1565b61064d565b6040516101cd9190611c90565b60405180910390f35b6101f060048036038101906101eb91906114d8565b6106ff565b6040516101fd9190611eb4565b60405180910390f35b61020e6107b7565b60405161021b9190611d12565b60405180910390f35b61023e60048036038101906102399190611607565b610849565b005b61025a6004803603810190610255919061158c565b6109ca565b005b610276600480360381019061027191906116d1565b610a2c565b6040516102839190611d12565b60405180910390f35b6102a660048036038101906102a19190611501565b610ad3565b6040516102b39190611cf7565b60405180910390f35b60007f80ac58cd000000000000000000000000000000000000000000000000000000007bffffffffffffffffffffffffffffffffffffffffffffffffffffffff1916827bffffffffffffffffffffffffffffffffffffffffffffffffffffffff1916148061038757507f5b5e139f000000000000000000000000000000000000000000000000000000007bffffffffffffffffffffffffffffffffffffffffffffffffffffffff1916827bffffffffffffffffffffffffffffffffffffffffffffffffffffffff1916145b80610397575061039682610b67565b5b9050919050565b6060600080546103ad906120e4565b80601f01602080910402602001604051908101604052809291908181526020018280546103d9906120e4565b80156104265780601f106103fb57610100808354040283529160200191610426565b820191906000526020600020905b81548152906001019060200180831161040957829003601f168201915b5050505050905090565b600061043b82610bd1565b61047a576040517f08c379a000000000000000000000000000000000000000000000000000000000815260040161047190611e14565b60405180910390fd5b6004600083815260200190815260200160002060009054906101000a900473ffffffffffffffffffffffffffffffffffffffff169050919050565b60006104c08261064d565b90508073ffffffffffffffffffffffffffffffffffffffff168373ffffffffffffffffffffffffffffffffffffffff161415610531576040517f08c379a000000000000000000000000000000000000000000000000000000000815260040161052890611e74565b60405180910390fd5b8073ffffffffffffffffffffffffffffffffffffffff16610550610c3d565b73ffffffffffffffffffffffffffffffffffffffff16148061057f575061057e81610579610c3d565b610ad3565b5b6105be576040517f08c379a00000000000000000000000000000000000000000000000000000000081526004016105b590611db4565b60405180910390fd5b6105c88383610c45565b505050565b6105de6105d8610c3d565b82610cfe565b61061d576040517f08c379a000000000000000000000000000000000000000000000000000000000815260040161061490611e94565b60405180910390fd5b610628838383610ddc565b505050565b610648838383604051806020016040528060008152506109ca565b505050565b6000806002600084815260200190815260200160002060009054906101000a900473ffffffffffffffffffffffffffffffffffffffff169050600073ffffffffffffffffffffffffffffffffffffffff168173ffffffffffffffffffffffffffffffffffffffff1614156106f6576040517f08c379a00000000000000000000000000000000000000000000000000000000081526004016106ed90611df4565b60405180910390fd5b80915050919050565b60008073ffffffffffffffffffffffffffffffffffffffff168273ffffffffffffffffffffffffffffffffffffffff161415610770576040517f08c379a000000000000000000000000000000000000000000000000000000000815260040161076790611dd4565b60405180910390fd5b600360008373ffffffffffffffffffffffffffffffffffffffff1673ffffffffffffffffffffffffffffffffffffffff168152602001908152602001600020549050919050565b6060600180546107c6906120e4565b80601f01602080910402602001604051908101604052809291908181526020018280546107f2906120e4565b801561083f5780601f106108145761010080835404028352916020019161083f565b820191906000526020600020905b81548152906001019060200180831161082257829003601f168201915b5050505050905090565b610851610c3d565b73ffffffffffffffffffffffffffffffffffffffff168273ffffffffffffffffffffffffffffffffffffffff1614156108bf576040517f08c379a00000000000000000000000000000000000000000000000000000000081526004016108b690611d74565b60405180910390fd5b80600560006108cc610c3d565b73ffffffffffffffffffffffffffffffffffffffff1673ffffffffffffffffffffffffffffffffffffffff16815260200190815260200160002060008473ffffffffffffffffffffffffffffffffffffffff1673ffffffffffffffffffffffffffffffffffffffff16815260200190815260200160002060006101000a81548160ff0219169083151502179055508173ffffffffffffffffffffffffffffffffffffffff16610979610c3d565b73ffffffffffffffffffffffffffffffffffffffff167f17307eab39ab6107e8899845ad3d59bd9653f200f220920489ca2b5937696c31836040516109be9190611cf7565b60405180910390a35050565b6109db6109d5610c3d565b83610cfe565b610a1a576040517f08c379a0000000000000000000000000000000000000000000000000000000008152600401610a1190611e94565b60405180910390fd5b610a2684848484611038565b50505050565b6060610a3782610bd1565b610a76576040517f08c379a0000000000000000000000000000000000000000000000000000000008152600401610a6d90611e54565b60405180910390fd5b6000610a80611094565b90506000815111610aa05760405180602001604052806000815250610acb565b80610aaa846110ab565b604051602001610abb929190611c6c565b6040516020818303038152906040525b915050919050565b6000600560008473ffffffffffffffffffffffffffffffffffffffff1673ffffffffffffffffffffffffffffffffffffffff16815260200190815260200160002060008373ffffffffffffffffffffffffffffffffffffffff1673ffffffffffffffffffffffffffffffffffffffff16815260200190815260200160002060009054906101000a900460ff16905092915050565b60007f01ffc9a7000000000000000000000000000000000000000000000000000000007bffffffffffffffffffffffffffffffffffffffffffffffffffffffff1916827bffffffffffffffffffffffffffffffffffffffffffffffffffffffff1916149050919050565b60008073ffffffffffffffffffffffffffffffffffffffff166002600084815260200190815260200160002060009054906101000a900473ffffffffffffffffffffffffffffffffffffffff1673ffffffffffffffffffffffffffffffffffffffff1614159050919050565b600033905090565b816004600083815260200190815260200160002060006101000a81548173ffffffffffffffffffffffffffffffffffffffff021916908373ffffffffffffffffffffffffffffffffffffffff160217905550808273ffffffffffffffffffffffffffffffffffffffff16610cb88361064d565b73ffffffffffffffffffffffffffffffffffffffff167f8c5be1e5ebec7d5bd14f71427d1e84f3dd0314c0f7b2291e5b200ac8c7c3b92560405160405180910390a45050565b6000610d0982610bd1565b610d48576040517f08c379a0000000000000000000000000000000000000000000000000000000008152600401610d3f90611d94565b60405180910390fd5b6000610d538361064d565b90508073ffffffffffffffffffffffffffffffffffffffff168473ffffffffffffffffffffffffffffffffffffffff161480610dc257508373ffffffffffffffffffffffffffffffffffffffff16610daa84610430565b73ffffffffffffffffffffffffffffffffffffffff16145b80610dd35750610dd28185610ad3565b5b91505092915050565b8273ffffffffffffffffffffffffffffffffffffffff16610dfc8261064d565b73ffffffffffffffffffffffffffffffffffffffff1614610e52576040517f08c379a0000000000000000000000000000000000000000000000000000000008152600401610e4990611e34565b60405180910390fd5b600073ffffffffffffffffffffffffffffffffffffffff168273ffffffffffffffffffffffffffffffffffffffff161415610ec2576040517f08c379a0000000000000000000000000000000000000000000000000000000008152600401610eb990611d54565b60405180910390fd5b610ecd838383611258565b610ed8600082610c45565b6001600360008573ffffffffffffffffffffffffffffffffffffffff1673ffffffffffffffffffffffffffffffffffffffff1681526020019081526020016000206000828254610f289190611ffa565b925050819055506001600360008473ffffffffffffffffffffffffffffffffffffffff1673ffffffffffffffffffffffffffffffffffffffff1681526020019081526020016000206000828254610f7f9190611f73565b92505081905550816002600083815260200190815260200160002060006101000a81548173ffffffffffffffffffffffffffffffffffffffff021916908373ffffffffffffffffffffffffffffffffffffffff160217905550808273ffffffffffffffffffffffffffffffffffffffff168473ffffffffffffffffffffffffffffffffffffffff167fddf252ad1be2c89b69c2b068fc378daa952ba7f163c4a11628f55a4df523b3ef60405160405180910390a4505050565b611043848484610ddc565b61104f8484848461125d565b61108e576040517f08c379a000000000000000000000000000000000000000000000000000000000815260040161108590611d34565b60405180910390fd5b50505050565b606060405180602001604052806000815250905090565b606060008214156110f3576040518060400160405280600181526020017f30000000000000000000000000000000000000000000000000000000000000008152509050611253565b600082905060005b6000821461112557808061110e90612116565b915050600a8261111e9190611fc9565b91506110fb565b60008167ffffffffffffffff811115611167577f4e487b7100000000000000000000000000000000000000000000000000000000600052604160045260246000fd5b6040519080825280601f01601f1916602001820160405280156111995781602001600182028036833780820191505090505b5090505b6000851461124c576001826111b29190611ffa565b9150600a856111c1919061215f565b60306111cd9190611f73565b60f81b818381518110611209577f4e487b7100000000000000000000000000000000000000000000000000000000600052603260045260246000fd5b60200101907effffffffffffffffffffffffffffffffffffffffffffffffffffffffffffff1916908160001a905350600a856112459190611fc9565b945061119d565b8093505050505b919050565b505050565b600061127e8473ffffffffffffffffffffffffffffffffffffffff166113f4565b156113e7578373ffffffffffffffffffffffffffffffffffffffff1663150b7a026112a7610c3d565b8786866040518563ffffffff1660e01b81526004016112c99493929190611cab565b602060405180830381600087803b1580156112e357600080fd5b505af192505050801561131457506040513d601f19601f8201168201806040525081019061131191906116a8565b60015b611397573d8060008114611344576040519150601f19603f3d011682016040523d82523d6000602084013e611349565b606091505b5060008151141561138f576040517f08c379a000000000000000000000000000000000000000000000000000000000815260040161138690611d34565b60405180910390fd5b805181602001fd5b63150b7a0260e01b7bffffffffffffffffffffffffffffffffffffffffffffffffffffffff1916817bffffffffffffffffffffffffffffffffffffffffffffffffffffffff1916149150506113ec565b600190505b949350505050565b600080823b905060008111915050919050565b600061141a61141584611f00565b611ecf565b90508281526020810184848401111561143257600080fd5b61143d8482856120a2565b509392505050565b6000813590506114548161225d565b92915050565b60008135905061146981612274565b92915050565b60008135905061147e8161228b565b92915050565b6000815190506114938161228b565b92915050565b600082601f8301126114aa57600080fd5b81356114ba848260208601611407565b91505092915050565b6000813590506114d2816122a2565b92915050565b6000602082840312156114ea57600080fd5b60006114f884828501611445565b91505092915050565b6000806040838503121561151457600080fd5b600061152285828601611445565b925050602061153385828601611445565b9150509250929050565b60008060006060848603121561155257600080fd5b600061156086828701611445565b935050602061157186828701611445565b9250506040611582868287016114c3565b9150509250925092565b600080600080608085870312156115a257600080fd5b60006115b087828801611445565b94505060206115c187828801611445565b93505060406115d2878288016114c3565b925050606085013567ffffffffffffffff8111156115ef57600080fd5b6115fb87828801611499565b91505092959194509250565b6000806040838503121561161a57600080fd5b600061162885828601611445565b92505060206116398582860161145a565b9150509250929050565b6000806040838503121561165657600080fd5b600061166485828601611445565b9250506020611675858286016114c3565b9150509250929050565b60006020828403121561169157600080fd5b600061169f8482850161146f565b91505092915050565b6000602082840312156116ba57600080fd5b60006116c884828501611484565b91505092915050565b6000602082840312156116e357600080fd5b60006116f1848285016114c3565b91505092915050565b6117038161202e565b82525050565b61171281612040565b82525050565b600061172382611f30565b61172d8185611f46565b935061173d8185602086016120b1565b6117468161224c565b840191505092915050565b600061175c82611f3b565b6117668185611f57565b93506117768185602086016120b1565b61177f8161224c565b840191505092915050565b600061179582611f3b565b61179f8185611f68565b93506117af8185602086016120b1565b80840191505092915050565b60006117c8603283611f57565b91507f4552433732313a207472616e7366657220746f206e6f6e20455243373231526560008301527f63656976657220696d706c656d656e74657200000000000000000000000000006020830152604082019050919050565b600061182e602483611f57565b91507f4552433732313a207472616e7366657220746f20746865207a65726f2061646460008301527f72657373000000000000000000000000000000000000000000000000000000006020830152604082019050919050565b6000611894601983611f57565b91507f4552433732313a20617070726f766520746f2063616c6c6572000000000000006000830152602082019050919050565b60006118d4602c83611f57565b91507f4552433732313a206f70657261746f7220717565727920666f72206e6f6e657860008301527f697374656e7420746f6b656e00000000000000000000000000000000000000006020830152604082019050919050565b600061193a603883611f57565b91507f4552433732313a20617070726f76652063616c6c6572206973206e6f74206f7760008301527f6e6572206e6f7220617070726f76656420666f7220616c6c00000000000000006020830152604082019050919050565b60006119a0602a83611f57565b91507f4552433732313a2062616c616e636520717565727920666f7220746865207a6560008301527f726f2061646472657373000000000000000000000000000000000000000000006020830152604082019050919050565b6000611a06602983611f57565b91507f4552433732313a206f776e657220717565727920666f72206e6f6e657869737460008301527f656e7420746f6b656e00000000000000000000000000000000000000000000006020830152604082019050919050565b6000611a6c602c83611f57565b91507f4552433732313a20617070726f76656420717565727920666f72206e6f6e657860008301527f697374656e7420746f6b656e00000000000000000000000000000000000000006020830152604082019050919050565b6000611ad2602983611f57565b91507f4552433732313a207472616e73666572206f6620746f6b656e2074686174206960008301527f73206e6f74206f776e00000000000000000000000000000000000000000000006020830152604082019050919050565b6000611b38602f83611f57565b91507f4552433732314d657461646174613a2055524920717565727920666f72206e6f60008301527f6e6578697374656e7420746f6b656e00000000000000000000000000000000006020830152604082019050919050565b6000611b9e602183611f57565b91507f4552433732313a20617070726f76616c20746f2063757272656e74206f776e6560008301527f72000000000000000000000000000000000000000000000000000000000000006020830152604082019050919050565b6000611c04603183611f57565b91507f4552433732313a207472616e736665722063616c6c6572206973206e6f74206f60008301527f776e6572206e6f7220617070726f7665640000000000000000000000000000006020830152604082019050919050565b611c6681612098565b82525050565b6000611c78828561178a565b9150611c84828461178a565b91508190509392505050565b6000602082019050611ca560008301846116fa565b92915050565b6000608082019050611cc060008301876116fa565b611ccd60208301866116fa565b611cda6040830185611c5d565b8181036060830152611cec8184611718565b905095945050505050565b6000602082019050611d0c6000830184611709565b92915050565b60006020820190508181036000830152611d2c8184611751565b905092915050565b60006020820190508181036000830152611d4d816117bb565b9050919050565b60006020820190508181036000830152611d6d81611821565b9050919050565b60006020820190508181036000830152611d8d81611887565b9050919050565b60006020820190508181036000830152611dad816118c7565b9050919050565b60006020820190508181036000830152611dcd8161192d565b9050919050565b60006020820190508181036000830152611ded81611993565b9050919050565b60006020820190508181036000830152611e0d816119f9565b9050919050565b60006020820190508181036000830152611e2d81611a5f565b9050919050565b60006020820190508181036000830152611e4d81611ac5565b9050919050565b60006020820190508181036000830152611e6d81611b2b565b9050919050565b60006020820190508181036000830152611e8d81611b91565b9050919050565b60006020820190508181036000830152611ead81611bf7565b9050919050565b6000602082019050611ec96000830184611c5d565b92915050565b6000604051905081810181811067ffffffffffffffff82111715611ef657611ef561221d565b5b8060405250919050565b600067ffffffffffffffff821115611f1b57611f1a61221d565b5b601f19601f8301169050602081019050919050565b600081519050919050565b600081519050919050565b600082825260208201905092915050565b600082825260208201905092915050565b600081905092915050565b6000611f7e82612098565b9150611f8983612098565b9250827fffffffffffffffffffffffffffffffffffffffffffffffffffffffffffffffff03821115611fbe57611fbd612190565b5b828201905092915050565b6000611fd482612098565b9150611fdf83612098565b925082611fef57611fee6121bf565b5b828204905092915050565b600061200582612098565b915061201083612098565b92508282101561202357612022612190565b5b828203905092915050565b600061203982612078565b9050919050565b60008115159050919050565b60007fffffffff0000000000000000000000000000000000000000000000000000000082169050919050565b600073ffffffffffffffffffffffffffffffffffffffff82169050919050565b6000819050919050565b82818337600083830152505050565b60005b838110156120cf5780820151818401526020810190506120b4565b838111156120de576000848401525b50505050565b600060028204905060018216806120fc57607f821691505b602082108114156121105761210f6121ee565b5b50919050565b600061212182612098565b91507fffffffffffffffffffffffffffffffffffffffffffffffffffffffffffffffff82141561215457612153612190565b5b600182019050919050565b600061216a82612098565b915061217583612098565b925082612185576121846121bf565b5b828206905092915050565b7f4e487b7100000000000000000000000000000000000000000000000000000000600052601160045260246000fd5b7f4e487b7100000000000000000000000000000000000000000000000000000000600052601260045260246000fd5b7f4e487b7100000000000000000000000000000000000000000000000000000000600052602260045260246000fd5b7f4e487b7100000000000000000000000000000000000000000000000000000000600052604160045260246000fd5b6000601f19601f8301169050919050565b6122668161202e565b811461227157600080fd5b50565b61227d81612040565b811461228857600080fd5b50565b6122948161204c565b811461229f57600080fd5b50565b6122ab81612098565b81146122b657600080fd5b5056fea2646970667358221220169a094f9c81530d00801d98f02c58776cb933ccd3e8411acd6a9189d6e149ac64736f6c63430008000033",
  "immutableReferences": {},
  "source": "/**\r\n *Submitted for verification at Etherscan.io on 2021-08-27\r\n */\r\n\r\n// SPDX-License-Identifier: MIT\r\n\r\npragma solidity ^0.8.0;\r\n\r\n/**\r\n * @dev Interface of the ERC165 standard, as defined in the\r\n * https://eips.ethereum.org/EIPS/eip-165[EIP].\r\n *\r\n * Implementers can declare support of contract interfaces, which can then be\r\n * queried by others ({ERC165Checker}).\r\n *\r\n * For an implementation, see {ERC165}.\r\n */\r\ninterface IERC165 {\r\n    /**\r\n     * @dev Returns true if this contract implements the interface defined by\r\n     * `interfaceId`. See the corresponding\r\n     * https://eips.ethereum.org/EIPS/eip-165#how-interfaces-are-identified[EIP section]\r\n     * to learn more about how these ids are created.\r\n     *\r\n     * This function call must use less than 30 000 gas.\r\n     */\r\n    function supportsInterface(bytes4 interfaceId) external view returns (bool);\r\n}\r\n\r\n/**\r\n * @dev Required interface of an ERC721 compliant contract.\r\n */\r\ninterface IERC721 is IERC165 {\r\n    /**\r\n     * @dev Emitted when `tokenId` token is transferred from `from` to `to`.\r\n     */\r\n    event Transfer(\r\n        address indexed from,\r\n        address indexed to,\r\n        uint256 indexed tokenId\r\n    );\r\n\r\n    /**\r\n     * @dev Emitted when `owner` enables `approved` to manage the `tokenId` token.\r\n     */\r\n    event Approval(\r\n        address indexed owner,\r\n        address indexed approved,\r\n        uint256 indexed tokenId\r\n    );\r\n\r\n    /**\r\n     * @dev Emitted when `owner` enables or disables (`approved`) `operator` to manage all of its assets.\r\n     */\r\n    event ApprovalForAll(\r\n        address indexed owner,\r\n        address indexed operator,\r\n        bool approved\r\n    );\r\n\r\n    /**\r\n     * @dev Returns the number of tokens in ``owner``'s account.\r\n     */\r\n    function balanceOf(address owner) external view returns (uint256 balance);\r\n\r\n    /**\r\n     * @dev Returns the owner of the `tokenId` token.\r\n     *\r\n     * Requirements:\r\n     *\r\n     * - `tokenId` must exist.\r\n     */\r\n    function ownerOf(uint256 tokenId) external view returns (address owner);\r\n\r\n    /**\r\n     * @dev Safely transfers `tokenId` token from `from` to `to`, checking first that contract recipients\r\n     * are aware of the ERC721 protocol to prevent tokens from being forever locked.\r\n     *\r\n     * Requirements:\r\n     *\r\n     * - `from` cannot be the zero address.\r\n     * - `to` cannot be the zero address.\r\n     * - `tokenId` token must exist and be owned by `from`.\r\n     * - If the caller is not `from`, it must be have been allowed to move this token by either {approve} or {setApprovalForAll}.\r\n     * - If `to` refers to a smart contract, it must implement {IERC721Receiver-onERC721Received}, which is called upon a safe transfer.\r\n     *\r\n     * Emits a {Transfer} event.\r\n     */\r\n    function safeTransferFrom(\r\n        address from,\r\n        address to,\r\n        uint256 tokenId\r\n    ) external;\r\n\r\n    /**\r\n     * @dev Transfers `tokenId` token from `from` to `to`.\r\n     *\r\n     * WARNING: Usage of this method is discouraged, use {safeTransferFrom} whenever possible.\r\n     *\r\n     * Requirements:\r\n     *\r\n     * - `from` cannot be the zero address.\r\n     * - `to` cannot be the zero address.\r\n     * - `tokenId` token must be owned by `from`.\r\n     * - If the caller is not `from`, it must be approved to move this token by either {approve} or {setApprovalForAll}.\r\n     *\r\n     * Emits a {Transfer} event.\r\n     */\r\n    function transferFrom(\r\n        address from,\r\n        address to,\r\n        uint256 tokenId\r\n    ) external;\r\n\r\n    /**\r\n     * @dev Gives permission to `to` to transfer `tokenId` token to another account.\r\n     * The approval is cleared when the token is transferred.\r\n     *\r\n     * Only a single account can be approved at a time, so approving the zero address clears previous approvals.\r\n     *\r\n     * Requirements:\r\n     *\r\n     * - The caller must own the token or be an approved operator.\r\n     * - `tokenId` must exist.\r\n     *\r\n     * Emits an {Approval} event.\r\n     */\r\n    function approve(address to, uint256 tokenId) external;\r\n\r\n    /**\r\n     * @dev Returns the account approved for `tokenId` token.\r\n     *\r\n     * Requirements:\r\n     *\r\n     * - `tokenId` must exist.\r\n     */\r\n    function getApproved(uint256 tokenId)\r\n        external\r\n        view\r\n        returns (address operator);\r\n\r\n    /**\r\n     * @dev Approve or remove `operator` as an operator for the caller.\r\n     * Operators can call {transferFrom} or {safeTransferFrom} for any token owned by the caller.\r\n     *\r\n     * Requirements:\r\n     *\r\n     * - The `operator` cannot be the caller.\r\n     *\r\n     * Emits an {ApprovalForAll} event.\r\n     */\r\n    function setApprovalForAll(address operator, bool _approved) external;\r\n\r\n    /**\r\n     * @dev Returns if the `operator` is allowed to manage all of the assets of `owner`.\r\n     *\r\n     * See {setApprovalForAll}\r\n     */\r\n    function isApprovedForAll(address owner, address operator)\r\n        external\r\n        view\r\n        returns (bool);\r\n\r\n    /**\r\n     * @dev Safely transfers `tokenId` token from `from` to `to`.\r\n     *\r\n     * Requirements:\r\n     *\r\n     * - `from` cannot be the zero address.\r\n     * - `to` cannot be the zero address.\r\n     * - `tokenId` token must exist and be owned by `from`.\r\n     * - If the caller is not `from`, it must be approved to move this token by either {approve} or {setApprovalForAll}.\r\n     * - If `to` refers to a smart contract, it must implement {IERC721Receiver-onERC721Received}, which is called upon a safe transfer.\r\n     *\r\n     * Emits a {Transfer} event.\r\n     */\r\n    function safeTransferFrom(\r\n        address from,\r\n        address to,\r\n        uint256 tokenId,\r\n        bytes calldata data\r\n    ) external;\r\n}\r\n\r\n/**\r\n * @dev String operations.\r\n */\r\nlibrary Strings {\r\n    bytes16 private constant _HEX_SYMBOLS = \"0123456789abcdef\";\r\n\r\n    /**\r\n     * @dev Converts a `uint256` to its ASCII `string` decimal representation.\r\n     */\r\n    function toString(uint256 value) internal pure returns (string memory) {\r\n        // Inspired by OraclizeAPI's implementation - MIT licence\r\n        // https://github.com/oraclize/ethereum-api/blob/b42146b063c7d6ee1358846c198246239e9360e8/oraclizeAPI_0.4.25.sol\r\n\r\n        if (value == 0) {\r\n            return \"0\";\r\n        }\r\n        uint256 temp = value;\r\n        uint256 digits;\r\n        while (temp != 0) {\r\n            digits++;\r\n            temp /= 10;\r\n        }\r\n        bytes memory buffer = new bytes(digits);\r\n        while (value != 0) {\r\n            digits -= 1;\r\n            buffer[digits] = bytes1(uint8(48 + uint256(value % 10)));\r\n            value /= 10;\r\n        }\r\n        return string(buffer);\r\n    }\r\n\r\n    /**\r\n     * @dev Converts a `uint256` to its ASCII `string` hexadecimal representation.\r\n     */\r\n    function toHexString(uint256 value) internal pure returns (string memory) {\r\n        if (value == 0) {\r\n            return \"0x00\";\r\n        }\r\n        uint256 temp = value;\r\n        uint256 length = 0;\r\n        while (temp != 0) {\r\n            length++;\r\n            temp >>= 8;\r\n        }\r\n        return toHexString(value, length);\r\n    }\r\n\r\n    /**\r\n     * @dev Converts a `uint256` to its ASCII `string` hexadecimal representation with fixed length.\r\n     */\r\n    function toHexString(uint256 value, uint256 length)\r\n        internal\r\n        pure\r\n        returns (string memory)\r\n    {\r\n        bytes memory buffer = new bytes(2 * length + 2);\r\n        buffer[0] = \"0\";\r\n        buffer[1] = \"x\";\r\n        for (uint256 i = 2 * length + 1; i > 1; --i) {\r\n            buffer[i] = _HEX_SYMBOLS[value & 0xf];\r\n            value >>= 4;\r\n        }\r\n        require(value == 0, \"Strings: hex length insufficient\");\r\n        return string(buffer);\r\n    }\r\n}\r\n\r\n/*\r\n * @dev Provides information about the current execution context, including the\r\n * sender of the transaction and its data. While these are generally available\r\n * via msg.sender and msg.data, they should not be accessed in such a direct\r\n * manner, since when dealing with meta-transactions the account sending and\r\n * paying for execution may not be the actual sender (as far as an application\r\n * is concerned).\r\n *\r\n * This contract is only required for intermediate, library-like contracts.\r\n */\r\nabstract contract Context {\r\n    function _msgSender() internal view virtual returns (address) {\r\n        return msg.sender;\r\n    }\r\n\r\n    function _msgData() internal view virtual returns (bytes calldata) {\r\n        return msg.data;\r\n    }\r\n}\r\n\r\n/**\r\n * @dev Contract module which provides a basic access control mechanism, where\r\n * there is an account (an owner) that can be granted exclusive access to\r\n * specific functions.\r\n *\r\n * By default, the owner account will be the one that deploys the contract. This\r\n * can later be changed with {transferOwnership}.\r\n *\r\n * This module is used through inheritance. It will make available the modifier\r\n * `onlyOwner`, which can be applied to your functions to restrict their use to\r\n * the owner.\r\n */\r\nabstract contract Ownable is Context {\r\n    address private _owner;\r\n\r\n    event OwnershipTransferred(\r\n        address indexed previousOwner,\r\n        address indexed newOwner\r\n    );\r\n\r\n    /**\r\n     * @dev Initializes the contract setting the deployer as the initial owner.\r\n     */\r\n    constructor() {\r\n        _setOwner(_msgSender());\r\n    }\r\n\r\n    /**\r\n     * @dev Returns the address of the current owner.\r\n     */\r\n    function owner() public view virtual returns (address) {\r\n        return _owner;\r\n    }\r\n\r\n    /**\r\n     * @dev Throws if called by any account other than the owner.\r\n     */\r\n    modifier onlyOwner() {\r\n        require(owner() == _msgSender(), \"Ownable: caller is not the owner\");\r\n        _;\r\n    }\r\n\r\n    /**\r\n     * @dev Leaves the contract without owner. It will not be possible to call\r\n     * `onlyOwner` functions anymore. Can only be called by the current owner.\r\n     *\r\n     * NOTE: Renouncing ownership will leave the contract without an owner,\r\n     * thereby removing any functionality that is only available to the owner.\r\n     */\r\n    function renounceOwnership() public virtual onlyOwner {\r\n        _setOwner(address(0));\r\n    }\r\n\r\n    /**\r\n     * @dev Transfers ownership of the contract to a new account (`newOwner`).\r\n     * Can only be called by the current owner.\r\n     */\r\n    function transferOwnership(address newOwner) public virtual onlyOwner {\r\n        require(\r\n            newOwner != address(0),\r\n            \"Ownable: new owner is the zero address\"\r\n        );\r\n        _setOwner(newOwner);\r\n    }\r\n\r\n    function _setOwner(address newOwner) private {\r\n        address oldOwner = _owner;\r\n        _owner = newOwner;\r\n        emit OwnershipTransferred(oldOwner, newOwner);\r\n    }\r\n}\r\n\r\n/**\r\n * @dev Contract module that helps prevent reentrant calls to a function.\r\n *\r\n * Inheriting from `ReentrancyGuard` will make the {nonReentrant} modifier\r\n * available, which can be applied to functions to make sure there are no nested\r\n * (reentrant) calls to them.\r\n *\r\n * Note that because there is a single `nonReentrant` guard, functions marked as\r\n * `nonReentrant` may not call one another. This can be worked around by making\r\n * those functions `private`, and then adding `external` `nonReentrant` entry\r\n * points to them.\r\n *\r\n * TIP: If you would like to learn more about reentrancy and alternative ways\r\n * to protect against it, check out our blog post\r\n * https://blog.openzeppelin.com/reentrancy-after-istanbul/[Reentrancy After Istanbul].\r\n */\r\nabstract contract ReentrancyGuard {\r\n    // Booleans are more expensive than uint256 or any type that takes up a full\r\n    // word because each write operation emits an extra SLOAD to first read the\r\n    // slot's contents, replace the bits taken up by the boolean, and then write\r\n    // back. This is the compiler's defense against contract upgrades and\r\n    // pointer aliasing, and it cannot be disabled.\r\n\r\n    // The values being non-zero value makes deployment a bit more expensive,\r\n    // but in exchange the refund on every call to nonReentrant will be lower in\r\n    // amount. Since refunds are capped to a percentage of the total\r\n    // transaction's gas, it is best to keep them low in cases like this one, to\r\n    // increase the likelihood of the full refund coming into effect.\r\n    uint256 private constant _NOT_ENTERED = 1;\r\n    uint256 private constant _ENTERED = 2;\r\n\r\n    uint256 private _status;\r\n\r\n    constructor() {\r\n        _status = _NOT_ENTERED;\r\n    }\r\n\r\n    /**\r\n     * @dev Prevents a contract from calling itself, directly or indirectly.\r\n     * Calling a `nonReentrant` function from another `nonReentrant`\r\n     * function is not supported. It is possible to prevent this from happening\r\n     * by making the `nonReentrant` function external, and make it call a\r\n     * `private` function that does the actual work.\r\n     */\r\n    modifier nonReentrant() {\r\n        // On the first call to nonReentrant, _notEntered will be true\r\n        require(_status != _ENTERED, \"ReentrancyGuard: reentrant call\");\r\n\r\n        // Any calls to nonReentrant after this point will fail\r\n        _status = _ENTERED;\r\n\r\n        _;\r\n\r\n        // By storing the original value once again, a refund is triggered (see\r\n        // https://eips.ethereum.org/EIPS/eip-2200)\r\n        _status = _NOT_ENTERED;\r\n    }\r\n}\r\n\r\n/**\r\n * @title ERC721 token receiver interface\r\n * @dev Interface for any contract that wants to support safeTransfers\r\n * from ERC721 asset contracts.\r\n */\r\ninterface IERC721Receiver {\r\n    /**\r\n     * @dev Whenever an {IERC721} `tokenId` token is transferred to this contract via {IERC721-safeTransferFrom}\r\n     * by `operator` from `from`, this function is called.\r\n     *\r\n     * It must return its Solidity selector to confirm the token transfer.\r\n     * If any other value is returned or the interface is not implemented by the recipient, the transfer will be reverted.\r\n     *\r\n     * The selector can be obtained in Solidity with `IERC721.onERC721Received.selector`.\r\n     */\r\n    function onERC721Received(\r\n        address operator,\r\n        address from,\r\n        uint256 tokenId,\r\n        bytes calldata data\r\n    ) external returns (bytes4);\r\n}\r\n\r\n/**\r\n * @title ERC-721 Non-Fungible Token Standard, optional metadata extension\r\n * @dev See https://eips.ethereum.org/EIPS/eip-721\r\n */\r\ninterface IERC721Metadata is IERC721 {\r\n    /**\r\n     * @dev Returns the token collection name.\r\n     */\r\n    function name() external view returns (string memory);\r\n\r\n    /**\r\n     * @dev Returns the token collection symbol.\r\n     */\r\n    function symbol() external view returns (string memory);\r\n\r\n    /**\r\n     * @dev Returns the Uniform Resource Identifier (URI) for `tokenId` token.\r\n     */\r\n    function tokenURI(uint256 tokenId) external view returns (string memory);\r\n}\r\n\r\n/**\r\n * @dev Collection of functions related to the address type\r\n */\r\nlibrary Address {\r\n    /**\r\n     * @dev Returns true if `account` is a contract.\r\n     *\r\n     * [IMPORTANT]\r\n     * ====\r\n     * It is unsafe to assume that an address for which this function returns\r\n     * false is an externally-owned account (EOA) and not a contract.\r\n     *\r\n     * Among others, `isContract` will return false for the following\r\n     * types of addresses:\r\n     *\r\n     *  - an externally-owned account\r\n     *  - a contract in construction\r\n     *  - an address where a contract will be created\r\n     *  - an address where a contract lived, but was destroyed\r\n     * ====\r\n     */\r\n    function isContract(address account) internal view returns (bool) {\r\n        // This method relies on extcodesize, which returns 0 for contracts in\r\n        // construction, since the code is only stored at the end of the\r\n        // constructor execution.\r\n\r\n        uint256 size;\r\n        assembly {\r\n            size := extcodesize(account)\r\n        }\r\n        return size > 0;\r\n    }\r\n\r\n    /**\r\n     * @dev Replacement for Solidity's `transfer`: sends `amount` wei to\r\n     * `recipient`, forwarding all available gas and reverting on errors.\r\n     *\r\n     * https://eips.ethereum.org/EIPS/eip-1884[EIP1884] increases the gas cost\r\n     * of certain opcodes, possibly making contracts go over the 2300 gas limit\r\n     * imposed by `transfer`, making them unable to receive funds via\r\n     * `transfer`. {sendValue} removes this limitation.\r\n     *\r\n     * https://diligence.consensys.net/posts/2019/09/stop-using-soliditys-transfer-now/[Learn more].\r\n     *\r\n     * IMPORTANT: because control is transferred to `recipient`, care must be\r\n     * taken to not create reentrancy vulnerabilities. Consider using\r\n     * {ReentrancyGuard} or the\r\n     * https://solidity.readthedocs.io/en/v0.5.11/security-considerations.html#use-the-checks-effects-interactions-pattern[checks-effects-interactions pattern].\r\n     */\r\n    function sendValue(address payable recipient, uint256 amount) internal {\r\n        require(\r\n            address(this).balance >= amount,\r\n            \"Address: insufficient balance\"\r\n        );\r\n\r\n        (bool success, ) = recipient.call{value: amount}(\"\");\r\n        require(\r\n            success,\r\n            \"Address: unable to send value, recipient may have reverted\"\r\n        );\r\n    }\r\n\r\n    /**\r\n     * @dev Performs a Solidity function call using a low level `call`. A\r\n     * plain `call` is an unsafe replacement for a function call: use this\r\n     * function instead.\r\n     *\r\n     * If `target` reverts with a revert reason, it is bubbled up by this\r\n     * function (like regular Solidity function calls).\r\n     *\r\n     * Returns the raw returned data. To convert to the expected return value,\r\n     * use https://solidity.readthedocs.io/en/latest/units-and-global-variables.html?highlight=abi.decode#abi-encoding-and-decoding-functions[`abi.decode`].\r\n     *\r\n     * Requirements:\r\n     *\r\n     * - `target` must be a contract.\r\n     * - calling `target` with `data` must not revert.\r\n     *\r\n     * _Available since v3.1._\r\n     */\r\n    function functionCall(address target, bytes memory data)\r\n        internal\r\n        returns (bytes memory)\r\n    {\r\n        return functionCall(target, data, \"Address: low-level call failed\");\r\n    }\r\n\r\n    /**\r\n     * @dev Same as {xref-Address-functionCall-address-bytes-}[`functionCall`], but with\r\n     * `errorMessage` as a fallback revert reason when `target` reverts.\r\n     *\r\n     * _Available since v3.1._\r\n     */\r\n    function functionCall(\r\n        address target,\r\n        bytes memory data,\r\n        string memory errorMessage\r\n    ) internal returns (bytes memory) {\r\n        return functionCallWithValue(target, data, 0, errorMessage);\r\n    }\r\n\r\n    /**\r\n     * @dev Same as {xref-Address-functionCall-address-bytes-}[`functionCall`],\r\n     * but also transferring `value` wei to `target`.\r\n     *\r\n     * Requirements:\r\n     *\r\n     * - the calling contract must have an ETH balance of at least `value`.\r\n     * - the called Solidity function must be `payable`.\r\n     *\r\n     * _Available since v3.1._\r\n     */\r\n    function functionCallWithValue(\r\n        address target,\r\n        bytes memory data,\r\n        uint256 value\r\n    ) internal returns (bytes memory) {\r\n        return\r\n            functionCallWithValue(\r\n                target,\r\n                data,\r\n                value,\r\n                \"Address: low-level call with value failed\"\r\n            );\r\n    }\r\n\r\n    /**\r\n     * @dev Same as {xref-Address-functionCallWithValue-address-bytes-uint256-}[`functionCallWithValue`], but\r\n     * with `errorMessage` as a fallback revert reason when `target` reverts.\r\n     *\r\n     * _Available since v3.1._\r\n     */\r\n    function functionCallWithValue(\r\n        address target,\r\n        bytes memory data,\r\n        uint256 value,\r\n        string memory errorMessage\r\n    ) internal returns (bytes memory) {\r\n        require(\r\n            address(this).balance >= value,\r\n            \"Address: insufficient balance for call\"\r\n        );\r\n        require(isContract(target), \"Address: call to non-contract\");\r\n\r\n        (bool success, bytes memory returndata) = target.call{value: value}(\r\n            data\r\n        );\r\n        return _verifyCallResult(success, returndata, errorMessage);\r\n    }\r\n\r\n    /**\r\n     * @dev Same as {xref-Address-functionCall-address-bytes-}[`functionCall`],\r\n     * but performing a static call.\r\n     *\r\n     * _Available since v3.3._\r\n     */\r\n    function functionStaticCall(address target, bytes memory data)\r\n        internal\r\n        view\r\n        returns (bytes memory)\r\n    {\r\n        return\r\n            functionStaticCall(\r\n                target,\r\n                data,\r\n                \"Address: low-level static call failed\"\r\n            );\r\n    }\r\n\r\n    /**\r\n     * @dev Same as {xref-Address-functionCall-address-bytes-string-}[`functionCall`],\r\n     * but performing a static call.\r\n     *\r\n     * _Available since v3.3._\r\n     */\r\n    function functionStaticCall(\r\n        address target,\r\n        bytes memory data,\r\n        string memory errorMessage\r\n    ) internal view returns (bytes memory) {\r\n        require(isContract(target), \"Address: static call to non-contract\");\r\n\r\n        (bool success, bytes memory returndata) = target.staticcall(data);\r\n        return _verifyCallResult(success, returndata, errorMessage);\r\n    }\r\n\r\n    /**\r\n     * @dev Same as {xref-Address-functionCall-address-bytes-}[`functionCall`],\r\n     * but performing a delegate call.\r\n     *\r\n     * _Available since v3.4._\r\n     */\r\n    function functionDelegateCall(address target, bytes memory data)\r\n        internal\r\n        returns (bytes memory)\r\n    {\r\n        return\r\n            functionDelegateCall(\r\n                target,\r\n                data,\r\n                \"Address: low-level delegate call failed\"\r\n            );\r\n    }\r\n\r\n    /**\r\n     * @dev Same as {xref-Address-functionCall-address-bytes-string-}[`functionCall`],\r\n     * but performing a delegate call.\r\n     *\r\n     * _Available since v3.4._\r\n     */\r\n    function functionDelegateCall(\r\n        address target,\r\n        bytes memory data,\r\n        string memory errorMessage\r\n    ) internal returns (bytes memory) {\r\n        require(isContract(target), \"Address: delegate call to non-contract\");\r\n\r\n        (bool success, bytes memory returndata) = target.delegatecall(data);\r\n        return _verifyCallResult(success, returndata, errorMessage);\r\n    }\r\n\r\n    function _verifyCallResult(\r\n        bool success,\r\n        bytes memory returndata,\r\n        string memory errorMessage\r\n    ) private pure returns (bytes memory) {\r\n        if (success) {\r\n            return returndata;\r\n        } else {\r\n            // Look for revert reason and bubble it up if present\r\n            if (returndata.length > 0) {\r\n                // The easiest way to bubble the revert reason is using memory via assembly\r\n\r\n                assembly {\r\n                    let returndata_size := mload(returndata)\r\n                    revert(add(32, returndata), returndata_size)\r\n                }\r\n            } else {\r\n                revert(errorMessage);\r\n            }\r\n        }\r\n    }\r\n}\r\n\r\n/**\r\n * @dev Implementation of the {IERC165} interface.\r\n *\r\n * Contracts that want to implement ERC165 should inherit from this contract and override {supportsInterface} to check\r\n * for the additional interface id that will be supported. For example:\r\n *\r\n * ```solidity\r\n * function supportsInterface(bytes4 interfaceId) public view virtual override returns (bool) {\r\n *     return interfaceId == type(MyInterface).interfaceId || super.supportsInterface(interfaceId);\r\n * }\r\n * ```\r\n *\r\n * Alternatively, {ERC165Storage} provides an easier to use but more expensive implementation.\r\n */\r\nabstract contract ERC165 is IERC165 {\r\n    /**\r\n     * @dev See {IERC165-supportsInterface}.\r\n     */\r\n    function supportsInterface(bytes4 interfaceId)\r\n        public\r\n        view\r\n        virtual\r\n        override\r\n        returns (bool)\r\n    {\r\n        return interfaceId == type(IERC165).interfaceId;\r\n    }\r\n}\r\n\r\n/**\r\n * @dev Implementation of https://eips.ethereum.org/EIPS/eip-721[ERC721] Non-Fungible Token Standard, including\r\n * the Metadata extension, but not including the Enumerable extension, which is available separately as\r\n * {ERC721Enumerable}.\r\n */\r\ncontract ERC721 is Context, ERC165, IERC721, IERC721Metadata {\r\n    using Address for address;\r\n    using Strings for uint256;\r\n\r\n    // Token name\r\n    string private _name;\r\n\r\n    // Token symbol\r\n    string private _symbol;\r\n\r\n    // Mapping from token ID to owner address\r\n    mapping(uint256 => address) private _owners;\r\n\r\n    // Mapping owner address to token count\r\n    mapping(address => uint256) private _balances;\r\n\r\n    // Mapping from token ID to approved address\r\n    mapping(uint256 => address) private _tokenApprovals;\r\n\r\n    // Mapping from owner to operator approvals\r\n    mapping(address => mapping(address => bool)) private _operatorApprovals;\r\n\r\n    /**\r\n     * @dev Initializes the contract by setting a `name` and a `symbol` to the token collection.\r\n     */\r\n    constructor(string memory name_, string memory symbol_) {\r\n        _name = name_;\r\n        _symbol = symbol_;\r\n    }\r\n\r\n    /**\r\n     * @dev See {IERC165-supportsInterface}.\r\n     */\r\n    function supportsInterface(bytes4 interfaceId)\r\n        public\r\n        view\r\n        virtual\r\n        override(ERC165, IERC165)\r\n        returns (bool)\r\n    {\r\n        return\r\n            interfaceId == type(IERC721).interfaceId ||\r\n            interfaceId == type(IERC721Metadata).interfaceId ||\r\n            super.supportsInterface(interfaceId);\r\n    }\r\n\r\n    /**\r\n     * @dev See {IERC721-balanceOf}.\r\n     */\r\n    function balanceOf(address owner)\r\n        public\r\n        view\r\n        virtual\r\n        override\r\n        returns (uint256)\r\n    {\r\n        require(\r\n            owner != address(0),\r\n            \"ERC721: balance query for the zero address\"\r\n        );\r\n        return _balances[owner];\r\n    }\r\n\r\n    /**\r\n     * @dev See {IERC721-ownerOf}.\r\n     */\r\n    function ownerOf(uint256 tokenId)\r\n        public\r\n        view\r\n        virtual\r\n        override\r\n        returns (address)\r\n    {\r\n        address owner = _owners[tokenId];\r\n        require(\r\n            owner != address(0),\r\n            \"ERC721: owner query for nonexistent token\"\r\n        );\r\n        return owner;\r\n    }\r\n\r\n    /**\r\n     * @dev See {IERC721Metadata-name}.\r\n     */\r\n    function name() public view virtual override returns (string memory) {\r\n        return _name;\r\n    }\r\n\r\n    /**\r\n     * @dev See {IERC721Metadata-symbol}.\r\n     */\r\n    function symbol() public view virtual override returns (string memory) {\r\n        return _symbol;\r\n    }\r\n\r\n    /**\r\n     * @dev See {IERC721Metadata-tokenURI}.\r\n     */\r\n    function tokenURI(uint256 tokenId)\r\n        public\r\n        view\r\n        virtual\r\n        override\r\n        returns (string memory)\r\n    {\r\n        require(\r\n            _exists(tokenId),\r\n            \"ERC721Metadata: URI query for nonexistent token\"\r\n        );\r\n\r\n        string memory baseURI = _baseURI();\r\n        return\r\n            bytes(baseURI).length > 0\r\n                ? string(abi.encodePacked(baseURI, tokenId.toString()))\r\n                : \"\";\r\n    }\r\n\r\n    /**\r\n     * @dev Base URI for computing {tokenURI}. If set, the resulting URI for each\r\n     * token will be the concatenation of the `baseURI` and the `tokenId`. Empty\r\n     * by default, can be overriden in child contracts.\r\n     */\r\n    function _baseURI() internal view virtual returns (string memory) {\r\n        return \"\";\r\n    }\r\n\r\n    /**\r\n     * @dev See {IERC721-approve}.\r\n     */\r\n    function approve(address to, uint256 tokenId) public virtual override {\r\n        address owner = ERC721.ownerOf(tokenId);\r\n        require(to != owner, \"ERC721: approval to current owner\");\r\n\r\n        require(\r\n            _msgSender() == owner || isApprovedForAll(owner, _msgSender()),\r\n            \"ERC721: approve caller is not owner nor approved for all\"\r\n        );\r\n\r\n        _approve(to, tokenId);\r\n    }\r\n\r\n    /**\r\n     * @dev See {IERC721-getApproved}.\r\n     */\r\n    function getApproved(uint256 tokenId)\r\n        public\r\n        view\r\n        virtual\r\n        override\r\n        returns (address)\r\n    {\r\n        require(\r\n            _exists(tokenId),\r\n            \"ERC721: approved query for nonexistent token\"\r\n        );\r\n\r\n        return _tokenApprovals[tokenId];\r\n    }\r\n\r\n    /**\r\n     * @dev See {IERC721-setApprovalForAll}.\r\n     */\r\n    function setApprovalForAll(address operator, bool approved)\r\n        public\r\n        virtual\r\n        override\r\n    {\r\n        require(operator != _msgSender(), \"ERC721: approve to caller\");\r\n\r\n        _operatorApprovals[_msgSender()][operator] = approved;\r\n        emit ApprovalForAll(_msgSender(), operator, approved);\r\n    }\r\n\r\n    /**\r\n     * @dev See {IERC721-isApprovedForAll}.\r\n     */\r\n    function isApprovedForAll(address owner, address operator)\r\n        public\r\n        view\r\n        virtual\r\n        override\r\n        returns (bool)\r\n    {\r\n        return _operatorApprovals[owner][operator];\r\n    }\r\n\r\n    /**\r\n     * @dev See {IERC721-transferFrom}.\r\n     */\r\n    function transferFrom(\r\n        address from,\r\n        address to,\r\n        uint256 tokenId\r\n    ) public virtual override {\r\n        //solhint-disable-next-line max-line-length\r\n        require(\r\n            _isApprovedOrOwner(_msgSender(), tokenId),\r\n            \"ERC721: transfer caller is not owner nor approved\"\r\n        );\r\n\r\n        _transfer(from, to, tokenId);\r\n    }\r\n\r\n    /**\r\n     * @dev See {IERC721-safeTransferFrom}.\r\n     */\r\n    function safeTransferFrom(\r\n        address from,\r\n        address to,\r\n        uint256 tokenId\r\n    ) public virtual override {\r\n        safeTransferFrom(from, to, tokenId, \"\");\r\n    }\r\n\r\n    /**\r\n     * @dev See {IERC721-safeTransferFrom}.\r\n     */\r\n    function safeTransferFrom(\r\n        address from,\r\n        address to,\r\n        uint256 tokenId,\r\n        bytes memory _data\r\n    ) public virtual override {\r\n        require(\r\n            _isApprovedOrOwner(_msgSender(), tokenId),\r\n            \"ERC721: transfer caller is not owner nor approved\"\r\n        );\r\n        _safeTransfer(from, to, tokenId, _data);\r\n    }\r\n\r\n    /**\r\n     * @dev Safely transfers `tokenId` token from `from` to `to`, checking first that contract recipients\r\n     * are aware of the ERC721 protocol to prevent tokens from being forever locked.\r\n     *\r\n     * `_data` is additional data, it has no specified format and it is sent in call to `to`.\r\n     *\r\n     * This internal function is equivalent to {safeTransferFrom}, and can be used to e.g.\r\n     * implement alternative mechanisms to perform token transfer, such as signature-based.\r\n     *\r\n     * Requirements:\r\n     *\r\n     * - `from` cannot be the zero address.\r\n     * - `to` cannot be the zero address.\r\n     * - `tokenId` token must exist and be owned by `from`.\r\n     * - If `to` refers to a smart contract, it must implement {IERC721Receiver-onERC721Received}, which is called upon a safe transfer.\r\n     *\r\n     * Emits a {Transfer} event.\r\n     */\r\n    function _safeTransfer(\r\n        address from,\r\n        address to,\r\n        uint256 tokenId,\r\n        bytes memory _data\r\n    ) internal virtual {\r\n        _transfer(from, to, tokenId);\r\n        require(\r\n            _checkOnERC721Received(from, to, tokenId, _data),\r\n            \"ERC721: transfer to non ERC721Receiver implementer\"\r\n        );\r\n    }\r\n\r\n    /**\r\n     * @dev Returns whether `tokenId` exists.\r\n     *\r\n     * Tokens can be managed by their owner or approved accounts via {approve} or {setApprovalForAll}.\r\n     *\r\n     * Tokens start existing when they are minted (`_mint`),\r\n     * and stop existing when they are burned (`_burn`).\r\n     */\r\n    function _exists(uint256 tokenId) internal view virtual returns (bool) {\r\n        return _owners[tokenId] != address(0);\r\n    }\r\n\r\n    /**\r\n     * @dev Returns whether `spender` is allowed to manage `tokenId`.\r\n     *\r\n     * Requirements:\r\n     *\r\n     * - `tokenId` must exist.\r\n     */\r\n    function _isApprovedOrOwner(address spender, uint256 tokenId)\r\n        internal\r\n        view\r\n        virtual\r\n        returns (bool)\r\n    {\r\n        require(\r\n            _exists(tokenId),\r\n            \"ERC721: operator query for nonexistent token\"\r\n        );\r\n        address owner = ERC721.ownerOf(tokenId);\r\n        return (spender == owner ||\r\n            getApproved(tokenId) == spender ||\r\n            isApprovedForAll(owner, spender));\r\n    }\r\n\r\n    /**\r\n     * @dev Safely mints `tokenId` and transfers it to `to`.\r\n     *\r\n     * Requirements:\r\n     *\r\n     * - `tokenId` must not exist.\r\n     * - If `to` refers to a smart contract, it must implement {IERC721Receiver-onERC721Received}, which is called upon a safe transfer.\r\n     *\r\n     * Emits a {Transfer} event.\r\n     */\r\n    function _safeMint(address to, uint256 tokenId) internal virtual {\r\n        _safeMint(to, tokenId, \"\");\r\n    }\r\n\r\n    /**\r\n     * @dev Same as {xref-ERC721-_safeMint-address-uint256-}[`_safeMint`], with an additional `data` parameter which is\r\n     * forwarded in {IERC721Receiver-onERC721Received} to contract recipients.\r\n     */\r\n    function _safeMint(\r\n        address to,\r\n        uint256 tokenId,\r\n        bytes memory _data\r\n    ) internal virtual {\r\n        _mint(to, tokenId);\r\n        require(\r\n            _checkOnERC721Received(address(0), to, tokenId, _data),\r\n            \"ERC721: transfer to non ERC721Receiver implementer\"\r\n        );\r\n    }\r\n\r\n    /**\r\n     * @dev Mints `tokenId` and transfers it to `to`.\r\n     *\r\n     * WARNING: Usage of this method is discouraged, use {_safeMint} whenever possible\r\n     *\r\n     * Requirements:\r\n     *\r\n     * - `tokenId` must not exist.\r\n     * - `to` cannot be the zero address.\r\n     *\r\n     * Emits a {Transfer} event.\r\n     */\r\n    function _mint(address to, uint256 tokenId) internal virtual {\r\n        require(to != address(0), \"ERC721: mint to the zero address\");\r\n        require(!_exists(tokenId), \"ERC721: token already minted\");\r\n\r\n        _beforeTokenTransfer(address(0), to, tokenId);\r\n\r\n        _balances[to] += 1;\r\n        _owners[tokenId] = to;\r\n\r\n        emit Transfer(address(0), to, tokenId);\r\n    }\r\n\r\n    /**\r\n     * @dev Destroys `tokenId`.\r\n     * The approval is cleared when the token is burned.\r\n     *\r\n     * Requirements:\r\n     *\r\n     * - `tokenId` must exist.\r\n     *\r\n     * Emits a {Transfer} event.\r\n     */\r\n    function _burn(uint256 tokenId) internal virtual {\r\n        address owner = ERC721.ownerOf(tokenId);\r\n\r\n        _beforeTokenTransfer(owner, address(0), tokenId);\r\n\r\n        // Clear approvals\r\n        _approve(address(0), tokenId);\r\n\r\n        _balances[owner] -= 1;\r\n        delete _owners[tokenId];\r\n\r\n        emit Transfer(owner, address(0), tokenId);\r\n    }\r\n\r\n    /**\r\n     * @dev Transfers `tokenId` from `from` to `to`.\r\n     *  As opposed to {transferFrom}, this imposes no restrictions on msg.sender.\r\n     *\r\n     * Requirements:\r\n     *\r\n     * - `to` cannot be the zero address.\r\n     * - `tokenId` token must be owned by `from`.\r\n     *\r\n     * Emits a {Transfer} event.\r\n     */\r\n    function _transfer(\r\n        address from,\r\n        address to,\r\n        uint256 tokenId\r\n    ) internal virtual {\r\n        require(\r\n            ERC721.ownerOf(tokenId) == from,\r\n            \"ERC721: transfer of token that is not own\"\r\n        );\r\n        require(to != address(0), \"ERC721: transfer to the zero address\");\r\n\r\n        _beforeTokenTransfer(from, to, tokenId);\r\n\r\n        // Clear approvals from the previous owner\r\n        _approve(address(0), tokenId);\r\n\r\n        _balances[from] -= 1;\r\n        _balances[to] += 1;\r\n        _owners[tokenId] = to;\r\n\r\n        emit Transfer(from, to, tokenId);\r\n    }\r\n\r\n    /**\r\n     * @dev Approve `to` to operate on `tokenId`\r\n     *\r\n     * Emits a {Approval} event.\r\n     */\r\n    function _approve(address to, uint256 tokenId) internal virtual {\r\n        _tokenApprovals[tokenId] = to;\r\n        emit Approval(ERC721.ownerOf(tokenId), to, tokenId);\r\n    }\r\n\r\n    /**\r\n     * @dev Internal function to invoke {IERC721Receiver-onERC721Received} on a target address.\r\n     * The call is not executed if the target address is not a contract.\r\n     *\r\n     * @param from address representing the previous owner of the given token ID\r\n     * @param to target address that will receive the tokens\r\n     * @param tokenId uint256 ID of the token to be transferred\r\n     * @param _data bytes optional data to send along with the call\r\n     * @return bool whether the call correctly returned the expected magic value\r\n     */\r\n    function _checkOnERC721Received(\r\n        address from,\r\n        address to,\r\n        uint256 tokenId,\r\n        bytes memory _data\r\n    ) private returns (bool) {\r\n        if (to.isContract()) {\r\n            try\r\n                IERC721Receiver(to).onERC721Received(\r\n                    _msgSender(),\r\n                    from,\r\n                    tokenId,\r\n                    _data\r\n                )\r\n            returns (bytes4 retval) {\r\n                return retval == IERC721Receiver(to).onERC721Received.selector;\r\n            } catch (bytes memory reason) {\r\n                if (reason.length == 0) {\r\n                    revert(\r\n                        \"ERC721: transfer to non ERC721Receiver implementer\"\r\n                    );\r\n                } else {\r\n                    assembly {\r\n                        revert(add(32, reason), mload(reason))\r\n                    }\r\n                }\r\n            }\r\n        } else {\r\n            return true;\r\n        }\r\n    }\r\n\r\n    /**\r\n     * @dev Hook that is called before any token transfer. This includes minting\r\n     * and burning.\r\n     *\r\n     * Calling conditions:\r\n     *\r\n     * - When `from` and `to` are both non-zero, ``from``'s `tokenId` will be\r\n     * transferred to `to`.\r\n     * - When `from` is zero, `tokenId` will be minted for `to`.\r\n     * - When `to` is zero, ``from``'s `tokenId` will be burned.\r\n     * - `from` and `to` are never both zero.\r\n     *\r\n     * To learn more about hooks, head to xref:ROOT:extending-contracts.adoc#using-hooks[Using Hooks].\r\n     */\r\n    function _beforeTokenTransfer(\r\n        address from,\r\n        address to,\r\n        uint256 tokenId\r\n    ) internal virtual {}\r\n}\r\n\r\n/**\r\n * @title ERC-721 Non-Fungible Token Standard, optional enumeration extension\r\n * @dev See https://eips.ethereum.org/EIPS/eip-721\r\n */\r\ninterface IERC721Enumerable is IERC721 {\r\n    /**\r\n     * @dev Returns the total amount of tokens stored by the contract.\r\n     */\r\n    function totalSupply() external view returns (uint256);\r\n\r\n    /**\r\n     * @dev Returns a token ID owned by `owner` at a given `index` of its token list.\r\n     * Use along with {balanceOf} to enumerate all of ``owner``'s tokens.\r\n     */\r\n    function tokenOfOwnerByIndex(address owner, uint256 index)\r\n        external\r\n        view\r\n        returns (uint256 tokenId);\r\n\r\n    /**\r\n     * @dev Returns a token ID at a given `index` of all the tokens stored by the contract.\r\n     * Use along with {totalSupply} to enumerate all tokens.\r\n     */\r\n    function tokenByIndex(uint256 index) external view returns (uint256);\r\n}\r\n\r\n/**\r\n * @dev This implements an optional extension of {ERC721} defined in the EIP that adds\r\n * enumerability of all the token ids in the contract as well as all token ids owned by each\r\n * account.\r\n */\r\nabstract contract ERC721Enumerable is ERC721, IERC721Enumerable {\r\n    // Mapping from owner to list of owned token IDs\r\n    mapping(address => mapping(uint256 => uint256)) private _ownedTokens;\r\n\r\n    // Mapping from token ID to index of the owner tokens list\r\n    mapping(uint256 => uint256) private _ownedTokensIndex;\r\n\r\n    // Array with all token ids, used for enumeration\r\n    uint256[] private _allTokens;\r\n\r\n    // Mapping from token id to position in the allTokens array\r\n    mapping(uint256 => uint256) private _allTokensIndex;\r\n\r\n    /**\r\n     * @dev See {IERC165-supportsInterface}.\r\n     */\r\n    function supportsInterface(bytes4 interfaceId)\r\n        public\r\n        view\r\n        virtual\r\n        override(IERC165, ERC721)\r\n        returns (bool)\r\n    {\r\n        return\r\n            interfaceId == type(IERC721Enumerable).interfaceId ||\r\n            super.supportsInterface(interfaceId);\r\n    }\r\n\r\n    /**\r\n     * @dev See {IERC721Enumerable-tokenOfOwnerByIndex}.\r\n     */\r\n    function tokenOfOwnerByIndex(address owner, uint256 index)\r\n        public\r\n        view\r\n        virtual\r\n        override\r\n        returns (uint256)\r\n    {\r\n        require(\r\n            index < ERC721.balanceOf(owner),\r\n            \"ERC721Enumerable: owner index out of bounds\"\r\n        );\r\n        return _ownedTokens[owner][index];\r\n    }\r\n\r\n    /**\r\n     * @dev See {IERC721Enumerable-totalSupply}.\r\n     */\r\n    function totalSupply() public view virtual override returns (uint256) {\r\n        return _allTokens.length;\r\n    }\r\n\r\n    /**\r\n     * @dev See {IERC721Enumerable-tokenByIndex}.\r\n     */\r\n    function tokenByIndex(uint256 index)\r\n        public\r\n        view\r\n        virtual\r\n        override\r\n        returns (uint256)\r\n    {\r\n        require(\r\n            index < ERC721Enumerable.totalSupply(),\r\n            \"ERC721Enumerable: global index out of bounds\"\r\n        );\r\n        return _allTokens[index];\r\n    }\r\n\r\n    /**\r\n     * @dev Hook that is called before any token transfer. This includes minting\r\n     * and burning.\r\n     *\r\n     * Calling conditions:\r\n     *\r\n     * - When `from` and `to` are both non-zero, ``from``'s `tokenId` will be\r\n     * transferred to `to`.\r\n     * - When `from` is zero, `tokenId` will be minted for `to`.\r\n     * - When `to` is zero, ``from``'s `tokenId` will be burned.\r\n     * - `from` cannot be the zero address.\r\n     * - `to` cannot be the zero address.\r\n     *\r\n     * To learn more about hooks, head to xref:ROOT:extending-contracts.adoc#using-hooks[Using Hooks].\r\n     */\r\n    function _beforeTokenTransfer(\r\n        address from,\r\n        address to,\r\n        uint256 tokenId\r\n    ) internal virtual override {\r\n        super._beforeTokenTransfer(from, to, tokenId);\r\n\r\n        if (from == address(0)) {\r\n            _addTokenToAllTokensEnumeration(tokenId);\r\n        } else if (from != to) {\r\n            _removeTokenFromOwnerEnumeration(from, tokenId);\r\n        }\r\n        if (to == address(0)) {\r\n            _removeTokenFromAllTokensEnumeration(tokenId);\r\n        } else if (to != from) {\r\n            _addTokenToOwnerEnumeration(to, tokenId);\r\n        }\r\n    }\r\n\r\n    /**\r\n     * @dev Private function to add a token to this extension's ownership-tracking data structures.\r\n     * @param to address representing the new owner of the given token ID\r\n     * @param tokenId uint256 ID of the token to be added to the tokens list of the given address\r\n     */\r\n    function _addTokenToOwnerEnumeration(address to, uint256 tokenId) private {\r\n        uint256 length = ERC721.balanceOf(to);\r\n        _ownedTokens[to][length] = tokenId;\r\n        _ownedTokensIndex[tokenId] = length;\r\n    }\r\n\r\n    /**\r\n     * @dev Private function to add a token to this extension's token tracking data structures.\r\n     * @param tokenId uint256 ID of the token to be added to the tokens list\r\n     */\r\n    function _addTokenToAllTokensEnumeration(uint256 tokenId) private {\r\n        _allTokensIndex[tokenId] = _allTokens.length;\r\n        _allTokens.push(tokenId);\r\n    }\r\n\r\n    /**\r\n     * @dev Private function to remove a token from this extension's ownership-tracking data structures. Note that\r\n     * while the token is not assigned a new owner, the `_ownedTokensIndex` mapping is _not_ updated: this allows for\r\n     * gas optimizations e.g. when performing a transfer operation (avoiding double writes).\r\n     * This has O(1) time complexity, but alters the order of the _ownedTokens array.\r\n     * @param from address representing the previous owner of the given token ID\r\n     * @param tokenId uint256 ID of the token to be removed from the tokens list of the given address\r\n     */\r\n    function _removeTokenFromOwnerEnumeration(address from, uint256 tokenId)\r\n        private\r\n    {\r\n        // To prevent a gap in from's tokens array, we store the last token in the index of the token to delete, and\r\n        // then delete the last slot (swap and pop).\r\n\r\n        uint256 lastTokenIndex = ERC721.balanceOf(from) - 1;\r\n        uint256 tokenIndex = _ownedTokensIndex[tokenId];\r\n\r\n        // When the token to delete is the last token, the swap operation is unnecessary\r\n        if (tokenIndex != lastTokenIndex) {\r\n            uint256 lastTokenId = _ownedTokens[from][lastTokenIndex];\r\n\r\n            _ownedTokens[from][tokenIndex] = lastTokenId; // Move the last token to the slot of the to-delete token\r\n            _ownedTokensIndex[lastTokenId] = tokenIndex; // Update the moved token's index\r\n        }\r\n\r\n        // This also deletes the contents at the last position of the array\r\n        delete _ownedTokensIndex[tokenId];\r\n        delete _ownedTokens[from][lastTokenIndex];\r\n    }\r\n\r\n    /**\r\n     * @dev Private function to remove a token from this extension's token tracking data structures.\r\n     * This has O(1) time complexity, but alters the order of the _allTokens array.\r\n     * @param tokenId uint256 ID of the token to be removed from the tokens list\r\n     */\r\n    function _removeTokenFromAllTokensEnumeration(uint256 tokenId) private {\r\n        // To prevent a gap in the tokens array, we store the last token in the index of the token to delete, and\r\n        // then delete the last slot (swap and pop).\r\n\r\n        uint256 lastTokenIndex = _allTokens.length - 1;\r\n        uint256 tokenIndex = _allTokensIndex[tokenId];\r\n\r\n        // When the token to delete is the last token, the swap operation is unnecessary. However, since this occurs so\r\n        // rarely (when the last minted token is burnt) that we still do the swap here to avoid the gas cost of adding\r\n        // an 'if' statement (like in _removeTokenFromOwnerEnumeration)\r\n        uint256 lastTokenId = _allTokens[lastTokenIndex];\r\n\r\n        _allTokens[tokenIndex] = lastTokenId; // Move the last token to the slot of the to-delete token\r\n        _allTokensIndex[lastTokenId] = tokenIndex; // Update the moved token's index\r\n\r\n        // This also deletes the contents at the last position of the array\r\n        delete _allTokensIndex[tokenId];\r\n        _allTokens.pop();\r\n    }\r\n}\r\n\r\ncontract Loot is ERC721Enumerable, ReentrancyGuard, Ownable {\r\n    string[] private weapons = [\r\n        \"Warhammer\",\r\n        \"Quarterstaff\",\r\n        \"Maul\",\r\n        \"Mace\",\r\n        \"Club\",\r\n        \"Katana\",\r\n        \"Falchion\",\r\n        \"Scimitar\",\r\n        \"Long Sword\",\r\n        \"Short Sword\",\r\n        \"Ghost Wand\",\r\n        \"Grave Wand\",\r\n        \"Bone Wand\",\r\n        \"Wand\",\r\n        \"Grimoire\",\r\n        \"Chronicle\",\r\n        \"Tome\",\r\n        \"Book\"\r\n    ];\r\n\r\n    string[] private chestArmor = [\r\n        \"Divine Robe\",\r\n        \"Silk Robe\",\r\n        \"Linen Robe\",\r\n        \"Robe\",\r\n        \"Shirt\",\r\n        \"Demon Husk\",\r\n        \"Dragonskin Armor\",\r\n        \"Studded Leather Armor\",\r\n        \"Hard Leather Armor\",\r\n        \"Leather Armor\",\r\n        \"Holy Chestplate\",\r\n        \"Ornate Chestplate\",\r\n        \"Plate Mail\",\r\n        \"Chain Mail\",\r\n        \"Ring Mail\"\r\n    ];\r\n\r\n    string[] private headArmor = [\r\n        \"Ancient Helm\",\r\n        \"Ornate Helm\",\r\n        \"Great Helm\",\r\n        \"Full Helm\",\r\n        \"Helm\",\r\n        \"Demon Crown\",\r\n        \"Dragon's Crown\",\r\n        \"War Cap\",\r\n        \"Leather Cap\",\r\n        \"Cap\",\r\n        \"Crown\",\r\n        \"Divine Hood\",\r\n        \"Silk Hood\",\r\n        \"Linen Hood\",\r\n        \"Hood\"\r\n    ];\r\n\r\n    string[] private waistArmor = [\r\n        \"Ornate Belt\",\r\n        \"War Belt\",\r\n        \"Plated Belt\",\r\n        \"Mesh Belt\",\r\n        \"Heavy Belt\",\r\n        \"Demonhide Belt\",\r\n        \"Dragonskin Belt\",\r\n        \"Studded Leather Belt\",\r\n        \"Hard Leather Belt\",\r\n        \"Leather Belt\",\r\n        \"Brightsilk Sash\",\r\n        \"Silk Sash\",\r\n        \"Wool Sash\",\r\n        \"Linen Sash\",\r\n        \"Sash\"\r\n    ];\r\n\r\n    string[] private footArmor = [\r\n        \"Holy Greaves\",\r\n        \"Ornate Greaves\",\r\n        \"Greaves\",\r\n        \"Chain Boots\",\r\n        \"Heavy Boots\",\r\n        \"Demonhide Boots\",\r\n        \"Dragonskin Boots\",\r\n        \"Studded Leather Boots\",\r\n        \"Hard Leather Boots\",\r\n        \"Leather Boots\",\r\n        \"Divine Slippers\",\r\n        \"Silk Slippers\",\r\n        \"Wool Shoes\",\r\n        \"Linen Shoes\",\r\n        \"Shoes\"\r\n    ];\r\n\r\n    string[] private handArmor = [\r\n        \"Holy Gauntlets\",\r\n        \"Ornate Gauntlets\",\r\n        \"Gauntlets\",\r\n        \"Chain Gloves\",\r\n        \"Heavy Gloves\",\r\n        \"Demon's Hands\",\r\n        \"Dragonskin Gloves\",\r\n        \"Studded Leather Gloves\",\r\n        \"Hard Leather Gloves\",\r\n        \"Leather Gloves\",\r\n        \"Divine Gloves\",\r\n        \"Silk Gloves\",\r\n        \"Wool Gloves\",\r\n        \"Linen Gloves\",\r\n        \"Gloves\"\r\n    ];\r\n\r\n    string[] private necklaces = [\"Necklace\", \"Amulet\", \"Pendant\"];\r\n\r\n    string[] private rings = [\r\n        \"Gold Ring\",\r\n        \"Silver Ring\",\r\n        \"Bronze Ring\",\r\n        \"Platinum Ring\",\r\n        \"Titanium Ring\"\r\n    ];\r\n\r\n    string[] private suffixes = [\r\n        \"of Power\",\r\n        \"of Giants\",\r\n        \"of Titans\",\r\n        \"of Skill\",\r\n        \"of Perfection\",\r\n        \"of Brilliance\",\r\n        \"of Enlightenment\",\r\n        \"of Protection\",\r\n        \"of Anger\",\r\n        \"of Rage\",\r\n        \"of Fury\",\r\n        \"of Vitriol\",\r\n        \"of the Fox\",\r\n        \"of Detection\",\r\n        \"of Reflection\",\r\n        \"of the Twins\"\r\n    ];\r\n\r\n    string[] private namePrefixes = [\r\n        \"Agony\",\r\n        \"Apocalypse\",\r\n        \"Armageddon\",\r\n        \"Beast\",\r\n        \"Behemoth\",\r\n        \"Blight\",\r\n        \"Blood\",\r\n        \"Bramble\",\r\n        \"Brimstone\",\r\n        \"Brood\",\r\n        \"Carrion\",\r\n        \"Cataclysm\",\r\n        \"Chimeric\",\r\n        \"Corpse\",\r\n        \"Corruption\",\r\n        \"Damnation\",\r\n        \"Death\",\r\n        \"Demon\",\r\n        \"Dire\",\r\n        \"Dragon\",\r\n        \"Dread\",\r\n        \"Doom\",\r\n        \"Dusk\",\r\n        \"Eagle\",\r\n        \"Empyrean\",\r\n        \"Fate\",\r\n        \"Foe\",\r\n        \"Gale\",\r\n        \"Ghoul\",\r\n        \"Gloom\",\r\n        \"Glyph\",\r\n        \"Golem\",\r\n        \"Grim\",\r\n        \"Hate\",\r\n        \"Havoc\",\r\n        \"Honour\",\r\n        \"Horror\",\r\n        \"Hypnotic\",\r\n        \"Kraken\",\r\n        \"Loath\",\r\n        \"Maelstrom\",\r\n        \"Mind\",\r\n        \"Miracle\",\r\n        \"Morbid\",\r\n        \"Oblivion\",\r\n        \"Onslaught\",\r\n        \"Pain\",\r\n        \"Pandemonium\",\r\n        \"Phoenix\",\r\n        \"Plague\",\r\n        \"Rage\",\r\n        \"Rapture\",\r\n        \"Rune\",\r\n        \"Skull\",\r\n        \"Sol\",\r\n        \"Soul\",\r\n        \"Sorrow\",\r\n        \"Spirit\",\r\n        \"Storm\",\r\n        \"Tempest\",\r\n        \"Torment\",\r\n        \"Vengeance\",\r\n        \"Victory\",\r\n        \"Viper\",\r\n        \"Vortex\",\r\n        \"Woe\",\r\n        \"Wrath\",\r\n        \"Light's\",\r\n        \"Shimmering\"\r\n    ];\r\n\r\n    string[] private nameSuffixes = [\r\n        \"Bane\",\r\n        \"Root\",\r\n        \"Bite\",\r\n        \"Song\",\r\n        \"Roar\",\r\n        \"Grasp\",\r\n        \"Instrument\",\r\n        \"Glow\",\r\n        \"Bender\",\r\n        \"Shadow\",\r\n        \"Whisper\",\r\n        \"Shout\",\r\n        \"Growl\",\r\n        \"Tear\",\r\n        \"Peak\",\r\n        \"Form\",\r\n        \"Sun\",\r\n        \"Moon\"\r\n    ];\r\n\r\n    function random(string memory input) internal pure returns (uint256) {\r\n        return uint256(keccak256(abi.encodePacked(input)));\r\n    }\r\n\r\n    function getWeapon(uint256 tokenId) public view returns (string memory) {\r\n        return pluck(tokenId, \"WEAPON\", weapons);\r\n    }\r\n\r\n    function getChest(uint256 tokenId) public view returns (string memory) {\r\n        return pluck(tokenId, \"CHEST\", chestArmor);\r\n    }\r\n\r\n    function getHead(uint256 tokenId) public view returns (string memory) {\r\n        return pluck(tokenId, \"HEAD\", headArmor);\r\n    }\r\n\r\n    function getWaist(uint256 tokenId) public view returns (string memory) {\r\n        return pluck(tokenId, \"WAIST\", waistArmor);\r\n    }\r\n\r\n    function getFoot(uint256 tokenId) public view returns (string memory) {\r\n        return pluck(tokenId, \"FOOT\", footArmor);\r\n    }\r\n\r\n    function getHand(uint256 tokenId) public view returns (string memory) {\r\n        return pluck(tokenId, \"HAND\", handArmor);\r\n    }\r\n\r\n    function getNeck(uint256 tokenId) public view returns (string memory) {\r\n        return pluck(tokenId, \"NECK\", necklaces);\r\n    }\r\n\r\n    function getRing(uint256 tokenId) public view returns (string memory) {\r\n        return pluck(tokenId, \"RING\", rings);\r\n    }\r\n\r\n    function pluck(\r\n        uint256 tokenId,\r\n        string memory keyPrefix,\r\n        string[] memory sourceArray\r\n    ) internal view returns (string memory) {\r\n        uint256 rand = random(\r\n            string(abi.encodePacked(keyPrefix, toString(tokenId)))\r\n        );\r\n        string memory output = sourceArray[rand % sourceArray.length];\r\n        uint256 greatness = rand % 21;\r\n        if (greatness > 14) {\r\n            output = string(\r\n                abi.encodePacked(output, \" \", suffixes[rand % suffixes.length])\r\n            );\r\n        }\r\n        if (greatness >= 19) {\r\n            string[2] memory name;\r\n            name[0] = namePrefixes[rand % namePrefixes.length];\r\n            name[1] = nameSuffixes[rand % nameSuffixes.length];\r\n            if (greatness == 19) {\r\n                output = string(\r\n                    abi.encodePacked('\"', name[0], \" \", name[1], '\" ', output)\r\n                );\r\n            } else {\r\n                output = string(\r\n                    abi.encodePacked(\r\n                        '\"',\r\n                        name[0],\r\n                        \" \",\r\n                        name[1],\r\n                        '\" ',\r\n                        output,\r\n                        \" +1\"\r\n                    )\r\n                );\r\n            }\r\n        }\r\n        return output;\r\n    }\r\n\r\n    function tokenURI(uint256 tokenId)\r\n        public\r\n        view\r\n        override\r\n        returns (string memory)\r\n    {\r\n        string[17] memory parts;\r\n        parts[\r\n            0\r\n        ] = '<svg xmlns=\"http://www.w3.org/2000/svg\" preserveAspectRatio=\"xMinYMin meet\" viewBox=\"0 0 350 350\"><style>.base { fill: white; font-family: serif; font-size: 14px; }</style><rect width=\"100%\" height=\"100%\" fill=\"black\" /><text x=\"10\" y=\"20\" class=\"base\">';\r\n\r\n        parts[1] = getWeapon(tokenId);\r\n\r\n        parts[2] = '</text><text x=\"10\" y=\"40\" class=\"base\">';\r\n\r\n        parts[3] = getChest(tokenId);\r\n\r\n        parts[4] = '</text><text x=\"10\" y=\"60\" class=\"base\">';\r\n\r\n        parts[5] = getHead(tokenId);\r\n\r\n        parts[6] = '</text><text x=\"10\" y=\"80\" class=\"base\">';\r\n\r\n        parts[7] = getWaist(tokenId);\r\n\r\n        parts[8] = '</text><text x=\"10\" y=\"100\" class=\"base\">';\r\n\r\n        parts[9] = getFoot(tokenId);\r\n\r\n        parts[10] = '</text><text x=\"10\" y=\"120\" class=\"base\">';\r\n\r\n        parts[11] = getHand(tokenId);\r\n\r\n        parts[12] = '</text><text x=\"10\" y=\"140\" class=\"base\">';\r\n\r\n        parts[13] = getNeck(tokenId);\r\n\r\n        parts[14] = '</text><text x=\"10\" y=\"160\" class=\"base\">';\r\n\r\n        parts[15] = getRing(tokenId);\r\n\r\n        parts[16] = \"</text></svg>\";\r\n\r\n        string memory output = string(\r\n            abi.encodePacked(\r\n                parts[0],\r\n                parts[1],\r\n                parts[2],\r\n                parts[3],\r\n                parts[4],\r\n                parts[5],\r\n                parts[6],\r\n                parts[7],\r\n                parts[8]\r\n            )\r\n        );\r\n        output = string(\r\n            abi.encodePacked(\r\n                output,\r\n                parts[9],\r\n                parts[10],\r\n                parts[11],\r\n                parts[12],\r\n                parts[13],\r\n                parts[14],\r\n                parts[15],\r\n                parts[16]\r\n            )\r\n        );\r\n\r\n        string memory json = Base64.encode(\r\n            bytes(\r\n                string(\r\n                    abi.encodePacked(\r\n                        '{\"name\": \"Bag #',\r\n                        toString(tokenId),\r\n                        '\", \"description\": \"Loot is randomized adventurer gear generated and stored on chain. Stats, images, and other functionality are intentionally omitted for others to interpret. Feel free to use Loot in any way you want.\", \"image\": \"data:image/svg+xml;base64,',\r\n                        Base64.encode(bytes(output)),\r\n                        '\"}'\r\n                    )\r\n                )\r\n            )\r\n        );\r\n        output = string(\r\n            abi.encodePacked(\"data:application/json;base64,\", json)\r\n        );\r\n\r\n        return output;\r\n    }\r\n\r\n    function claim(uint256 tokenId) public nonReentrant {\r\n        require(tokenId > 0 && tokenId < 7778, \"Token ID invalid\");\r\n        _safeMint(_msgSender(), tokenId);\r\n    }\r\n\r\n    function ownerClaim(uint256 tokenId) public nonReentrant onlyOwner {\r\n        require(tokenId > 7777 && tokenId < 8001, \"Token ID invalid\");\r\n        _safeMint(owner(), tokenId);\r\n    }\r\n\r\n    function toString(uint256 value) internal pure returns (string memory) {\r\n        // Inspired by OraclizeAPI's implementation - MIT license\r\n        // https://github.com/oraclize/ethereum-api/blob/b42146b063c7d6ee1358846c198246239e9360e8/oraclizeAPI_0.4.25.sol\r\n\r\n        if (value == 0) {\r\n            return \"0\";\r\n        }\r\n        uint256 temp = value;\r\n        uint256 digits;\r\n        while (temp != 0) {\r\n            digits++;\r\n            temp /= 10;\r\n        }\r\n        bytes memory buffer = new bytes(digits);\r\n        while (value != 0) {\r\n            digits -= 1;\r\n            buffer[digits] = bytes1(uint8(48 + uint256(value % 10)));\r\n            value /= 10;\r\n        }\r\n        return string(buffer);\r\n    }\r\n\r\n    constructor() ERC721(\"Loot\", \"LOOT\") Ownable() {}\r\n}\r\n\r\n/// [MIT License]\r\n/// @title Base64\r\n/// @notice Provides a function for encoding some bytes in base64\r\n/// @author Brecht Devos <brecht@loopring.org>\r\nlibrary Base64 {\r\n    bytes internal constant TABLE =\r\n        \"ABCDEFGHIJKLMNOPQRSTUVWXYZabcdefghijklmnopqrstuvwxyz0123456789+/\";\r\n\r\n    /// @notice Encodes some bytes to the base64 representation\r\n    function encode(bytes memory data) internal pure returns (string memory) {\r\n        uint256 len = data.length;\r\n        if (len == 0) return \"\";\r\n\r\n        // multiply by 4/3 rounded up\r\n        uint256 encodedLen = 4 * ((len + 2) / 3);\r\n\r\n        // Add some extra buffer at the end\r\n        bytes memory result = new bytes(encodedLen + 32);\r\n\r\n        bytes memory table = TABLE;\r\n\r\n        assembly {\r\n            let tablePtr := add(table, 1)\r\n            let resultPtr := add(result, 32)\r\n\r\n            for {\r\n                let i := 0\r\n            } lt(i, len) {\r\n\r\n            } {\r\n                i := add(i, 3)\r\n                let input := and(mload(add(data, i)), 0xffffff)\r\n\r\n                let out := mload(add(tablePtr, and(shr(18, input), 0x3F)))\r\n                out := shl(8, out)\r\n                out := add(\r\n                    out,\r\n                    and(mload(add(tablePtr, and(shr(12, input), 0x3F))), 0xFF)\r\n                )\r\n                out := shl(8, out)\r\n                out := add(\r\n                    out,\r\n                    and(mload(add(tablePtr, and(shr(6, input), 0x3F))), 0xFF)\r\n                )\r\n                out := shl(8, out)\r\n                out := add(\r\n                    out,\r\n                    and(mload(add(tablePtr, and(input, 0x3F))), 0xFF)\r\n                )\r\n                out := shl(224, out)\r\n\r\n                mstore(resultPtr, out)\r\n\r\n                resultPtr := add(resultPtr, 4)\r\n            }\r\n\r\n            switch mod(len, 3)\r\n            case 1 {\r\n                mstore(sub(resultPtr, 2), shl(240, 0x3d3d))\r\n            }\r\n            case 2 {\r\n                mstore(sub(resultPtr, 1), shl(248, 0x3d))\r\n            }\r\n\r\n            mstore(result, encodedLen)\r\n        }\r\n\r\n        return string(result);\r\n    }\r\n}\r\n",
  "sourcePath": "D:\\MetaNFT\\MetaNFT\\contracts\\Loot.sol",
  "compiler": {
    "name": "solc",
    "version": "0.8.0+commit.c7dfd78e.Emscripten.clang"
  },
  "schemaVersion": "3.4.3",
  "updatedAt": "2021-09-22T09:26:14.424Z",
  "devdoc": {
    "details": "Implementation of https://eips.ethereum.org/EIPS/eip-721[ERC721] Non-Fungible Token Standard, including the Metadata extension, but not including the Enumerable extension, which is available separately as {ERC721Enumerable}.",
    "kind": "dev",
    "methods": {
      "approve(address,uint256)": {
        "details": "See {IERC721-approve}."
      },
      "balanceOf(address)": {
        "details": "See {IERC721-balanceOf}."
      },
      "constructor": {
        "details": "Initializes the contract by setting a `name` and a `symbol` to the token collection."
      },
      "getApproved(uint256)": {
        "details": "See {IERC721-getApproved}."
      },
      "isApprovedForAll(address,address)": {
        "details": "See {IERC721-isApprovedForAll}."
      },
      "name()": {
        "details": "See {IERC721Metadata-name}."
      },
      "ownerOf(uint256)": {
        "details": "See {IERC721-ownerOf}."
      },
      "safeTransferFrom(address,address,uint256)": {
        "details": "See {IERC721-safeTransferFrom}."
      },
      "safeTransferFrom(address,address,uint256,bytes)": {
        "details": "See {IERC721-safeTransferFrom}."
      },
      "setApprovalForAll(address,bool)": {
        "details": "See {IERC721-setApprovalForAll}."
      },
      "supportsInterface(bytes4)": {
        "details": "See {IERC165-supportsInterface}."
      },
      "symbol()": {
        "details": "See {IERC721Metadata-symbol}."
      },
      "tokenURI(uint256)": {
        "details": "See {IERC721Metadata-tokenURI}."
      },
      "transferFrom(address,address,uint256)": {
        "details": "See {IERC721-transferFrom}."
      }
    },
    "version": 1
  },
  "userdoc": {
    "kind": "user",
    "methods": {},
    "version": 1
  }
}