{
  "contractName": "gNFT",
  "abi": [
    {
      "inputs": [],
      "stateMutability": "nonpayable",
      "type": "constructor"
    },
    {
      "inputs": [
        {
          "internalType": "uint256",
          "name": "attrId",
          "type": "uint256"
        },
        {
          "internalType": "string",
          "name": "name_",
          "type": "string"
        },
        {
          "internalType": "string",
          "name": "symbol_",
          "type": "string"
        },
        {
          "internalType": "uint256",
          "name": "value_",
          "type": "uint256"
        }
      ],
      "name": "addAttr",
      "outputs": [],
      "stateMutability": "nonpayable",
      "type": "function"
    },
    {
      "inputs": [
        {
          "internalType": "uint256",
          "name": "attrId",
          "type": "uint256"
        }
      ],
      "name": "attrsName",
      "outputs": [
        {
          "internalType": "string",
          "name": "",
          "type": "string"
        }
      ],
      "stateMutability": "view",
      "type": "function",
      "constant": true
    },
    {
      "inputs": [],
      "name": "name",
      "outputs": [
        {
          "internalType": "string",
          "name": "",
          "type": "string"
        }
      ],
      "stateMutability": "view",
      "type": "function",
      "constant": true
    },
    {
      "inputs": [
        {
          "internalType": "uint256",
          "name": "tokenId",
          "type": "uint256"
        }
      ],
      "name": "ownerOf",
      "outputs": [
        {
          "internalType": "address",
          "name": "",
          "type": "address"
        }
      ],
      "stateMutability": "view",
      "type": "function",
      "constant": true
    },
    {
      "inputs": [],
      "name": "symbol",
      "outputs": [
        {
          "internalType": "string",
          "name": "",
          "type": "string"
        }
      ],
      "stateMutability": "view",
      "type": "function",
      "constant": true
    }
  ],
  "bytecode": "0x608060405234801561001057600080fd5b506040518060400160405280600381526020017f466f7800000000000000000000000000000000000000000000000000000000008152506040518060400160405280600481526020017f526f6c650000000000000000000000000000000000000000000000000000000081525081600090805190602001906100939291906100b2565b5080600190805190602001906100aa9291906100b2565b5050506101b6565b8280546100be90610155565b90600052602060002090601f0160209004810192826100e05760008555610127565b82601f106100f957805160ff1916838001178555610127565b82800160010185558215610127579182015b8281111561012657825182559160200191906001019061010b565b5b5090506101349190610138565b5090565b5b80821115610151576000816000905550600101610139565b5090565b6000600282049050600182168061016d57607f821691505b6020821081141561018157610180610187565b5b50919050565b7f4e487b7100000000000000000000000000000000000000000000000000000000600052602260045260246000fd5b6109f8806101c56000396000f3fe608060405234801561001057600080fd5b50600436106100575760003560e01c806306fdde031461005c578063171902721461007a578063499f7683146100aa5780636352211e146100c657806395d89b41146100f6575b600080fd5b610064610114565b60405161007191906107ad565b60405180910390f35b610094600480360381019061008f91906105c2565b6101a6565b6040516100a191906107ad565b60405180910390f35b6100c460048036038101906100bf91906105eb565b6102b8565b005b6100e060048036038101906100db91906105c2565b61035e565b6040516100ed9190610792565b60405180910390f35b6100fe610410565b60405161010b91906107ad565b60405180910390f35b6060600080546101239061090a565b80601f016020809104026020016040519081016040528092919081815260200182805461014f9061090a565b801561019c5780601f106101715761010080835404028352916020019161019c565b820191906000526020600020905b81548152906001019060200180831161017f57829003601f168201915b5050505050905090565b6060600115156002600084815260200190815260200160002060030160009054906101000a900460ff16151514610212576040517f08c379a0000000000000000000000000000000000000000000000000000000008152600401610209906107ef565b60405180910390fd5b6002600083815260200190815260200160002060000180546102339061090a565b80601f016020809104026020016040519081016040528092919081815260200182805461025f9061090a565b80156102ac5780601f10610281576101008083540402835291602001916102ac565b820191906000526020600020905b81548152906001019060200180831161028f57829003601f168201915b50505050509050919050565b826002600086815260200190815260200160002060000190805190602001906102e29291906104a2565b508160026000868152602001908152602001600020600101908051906020019061030d9291906104a2565b5080600260008681526020019081526020016000206002018190555060016002600086815260200190815260200160002060030160006101000a81548160ff02191690831515021790555050505050565b6000806003600084815260200190815260200160002060009054906101000a900473ffffffffffffffffffffffffffffffffffffffff169050600073ffffffffffffffffffffffffffffffffffffffff168173ffffffffffffffffffffffffffffffffffffffff161415610407576040517f08c379a00000000000000000000000000000000000000000000000000000000081526004016103fe906107cf565b60405180910390fd5b80915050919050565b60606001805461041f9061090a565b80601f016020809104026020016040519081016040528092919081815260200182805461044b9061090a565b80156104985780601f1061046d57610100808354040283529160200191610498565b820191906000526020600020905b81548152906001019060200180831161047b57829003601f168201915b5050505050905090565b8280546104ae9061090a565b90600052602060002090601f0160209004810192826104d05760008555610517565b82601f106104e957805160ff1916838001178555610517565b82800160010185558215610517579182015b828111156105165782518255916020019190600101906104fb565b5b5090506105249190610528565b5090565b5b80821115610541576000816000905550600101610529565b5090565b600061055861055384610840565b61080f565b90508281526020810184848401111561057057600080fd5b61057b8482856108c8565b509392505050565b600082601f83011261059457600080fd5b81356105a4848260208601610545565b91505092915050565b6000813590506105bc816109ab565b92915050565b6000602082840312156105d457600080fd5b60006105e2848285016105ad565b91505092915050565b6000806000806080858703121561060157600080fd5b600061060f878288016105ad565b945050602085013567ffffffffffffffff81111561062c57600080fd5b61063887828801610583565b935050604085013567ffffffffffffffff81111561065557600080fd5b61066187828801610583565b9250506060610672878288016105ad565b91505092959194509250565b6106878161088c565b82525050565b600061069882610870565b6106a2818561087b565b93506106b28185602086016108d7565b6106bb8161099a565b840191505092915050565b60006106d360298361087b565b91507f4552433732313a206f776e657220717565727920666f72206e6f6e657869737460008301527f656e7420746f6b656e00000000000000000000000000000000000000000000006020830152604082019050919050565b600061073960258361087b565b91507f43616e6e6f74206765742061206e616d65206f6e206e6f6e6578697374656e7460008301527f20617474720000000000000000000000000000000000000000000000000000006020830152604082019050919050565b60006020820190506107a7600083018461067e565b92915050565b600060208201905081810360008301526107c7818461068d565b905092915050565b600060208201905081810360008301526107e8816106c6565b9050919050565b600060208201905081810360008301526108088161072c565b9050919050565b6000604051905081810181811067ffffffffffffffff821117156108365761083561096b565b5b8060405250919050565b600067ffffffffffffffff82111561085b5761085a61096b565b5b601f19601f8301169050602081019050919050565b600081519050919050565b600082825260208201905092915050565b60006108978261089e565b9050919050565b600073ffffffffffffffffffffffffffffffffffffffff82169050919050565b6000819050919050565b82818337600083830152505050565b60005b838110156108f55780820151818401526020810190506108da565b83811115610904576000848401525b50505050565b6000600282049050600182168061092257607f821691505b602082108114156109365761093561093c565b5b50919050565b7f4e487b7100000000000000000000000000000000000000000000000000000000600052602260045260246000fd5b7f4e487b7100000000000000000000000000000000000000000000000000000000600052604160045260246000fd5b6000601f19601f8301169050919050565b6109b4816108be565b81146109bf57600080fd5b5056fea264697066735822122030cd59cede55831aab44fd51ddf4ca209870e90d49355a1f5e2099fe5cae11b564736f6c63430008000033",
  "immutableReferences": {},
  "source": "pragma solidity  ^0.8.0;\r\n\r\nimport \"./ERC3664.sol\";\r\n\r\ncontract gNFT is ERC3664{\r\n  /*string[] public colors;\r\n  mapping(string => bool) _colorExists;\r\n\r\n  constructor() ERC721(\"Color\", \"COLOR\"){\r\n  }\r\n\r\n  // E.G. color = \"#FFFFFF\"\r\n  function mint(string memory _color) public {\r\n    require(!_colorExists[_color]);\r\n    colors.push(_color);\r\n    uint _id = colors.length;\r\n    _mint(msg.sender, _id);\r\n    _colorExists[_color] = true;\r\n  }*/\r\n  \r\n  constructor() ERC3664('Fox', 'Role'){\r\n  }\r\n  \r\n  \r\n}",
  "sourcePath": "D:\\gNFT_project\\contracts\\gNFT.sol",
  "compiler": {
    "name": "solc",
    "version": "0.8.0+commit.c7dfd78e.Emscripten.clang"
  },
  "schemaVersion": "3.4.3",
  "updatedAt": "2021-09-16T08:17:43.266Z",
  "networkType": "ethereum",
  "devdoc": {
    "kind": "dev",
    "methods": {
      "name()": {
        "details": "See {IERC721Metadata-name}."
      },
      "symbol()": {
        "details": "See {IERC721Metadata-symbol}."
      }
    },
    "version": 1
  },
  "userdoc": {
    "kind": "user",
    "methods": {},
    "version": 1
  }
}