{
  "contractName": "gNFT",
  "abi": [
    {
      "inputs": [],
      "stateMutability": "nonpayable",
      "type": "constructor"
    },
    {
      "anonymous": false,
      "inputs": [
        {
          "indexed": true,
          "internalType": "address",
          "name": "owner",
          "type": "address"
        },
        {
          "indexed": true,
          "internalType": "address",
          "name": "approved",
          "type": "address"
        },
        {
          "indexed": true,
          "internalType": "uint256",
          "name": "tokenId",
          "type": "uint256"
        }
      ],
      "name": "Approval",
      "type": "event"
    },
    {
      "anonymous": false,
      "inputs": [
        {
          "indexed": true,
          "internalType": "address",
          "name": "owner",
          "type": "address"
        },
        {
          "indexed": true,
          "internalType": "address",
          "name": "operator",
          "type": "address"
        },
        {
          "indexed": false,
          "internalType": "bool",
          "name": "approved",
          "type": "bool"
        }
      ],
      "name": "ApprovalForAll",
      "type": "event"
    },
    {
      "anonymous": false,
      "inputs": [
        {
          "indexed": true,
          "internalType": "address",
          "name": "operator",
          "type": "address"
        },
        {
          "indexed": true,
          "internalType": "uint256",
          "name": "attrId",
          "type": "uint256"
        },
        {
          "indexed": false,
          "internalType": "string",
          "name": "name",
          "type": "string"
        },
        {
          "indexed": false,
          "internalType": "string",
          "name": "symbol",
          "type": "string"
        },
        {
          "indexed": false,
          "internalType": "string",
          "name": "uri",
          "type": "string"
        }
      ],
      "name": "NewAttribute",
      "type": "event"
    },
    {
      "anonymous": false,
      "inputs": [
        {
          "indexed": true,
          "internalType": "address",
          "name": "operator",
          "type": "address"
        },
        {
          "indexed": true,
          "internalType": "uint256[]",
          "name": "attrIds",
          "type": "uint256[]"
        },
        {
          "indexed": false,
          "internalType": "string[]",
          "name": "names",
          "type": "string[]"
        },
        {
          "indexed": false,
          "internalType": "string[]",
          "name": "symbols",
          "type": "string[]"
        },
        {
          "indexed": false,
          "internalType": "string[]",
          "name": "uris",
          "type": "string[]"
        }
      ],
      "name": "NewAttributeBatch",
      "type": "event"
    },
    {
      "anonymous": false,
      "inputs": [
        {
          "indexed": true,
          "internalType": "address",
          "name": "previousOwner",
          "type": "address"
        },
        {
          "indexed": true,
          "internalType": "address",
          "name": "newOwner",
          "type": "address"
        }
      ],
      "name": "OwnershipTransferred",
      "type": "event"
    },
    {
      "anonymous": false,
      "inputs": [
        {
          "indexed": true,
          "internalType": "address",
          "name": "from",
          "type": "address"
        },
        {
          "indexed": true,
          "internalType": "address",
          "name": "to",
          "type": "address"
        },
        {
          "indexed": true,
          "internalType": "uint256",
          "name": "tokenId",
          "type": "uint256"
        }
      ],
      "name": "Transfer",
      "type": "event"
    },
    {
      "anonymous": false,
      "inputs": [
        {
          "indexed": true,
          "internalType": "address",
          "name": "operator",
          "type": "address"
        },
        {
          "indexed": false,
          "internalType": "uint256",
          "name": "from",
          "type": "uint256"
        },
        {
          "indexed": false,
          "internalType": "uint256",
          "name": "to",
          "type": "uint256"
        },
        {
          "indexed": true,
          "internalType": "uint256[]",
          "name": "attrIds",
          "type": "uint256[]"
        },
        {
          "indexed": false,
          "internalType": "uint256[]",
          "name": "values",
          "type": "uint256[]"
        }
      ],
      "name": "TransferBatch",
      "type": "event"
    },
    {
      "anonymous": false,
      "inputs": [
        {
          "indexed": true,
          "internalType": "address",
          "name": "operator",
          "type": "address"
        },
        {
          "indexed": false,
          "internalType": "uint256",
          "name": "from",
          "type": "uint256"
        },
        {
          "indexed": false,
          "internalType": "uint256",
          "name": "to",
          "type": "uint256"
        },
        {
          "indexed": true,
          "internalType": "uint256",
          "name": "attrId",
          "type": "uint256"
        },
        {
          "indexed": false,
          "internalType": "uint256",
          "name": "value",
          "type": "uint256"
        }
      ],
      "name": "TransferSingle",
      "type": "event"
    },
    {
      "inputs": [],
      "name": "BASE_NFT",
      "outputs": [
        {
          "internalType": "uint256",
          "name": "",
          "type": "uint256"
        }
      ],
      "stateMutability": "view",
      "type": "function",
      "constant": true
    },
    {
      "inputs": [],
      "name": "HOUSE_NFT",
      "outputs": [
        {
          "internalType": "uint256",
          "name": "",
          "type": "uint256"
        }
      ],
      "stateMutability": "view",
      "type": "function",
      "constant": true
    },
    {
      "inputs": [],
      "name": "ONEFLOOR_NFT",
      "outputs": [
        {
          "internalType": "uint256",
          "name": "",
          "type": "uint256"
        }
      ],
      "stateMutability": "view",
      "type": "function",
      "constant": true
    },
    {
      "inputs": [
        {
          "internalType": "uint256",
          "name": "",
          "type": "uint256"
        }
      ],
      "name": "_attrMetadatas",
      "outputs": [
        {
          "internalType": "string",
          "name": "name",
          "type": "string"
        },
        {
          "internalType": "string",
          "name": "symbol",
          "type": "string"
        },
        {
          "internalType": "string",
          "name": "uri",
          "type": "string"
        },
        {
          "internalType": "bool",
          "name": "exist",
          "type": "bool"
        }
      ],
      "stateMutability": "view",
      "type": "function",
      "constant": true
    },
    {
      "inputs": [
        {
          "internalType": "uint256",
          "name": "",
          "type": "uint256"
        },
        {
          "internalType": "uint256",
          "name": "",
          "type": "uint256"
        }
      ],
      "name": "_balances",
      "outputs": [
        {
          "internalType": "uint256",
          "name": "",
          "type": "uint256"
        }
      ],
      "stateMutability": "view",
      "type": "function",
      "constant": true
    },
    {
      "inputs": [
        {
          "internalType": "uint256",
          "name": "",
          "type": "uint256"
        },
        {
          "internalType": "uint256",
          "name": "",
          "type": "uint256"
        }
      ],
      "name": "_texts",
      "outputs": [
        {
          "internalType": "bytes",
          "name": "",
          "type": "bytes"
        }
      ],
      "stateMutability": "view",
      "type": "function",
      "constant": true
    },
    {
      "inputs": [
        {
          "internalType": "address",
          "name": "to",
          "type": "address"
        },
        {
          "internalType": "uint256",
          "name": "tokenId",
          "type": "uint256"
        }
      ],
      "name": "approve",
      "outputs": [],
      "stateMutability": "nonpayable",
      "type": "function"
    },
    {
      "inputs": [
        {
          "internalType": "uint256",
          "name": "tokenId",
          "type": "uint256"
        },
        {
          "internalType": "uint256",
          "name": "attrId",
          "type": "uint256"
        },
        {
          "internalType": "uint256",
          "name": "amount",
          "type": "uint256"
        },
        {
          "internalType": "bytes",
          "name": "text",
          "type": "bytes"
        },
        {
          "internalType": "bool",
          "name": "isPrimary",
          "type": "bool"
        }
      ],
      "name": "attach",
      "outputs": [],
      "stateMutability": "nonpayable",
      "type": "function"
    },
    {
      "inputs": [
        {
          "internalType": "uint256",
          "name": "attrId",
          "type": "uint256"
        }
      ],
      "name": "attrURI",
      "outputs": [
        {
          "internalType": "string",
          "name": "",
          "type": "string"
        }
      ],
      "stateMutability": "view",
      "type": "function",
      "constant": true
    },
    {
      "inputs": [
        {
          "internalType": "uint256",
          "name": "tokenId",
          "type": "uint256"
        }
      ],
      "name": "attributesOf",
      "outputs": [
        {
          "internalType": "uint256[]",
          "name": "",
          "type": "uint256[]"
        }
      ],
      "stateMutability": "view",
      "type": "function",
      "constant": true
    },
    {
      "inputs": [
        {
          "internalType": "address",
          "name": "owner",
          "type": "address"
        }
      ],
      "name": "balanceOf",
      "outputs": [
        {
          "internalType": "uint256",
          "name": "",
          "type": "uint256"
        }
      ],
      "stateMutability": "view",
      "type": "function",
      "constant": true
    },
    {
      "inputs": [
        {
          "internalType": "uint256",
          "name": "tokenId",
          "type": "uint256"
        },
        {
          "internalType": "uint256",
          "name": "attrId",
          "type": "uint256"
        }
      ],
      "name": "balanceOf",
      "outputs": [
        {
          "internalType": "uint256",
          "name": "",
          "type": "uint256"
        }
      ],
      "stateMutability": "view",
      "type": "function",
      "constant": true
    },
    {
      "inputs": [
        {
          "internalType": "uint256",
          "name": "tokenId",
          "type": "uint256"
        },
        {
          "internalType": "uint256[]",
          "name": "attrIds",
          "type": "uint256[]"
        }
      ],
      "name": "balanceOfBatch",
      "outputs": [
        {
          "internalType": "uint256[]",
          "name": "",
          "type": "uint256[]"
        }
      ],
      "stateMutability": "view",
      "type": "function",
      "constant": true
    },
    {
      "inputs": [
        {
          "internalType": "uint256",
          "name": "tokenId",
          "type": "uint256"
        },
        {
          "internalType": "uint256[]",
          "name": "attrIds",
          "type": "uint256[]"
        },
        {
          "internalType": "uint256[]",
          "name": "amounts",
          "type": "uint256[]"
        },
        {
          "internalType": "bytes[]",
          "name": "texts",
          "type": "bytes[]"
        }
      ],
      "name": "batchAttach",
      "outputs": [],
      "stateMutability": "nonpayable",
      "type": "function"
    },
    {
      "inputs": [
        {
          "internalType": "uint256",
          "name": "tokenId",
          "type": "uint256"
        }
      ],
      "name": "getApproved",
      "outputs": [
        {
          "internalType": "address",
          "name": "",
          "type": "address"
        }
      ],
      "stateMutability": "view",
      "type": "function",
      "constant": true
    },
    {
      "inputs": [
        {
          "internalType": "address",
          "name": "owner",
          "type": "address"
        },
        {
          "internalType": "address",
          "name": "operator",
          "type": "address"
        }
      ],
      "name": "isApprovedForAll",
      "outputs": [
        {
          "internalType": "bool",
          "name": "",
          "type": "bool"
        }
      ],
      "stateMutability": "view",
      "type": "function",
      "constant": true
    },
    {
      "inputs": [
        {
          "internalType": "uint256",
          "name": "attrId",
          "type": "uint256"
        }
      ],
      "name": "name",
      "outputs": [
        {
          "internalType": "string",
          "name": "",
          "type": "string"
        }
      ],
      "stateMutability": "view",
      "type": "function",
      "constant": true
    },
    {
      "inputs": [],
      "name": "name",
      "outputs": [
        {
          "internalType": "string",
          "name": "",
          "type": "string"
        }
      ],
      "stateMutability": "view",
      "type": "function",
      "constant": true
    },
    {
      "inputs": [],
      "name": "owner",
      "outputs": [
        {
          "internalType": "address",
          "name": "",
          "type": "address"
        }
      ],
      "stateMutability": "view",
      "type": "function",
      "constant": true
    },
    {
      "inputs": [
        {
          "internalType": "uint256",
          "name": "tokenId",
          "type": "uint256"
        }
      ],
      "name": "ownerOf",
      "outputs": [
        {
          "internalType": "address",
          "name": "",
          "type": "address"
        }
      ],
      "stateMutability": "view",
      "type": "function",
      "constant": true
    },
    {
      "inputs": [
        {
          "internalType": "uint256",
          "name": "tokenId",
          "type": "uint256"
        }
      ],
      "name": "primaryAttributeOf",
      "outputs": [
        {
          "internalType": "uint256",
          "name": "",
          "type": "uint256"
        }
      ],
      "stateMutability": "view",
      "type": "function",
      "constant": true
    },
    {
      "inputs": [
        {
          "internalType": "uint256",
          "name": "",
          "type": "uint256"
        }
      ],
      "name": "primaryAttrs",
      "outputs": [
        {
          "internalType": "uint256",
          "name": "",
          "type": "uint256"
        }
      ],
      "stateMutability": "view",
      "type": "function",
      "constant": true
    },
    {
      "inputs": [],
      "name": "renounceOwnership",
      "outputs": [],
      "stateMutability": "nonpayable",
      "type": "function"
    },
    {
      "inputs": [
        {
          "internalType": "address",
          "name": "from",
          "type": "address"
        },
        {
          "internalType": "address",
          "name": "to",
          "type": "address"
        },
        {
          "internalType": "uint256",
          "name": "tokenId",
          "type": "uint256"
        }
      ],
      "name": "safeTransferFrom",
      "outputs": [],
      "stateMutability": "nonpayable",
      "type": "function"
    },
    {
      "inputs": [
        {
          "internalType": "address",
          "name": "from",
          "type": "address"
        },
        {
          "internalType": "address",
          "name": "to",
          "type": "address"
        },
        {
          "internalType": "uint256",
          "name": "tokenId",
          "type": "uint256"
        },
        {
          "internalType": "bytes",
          "name": "_data",
          "type": "bytes"
        }
      ],
      "name": "safeTransferFrom",
      "outputs": [],
      "stateMutability": "nonpayable",
      "type": "function"
    },
    {
      "inputs": [
        {
          "internalType": "uint256",
          "name": "",
          "type": "uint256"
        },
        {
          "internalType": "uint256",
          "name": "",
          "type": "uint256"
        }
      ],
      "name": "secondaryAttrs",
      "outputs": [
        {
          "internalType": "uint256",
          "name": "",
          "type": "uint256"
        }
      ],
      "stateMutability": "view",
      "type": "function",
      "constant": true
    },
    {
      "inputs": [
        {
          "internalType": "address",
          "name": "operator",
          "type": "address"
        },
        {
          "internalType": "bool",
          "name": "approved",
          "type": "bool"
        }
      ],
      "name": "setApprovalForAll",
      "outputs": [],
      "stateMutability": "nonpayable",
      "type": "function"
    },
    {
      "inputs": [
        {
          "internalType": "uint256",
          "name": "attrId",
          "type": "uint256"
        }
      ],
      "name": "symbol",
      "outputs": [
        {
          "internalType": "string",
          "name": "",
          "type": "string"
        }
      ],
      "stateMutability": "view",
      "type": "function",
      "constant": true
    },
    {
      "inputs": [],
      "name": "symbol",
      "outputs": [
        {
          "internalType": "string",
          "name": "",
          "type": "string"
        }
      ],
      "stateMutability": "view",
      "type": "function",
      "constant": true
    },
    {
      "inputs": [
        {
          "internalType": "uint256",
          "name": "",
          "type": "uint256"
        },
        {
          "internalType": "uint256",
          "name": "",
          "type": "uint256"
        }
      ],
      "name": "synthesizedTokens",
      "outputs": [
        {
          "internalType": "address",
          "name": "owner",
          "type": "address"
        },
        {
          "internalType": "uint256",
          "name": "id",
          "type": "uint256"
        }
      ],
      "stateMutability": "view",
      "type": "function",
      "constant": true
    },
    {
      "inputs": [
        {
          "internalType": "uint256",
          "name": "tokenId",
          "type": "uint256"
        },
        {
          "internalType": "uint256",
          "name": "attrId",
          "type": "uint256"
        }
      ],
      "name": "textOf",
      "outputs": [
        {
          "internalType": "bytes",
          "name": "",
          "type": "bytes"
        }
      ],
      "stateMutability": "view",
      "type": "function",
      "constant": true
    },
    {
      "inputs": [
        {
          "internalType": "uint256",
          "name": "index",
          "type": "uint256"
        }
      ],
      "name": "tokenByIndex",
      "outputs": [
        {
          "internalType": "uint256",
          "name": "",
          "type": "uint256"
        }
      ],
      "stateMutability": "view",
      "type": "function",
      "constant": true
    },
    {
      "inputs": [
        {
          "internalType": "address",
          "name": "owner",
          "type": "address"
        },
        {
          "internalType": "uint256",
          "name": "index",
          "type": "uint256"
        }
      ],
      "name": "tokenOfOwnerByIndex",
      "outputs": [
        {
          "internalType": "uint256",
          "name": "",
          "type": "uint256"
        }
      ],
      "stateMutability": "view",
      "type": "function",
      "constant": true
    },
    {
      "inputs": [
        {
          "internalType": "uint256",
          "name": "tokenId",
          "type": "uint256"
        }
      ],
      "name": "tokenURI",
      "outputs": [
        {
          "internalType": "string",
          "name": "",
          "type": "string"
        }
      ],
      "stateMutability": "view",
      "type": "function",
      "constant": true
    },
    {
      "inputs": [],
      "name": "totalSupply",
      "outputs": [
        {
          "internalType": "uint256",
          "name": "",
          "type": "uint256"
        }
      ],
      "stateMutability": "view",
      "type": "function",
      "constant": true
    },
    {
      "inputs": [
        {
          "internalType": "address",
          "name": "from",
          "type": "address"
        },
        {
          "internalType": "address",
          "name": "to",
          "type": "address"
        },
        {
          "internalType": "uint256",
          "name": "tokenId",
          "type": "uint256"
        }
      ],
      "name": "transferFrom",
      "outputs": [],
      "stateMutability": "nonpayable",
      "type": "function"
    },
    {
      "inputs": [
        {
          "internalType": "address",
          "name": "newOwner",
          "type": "address"
        }
      ],
      "name": "transferOwnership",
      "outputs": [],
      "stateMutability": "nonpayable",
      "type": "function"
    },
    {
      "inputs": [
        {
          "internalType": "uint256",
          "name": "tokenId",
          "type": "uint256"
        }
      ],
      "name": "claim",
      "outputs": [],
      "stateMutability": "nonpayable",
      "type": "function"
    },
    {
      "inputs": [
        {
          "internalType": "uint256",
          "name": "tokenId",
          "type": "uint256"
        }
      ],
      "name": "getSubTokens",
      "outputs": [
        {
          "internalType": "uint256[]",
          "name": "",
          "type": "uint256[]"
        }
      ],
      "stateMutability": "view",
      "type": "function",
      "constant": true
    },
    {
      "inputs": [
        {
          "internalType": "bytes4",
          "name": "interfaceId",
          "type": "bytes4"
        }
      ],
      "name": "supportsInterface",
      "outputs": [
        {
          "internalType": "bool",
          "name": "",
          "type": "bool"
        }
      ],
      "stateMutability": "view",
      "type": "function",
      "constant": true
    }
  ],
  "bytecode": "0x60806040523480156200001157600080fd5b506040518060400160405280600581526020017f486f7573650000000000000000000000000000000000000000000000000000008152506040518060400160405280600881526020017f4255494c44494e47000000000000000000000000000000000000000000000000815250816005908051906020019062000096929190620004fc565b508060069080519060200190620000af929190620004fc565b505050620000d2620000c66200028260201b60201c565b6200028a60201b60201c565b6200016060016040518060400160405280600581526020017f484f5553450000000000000000000000000000000000000000000000000000008152506040518060400160405280600581526020017f686f757365000000000000000000000000000000000000000000000000000000815250604051806020016040528060008152506200035060201b60201c565b620001ee60026040518060400160405280600481526020017f42415345000000000000000000000000000000000000000000000000000000008152506040518060400160405280600481526020017f6261736500000000000000000000000000000000000000000000000000000000815250604051806020016040528060008152506200035060201b60201c565b6200027c60036040518060400160405280600881526020017f4f4e45464c4f4f520000000000000000000000000000000000000000000000008152506040518060400160405280600881526020017f6f6e65666c6f6f72000000000000000000000000000000000000000000000000815250604051806020016040528060008152506200035060201b60201c565b62000791565b600033905090565b6000600f60009054906101000a900473ffffffffffffffffffffffffffffffffffffffff16905081600f60006101000a81548173ffffffffffffffffffffffffffffffffffffffff021916908373ffffffffffffffffffffffffffffffffffffffff1602179055508173ffffffffffffffffffffffffffffffffffffffff168173ffffffffffffffffffffffffffffffffffffffff167f8be0079c531659141344cd1fd0a4f28419497f9722a3daafe3b4186f6b6457e060405160405180910390a35050565b6200036184620004d060201b60201c565b15620003a4576040517f08c379a00000000000000000000000000000000000000000000000000000000081526004016200039b90620006a7565b60405180910390fd5b6000620003b66200028260201b60201c565b90506000604051806080016040528086815260200185815260200184815260200160011515815250905080600080888152602001908152602001600020600082015181600001908051906020019062000411929190620004fc565b50602082015181600101908051906020019062000430929190620004fc565b5060408201518160020190805190602001906200044f929190620004fc565b5060608201518160030160006101000a81548160ff021916908315150217905550905050858273ffffffffffffffffffffffffffffffffffffffff167f0f95c7b6e09a6cd1ff57e6238b940fa674ce6ce983d94900b6a8a6393929be3f878787604051620004c09392919062000655565b60405180910390a3505050505050565b600080600083815260200190815260200160002060030160009054906101000a900460ff169050919050565b8280546200050a906200071b565b90600052602060002090601f0160209004810192826200052e57600085556200057a565b82601f106200054957805160ff19168380011785556200057a565b828001600101855582156200057a579182015b82811115620005795782518255916020019190600101906200055c565b5b5090506200058991906200058d565b5090565b5b80821115620005a85760008160009055506001016200058e565b5090565b6000620005b982620006c9565b620005c58185620006d4565b9350620005d7818560208601620006e5565b620005e28162000780565b840191505092915050565b6000620005fc602183620006d4565b91507f455243333636343a2061747472696275746520616c726561647920657869737460008301527f73000000000000000000000000000000000000000000000000000000000000006020830152604082019050919050565b60006060820190508181036000830152620006718186620005ac565b90508181036020830152620006878185620005ac565b905081810360408301526200069d8184620005ac565b9050949350505050565b60006020820190508181036000830152620006c281620005ed565b9050919050565b600081519050919050565b600082825260208201905092915050565b60005b8381101562000705578082015181840152602081019050620006e8565b8381111562000715576000848401525b50505050565b600060028204905060018216806200073457607f821691505b602082108114156200074b576200074a62000751565b5b50919050565b7f4e487b7100000000000000000000000000000000000000000000000000000000600052602260045260246000fd5b6000601f19601f8301169050919050565b6154fb80620007a16000396000f3fe608060405234801561001057600080fd5b50600436106102475760003560e01c8063715018a61161013b5780639bc5ae54116100b8578063c87b56dd1161007c578063c87b56dd146107ae578063e6f0b1be146107de578063e985e9c5146107fc578063ea6996331461082c578063f2fde38b1461085c57610247565b80639bc5ae54146106e65780639cac922a14610716578063a22cb46514610746578063b888fd0e14610762578063b88d4fde1461079257610247565b80638da5cb5b116100ff5780638da5cb5b1461062e5780638df5a7921461064c578063936ca9e61461067c57806395d89b41146106985780639a046ac5146106b657610247565b8063715018a614610588578063775b7e49146105925780638364a92e146105b057806387793623146105ce57806387e21d42146105fe57610247565b80632f745c59116101c95780634f6ccce71161018d5780634f6ccce7146104955780635245110d146104c55780635d126110146104f85780636352211e1461052857806370a082311461055857610247565b80632f745c59146103e1578063379607f51461041157806342842e0e1461042d57806345e74373146104495780634e41a1fb1461046557610247565b8063095ea7b311610210578063095ea7b31461032a5780630ccaa34f1461034657806318160ddd1461037757806323b872dd1461039557806327737071146103b157610247565b8062ad800c1461024c57806301ffc9a71461027c57806306fdde03146102ac578063081812fc146102ca57806309363c44146102fa575b600080fd5b61026660048036038101906102619190613e69565b610878565b6040516102739190614cb7565b60405180910390f35b61029660048036038101906102919190613e17565b610967565b6040516102a39190614c03565b60405180910390f35b6102b46109e1565b6040516102c19190614cb7565b60405180910390f35b6102e460048036038101906102df9190613e69565b610a73565b6040516102f19190614b51565b60405180910390f35b610314600480360381019061030f9190613e69565b610af8565b6040516103219190614be1565b60405180910390f35b610344600480360381019061033f9190613ddb565b610b63565b005b610360600480360381019061035b9190613fa3565b610c7b565b60405161036e929190614bb8565b60405180910390f35b61037f610cdc565b60405161038c9190615013565b60405180910390f35b6103af60048036038101906103aa9190613cd5565b610ce9565b005b6103cb60048036038101906103c69190613fa3565b610d49565b6040516103d89190615013565b60405180910390f35b6103fb60048036038101906103f69190613ddb565b610d7a565b6040516104089190615013565b60405180910390f35b61042b60048036038101906104269190613e69565b610e1f565b005b61044760048036038101906104429190613cd5565b610e3c565b005b610463600480360381019061045e9190613eea565b610e5c565b005b61047f600480360381019061047a9190613e69565b6112d9565b60405161048c9190614cb7565b60405180910390f35b6104af60048036038101906104aa9190613e69565b6113c8565b6040516104bc9190615013565b60405180910390f35b6104df60048036038101906104da9190613e69565b61145f565b6040516104ef9493929190614cd9565b60405180910390f35b610512600480360381019061050d9190613e92565b611634565b60405161051f9190614be1565b60405180910390f35b610542600480360381019061053d9190613e69565b611765565b60405161054f9190614b51565b60405180910390f35b610572600480360381019061056d9190613c70565b611817565b60405161057f9190615013565b60405180910390f35b6105906118cf565b005b61059a611957565b6040516105a79190615013565b60405180910390f35b6105b861195c565b6040516105c59190615013565b60405180910390f35b6105e860048036038101906105e39190613fa3565b611961565b6040516105f59190615013565b60405180910390f35b61061860048036038101906106139190613e69565b611986565b6040516106259190615013565b60405180910390f35b6106366119a3565b6040516106439190614b51565b60405180910390f35b61066660048036038101906106619190613e69565b6119cd565b6040516106739190615013565b60405180910390f35b61069660048036038101906106919190613fdf565b6119e5565b005b6106a0611bce565b6040516106ad9190614cb7565b60405180910390f35b6106d060048036038101906106cb9190613fa3565b611c60565b6040516106dd9190614c1e565b60405180910390f35b61070060048036038101906106fb9190613e69565b611d17565b60405161070d9190614cb7565b60405180910390f35b610730600480360381019061072b9190613e69565b611e9e565b60405161073d9190614be1565b60405180910390f35b610760600480360381019061075b9190613d9f565b611feb565b005b61077c60048036038101906107779190613fa3565b61216c565b6040516107899190614c1e565b60405180910390f35b6107ac60048036038101906107a79190613d24565b612219565b005b6107c860048036038101906107c39190613e69565b61227b565b6040516107d59190614cb7565b60405180910390f35b6107e6612322565b6040516107f39190615013565b60405180910390f35b61081660048036038101906108119190613c99565b612327565b6040516108239190614c03565b60405180910390f35b61084660048036038101906108419190613fa3565b6123bb565b6040516108539190615013565b60405180910390f35b61087660048036038101906108719190613c70565b6123ea565b005b6060610883826124e2565b6108c2576040517f08c379a00000000000000000000000000000000000000000000000000000000081526004016108b990614ff3565b60405180910390fd5b60008083815260200190815260200160002060000180546108e2906152f0565b80601f016020809104026020016040519081016040528092919081815260200182805461090e906152f0565b801561095b5780601f106109305761010080835404028352916020019161095b565b820191906000526020600020905b81548152906001019060200180831161093e57829003601f168201915b50505050509050919050565b60007f83787f25000000000000000000000000000000000000000000000000000000007bffffffffffffffffffffffffffffffffffffffffffffffffffffffff1916827bffffffffffffffffffffffffffffffffffffffffffffffffffffffff191614806109da57506109d98261250e565b5b9050919050565b6060600580546109f0906152f0565b80601f0160208091040260200160405190810160405280929190818152602001828054610a1c906152f0565b8015610a695780601f10610a3e57610100808354040283529160200191610a69565b820191906000526020600020905b815481529060010190602001808311610a4c57829003601f168201915b5050505050905090565b6000610a7e82612588565b610abd576040517f08c379a0000000000000000000000000000000000000000000000000000000008152600401610ab490614ef3565b60405180910390fd5b6009600083815260200190815260200160002060009054906101000a900473ffffffffffffffffffffffffffffffffffffffff169050919050565b606060046000838152602001908152602001600020805480602002602001604051908101604052809291908181526020018280548015610b5757602002820191906000526020600020905b815481526020019060010190808311610b43575b50505050509050919050565b6000610b6e82611765565b90508073ffffffffffffffffffffffffffffffffffffffff168373ffffffffffffffffffffffffffffffffffffffff161415610bdf576040517f08c379a0000000000000000000000000000000000000000000000000000000008152600401610bd690614f93565b60405180910390fd5b8073ffffffffffffffffffffffffffffffffffffffff16610bfe6125f4565b73ffffffffffffffffffffffffffffffffffffffff161480610c2d5750610c2c81610c276125f4565b612327565b5b610c6c576040517f08c379a0000000000000000000000000000000000000000000000000000000008152600401610c6390614e53565b60405180910390fd5b610c7683836125fc565b505050565b60106020528160005260406000208181548110610c9757600080fd5b9060005260206000209060020201600091509150508060000160009054906101000a900473ffffffffffffffffffffffffffffffffffffffff16908060010154905082565b6000600d80549050905090565b610cfa610cf46125f4565b826126b5565b610d39576040517f08c379a0000000000000000000000000000000000000000000000000000000008152600401610d3090614fb3565b60405180910390fd5b610d44838383612793565b505050565b60046020528160005260406000208181548110610d6557600080fd5b90600052602060002001600091509150505481565b6000610d8583611817565b8210610dc6576040517f08c379a0000000000000000000000000000000000000000000000000000000008152600401610dbd90614d33565b60405180910390fd5b600b60008473ffffffffffffffffffffffffffffffffffffffff1673ffffffffffffffffffffffffffffffffffffffff168152602001908152602001600020600083815260200190815260200160002054905092915050565b610e30610e2a6125f4565b826129ef565b610e3981612a0d565b50565b610e5783838360405180602001604052806000815250612219565b505050565b6000610e666125f4565b9050610f088160008a8a8a80806020026020016040519081016040528093929190818152602001838360200280828437600081840152601f19601f82011690508083019250505050505050898980806020026020016040519081016040528093929190818152602001838360200280828437600081840152601f19601f8201169050808301925050505050505060405180602001604052806000815250612a97565b60005b8787905081101561126157610f5e888883818110610f52577f4e487b7100000000000000000000000000000000000000000000000000000000600052603260045260246000fd5b905060200201356124e2565b610f9d576040517f08c379a0000000000000000000000000000000000000000000000000000000008152600401610f9490614df3565b60405180910390fd5b6000600160008a8a85818110610fdc577f4e487b7100000000000000000000000000000000000000000000000000000000600052603260045260246000fd5b90506020020135815260200190815260200160002060008b815260200190815260200160002054141561108357600460008a8152602001908152602001600020888883818110611055577f4e487b7100000000000000000000000000000000000000000000000000000000600052603260045260246000fd5b9050602002013590806001815401808255809150506001900390600052602060002001600090919091909150555b60008484838181106110be577f4e487b7100000000000000000000000000000000000000000000000000000000600052603260045260246000fd5b90506020028101906110d0919061502e565b9050111561119557838382818110611111577f4e487b7100000000000000000000000000000000000000000000000000000000600052603260045260246000fd5b9050602002810190611123919061502e565b600260008b8b86818110611160577f4e487b7100000000000000000000000000000000000000000000000000000000600052603260045260246000fd5b90506020020135815260200190815260200160002060008c815260200190815260200160002091906111939291906139e2565b505b8585828181106111ce577f4e487b7100000000000000000000000000000000000000000000000000000000600052603260045260246000fd5b90506020020135600160008a8a85818110611212577f4e487b7100000000000000000000000000000000000000000000000000000000600052603260045260246000fd5b90506020020135815260200190815260200160002060008b81526020019081526020016000206000828254611247919061516d565b92505081905550808061125990615322565b915050610f0b565b508686604051611272929190614b14565b60405180910390208173ffffffffffffffffffffffffffffffffffffffff167fbfb4d8e5891aebe97980c97616b6b0af2006a58ccabe6e1b7e3da24d0906a85660008b89896040516112c79493929190614c40565b60405180910390a35050505050505050565b60606112e4826124e2565b611323576040517f08c379a000000000000000000000000000000000000000000000000000000000815260040161131a90614e13565b60405180910390fd5b6000808381526020019081526020016000206001018054611343906152f0565b80601f016020809104026020016040519081016040528092919081815260200182805461136f906152f0565b80156113bc5780601f10611391576101008083540402835291602001916113bc565b820191906000526020600020905b81548152906001019060200180831161139f57829003601f168201915b50505050509050919050565b60006113d2610cdc565b8210611413576040517f08c379a000000000000000000000000000000000000000000000000000000000815260040161140a90614fd3565b60405180910390fd5b600d828154811061144d577f4e487b7100000000000000000000000000000000000000000000000000000000600052603260045260246000fd5b90600052602060002001549050919050565b6000602052806000526040600020600091509050806000018054611482906152f0565b80601f01602080910402602001604051908101604052809291908181526020018280546114ae906152f0565b80156114fb5780601f106114d0576101008083540402835291602001916114fb565b820191906000526020600020905b8154815290600101906020018083116114de57829003601f168201915b505050505090806001018054611510906152f0565b80601f016020809104026020016040519081016040528092919081815260200182805461153c906152f0565b80156115895780601f1061155e57610100808354040283529160200191611589565b820191906000526020600020905b81548152906001019060200180831161156c57829003601f168201915b50505050509080600201805461159e906152f0565b80601f01602080910402602001604051908101604052809291908181526020018280546115ca906152f0565b80156116175780601f106115ec57610100808354040283529160200191611617565b820191906000526020600020905b8154815290600101906020018083116115fa57829003601f168201915b5050505050908060030160009054906101000a900460ff16905084565b606060008383905067ffffffffffffffff81111561167b577f4e487b7100000000000000000000000000000000000000000000000000000000600052604160045260246000fd5b6040519080825280602002602001820160405280156116a95781602001602082028036833780820191505090505b50905060005b8484905081101561175957611703868686848181106116f7577f4e487b7100000000000000000000000000000000000000000000000000000000600052603260045260246000fd5b905060200201356123bb565b82828151811061173c577f4e487b7100000000000000000000000000000000000000000000000000000000600052603260045260246000fd5b6020026020010181815250508061175290615322565b90506116af565b50809150509392505050565b6000806007600084815260200190815260200160002060009054906101000a900473ffffffffffffffffffffffffffffffffffffffff169050600073ffffffffffffffffffffffffffffffffffffffff168173ffffffffffffffffffffffffffffffffffffffff16141561180e576040517f08c379a000000000000000000000000000000000000000000000000000000000815260040161180590614eb3565b60405180910390fd5b80915050919050565b60008073ffffffffffffffffffffffffffffffffffffffff168273ffffffffffffffffffffffffffffffffffffffff161415611888576040517f08c379a000000000000000000000000000000000000000000000000000000000815260040161187f90614e93565b60405180910390fd5b600860008373ffffffffffffffffffffffffffffffffffffffff1673ffffffffffffffffffffffffffffffffffffffff168152602001908152602001600020549050919050565b6118d76125f4565b73ffffffffffffffffffffffffffffffffffffffff166118f56119a3565b73ffffffffffffffffffffffffffffffffffffffff161461194b576040517f08c379a000000000000000000000000000000000000000000000000000000000815260040161194290614f13565b60405180910390fd5b6119556000612a9f565b565b600281565b600381565b6001602052816000526040600020602052806000526040600020600091509150505481565b600060036000838152602001908152602001600020549050919050565b6000600f60009054906101000a900473ffffffffffffffffffffffffffffffffffffffff16905090565b60036020528060005260406000206000915090505481565b6119ee846124e2565b611a2d576040517f08c379a0000000000000000000000000000000000000000000000000000000008152600401611a2490614f33565b60405180910390fd5b6000611a376125f4565b9050611a6781600088611a4989612b65565b611a5289612b65565b60405180602001604052806000815250612a97565b6000600160008781526020019081526020016000206000888152602001908152602001600020541415611af3578115611ab757846003600088815260200190815260200160002081905550611af2565b600460008781526020019081526020016000208590806001815401808255809150506001900390600052602060002001600090919091909150555b5b600083511115611b3757826002600087815260200190815260200160002060008881526020019081526020016000209080519060200190611b35929190613a68565b505b836001600087815260200190815260200160002060008881526020019081526020016000206000828254611b6b919061516d565b92505081905550848173ffffffffffffffffffffffffffffffffffffffff167f73b5fbfbf0177b0de2ffe9fd0ae9887dd73d0d865db7ab5ff3c4a6b9bb8db1e360008988604051611bbe93929190614c80565b60405180910390a3505050505050565b606060068054611bdd906152f0565b80601f0160208091040260200160405190810160405280929190818152602001828054611c09906152f0565b8015611c565780601f10611c2b57610100808354040283529160200191611c56565b820191906000526020600020905b815481529060010190602001808311611c3957829003601f168201915b5050505050905090565b60606002600083815260200190815260200160002060008481526020019081526020016000208054611c91906152f0565b80601f0160208091040260200160405190810160405280929190818152602001828054611cbd906152f0565b8015611d0a5780601f10611cdf57610100808354040283529160200191611d0a565b820191906000526020600020905b815481529060010190602001808311611ced57829003601f168201915b5050505050905092915050565b6060611d22826124e2565b611d61576040517f08c379a0000000000000000000000000000000000000000000000000000000008152600401611d5890614e73565b60405180910390fd5b60008060008481526020019081526020016000206002018054611d83906152f0565b80601f0160208091040260200160405190810160405280929190818152602001828054611daf906152f0565b8015611dfc5780601f10611dd157610100808354040283529160200191611dfc565b820191906000526020600020905b815481529060010190602001808311611ddf57829003601f168201915b50505050509050600081511115611e3f5780611e1784612c2b565b604051602001611e28929190614b2d565b604051602081830303815290604052915050611e99565b6000611e49612dd8565b90506000815111611e695760405180602001604052806000815250611e94565b80611e7385612c2b565b604051602001611e84929190614b2d565b6040516020818303038152906040525b925050505b919050565b606060006010600084815260200190815260200160002090506000818054905067ffffffffffffffff811115611efd577f4e487b7100000000000000000000000000000000000000000000000000000000600052604160045260246000fd5b604051908082528060200260200182016040528015611f2b5781602001602082028036833780820191505090505b50905060005b8280549050811015611fe057828181548110611f76577f4e487b7100000000000000000000000000000000000000000000000000000000600052603260045260246000fd5b906000526020600020906002020160010154828281518110611fc1577f4e487b7100000000000000000000000000000000000000000000000000000000600052603260045260246000fd5b6020026020010181815250508080611fd890615322565b915050611f31565b508092505050919050565b611ff36125f4565b73ffffffffffffffffffffffffffffffffffffffff168273ffffffffffffffffffffffffffffffffffffffff161415612061576040517f08c379a000000000000000000000000000000000000000000000000000000000815260040161205890614dd3565b60405180910390fd5b80600a600061206e6125f4565b73ffffffffffffffffffffffffffffffffffffffff1673ffffffffffffffffffffffffffffffffffffffff16815260200190815260200160002060008473ffffffffffffffffffffffffffffffffffffffff1673ffffffffffffffffffffffffffffffffffffffff16815260200190815260200160002060006101000a81548160ff0219169083151502179055508173ffffffffffffffffffffffffffffffffffffffff1661211b6125f4565b73ffffffffffffffffffffffffffffffffffffffff167f17307eab39ab6107e8899845ad3d59bd9653f200f220920489ca2b5937696c31836040516121609190614c03565b60405180910390a35050565b6002602052816000526040600020602052806000526040600020600091509150508054612198906152f0565b80601f01602080910402602001604051908101604052809291908181526020018280546121c4906152f0565b80156122115780601f106121e657610100808354040283529160200191612211565b820191906000526020600020905b8154815290600101906020018083116121f457829003601f168201915b505050505081565b61222a6122246125f4565b836126b5565b612269576040517f08c379a000000000000000000000000000000000000000000000000000000000815260040161226090614fb3565b60405180910390fd5b61227584848484612def565b50505050565b606061228682612588565b6122c5576040517f08c379a00000000000000000000000000000000000000000000000000000000081526004016122bc90614f73565b60405180910390fd5b60006122cf612e4b565b905060008151116122ef576040518060200160405280600081525061231a565b806122f984612c2b565b60405160200161230a929190614b2d565b6040516020818303038152906040525b915050919050565b600181565b6000600a60008473ffffffffffffffffffffffffffffffffffffffff1673ffffffffffffffffffffffffffffffffffffffff16815260200190815260200160002060008373ffffffffffffffffffffffffffffffffffffffff1673ffffffffffffffffffffffffffffffffffffffff16815260200190815260200160002060009054906101000a900460ff16905092915050565b600060016000838152602001908152602001600020600084815260200190815260200160002054905092915050565b6123f26125f4565b73ffffffffffffffffffffffffffffffffffffffff166124106119a3565b73ffffffffffffffffffffffffffffffffffffffff1614612466576040517f08c379a000000000000000000000000000000000000000000000000000000000815260040161245d90614f13565b60405180910390fd5b600073ffffffffffffffffffffffffffffffffffffffff168173ffffffffffffffffffffffffffffffffffffffff1614156124d6576040517f08c379a00000000000000000000000000000000000000000000000000000000081526004016124cd90614d73565b60405180910390fd5b6124df81612a9f565b50565b600080600083815260200190815260200160002060030160009054906101000a900460ff169050919050565b60007f780e9d63000000000000000000000000000000000000000000000000000000007bffffffffffffffffffffffffffffffffffffffffffffffffffffffff1916827bffffffffffffffffffffffffffffffffffffffffffffffffffffffff19161480612581575061258082612e62565b5b9050919050565b60008073ffffffffffffffffffffffffffffffffffffffff166007600084815260200190815260200160002060009054906101000a900473ffffffffffffffffffffffffffffffffffffffff1673ffffffffffffffffffffffffffffffffffffffff1614159050919050565b600033905090565b816009600083815260200190815260200160002060006101000a81548173ffffffffffffffffffffffffffffffffffffffff021916908373ffffffffffffffffffffffffffffffffffffffff160217905550808273ffffffffffffffffffffffffffffffffffffffff1661266f83611765565b73ffffffffffffffffffffffffffffffffffffffff167f8c5be1e5ebec7d5bd14f71427d1e84f3dd0314c0f7b2291e5b200ac8c7c3b92560405160405180910390a45050565b60006126c082612588565b6126ff576040517f08c379a00000000000000000000000000000000000000000000000000000000081526004016126f690614e33565b60405180910390fd5b600061270a83611765565b90508073ffffffffffffffffffffffffffffffffffffffff168473ffffffffffffffffffffffffffffffffffffffff16148061277957508373ffffffffffffffffffffffffffffffffffffffff1661276184610a73565b73ffffffffffffffffffffffffffffffffffffffff16145b8061278a57506127898185612327565b5b91505092915050565b8273ffffffffffffffffffffffffffffffffffffffff166127b382611765565b73ffffffffffffffffffffffffffffffffffffffff1614612809576040517f08c379a000000000000000000000000000000000000000000000000000000000815260040161280090614f53565b60405180910390fd5b600073ffffffffffffffffffffffffffffffffffffffff168273ffffffffffffffffffffffffffffffffffffffff161415612879576040517f08c379a000000000000000000000000000000000000000000000000000000000815260040161287090614db3565b60405180910390fd5b612884838383612f44565b61288f6000826125fc565b6001600860008573ffffffffffffffffffffffffffffffffffffffff1673ffffffffffffffffffffffffffffffffffffffff16815260200190815260200160002060008282546128df91906151f4565b925050819055506001600860008473ffffffffffffffffffffffffffffffffffffffff1673ffffffffffffffffffffffffffffffffffffffff1681526020019081526020016000206000828254612936919061516d565b92505081905550816007600083815260200190815260200160002060006101000a81548173ffffffffffffffffffffffffffffffffffffffff021916908373ffffffffffffffffffffffffffffffffffffffff160217905550808273ffffffffffffffffffffffffffffffffffffffff168473ffffffffffffffffffffffffffffffffffffffff167fddf252ad1be2c89b69c2b068fc378daa952ba7f163c4a11628f55a4df523b3ef60405160405180910390a4505050565b612a09828260405180602001604052806000815250613058565b5050565b612a51816001806040518060400160405280600581526020017f686f75736500000000000000000000000000000000000000000000000000000081525060016119e5565b600060659050612a63600183836130b3565b612a7b600283600184612a76919061516d565b6130b3565b612a93600383600284612a8e919061516d565b6130b3565b5050565b505050505050565b6000600f60009054906101000a900473ffffffffffffffffffffffffffffffffffffffff16905081600f60006101000a81548173ffffffffffffffffffffffffffffffffffffffff021916908373ffffffffffffffffffffffffffffffffffffffff1602179055508173ffffffffffffffffffffffffffffffffffffffff168173ffffffffffffffffffffffffffffffffffffffff167f8be0079c531659141344cd1fd0a4f28419497f9722a3daafe3b4186f6b6457e060405160405180910390a35050565b60606000600167ffffffffffffffff811115612baa577f4e487b7100000000000000000000000000000000000000000000000000000000600052604160045260246000fd5b604051908082528060200260200182016040528015612bd85781602001602082028036833780820191505090505b5090508281600081518110612c16577f4e487b7100000000000000000000000000000000000000000000000000000000600052603260045260246000fd5b60200260200101818152505080915050919050565b60606000821415612c73576040518060400160405280600181526020017f30000000000000000000000000000000000000000000000000000000000000008152509050612dd3565b600082905060005b60008214612ca5578080612c8e90615322565b915050600a82612c9e91906151c3565b9150612c7b565b60008167ffffffffffffffff811115612ce7577f4e487b7100000000000000000000000000000000000000000000000000000000600052604160045260246000fd5b6040519080825280601f01601f191660200182016040528015612d195781602001600182028036833780820191505090505b5090505b60008514612dcc57600182612d3291906151f4565b9150600a85612d41919061536b565b6030612d4d919061516d565b60f81b818381518110612d89577f4e487b7100000000000000000000000000000000000000000000000000000000600052603260045260246000fd5b60200101907effffffffffffffffffffffffffffffffffffffffffffffffffffffffffffff1916908160001a905350600a85612dc591906151c3565b9450612d1d565b8093505050505b919050565b606060405180602001604052806000815250905090565b612dfa848484612793565b612e06848484846131a1565b612e45576040517f08c379a0000000000000000000000000000000000000000000000000000000008152600401612e3c90614d53565b60405180910390fd5b50505050565b606060405180602001604052806000815250905090565b60007f80ac58cd000000000000000000000000000000000000000000000000000000007bffffffffffffffffffffffffffffffffffffffffffffffffffffffff1916827bffffffffffffffffffffffffffffffffffffffffffffffffffffffff19161480612f2d57507f5b5e139f000000000000000000000000000000000000000000000000000000007bffffffffffffffffffffffffffffffffffffffffffffffffffffffff1916827bffffffffffffffffffffffffffffffffffffffffffffffffffffffff1916145b80612f3d5750612f3c82613338565b5b9050919050565b612f4f83838361341a565b600073ffffffffffffffffffffffffffffffffffffffff168373ffffffffffffffffffffffffffffffffffffffff161415612f9257612f8d8161341f565b612fd1565b8173ffffffffffffffffffffffffffffffffffffffff168373ffffffffffffffffffffffffffffffffffffffff1614612fd057612fcf8382613468565b5b5b600073ffffffffffffffffffffffffffffffffffffffff168273ffffffffffffffffffffffffffffffffffffffff1614156130145761300f816135d5565b613053565b8273ffffffffffffffffffffffffffffffffffffffff168273ffffffffffffffffffffffffffffffffffffffff1614613052576130518282613718565b5b5b505050565b6130628383613797565b61306f60008484846131a1565b6130ae576040517f08c379a00000000000000000000000000000000000000000000000000000000081526004016130a590614d53565b60405180910390fd5b505050565b6130bd3082613797565b6130db818460016040518060200160405280600081525060016119e5565b6010600083815260200190815260200160002060405180604001604052806131016125f4565b73ffffffffffffffffffffffffffffffffffffffff16815260200183815250908060018154018082558091505060019003906000526020600020906002020160009091909190915060008201518160000160006101000a81548173ffffffffffffffffffffffffffffffffffffffff021916908373ffffffffffffffffffffffffffffffffffffffff160217905550602082015181600101555050505050565b60006131c28473ffffffffffffffffffffffffffffffffffffffff16613965565b1561332b578373ffffffffffffffffffffffffffffffffffffffff1663150b7a026131eb6125f4565b8786866040518563ffffffff1660e01b815260040161320d9493929190614b6c565b602060405180830381600087803b15801561322757600080fd5b505af192505050801561325857506040513d601f19601f820116820180604052508101906132559190613e40565b60015b6132db573d8060008114613288576040519150601f19603f3d011682016040523d82523d6000602084013e61328d565b606091505b506000815114156132d3576040517f08c379a00000000000000000000000000000000000000000000000000000000081526004016132ca90614d53565b60405180910390fd5b805181602001fd5b63150b7a0260e01b7bffffffffffffffffffffffffffffffffffffffffffffffffffffffff1916817bffffffffffffffffffffffffffffffffffffffffffffffffffffffff191614915050613330565b600190505b949350505050565b60007f75205675000000000000000000000000000000000000000000000000000000007bffffffffffffffffffffffffffffffffffffffffffffffffffffffff1916827bffffffffffffffffffffffffffffffffffffffffffffffffffffffff1916148061340357507fd5298fa3000000000000000000000000000000000000000000000000000000007bffffffffffffffffffffffffffffffffffffffffffffffffffffffff1916827bffffffffffffffffffffffffffffffffffffffffffffffffffffffff1916145b80613413575061341282613978565b5b9050919050565b505050565b600d80549050600e600083815260200190815260200160002081905550600d81908060018154018082558091505060019003906000526020600020016000909190919091505550565b6000600161347584611817565b61347f91906151f4565b90506000600c6000848152602001908152602001600020549050818114613564576000600b60008673ffffffffffffffffffffffffffffffffffffffff1673ffffffffffffffffffffffffffffffffffffffff168152602001908152602001600020600084815260200190815260200160002054905080600b60008773ffffffffffffffffffffffffffffffffffffffff1673ffffffffffffffffffffffffffffffffffffffff16815260200190815260200160002060008481526020019081526020016000208190555081600c600083815260200190815260200160002081905550505b600c600084815260200190815260200160002060009055600b60008573ffffffffffffffffffffffffffffffffffffffff1673ffffffffffffffffffffffffffffffffffffffff16815260200190815260200160002060008381526020019081526020016000206000905550505050565b60006001600d805490506135e991906151f4565b90506000600e60008481526020019081526020016000205490506000600d838154811061363f577f4e487b7100000000000000000000000000000000000000000000000000000000600052603260045260246000fd5b9060005260206000200154905080600d8381548110613687577f4e487b7100000000000000000000000000000000000000000000000000000000600052603260045260246000fd5b906000526020600020018190555081600e600083815260200190815260200160002081905550600e600085815260200190815260200160002060009055600d8054806136fc577f4e487b7100000000000000000000000000000000000000000000000000000000600052603160045260246000fd5b6001900381819060005260206000200160009055905550505050565b600061372383611817565b905081600b60008573ffffffffffffffffffffffffffffffffffffffff1673ffffffffffffffffffffffffffffffffffffffff16815260200190815260200160002060008381526020019081526020016000208190555080600c600084815260200190815260200160002081905550505050565b600073ffffffffffffffffffffffffffffffffffffffff168273ffffffffffffffffffffffffffffffffffffffff161415613807576040517f08c379a00000000000000000000000000000000000000000000000000000000081526004016137fe90614ed3565b60405180910390fd5b61381081612588565b15613850576040517f08c379a000000000000000000000000000000000000000000000000000000000815260040161384790614d93565b60405180910390fd5b61385c60008383612f44565b6001600860008473ffffffffffffffffffffffffffffffffffffffff1673ffffffffffffffffffffffffffffffffffffffff16815260200190815260200160002060008282546138ac919061516d565b92505081905550816007600083815260200190815260200160002060006101000a81548173ffffffffffffffffffffffffffffffffffffffff021916908373ffffffffffffffffffffffffffffffffffffffff160217905550808273ffffffffffffffffffffffffffffffffffffffff16600073ffffffffffffffffffffffffffffffffffffffff167fddf252ad1be2c89b69c2b068fc378daa952ba7f163c4a11628f55a4df523b3ef60405160405180910390a45050565b600080823b905060008111915050919050565b60007f01ffc9a7000000000000000000000000000000000000000000000000000000007bffffffffffffffffffffffffffffffffffffffffffffffffffffffff1916827bffffffffffffffffffffffffffffffffffffffffffffffffffffffff1916149050919050565b8280546139ee906152f0565b90600052602060002090601f016020900481019282613a105760008555613a57565b82601f10613a2957803560ff1916838001178555613a57565b82800160010185558215613a57579182015b82811115613a56578235825591602001919060010190613a3b565b5b509050613a649190613aee565b5090565b828054613a74906152f0565b90600052602060002090601f016020900481019282613a965760008555613add565b82601f10613aaf57805160ff1916838001178555613add565b82800160010185558215613add579182015b82811115613adc578251825591602001919060010190613ac1565b5b509050613aea9190613aee565b5090565b5b80821115613b07576000816000905550600101613aef565b5090565b6000613b1e613b19846150b6565b615085565b905082815260208101848484011115613b3657600080fd5b613b418482856152ae565b509392505050565b600081359050613b5881615469565b92915050565b60008083601f840112613b7057600080fd5b8235905067ffffffffffffffff811115613b8957600080fd5b602083019150836020820283011115613ba157600080fd5b9250929050565b60008083601f840112613bba57600080fd5b8235905067ffffffffffffffff811115613bd357600080fd5b602083019150836020820283011115613beb57600080fd5b9250929050565b600081359050613c0181615480565b92915050565b600081359050613c1681615497565b92915050565b600081519050613c2b81615497565b92915050565b600082601f830112613c4257600080fd5b8135613c52848260208601613b0b565b91505092915050565b600081359050613c6a816154ae565b92915050565b600060208284031215613c8257600080fd5b6000613c9084828501613b49565b91505092915050565b60008060408385031215613cac57600080fd5b6000613cba85828601613b49565b9250506020613ccb85828601613b49565b9150509250929050565b600080600060608486031215613cea57600080fd5b6000613cf886828701613b49565b9350506020613d0986828701613b49565b9250506040613d1a86828701613c5b565b9150509250925092565b60008060008060808587031215613d3a57600080fd5b6000613d4887828801613b49565b9450506020613d5987828801613b49565b9350506040613d6a87828801613c5b565b925050606085013567ffffffffffffffff811115613d8757600080fd5b613d9387828801613c31565b91505092959194509250565b60008060408385031215613db257600080fd5b6000613dc085828601613b49565b9250506020613dd185828601613bf2565b9150509250929050565b60008060408385031215613dee57600080fd5b6000613dfc85828601613b49565b9250506020613e0d85828601613c5b565b9150509250929050565b600060208284031215613e2957600080fd5b6000613e3784828501613c07565b91505092915050565b600060208284031215613e5257600080fd5b6000613e6084828501613c1c565b91505092915050565b600060208284031215613e7b57600080fd5b6000613e8984828501613c5b565b91505092915050565b600080600060408486031215613ea757600080fd5b6000613eb586828701613c5b565b935050602084013567ffffffffffffffff811115613ed257600080fd5b613ede86828701613ba8565b92509250509250925092565b60008060008060008060006080888a031215613f0557600080fd5b6000613f138a828b01613c5b565b975050602088013567ffffffffffffffff811115613f3057600080fd5b613f3c8a828b01613ba8565b9650965050604088013567ffffffffffffffff811115613f5b57600080fd5b613f678a828b01613ba8565b9450945050606088013567ffffffffffffffff811115613f8657600080fd5b613f928a828b01613b5e565b925092505092959891949750929550565b60008060408385031215613fb657600080fd5b6000613fc485828601613c5b565b9250506020613fd585828601613c5b565b9150509250929050565b600080600080600060a08688031215613ff757600080fd5b600061400588828901613c5b565b955050602061401688828901613c5b565b945050604061402788828901613c5b565b935050606086013567ffffffffffffffff81111561404457600080fd5b61405088828901613c31565b925050608061406188828901613bf2565b9150509295509295909350565b600061407a8383614af6565b60208301905092915050565b61408f81615228565b82525050565b60006140a18385615124565b93507f07ffffffffffffffffffffffffffffffffffffffffffffffffffffffffffffff8311156140d057600080fd5b6020830292506140e18385846152ae565b82840190509392505050565b60006140f98385615135565b93507f07ffffffffffffffffffffffffffffffffffffffffffffffffffffffffffffff83111561412857600080fd5b6020830292506141398385846152ae565b82840190509392505050565b6000614150826150f6565b61415a8185615124565b9350614165836150e6565b8060005b8381101561419657815161417d888261406e565b975061418883615117565b925050600181019050614169565b5085935050505092915050565b6141ac8161523a565b82525050565b60006141bd82615101565b6141c78185615140565b93506141d78185602086016152bd565b6141e081615458565b840191505092915050565b6141f48161529c565b82525050565b60006142058261510c565b61420f8185615151565b935061421f8185602086016152bd565b61422881615458565b840191505092915050565b600061423e8261510c565b6142488185615162565b93506142588185602086016152bd565b80840191505092915050565b6000614271602b83615151565b91507f455243373231456e756d657261626c653a206f776e657220696e646578206f7560008301527f74206f6620626f756e64730000000000000000000000000000000000000000006020830152604082019050919050565b60006142d7603283615151565b91507f4552433732313a207472616e7366657220746f206e6f6e20455243373231526560008301527f63656976657220696d706c656d656e74657200000000000000000000000000006020830152604082019050919050565b600061433d602683615151565b91507f4f776e61626c653a206e6577206f776e657220697320746865207a65726f206160008301527f64647265737300000000000000000000000000000000000000000000000000006020830152604082019050919050565b60006143a3601c83615151565b91507f4552433732313a20746f6b656e20616c7265616479206d696e746564000000006000830152602082019050919050565b60006143e3602483615151565b91507f4552433732313a207472616e7366657220746f20746865207a65726f2061646460008301527f72657373000000000000000000000000000000000000000000000000000000006020830152604082019050919050565b6000614449601983615151565b91507f4552433732313a20617070726f766520746f2063616c6c6572000000000000006000830152602082019050919050565b6000614489602e83615151565b91507f455243333636343a20626174636841747461636820666f72206e6f6e6578697360008301527f74656e74206174747269627574650000000000000000000000000000000000006020830152604082019050919050565b60006144ef602f83615151565b91507f455243333636343a2073796d626f6c20717565727920666f72206e6f6e65786960008301527f7374656e742061747472696275746500000000000000000000000000000000006020830152604082019050919050565b6000614555602c83615151565b91507f4552433732313a206f70657261746f7220717565727920666f72206e6f6e657860008301527f697374656e7420746f6b656e00000000000000000000000000000000000000006020830152604082019050919050565b60006145bb603883615151565b91507f4552433732313a20617070726f76652063616c6c6572206973206e6f74206f7760008301527f6e6572206e6f7220617070726f76656420666f7220616c6c00000000000000006020830152604082019050919050565b6000614621602c83615151565b91507f455243333636343a2055524920717565727920666f72206e6f6e65786973746560008301527f6e742061747472696275746500000000000000000000000000000000000000006020830152604082019050919050565b6000614687602a83615151565b91507f4552433732313a2062616c616e636520717565727920666f7220746865207a6560008301527f726f2061646472657373000000000000000000000000000000000000000000006020830152604082019050919050565b60006146ed602983615151565b91507f4552433732313a206f776e657220717565727920666f72206e6f6e657869737460008301527f656e7420746f6b656e00000000000000000000000000000000000000000000006020830152604082019050919050565b6000614753602083615151565b91507f4552433732313a206d696e7420746f20746865207a65726f20616464726573736000830152602082019050919050565b6000614793602c83615151565b91507f4552433732313a20617070726f76656420717565727920666f72206e6f6e657860008301527f697374656e7420746f6b656e00000000000000000000000000000000000000006020830152604082019050919050565b60006147f9602083615151565b91507f4f776e61626c653a2063616c6c6572206973206e6f7420746865206f776e65726000830152602082019050919050565b6000614839602983615151565b91507f455243333636343a2061747461636820666f72206e6f6e6578697374656e742060008301527f61747472696275746500000000000000000000000000000000000000000000006020830152604082019050919050565b600061489f602983615151565b91507f4552433732313a207472616e73666572206f6620746f6b656e2074686174206960008301527f73206e6f74206f776e00000000000000000000000000000000000000000000006020830152604082019050919050565b6000614905602f83615151565b91507f4552433732314d657461646174613a2055524920717565727920666f72206e6f60008301527f6e6578697374656e7420746f6b656e00000000000000000000000000000000006020830152604082019050919050565b600061496b602183615151565b91507f4552433732313a20617070726f76616c20746f2063757272656e74206f776e6560008301527f72000000000000000000000000000000000000000000000000000000000000006020830152604082019050919050565b60006149d1603183615151565b91507f4552433732313a207472616e736665722063616c6c6572206973206e6f74206f60008301527f776e6572206e6f7220617070726f7665640000000000000000000000000000006020830152604082019050919050565b6000614a37602c83615151565b91507f455243373231456e756d657261626c653a20676c6f62616c20696e646578206f60008301527f7574206f6620626f756e647300000000000000000000000000000000000000006020830152604082019050919050565b6000614a9d602d83615151565b91507f455243333636343a206e616d6520717565727920666f72206e6f6e657869737460008301527f656e7420617474726962757465000000000000000000000000000000000000006020830152604082019050919050565b614aff81615292565b82525050565b614b0e81615292565b82525050565b6000614b218284866140ed565b91508190509392505050565b6000614b398285614233565b9150614b458284614233565b91508190509392505050565b6000602082019050614b666000830184614086565b92915050565b6000608082019050614b816000830187614086565b614b8e6020830186614086565b614b9b6040830185614b05565b8181036060830152614bad81846141b2565b905095945050505050565b6000604082019050614bcd6000830185614086565b614bda6020830184614b05565b9392505050565b60006020820190508181036000830152614bfb8184614145565b905092915050565b6000602082019050614c1860008301846141a3565b92915050565b60006020820190508181036000830152614c3881846141b2565b905092915050565b6000606082019050614c5560008301876141eb565b614c626020830186614b05565b8181036040830152614c75818486614095565b905095945050505050565b6000606082019050614c9560008301866141eb565b614ca26020830185614b05565b614caf6040830184614b05565b949350505050565b60006020820190508181036000830152614cd181846141fa565b905092915050565b60006080820190508181036000830152614cf381876141fa565b90508181036020830152614d0781866141fa565b90508181036040830152614d1b81856141fa565b9050614d2a60608301846141a3565b95945050505050565b60006020820190508181036000830152614d4c81614264565b9050919050565b60006020820190508181036000830152614d6c816142ca565b9050919050565b60006020820190508181036000830152614d8c81614330565b9050919050565b60006020820190508181036000830152614dac81614396565b9050919050565b60006020820190508181036000830152614dcc816143d6565b9050919050565b60006020820190508181036000830152614dec8161443c565b9050919050565b60006020820190508181036000830152614e0c8161447c565b9050919050565b60006020820190508181036000830152614e2c816144e2565b9050919050565b60006020820190508181036000830152614e4c81614548565b9050919050565b60006020820190508181036000830152614e6c816145ae565b9050919050565b60006020820190508181036000830152614e8c81614614565b9050919050565b60006020820190508181036000830152614eac8161467a565b9050919050565b60006020820190508181036000830152614ecc816146e0565b9050919050565b60006020820190508181036000830152614eec81614746565b9050919050565b60006020820190508181036000830152614f0c81614786565b9050919050565b60006020820190508181036000830152614f2c816147ec565b9050919050565b60006020820190508181036000830152614f4c8161482c565b9050919050565b60006020820190508181036000830152614f6c81614892565b9050919050565b60006020820190508181036000830152614f8c816148f8565b9050919050565b60006020820190508181036000830152614fac8161495e565b9050919050565b60006020820190508181036000830152614fcc816149c4565b9050919050565b60006020820190508181036000830152614fec81614a2a565b9050919050565b6000602082019050818103600083015261500c81614a90565b9050919050565b60006020820190506150286000830184614b05565b92915050565b6000808335600160200384360303811261504757600080fd5b80840192508235915067ffffffffffffffff82111561506557600080fd5b60208301925060018202360383131561507d57600080fd5b509250929050565b6000604051905081810181811067ffffffffffffffff821117156150ac576150ab615429565b5b8060405250919050565b600067ffffffffffffffff8211156150d1576150d0615429565b5b601f19601f8301169050602081019050919050565b6000819050602082019050919050565b600081519050919050565b600081519050919050565b600081519050919050565b6000602082019050919050565b600082825260208201905092915050565b600081905092915050565b600082825260208201905092915050565b600082825260208201905092915050565b600081905092915050565b600061517882615292565b915061518383615292565b9250827fffffffffffffffffffffffffffffffffffffffffffffffffffffffffffffffff038211156151b8576151b761539c565b5b828201905092915050565b60006151ce82615292565b91506151d983615292565b9250826151e9576151e86153cb565b5b828204905092915050565b60006151ff82615292565b915061520a83615292565b92508282101561521d5761521c61539c565b5b828203905092915050565b600061523382615272565b9050919050565b60008115159050919050565b60007fffffffff0000000000000000000000000000000000000000000000000000000082169050919050565b600073ffffffffffffffffffffffffffffffffffffffff82169050919050565b6000819050919050565b60006152a782615292565b9050919050565b82818337600083830152505050565b60005b838110156152db5780820151818401526020810190506152c0565b838111156152ea576000848401525b50505050565b6000600282049050600182168061530857607f821691505b6020821081141561531c5761531b6153fa565b5b50919050565b600061532d82615292565b91507fffffffffffffffffffffffffffffffffffffffffffffffffffffffffffffffff8214156153605761535f61539c565b5b600182019050919050565b600061537682615292565b915061538183615292565b925082615391576153906153cb565b5b828206905092915050565b7f4e487b7100000000000000000000000000000000000000000000000000000000600052601160045260246000fd5b7f4e487b7100000000000000000000000000000000000000000000000000000000600052601260045260246000fd5b7f4e487b7100000000000000000000000000000000000000000000000000000000600052602260045260246000fd5b7f4e487b7100000000000000000000000000000000000000000000000000000000600052604160045260246000fd5b6000601f19601f8301169050919050565b61547281615228565b811461547d57600080fd5b50565b6154898161523a565b811461549457600080fd5b50565b6154a081615246565b81146154ab57600080fd5b50565b6154b781615292565b81146154c257600080fd5b5056fea26469706673582212203d3e09b7d76cfbec5b5cfd0561e69202c9ebe87ffdaf33fcfa9f535b5729d29d64736f6c63430008000033",
  "immutableReferences": {},
  "source": "pragma solidity  ^0.8.0;\r\n\r\nimport \"./ERC3664/ERC3664.sol\";\r\nimport \"./Synthetic/ISynthetic.sol\";\r\nimport \"openzeppelin-solidity/contracts/access/Ownable.sol\";\r\nimport \"openzeppelin-solidity/contracts/token/ERC721/extensions/ERC721Enumerable.sol\";\r\n\r\n\r\ncontract gNFT is \r\n\tERC3664, \r\n\tERC721Enumerable,\r\n\tOwnable\r\n{\r\n  \r\n\tuint256 public constant HOUSE_NFT = 1;\r\n\tuint256 public constant BASE_NFT = 2;\r\n\tuint256 public constant ONEFLOOR_NFT = 3;\r\n\r\n\tstruct SynthesizedToken {\r\n        address owner;\r\n        uint256 id;\r\n    }\r\n\t\r\n\t//string[] public buildings;\r\n\r\n    // mainToken => SynthesizedToken\r\n    mapping(uint256 => SynthesizedToken[]) public synthesizedTokens;\r\n\r\n\tconstructor() ERC721('House', 'BUILDING') Ownable(){\r\n\t\t_mint(HOUSE_NFT, 'HOUSE', 'house', '');\r\n\t\t_mint(BASE_NFT, 'BASE', 'base', '');\r\n\t\t_mint(ONEFLOOR_NFT, 'ONEFLOOR', 'onefloor', '');\r\n\t}\r\n\r\n\tfunction claim(uint256 tokenId) public {\r\n        //require(tokenId > 0 && tokenId < 7981, \"Token ID invalid\");\r\n        //        uint256 amount = msg.value;\r\n        //        require(amount >= 15 * 10 ** 16, \"Payed too low value\");\r\n        //        Address.sendValue(treasury, 15 * 10 ** 16);\r\n\t\t//buildings.push(kind);\r\n\t\t//uint256 tokenId = buildings.length - 1;\r\n        _safeMint(_msgSender(), tokenId);\r\n        _afterTokenMint(tokenId);\r\n        //        emit Claimed(treasury, amount, tokenId);\r\n    }\r\n\r\n\tfunction _afterTokenMint(uint256 tokenId) internal virtual {\r\n        //attach(tokenId, LEGOOT_NFT, 1, bytes(\"legoot\"), true);\r\n        //uint256 id = _totalSupply + (tokenId - 1) * 8 + 1;\r\n\t\t\r\n\t\tattach(tokenId, HOUSE_NFT, 1, bytes(\"house\"), true);\r\n\t\t// Produce attr id\r\n\t\tuint256 id = 101;\r\n\r\n        // HOUSE\r\n        mintSubToken(HOUSE_NFT, tokenId, id);\r\n        // BASE\r\n        mintSubToken(BASE_NFT, tokenId, id + 1);\r\n        // ONEFLOOR\r\n        mintSubToken(ONEFLOOR_NFT, tokenId, id + 2);\r\n    }\r\n\r\n\tfunction getSubTokens(uint256 tokenId)\r\n        public\r\n        view\r\n        returns (uint256[] memory)\r\n    {\r\n        SynthesizedToken[] storage tokens = synthesizedTokens[tokenId];\r\n        uint256[] memory subs = new uint256[](tokens.length);\r\n        for (uint256 i = 0; i < tokens.length; i++) {\r\n            subs[i] = tokens[i].id;\r\n        }\r\n        return subs;\r\n    }\r\n\r\n\tfunction mintSubToken(\r\n\t\tuint256 attr,\r\n        uint256 tokenId,\r\n        uint256 subId\r\n    ) internal virtual {\r\n        _mint(address(this), subId);\r\n        attach(subId, attr, 1, bytes(\"\"), true);\r\n        synthesizedTokens[tokenId].push(SynthesizedToken(_msgSender(), subId));\r\n    }\r\n\r\n\t\r\n\r\n\tfunction supportsInterface(bytes4 interfaceId)\r\n\t\tpublic\r\n\t\tview\r\n\t\tvirtual\r\n\t\toverride(ERC3664, ERC721Enumerable)\r\n\t\treturns (bool)\r\n\t{\r\n\t\treturn\r\n\t\t\tinterfaceId == type(ISynthetic).interfaceId ||\r\n\t\t\tsuper.supportsInterface(interfaceId);\r\n\t}\r\n  \r\n}",
  "sourcePath": "D:\\MetaNFT\\MetaNFT\\contracts\\gNFT.sol",
  "compiler": {
    "name": "solc",
    "version": "0.8.0+commit.c7dfd78e.Emscripten.clang"
  },
  "schemaVersion": "3.4.3",
  "updatedAt": "2021-09-22T09:26:27.428Z",
  "networkType": "ethereum",
  "devdoc": {
    "kind": "dev",
    "methods": {
      "approve(address,uint256)": {
        "details": "See {IERC721-approve}."
      },
      "attach(uint256,uint256,uint256,bytes,bool)": {
        "details": "See {IERC3664-attach}."
      },
      "attrURI(uint256)": {
        "details": "See {IERC721Metadata-attrURI}."
      },
      "attributesOf(uint256)": {
        "details": "See {IERC3664-attributesOf}."
      },
      "balanceOf(address)": {
        "details": "See {IERC721-balanceOf}."
      },
      "balanceOf(uint256,uint256)": {
        "details": "See {IERC3664-balanceOf}."
      },
      "balanceOfBatch(uint256,uint256[])": {
        "details": "See {IERC3664-balanceOfBatch}."
      },
      "batchAttach(uint256,uint256[],uint256[],bytes[])": {
        "details": "See {IERC3664-batchAttach}."
      },
      "getApproved(uint256)": {
        "details": "See {IERC721-getApproved}."
      },
      "isApprovedForAll(address,address)": {
        "details": "See {IERC721-isApprovedForAll}."
      },
      "name()": {
        "details": "See {IERC721Metadata-name}."
      },
      "name(uint256)": {
        "details": "See {IERC3664Metadata-name}."
      },
      "owner()": {
        "details": "Returns the address of the current owner."
      },
      "ownerOf(uint256)": {
        "details": "See {IERC721-ownerOf}."
      },
      "primaryAttributeOf(uint256)": {
        "details": "Returns primary attribute type of owned by `tokenId`."
      },
      "renounceOwnership()": {
        "details": "Leaves the contract without owner. It will not be possible to call `onlyOwner` functions anymore. Can only be called by the current owner. NOTE: Renouncing ownership will leave the contract without an owner, thereby removing any functionality that is only available to the owner."
      },
      "safeTransferFrom(address,address,uint256)": {
        "details": "See {IERC721-safeTransferFrom}."
      },
      "safeTransferFrom(address,address,uint256,bytes)": {
        "details": "See {IERC721-safeTransferFrom}."
      },
      "setApprovalForAll(address,bool)": {
        "details": "See {IERC721-setApprovalForAll}."
      },
      "symbol()": {
        "details": "See {IERC721Metadata-symbol}."
      },
      "symbol(uint256)": {
        "details": "See {IERC3664Metadata-symbol}."
      },
      "textOf(uint256,uint256)": {
        "details": "See {IERC3664-textOf}."
      },
      "tokenByIndex(uint256)": {
        "details": "See {IERC721Enumerable-tokenByIndex}."
      },
      "tokenOfOwnerByIndex(address,uint256)": {
        "details": "See {IERC721Enumerable-tokenOfOwnerByIndex}."
      },
      "tokenURI(uint256)": {
        "details": "See {IERC721Metadata-tokenURI}."
      },
      "totalSupply()": {
        "details": "See {IERC721Enumerable-totalSupply}."
      },
      "transferFrom(address,address,uint256)": {
        "details": "See {IERC721-transferFrom}."
      },
      "transferOwnership(address)": {
        "details": "Transfers ownership of the contract to a new account (`newOwner`). Can only be called by the current owner."
      }
    },
    "version": 1
  },
  "userdoc": {
    "kind": "user",
    "methods": {},
    "version": 1
  }
}