{
  "contractName": "LootData",
  "abi": [
    {
      "inputs": [
        {
          "internalType": "uint256",
          "name": "",
          "type": "uint256"
        }
      ],
      "name": "chestArmor",
      "outputs": [
        {
          "internalType": "string",
          "name": "",
          "type": "string"
        }
      ],
      "stateMutability": "view",
      "type": "function"
    },
    {
      "inputs": [
        {
          "internalType": "uint256",
          "name": "",
          "type": "uint256"
        }
      ],
      "name": "footArmor",
      "outputs": [
        {
          "internalType": "string",
          "name": "",
          "type": "string"
        }
      ],
      "stateMutability": "view",
      "type": "function"
    },
    {
      "inputs": [
        {
          "internalType": "uint256",
          "name": "",
          "type": "uint256"
        }
      ],
      "name": "handArmor",
      "outputs": [
        {
          "internalType": "string",
          "name": "",
          "type": "string"
        }
      ],
      "stateMutability": "view",
      "type": "function"
    },
    {
      "inputs": [
        {
          "internalType": "uint256",
          "name": "",
          "type": "uint256"
        }
      ],
      "name": "headArmor",
      "outputs": [
        {
          "internalType": "string",
          "name": "",
          "type": "string"
        }
      ],
      "stateMutability": "view",
      "type": "function"
    },
    {
      "inputs": [
        {
          "internalType": "uint256",
          "name": "",
          "type": "uint256"
        }
      ],
      "name": "namePrefixes",
      "outputs": [
        {
          "internalType": "string",
          "name": "",
          "type": "string"
        }
      ],
      "stateMutability": "view",
      "type": "function"
    },
    {
      "inputs": [
        {
          "internalType": "uint256",
          "name": "",
          "type": "uint256"
        }
      ],
      "name": "nameSuffixes",
      "outputs": [
        {
          "internalType": "string",
          "name": "",
          "type": "string"
        }
      ],
      "stateMutability": "view",
      "type": "function"
    },
    {
      "inputs": [
        {
          "internalType": "uint256",
          "name": "",
          "type": "uint256"
        }
      ],
      "name": "necklaces",
      "outputs": [
        {
          "internalType": "string",
          "name": "",
          "type": "string"
        }
      ],
      "stateMutability": "view",
      "type": "function"
    },
    {
      "inputs": [
        {
          "internalType": "uint256",
          "name": "",
          "type": "uint256"
        }
      ],
      "name": "rings",
      "outputs": [
        {
          "internalType": "string",
          "name": "",
          "type": "string"
        }
      ],
      "stateMutability": "view",
      "type": "function"
    },
    {
      "inputs": [
        {
          "internalType": "uint256",
          "name": "",
          "type": "uint256"
        }
      ],
      "name": "suffixes",
      "outputs": [
        {
          "internalType": "string",
          "name": "",
          "type": "string"
        }
      ],
      "stateMutability": "view",
      "type": "function"
    },
    {
      "inputs": [
        {
          "internalType": "uint256",
          "name": "",
          "type": "uint256"
        }
      ],
      "name": "waistArmor",
      "outputs": [
        {
          "internalType": "string",
          "name": "",
          "type": "string"
        }
      ],
      "stateMutability": "view",
      "type": "function"
    },
    {
      "inputs": [
        {
          "internalType": "uint256",
          "name": "",
          "type": "uint256"
        }
      ],
      "name": "weapons",
      "outputs": [
        {
          "internalType": "string",
          "name": "",
          "type": "string"
        }
      ],
      "stateMutability": "view",
      "type": "function"
    },
    {
      "inputs": [],
      "name": "getWeapons",
      "outputs": [
        {
          "internalType": "string[]",
          "name": "",
          "type": "string[]"
        }
      ],
      "stateMutability": "view",
      "type": "function"
    },
    {
      "inputs": [],
      "name": "getChest",
      "outputs": [
        {
          "internalType": "string[]",
          "name": "",
          "type": "string[]"
        }
      ],
      "stateMutability": "view",
      "type": "function"
    },
    {
      "inputs": [],
      "name": "getHead",
      "outputs": [
        {
          "internalType": "string[]",
          "name": "",
          "type": "string[]"
        }
      ],
      "stateMutability": "view",
      "type": "function"
    },
    {
      "inputs": [],
      "name": "getWaist",
      "outputs": [
        {
          "internalType": "string[]",
          "name": "",
          "type": "string[]"
        }
      ],
      "stateMutability": "view",
      "type": "function"
    },
    {
      "inputs": [],
      "name": "getFoot",
      "outputs": [
        {
          "internalType": "string[]",
          "name": "",
          "type": "string[]"
        }
      ],
      "stateMutability": "view",
      "type": "function"
    },
    {
      "inputs": [],
      "name": "getHand",
      "outputs": [
        {
          "internalType": "string[]",
          "name": "",
          "type": "string[]"
        }
      ],
      "stateMutability": "view",
      "type": "function"
    },
    {
      "inputs": [],
      "name": "getNecklaces",
      "outputs": [
        {
          "internalType": "string[]",
          "name": "",
          "type": "string[]"
        }
      ],
      "stateMutability": "view",
      "type": "function"
    },
    {
      "inputs": [],
      "name": "getRings",
      "outputs": [
        {
          "internalType": "string[]",
          "name": "",
          "type": "string[]"
        }
      ],
      "stateMutability": "view",
      "type": "function"
    },
    {
      "inputs": [],
      "name": "getSuffixes",
      "outputs": [
        {
          "internalType": "string[]",
          "name": "",
          "type": "string[]"
        }
      ],
      "stateMutability": "view",
      "type": "function"
    },
    {
      "inputs": [],
      "name": "getNamePrefixes",
      "outputs": [
        {
          "internalType": "string[]",
          "name": "",
          "type": "string[]"
        }
      ],
      "stateMutability": "view",
      "type": "function"
    },
    {
      "inputs": [],
      "name": "getNameSuffixes",
      "outputs": [
        {
          "internalType": "string[]",
          "name": "",
          "type": "string[]"
        }
      ],
      "stateMutability": "view",
      "type": "function"
    }
  ],
  "bytecode": "0x60806040526040518061024001604052806040518060400160405280600981526020017f57617268616d6d6572000000000000000000000000000000000000000000000081525081526020016040518060400160405280600c81526020017f517561727465727374616666000000000000000000000000000000000000000081525081526020016040518060400160405280600481526020017f4d61756c0000000000000000000000000000000000000000000000000000000081525081526020016040518060400160405280600481526020017f4d6163650000000000000000000000000000000000000000000000000000000081525081526020016040518060400160405280600481526020017f436c75620000000000000000000000000000000000000000000000000000000081525081526020016040518060400160405280600681526020017f4b6174616e61000000000000000000000000000000000000000000000000000081525081526020016040518060400160405280600881526020017f46616c6368696f6e00000000000000000000000000000000000000000000000081525081526020016040518060400160405280600881526020017f5363696d6974617200000000000000000000000000000000000000000000000081525081526020016040518060400160405280600a81526020017f4c6f6e672053776f72640000000000000000000000000000000000000000000081525081526020016040518060400160405280600b81526020017f53686f72742053776f726400000000000000000000000000000000000000000081525081526020016040518060400160405280600a81526020017f47686f73742057616e640000000000000000000000000000000000000000000081525081526020016040518060400160405280600a81526020017f47726176652057616e640000000000000000000000000000000000000000000081525081526020016040518060400160405280600981526020017f426f6e652057616e64000000000000000000000000000000000000000000000081525081526020016040518060400160405280600481526020017f57616e640000000000000000000000000000000000000000000000000000000081525081526020016040518060400160405280600881526020017f4772696d6f69726500000000000000000000000000000000000000000000000081525081526020016040518060400160405280600981526020017f4368726f6e69636c65000000000000000000000000000000000000000000000081525081526020016040518060400160405280600481526020017f546f6d650000000000000000000000000000000000000000000000000000000081525081526020016040518060400160405280600481526020017f426f6f6b0000000000000000000000000000000000000000000000000000000081525081525060009060126200044692919062003059565b50604051806101e001604052806040518060400160405280600b81526020017f446976696e6520526f626500000000000000000000000000000000000000000081525081526020016040518060400160405280600981526020017f53696c6b20526f6265000000000000000000000000000000000000000000000081525081526020016040518060400160405280600a81526020017f4c696e656e20526f62650000000000000000000000000000000000000000000081525081526020016040518060400160405280600481526020017f526f62650000000000000000000000000000000000000000000000000000000081525081526020016040518060400160405280600581526020017f536869727400000000000000000000000000000000000000000000000000000081525081526020016040518060400160405280600a81526020017f44656d6f6e204875736b0000000000000000000000000000000000000000000081525081526020016040518060400160405280601081526020017f447261676f6e736b696e2041726d6f720000000000000000000000000000000081525081526020016040518060400160405280601581526020017f53747564646564204c6561746865722041726d6f72000000000000000000000081525081526020016040518060400160405280601281526020017f48617264204c6561746865722041726d6f72000000000000000000000000000081525081526020016040518060400160405280600d81526020017f4c6561746865722041726d6f720000000000000000000000000000000000000081525081526020016040518060400160405280600f81526020017f486f6c79204368657374706c617465000000000000000000000000000000000081525081526020016040518060400160405280601181526020017f4f726e617465204368657374706c61746500000000000000000000000000000081525081526020016040518060400160405280600a81526020017f506c617465204d61696c0000000000000000000000000000000000000000000081525081526020016040518060400160405280600a81526020017f436861696e204d61696c0000000000000000000000000000000000000000000081525081526020016040518060400160405280600981526020017f52696e67204d61696c0000000000000000000000000000000000000000000000815250815250600190600f620007d8929190620030c0565b50604051806101e001604052806040518060400160405280600c81526020017f416e6369656e742048656c6d000000000000000000000000000000000000000081525081526020016040518060400160405280600b81526020017f4f726e6174652048656c6d00000000000000000000000000000000000000000081525081526020016040518060400160405280600a81526020017f47726561742048656c6d0000000000000000000000000000000000000000000081525081526020016040518060400160405280600981526020017f46756c6c2048656c6d000000000000000000000000000000000000000000000081525081526020016040518060400160405280600481526020017f48656c6d0000000000000000000000000000000000000000000000000000000081525081526020016040518060400160405280600b81526020017f44656d6f6e2043726f776e00000000000000000000000000000000000000000081525081526020016040518060400160405280600e81526020017f447261676f6e27732043726f776e00000000000000000000000000000000000081525081526020016040518060400160405280600781526020017f576172204361700000000000000000000000000000000000000000000000000081525081526020016040518060400160405280600b81526020017f4c6561746865722043617000000000000000000000000000000000000000000081525081526020016040518060400160405280600381526020017f436170000000000000000000000000000000000000000000000000000000000081525081526020016040518060400160405280600581526020017f43726f776e00000000000000000000000000000000000000000000000000000081525081526020016040518060400160405280600b81526020017f446976696e6520486f6f6400000000000000000000000000000000000000000081525081526020016040518060400160405280600981526020017f53696c6b20486f6f64000000000000000000000000000000000000000000000081525081526020016040518060400160405280600a81526020017f4c696e656e20486f6f640000000000000000000000000000000000000000000081525081526020016040518060400160405280600481526020017f486f6f6400000000000000000000000000000000000000000000000000000000815250815250600290600f62000b6a929190620030c0565b50604051806101e001604052806040518060400160405280600b81526020017f4f726e6174652042656c7400000000000000000000000000000000000000000081525081526020016040518060400160405280600881526020017f5761722042656c7400000000000000000000000000000000000000000000000081525081526020016040518060400160405280600b81526020017f506c617465642042656c7400000000000000000000000000000000000000000081525081526020016040518060400160405280600981526020017f4d6573682042656c74000000000000000000000000000000000000000000000081525081526020016040518060400160405280600a81526020017f48656176792042656c740000000000000000000000000000000000000000000081525081526020016040518060400160405280600e81526020017f44656d6f6e686964652042656c7400000000000000000000000000000000000081525081526020016040518060400160405280600f81526020017f447261676f6e736b696e2042656c74000000000000000000000000000000000081525081526020016040518060400160405280601481526020017f53747564646564204c6561746865722042656c7400000000000000000000000081525081526020016040518060400160405280601181526020017f48617264204c6561746865722042656c7400000000000000000000000000000081525081526020016040518060400160405280600c81526020017f4c6561746865722042656c74000000000000000000000000000000000000000081525081526020016040518060400160405280600f81526020017f42726967687473696c6b2053617368000000000000000000000000000000000081525081526020016040518060400160405280600981526020017f53696c6b2053617368000000000000000000000000000000000000000000000081525081526020016040518060400160405280600981526020017f576f6f6c2053617368000000000000000000000000000000000000000000000081525081526020016040518060400160405280600a81526020017f4c696e656e20536173680000000000000000000000000000000000000000000081525081526020016040518060400160405280600481526020017f5361736800000000000000000000000000000000000000000000000000000000815250815250600390600f62000efc929190620030c0565b50604051806101e001604052806040518060400160405280600c81526020017f486f6c792047726561766573000000000000000000000000000000000000000081525081526020016040518060400160405280600e81526020017f4f726e617465204772656176657300000000000000000000000000000000000081525081526020016040518060400160405280600781526020017f477265617665730000000000000000000000000000000000000000000000000081525081526020016040518060400160405280600b81526020017f436861696e20426f6f747300000000000000000000000000000000000000000081525081526020016040518060400160405280600b81526020017f486561767920426f6f747300000000000000000000000000000000000000000081525081526020016040518060400160405280600f81526020017f44656d6f6e6869646520426f6f7473000000000000000000000000000000000081525081526020016040518060400160405280601081526020017f447261676f6e736b696e20426f6f74730000000000000000000000000000000081525081526020016040518060400160405280601581526020017f53747564646564204c65617468657220426f6f7473000000000000000000000081525081526020016040518060400160405280601281526020017f48617264204c65617468657220426f6f7473000000000000000000000000000081525081526020016040518060400160405280600d81526020017f4c65617468657220426f6f74730000000000000000000000000000000000000081525081526020016040518060400160405280600f81526020017f446976696e6520536c697070657273000000000000000000000000000000000081525081526020016040518060400160405280600d81526020017f53696c6b20536c6970706572730000000000000000000000000000000000000081525081526020016040518060400160405280600a81526020017f576f6f6c2053686f65730000000000000000000000000000000000000000000081525081526020016040518060400160405280600b81526020017f4c696e656e2053686f657300000000000000000000000000000000000000000081525081526020016040518060400160405280600581526020017f53686f6573000000000000000000000000000000000000000000000000000000815250815250600490600f6200128e929190620030c0565b50604051806101e001604052806040518060400160405280600e81526020017f486f6c79204761756e746c65747300000000000000000000000000000000000081525081526020016040518060400160405280601081526020017f4f726e617465204761756e746c6574730000000000000000000000000000000081525081526020016040518060400160405280600981526020017f4761756e746c657473000000000000000000000000000000000000000000000081525081526020016040518060400160405280600c81526020017f436861696e20476c6f766573000000000000000000000000000000000000000081525081526020016040518060400160405280600c81526020017f486561767920476c6f766573000000000000000000000000000000000000000081525081526020016040518060400160405280600d81526020017f44656d6f6e27732048616e64730000000000000000000000000000000000000081525081526020016040518060400160405280601181526020017f447261676f6e736b696e20476c6f76657300000000000000000000000000000081525081526020016040518060400160405280601681526020017f53747564646564204c65617468657220476c6f7665730000000000000000000081525081526020016040518060400160405280601381526020017f48617264204c65617468657220476c6f7665730000000000000000000000000081525081526020016040518060400160405280600e81526020017f4c65617468657220476c6f76657300000000000000000000000000000000000081525081526020016040518060400160405280600d81526020017f446976696e6520476c6f7665730000000000000000000000000000000000000081525081526020016040518060400160405280600b81526020017f53696c6b20476c6f76657300000000000000000000000000000000000000000081525081526020016040518060400160405280600b81526020017f576f6f6c20476c6f76657300000000000000000000000000000000000000000081525081526020016040518060400160405280600c81526020017f4c696e656e20476c6f766573000000000000000000000000000000000000000081525081526020016040518060400160405280600681526020017f476c6f7665730000000000000000000000000000000000000000000000000000815250815250600590600f62001620929190620030c0565b5060405180606001604052806040518060400160405280600881526020017f4e65636b6c61636500000000000000000000000000000000000000000000000081525081526020016040518060400160405280600681526020017f416d756c6574000000000000000000000000000000000000000000000000000081525081526020016040518060400160405280600781526020017f50656e64616e74000000000000000000000000000000000000000000000000008152508152506006906003620016ed92919062003127565b506040518060a001604052806040518060400160405280600981526020017f476f6c642052696e67000000000000000000000000000000000000000000000081525081526020016040518060400160405280600b81526020017f53696c7665722052696e6700000000000000000000000000000000000000000081525081526020016040518060400160405280600b81526020017f42726f6e7a652052696e6700000000000000000000000000000000000000000081525081526020016040518060400160405280600d81526020017f506c6174696e756d2052696e670000000000000000000000000000000000000081525081526020016040518060400160405280600d81526020017f546974616e69756d2052696e67000000000000000000000000000000000000008152508152506007906005620018309291906200318e565b506040518061020001604052806040518060400160405280600881526020017f6f6620506f77657200000000000000000000000000000000000000000000000081525081526020016040518060400160405280600981526020017f6f66204769616e7473000000000000000000000000000000000000000000000081525081526020016040518060400160405280600981526020017f6f6620546974616e73000000000000000000000000000000000000000000000081525081526020016040518060400160405280600881526020017f6f6620536b696c6c00000000000000000000000000000000000000000000000081525081526020016040518060400160405280600d81526020017f6f662050657266656374696f6e0000000000000000000000000000000000000081525081526020016040518060400160405280600d81526020017f6f66204272696c6c69616e63650000000000000000000000000000000000000081525081526020016040518060400160405280601081526020017f6f6620456e6c69676874656e6d656e740000000000000000000000000000000081525081526020016040518060400160405280600d81526020017f6f662050726f74656374696f6e0000000000000000000000000000000000000081525081526020016040518060400160405280600881526020017f6f6620416e67657200000000000000000000000000000000000000000000000081525081526020016040518060400160405280600781526020017f6f6620526167650000000000000000000000000000000000000000000000000081525081526020016040518060400160405280600781526020017f6f6620467572790000000000000000000000000000000000000000000000000081525081526020016040518060400160405280600a81526020017f6f662056697472696f6c0000000000000000000000000000000000000000000081525081526020016040518060400160405280600a81526020017f6f662074686520466f780000000000000000000000000000000000000000000081525081526020016040518060400160405280600c81526020017f6f6620446574656374696f6e000000000000000000000000000000000000000081525081526020016040518060400160405280600d81526020017f6f66205265666c656374696f6e0000000000000000000000000000000000000081525081526020016040518060400160405280600c81526020017f6f6620746865205477696e730000000000000000000000000000000000000000815250815250600890601062001bfd929190620031f5565b50604051806108a001604052806040518060400160405280600581526020017f41676f6e7900000000000000000000000000000000000000000000000000000081525081526020016040518060400160405280600a81526020017f41706f63616c797073650000000000000000000000000000000000000000000081525081526020016040518060400160405280600a81526020017f41726d61676564646f6e0000000000000000000000000000000000000000000081525081526020016040518060400160405280600581526020017f426561737400000000000000000000000000000000000000000000000000000081525081526020016040518060400160405280600881526020017f426568656d6f746800000000000000000000000000000000000000000000000081525081526020016040518060400160405280600681526020017f426c69676874000000000000000000000000000000000000000000000000000081525081526020016040518060400160405280600581526020017f426c6f6f6400000000000000000000000000000000000000000000000000000081525081526020016040518060400160405280600781526020017f4272616d626c650000000000000000000000000000000000000000000000000081525081526020016040518060400160405280600981526020017f4272696d73746f6e65000000000000000000000000000000000000000000000081525081526020016040518060400160405280600581526020017f42726f6f6400000000000000000000000000000000000000000000000000000081525081526020016040518060400160405280600781526020017f43617272696f6e0000000000000000000000000000000000000000000000000081525081526020016040518060400160405280600981526020017f43617461636c79736d000000000000000000000000000000000000000000000081525081526020016040518060400160405280600881526020017f4368696d6572696300000000000000000000000000000000000000000000000081525081526020016040518060400160405280600681526020017f436f72707365000000000000000000000000000000000000000000000000000081525081526020016040518060400160405280600a81526020017f436f7272757074696f6e0000000000000000000000000000000000000000000081525081526020016040518060400160405280600981526020017f44616d6e6174696f6e000000000000000000000000000000000000000000000081525081526020016040518060400160405280600581526020017f446561746800000000000000000000000000000000000000000000000000000081525081526020016040518060400160405280600581526020017f44656d6f6e00000000000000000000000000000000000000000000000000000081525081526020016040518060400160405280600481526020017f446972650000000000000000000000000000000000000000000000000000000081525081526020016040518060400160405280600681526020017f447261676f6e000000000000000000000000000000000000000000000000000081525081526020016040518060400160405280600581526020017f447265616400000000000000000000000000000000000000000000000000000081525081526020016040518060400160405280600481526020017f446f6f6d0000000000000000000000000000000000000000000000000000000081525081526020016040518060400160405280600481526020017f4475736b0000000000000000000000000000000000000000000000000000000081525081526020016040518060400160405280600581526020017f4561676c6500000000000000000000000000000000000000000000000000000081525081526020016040518060400160405280600881526020017f456d70797265616e00000000000000000000000000000000000000000000000081525081526020016040518060400160405280600481526020017f466174650000000000000000000000000000000000000000000000000000000081525081526020016040518060400160405280600381526020017f466f65000000000000000000000000000000000000000000000000000000000081525081526020016040518060400160405280600481526020017f47616c650000000000000000000000000000000000000000000000000000000081525081526020016040518060400160405280600581526020017f47686f756c00000000000000000000000000000000000000000000000000000081525081526020016040518060400160405280600581526020017f476c6f6f6d00000000000000000000000000000000000000000000000000000081525081526020016040518060400160405280600581526020017f476c79706800000000000000000000000000000000000000000000000000000081525081526020016040518060400160405280600581526020017f476f6c656d00000000000000000000000000000000000000000000000000000081525081526020016040518060400160405280600481526020017f4772696d0000000000000000000000000000000000000000000000000000000081525081526020016040518060400160405280600481526020017f486174650000000000000000000000000000000000000000000000000000000081525081526020016040518060400160405280600581526020017f4861766f6300000000000000000000000000000000000000000000000000000081525081526020016040518060400160405280600681526020017f486f6e6f7572000000000000000000000000000000000000000000000000000081525081526020016040518060400160405280600681526020017f486f72726f72000000000000000000000000000000000000000000000000000081525081526020016040518060400160405280600881526020017f4879706e6f74696300000000000000000000000000000000000000000000000081525081526020016040518060400160405280600681526020017f4b72616b656e000000000000000000000000000000000000000000000000000081525081526020016040518060400160405280600581526020017f4c6f61746800000000000000000000000000000000000000000000000000000081525081526020016040518060400160405280600981526020017f4d61656c7374726f6d000000000000000000000000000000000000000000000081525081526020016040518060400160405280600481526020017f4d696e640000000000000000000000000000000000000000000000000000000081525081526020016040518060400160405280600781526020017f4d697261636c650000000000000000000000000000000000000000000000000081525081526020016040518060400160405280600681526020017f4d6f72626964000000000000000000000000000000000000000000000000000081525081526020016040518060400160405280600881526020017f4f626c6976696f6e00000000000000000000000000000000000000000000000081525081526020016040518060400160405280600981526020017f4f6e736c6175676874000000000000000000000000000000000000000000000081525081526020016040518060400160405280600481526020017f5061696e0000000000000000000000000000000000000000000000000000000081525081526020016040518060400160405280600b81526020017f50616e64656d6f6e69756d00000000000000000000000000000000000000000081525081526020016040518060400160405280600781526020017f50686f656e69780000000000000000000000000000000000000000000000000081525081526020016040518060400160405280600681526020017f506c61677565000000000000000000000000000000000000000000000000000081525081526020016040518060400160405280600481526020017f526167650000000000000000000000000000000000000000000000000000000081525081526020016040518060400160405280600781526020017f526170747572650000000000000000000000000000000000000000000000000081525081526020016040518060400160405280600481526020017f52756e650000000000000000000000000000000000000000000000000000000081525081526020016040518060400160405280600581526020017f536b756c6c00000000000000000000000000000000000000000000000000000081525081526020016040518060400160405280600381526020017f536f6c000000000000000000000000000000000000000000000000000000000081525081526020016040518060400160405280600481526020017f536f756c0000000000000000000000000000000000000000000000000000000081525081526020016040518060400160405280600681526020017f536f72726f77000000000000000000000000000000000000000000000000000081525081526020016040518060400160405280600681526020017f537069726974000000000000000000000000000000000000000000000000000081525081526020016040518060400160405280600581526020017f53746f726d00000000000000000000000000000000000000000000000000000081525081526020016040518060400160405280600781526020017f54656d706573740000000000000000000000000000000000000000000000000081525081526020016040518060400160405280600781526020017f546f726d656e740000000000000000000000000000000000000000000000000081525081526020016040518060400160405280600981526020017f56656e6765616e6365000000000000000000000000000000000000000000000081525081526020016040518060400160405280600781526020017f566963746f72790000000000000000000000000000000000000000000000000081525081526020016040518060400160405280600581526020017f566970657200000000000000000000000000000000000000000000000000000081525081526020016040518060400160405280600681526020017f566f72746578000000000000000000000000000000000000000000000000000081525081526020016040518060400160405280600381526020017f576f65000000000000000000000000000000000000000000000000000000000081525081526020016040518060400160405280600581526020017f577261746800000000000000000000000000000000000000000000000000000081525081526020016040518060400160405280600781526020017f4c6967687427730000000000000000000000000000000000000000000000000081525081526020016040518060400160405280600a81526020017f5368696d6d6572696e6700000000000000000000000000000000000000000000815250815250600990604562002c019291906200325c565b506040518061024001604052806040518060400160405280600481526020017f42616e650000000000000000000000000000000000000000000000000000000081525081526020016040518060400160405280600481526020017f526f6f740000000000000000000000000000000000000000000000000000000081525081526020016040518060400160405280600481526020017f426974650000000000000000000000000000000000000000000000000000000081525081526020016040518060400160405280600481526020017f536f6e670000000000000000000000000000000000000000000000000000000081525081526020016040518060400160405280600481526020017f526f61720000000000000000000000000000000000000000000000000000000081525081526020016040518060400160405280600581526020017f477261737000000000000000000000000000000000000000000000000000000081525081526020016040518060400160405280600a81526020017f496e737472756d656e740000000000000000000000000000000000000000000081525081526020016040518060400160405280600481526020017f476c6f770000000000000000000000000000000000000000000000000000000081525081526020016040518060400160405280600681526020017f42656e646572000000000000000000000000000000000000000000000000000081525081526020016040518060400160405280600681526020017f536861646f77000000000000000000000000000000000000000000000000000081525081526020016040518060400160405280600781526020017f576869737065720000000000000000000000000000000000000000000000000081525081526020016040518060400160405280600581526020017f53686f757400000000000000000000000000000000000000000000000000000081525081526020016040518060400160405280600581526020017f47726f776c00000000000000000000000000000000000000000000000000000081525081526020016040518060400160405280600481526020017f546561720000000000000000000000000000000000000000000000000000000081525081526020016040518060400160405280600481526020017f5065616b0000000000000000000000000000000000000000000000000000000081525081526020016040518060400160405280600481526020017f466f726d0000000000000000000000000000000000000000000000000000000081525081526020016040518060400160405280600381526020017f53756e000000000000000000000000000000000000000000000000000000000081525081526020016040518060400160405280600481526020017f4d6f6f6e00000000000000000000000000000000000000000000000000000000815250815250600a9060126200304492919062003059565b503480156200305257600080fd5b5062003446565b828054828255906000526020600020908101928215620030ad579160200282015b82811115620030ac5782518290805190602001906200309b929190620032c3565b50916020019190600101906200307a565b5b509050620030bc919062003354565b5090565b82805482825590600052602060002090810192821562003114579160200282015b828111156200311357825182908051906020019062003102929190620032c3565b5091602001919060010190620030e1565b5b50905062003123919062003354565b5090565b8280548282559060005260206000209081019282156200317b579160200282015b828111156200317a57825182908051906020019062003169929190620032c3565b509160200191906001019062003148565b5b5090506200318a919062003354565b5090565b828054828255906000526020600020908101928215620031e2579160200282015b82811115620031e1578251829080519060200190620031d0929190620032c3565b5091602001919060010190620031af565b5b509050620031f1919062003354565b5090565b82805482825590600052602060002090810192821562003249579160200282015b828111156200324857825182908051906020019062003237929190620032c3565b509160200191906001019062003216565b5b50905062003258919062003354565b5090565b828054828255906000526020600020908101928215620032b0579160200282015b82811115620032af5782518290805190602001906200329e929190620032c3565b50916020019190600101906200327d565b5b509050620032bf919062003354565b5090565b828054620032d190620033e1565b90600052602060002090601f016020900481019282620032f5576000855562003341565b82601f106200331057805160ff191683800117855562003341565b8280016001018555821562003341579182015b828111156200334057825182559160200191906001019062003323565b5b5090506200335091906200337c565b5090565b5b808211156200337857600081816200336e91906200339b565b5060010162003355565b5090565b5b80821115620033975760008160009055506001016200337d565b5090565b508054620033a990620033e1565b6000825580601f10620033bd5750620033de565b601f016020900490600052602060002090810190620033dd91906200337c565b5b50565b60006002820490506001821680620033fa57607f821691505b6020821081141562003411576200341062003417565b5b50919050565b7f4e487b7100000000000000000000000000000000000000000000000000000000600052602260045260246000fd5b61183780620034566000396000f3fe608060405234801561001057600080fd5b50600436106101425760003560e01c8063c342495e116100b8578063e7933eef1161007c578063e7933eef146103a5578063ec974202146103d5578063f563d34814610405578063f946e3bc14610423578063fb29885d14610453578063fe235a551461048357610142565b8063c342495e146102fd578063d176b8091461031b578063d23711301461034b578063d3400ec014610369578063dc281aff1461038757610142565b8063555e73c81161010a578063555e73c8146102135780635fe3e36b146102435780636435bece1461026157806388c6c7661461029157806389b3aed1146102af578063b6c75784146102cd57610142565b806308008f351461014757806314df1ca814610177578063183dbd0114610195578063273a1d5e146101c55780634103d17a146101e3575b600080fd5b610161600480360381019061015c919061156d565b6104a1565b60405161016e91906116b3565b60405180910390f35b61017f61054d565b60405161018c9190611691565b60405180910390f35b6101af60048036038101906101aa919061156d565b610626565b6040516101bc91906116b3565b60405180910390f35b6101cd6106d2565b6040516101da9190611691565b60405180910390f35b6101fd60048036038101906101f8919061156d565b6107ab565b60405161020a91906116b3565b60405180910390f35b61022d6004803603810190610228919061156d565b610857565b60405161023a91906116b3565b60405180910390f35b61024b610903565b6040516102589190611691565b60405180910390f35b61027b6004803603810190610276919061156d565b6109dc565b60405161028891906116b3565b60405180910390f35b610299610a88565b6040516102a69190611691565b60405180910390f35b6102b7610b61565b6040516102c49190611691565b60405180910390f35b6102e760048036038101906102e2919061156d565b610c3a565b6040516102f491906116b3565b60405180910390f35b610305610ce6565b6040516103129190611691565b60405180910390f35b6103356004803603810190610330919061156d565b610dbf565b60405161034291906116b3565b60405180910390f35b610353610e6b565b6040516103609190611691565b60405180910390f35b610371610f44565b60405161037e9190611691565b60405180910390f35b61038f61101d565b60405161039c9190611691565b60405180910390f35b6103bf60048036038101906103ba919061156d565b6110f6565b6040516103cc91906116b3565b60405180910390f35b6103ef60048036038101906103ea919061156d565b6111a2565b6040516103fc91906116b3565b60405180910390f35b61040d61124e565b60405161041a9190611691565b60405180910390f35b61043d6004803603810190610438919061156d565b611327565b60405161044a91906116b3565b60405180910390f35b61046d6004803603810190610468919061156d565b6113d3565b60405161047a91906116b3565b60405180910390f35b61048b61147f565b6040516104989190611691565b60405180910390f35b600681815481106104b157600080fd5b9060005260206000200160009150905080546104cc90611778565b80601f01602080910402602001604051908101604052809291908181526020018280546104f890611778565b80156105455780601f1061051a57610100808354040283529160200191610545565b820191906000526020600020905b81548152906001019060200180831161052857829003601f168201915b505050505081565b60606004805480602002602001604051908101604052809291908181526020016000905b8282101561061d57838290600052602060002001805461059090611778565b80601f01602080910402602001604051908101604052809291908181526020018280546105bc90611778565b80156106095780601f106105de57610100808354040283529160200191610609565b820191906000526020600020905b8154815290600101906020018083116105ec57829003601f168201915b505050505081526020019060010190610571565b50505050905090565b6001818154811061063657600080fd5b90600052602060002001600091509050805461065190611778565b80601f016020809104026020016040519081016040528092919081815260200182805461067d90611778565b80156106ca5780601f1061069f576101008083540402835291602001916106ca565b820191906000526020600020905b8154815290600101906020018083116106ad57829003601f168201915b505050505081565b60606001805480602002602001604051908101604052809291908181526020016000905b828210156107a257838290600052602060002001805461071590611778565b80601f016020809104026020016040519081016040528092919081815260200182805461074190611778565b801561078e5780601f106107635761010080835404028352916020019161078e565b820191906000526020600020905b81548152906001019060200180831161077157829003601f168201915b5050505050815260200190600101906106f6565b50505050905090565b600581815481106107bb57600080fd5b9060005260206000200160009150905080546107d690611778565b80601f016020809104026020016040519081016040528092919081815260200182805461080290611778565b801561084f5780601f106108245761010080835404028352916020019161084f565b820191906000526020600020905b81548152906001019060200180831161083257829003601f168201915b505050505081565b6000818154811061086757600080fd5b90600052602060002001600091509050805461088290611778565b80601f01602080910402602001604051908101604052809291908181526020018280546108ae90611778565b80156108fb5780601f106108d0576101008083540402835291602001916108fb565b820191906000526020600020905b8154815290600101906020018083116108de57829003601f168201915b505050505081565b60606005805480602002602001604051908101604052809291908181526020016000905b828210156109d357838290600052602060002001805461094690611778565b80601f016020809104026020016040519081016040528092919081815260200182805461097290611778565b80156109bf5780601f10610994576101008083540402835291602001916109bf565b820191906000526020600020905b8154815290600101906020018083116109a257829003601f168201915b505050505081526020019060010190610927565b50505050905090565b600481815481106109ec57600080fd5b906000526020600020016000915090508054610a0790611778565b80601f0160208091040260200160405190810160405280929190818152602001828054610a3390611778565b8015610a805780601f10610a5557610100808354040283529160200191610a80565b820191906000526020600020905b815481529060010190602001808311610a6357829003601f168201915b505050505081565b60606009805480602002602001604051908101604052809291908181526020016000905b82821015610b58578382906000526020600020018054610acb90611778565b80601f0160208091040260200160405190810160405280929190818152602001828054610af790611778565b8015610b445780601f10610b1957610100808354040283529160200191610b44565b820191906000526020600020905b815481529060010190602001808311610b2757829003601f168201915b505050505081526020019060010190610aac565b50505050905090565b60606006805480602002602001604051908101604052809291908181526020016000905b82821015610c31578382906000526020600020018054610ba490611778565b80601f0160208091040260200160405190810160405280929190818152602001828054610bd090611778565b8015610c1d5780601f10610bf257610100808354040283529160200191610c1d565b820191906000526020600020905b815481529060010190602001808311610c0057829003601f168201915b505050505081526020019060010190610b85565b50505050905090565b60088181548110610c4a57600080fd5b906000526020600020016000915090508054610c6590611778565b80601f0160208091040260200160405190810160405280929190818152602001828054610c9190611778565b8015610cde5780601f10610cb357610100808354040283529160200191610cde565b820191906000526020600020905b815481529060010190602001808311610cc157829003601f168201915b505050505081565b60606008805480602002602001604051908101604052809291908181526020016000905b82821015610db6578382906000526020600020018054610d2990611778565b80601f0160208091040260200160405190810160405280929190818152602001828054610d5590611778565b8015610da25780601f10610d7757610100808354040283529160200191610da2565b820191906000526020600020905b815481529060010190602001808311610d8557829003601f168201915b505050505081526020019060010190610d0a565b50505050905090565b60028181548110610dcf57600080fd5b906000526020600020016000915090508054610dea90611778565b80601f0160208091040260200160405190810160405280929190818152602001828054610e1690611778565b8015610e635780601f10610e3857610100808354040283529160200191610e63565b820191906000526020600020905b815481529060010190602001808311610e4657829003601f168201915b505050505081565b60606007805480602002602001604051908101604052809291908181526020016000905b82821015610f3b578382906000526020600020018054610eae90611778565b80601f0160208091040260200160405190810160405280929190818152602001828054610eda90611778565b8015610f275780601f10610efc57610100808354040283529160200191610f27565b820191906000526020600020905b815481529060010190602001808311610f0a57829003601f168201915b505050505081526020019060010190610e8f565b50505050905090565b60606003805480602002602001604051908101604052809291908181526020016000905b82821015611014578382906000526020600020018054610f8790611778565b80601f0160208091040260200160405190810160405280929190818152602001828054610fb390611778565b80156110005780601f10610fd557610100808354040283529160200191611000565b820191906000526020600020905b815481529060010190602001808311610fe357829003601f168201915b505050505081526020019060010190610f68565b50505050905090565b60606002805480602002602001604051908101604052809291908181526020016000905b828210156110ed57838290600052602060002001805461106090611778565b80601f016020809104026020016040519081016040528092919081815260200182805461108c90611778565b80156110d95780601f106110ae576101008083540402835291602001916110d9565b820191906000526020600020905b8154815290600101906020018083116110bc57829003601f168201915b505050505081526020019060010190611041565b50505050905090565b6009818154811061110657600080fd5b90600052602060002001600091509050805461112190611778565b80601f016020809104026020016040519081016040528092919081815260200182805461114d90611778565b801561119a5780601f1061116f5761010080835404028352916020019161119a565b820191906000526020600020905b81548152906001019060200180831161117d57829003601f168201915b505050505081565b600381815481106111b257600080fd5b9060005260206000200160009150905080546111cd90611778565b80601f01602080910402602001604051908101604052809291908181526020018280546111f990611778565b80156112465780601f1061121b57610100808354040283529160200191611246565b820191906000526020600020905b81548152906001019060200180831161122957829003601f168201915b505050505081565b60606000805480602002602001604051908101604052809291908181526020016000905b8282101561131e57838290600052602060002001805461129190611778565b80601f01602080910402602001604051908101604052809291908181526020018280546112bd90611778565b801561130a5780601f106112df5761010080835404028352916020019161130a565b820191906000526020600020905b8154815290600101906020018083116112ed57829003601f168201915b505050505081526020019060010190611272565b50505050905090565b600a818154811061133757600080fd5b90600052602060002001600091509050805461135290611778565b80601f016020809104026020016040519081016040528092919081815260200182805461137e90611778565b80156113cb5780601f106113a0576101008083540402835291602001916113cb565b820191906000526020600020905b8154815290600101906020018083116113ae57829003601f168201915b505050505081565b600781815481106113e357600080fd5b9060005260206000200160009150905080546113fe90611778565b80601f016020809104026020016040519081016040528092919081815260200182805461142a90611778565b80156114775780601f1061144c57610100808354040283529160200191611477565b820191906000526020600020905b81548152906001019060200180831161145a57829003601f168201915b505050505081565b6060600a805480602002602001604051908101604052809291908181526020016000905b8282101561154f5783829060005260206000200180546114c290611778565b80601f01602080910402602001604051908101604052809291908181526020018280546114ee90611778565b801561153b5780601f106115105761010080835404028352916020019161153b565b820191906000526020600020905b81548152906001019060200180831161151e57829003601f168201915b5050505050815260200190600101906114a3565b50505050905090565b600081359050611567816117ea565b92915050565b60006020828403121561157f57600080fd5b600061158d84828501611558565b91505092915050565b60006115a2838361161f565b905092915050565b60006115b5826116e5565b6115bf8185611708565b9350836020820285016115d1856116d5565b8060005b8581101561160d57848403895281516115ee8582611596565b94506115f9836116fb565b925060208a019950506001810190506115d5565b50829750879550505050505092915050565b600061162a826116f0565b6116348185611719565b9350611644818560208601611745565b61164d816117d9565b840191505092915050565b6000611663826116f0565b61166d818561172a565b935061167d818560208601611745565b611686816117d9565b840191505092915050565b600060208201905081810360008301526116ab81846115aa565b905092915050565b600060208201905081810360008301526116cd8184611658565b905092915050565b6000819050602082019050919050565b600081519050919050565b600081519050919050565b6000602082019050919050565b600082825260208201905092915050565b600082825260208201905092915050565b600082825260208201905092915050565b6000819050919050565b60005b83811015611763578082015181840152602081019050611748565b83811115611772576000848401525b50505050565b6000600282049050600182168061179057607f821691505b602082108114156117a4576117a36117aa565b5b50919050565b7f4e487b7100000000000000000000000000000000000000000000000000000000600052602260045260246000fd5b6000601f19601f8301169050919050565b6117f38161173b565b81146117fe57600080fd5b5056fea26469706673582212201df6d1cfff3e973989cedc7f82fddfe28450561e6f48a7b0a3fd1a1c556583d764736f6c63430008000033",
  "immutableReferences": {},
  "source": "// SPDX-License-Identifier: MIT\r\n\r\npragma solidity ^0.8.0;\r\n\r\ncontract LootData {\r\n    string[] public weapons = [\r\n        \"Warhammer\",\r\n        \"Quarterstaff\",\r\n        \"Maul\",\r\n        \"Mace\",\r\n        \"Club\",\r\n        \"Katana\",\r\n        \"Falchion\",\r\n        \"Scimitar\",\r\n        \"Long Sword\",\r\n        \"Short Sword\",\r\n        \"Ghost Wand\",\r\n        \"Grave Wand\",\r\n        \"Bone Wand\",\r\n        \"Wand\",\r\n        \"Grimoire\",\r\n        \"Chronicle\",\r\n        \"Tome\",\r\n        \"Book\"\r\n    ];\r\n\r\n    string[] public chestArmor = [\r\n        \"Divine Robe\",\r\n        \"Silk Robe\",\r\n        \"Linen Robe\",\r\n        \"Robe\",\r\n        \"Shirt\",\r\n        \"Demon Husk\",\r\n        \"Dragonskin Armor\",\r\n        \"Studded Leather Armor\",\r\n        \"Hard Leather Armor\",\r\n        \"Leather Armor\",\r\n        \"Holy Chestplate\",\r\n        \"Ornate Chestplate\",\r\n        \"Plate Mail\",\r\n        \"Chain Mail\",\r\n        \"Ring Mail\"\r\n    ];\r\n\r\n    string[] public headArmor = [\r\n        \"Ancient Helm\",\r\n        \"Ornate Helm\",\r\n        \"Great Helm\",\r\n        \"Full Helm\",\r\n        \"Helm\",\r\n        \"Demon Crown\",\r\n        \"Dragon's Crown\",\r\n        \"War Cap\",\r\n        \"Leather Cap\",\r\n        \"Cap\",\r\n        \"Crown\",\r\n        \"Divine Hood\",\r\n        \"Silk Hood\",\r\n        \"Linen Hood\",\r\n        \"Hood\"\r\n    ];\r\n\r\n    string[] public waistArmor = [\r\n        \"Ornate Belt\",\r\n        \"War Belt\",\r\n        \"Plated Belt\",\r\n        \"Mesh Belt\",\r\n        \"Heavy Belt\",\r\n        \"Demonhide Belt\",\r\n        \"Dragonskin Belt\",\r\n        \"Studded Leather Belt\",\r\n        \"Hard Leather Belt\",\r\n        \"Leather Belt\",\r\n        \"Brightsilk Sash\",\r\n        \"Silk Sash\",\r\n        \"Wool Sash\",\r\n        \"Linen Sash\",\r\n        \"Sash\"\r\n    ];\r\n\r\n    string[] public footArmor = [\r\n        \"Holy Greaves\",\r\n        \"Ornate Greaves\",\r\n        \"Greaves\",\r\n        \"Chain Boots\",\r\n        \"Heavy Boots\",\r\n        \"Demonhide Boots\",\r\n        \"Dragonskin Boots\",\r\n        \"Studded Leather Boots\",\r\n        \"Hard Leather Boots\",\r\n        \"Leather Boots\",\r\n        \"Divine Slippers\",\r\n        \"Silk Slippers\",\r\n        \"Wool Shoes\",\r\n        \"Linen Shoes\",\r\n        \"Shoes\"\r\n    ];\r\n\r\n    string[] public handArmor = [\r\n        \"Holy Gauntlets\",\r\n        \"Ornate Gauntlets\",\r\n        \"Gauntlets\",\r\n        \"Chain Gloves\",\r\n        \"Heavy Gloves\",\r\n        \"Demon's Hands\",\r\n        \"Dragonskin Gloves\",\r\n        \"Studded Leather Gloves\",\r\n        \"Hard Leather Gloves\",\r\n        \"Leather Gloves\",\r\n        \"Divine Gloves\",\r\n        \"Silk Gloves\",\r\n        \"Wool Gloves\",\r\n        \"Linen Gloves\",\r\n        \"Gloves\"\r\n    ];\r\n\r\n    string[] public necklaces = [\"Necklace\", \"Amulet\", \"Pendant\"];\r\n\r\n    string[] public rings = [\r\n        \"Gold Ring\",\r\n        \"Silver Ring\",\r\n        \"Bronze Ring\",\r\n        \"Platinum Ring\",\r\n        \"Titanium Ring\"\r\n    ];\r\n\r\n    string[] public suffixes = [\r\n        \"of Power\",\r\n        \"of Giants\",\r\n        \"of Titans\",\r\n        \"of Skill\",\r\n        \"of Perfection\",\r\n        \"of Brilliance\",\r\n        \"of Enlightenment\",\r\n        \"of Protection\",\r\n        \"of Anger\",\r\n        \"of Rage\",\r\n        \"of Fury\",\r\n        \"of Vitriol\",\r\n        \"of the Fox\",\r\n        \"of Detection\",\r\n        \"of Reflection\",\r\n        \"of the Twins\"\r\n    ];\r\n\r\n    string[] public namePrefixes = [\r\n        \"Agony\",\r\n        \"Apocalypse\",\r\n        \"Armageddon\",\r\n        \"Beast\",\r\n        \"Behemoth\",\r\n        \"Blight\",\r\n        \"Blood\",\r\n        \"Bramble\",\r\n        \"Brimstone\",\r\n        \"Brood\",\r\n        \"Carrion\",\r\n        \"Cataclysm\",\r\n        \"Chimeric\",\r\n        \"Corpse\",\r\n        \"Corruption\",\r\n        \"Damnation\",\r\n        \"Death\",\r\n        \"Demon\",\r\n        \"Dire\",\r\n        \"Dragon\",\r\n        \"Dread\",\r\n        \"Doom\",\r\n        \"Dusk\",\r\n        \"Eagle\",\r\n        \"Empyrean\",\r\n        \"Fate\",\r\n        \"Foe\",\r\n        \"Gale\",\r\n        \"Ghoul\",\r\n        \"Gloom\",\r\n        \"Glyph\",\r\n        \"Golem\",\r\n        \"Grim\",\r\n        \"Hate\",\r\n        \"Havoc\",\r\n        \"Honour\",\r\n        \"Horror\",\r\n        \"Hypnotic\",\r\n        \"Kraken\",\r\n        \"Loath\",\r\n        \"Maelstrom\",\r\n        \"Mind\",\r\n        \"Miracle\",\r\n        \"Morbid\",\r\n        \"Oblivion\",\r\n        \"Onslaught\",\r\n        \"Pain\",\r\n        \"Pandemonium\",\r\n        \"Phoenix\",\r\n        \"Plague\",\r\n        \"Rage\",\r\n        \"Rapture\",\r\n        \"Rune\",\r\n        \"Skull\",\r\n        \"Sol\",\r\n        \"Soul\",\r\n        \"Sorrow\",\r\n        \"Spirit\",\r\n        \"Storm\",\r\n        \"Tempest\",\r\n        \"Torment\",\r\n        \"Vengeance\",\r\n        \"Victory\",\r\n        \"Viper\",\r\n        \"Vortex\",\r\n        \"Woe\",\r\n        \"Wrath\",\r\n        \"Light's\",\r\n        \"Shimmering\"\r\n    ];\r\n\r\n    string[] public nameSuffixes = [\r\n        \"Bane\",\r\n        \"Root\",\r\n        \"Bite\",\r\n        \"Song\",\r\n        \"Roar\",\r\n        \"Grasp\",\r\n        \"Instrument\",\r\n        \"Glow\",\r\n        \"Bender\",\r\n        \"Shadow\",\r\n        \"Whisper\",\r\n        \"Shout\",\r\n        \"Growl\",\r\n        \"Tear\",\r\n        \"Peak\",\r\n        \"Form\",\r\n        \"Sun\",\r\n        \"Moon\"\r\n    ];\r\n\r\n    function getWeapons() public view returns (string[] memory) {\r\n        return weapons;\r\n    }\r\n\r\n    function getChest() public view returns (string[] memory) {\r\n        return chestArmor;\r\n    }\r\n\r\n    function getHead() public view returns (string[] memory) {\r\n        return headArmor;\r\n    }\r\n\r\n    function getWaist() public view returns (string[] memory) {\r\n        return waistArmor;\r\n    }\r\n\r\n    function getFoot() public view returns (string[] memory) {\r\n        return footArmor;\r\n    }\r\n\r\n    function getHand() public view returns (string[] memory) {\r\n        return handArmor;\r\n    }\r\n\r\n    function getNecklaces() public view returns (string[] memory) {\r\n        return necklaces;\r\n    }\r\n\r\n    function getRings() public view returns (string[] memory) {\r\n        return rings;\r\n    }\r\n\r\n    function getSuffixes() public view returns (string[] memory) {\r\n        return suffixes;\r\n    }\r\n\r\n    function getNamePrefixes() public view returns (string[] memory) {\r\n        return namePrefixes;\r\n    }\r\n\r\n    function getNameSuffixes() public view returns (string[] memory) {\r\n        return nameSuffixes;\r\n    }\r\n}\r\n",
  "sourcePath": "D:\\MetaNFT\\MetaNFT\\contracts\\LootData.sol",
  "compiler": {
    "name": "solc",
    "version": "0.8.0+commit.c7dfd78e.Emscripten.clang"
  },
  "schemaVersion": "3.4.3",
  "updatedAt": "2021-09-22T09:26:16.236Z",
  "devdoc": {
    "kind": "dev",
    "methods": {},
    "version": 1
  },
  "userdoc": {
    "kind": "user",
    "methods": {},
    "version": 1
  }
}