{
  "contractName": "Metacore",
  "abi": [
    {
      "inputs": [],
      "stateMutability": "nonpayable",
      "type": "constructor"
    },
    {
      "anonymous": false,
      "inputs": [
        {
          "indexed": true,
          "internalType": "address",
          "name": "owner",
          "type": "address"
        },
        {
          "indexed": true,
          "internalType": "address",
          "name": "approved",
          "type": "address"
        },
        {
          "indexed": true,
          "internalType": "uint256",
          "name": "tokenId",
          "type": "uint256"
        }
      ],
      "name": "Approval",
      "type": "event"
    },
    {
      "anonymous": false,
      "inputs": [
        {
          "indexed": true,
          "internalType": "address",
          "name": "owner",
          "type": "address"
        },
        {
          "indexed": true,
          "internalType": "address",
          "name": "operator",
          "type": "address"
        },
        {
          "indexed": false,
          "internalType": "bool",
          "name": "approved",
          "type": "bool"
        }
      ],
      "name": "ApprovalForAll",
      "type": "event"
    },
    {
      "anonymous": false,
      "inputs": [
        {
          "indexed": true,
          "internalType": "address",
          "name": "operator",
          "type": "address"
        },
        {
          "indexed": true,
          "internalType": "uint256",
          "name": "attrId",
          "type": "uint256"
        },
        {
          "indexed": false,
          "internalType": "string",
          "name": "name",
          "type": "string"
        },
        {
          "indexed": false,
          "internalType": "string",
          "name": "symbol",
          "type": "string"
        },
        {
          "indexed": false,
          "internalType": "string",
          "name": "uri",
          "type": "string"
        }
      ],
      "name": "NewAttribute",
      "type": "event"
    },
    {
      "anonymous": false,
      "inputs": [
        {
          "indexed": true,
          "internalType": "address",
          "name": "operator",
          "type": "address"
        },
        {
          "indexed": true,
          "internalType": "uint256[]",
          "name": "attrIds",
          "type": "uint256[]"
        },
        {
          "indexed": false,
          "internalType": "string[]",
          "name": "names",
          "type": "string[]"
        },
        {
          "indexed": false,
          "internalType": "string[]",
          "name": "symbols",
          "type": "string[]"
        },
        {
          "indexed": false,
          "internalType": "string[]",
          "name": "uris",
          "type": "string[]"
        }
      ],
      "name": "NewAttributeBatch",
      "type": "event"
    },
    {
      "anonymous": false,
      "inputs": [
        {
          "indexed": true,
          "internalType": "address",
          "name": "previousOwner",
          "type": "address"
        },
        {
          "indexed": true,
          "internalType": "address",
          "name": "newOwner",
          "type": "address"
        }
      ],
      "name": "OwnershipTransferred",
      "type": "event"
    },
    {
      "anonymous": false,
      "inputs": [
        {
          "indexed": true,
          "internalType": "address",
          "name": "from",
          "type": "address"
        },
        {
          "indexed": true,
          "internalType": "address",
          "name": "to",
          "type": "address"
        },
        {
          "indexed": true,
          "internalType": "uint256",
          "name": "tokenId",
          "type": "uint256"
        }
      ],
      "name": "Transfer",
      "type": "event"
    },
    {
      "anonymous": false,
      "inputs": [
        {
          "indexed": true,
          "internalType": "address",
          "name": "operator",
          "type": "address"
        },
        {
          "indexed": false,
          "internalType": "uint256",
          "name": "from",
          "type": "uint256"
        },
        {
          "indexed": false,
          "internalType": "uint256",
          "name": "to",
          "type": "uint256"
        },
        {
          "indexed": true,
          "internalType": "uint256[]",
          "name": "attrIds",
          "type": "uint256[]"
        },
        {
          "indexed": false,
          "internalType": "uint256[]",
          "name": "values",
          "type": "uint256[]"
        }
      ],
      "name": "TransferBatch",
      "type": "event"
    },
    {
      "anonymous": false,
      "inputs": [
        {
          "indexed": true,
          "internalType": "address",
          "name": "operator",
          "type": "address"
        },
        {
          "indexed": false,
          "internalType": "uint256",
          "name": "from",
          "type": "uint256"
        },
        {
          "indexed": false,
          "internalType": "uint256",
          "name": "to",
          "type": "uint256"
        },
        {
          "indexed": true,
          "internalType": "uint256",
          "name": "attrId",
          "type": "uint256"
        },
        {
          "indexed": false,
          "internalType": "uint256",
          "name": "value",
          "type": "uint256"
        }
      ],
      "name": "TransferSingle",
      "type": "event"
    },
    {
      "inputs": [
        {
          "internalType": "uint256",
          "name": "",
          "type": "uint256"
        }
      ],
      "name": "_attrMetadatas",
      "outputs": [
        {
          "internalType": "string",
          "name": "name",
          "type": "string"
        },
        {
          "internalType": "string",
          "name": "symbol",
          "type": "string"
        },
        {
          "internalType": "string",
          "name": "uri",
          "type": "string"
        },
        {
          "internalType": "bool",
          "name": "exist",
          "type": "bool"
        }
      ],
      "stateMutability": "view",
      "type": "function"
    },
    {
      "inputs": [
        {
          "internalType": "uint256",
          "name": "",
          "type": "uint256"
        },
        {
          "internalType": "uint256",
          "name": "",
          "type": "uint256"
        }
      ],
      "name": "_balances",
      "outputs": [
        {
          "internalType": "uint256",
          "name": "",
          "type": "uint256"
        }
      ],
      "stateMutability": "view",
      "type": "function"
    },
    {
      "inputs": [
        {
          "internalType": "uint256",
          "name": "",
          "type": "uint256"
        },
        {
          "internalType": "uint256",
          "name": "",
          "type": "uint256"
        }
      ],
      "name": "_texts",
      "outputs": [
        {
          "internalType": "bytes",
          "name": "",
          "type": "bytes"
        }
      ],
      "stateMutability": "view",
      "type": "function"
    },
    {
      "inputs": [
        {
          "internalType": "address",
          "name": "to",
          "type": "address"
        },
        {
          "internalType": "uint256",
          "name": "tokenId",
          "type": "uint256"
        }
      ],
      "name": "approve",
      "outputs": [],
      "stateMutability": "nonpayable",
      "type": "function"
    },
    {
      "inputs": [
        {
          "internalType": "uint256",
          "name": "tokenId",
          "type": "uint256"
        },
        {
          "internalType": "uint256",
          "name": "attrId",
          "type": "uint256"
        },
        {
          "internalType": "uint256",
          "name": "amount",
          "type": "uint256"
        },
        {
          "internalType": "bytes",
          "name": "text",
          "type": "bytes"
        },
        {
          "internalType": "bool",
          "name": "isPrimary",
          "type": "bool"
        }
      ],
      "name": "attach",
      "outputs": [],
      "stateMutability": "nonpayable",
      "type": "function"
    },
    {
      "inputs": [
        {
          "internalType": "uint256",
          "name": "attrId",
          "type": "uint256"
        }
      ],
      "name": "attrURI",
      "outputs": [
        {
          "internalType": "string",
          "name": "",
          "type": "string"
        }
      ],
      "stateMutability": "view",
      "type": "function"
    },
    {
      "inputs": [
        {
          "internalType": "uint256",
          "name": "tokenId",
          "type": "uint256"
        }
      ],
      "name": "attributesOf",
      "outputs": [
        {
          "internalType": "uint256[]",
          "name": "",
          "type": "uint256[]"
        }
      ],
      "stateMutability": "view",
      "type": "function"
    },
    {
      "inputs": [
        {
          "internalType": "address",
          "name": "owner",
          "type": "address"
        }
      ],
      "name": "balanceOf",
      "outputs": [
        {
          "internalType": "uint256",
          "name": "",
          "type": "uint256"
        }
      ],
      "stateMutability": "view",
      "type": "function"
    },
    {
      "inputs": [
        {
          "internalType": "uint256",
          "name": "tokenId",
          "type": "uint256"
        },
        {
          "internalType": "uint256",
          "name": "attrId",
          "type": "uint256"
        }
      ],
      "name": "balanceOf",
      "outputs": [
        {
          "internalType": "uint256",
          "name": "",
          "type": "uint256"
        }
      ],
      "stateMutability": "view",
      "type": "function"
    },
    {
      "inputs": [
        {
          "internalType": "uint256",
          "name": "tokenId",
          "type": "uint256"
        },
        {
          "internalType": "uint256[]",
          "name": "attrIds",
          "type": "uint256[]"
        }
      ],
      "name": "balanceOfBatch",
      "outputs": [
        {
          "internalType": "uint256[]",
          "name": "",
          "type": "uint256[]"
        }
      ],
      "stateMutability": "view",
      "type": "function"
    },
    {
      "inputs": [
        {
          "internalType": "uint256",
          "name": "tokenId",
          "type": "uint256"
        },
        {
          "internalType": "uint256[]",
          "name": "attrIds",
          "type": "uint256[]"
        },
        {
          "internalType": "uint256[]",
          "name": "amounts",
          "type": "uint256[]"
        },
        {
          "internalType": "bytes[]",
          "name": "texts",
          "type": "bytes[]"
        }
      ],
      "name": "batchAttach",
      "outputs": [],
      "stateMutability": "nonpayable",
      "type": "function"
    },
    {
      "inputs": [
        {
          "internalType": "uint256",
          "name": "tokenId",
          "type": "uint256"
        }
      ],
      "name": "getApproved",
      "outputs": [
        {
          "internalType": "address",
          "name": "",
          "type": "address"
        }
      ],
      "stateMutability": "view",
      "type": "function"
    },
    {
      "inputs": [
        {
          "internalType": "uint256",
          "name": "tokenId",
          "type": "uint256"
        }
      ],
      "name": "getSubAttributes",
      "outputs": [
        {
          "internalType": "bytes",
          "name": "",
          "type": "bytes"
        }
      ],
      "stateMutability": "view",
      "type": "function"
    },
    {
      "inputs": [
        {
          "internalType": "uint256",
          "name": "tokenId",
          "type": "uint256"
        }
      ],
      "name": "getSynthesizedTokens",
      "outputs": [
        {
          "components": [
            {
              "internalType": "address",
              "name": "token",
              "type": "address"
            },
            {
              "internalType": "address",
              "name": "owner",
              "type": "address"
            },
            {
              "internalType": "uint256",
              "name": "id",
              "type": "uint256"
            }
          ],
          "internalType": "struct ERC3664CrossSynthetic.SynthesizedToken[]",
          "name": "",
          "type": "tuple[]"
        }
      ],
      "stateMutability": "view",
      "type": "function"
    },
    {
      "inputs": [
        {
          "internalType": "address",
          "name": "owner",
          "type": "address"
        },
        {
          "internalType": "address",
          "name": "operator",
          "type": "address"
        }
      ],
      "name": "isApprovedForAll",
      "outputs": [
        {
          "internalType": "bool",
          "name": "",
          "type": "bool"
        }
      ],
      "stateMutability": "view",
      "type": "function"
    },
    {
      "inputs": [
        {
          "internalType": "uint256",
          "name": "attrId",
          "type": "uint256"
        }
      ],
      "name": "name",
      "outputs": [
        {
          "internalType": "string",
          "name": "",
          "type": "string"
        }
      ],
      "stateMutability": "view",
      "type": "function"
    },
    {
      "inputs": [],
      "name": "name",
      "outputs": [
        {
          "internalType": "string",
          "name": "",
          "type": "string"
        }
      ],
      "stateMutability": "view",
      "type": "function"
    },
    {
      "inputs": [],
      "name": "owner",
      "outputs": [
        {
          "internalType": "address",
          "name": "",
          "type": "address"
        }
      ],
      "stateMutability": "view",
      "type": "function"
    },
    {
      "inputs": [
        {
          "internalType": "uint256",
          "name": "tokenId",
          "type": "uint256"
        }
      ],
      "name": "ownerOf",
      "outputs": [
        {
          "internalType": "address",
          "name": "",
          "type": "address"
        }
      ],
      "stateMutability": "view",
      "type": "function"
    },
    {
      "inputs": [
        {
          "internalType": "uint256",
          "name": "tokenId",
          "type": "uint256"
        }
      ],
      "name": "primaryAttributeOf",
      "outputs": [
        {
          "internalType": "uint256",
          "name": "",
          "type": "uint256"
        }
      ],
      "stateMutability": "view",
      "type": "function"
    },
    {
      "inputs": [
        {
          "internalType": "uint256",
          "name": "",
          "type": "uint256"
        }
      ],
      "name": "primaryAttrs",
      "outputs": [
        {
          "internalType": "uint256",
          "name": "",
          "type": "uint256"
        }
      ],
      "stateMutability": "view",
      "type": "function"
    },
    {
      "inputs": [],
      "name": "renounceOwnership",
      "outputs": [],
      "stateMutability": "nonpayable",
      "type": "function"
    },
    {
      "inputs": [
        {
          "internalType": "address",
          "name": "from",
          "type": "address"
        },
        {
          "internalType": "address",
          "name": "to",
          "type": "address"
        },
        {
          "internalType": "uint256",
          "name": "tokenId",
          "type": "uint256"
        }
      ],
      "name": "safeTransferFrom",
      "outputs": [],
      "stateMutability": "nonpayable",
      "type": "function"
    },
    {
      "inputs": [
        {
          "internalType": "address",
          "name": "from",
          "type": "address"
        },
        {
          "internalType": "address",
          "name": "to",
          "type": "address"
        },
        {
          "internalType": "uint256",
          "name": "tokenId",
          "type": "uint256"
        },
        {
          "internalType": "bytes",
          "name": "_data",
          "type": "bytes"
        }
      ],
      "name": "safeTransferFrom",
      "outputs": [],
      "stateMutability": "nonpayable",
      "type": "function"
    },
    {
      "inputs": [
        {
          "internalType": "uint256",
          "name": "",
          "type": "uint256"
        },
        {
          "internalType": "uint256",
          "name": "",
          "type": "uint256"
        }
      ],
      "name": "secondaryAttrs",
      "outputs": [
        {
          "internalType": "uint256",
          "name": "",
          "type": "uint256"
        }
      ],
      "stateMutability": "view",
      "type": "function"
    },
    {
      "inputs": [
        {
          "internalType": "address",
          "name": "operator",
          "type": "address"
        },
        {
          "internalType": "bool",
          "name": "approved",
          "type": "bool"
        }
      ],
      "name": "setApprovalForAll",
      "outputs": [],
      "stateMutability": "nonpayable",
      "type": "function"
    },
    {
      "inputs": [
        {
          "internalType": "uint256",
          "name": "attrId",
          "type": "uint256"
        }
      ],
      "name": "symbol",
      "outputs": [
        {
          "internalType": "string",
          "name": "",
          "type": "string"
        }
      ],
      "stateMutability": "view",
      "type": "function"
    },
    {
      "inputs": [],
      "name": "symbol",
      "outputs": [
        {
          "internalType": "string",
          "name": "",
          "type": "string"
        }
      ],
      "stateMutability": "view",
      "type": "function"
    },
    {
      "inputs": [
        {
          "internalType": "uint256",
          "name": "",
          "type": "uint256"
        },
        {
          "internalType": "uint256",
          "name": "",
          "type": "uint256"
        }
      ],
      "name": "synthesizedTokens",
      "outputs": [
        {
          "internalType": "address",
          "name": "token",
          "type": "address"
        },
        {
          "internalType": "address",
          "name": "owner",
          "type": "address"
        },
        {
          "internalType": "uint256",
          "name": "id",
          "type": "uint256"
        }
      ],
      "stateMutability": "view",
      "type": "function"
    },
    {
      "inputs": [
        {
          "internalType": "uint256",
          "name": "tokenId",
          "type": "uint256"
        },
        {
          "internalType": "uint256",
          "name": "attrId",
          "type": "uint256"
        }
      ],
      "name": "textOf",
      "outputs": [
        {
          "internalType": "bytes",
          "name": "",
          "type": "bytes"
        }
      ],
      "stateMutability": "view",
      "type": "function"
    },
    {
      "inputs": [
        {
          "internalType": "uint256",
          "name": "tokenId",
          "type": "uint256"
        }
      ],
      "name": "tokenAttributes",
      "outputs": [
        {
          "internalType": "string",
          "name": "",
          "type": "string"
        }
      ],
      "stateMutability": "view",
      "type": "function"
    },
    {
      "inputs": [
        {
          "internalType": "uint256",
          "name": "index",
          "type": "uint256"
        }
      ],
      "name": "tokenByIndex",
      "outputs": [
        {
          "internalType": "uint256",
          "name": "",
          "type": "uint256"
        }
      ],
      "stateMutability": "view",
      "type": "function"
    },
    {
      "inputs": [
        {
          "internalType": "address",
          "name": "owner",
          "type": "address"
        },
        {
          "internalType": "uint256",
          "name": "index",
          "type": "uint256"
        }
      ],
      "name": "tokenOfOwnerByIndex",
      "outputs": [
        {
          "internalType": "uint256",
          "name": "",
          "type": "uint256"
        }
      ],
      "stateMutability": "view",
      "type": "function"
    },
    {
      "inputs": [],
      "name": "totalSupply",
      "outputs": [
        {
          "internalType": "uint256",
          "name": "",
          "type": "uint256"
        }
      ],
      "stateMutability": "view",
      "type": "function"
    },
    {
      "inputs": [
        {
          "internalType": "address",
          "name": "from",
          "type": "address"
        },
        {
          "internalType": "address",
          "name": "to",
          "type": "address"
        },
        {
          "internalType": "uint256",
          "name": "tokenId",
          "type": "uint256"
        }
      ],
      "name": "transferFrom",
      "outputs": [],
      "stateMutability": "nonpayable",
      "type": "function"
    },
    {
      "inputs": [
        {
          "internalType": "address",
          "name": "newOwner",
          "type": "address"
        }
      ],
      "name": "transferOwnership",
      "outputs": [],
      "stateMutability": "nonpayable",
      "type": "function"
    },
    {
      "inputs": [],
      "name": "treasury",
      "outputs": [
        {
          "internalType": "address payable",
          "name": "",
          "type": "address"
        }
      ],
      "stateMutability": "view",
      "type": "function"
    },
    {
      "inputs": [],
      "name": "getNextTokenID",
      "outputs": [
        {
          "internalType": "uint256",
          "name": "",
          "type": "uint256"
        }
      ],
      "stateMutability": "view",
      "type": "function"
    },
    {
      "inputs": [
        {
          "internalType": "uint256",
          "name": "supply",
          "type": "uint256"
        }
      ],
      "name": "increaseIssue",
      "outputs": [],
      "stateMutability": "nonpayable",
      "type": "function"
    },
    {
      "inputs": [
        {
          "internalType": "address",
          "name": "uri",
          "type": "address"
        }
      ],
      "name": "setCustomMetadata",
      "outputs": [],
      "stateMutability": "nonpayable",
      "type": "function"
    },
    {
      "inputs": [
        {
          "internalType": "address",
          "name": "registry",
          "type": "address"
        }
      ],
      "name": "setCoreRegistry",
      "outputs": [],
      "stateMutability": "nonpayable",
      "type": "function"
    },
    {
      "inputs": [
        {
          "internalType": "address",
          "name": "nft",
          "type": "address"
        },
        {
          "internalType": "bool",
          "name": "enable",
          "type": "bool"
        }
      ],
      "name": "setAuthNFTs",
      "outputs": [],
      "stateMutability": "nonpayable",
      "type": "function"
    },
    {
      "inputs": [
        {
          "internalType": "string",
          "name": "name",
          "type": "string"
        }
      ],
      "name": "claim",
      "outputs": [],
      "stateMutability": "payable",
      "type": "function"
    },
    {
      "inputs": [
        {
          "internalType": "uint256",
          "name": "tokenId",
          "type": "uint256"
        },
        {
          "internalType": "address",
          "name": "subToken",
          "type": "address"
        },
        {
          "internalType": "uint256",
          "name": "subId",
          "type": "uint256"
        }
      ],
      "name": "combine",
      "outputs": [],
      "stateMutability": "nonpayable",
      "type": "function"
    },
    {
      "inputs": [
        {
          "internalType": "uint256",
          "name": "tokenId",
          "type": "uint256"
        }
      ],
      "name": "separate",
      "outputs": [],
      "stateMutability": "nonpayable",
      "type": "function"
    },
    {
      "inputs": [
        {
          "internalType": "uint256",
          "name": "tokenId",
          "type": "uint256"
        },
        {
          "internalType": "uint256",
          "name": "subId",
          "type": "uint256"
        }
      ],
      "name": "separateOne",
      "outputs": [],
      "stateMutability": "nonpayable",
      "type": "function"
    },
    {
      "inputs": [
        {
          "internalType": "uint256",
          "name": "tokenId",
          "type": "uint256"
        }
      ],
      "name": "tokenURI",
      "outputs": [
        {
          "internalType": "string",
          "name": "",
          "type": "string"
        }
      ],
      "stateMutability": "view",
      "type": "function"
    },
    {
      "inputs": [
        {
          "internalType": "uint256",
          "name": "tokenId",
          "type": "uint256"
        }
      ],
      "name": "coreTokenURI",
      "outputs": [
        {
          "internalType": "string",
          "name": "",
          "type": "string"
        }
      ],
      "stateMutability": "view",
      "type": "function"
    },
    {
      "inputs": [
        {
          "internalType": "uint256",
          "name": "tokenId",
          "type": "uint256"
        }
      ],
      "name": "getAttributes",
      "outputs": [
        {
          "internalType": "string",
          "name": "",
          "type": "string"
        }
      ],
      "stateMutability": "view",
      "type": "function"
    },
    {
      "inputs": [
        {
          "internalType": "bytes4",
          "name": "interfaceId",
          "type": "bytes4"
        }
      ],
      "name": "supportsInterface",
      "outputs": [
        {
          "internalType": "bool",
          "name": "",
          "type": "bool"
        }
      ],
      "stateMutability": "view",
      "type": "function"
    }
  ],
  "bytecode": "0x60806040527399f120c4ba7d3621e26429cba45a6f52b23dfd1f601260006101000a81548173ffffffffffffffffffffffffffffffffffffffff021916908373ffffffffffffffffffffffffffffffffffffffff160217905550611f406013553480156200006c57600080fd5b506040518060400160405280600881526020017f4d657461636f72650000000000000000000000000000000000000000000000008152506040518060400160405280600381526020017f4d544300000000000000000000000000000000000000000000000000000000008152508160069080519060200190620000f1929190620004af565b5080600790805190602001906200010a929190620004af565b505050600160108190555062000135620001296200023560201b60201c565b6200023d60201b60201c565b6001601760007310949e6d7949c68e6f00b7d907131be78170bd3f73ffffffffffffffffffffffffffffffffffffffff1673ffffffffffffffffffffffffffffffffffffffff16815260200190815260200160002060006101000a81548160ff0219169083151502179055506200022f60016040518060400160405280600881526020017f4d6574616e616d650000000000000000000000000000000000000000000000008152506040518060400160405280600881526020017f4d6574616e616d65000000000000000000000000000000000000000000000000815250604051806020016040528060008152506200030360201b60201c565b62000744565b600033905090565b6000601160009054906101000a900473ffffffffffffffffffffffffffffffffffffffff16905081601160006101000a81548173ffffffffffffffffffffffffffffffffffffffff021916908373ffffffffffffffffffffffffffffffffffffffff1602179055508173ffffffffffffffffffffffffffffffffffffffff168173ffffffffffffffffffffffffffffffffffffffff167f8be0079c531659141344cd1fd0a4f28419497f9722a3daafe3b4186f6b6457e060405160405180910390a35050565b62000314846200048360201b60201c565b1562000357576040517f08c379a00000000000000000000000000000000000000000000000000000000081526004016200034e906200065a565b60405180910390fd5b6000620003696200023560201b60201c565b905060006040518060800160405280868152602001858152602001848152602001600115158152509050806000808881526020019081526020016000206000820151816000019080519060200190620003c4929190620004af565b506020820151816001019080519060200190620003e3929190620004af565b50604082015181600201908051906020019062000402929190620004af565b5060608201518160030160006101000a81548160ff021916908315150217905550905050858273ffffffffffffffffffffffffffffffffffffffff167f0f95c7b6e09a6cd1ff57e6238b940fa674ce6ce983d94900b6a8a6393929be3f878787604051620004739392919062000608565b60405180910390a3505050505050565b600080600083815260200190815260200160002060030160009054906101000a900460ff169050919050565b828054620004bd90620006ce565b90600052602060002090601f016020900481019282620004e157600085556200052d565b82601f10620004fc57805160ff19168380011785556200052d565b828001600101855582156200052d579182015b828111156200052c5782518255916020019190600101906200050f565b5b5090506200053c919062000540565b5090565b5b808211156200055b57600081600090555060010162000541565b5090565b60006200056c826200067c565b62000578818562000687565b93506200058a81856020860162000698565b620005958162000733565b840191505092915050565b6000620005af60218362000687565b91507f455243333636343a2061747472696275746520616c726561647920657869737460008301527f73000000000000000000000000000000000000000000000000000000000000006020830152604082019050919050565b600060608201905081810360008301526200062481866200055f565b905081810360208301526200063a81856200055f565b905081810360408301526200065081846200055f565b9050949350505050565b600060208201905081810360008301526200067581620005a0565b9050919050565b600081519050919050565b600082825260208201905092915050565b60005b83811015620006b85780820151818401526020810190506200069b565b83811115620006c8576000848401525b50505050565b60006002820490506001821680620006e757607f821691505b60208210811415620006fe57620006fd62000704565b5b50919050565b7f4e487b7100000000000000000000000000000000000000000000000000000000600052602260045260246000fd5b6000601f19601f8301169050919050565b61885880620007546000396000f3fe6080604052600436106102c85760003560e01c80635d1261101161017557806398e6d67a116100dc578063b88d4fde11610095578063ea6996331161006f578063ea69963314610c1e578063f2824b5314610c5b578063f2fde38b14610c98578063f3fe12c914610cc1576102c8565b8063b88d4fde14610b7b578063c87b56dd14610ba4578063e985e9c514610be1576102c8565b806398e6d67a14610a355780639a046ac514610a725780639bc5ae5414610aaf578063a22cb46514610aec578063a7f7894914610b15578063b888fd0e14610b3e576102c8565b8063877936231161012e57806387793623146108ff57806387e21d421461093c5780638da5cb5b146109795780638df5a792146109a4578063936ca9e6146109e157806395d89b4114610a0a576102c8565b80635d126110146107dd57806361d027b31461081a5780636352211e1461084557806370a0823114610882578063715018a6146108bf5780637307d4bc146108d6576102c8565b806326e1ce64116102345780634a198119116101ed5780635245110d116101c75780635245110d1461070e57806352b6f06f1461074e5780635883a020146107775780635c98dcd8146107a0576102c8565b80634a198119146106695780634e41a1fb146106945780634f6ccce7146106d1576102c8565b806326e1ce641461052357806327737071146105605780632f745c591461059d57806342842e0e146105da5780634378a6e31461060357806345e7437314610640576102c8565b80630ccaa34f116102865780630ccaa34f146104155780630e7f789414610454578063119724d71461047d57806313f11cfc146104a657806318160ddd146104cf57806323b872dd146104fa576102c8565b8062ad800c146102cd57806301ffc9a71461030a57806306fdde0314610347578063081812fc1461037257806309363c44146103af578063095ea7b3146103ec575b600080fd5b3480156102d957600080fd5b506102f460048036038101906102ef9190616136565b610cdd565b6040516103019190617c97565b60405180910390f35b34801561031657600080fd5b50610331600480360381019061032c9190616062565b610dcc565b60405161033e9190617be3565b60405180910390f35b34801561035357600080fd5b5061035c610dde565b6040516103699190617c97565b60405180910390f35b34801561037e57600080fd5b5061039960048036038101906103949190616136565b610e70565b6040516103a69190617abd565b60405180910390f35b3480156103bb57600080fd5b506103d660048036038101906103d19190616136565b610ef5565b6040516103e39190617bc1565b60405180910390f35b3480156103f857600080fd5b50610413600480360381019061040e9190615ffd565b610f60565b005b34801561042157600080fd5b5061043c600480360381019061043791906162bf565b611078565b60405161044b93929190617af3565b60405180910390f35b34801561046057600080fd5b5061047b600480360381019061047691906162bf565b6110ff565b005b34801561048957600080fd5b506104a4600480360381019061049f9190615e69565b6112a9565b005b3480156104b257600080fd5b506104cd60048036038101906104c89190615e69565b611369565b005b3480156104db57600080fd5b506104e4611429565b6040516104f19190618153565b60405180910390f35b34801561050657600080fd5b50610521600480360381019061051c9190615ef7565b611436565b005b34801561052f57600080fd5b5061054a60048036038101906105459190616136565b611496565b6040516105579190617b9f565b60405180910390f35b34801561056c57600080fd5b50610587600480360381019061058291906162bf565b6115be565b6040516105949190618153565b60405180910390f35b3480156105a957600080fd5b506105c460048036038101906105bf9190615ffd565b6115ef565b6040516105d19190618153565b60405180910390f35b3480156105e657600080fd5b5061060160048036038101906105fc9190615ef7565b611694565b005b34801561060f57600080fd5b5061062a60048036038101906106259190616136565b6116b4565b6040516106379190617c97565b60405180910390f35b34801561064c57600080fd5b5061066760048036038101906106629190616206565b6119d8565b005b34801561067557600080fd5b5061067e611e55565b60405161068b9190618153565b60405180910390f35b3480156106a057600080fd5b506106bb60048036038101906106b69190616136565b611e6b565b6040516106c89190617c97565b60405180910390f35b3480156106dd57600080fd5b506106f860048036038101906106f39190616136565b611f5a565b6040516107059190618153565b60405180910390f35b34801561071a57600080fd5b5061073560048036038101906107309190616136565b611ff1565b6040516107459493929190617cb9565b60405180910390f35b34801561075a57600080fd5b5061077560048036038101906107709190615fc1565b6121c6565b005b34801561078357600080fd5b5061079e6004803603810190610799919061615f565b61229d565b005b3480156107ac57600080fd5b506107c760048036038101906107c29190616136565b612782565b6040516107d49190617c97565b60405180910390f35b3480156107e957600080fd5b5061080460048036038101906107ff91906161ae565b612af6565b6040516108119190617bc1565b60405180910390f35b34801561082657600080fd5b5061082f612c27565b60405161083c9190617ad8565b60405180910390f35b34801561085157600080fd5b5061086c60048036038101906108679190616136565b612c4d565b6040516108799190617abd565b60405180910390f35b34801561088e57600080fd5b506108a960048036038101906108a49190615e69565b612cff565b6040516108b69190618153565b60405180910390f35b3480156108cb57600080fd5b506108d4612db7565b005b3480156108e257600080fd5b506108fd60048036038101906108f89190616136565b612e3f565b005b34801561090b57600080fd5b50610926600480360381019061092191906162bf565b6130c0565b6040516109339190618153565b60405180910390f35b34801561094857600080fd5b50610963600480360381019061095e9190616136565b6130e5565b6040516109709190618153565b60405180910390f35b34801561098557600080fd5b5061098e613102565b60405161099b9190617abd565b60405180910390f35b3480156109b057600080fd5b506109cb60048036038101906109c69190616136565b61312c565b6040516109d89190618153565b60405180910390f35b3480156109ed57600080fd5b50610a086004803603810190610a0391906162fb565b613144565b005b348015610a1657600080fd5b50610a1f61332d565b604051610a2c9190617c97565b60405180910390f35b348015610a4157600080fd5b50610a5c6004803603810190610a579190616136565b6133bf565b604051610a699190617bfe565b60405180910390f35b348015610a7e57600080fd5b50610a996004803603810190610a9491906162bf565b6134bc565b604051610aa69190617bfe565b60405180910390f35b348015610abb57600080fd5b50610ad66004803603810190610ad19190616136565b613573565b604051610ae39190617c97565b60405180910390f35b348015610af857600080fd5b50610b136004803603810190610b0e9190615fc1565b6136fa565b005b348015610b2157600080fd5b50610b3c6004803603810190610b379190616136565b61387b565b005b348015610b4a57600080fd5b50610b656004803603810190610b6091906162bf565b613901565b604051610b729190617bfe565b60405180910390f35b348015610b8757600080fd5b50610ba26004803603810190610b9d9190615f46565b6139ae565b005b348015610bb057600080fd5b50610bcb6004803603810190610bc69190616136565b613a10565b604051610bd89190617c97565b60405180910390f35b348015610bed57600080fd5b50610c086004803603810190610c039190615ebb565b613b30565b604051610c159190617be3565b60405180910390f35b348015610c2a57600080fd5b50610c456004803603810190610c4091906162bf565b613bc4565b604051610c529190618153565b60405180910390f35b348015610c6757600080fd5b50610c826004803603810190610c7d9190616136565b613bf3565b604051610c8f9190617c97565b60405180910390f35b348015610ca457600080fd5b50610cbf6004803603810190610cba9190615e69565b613d9d565b005b610cdb6004803603810190610cd691906160b4565b613e95565b005b6060610ce88261403f565b610d27576040517f08c379a0000000000000000000000000000000000000000000000000000000008152600401610d1e90618113565b60405180910390fd5b6000808381526020019081526020016000206000018054610d4790618510565b80601f0160208091040260200160405190810160405280929190818152602001828054610d7390618510565b8015610dc05780601f10610d9557610100808354040283529160200191610dc0565b820191906000526020600020905b815481529060010190602001808311610da357829003601f168201915b50505050509050919050565b6000610dd78261406b565b9050919050565b606060068054610ded90618510565b80601f0160208091040260200160405190810160405280929190818152602001828054610e1990618510565b8015610e665780601f10610e3b57610100808354040283529160200191610e66565b820191906000526020600020905b815481529060010190602001808311610e4957829003601f168201915b5050505050905090565b6000610e7b826140e5565b610eba576040517f08c379a0000000000000000000000000000000000000000000000000000000008152600401610eb190617f93565b60405180910390fd5b600a600083815260200190815260200160002060009054906101000a900473ffffffffffffffffffffffffffffffffffffffff169050919050565b606060046000838152602001908152602001600020805480602002602001604051908101604052809291908181526020018280548015610f5457602002820191906000526020600020905b815481526020019060010190808311610f40575b50505050509050919050565b6000610f6b82612c4d565b90508073ffffffffffffffffffffffffffffffffffffffff168373ffffffffffffffffffffffffffffffffffffffff161415610fdc576040517f08c379a0000000000000000000000000000000000000000000000000000000008152600401610fd390618033565b60405180910390fd5b8073ffffffffffffffffffffffffffffffffffffffff16610ffb614151565b73ffffffffffffffffffffffffffffffffffffffff16148061102a575061102981611024614151565b613b30565b5b611069576040517f08c379a000000000000000000000000000000000000000000000000000000000815260040161106090617ef3565b60405180910390fd5b6110738383614159565b505050565b6005602052816000526040600020818154811061109457600080fd5b9060005260206000209060030201600091509150508060000160009054906101000a900473ffffffffffffffffffffffffffffffffffffffff16908060010160009054906101000a900473ffffffffffffffffffffffffffffffffffffffff16908060020154905083565b61111061110a614151565b83614212565b61114f576040517f08c379a000000000000000000000000000000000000000000000000000000000815260040161114690618073565b60405180910390fd5b600061116d60056000858152602001908152602001600020836142f0565b905060006005600085815260200190815260200160002082815481106111bc577f4e487b7100000000000000000000000000000000000000000000000000000000600052603260045260246000fd5b906000526020600020906003020190508060000160009054906101000a900473ffffffffffffffffffffffffffffffffffffffff1673ffffffffffffffffffffffffffffffffffffffff166323b872dd308360010160009054906101000a900473ffffffffffffffffffffffffffffffffffffffff1684600201546040518463ffffffff1660e01b815260040161125593929190617af3565b600060405180830381600087803b15801561126f57600080fd5b505af1158015611283573d6000803e3d6000fd5b505050506112a36005600086815260200190815260200160002083614366565b50505050565b6112b1614151565b73ffffffffffffffffffffffffffffffffffffffff166112cf613102565b73ffffffffffffffffffffffffffffffffffffffff1614611325576040517f08c379a000000000000000000000000000000000000000000000000000000000815260040161131c90617fb3565b60405180910390fd5b80601560006101000a81548173ffffffffffffffffffffffffffffffffffffffff021916908373ffffffffffffffffffffffffffffffffffffffff16021790555050565b611371614151565b73ffffffffffffffffffffffffffffffffffffffff1661138f613102565b73ffffffffffffffffffffffffffffffffffffffff16146113e5576040517f08c379a00000000000000000000000000000000000000000000000000000000081526004016113dc90617fb3565b60405180910390fd5b80601660006101000a81548173ffffffffffffffffffffffffffffffffffffffff021916908373ffffffffffffffffffffffffffffffffffffffff16021790555050565b6000600e80549050905090565b611447611441614151565b82614212565b611486576040517f08c379a000000000000000000000000000000000000000000000000000000000815260040161147d90618093565b60405180910390fd5b61149183838361468b565b505050565b606060056000838152602001908152602001600020805480602002602001604051908101604052809291908181526020016000905b828210156115b357838290600052602060002090600302016040518060600160405290816000820160009054906101000a900473ffffffffffffffffffffffffffffffffffffffff1673ffffffffffffffffffffffffffffffffffffffff1673ffffffffffffffffffffffffffffffffffffffff1681526020016001820160009054906101000a900473ffffffffffffffffffffffffffffffffffffffff1673ffffffffffffffffffffffffffffffffffffffff1673ffffffffffffffffffffffffffffffffffffffff168152602001600282015481525050815260200190600101906114cb565b505050509050919050565b600460205281600052604060002081815481106115da57600080fd5b90600052602060002001600091509150505481565b60006115fa83612cff565b821061163b576040517f08c379a000000000000000000000000000000000000000000000000000000000815260040161163290617d73565b60405180910390fd5b600c60008473ffffffffffffffffffffffffffffffffffffffff1673ffffffffffffffffffffffffffffffffffffffff168152602001908152602001600020600083815260200190815260200160002054905092915050565b6116af838383604051806020016040528060008152506139ae565b505050565b6060600060405180602001604052806000815250905060006116d5846130e5565b90506000811115611716576116e981611e6b565b6116f385836134bc565b6040516020016117049291906179cf565b60405160208183030381529060405291505b600061172185610ef5565b905060005b81518110156118265760008451111561175c578360405160200161174a919061784b565b60405160208183030381529060405293505b836117a6838381518110611799577f4e487b7100000000000000000000000000000000000000000000000000000000600052603260045260246000fd5b6020026020010151611e6b565b6117f0888585815181106117e3577f4e487b7100000000000000000000000000000000000000000000000000000000600052603260045260246000fd5b60200260200101516134bc565b6040516020016118029392919061789c565b6040516020818303038152906040529350808061181e90618542565b915050611726565b50600060056000878152602001908152602001600020905060005b81805490508110156119cb578461199683838154811061188a577f4e487b7100000000000000000000000000000000000000000000000000000000600052603260045260246000fd5b906000526020600020906003020160000160009054906101000a900473ffffffffffffffffffffffffffffffffffffffff1673ffffffffffffffffffffffffffffffffffffffff16631e1459ba6040518163ffffffff1660e01b815260040160006040518083038186803b15801561190157600080fd5b505afa158015611915573d6000803e3d6000fd5b505050506040513d6000823e3d601f19601f8201168201806040525081019061193e91906160f5565b61199185858154811061197a577f4e487b7100000000000000000000000000000000000000000000000000000000600052603260045260246000fd5b9060005260206000209060030201600201546148e7565b614a94565b6040516020016119a792919061786d565b604051602081830303815290604052945080806119c390618542565b915050611841565b5083945050505050919050565b60006119e2614151565b9050611a848160008a8a8a80806020026020016040519081016040528093929190818152602001838360200280828437600081840152601f19601f82011690508083019250505050505050898980806020026020016040519081016040528093929190818152602001838360200280828437600081840152601f19601f8201169050808301925050505050505060405180602001604052806000815250614ac0565b60005b87879050811015611ddd57611ada888883818110611ace577f4e487b7100000000000000000000000000000000000000000000000000000000600052603260045260246000fd5b9050602002013561403f565b611b19576040517f08c379a0000000000000000000000000000000000000000000000000000000008152600401611b1090617e53565b60405180910390fd5b6000600160008a8a85818110611b58577f4e487b7100000000000000000000000000000000000000000000000000000000600052603260045260246000fd5b90506020020135815260200190815260200160002060008b8152602001908152602001600020541415611bff57600460008a8152602001908152602001600020888883818110611bd1577f4e487b7100000000000000000000000000000000000000000000000000000000600052603260045260246000fd5b9050602002013590806001815401808255809150506001900390600052602060002001600090919091909150555b6000848483818110611c3a577f4e487b7100000000000000000000000000000000000000000000000000000000600052603260045260246000fd5b9050602002810190611c4c919061816e565b90501115611d1157838382818110611c8d577f4e487b7100000000000000000000000000000000000000000000000000000000600052603260045260246000fd5b9050602002810190611c9f919061816e565b600260008b8b86818110611cdc577f4e487b7100000000000000000000000000000000000000000000000000000000600052603260045260246000fd5b90506020020135815260200190815260200160002060008c81526020019081526020016000209190611d0f929190615a29565b505b858582818110611d4a577f4e487b7100000000000000000000000000000000000000000000000000000000600052603260045260246000fd5b90506020020135600160008a8a85818110611d8e577f4e487b7100000000000000000000000000000000000000000000000000000000600052603260045260246000fd5b90506020020135815260200190815260200160002060008b81526020019081526020016000206000828254611dc39190618321565b925050819055508080611dd590618542565b915050611a87565b508686604051611dee9291906177ea565b60405180910390208173ffffffffffffffffffffffffffffffffffffffff167fbfb4d8e5891aebe97980c97616b6b0af2006a58ccabe6e1b7e3da24d0906a85660008b8989604051611e439493929190617c20565b60405180910390a35050505050505050565b60006001601454611e669190618321565b905090565b6060611e768261403f565b611eb5576040517f08c379a0000000000000000000000000000000000000000000000000000000008152600401611eac90617e93565b60405180910390fd5b6000808381526020019081526020016000206001018054611ed590618510565b80601f0160208091040260200160405190810160405280929190818152602001828054611f0190618510565b8015611f4e5780601f10611f2357610100808354040283529160200191611f4e565b820191906000526020600020905b815481529060010190602001808311611f3157829003601f168201915b50505050509050919050565b6000611f64611429565b8210611fa5576040517f08c379a0000000000000000000000000000000000000000000000000000000008152600401611f9c906180b3565b60405180910390fd5b600e8281548110611fdf577f4e487b7100000000000000000000000000000000000000000000000000000000600052603260045260246000fd5b90600052602060002001549050919050565b600060205280600052604060002060009150905080600001805461201490618510565b80601f016020809104026020016040519081016040528092919081815260200182805461204090618510565b801561208d5780601f106120625761010080835404028352916020019161208d565b820191906000526020600020905b81548152906001019060200180831161207057829003601f168201915b5050505050908060010180546120a290618510565b80601f01602080910402602001604051908101604052809291908181526020018280546120ce90618510565b801561211b5780601f106120f05761010080835404028352916020019161211b565b820191906000526020600020905b8154815290600101906020018083116120fe57829003601f168201915b50505050509080600201805461213090618510565b80601f016020809104026020016040519081016040528092919081815260200182805461215c90618510565b80156121a95780601f1061217e576101008083540402835291602001916121a9565b820191906000526020600020905b81548152906001019060200180831161218c57829003601f168201915b5050505050908060030160009054906101000a900460ff16905084565b6121ce614151565b73ffffffffffffffffffffffffffffffffffffffff166121ec613102565b73ffffffffffffffffffffffffffffffffffffffff1614612242576040517f08c379a000000000000000000000000000000000000000000000000000000000815260040161223990617fb3565b60405180910390fd5b80601760008473ffffffffffffffffffffffffffffffffffffffff1673ffffffffffffffffffffffffffffffffffffffff16815260200190815260200160002060006101000a81548160ff0219169083151502179055505050565b6122a5614151565b73ffffffffffffffffffffffffffffffffffffffff166122c484612c4d565b73ffffffffffffffffffffffffffffffffffffffff161461231a576040517f08c379a000000000000000000000000000000000000000000000000000000000815260040161231190617d53565b60405180910390fd5b600073ffffffffffffffffffffffffffffffffffffffff16601660009054906101000a900473ffffffffffffffffffffffffffffffffffffffff1673ffffffffffffffffffffffffffffffffffffffff161461246157601660009054906101000a900473ffffffffffffffffffffffffffffffffffffffff1673ffffffffffffffffffffffffffffffffffffffff1663aef7412f83836040518363ffffffff1660e01b81526004016123cd929190617b76565b60206040518083038186803b1580156123e557600080fd5b505afa1580156123f9573d6000803e3d6000fd5b505050506040513d601f19601f8201168201806040525081019061241d9190616039565b61245c576040517f08c379a000000000000000000000000000000000000000000000000000000000815260040161245390618053565b60405180910390fd5b6124ee565b601760008373ffffffffffffffffffffffffffffffffffffffff1673ffffffffffffffffffffffffffffffffffffffff16815260200190815260200160002060009054906101000a900460ff166124ed576040517f08c379a00000000000000000000000000000000000000000000000000000000081526004016124e490617df3565b60405180910390fd5b5b60008290503073ffffffffffffffffffffffffffffffffffffffff168173ffffffffffffffffffffffffffffffffffffffff1663081812fc846040518263ffffffff1660e01b81526004016125439190618153565b60206040518083038186803b15801561255b57600080fd5b505afa15801561256f573d6000803e3d6000fd5b505050506040513d601f19601f820116820180604052508101906125939190615e92565b73ffffffffffffffffffffffffffffffffffffffff16146125e9576040517f08c379a00000000000000000000000000000000000000000000000000000000081526004016125e0906180f3565b60405180910390fd5b8073ffffffffffffffffffffffffffffffffffffffff166323b872dd61260d614151565b30856040518463ffffffff1660e01b815260040161262d93929190617af3565b600060405180830381600087803b15801561264757600080fd5b505af115801561265b573d6000803e3d6000fd5b505050506005600085815260200190815260200160002060405180606001604052808573ffffffffffffffffffffffffffffffffffffffff1681526020013373ffffffffffffffffffffffffffffffffffffffff16815260200184815250908060018154018082558091505060019003906000526020600020906003020160009091909190915060008201518160000160006101000a81548173ffffffffffffffffffffffffffffffffffffffff021916908373ffffffffffffffffffffffffffffffffffffffff16021790555060208201518160010160006101000a81548173ffffffffffffffffffffffffffffffffffffffff021916908373ffffffffffffffffffffffffffffffffffffffff16021790555060408201518160020155505050505050565b606061278c615aaf565b60405180610120016040528060fd81526020016186e660fd9139816000600481106127e0577f4e487b7100000000000000000000000000000000000000000000000000000000600052603260045260246000fd5b60200201819052506127f1836148e7565b6040516020016128019190617a59565b6040516020818303038152906040528160016004811061284a577f4e487b7100000000000000000000000000000000000000000000000000000000600052603260045260246000fd5b602002018190525061285d8360016134bc565b81600260048110612897577f4e487b7100000000000000000000000000000000000000000000000000000000600052603260045260246000fd5b60200201819052506040518060400160405280600d81526020017f3c2f746578743e3c2f7376673e000000000000000000000000000000000000008152508160036004811061290f577f4e487b7100000000000000000000000000000000000000000000000000000000600052603260045260246000fd5b6020020181905250600081600060048110612953577f4e487b7100000000000000000000000000000000000000000000000000000000600052603260045260246000fd5b602002015182600160048110612992577f4e487b7100000000000000000000000000000000000000000000000000000000600052603260045260246000fd5b6020020151836002600481106129d1577f4e487b7100000000000000000000000000000000000000000000000000000000600052603260045260246000fd5b602002015184600360048110612a10577f4e487b7100000000000000000000000000000000000000000000000000000000600052603260045260246000fd5b6020020151604051602001612a289493929190617912565b60405160208183030381529060405290506000612a44856116b4565b9050600060056000878152602001908152602001600020805490501115612a885780604051602001612a769190617950565b60405160208183030381529060405290505b6000612ac6612a96876148e7565b612a9f85614ac8565b84604051602001612ab293929190617972565b604051602081830303815290604052614ac8565b905080604051602001612ad99190617a86565b604051602081830303815290604052925082945050505050919050565b606060008383905067ffffffffffffffff811115612b3d577f4e487b7100000000000000000000000000000000000000000000000000000000600052604160045260246000fd5b604051908082528060200260200182016040528015612b6b5781602001602082028036833780820191505090505b50905060005b84849050811015612c1b57612bc586868684818110612bb9577f4e487b7100000000000000000000000000000000000000000000000000000000600052603260045260246000fd5b90506020020135613bc4565b828281518110612bfe577f4e487b7100000000000000000000000000000000000000000000000000000000600052603260045260246000fd5b60200260200101818152505080612c1490618542565b9050612b71565b50809150509392505050565b601260009054906101000a900473ffffffffffffffffffffffffffffffffffffffff1681565b6000806008600084815260200190815260200160002060009054906101000a900473ffffffffffffffffffffffffffffffffffffffff169050600073ffffffffffffffffffffffffffffffffffffffff168173ffffffffffffffffffffffffffffffffffffffff161415612cf6576040517f08c379a0000000000000000000000000000000000000000000000000000000008152600401612ced90617f53565b60405180910390fd5b80915050919050565b60008073ffffffffffffffffffffffffffffffffffffffff168273ffffffffffffffffffffffffffffffffffffffff161415612d70576040517f08c379a0000000000000000000000000000000000000000000000000000000008152600401612d6790617f33565b60405180910390fd5b600960008373ffffffffffffffffffffffffffffffffffffffff1673ffffffffffffffffffffffffffffffffffffffff168152602001908152602001600020549050919050565b612dbf614151565b73ffffffffffffffffffffffffffffffffffffffff16612ddd613102565b73ffffffffffffffffffffffffffffffffffffffff1614612e33576040517f08c379a0000000000000000000000000000000000000000000000000000000008152600401612e2a90617fb3565b60405180910390fd5b612e3d6000614c86565b565b612e50612e4a614151565b82614212565b612e8f576040517f08c379a0000000000000000000000000000000000000000000000000000000008152600401612e8690618073565b60405180910390fd5b60006005600083815260200190815260200160002090506000818054905011612eed576040517f08c379a0000000000000000000000000000000000000000000000000000000008152600401612ee490617d13565b60405180910390fd5b60005b818054905081101561309c57818181548110612f35577f4e487b7100000000000000000000000000000000000000000000000000000000600052603260045260246000fd5b906000526020600020906003020160000160009054906101000a900473ffffffffffffffffffffffffffffffffffffffff1673ffffffffffffffffffffffffffffffffffffffff166323b872dd30848481548110612fbc577f4e487b7100000000000000000000000000000000000000000000000000000000600052603260045260246000fd5b906000526020600020906003020160010160009054906101000a900473ffffffffffffffffffffffffffffffffffffffff16858581548110613027577f4e487b7100000000000000000000000000000000000000000000000000000000600052603260045260246000fd5b9060005260206000209060030201600201546040518463ffffffff1660e01b815260040161305793929190617af3565b600060405180830381600087803b15801561307157600080fd5b505af1158015613085573d6000803e3d6000fd5b50505050808061309490618542565b915050612ef0565b506005600083815260200190815260200160002060006130bc9190615ad6565b5050565b6001602052816000526040600020602052806000526040600020600091509150505481565b600060036000838152602001908152602001600020549050919050565b6000601160009054906101000a900473ffffffffffffffffffffffffffffffffffffffff16905090565b60036020528060005260406000206000915090505481565b61314d8461403f565b61318c576040517f08c379a000000000000000000000000000000000000000000000000000000000815260040161318390617fd3565b60405180910390fd5b6000613196614151565b90506131c6816000886131a889614d4c565b6131b189614d4c565b60405180602001604052806000815250614ac0565b600060016000878152602001908152602001600020600088815260200190815260200160002054141561325257811561321657846003600088815260200190815260200160002081905550613251565b600460008781526020019081526020016000208590806001815401808255809150506001900390600052602060002001600090919091909150555b5b60008351111561329657826002600087815260200190815260200160002060008881526020019081526020016000209080519060200190613294929190615afa565b505b8360016000878152602001908152602001600020600088815260200190815260200160002060008282546132ca9190618321565b92505081905550848173ffffffffffffffffffffffffffffffffffffffff167f73b5fbfbf0177b0de2ffe9fd0ae9887dd73d0d865db7ab5ff3c4a6b9bb8db1e36000898860405161331d93929190617c60565b60405180910390a3505050505050565b60606007805461333c90618510565b80601f016020809104026020016040519081016040528092919081815260200182805461336890618510565b80156133b55780601f1061338a576101008083540402835291602001916133b5565b820191906000526020600020905b81548152906001019060200180831161339857829003601f168201915b5050505050905090565b60606000604051806020016040528060008152509050600060056000858152602001908152602001600020905060005b81805490508110156134b1576000835111156134285782604051602001613416919061784b565b60405160208183030381529060405292505b8261347c838381548110613465577f4e487b7100000000000000000000000000000000000000000000000000000000600052603260045260246000fd5b906000526020600020906003020160020154613bf3565b60405160200161348d929190617827565b604051602081830303815290604052925080806134a990618542565b9150506133ef565b508192505050919050565b606060026000838152602001908152602001600020600084815260200190815260200160002080546134ed90618510565b80601f016020809104026020016040519081016040528092919081815260200182805461351990618510565b80156135665780601f1061353b57610100808354040283529160200191613566565b820191906000526020600020905b81548152906001019060200180831161354957829003601f168201915b5050505050905092915050565b606061357e8261403f565b6135bd576040517f08c379a00000000000000000000000000000000000000000000000000000000081526004016135b490617f13565b60405180910390fd5b600080600084815260200190815260200160002060020180546135df90618510565b80601f016020809104026020016040519081016040528092919081815260200182805461360b90618510565b80156136585780601f1061362d57610100808354040283529160200191613658565b820191906000526020600020905b81548152906001019060200180831161363b57829003601f168201915b5050505050905060008151111561369b5780613673846148e7565b6040516020016136849291906178ee565b6040516020818303038152906040529150506136f5565b60006136a5614e12565b905060008151116136c557604051806020016040528060008152506136f0565b806136cf856148e7565b6040516020016136e09291906178ee565b6040516020818303038152906040525b925050505b919050565b613702614151565b73ffffffffffffffffffffffffffffffffffffffff168273ffffffffffffffffffffffffffffffffffffffff161415613770576040517f08c379a000000000000000000000000000000000000000000000000000000000815260040161376790617e33565b60405180910390fd5b80600b600061377d614151565b73ffffffffffffffffffffffffffffffffffffffff1673ffffffffffffffffffffffffffffffffffffffff16815260200190815260200160002060008473ffffffffffffffffffffffffffffffffffffffff1673ffffffffffffffffffffffffffffffffffffffff16815260200190815260200160002060006101000a81548160ff0219169083151502179055508173ffffffffffffffffffffffffffffffffffffffff1661382a614151565b73ffffffffffffffffffffffffffffffffffffffff167f17307eab39ab6107e8899845ad3d59bd9653f200f220920489ca2b5937696c318360405161386f9190617be3565b60405180910390a35050565b613883614151565b73ffffffffffffffffffffffffffffffffffffffff166138a1613102565b73ffffffffffffffffffffffffffffffffffffffff16146138f7576040517f08c379a00000000000000000000000000000000000000000000000000000000081526004016138ee90617fb3565b60405180910390fd5b8060138190555050565b600260205281600052604060002060205280600052604060002060009150915050805461392d90618510565b80601f016020809104026020016040519081016040528092919081815260200182805461395990618510565b80156139a65780601f1061397b576101008083540402835291602001916139a6565b820191906000526020600020905b81548152906001019060200180831161398957829003601f168201915b505050505081565b6139bf6139b9614151565b83614212565b6139fe576040517f08c379a00000000000000000000000000000000000000000000000000000000081526004016139f590618093565b60405180910390fd5b613a0a84848484614e29565b50505050565b6060600073ffffffffffffffffffffffffffffffffffffffff16601560009054906101000a900473ffffffffffffffffffffffffffffffffffffffff1673ffffffffffffffffffffffffffffffffffffffff1614613b1f57601560009054906101000a900473ffffffffffffffffffffffffffffffffffffffff1673ffffffffffffffffffffffffffffffffffffffff1663c87b56dd836040518263ffffffff1660e01b8152600401613ac39190618153565b60006040518083038186803b158015613adb57600080fd5b505afa158015613aef573d6000803e3d6000fd5b505050506040513d6000823e3d601f19601f82011682018060405250810190613b1891906160f5565b9050613b2b565b613b2882612782565b90505b919050565b6000600b60008473ffffffffffffffffffffffffffffffffffffffff1673ffffffffffffffffffffffffffffffffffffffff16815260200190815260200160002060008373ffffffffffffffffffffffffffffffffffffffff1673ffffffffffffffffffffffffffffffffffffffff16815260200190815260200160002060009054906101000a900460ff16905092915050565b600060016000838152602001908152602001600020600084815260200190815260200160002054905092915050565b606060006040518060200160405280600081525090506000613c14846130e5565b90506000811115613c5557613c2881611e6b565b613c3285836134bc565b604051602001613c439291906179cf565b60405160208183030381529060405291505b6000613c6085610ef5565b905060005b8151811015613d6557600084511115613c9b5783604051602001613c89919061784b565b60405160208183030381529060405293505b83613ce5838381518110613cd8577f4e487b7100000000000000000000000000000000000000000000000000000000600052603260045260246000fd5b6020026020010151611e6b565b613d2f88858581518110613d22577f4e487b7100000000000000000000000000000000000000000000000000000000600052603260045260246000fd5b60200260200101516134bc565b604051602001613d419392919061789c565b60405160208183030381529060405293508080613d5d90618542565b915050613c65565b5082613d70866133bf565b604051602001613d81929190617803565b6040516020818303038152906040529250829350505050919050565b613da5614151565b73ffffffffffffffffffffffffffffffffffffffff16613dc3613102565b73ffffffffffffffffffffffffffffffffffffffff1614613e19576040517f08c379a0000000000000000000000000000000000000000000000000000000008152600401613e1090617fb3565b60405180910390fd5b600073ffffffffffffffffffffffffffffffffffffffff168173ffffffffffffffffffffffffffffffffffffffff161415613e89576040517f08c379a0000000000000000000000000000000000000000000000000000000008152600401613e8090617db3565b60405180910390fd5b613e9281614c86565b50565b60026010541415613edb576040517f08c379a0000000000000000000000000000000000000000000000000000000008152600401613ed290618133565b60405180910390fd5b60026010819055506000815111613f27576040517f08c379a0000000000000000000000000000000000000000000000000000000008152600401613f1e906180d3565b60405180910390fd5b601354613f32611e55565b1115613f73576040517f08c379a0000000000000000000000000000000000000000000000000000000008152600401613f6a90618013565b60405180910390fd5b6000349050668e1bc9bf040000811015613fc2576040517f08c379a0000000000000000000000000000000000000000000000000000000008152600401613fb990617d33565b60405180910390fd5b613ff5601260009054906101000a900473ffffffffffffffffffffffffffffffffffffffff16668e1bc9bf040000614e85565b6001601460008282546140089190618321565b9250508190555061402261401a614151565b601454614f79565b614033601454600180856001613144565b50600160108190555050565b600080600083815260200190815260200160002060030160009054906101000a900460ff169050919050565b60007f780e9d63000000000000000000000000000000000000000000000000000000007bffffffffffffffffffffffffffffffffffffffffffffffffffffffff1916827bffffffffffffffffffffffffffffffffffffffffffffffffffffffff191614806140de57506140dd82614f97565b5b9050919050565b60008073ffffffffffffffffffffffffffffffffffffffff166008600084815260200190815260200160002060009054906101000a900473ffffffffffffffffffffffffffffffffffffffff1673ffffffffffffffffffffffffffffffffffffffff1614159050919050565b600033905090565b81600a600083815260200190815260200160002060006101000a81548173ffffffffffffffffffffffffffffffffffffffff021916908373ffffffffffffffffffffffffffffffffffffffff160217905550808273ffffffffffffffffffffffffffffffffffffffff166141cc83612c4d565b73ffffffffffffffffffffffffffffffffffffffff167f8c5be1e5ebec7d5bd14f71427d1e84f3dd0314c0f7b2291e5b200ac8c7c3b92560405160405180910390a45050565b600061421d826140e5565b61425c576040517f08c379a000000000000000000000000000000000000000000000000000000000815260040161425390617ed3565b60405180910390fd5b600061426783612c4d565b90508073ffffffffffffffffffffffffffffffffffffffff168473ffffffffffffffffffffffffffffffffffffffff1614806142d657508373ffffffffffffffffffffffffffffffffffffffff166142be84610e70565b73ffffffffffffffffffffffffffffffffffffffff16145b806142e757506142e68185613b30565b5b91505092915050565b600080600090505b82848281548110614332577f4e487b7100000000000000000000000000000000000000000000000000000000600052603260045260246000fd5b9060005260206000209060030201600201541461435c57808061435490618542565b9150506142f8565b8091505092915050565b60008280549050905080821061437c5750614687565b6001816143899190618402565b82141561443c57828054806143c7577f4e487b7100000000000000000000000000000000000000000000000000000000600052603160045260246000fd5b6001900381819060005260206000209060030201600080820160006101000a81549073ffffffffffffffffffffffffffffffffffffffff02191690556001820160006101000a81549073ffffffffffffffffffffffffffffffffffffffff021916905560028201600090555050905550614687565b60008290505b60018261444f9190618402565b8110156145de57836001826144649190618321565b8154811061449b577f4e487b7100000000000000000000000000000000000000000000000000000000600052603260045260246000fd5b90600052602060002090600302018482815481106144e2577f4e487b7100000000000000000000000000000000000000000000000000000000600052603260045260246000fd5b90600052602060002090600302016000820160009054906101000a900473ffffffffffffffffffffffffffffffffffffffff168160000160006101000a81548173ffffffffffffffffffffffffffffffffffffffff021916908373ffffffffffffffffffffffffffffffffffffffff1602179055506001820160009054906101000a900473ffffffffffffffffffffffffffffffffffffffff168160010160006101000a81548173ffffffffffffffffffffffffffffffffffffffff021916908373ffffffffffffffffffffffffffffffffffffffff1602179055506002820154816002015590505080806145d690618542565b915050614442565b5082805480614616577f4e487b7100000000000000000000000000000000000000000000000000000000600052603160045260246000fd5b6001900381819060005260206000209060030201600080820160006101000a81549073ffffffffffffffffffffffffffffffffffffffff02191690556001820160006101000a81549073ffffffffffffffffffffffffffffffffffffffff0219169055600282016000905550509055505b5050565b8273ffffffffffffffffffffffffffffffffffffffff166146ab82612c4d565b73ffffffffffffffffffffffffffffffffffffffff1614614701576040517f08c379a00000000000000000000000000000000000000000000000000000000081526004016146f890617ff3565b60405180910390fd5b600073ffffffffffffffffffffffffffffffffffffffff168273ffffffffffffffffffffffffffffffffffffffff161415614771576040517f08c379a000000000000000000000000000000000000000000000000000000000815260040161476890617e13565b60405180910390fd5b61477c838383615079565b614787600082614159565b6001600960008573ffffffffffffffffffffffffffffffffffffffff1673ffffffffffffffffffffffffffffffffffffffff16815260200190815260200160002060008282546147d79190618402565b925050819055506001600960008473ffffffffffffffffffffffffffffffffffffffff1673ffffffffffffffffffffffffffffffffffffffff168152602001908152602001600020600082825461482e9190618321565b92505081905550816008600083815260200190815260200160002060006101000a81548173ffffffffffffffffffffffffffffffffffffffff021916908373ffffffffffffffffffffffffffffffffffffffff160217905550808273ffffffffffffffffffffffffffffffffffffffff168473ffffffffffffffffffffffffffffffffffffffff167fddf252ad1be2c89b69c2b068fc378daa952ba7f163c4a11628f55a4df523b3ef60405160405180910390a4505050565b6060600082141561492f576040518060400160405280600181526020017f30000000000000000000000000000000000000000000000000000000000000008152509050614a8f565b600082905060005b6000821461496157808061494a90618542565b915050600a8261495a9190618377565b9150614937565b60008167ffffffffffffffff8111156149a3577f4e487b7100000000000000000000000000000000000000000000000000000000600052604160045260246000fd5b6040519080825280601f01601f1916602001820160405280156149d55781602001600182028036833780820191505090505b5090505b60008514614a88576001826149ee9190618402565b9150600a856149fd919061858b565b6030614a099190618321565b60f81b818381518110614a45577f4e487b7100000000000000000000000000000000000000000000000000000000600052603260045260246000fd5b60200101907effffffffffffffffffffffffffffffffffffffffffffffffffffffffffffff1916908160001a905350600a85614a819190618377565b94506149d9565b8093505050505b919050565b60608282604051602001614aa9929190617a14565b604051602081830303815290604052905092915050565b505050505050565b60606000825190506000811415614af15760405180602001604052806000815250915050614c81565b60006003600283614b029190618321565b614b0c9190618377565b6004614b1891906183a8565b90506000602082614b299190618321565b67ffffffffffffffff811115614b68577f4e487b7100000000000000000000000000000000000000000000000000000000600052604160045260246000fd5b6040519080825280601f01601f191660200182016040528015614b9a5781602001600182028036833780820191505090505b50905060006040518060600160405280604081526020016187e3604091399050600181016020830160005b86811015614c3e5760038101905062ffffff818a015116603f8160121c168401518060081b905060ff603f83600c1c1686015116810190508060081b905060ff603f8360061c1686015116810190508060081b905060ff603f831686015116810190508060e01b90508084526004840193505050614bc5565b506003860660018114614c585760028114614c6857614c73565b613d3d60f01b6002830352614c73565b603d60f81b60018303525b508484525050819450505050505b919050565b6000601160009054906101000a900473ffffffffffffffffffffffffffffffffffffffff16905081601160006101000a81548173ffffffffffffffffffffffffffffffffffffffff021916908373ffffffffffffffffffffffffffffffffffffffff1602179055508173ffffffffffffffffffffffffffffffffffffffff168173ffffffffffffffffffffffffffffffffffffffff167f8be0079c531659141344cd1fd0a4f28419497f9722a3daafe3b4186f6b6457e060405160405180910390a35050565b60606000600167ffffffffffffffff811115614d91577f4e487b7100000000000000000000000000000000000000000000000000000000600052604160045260246000fd5b604051908082528060200260200182016040528015614dbf5781602001602082028036833780820191505090505b5090508281600081518110614dfd577f4e487b7100000000000000000000000000000000000000000000000000000000600052603260045260246000fd5b60200260200101818152505080915050919050565b606060405180602001604052806000815250905090565b614e3484848461468b565b614e408484848461518d565b614e7f576040517f08c379a0000000000000000000000000000000000000000000000000000000008152600401614e7690617d93565b60405180910390fd5b50505050565b80471015614ec8576040517f08c379a0000000000000000000000000000000000000000000000000000000008152600401614ebf90617eb3565b60405180910390fd5b60008273ffffffffffffffffffffffffffffffffffffffff1682604051614eee90617aa8565b60006040518083038185875af1925050503d8060008114614f2b576040519150601f19603f3d011682016040523d82523d6000602084013e614f30565b606091505b5050905080614f74576040517f08c379a0000000000000000000000000000000000000000000000000000000008152600401614f6b90617e73565b60405180910390fd5b505050565b614f93828260405180602001604052806000815250615324565b5050565b60007f80ac58cd000000000000000000000000000000000000000000000000000000007bffffffffffffffffffffffffffffffffffffffffffffffffffffffff1916827bffffffffffffffffffffffffffffffffffffffffffffffffffffffff1916148061506257507f5b5e139f000000000000000000000000000000000000000000000000000000007bffffffffffffffffffffffffffffffffffffffffffffffffffffffff1916827bffffffffffffffffffffffffffffffffffffffffffffffffffffffff1916145b8061507257506150718261537f565b5b9050919050565b615084838383615461565b600073ffffffffffffffffffffffffffffffffffffffff168373ffffffffffffffffffffffffffffffffffffffff1614156150c7576150c281615466565b615106565b8173ffffffffffffffffffffffffffffffffffffffff168373ffffffffffffffffffffffffffffffffffffffff16146151055761510483826154af565b5b5b600073ffffffffffffffffffffffffffffffffffffffff168273ffffffffffffffffffffffffffffffffffffffff161415615149576151448161561c565b615188565b8273ffffffffffffffffffffffffffffffffffffffff168273ffffffffffffffffffffffffffffffffffffffff161461518757615186828261575f565b5b5b505050565b60006151ae8473ffffffffffffffffffffffffffffffffffffffff166157de565b15615317578373ffffffffffffffffffffffffffffffffffffffff1663150b7a026151d7614151565b8786866040518563ffffffff1660e01b81526004016151f99493929190617b2a565b602060405180830381600087803b15801561521357600080fd5b505af192505050801561524457506040513d601f19601f82011682018060405250810190615241919061608b565b60015b6152c7573d8060008114615274576040519150601f19603f3d011682016040523d82523d6000602084013e615279565b606091505b506000815114156152bf576040517f08c379a00000000000000000000000000000000000000000000000000000000081526004016152b690617d93565b60405180910390fd5b805181602001fd5b63150b7a0260e01b7bffffffffffffffffffffffffffffffffffffffffffffffffffffffff1916817bffffffffffffffffffffffffffffffffffffffffffffffffffffffff19161491505061531c565b600190505b949350505050565b61532e83836157f1565b61533b600084848461518d565b61537a576040517f08c379a000000000000000000000000000000000000000000000000000000000815260040161537190617d93565b60405180910390fd5b505050565b60007f75205675000000000000000000000000000000000000000000000000000000007bffffffffffffffffffffffffffffffffffffffffffffffffffffffff1916827bffffffffffffffffffffffffffffffffffffffffffffffffffffffff1916148061544a57507fd5298fa3000000000000000000000000000000000000000000000000000000007bffffffffffffffffffffffffffffffffffffffffffffffffffffffff1916827bffffffffffffffffffffffffffffffffffffffffffffffffffffffff1916145b8061545a5750615459826159bf565b5b9050919050565b505050565b600e80549050600f600083815260200190815260200160002081905550600e81908060018154018082558091505060019003906000526020600020016000909190919091505550565b600060016154bc84612cff565b6154c69190618402565b90506000600d60008481526020019081526020016000205490508181146155ab576000600c60008673ffffffffffffffffffffffffffffffffffffffff1673ffffffffffffffffffffffffffffffffffffffff168152602001908152602001600020600084815260200190815260200160002054905080600c60008773ffffffffffffffffffffffffffffffffffffffff1673ffffffffffffffffffffffffffffffffffffffff16815260200190815260200160002060008481526020019081526020016000208190555081600d600083815260200190815260200160002081905550505b600d600084815260200190815260200160002060009055600c60008573ffffffffffffffffffffffffffffffffffffffff1673ffffffffffffffffffffffffffffffffffffffff16815260200190815260200160002060008381526020019081526020016000206000905550505050565b60006001600e805490506156309190618402565b90506000600f60008481526020019081526020016000205490506000600e8381548110615686577f4e487b7100000000000000000000000000000000000000000000000000000000600052603260045260246000fd5b9060005260206000200154905080600e83815481106156ce577f4e487b7100000000000000000000000000000000000000000000000000000000600052603260045260246000fd5b906000526020600020018190555081600f600083815260200190815260200160002081905550600f600085815260200190815260200160002060009055600e805480615743577f4e487b7100000000000000000000000000000000000000000000000000000000600052603160045260246000fd5b6001900381819060005260206000200160009055905550505050565b600061576a83612cff565b905081600c60008573ffffffffffffffffffffffffffffffffffffffff1673ffffffffffffffffffffffffffffffffffffffff16815260200190815260200160002060008381526020019081526020016000208190555080600d600084815260200190815260200160002081905550505050565b600080823b905060008111915050919050565b600073ffffffffffffffffffffffffffffffffffffffff168273ffffffffffffffffffffffffffffffffffffffff161415615861576040517f08c379a000000000000000000000000000000000000000000000000000000000815260040161585890617f73565b60405180910390fd5b61586a816140e5565b156158aa576040517f08c379a00000000000000000000000000000000000000000000000000000000081526004016158a190617dd3565b60405180910390fd5b6158b660008383615079565b6001600960008473ffffffffffffffffffffffffffffffffffffffff1673ffffffffffffffffffffffffffffffffffffffff16815260200190815260200160002060008282546159069190618321565b92505081905550816008600083815260200190815260200160002060006101000a81548173ffffffffffffffffffffffffffffffffffffffff021916908373ffffffffffffffffffffffffffffffffffffffff160217905550808273ffffffffffffffffffffffffffffffffffffffff16600073ffffffffffffffffffffffffffffffffffffffff167fddf252ad1be2c89b69c2b068fc378daa952ba7f163c4a11628f55a4df523b3ef60405160405180910390a45050565b60007f01ffc9a7000000000000000000000000000000000000000000000000000000007bffffffffffffffffffffffffffffffffffffffffffffffffffffffff1916827bffffffffffffffffffffffffffffffffffffffffffffffffffffffff1916149050919050565b828054615a3590618510565b90600052602060002090601f016020900481019282615a575760008555615a9e565b82601f10615a7057803560ff1916838001178555615a9e565b82800160010185558215615a9e579182015b82811115615a9d578235825591602001919060010190615a82565b5b509050615aab9190615b80565b5090565b60405180608001604052806004905b6060815260200190600190039081615abe5790505090565b5080546000825560030290600052602060002090810190615af79190615b9d565b50565b828054615b0690618510565b90600052602060002090601f016020900481019282615b285760008555615b6f565b82601f10615b4157805160ff1916838001178555615b6f565b82800160010185558215615b6f579182015b82811115615b6e578251825591602001919060010190615b53565b5b509050615b7c9190615b80565b5090565b5b80821115615b99576000816000905550600101615b81565b5090565b5b80821115615c0657600080820160006101000a81549073ffffffffffffffffffffffffffffffffffffffff02191690556001820160006101000a81549073ffffffffffffffffffffffffffffffffffffffff0219169055600282016000905550600301615b9e565b5090565b6000615c1d615c18846181f6565b6181c5565b905082815260208101848484011115615c3557600080fd5b615c408482856184ce565b509392505050565b6000615c5b615c5684618226565b6181c5565b905082815260208101848484011115615c7357600080fd5b615c7e8482856184ce565b509392505050565b6000615c99615c9484618226565b6181c5565b905082815260208101848484011115615cb157600080fd5b615cbc8482856184dd565b509392505050565b600081359050615cd381618689565b92915050565b600081519050615ce881618689565b92915050565b60008083601f840112615d0057600080fd5b8235905067ffffffffffffffff811115615d1957600080fd5b602083019150836020820283011115615d3157600080fd5b9250929050565b60008083601f840112615d4a57600080fd5b8235905067ffffffffffffffff811115615d6357600080fd5b602083019150836020820283011115615d7b57600080fd5b9250929050565b600081359050615d91816186a0565b92915050565b600081519050615da6816186a0565b92915050565b600081359050615dbb816186b7565b92915050565b600081519050615dd0816186b7565b92915050565b600082601f830112615de757600080fd5b8135615df7848260208601615c0a565b91505092915050565b600082601f830112615e1157600080fd5b8135615e21848260208601615c48565b91505092915050565b600082601f830112615e3b57600080fd5b8151615e4b848260208601615c86565b91505092915050565b600081359050615e63816186ce565b92915050565b600060208284031215615e7b57600080fd5b6000615e8984828501615cc4565b91505092915050565b600060208284031215615ea457600080fd5b6000615eb284828501615cd9565b91505092915050565b60008060408385031215615ece57600080fd5b6000615edc85828601615cc4565b9250506020615eed85828601615cc4565b9150509250929050565b600080600060608486031215615f0c57600080fd5b6000615f1a86828701615cc4565b9350506020615f2b86828701615cc4565b9250506040615f3c86828701615e54565b9150509250925092565b60008060008060808587031215615f5c57600080fd5b6000615f6a87828801615cc4565b9450506020615f7b87828801615cc4565b9350506040615f8c87828801615e54565b925050606085013567ffffffffffffffff811115615fa957600080fd5b615fb587828801615dd6565b91505092959194509250565b60008060408385031215615fd457600080fd5b6000615fe285828601615cc4565b9250506020615ff385828601615d82565b9150509250929050565b6000806040838503121561601057600080fd5b600061601e85828601615cc4565b925050602061602f85828601615e54565b9150509250929050565b60006020828403121561604b57600080fd5b600061605984828501615d97565b91505092915050565b60006020828403121561607457600080fd5b600061608284828501615dac565b91505092915050565b60006020828403121561609d57600080fd5b60006160ab84828501615dc1565b91505092915050565b6000602082840312156160c657600080fd5b600082013567ffffffffffffffff8111156160e057600080fd5b6160ec84828501615e00565b91505092915050565b60006020828403121561610757600080fd5b600082015167ffffffffffffffff81111561612157600080fd5b61612d84828501615e2a565b91505092915050565b60006020828403121561614857600080fd5b600061615684828501615e54565b91505092915050565b60008060006060848603121561617457600080fd5b600061618286828701615e54565b935050602061619386828701615cc4565b92505060406161a486828701615e54565b9150509250925092565b6000806000604084860312156161c357600080fd5b60006161d186828701615e54565b935050602084013567ffffffffffffffff8111156161ee57600080fd5b6161fa86828701615d38565b92509250509250925092565b60008060008060008060006080888a03121561622157600080fd5b600061622f8a828b01615e54565b975050602088013567ffffffffffffffff81111561624c57600080fd5b6162588a828b01615d38565b9650965050604088013567ffffffffffffffff81111561627757600080fd5b6162838a828b01615d38565b9450945050606088013567ffffffffffffffff8111156162a257600080fd5b6162ae8a828b01615cee565b925092505092959891949750929550565b600080604083850312156162d257600080fd5b60006162e085828601615e54565b92505060206162f185828601615e54565b9150509250929050565b600080600080600060a0868803121561631357600080fd5b600061632188828901615e54565b955050602061633288828901615e54565b945050604061634388828901615e54565b935050606086013567ffffffffffffffff81111561636057600080fd5b61636c88828901615dd6565b925050608061637d88828901615d82565b9150509295509295909350565b6000616396838361778a565b60608301905092915050565b60006163ae83836177cc565b60208301905092915050565b6163c381618448565b82525050565b6163d281618436565b82525050565b6163e181618436565b82525050565b60006163f282618276565b6163fc81856182bc565b935061640783618256565b8060005b8381101561643857815161641f888261638a565b975061642a836182a2565b92505060018101905061640b565b5085935050505092915050565b600061645183856182cd565b93507f07ffffffffffffffffffffffffffffffffffffffffffffffffffffffffffffff83111561648057600080fd5b6020830292506164918385846184ce565b82840190509392505050565b60006164a983856182de565b93507f07ffffffffffffffffffffffffffffffffffffffffffffffffffffffffffffff8311156164d857600080fd5b6020830292506164e98385846184ce565b82840190509392505050565b600061650082618281565b61650a81856182cd565b935061651583618266565b8060005b8381101561654657815161652d88826163a2565b9750616538836182af565b925050600181019050616519565b5085935050505092915050565b61655c8161845a565b82525050565b600061656d8261828c565b61657781856182e9565b93506165878185602086016184dd565b61659081618678565b840191505092915050565b60006165a68261828c565b6165b081856182fa565b93506165c08185602086016184dd565b80840191505092915050565b6165d5816184bc565b82525050565b60006165e682618297565b6165f08185618305565b93506166008185602086016184dd565b61660981618678565b840191505092915050565b600061661f82618297565b6166298185618316565b93506166398185602086016184dd565b80840191505092915050565b6000616652601f83618305565b91507f4d657461636f72653a206e6f742073796e74686573697a656420746f6b656e006000830152602082019050919050565b6000616692602a83618316565b91507f2c7b2274726169745f74797065223a2253594e544845544943222c2276616c7560008301527f65223a2274727565227d000000000000000000000000000000000000000000006020830152602a82019050919050565b60006166f8601383618305565b91507f506179656420746f6f206c6f772076616c7565000000000000000000000000006000830152602082019050919050565b6000616738602383618305565b91507f4d657461636f72653a2063616c6c6572206973206e6f7420746f6b656e206f7760008301527f6e657200000000000000000000000000000000000000000000000000000000006020830152604082019050919050565b600061679e602b83618305565b91507f455243373231456e756d657261626c653a206f776e657220696e646578206f7560008301527f74206f6620626f756e64730000000000000000000000000000000000000000006020830152604082019050919050565b6000616804603283618305565b91507f4552433732313a207472616e7366657220746f206e6f6e20455243373231526560008301527f63656976657220696d706c656d656e74657200000000000000000000000000006020830152604082019050919050565b600061686a602683618305565b91507f4f776e61626c653a206e6577206f776e657220697320746865207a65726f206160008301527f64647265737300000000000000000000000000000000000000000000000000006020830152604082019050919050565b60006168d0601c83618305565b91507f4552433732313a20746f6b656e20616c7265616479206d696e746564000000006000830152602082019050919050565b6000616910601d83618305565b91507f4d657461636f72653a20696e76616c6964206e667420616464726573730000006000830152602082019050919050565b6000616950601483618316565b91507f7b226e616d65223a20224d657461636f726520230000000000000000000000006000830152601482019050919050565b6000616990600183618316565b91507f2c000000000000000000000000000000000000000000000000000000000000006000830152600182019050919050565b60006169d0602483618305565b91507f4552433732313a207472616e7366657220746f20746865207a65726f2061646460008301527f72657373000000000000000000000000000000000000000000000000000000006020830152604082019050919050565b6000616a36601983618305565b91507f4552433732313a20617070726f766520746f2063616c6c6572000000000000006000830152602082019050919050565b6000616a76602e83618305565b91507f455243333636343a20626174636841747461636820666f72206e6f6e6578697360008301527f74656e74206174747269627574650000000000000000000000000000000000006020830152604082019050919050565b6000616adc603a83618305565b91507f416464726573733a20756e61626c6520746f2073656e642076616c75652c207260008301527f6563697069656e74206d617920686176652072657665727465640000000000006020830152604082019050919050565b6000616b42602f83618305565b91507f455243333636343a2073796d626f6c20717565727920666f72206e6f6e65786960008301527f7374656e742061747472696275746500000000000000000000000000000000006020830152604082019050919050565b6000616ba8601d83618305565b91507f416464726573733a20696e73756666696369656e742062616c616e63650000006000830152602082019050919050565b6000616be8600f83618316565b91507f7b2274726169745f74797065223a2200000000000000000000000000000000006000830152600f82019050919050565b6000616c28602c83618305565b91507f4552433732313a206f70657261746f7220717565727920666f72206e6f6e657860008301527f697374656e7420746f6b656e00000000000000000000000000000000000000006020830152604082019050919050565b6000616c8e603883618305565b91507f4552433732313a20617070726f76652063616c6c6572206973206e6f74206f7760008301527f6e6572206e6f7220617070726f76656420666f7220616c6c00000000000000006020830152604082019050919050565b6000616cf4602c83618305565b91507f455243333636343a2055524920717565727920666f72206e6f6e65786973746560008301527f6e742061747472696275746500000000000000000000000000000000000000006020830152604082019050919050565b6000616d5a602a83618305565b91507f4552433732313a2062616c616e636520717565727920666f7220746865207a6560008301527f726f2061646472657373000000000000000000000000000000000000000000006020830152604082019050919050565b6000616dc0602983618305565b91507f4552433732313a206f776e657220717565727920666f72206e6f6e657869737460008301527f656e7420746f6b656e00000000000000000000000000000000000000000000006020830152604082019050919050565b6000616e26601083618316565b91507f222c2261747472696275746573223a5b000000000000000000000000000000006000830152601082019050919050565b6000616e66600283618316565b91507f227d0000000000000000000000000000000000000000000000000000000000006000830152600282019050919050565b6000616ea6602083618305565b91507f4552433732313a206d696e7420746f20746865207a65726f20616464726573736000830152602082019050919050565b6000616ee6602c83618305565b91507f4552433732313a20617070726f76656420717565727920666f72206e6f6e657860008301527f697374656e7420746f6b656e00000000000000000000000000000000000000006020830152604082019050919050565b6000616f4c602083618305565b91507f4f776e61626c653a2063616c6c6572206973206e6f7420746865206f776e65726000830152602082019050919050565b6000616f8c602983618305565b91507f455243333636343a2061747461636820666f72206e6f6e6578697374656e742060008301527f61747472696275746500000000000000000000000000000000000000000000006020830152604082019050919050565b6000616ff2602983618305565b91507f4552433732313a207472616e73666572206f6620746f6b656e2074686174206960008301527f73206e6f74206f776e00000000000000000000000000000000000000000000006020830152604082019050919050565b6000617058602d83618305565b91507f4d657461636f72653a207265616368656420746865206d6178696d756d206e7560008301527f6d626572206f6620636c61696d000000000000000000000000000000000000006020830152604082019050919050565b60006170be600b83618316565b91507f222c2276616c7565223a220000000000000000000000000000000000000000006000830152600b82019050919050565b60006170fe600283618316565b91507f5d7d0000000000000000000000000000000000000000000000000000000000006000830152600282019050919050565b600061713e600a83618316565b91507f4d657461636f72652023000000000000000000000000000000000000000000006000830152600a82019050919050565b600061717e602183618305565b91507f4552433732313a20617070726f76616c20746f2063757272656e74206f776e6560008301527f72000000000000000000000000000000000000000000000000000000000000006020830152604082019050919050565b60006171e4602383618305565b91507f4d657461636f72653a20756e726567697374657220746f6b656e20616464726560008301527f73733b00000000000000000000000000000000000000000000000000000000006020830152604082019050919050565b600061724a601d83618316565b91507f646174613a6170706c69636174696f6e2f6a736f6e3b6261736536342c0000006000830152601d82019050919050565b600061728a603083618305565b91507f4d657461636f72653a2063616c6c6572206973206e6f7420746f6b656e206f7760008301527f6e6572206e6f7220617070726f766564000000000000000000000000000000006020830152604082019050919050565b60006172f06000836182fa565b9150600082019050919050565b600061730a603183618305565b91507f4552433732313a207472616e736665722063616c6c6572206973206e6f74206f60008301527f776e6572206e6f7220617070726f7665640000000000000000000000000000006020830152604082019050919050565b6000617370602c83618305565b91507f455243373231456e756d657261626c653a20676c6f62616c20696e646578206f60008301527f7574206f6620626f756e647300000000000000000000000000000000000000006020830152604082019050919050565b60006173d6601d83618305565b91507f4d657461636f72653a20696e76616c6964206e616d65206c656e6774680000006000830152602082019050919050565b6000617416602883618316565b91507f3c2f746578743e3c7465787420783d2231302220793d2234302220636c61737360008301527f3d2262617365223e0000000000000000000000000000000000000000000000006020830152602882019050919050565b600061747c603483618305565b91507f4d657461636f72653a2063616c6c6572206973206e6f742073756220746f6b6560008301527f6e206f776e6572206e6f7220617070726f7665640000000000000000000000006020830152604082019050919050565b60006174e2602d83618305565b91507f455243333636343a206e616d6520717565727920666f72206e6f6e657869737460008301527f656e7420617474726962757465000000000000000000000000000000000000006020830152604082019050919050565b6000617548601f83618305565b91507f5265656e7472616e637947756172643a207265656e7472616e742063616c6c006000830152602082019050919050565b600061758961019483618316565b91507f222c20226465736372697074696f6e223a20224d657461436f7265206973206160008301527f6e206964656e746974792073797374656d2077686963682063616e206d616b6560208301527f20616c6c206d657461766572736520636974697a656e73206a6f696e20696e7460408301527f6f20646966666572656e74206d657461766572736573206279207573696e672060608301527f73616d65204d657461436f7265204964656e746974792e20546865206669727360808301527f74206d6f64756c6172204e46542077697468204d657461436f7265206174206960a08301527f747320636f72652c20776974682061726269747261727920617474726962757460c08301527f6573206164646974696f6e20616e642072656d6f76616c2c20667265656c792060e08301527f636f6d62696e6520616e6420646976696465206561636820636f6d706f6e656e6101008301527f74732e20416c7265616479206164617074656420746f206d756c7469706c65206101208301527f6d657461766572736520626c6f636b636861696e2067616d65732e20465554556101408301527f524520495320434f4d4d494e47222c2022696d616765223a2022646174613a696101608301527f6d6167652f7376672b786d6c3b6261736536342c00000000000000000000000061018083015261019482019050919050565b6060820160008201516177a060008501826163c9565b5060208201516177b360208501826163c9565b5060408201516177c660408501826177cc565b50505050565b6177d5816184b2565b82525050565b6177e4816184b2565b82525050565b60006177f782848661649d565b91508190509392505050565b600061780f828561659b565b915061781b828461659b565b91508190509392505050565b6000617833828561659b565b915061783f8284616614565b91508190509392505050565b6000617857828461659b565b915061786282616983565b915081905092915050565b6000617879828561659b565b915061788482616983565b9150617890828461659b565b91508190509392505050565b60006178a8828661659b565b91506178b382616bdb565b91506178bf8285616614565b91506178ca826170b1565b91506178d6828461659b565b91506178e182616e59565b9150819050949350505050565b60006178fa8285616614565b91506179068284616614565b91508190509392505050565b600061791e8287616614565b915061792a8286616614565b91506179368285616614565b91506179428284616614565b915081905095945050505050565b600061795c8284616614565b915061796782616685565b915081905092915050565b600061797d82616943565b91506179898286616614565b91506179948261757b565b91506179a08285616614565b91506179ab82616e19565b91506179b78284616614565b91506179c2826170f1565b9150819050949350505050565b60006179da82616bdb565b91506179e68285616614565b91506179f1826170b1565b91506179fd828461659b565b9150617a0882616e59565b91508190509392505050565b6000617a1f82616bdb565b9150617a2b8285616614565b9150617a36826170b1565b9150617a428284616614565b9150617a4d82616e59565b91508190509392505050565b6000617a6482617131565b9150617a708284616614565b9150617a7b82617409565b915081905092915050565b6000617a918261723d565b9150617a9d8284616614565b915081905092915050565b6000617ab3826172e3565b9150819050919050565b6000602082019050617ad260008301846163d8565b92915050565b6000602082019050617aed60008301846163ba565b92915050565b6000606082019050617b0860008301866163d8565b617b1560208301856163d8565b617b2260408301846177db565b949350505050565b6000608082019050617b3f60008301876163d8565b617b4c60208301866163d8565b617b5960408301856177db565b8181036060830152617b6b8184616562565b905095945050505050565b6000604082019050617b8b60008301856163d8565b617b9860208301846177db565b9392505050565b60006020820190508181036000830152617bb981846163e7565b905092915050565b60006020820190508181036000830152617bdb81846164f5565b905092915050565b6000602082019050617bf86000830184616553565b92915050565b60006020820190508181036000830152617c188184616562565b905092915050565b6000606082019050617c3560008301876165cc565b617c4260208301866177db565b8181036040830152617c55818486616445565b905095945050505050565b6000606082019050617c7560008301866165cc565b617c8260208301856177db565b617c8f60408301846177db565b949350505050565b60006020820190508181036000830152617cb181846165db565b905092915050565b60006080820190508181036000830152617cd381876165db565b90508181036020830152617ce781866165db565b90508181036040830152617cfb81856165db565b9050617d0a6060830184616553565b95945050505050565b60006020820190508181036000830152617d2c81616645565b9050919050565b60006020820190508181036000830152617d4c816166eb565b9050919050565b60006020820190508181036000830152617d6c8161672b565b9050919050565b60006020820190508181036000830152617d8c81616791565b9050919050565b60006020820190508181036000830152617dac816167f7565b9050919050565b60006020820190508181036000830152617dcc8161685d565b9050919050565b60006020820190508181036000830152617dec816168c3565b9050919050565b60006020820190508181036000830152617e0c81616903565b9050919050565b60006020820190508181036000830152617e2c816169c3565b9050919050565b60006020820190508181036000830152617e4c81616a29565b9050919050565b60006020820190508181036000830152617e6c81616a69565b9050919050565b60006020820190508181036000830152617e8c81616acf565b9050919050565b60006020820190508181036000830152617eac81616b35565b9050919050565b60006020820190508181036000830152617ecc81616b9b565b9050919050565b60006020820190508181036000830152617eec81616c1b565b9050919050565b60006020820190508181036000830152617f0c81616c81565b9050919050565b60006020820190508181036000830152617f2c81616ce7565b9050919050565b60006020820190508181036000830152617f4c81616d4d565b9050919050565b60006020820190508181036000830152617f6c81616db3565b9050919050565b60006020820190508181036000830152617f8c81616e99565b9050919050565b60006020820190508181036000830152617fac81616ed9565b9050919050565b60006020820190508181036000830152617fcc81616f3f565b9050919050565b60006020820190508181036000830152617fec81616f7f565b9050919050565b6000602082019050818103600083015261800c81616fe5565b9050919050565b6000602082019050818103600083015261802c8161704b565b9050919050565b6000602082019050818103600083015261804c81617171565b9050919050565b6000602082019050818103600083015261806c816171d7565b9050919050565b6000602082019050818103600083015261808c8161727d565b9050919050565b600060208201905081810360008301526180ac816172fd565b9050919050565b600060208201905081810360008301526180cc81617363565b9050919050565b600060208201905081810360008301526180ec816173c9565b9050919050565b6000602082019050818103600083015261810c8161746f565b9050919050565b6000602082019050818103600083015261812c816174d5565b9050919050565b6000602082019050818103600083015261814c8161753b565b9050919050565b600060208201905061816860008301846177db565b92915050565b6000808335600160200384360303811261818757600080fd5b80840192508235915067ffffffffffffffff8211156181a557600080fd5b6020830192506001820236038313156181bd57600080fd5b509250929050565b6000604051905081810181811067ffffffffffffffff821117156181ec576181eb618649565b5b8060405250919050565b600067ffffffffffffffff82111561821157618210618649565b5b601f19601f8301169050602081019050919050565b600067ffffffffffffffff82111561824157618240618649565b5b601f19601f8301169050602081019050919050565b6000819050602082019050919050565b6000819050602082019050919050565b600081519050919050565b600081519050919050565b600081519050919050565b600081519050919050565b6000602082019050919050565b6000602082019050919050565b600082825260208201905092915050565b600082825260208201905092915050565b600081905092915050565b600082825260208201905092915050565b600081905092915050565b600082825260208201905092915050565b600081905092915050565b600061832c826184b2565b9150618337836184b2565b9250827fffffffffffffffffffffffffffffffffffffffffffffffffffffffffffffffff0382111561836c5761836b6185bc565b5b828201905092915050565b6000618382826184b2565b915061838d836184b2565b92508261839d5761839c6185eb565b5b828204905092915050565b60006183b3826184b2565b91506183be836184b2565b9250817fffffffffffffffffffffffffffffffffffffffffffffffffffffffffffffffff04831182151516156183f7576183f66185bc565b5b828202905092915050565b600061840d826184b2565b9150618418836184b2565b92508282101561842b5761842a6185bc565b5b828203905092915050565b600061844182618492565b9050919050565b600061845382618492565b9050919050565b60008115159050919050565b60007fffffffff0000000000000000000000000000000000000000000000000000000082169050919050565b600073ffffffffffffffffffffffffffffffffffffffff82169050919050565b6000819050919050565b60006184c7826184b2565b9050919050565b82818337600083830152505050565b60005b838110156184fb5780820151818401526020810190506184e0565b8381111561850a576000848401525b50505050565b6000600282049050600182168061852857607f821691505b6020821081141561853c5761853b61861a565b5b50919050565b600061854d826184b2565b91507fffffffffffffffffffffffffffffffffffffffffffffffffffffffffffffffff8214156185805761857f6185bc565b5b600182019050919050565b6000618596826184b2565b91506185a1836184b2565b9250826185b1576185b06185eb565b5b828206905092915050565b7f4e487b7100000000000000000000000000000000000000000000000000000000600052601160045260246000fd5b7f4e487b7100000000000000000000000000000000000000000000000000000000600052601260045260246000fd5b7f4e487b7100000000000000000000000000000000000000000000000000000000600052602260045260246000fd5b7f4e487b7100000000000000000000000000000000000000000000000000000000600052604160045260246000fd5b6000601f19601f8301169050919050565b61869281618436565b811461869d57600080fd5b50565b6186a98161845a565b81146186b457600080fd5b50565b6186c081618466565b81146186cb57600080fd5b50565b6186d7816184b2565b81146186e257600080fd5b5056fe3c73766720786d6c6e733d22687474703a2f2f7777772e77332e6f72672f323030302f73766722207072657365727665417370656374526174696f3d22784d696e594d696e206d656574222076696577426f783d223020302033353020333530223e3c7374796c653e2e62617365207b2066696c6c3a2077686974653b20666f6e742d66616d696c793a2073657269663b20666f6e742d73697a653a20313470783b207d3c2f7374796c653e3c726563742077696474683d223130302522206865696768743d2231303025222066696c6c3d22626c61636b22202f3e3c7465787420783d2231302220793d2232302220636c6173733d2262617365223e4142434445464748494a4b4c4d4e4f505152535455565758595a6162636465666768696a6b6c6d6e6f707172737475767778797a303132333435363738392b2fa2646970667358221220ed169c6271a0e7a58134168d6f33c9ae3251c562630b3c423376508745edb16164736f6c63430008000033",
  "immutableReferences": {},
  "source": "// SPDX-License-Identifier: MIT\r\n\r\npragma solidity ^0.8.0;\r\n\r\nimport \"openzeppelin-solidity/contracts/token/ERC721/extensions/ERC721Enumerable.sol\";\r\nimport \"openzeppelin-solidity/contracts/access/Ownable.sol\";\r\nimport \"openzeppelin-solidity/contracts/security/ReentrancyGuard.sol\";\r\nimport \"openzeppelin-solidity/contracts/utils/Strings.sol\";\r\nimport \"openzeppelin-solidity/contracts/utils/Address.sol\";\r\nimport \"./ERC3664/extensions/ERC3664CrossSynthetic.sol\";\r\nimport \"./Synthetic/ISynthetic721.sol\";\r\nimport \"./utils/Base64.sol\";\r\n\r\ninterface ICustomMetadata {\r\n    function tokenURI(uint256 tokenId) external view returns (string memory);\r\n}\r\n\r\ninterface ICoreRegistry {\r\n    function verifyIdentity(address token, uint256 tokenId)\r\n        external\r\n        view\r\n        returns (bool);\r\n}\r\n\r\ncontract Metacore is\r\n    ERC3664CrossSynthetic,\r\n    ERC721Enumerable,\r\n    ReentrancyGuard,\r\n    Ownable\r\n{\r\n    using Strings for uint256;\r\n\r\n    uint256 private constant METANAME = 1;\r\n\r\n    address payable public treasury =\r\n        payable(0x99F120C4BA7d3621e26429Cba45A6F52b23DFd1F);\r\n\r\n    uint256 private _totalSupply = 8000;\r\n\r\n    uint256 private _curTokenId;\r\n\r\n    address private _customURI;\r\n\r\n    address private _registry;\r\n\r\n    mapping(address => bool) private _authNFTs;\r\n\r\n    constructor() ERC3664CrossSynthetic() ERC721(\"Metacore\", \"MTC\") Ownable() {\r\n        _authNFTs[address(0x10949E6d7949C68E6F00B7d907131bE78170bd3F)] = true;\r\n        _mint(METANAME, \"Metaname\", \"Metaname\", \"\");\r\n    }\r\n\r\n    function getNextTokenID() public view returns (uint256) {\r\n        return _curTokenId + 1;\r\n    }\r\n\r\n    function increaseIssue(uint256 supply) public onlyOwner {\r\n        _totalSupply = supply;\r\n    }\r\n\r\n    function setCustomMetadata(address uri) public onlyOwner {\r\n        _customURI = uri;\r\n    }\r\n\r\n    function setCoreRegistry(address registry) public onlyOwner {\r\n        _registry = registry;\r\n    }\r\n\r\n    function setAuthNFTs(address nft, bool enable) public onlyOwner {\r\n        _authNFTs[nft] = enable;\r\n    }\r\n\r\n    function claim(string memory name) public payable nonReentrant {\r\n        require(bytes(name).length > 0, \"Metacore: invalid name length\");\r\n        require(\r\n            getNextTokenID() <= _totalSupply,\r\n            \"Metacore: reached the maximum number of claim\"\r\n        );\r\n\r\n        uint256 amount = msg.value;\r\n        require(amount >= 4 * 10**16, \"Payed too low value\");\r\n        Address.sendValue(treasury, 4 * 10**16);\r\n\r\n        _curTokenId += 1;\r\n        _safeMint(_msgSender(), _curTokenId);\r\n        attach(_curTokenId, METANAME, 1, bytes(name), true);\r\n    }\r\n\r\n    function combine(\r\n        uint256 tokenId,\r\n        address subToken,\r\n        uint256 subId\r\n    ) public {\r\n        require(\r\n            ownerOf(tokenId) == _msgSender(),\r\n            \"Metacore: caller is not token owner\"\r\n        );\r\n        if (_registry != address(0)) {\r\n            require(\r\n                ICoreRegistry(_registry).verifyIdentity(subToken, subId),\r\n                \"Metacore: unregister token address;\"\r\n            );\r\n        } else {\r\n            require(_authNFTs[subToken], \"Metacore: invalid nft address\");\r\n        }\r\n\r\n        ISynthetic721 sContract = ISynthetic721(subToken);\r\n        require(\r\n            sContract.getApproved(subId) == address(this),\r\n            \"Metacore: caller is not sub token owner nor approved\"\r\n        );\r\n\r\n        sContract.transferFrom(_msgSender(), address(this), subId);\r\n        synthesizedTokens[tokenId].push(\r\n            SynthesizedToken(subToken, msg.sender, subId)\r\n        );\r\n    }\r\n\r\n    function separate(uint256 tokenId) public {\r\n        require(\r\n            _isApprovedOrOwner(_msgSender(), tokenId),\r\n            \"Metacore: caller is not token owner nor approved\"\r\n        );\r\n\r\n        SynthesizedToken[] storage subs = synthesizedTokens[tokenId];\r\n        require(subs.length > 0, \"Metacore: not synthesized token\");\r\n        for (uint256 i = 0; i < subs.length; i++) {\r\n            ISynthetic721(subs[i].token).transferFrom(\r\n                address(this),\r\n                subs[i].owner,\r\n                subs[i].id\r\n            );\r\n        }\r\n        delete synthesizedTokens[tokenId];\r\n    }\r\n\r\n    function separateOne(uint256 tokenId, uint256 subId) public {\r\n        require(\r\n            _isApprovedOrOwner(_msgSender(), tokenId),\r\n            \"Metacore: caller is not token owner nor approved\"\r\n        );\r\n\r\n        uint256 idx = findByValue(synthesizedTokens[tokenId], subId);\r\n        SynthesizedToken storage token = synthesizedTokens[tokenId][idx];\r\n        ISynthetic721(token.token).transferFrom(\r\n            address(this),\r\n            token.owner,\r\n            token.id\r\n        );\r\n        removeAtIndex(synthesizedTokens[tokenId], idx);\r\n    }\r\n\r\n    function tokenURI(uint256 tokenId)\r\n        public\r\n        view\r\n        override\r\n        returns (string memory)\r\n    {\r\n        if (_customURI != address(0)) {\r\n            return ICustomMetadata(_customURI).tokenURI(tokenId);\r\n        }\r\n        return coreTokenURI(tokenId);\r\n    }\r\n\r\n    function coreTokenURI(uint256 tokenId) public view returns (string memory) {\r\n        string[4] memory parts;\r\n        parts[\r\n            0\r\n        ] = '<svg xmlns=\"http://www.w3.org/2000/svg\" preserveAspectRatio=\"xMinYMin meet\" viewBox=\"0 0 350 350\"><style>.base { fill: white; font-family: serif; font-size: 14px; }</style><rect width=\"100%\" height=\"100%\" fill=\"black\" /><text x=\"10\" y=\"20\" class=\"base\">';\r\n\r\n        parts[1] = string(\r\n            abi.encodePacked(\r\n                \"Metacore #\",\r\n                tokenId.toString(),\r\n                '</text><text x=\"10\" y=\"40\" class=\"base\">'\r\n            )\r\n        );\r\n\r\n        parts[2] = string(textOf(tokenId, METANAME));\r\n\r\n        parts[3] = \"</text></svg>\";\r\n\r\n        string memory output = string(\r\n            abi.encodePacked(parts[0], parts[1], parts[2], parts[3])\r\n        );\r\n        string memory attributes = getAttributes(tokenId);\r\n\r\n        if (synthesizedTokens[tokenId].length > 0) {\r\n            attributes = string(\r\n                abi.encodePacked(\r\n                    attributes,\r\n                    ',{\"trait_type\":\"SYNTHETIC\",\"value\":\"true\"}'\r\n                )\r\n            );\r\n        }\r\n\r\n        string memory json = Base64.encode(\r\n            bytes(\r\n                string(\r\n                    abi.encodePacked(\r\n                        '{\"name\": \"Metacore #',\r\n                        tokenId.toString(),\r\n                        '\", \"description\": \"MetaCore is an identity system which can make all metaverse citizens join into different metaverses by using same MetaCore Identity. The first modular NFT with MetaCore at its core, with arbitrary attributes addition and removal, freely combine and divide each components. Already adapted to multiple metaverse blockchain games. FUTURE IS COMMING\", \"image\": \"data:image/svg+xml;base64,',\r\n                        Base64.encode(bytes(output)),\r\n                        '\",\"attributes\":[',\r\n                        attributes,\r\n                        \"]}\"\r\n                    )\r\n                )\r\n            )\r\n        );\r\n        output = string(\r\n            abi.encodePacked(\"data:application/json;base64,\", json)\r\n        );\r\n        return output;\r\n    }\r\n\r\n    function getAttributes(uint256 tokenId)\r\n        public\r\n        view\r\n        returns (string memory)\r\n    {\r\n        bytes memory data = \"\";\r\n        uint256 id = primaryAttributeOf(tokenId);\r\n        if (id > 0) {\r\n            data = abi.encodePacked(\r\n                '{\"trait_type\":\"',\r\n                symbol(id),\r\n                '\",\"value\":\"',\r\n                textOf(tokenId, id),\r\n                '\"}'\r\n            );\r\n        }\r\n        uint256[] memory attrs = attributesOf(tokenId);\r\n        for (uint256 i = 0; i < attrs.length; i++) {\r\n            if (data.length > 0) {\r\n                data = abi.encodePacked(data, \",\");\r\n            }\r\n            data = abi.encodePacked(\r\n                data,\r\n                '{\"trait_type\":\"',\r\n                symbol(attrs[i]),\r\n                '\",\"value\":\"',\r\n                textOf(tokenId, attrs[i]),\r\n                '\"}'\r\n            );\r\n        }\r\n        SynthesizedToken[] storage tokens = synthesizedTokens[tokenId];\r\n        for (uint256 i = 0; i < tokens.length; i++) {\r\n            data = abi.encodePacked(\r\n                data,\r\n                \",\",\r\n                concatAttribute(\r\n                    ISynthetic721(tokens[i].token).coreName(),\r\n                    tokens[i].id.toString()\r\n                )\r\n            );\r\n        }\r\n        return string(data);\r\n    }\r\n\r\n    function concatAttribute(string memory key, string memory value)\r\n        internal\r\n        pure\r\n        returns (bytes memory)\r\n    {\r\n        return\r\n            abi.encodePacked(\r\n                '{\"trait_type\":\"',\r\n                key,\r\n                '\",\"value\":\"',\r\n                value,\r\n                '\"}'\r\n            );\r\n    }\r\n\r\n    function findByValue(SynthesizedToken[] storage values, uint256 value)\r\n        internal\r\n        view\r\n        returns (uint256)\r\n    {\r\n        uint256 i = 0;\r\n        while (values[i].id != value) {\r\n            i++;\r\n        }\r\n        return i;\r\n    }\r\n\r\n    function removeAtIndex(SynthesizedToken[] storage values, uint256 index)\r\n        internal\r\n    {\r\n        uint256 max = values.length;\r\n        if (index >= max) return;\r\n\r\n        if (index == max - 1) {\r\n            values.pop();\r\n            return;\r\n        }\r\n\r\n        for (uint256 i = index; i < max - 1; i++) {\r\n            values[i] = values[i + 1];\r\n        }\r\n        values.pop();\r\n    }\r\n\r\n    function supportsInterface(bytes4 interfaceId)\r\n        public\r\n        view\r\n        virtual\r\n        override(ERC3664, ERC721Enumerable)\r\n        returns (bool)\r\n    {\r\n        return super.supportsInterface(interfaceId);\r\n    }\r\n}\r\n",
  "sourcePath": "D:\\MetaNFT\\MetaNFT\\contracts\\Metacore.sol",
  "compiler": {
    "name": "solc",
    "version": "0.8.0+commit.c7dfd78e.Emscripten.clang"
  },
  "schemaVersion": "3.4.3",
  "updatedAt": "2021-09-22T09:26:16.406Z",
  "devdoc": {
    "kind": "dev",
    "methods": {
      "approve(address,uint256)": {
        "details": "See {IERC721-approve}."
      },
      "attach(uint256,uint256,uint256,bytes,bool)": {
        "details": "See {IERC3664-attach}."
      },
      "attrURI(uint256)": {
        "details": "See {IERC721Metadata-attrURI}."
      },
      "attributesOf(uint256)": {
        "details": "See {IERC3664-attributesOf}."
      },
      "balanceOf(address)": {
        "details": "See {IERC721-balanceOf}."
      },
      "balanceOf(uint256,uint256)": {
        "details": "See {IERC3664-balanceOf}."
      },
      "balanceOfBatch(uint256,uint256[])": {
        "details": "See {IERC3664-balanceOfBatch}."
      },
      "batchAttach(uint256,uint256[],uint256[],bytes[])": {
        "details": "See {IERC3664-batchAttach}."
      },
      "getApproved(uint256)": {
        "details": "See {IERC721-getApproved}."
      },
      "isApprovedForAll(address,address)": {
        "details": "See {IERC721-isApprovedForAll}."
      },
      "name()": {
        "details": "See {IERC721Metadata-name}."
      },
      "name(uint256)": {
        "details": "See {IERC3664Metadata-name}."
      },
      "owner()": {
        "details": "Returns the address of the current owner."
      },
      "ownerOf(uint256)": {
        "details": "See {IERC721-ownerOf}."
      },
      "primaryAttributeOf(uint256)": {
        "details": "Returns primary attribute type of owned by `tokenId`."
      },
      "renounceOwnership()": {
        "details": "Leaves the contract without owner. It will not be possible to call `onlyOwner` functions anymore. Can only be called by the current owner. NOTE: Renouncing ownership will leave the contract without an owner, thereby removing any functionality that is only available to the owner."
      },
      "safeTransferFrom(address,address,uint256)": {
        "details": "See {IERC721-safeTransferFrom}."
      },
      "safeTransferFrom(address,address,uint256,bytes)": {
        "details": "See {IERC721-safeTransferFrom}."
      },
      "setApprovalForAll(address,bool)": {
        "details": "See {IERC721-setApprovalForAll}."
      },
      "symbol()": {
        "details": "See {IERC721Metadata-symbol}."
      },
      "symbol(uint256)": {
        "details": "See {IERC3664Metadata-symbol}."
      },
      "textOf(uint256,uint256)": {
        "details": "See {IERC3664-textOf}."
      },
      "tokenByIndex(uint256)": {
        "details": "See {IERC721Enumerable-tokenByIndex}."
      },
      "tokenOfOwnerByIndex(address,uint256)": {
        "details": "See {IERC721Enumerable-tokenOfOwnerByIndex}."
      },
      "tokenURI(uint256)": {
        "details": "See {IERC721Metadata-tokenURI}."
      },
      "totalSupply()": {
        "details": "See {IERC721Enumerable-totalSupply}."
      },
      "transferFrom(address,address,uint256)": {
        "details": "See {IERC721-transferFrom}."
      },
      "transferOwnership(address)": {
        "details": "Transfers ownership of the contract to a new account (`newOwner`). Can only be called by the current owner."
      }
    },
    "version": 1
  },
  "userdoc": {
    "kind": "user",
    "methods": {},
    "version": 1
  }
}