{
  "contractName": "NFTBlindBox",
  "abi": [
    {
      "inputs": [
        {
          "internalType": "address",
          "name": "_nft",
          "type": "address"
        },
        {
          "internalType": "address",
          "name": "_usdt",
          "type": "address"
        }
      ],
      "stateMutability": "nonpayable",
      "type": "constructor"
    },
    {
      "anonymous": false,
      "inputs": [
        {
          "indexed": true,
          "internalType": "address",
          "name": "from",
          "type": "address"
        },
        {
          "indexed": false,
          "internalType": "uint256",
          "name": "count",
          "type": "uint256"
        }
      ],
      "name": "BatchReturnNFT",
      "type": "event"
    },
    {
      "anonymous": false,
      "inputs": [
        {
          "indexed": true,
          "internalType": "address",
          "name": "from",
          "type": "address"
        },
        {
          "indexed": false,
          "internalType": "uint256",
          "name": "count",
          "type": "uint256"
        }
      ],
      "name": "BatchUploadNFT",
      "type": "event"
    },
    {
      "anonymous": false,
      "inputs": [
        {
          "indexed": true,
          "internalType": "address",
          "name": "to",
          "type": "address"
        },
        {
          "indexed": false,
          "internalType": "uint256",
          "name": "tokenId",
          "type": "uint256"
        },
        {
          "indexed": false,
          "internalType": "uint256",
          "name": "value",
          "type": "uint256"
        },
        {
          "indexed": false,
          "internalType": "uint256",
          "name": "stageNum",
          "type": "uint256"
        }
      ],
      "name": "LuckyDrawNFT",
      "type": "event"
    },
    {
      "anonymous": false,
      "inputs": [
        {
          "indexed": true,
          "internalType": "address",
          "name": "previousOwner",
          "type": "address"
        },
        {
          "indexed": true,
          "internalType": "address",
          "name": "newOwner",
          "type": "address"
        }
      ],
      "name": "OwnershipTransferred",
      "type": "event"
    },
    {
      "anonymous": false,
      "inputs": [
        {
          "indexed": true,
          "internalType": "address",
          "name": "from",
          "type": "address"
        },
        {
          "indexed": false,
          "internalType": "uint256",
          "name": "id",
          "type": "uint256"
        }
      ],
      "name": "ReturnNFT",
      "type": "event"
    },
    {
      "inputs": [],
      "name": "drpc",
      "outputs": [
        {
          "internalType": "address",
          "name": "",
          "type": "address"
        }
      ],
      "stateMutability": "view",
      "type": "function"
    },
    {
      "inputs": [],
      "name": "incubator",
      "outputs": [
        {
          "internalType": "address",
          "name": "",
          "type": "address"
        }
      ],
      "stateMutability": "view",
      "type": "function"
    },
    {
      "inputs": [
        {
          "internalType": "address",
          "name": "",
          "type": "address"
        }
      ],
      "name": "inviter",
      "outputs": [
        {
          "internalType": "address",
          "name": "",
          "type": "address"
        }
      ],
      "stateMutability": "view",
      "type": "function"
    },
    {
      "inputs": [],
      "name": "nft",
      "outputs": [
        {
          "internalType": "address",
          "name": "",
          "type": "address"
        }
      ],
      "stateMutability": "view",
      "type": "function"
    },
    {
      "inputs": [
        {
          "internalType": "uint256",
          "name": "",
          "type": "uint256"
        }
      ],
      "name": "nftOnSale",
      "outputs": [
        {
          "internalType": "bool",
          "name": "",
          "type": "bool"
        }
      ],
      "stateMutability": "view",
      "type": "function"
    },
    {
      "inputs": [],
      "name": "owner",
      "outputs": [
        {
          "internalType": "address",
          "name": "",
          "type": "address"
        }
      ],
      "stateMutability": "view",
      "type": "function"
    },
    {
      "inputs": [],
      "name": "renounceOwnership",
      "outputs": [],
      "stateMutability": "nonpayable",
      "type": "function"
    },
    {
      "inputs": [
        {
          "internalType": "uint256",
          "name": "",
          "type": "uint256"
        }
      ],
      "name": "stages",
      "outputs": [
        {
          "internalType": "uint256",
          "name": "drpcPrice",
          "type": "uint256"
        },
        {
          "internalType": "uint256",
          "name": "usdtPrice",
          "type": "uint256"
        }
      ],
      "stateMutability": "view",
      "type": "function"
    },
    {
      "inputs": [
        {
          "internalType": "address",
          "name": "newOwner",
          "type": "address"
        }
      ],
      "name": "transferOwnership",
      "outputs": [],
      "stateMutability": "nonpayable",
      "type": "function"
    },
    {
      "inputs": [],
      "name": "usdt",
      "outputs": [
        {
          "internalType": "address",
          "name": "",
          "type": "address"
        }
      ],
      "stateMutability": "view",
      "type": "function"
    },
    {
      "inputs": [
        {
          "internalType": "address",
          "name": "",
          "type": "address"
        }
      ],
      "name": "userInvited",
      "outputs": [
        {
          "internalType": "uint256",
          "name": "count",
          "type": "uint256"
        }
      ],
      "stateMutability": "view",
      "type": "function"
    },
    {
      "inputs": [
        {
          "internalType": "uint256",
          "name": "stageNum",
          "type": "uint256"
        }
      ],
      "name": "getNFTLength",
      "outputs": [
        {
          "internalType": "uint256",
          "name": "",
          "type": "uint256"
        }
      ],
      "stateMutability": "view",
      "type": "function"
    },
    {
      "inputs": [
        {
          "internalType": "uint256",
          "name": "stageNum",
          "type": "uint256"
        },
        {
          "internalType": "uint256",
          "name": "begin",
          "type": "uint256"
        }
      ],
      "name": "getNFTList",
      "outputs": [
        {
          "internalType": "uint256[]",
          "name": "",
          "type": "uint256[]"
        }
      ],
      "stateMutability": "view",
      "type": "function"
    },
    {
      "inputs": [
        {
          "internalType": "uint256",
          "name": "stageNum",
          "type": "uint256"
        },
        {
          "internalType": "uint256",
          "name": "_drpcPrice",
          "type": "uint256"
        },
        {
          "internalType": "uint256",
          "name": "_usdtPrice",
          "type": "uint256"
        }
      ],
      "name": "setPrices",
      "outputs": [],
      "stateMutability": "nonpayable",
      "type": "function"
    },
    {
      "inputs": [
        {
          "internalType": "address",
          "name": "_nft",
          "type": "address"
        }
      ],
      "name": "setNFT",
      "outputs": [],
      "stateMutability": "nonpayable",
      "type": "function"
    },
    {
      "inputs": [
        {
          "internalType": "address",
          "name": "_drpc",
          "type": "address"
        }
      ],
      "name": "setCurrency",
      "outputs": [],
      "stateMutability": "nonpayable",
      "type": "function"
    },
    {
      "inputs": [
        {
          "internalType": "address",
          "name": "_incubator",
          "type": "address"
        }
      ],
      "name": "setIncubator",
      "outputs": [],
      "stateMutability": "nonpayable",
      "type": "function"
    },
    {
      "inputs": [
        {
          "internalType": "uint256",
          "name": "stageNum",
          "type": "uint256"
        },
        {
          "internalType": "uint256[]",
          "name": "_ids",
          "type": "uint256[]"
        }
      ],
      "name": "uploadNFTs",
      "outputs": [],
      "stateMutability": "nonpayable",
      "type": "function"
    },
    {
      "inputs": [
        {
          "internalType": "address",
          "name": "_token",
          "type": "address"
        },
        {
          "internalType": "address",
          "name": "to",
          "type": "address"
        },
        {
          "internalType": "uint256",
          "name": "_amount",
          "type": "uint256"
        }
      ],
      "name": "emergencyWithdraw",
      "outputs": [],
      "stateMutability": "nonpayable",
      "type": "function"
    },
    {
      "inputs": [
        {
          "internalType": "address",
          "name": "token",
          "type": "address"
        },
        {
          "internalType": "uint256",
          "name": "amount",
          "type": "uint256"
        },
        {
          "internalType": "uint256",
          "name": "stageNum",
          "type": "uint256"
        }
      ],
      "name": "openBox",
      "outputs": [
        {
          "internalType": "uint256",
          "name": "_tokenId",
          "type": "uint256"
        }
      ],
      "stateMutability": "nonpayable",
      "type": "function"
    },
    {
      "inputs": [
        {
          "internalType": "address",
          "name": "operator",
          "type": "address"
        },
        {
          "internalType": "address",
          "name": "from",
          "type": "address"
        },
        {
          "internalType": "address",
          "name": "",
          "type": "address"
        },
        {
          "internalType": "uint256",
          "name": "amount",
          "type": "uint256"
        },
        {
          "internalType": "bytes",
          "name": "userData",
          "type": "bytes"
        },
        {
          "internalType": "bytes",
          "name": "",
          "type": "bytes"
        }
      ],
      "name": "tokensReceived",
      "outputs": [],
      "stateMutability": "nonpayable",
      "type": "function"
    },
    {
      "inputs": [
        {
          "internalType": "address",
          "name": "_operator",
          "type": "address"
        },
        {
          "internalType": "address",
          "name": "_from",
          "type": "address"
        },
        {
          "internalType": "uint256",
          "name": "_id",
          "type": "uint256"
        },
        {
          "internalType": "uint256",
          "name": "",
          "type": "uint256"
        },
        {
          "internalType": "bytes",
          "name": "_data",
          "type": "bytes"
        }
      ],
      "name": "onERC1155Received",
      "outputs": [
        {
          "internalType": "bytes4",
          "name": "",
          "type": "bytes4"
        }
      ],
      "stateMutability": "nonpayable",
      "type": "function"
    },
    {
      "inputs": [
        {
          "internalType": "address",
          "name": "_operator",
          "type": "address"
        },
        {
          "internalType": "address",
          "name": "_from",
          "type": "address"
        },
        {
          "internalType": "uint256[]",
          "name": "_ids",
          "type": "uint256[]"
        },
        {
          "internalType": "uint256[]",
          "name": "",
          "type": "uint256[]"
        },
        {
          "internalType": "bytes",
          "name": "_data",
          "type": "bytes"
        }
      ],
      "name": "onERC1155BatchReceived",
      "outputs": [
        {
          "internalType": "bytes4",
          "name": "",
          "type": "bytes4"
        }
      ],
      "stateMutability": "nonpayable",
      "type": "function"
    },
    {
      "inputs": [
        {
          "internalType": "bytes4",
          "name": "",
          "type": "bytes4"
        }
      ],
      "name": "supportsInterface",
      "outputs": [
        {
          "internalType": "bool",
          "name": "",
          "type": "bool"
        }
      ],
      "stateMutability": "pure",
      "type": "function"
    }
  ],
  "bytecode": "0x60806040527388887ed889e776bcbe2f0f9932ecfabcdfcd1820600160006101000a81548173ffffffffffffffffffffffffffffffffffffffff021916908373ffffffffffffffffffffffffffffffffffffffff1602179055503480156200006657600080fd5b5060405162003dbf38038062003dbf83398181016040528101906200008c919062000219565b620000ac620000a06200013660201b60201c565b6200013e60201b60201c565b81600260006101000a81548173ffffffffffffffffffffffffffffffffffffffff021916908373ffffffffffffffffffffffffffffffffffffffff16021790555080600560006101000a81548173ffffffffffffffffffffffffffffffffffffffff021916908373ffffffffffffffffffffffffffffffffffffffff1602179055505050620002a8565b600033905090565b60008060009054906101000a900473ffffffffffffffffffffffffffffffffffffffff169050816000806101000a81548173ffffffffffffffffffffffffffffffffffffffff021916908373ffffffffffffffffffffffffffffffffffffffff1602179055508173ffffffffffffffffffffffffffffffffffffffff168173ffffffffffffffffffffffffffffffffffffffff167f8be0079c531659141344cd1fd0a4f28419497f9722a3daafe3b4186f6b6457e060405160405180910390a35050565b60008151905062000213816200028e565b92915050565b600080604083850312156200022d57600080fd5b60006200023d8582860162000202565b9250506020620002508582860162000202565b9150509250929050565b600062000267826200026e565b9050919050565b600073ffffffffffffffffffffffffffffffffffffffff82169050919050565b62000299816200025a565b8114620002a557600080fd5b50565b613b0780620002b86000396000f3fe608060405234801561001057600080fd5b50600436106101575760003560e01c806392e82687116100c3578063ebceda321161007c578063ebceda32146103d7578063ebfc098d146103f5578063ee8f0b7a14610425578063f23a6e6114610455578063f2fde38b14610485578063f56e9c66146104a157610157565b806392e8268714610305578063a88fe42d14610335578063b55e5af214610351578063bc197c811461036f578063e63ea4081461039f578063e8fed302146103bb57610157565b806340e27f821161011557806340e27f821461022e57806347ccca021461025e5780635d0c89321461027c578063715018a6146102ac578063845ddcb2146102b65780638da5cb5b146102e757610157565b806223de291461015c57806301ffc9a7146101785780630861e8dd146101a85780632dd8f123146101d85780632f48ab7d146101f45780632f84c39114610212575b600080fd5b61017660048036038101906101719190612504565b6104bd565b005b610192600480360381019061018d91906127ec565b6106b1565b60405161019f91906133e5565b60405180910390f35b6101c260048036038101906101bd9190612774565b6106bc565b6040516101cf91906136bd565b60405180910390f35b6101f260048036038101906101ed919061287a565b610935565b005b6101fc610bad565b60405161020991906132f0565b60405180910390f35b61022c600480360381019061022791906124db565b610bd3565b005b610248600480360381019061024391906124db565b610c93565b60405161025591906136bd565b60405180910390f35b610266610cb1565b60405161027391906132f0565b60405180910390f35b61029660048036038101906102919190612815565b610cd7565b6040516102a391906133e5565b60405180910390f35b6102b4610cf7565b005b6102d060048036038101906102cb9190612815565b610d7f565b6040516102de92919061370f565b60405180910390f35b6102ef610da3565b6040516102fc91906132f0565b60405180910390f35b61031f600480360381019061031a91906128d2565b610dcc565b60405161032c91906133c3565b60405180910390f35b61034f600480360381019061034a919061290e565b610fb0565b005b61035961105b565b60405161036691906132f0565b60405180910390f35b610389600480360381019061038491906125c7565b611081565b6040516103969190613400565b60405180910390f35b6103b960048036038101906103b49190612693565b6113a2565b005b6103d560048036038101906103d091906124db565b6114be565b005b6103df61157e565b6040516103ec91906132f0565b60405180910390f35b61040f600480360381019061040a9190612815565b6115a4565b60405161041c91906136bd565b60405180910390f35b61043f600480360381019061043a91906124db565b6115c4565b60405161044c91906132f0565b60405180910390f35b61046f600480360381019061046a91906126e2565b6115f7565b60405161047c9190613400565b60405180910390f35b61049f600480360381019061049a91906124db565b611834565b005b6104bb60048036038101906104b691906124db565b61192c565b005b604084849050146104cd576106a7565b8673ffffffffffffffffffffffffffffffffffffffff168873ffffffffffffffffffffffffffffffffffffffff161461053b576040517f08c379a0000000000000000000000000000000000000000000000000000000008152600401610532906134dd565b60405180910390fd5b600080858581019061054d919061283e565b809250819350505061055f89826119ec565b90506000600460009054906101000a900473ffffffffffffffffffffffffffffffffffffffff1673ffffffffffffffffffffffffffffffffffffffff163373ffffffffffffffffffffffffffffffffffffffff16141561063e576000600760008581526020019081526020016000206000015490506000811180156105e45750808910155b610623576040517f08c379a000000000000000000000000000000000000000000000000000000000815260040161061a9061351d565b60405180910390fd5b610636818a611c1290919063ffffffff16565b915050610679565b6040517f08c379a0000000000000000000000000000000000000000000000000000000008152600401610670906134fd565b60405180910390fd5b60005b818110156106a25761068e848c611c28565b50808061069a9061393a565b91505061067c565b505050505b5050505050505050565b600060019050919050565b600080600460009054906101000a900473ffffffffffffffffffffffffffffffffffffffff1673ffffffffffffffffffffffffffffffffffffffff168573ffffffffffffffffffffffffffffffffffffffff16141561079a576000600760008581526020019081526020016000206000015490506000811180156107405750808510155b61077f576040517f08c379a0000000000000000000000000000000000000000000000000000000008152600401610776906135bd565b60405180910390fd5b6107928186611c1290919063ffffffff16565b9150506108b1565b600560009054906101000a900473ffffffffffffffffffffffffffffffffffffffff1673ffffffffffffffffffffffffffffffffffffffff168573ffffffffffffffffffffffffffffffffffffffff1614156108755760006007600085815260200190815260200160002060010154905060008111801561081b5750808510155b61085a576040517f08c379a00000000000000000000000000000000000000000000000000000000081526004016108519061355d565b60405180910390fd5b61086d8186611c1290919063ffffffff16565b9150506108b0565b6040517f08c379a00000000000000000000000000000000000000000000000000000000081526004016108a79061367d565b60405180910390fd5b5b600181146108f4576040517f08c379a00000000000000000000000000000000000000000000000000000000081526004016108eb9061347d565b60405180910390fd5b6109213330868873ffffffffffffffffffffffffffffffffffffffff16611f22909392919063ffffffff16565b61092b8333611c28565b9150509392505050565b61093d611fab565b73ffffffffffffffffffffffffffffffffffffffff1661095b610da3565b73ffffffffffffffffffffffffffffffffffffffff16146109b1576040517f08c379a00000000000000000000000000000000000000000000000000000000081526004016109a8906135fd565b60405180910390fd5b60005b82829050811015610b5657600a60008484848181106109fc577f4e487b7100000000000000000000000000000000000000000000000000000000600052603260045260246000fd5b90506020020135815260200190815260200160002060009054906101000a900460ff1615610a5f576040517f08c379a0000000000000000000000000000000000000000000000000000000008152600401610a569061361d565b60405180910390fd5b60066000858152602001908152602001600020838383818110610aab577f4e487b7100000000000000000000000000000000000000000000000000000000600052603260045260246000fd5b9050602002013590806001815401808255809150506001900390600052602060002001600090919091909150556001600a6000858585818110610b17577f4e487b7100000000000000000000000000000000000000000000000000000000600052603260045260246000fd5b90506020020135815260200190815260200160002060006101000a81548160ff0219169083151502179055508080610b4e9061393a565b9150506109b4565b503373ffffffffffffffffffffffffffffffffffffffff167f240cffa13e2f7a3b80c0e5a7312645128930f637d9dc9f39918b6ec5d2fc870683839050604051610ba091906136bd565b60405180910390a2505050565b600560009054906101000a900473ffffffffffffffffffffffffffffffffffffffff1681565b610bdb611fab565b73ffffffffffffffffffffffffffffffffffffffff16610bf9610da3565b73ffffffffffffffffffffffffffffffffffffffff1614610c4f576040517f08c379a0000000000000000000000000000000000000000000000000000000008152600401610c46906135fd565b60405180910390fd5b80600460006101000a81548173ffffffffffffffffffffffffffffffffffffffff021916908373ffffffffffffffffffffffffffffffffffffffff16021790555050565b60096020528060005260406000206000915090508060000154905081565b600260009054906101000a900473ffffffffffffffffffffffffffffffffffffffff1681565b600a6020528060005260406000206000915054906101000a900460ff1681565b610cff611fab565b73ffffffffffffffffffffffffffffffffffffffff16610d1d610da3565b73ffffffffffffffffffffffffffffffffffffffff1614610d73576040517f08c379a0000000000000000000000000000000000000000000000000000000008152600401610d6a906135fd565b60405180910390fd5b610d7d6000611fb3565b565b60076020528060005260406000206000915090508060000154908060010154905082565b60008060009054906101000a900473ffffffffffffffffffffffffffffffffffffffff16905090565b606060008210158015610df45750600660008481526020019081526020016000208054905082105b610e33576040517f08c379a0000000000000000000000000000000000000000000000000000000008152600401610e2a9061357d565b60405180910390fd5b6000610e686006600086815260200190815260200160002080549050610e6360648661207790919063ffffffff16565b61208d565b905060008167ffffffffffffffff811115610eac577f4e487b7100000000000000000000000000000000000000000000000000000000600052604160045260246000fd5b604051908082528060200260200182016040528015610eda5781602001602082028036833780820191505090505b50905060008490505b82811015610fa457600660008781526020019081526020016000208181548110610f36577f4e487b7100000000000000000000000000000000000000000000000000000000600052603260045260246000fd5b9060005260206000200154828683610f4e919061383b565b81518110610f85577f4e487b7100000000000000000000000000000000000000000000000000000000600052603260045260246000fd5b6020026020010181815250508080610f9c9061393a565b915050610ee3565b50809250505092915050565b610fb8611fab565b73ffffffffffffffffffffffffffffffffffffffff16610fd6610da3565b73ffffffffffffffffffffffffffffffffffffffff161461102c576040517f08c379a0000000000000000000000000000000000000000000000000000000008152600401611023906135fd565b60405180910390fd5b600060076000858152602001908152602001600020905082816000018190555081816001018190555050505050565b600460009054906101000a900473ffffffffffffffffffffffffffffffffffffffff1681565b6000600260009054906101000a900473ffffffffffffffffffffffffffffffffffffffff1673ffffffffffffffffffffffffffffffffffffffff163373ffffffffffffffffffffffffffffffffffffffff1614611113576040517f08c379a000000000000000000000000000000000000000000000000000000000815260040161110a906135dd565b60405180910390fd5b600360009054906101000a900473ffffffffffffffffffffffffffffffffffffffff1673ffffffffffffffffffffffffffffffffffffffff168973ffffffffffffffffffffffffffffffffffffffff16141561138c576000838381019061117a9190612815565b905060005b8888905081101561133857600a60008a8a848181106111c7577f4e487b7100000000000000000000000000000000000000000000000000000000600052603260045260246000fd5b90506020020135815260200190815260200160002060009054906101000a900460ff161561122a576040517f08c379a00000000000000000000000000000000000000000000000000000000081526004016112219061369d565b60405180910390fd5b60066000838152602001908152602001600020898983818110611276577f4e487b7100000000000000000000000000000000000000000000000000000000600052603260045260246000fd5b9050602002013590806001815401808255809150506001900390600052602060002001600090919091909150556001600a60008b8b858181106112e2577f4e487b7100000000000000000000000000000000000000000000000000000000600052603260045260246000fd5b90506020020135815260200190815260200160002060006101000a81548160ff02191690831515021790555061132460018361131e91906137b4565b8b611c28565b5080806113309061393a565b91505061117f565b508873ffffffffffffffffffffffffffffffffffffffff167fbad019cd9b6f597046eb894f2cc950047712375fc3cc3dd714460ed263b53ae88989905060405161138291906136bd565b60405180910390a2505b63bc197c8160e01b905098975050505050505050565b6113aa611fab565b73ffffffffffffffffffffffffffffffffffffffff166113c8610da3565b73ffffffffffffffffffffffffffffffffffffffff161461141e576040517f08c379a0000000000000000000000000000000000000000000000000000000008152600401611415906135fd565b60405180910390fd5b600073ffffffffffffffffffffffffffffffffffffffff168273ffffffffffffffffffffffffffffffffffffffff16141561148e576040517f08c379a00000000000000000000000000000000000000000000000000000000081526004016114859061359d565b60405180910390fd5b6114b982828573ffffffffffffffffffffffffffffffffffffffff166120a69092919063ffffffff16565b505050565b6114c6611fab565b73ffffffffffffffffffffffffffffffffffffffff166114e4610da3565b73ffffffffffffffffffffffffffffffffffffffff161461153a576040517f08c379a0000000000000000000000000000000000000000000000000000000008152600401611531906135fd565b60405180910390fd5b80600360006101000a81548173ffffffffffffffffffffffffffffffffffffffff021916908373ffffffffffffffffffffffffffffffffffffffff16021790555050565b600360009054906101000a900473ffffffffffffffffffffffffffffffffffffffff1681565b600060066000838152602001908152602001600020805490509050919050565b60086020528060005260406000206000915054906101000a900473ffffffffffffffffffffffffffffffffffffffff1681565b6000600260009054906101000a900473ffffffffffffffffffffffffffffffffffffffff1673ffffffffffffffffffffffffffffffffffffffff163373ffffffffffffffffffffffffffffffffffffffff1614611689576040517f08c379a0000000000000000000000000000000000000000000000000000000008152600401611680906135dd565b60405180910390fd5b600360009054906101000a900473ffffffffffffffffffffffffffffffffffffffff1673ffffffffffffffffffffffffffffffffffffffff168773ffffffffffffffffffffffffffffffffffffffff16141561182057600a600086815260200190815260200160002060009054906101000a900460ff1615611740576040517f08c379a00000000000000000000000000000000000000000000000000000000081526004016117379061343d565b60405180910390fd5b600083838101906117519190612815565b9050600660008281526020019081526020016000208690806001815401808255809150506001900390600052602060002001600090919091909150556001600a600088815260200190815260200160002060006101000a81548160ff0219169083151502179055506117cf6001826117c991906137b4565b88611c28565b508673ffffffffffffffffffffffffffffffffffffffff167fd6e67546cc933648cd58d18fcc7ed5a42f5a30575a19a5f5efa587f2cb695cb08760405161181691906136bd565b60405180910390a2505b63f23a6e6160e01b90509695505050505050565b61183c611fab565b73ffffffffffffffffffffffffffffffffffffffff1661185a610da3565b73ffffffffffffffffffffffffffffffffffffffff16146118b0576040517f08c379a00000000000000000000000000000000000000000000000000000000081526004016118a7906135fd565b60405180910390fd5b600073ffffffffffffffffffffffffffffffffffffffff168173ffffffffffffffffffffffffffffffffffffffff161415611920576040517f08c379a0000000000000000000000000000000000000000000000000000000008152600401611917906134bd565b60405180910390fd5b61192981611fb3565b50565b611934611fab565b73ffffffffffffffffffffffffffffffffffffffff16611952610da3565b73ffffffffffffffffffffffffffffffffffffffff16146119a8576040517f08c379a000000000000000000000000000000000000000000000000000000000815260040161199f906135fd565b60405180910390fd5b80600260006101000a81548173ffffffffffffffffffffffffffffffffffffffff021916908373ffffffffffffffffffffffffffffffffffffffff16021790555050565b600080600860008573ffffffffffffffffffffffffffffffffffffffff1673ffffffffffffffffffffffffffffffffffffffff16815260200190815260200160002060009054906101000a900473ffffffffffffffffffffffffffffffffffffffff169050600073ffffffffffffffffffffffffffffffffffffffff168173ffffffffffffffffffffffffffffffffffffffff16148015611aba5750600073ffffffffffffffffffffffffffffffffffffffff168373ffffffffffffffffffffffffffffffffffffffff1614155b15611b995782905080600860008673ffffffffffffffffffffffffffffffffffffffff1673ffffffffffffffffffffffffffffffffffffffff16815260200190815260200160002060006101000a81548173ffffffffffffffffffffffffffffffffffffffff021916908373ffffffffffffffffffffffffffffffffffffffff160217905550600960008273ffffffffffffffffffffffffffffffffffffffff1673ffffffffffffffffffffffffffffffffffffffff1681526020019081526020016000206000016000815480929190611b939061393a565b91905055505b8373ffffffffffffffffffffffffffffffffffffffff168173ffffffffffffffffffffffffffffffffffffffff161415611c08576040517f08c379a0000000000000000000000000000000000000000000000000000000008152600401611bff9061345d565b60405180910390fd5b8091505092915050565b60008183611c20919061380a565b905092915050565b6000806006600085815260200190815260200160002080549050905060008111611c87576040517f08c379a0000000000000000000000000000000000000000000000000000000008152600401611c7e9061349d565b60405180910390fd5b6000611c93848361212c565b9050600660008681526020019081526020016000208181548110611ce0577f4e487b7100000000000000000000000000000000000000000000000000000000600052603260045260246000fd5b9060005260206000200154925060066000868152602001908152602001600020600183611d0d919061383b565b81548110611d44577f4e487b7100000000000000000000000000000000000000000000000000000000600052603260045260246000fd5b9060005260206000200154600660008781526020019081526020016000208281548110611d9a577f4e487b7100000000000000000000000000000000000000000000000000000000600052603260045260246000fd5b906000526020600020018190555060066000868152602001908152602001600020805480611df1577f4e487b7100000000000000000000000000000000000000000000000000000000600052603160045260246000fd5b600190038181906000526020600020016000905590556000600a600085815260200190815260200160002060006101000a81548160ff021916908315150217905550600260009054906101000a900473ffffffffffffffffffffffffffffffffffffffff1673ffffffffffffffffffffffffffffffffffffffff1663f242432a30868660016040518563ffffffff1660e01b8152600401611e959493929190613342565b600060405180830381600087803b158015611eaf57600080fd5b505af1158015611ec3573d6000803e3d6000fd5b505050508373ffffffffffffffffffffffffffffffffffffffff167fe4f385f04d0697fc461f45259fd5d5450e454ab09b5932b6298ce6050e5273d484600188604051611f12939291906136d8565b60405180910390a2505092915050565b611fa5846323b872dd60e01b858585604051602401611f439392919061330b565b604051602081830303815290604052907bffffffffffffffffffffffffffffffffffffffffffffffffffffffff19166020820180517bffffffffffffffffffffffffffffffffffffffffffffffffffffffff8381831617835250505050612171565b50505050565b600033905090565b60008060009054906101000a900473ffffffffffffffffffffffffffffffffffffffff169050816000806101000a81548173ffffffffffffffffffffffffffffffffffffffff021916908373ffffffffffffffffffffffffffffffffffffffff1602179055508173ffffffffffffffffffffffffffffffffffffffff168173ffffffffffffffffffffffffffffffffffffffff167f8be0079c531659141344cd1fd0a4f28419497f9722a3daafe3b4186f6b6457e060405160405180910390a35050565b6000818361208591906137b4565b905092915050565b600081831061209c578161209e565b825b905092915050565b6121278363a9059cbb60e01b84846040516024016120c592919061339a565b604051602081830303815290604052907bffffffffffffffffffffffffffffffffffffffffffffffffffffffff19166020820180517bffffffffffffffffffffffffffffffffffffffffffffffffffffffff8381831617835250505050612171565b505050565b60008183434244604051602001612146949392919061328b565b6040516020818303038152906040528051906020012060001c61216991906139b1565b905092915050565b60006121d3826040518060400160405280602081526020017f5361666545524332303a206c6f772d6c6576656c2063616c6c206661696c65648152508573ffffffffffffffffffffffffffffffffffffffff166122389092919063ffffffff16565b905060008151111561223357808060200190518101906121f391906127c3565b612232576040517f08c379a00000000000000000000000000000000000000000000000000000000081526004016122299061365d565b60405180910390fd5b5b505050565b60606122478484600085612250565b90509392505050565b606082471015612295576040517f08c379a000000000000000000000000000000000000000000000000000000000815260040161228c9061353d565b60405180910390fd5b61229e85612364565b6122dd576040517f08c379a00000000000000000000000000000000000000000000000000000000081526004016122d49061363d565b60405180910390fd5b6000808673ffffffffffffffffffffffffffffffffffffffff16858760405161230691906132d9565b60006040518083038185875af1925050503d8060008114612343576040519150601f19603f3d011682016040523d82523d6000602084013e612348565b606091505b5091509150612358828286612377565b92505050949350505050565b600080823b905060008111915050919050565b60608315612387578290506123d7565b60008351111561239a5782518084602001fd5b816040517f08c379a00000000000000000000000000000000000000000000000000000000081526004016123ce919061341b565b60405180910390fd5b9392505050565b6000813590506123ed81613a5e565b92915050565b60008135905061240281613a75565b92915050565b60008083601f84011261241a57600080fd5b8235905067ffffffffffffffff81111561243357600080fd5b60208301915083602082028301111561244b57600080fd5b9250929050565b60008151905061246181613a8c565b92915050565b60008135905061247681613aa3565b92915050565b60008083601f84011261248e57600080fd5b8235905067ffffffffffffffff8111156124a757600080fd5b6020830191508360018202830111156124bf57600080fd5b9250929050565b6000813590506124d581613aba565b92915050565b6000602082840312156124ed57600080fd5b60006124fb848285016123de565b91505092915050565b60008060008060008060008060c0898b03121561252057600080fd5b600061252e8b828c016123de565b985050602061253f8b828c016123de565b97505060406125508b828c016123de565b96505060606125618b828c016124c6565b955050608089013567ffffffffffffffff81111561257e57600080fd5b61258a8b828c0161247c565b945094505060a089013567ffffffffffffffff8111156125a957600080fd5b6125b58b828c0161247c565b92509250509295985092959890939650565b60008060008060008060008060a0898b0312156125e357600080fd5b60006125f18b828c016123de565b98505060206126028b828c016123de565b975050604089013567ffffffffffffffff81111561261f57600080fd5b61262b8b828c01612408565b9650965050606089013567ffffffffffffffff81111561264a57600080fd5b6126568b828c01612408565b9450945050608089013567ffffffffffffffff81111561267557600080fd5b6126818b828c0161247c565b92509250509295985092959890939650565b6000806000606084860312156126a857600080fd5b60006126b6868287016123de565b93505060206126c7868287016123de565b92505060406126d8868287016124c6565b9150509250925092565b60008060008060008060a087890312156126fb57600080fd5b600061270989828a016123de565b965050602061271a89828a016123de565b955050604061272b89828a016124c6565b945050606061273c89828a016124c6565b935050608087013567ffffffffffffffff81111561275957600080fd5b61276589828a0161247c565b92509250509295509295509295565b60008060006060848603121561278957600080fd5b6000612797868287016123de565b93505060206127a8868287016124c6565b92505060406127b9868287016124c6565b9150509250925092565b6000602082840312156127d557600080fd5b60006127e384828501612452565b91505092915050565b6000602082840312156127fe57600080fd5b600061280c84828501612467565b91505092915050565b60006020828403121561282757600080fd5b6000612835848285016124c6565b91505092915050565b6000806040838503121561285157600080fd5b600061285f858286016124c6565b9250506020612870858286016123f3565b9150509250929050565b60008060006040848603121561288f57600080fd5b600061289d868287016124c6565b935050602084013567ffffffffffffffff8111156128ba57600080fd5b6128c686828701612408565b92509250509250925092565b600080604083850312156128e557600080fd5b60006128f3858286016124c6565b9250506020612904858286016124c6565b9150509250929050565b60008060006060848603121561292357600080fd5b6000612931868287016124c6565b9350506020612942868287016124c6565b9250506040612953868287016124c6565b9150509250925092565b60006129698383613256565b60208301905092915050565b61297e8161386f565b82525050565b6129956129908261386f565b613983565b82525050565b60006129a682613748565b6129b08185613776565b93506129bb83613738565b8060005b838110156129ec5781516129d3888261295d565b97506129de83613769565b9250506001810190506129bf565b5085935050505092915050565b612a0281613893565b82525050565b612a118161389f565b82525050565b6000612a2282613753565b612a2c8185613798565b9350612a3c818560208601613907565b80840191505092915050565b612a51816138f5565b82525050565b6000612a628261375e565b612a6c81856137a3565b9350612a7c818560208601613907565b612a8581613a40565b840191505092915050565b6000612a9d6032836137a3565b91507f4e4654426c696e64426f78236f6e4552433131353552656365697665643a206e60008301527f667420616c7265616479206f6e2073616c6500000000000000000000000000006020830152604082019050919050565b6000612b03602b836137a3565b91507f4e4654426c696e64426f78235f696e766974653a20696e766974652063616e2060008301527f6e6f742062652073656c660000000000000000000000000000000000000000006020830152604082019050919050565b6000612b696031836137a3565b91507f4e4654426c696e64426f78236f70656e426f783a206c696d6974206f6e65207060008301527f7572636861736520617420612074696d650000000000000000000000000000006020830152604082019050919050565b6000612bcf6028836137a3565b91507f4e4654426c696e64426f78235f6c75636b79447261773a20416c72656164792060008301527f736f6c64206f75740000000000000000000000000000000000000000000000006020830152604082019050919050565b6000612c356026836137a3565b91507f4f776e61626c653a206e6577206f776e657220697320746865207a65726f206160008301527f64647265737300000000000000000000000000000000000000000000000000006020830152604082019050919050565b6000612c9b6027836137a3565b91507f4e4654426c696e64426f7823746f6b656e7352656365697665643a206f6e6c7960008301527f2077616c6c6574000000000000000000000000000000000000000000000000006020830152604082019050919050565b6000612d016034836137a3565b91507f4e4654426c696e64426f7823746f6b656e7352656365697665643a207061792060008301527f746f6b656e206973206e6f7420636f72726563740000000000000000000000006020830152604082019050919050565b6000612d67603f836137a3565b91507f4e4654426c696e64426f7823746f6b656e7352656365697665643a207061796d60008301527f656e7420616d6f756e74206c657373207468616e2064727063207072696365006020830152604082019050919050565b6000612dcd6026836137a3565b91507f416464726573733a20696e73756666696369656e742062616c616e636520666f60008301527f722063616c6c00000000000000000000000000000000000000000000000000006020830152604082019050919050565b6000612e336038836137a3565b91507f4e4654426c696e64426f78236f70656e426f783a207061796d656e7420616d6f60008301527f756e74206c657373207468616e207573647420707269636500000000000000006020830152604082019050919050565b6000612e99602d836137a3565b91507f4e4654426c696e64426f78236765744e46544c6973743a204e4654734c69737460008301527f206f7574206f662072616e6765000000000000000000000000000000000000006020830152604082019050919050565b6000612eff6031836137a3565b91507f4e4654426c696e64426f7823656d657267656e637957697468647261773a207460008301527f6f2061646472657373206973207a65726f0000000000000000000000000000006020830152604082019050919050565b6000612f656038836137a3565b91507f4e4654426c696e64426f78236f70656e426f783a207061796d656e7420616d6f60008301527f756e74206c657373207468616e206472706320707269636500000000000000006020830152604082019050919050565b6000612fcb6037836137a3565b91507f4e4654426c696e64426f78236f6e4552433131353552656365697665643a206f60008301527f6e6c792072656365697665206e667420666163746f72790000000000000000006020830152604082019050919050565b60006130316020836137a3565b91507f4f776e61626c653a2063616c6c6572206973206e6f7420746865206f776e65726000830152602082019050919050565b6000613071600083613787565b9150600082019050919050565b600061308b602b836137a3565b91507f4e4654426c696e64426f782375706c6f61644e6674733a206e667420616c726560008301527f616479206f6e2073616c650000000000000000000000000000000000000000006020830152604082019050919050565b60006130f1601d836137a3565b91507f416464726573733a2063616c6c20746f206e6f6e2d636f6e74726163740000006000830152602082019050919050565b6000613131602a836137a3565b91507f5361666545524332303a204552433230206f7065726174696f6e20646964206e60008301527f6f742073756363656564000000000000000000000000000000000000000000006020830152604082019050919050565b6000613197602d836137a3565b91507f4e4654426c696e64426f78236f70656e426f783a2070617920746f6b656e206960008301527f73206e6f7420636f7272656374000000000000000000000000000000000000006020830152604082019050919050565b60006131fd6037836137a3565b91507f4e4654426c696e64426f78236f6e45524331313535426174636852656365697660008301527f65643a206e667420616c7265616479206f6e2073616c650000000000000000006020830152604082019050919050565b61325f816138eb565b82525050565b61326e816138eb565b82525050565b613285613280826138eb565b6139a7565b82525050565b60006132978287612984565b6014820191506132a78286613274565b6020820191506132b78285613274565b6020820191506132c78284613274565b60208201915081905095945050505050565b60006132e58284612a17565b915081905092915050565b60006020820190506133056000830184612975565b92915050565b60006060820190506133206000830186612975565b61332d6020830185612975565b61333a6040830184613265565b949350505050565b600060a0820190506133576000830187612975565b6133646020830186612975565b6133716040830185613265565b61337e6060830184612a48565b818103608083015261338f81613064565b905095945050505050565b60006040820190506133af6000830185612975565b6133bc6020830184613265565b9392505050565b600060208201905081810360008301526133dd818461299b565b905092915050565b60006020820190506133fa60008301846129f9565b92915050565b60006020820190506134156000830184612a08565b92915050565b600060208201905081810360008301526134358184612a57565b905092915050565b6000602082019050818103600083015261345681612a90565b9050919050565b6000602082019050818103600083015261347681612af6565b9050919050565b6000602082019050818103600083015261349681612b5c565b9050919050565b600060208201905081810360008301526134b681612bc2565b9050919050565b600060208201905081810360008301526134d681612c28565b9050919050565b600060208201905081810360008301526134f681612c8e565b9050919050565b6000602082019050818103600083015261351681612cf4565b9050919050565b6000602082019050818103600083015261353681612d5a565b9050919050565b6000602082019050818103600083015261355681612dc0565b9050919050565b6000602082019050818103600083015261357681612e26565b9050919050565b6000602082019050818103600083015261359681612e8c565b9050919050565b600060208201905081810360008301526135b681612ef2565b9050919050565b600060208201905081810360008301526135d681612f58565b9050919050565b600060208201905081810360008301526135f681612fbe565b9050919050565b6000602082019050818103600083015261361681613024565b9050919050565b600060208201905081810360008301526136368161307e565b9050919050565b60006020820190508181036000830152613656816130e4565b9050919050565b6000602082019050818103600083015261367681613124565b9050919050565b600060208201905081810360008301526136968161318a565b9050919050565b600060208201905081810360008301526136b6816131f0565b9050919050565b60006020820190506136d26000830184613265565b92915050565b60006060820190506136ed6000830186613265565b6136fa6020830185612a48565b6137076040830184613265565b949350505050565b60006040820190506137246000830185613265565b6137316020830184613265565b9392505050565b6000819050602082019050919050565b600081519050919050565b600081519050919050565b600081519050919050565b6000602082019050919050565b600082825260208201905092915050565b600082825260208201905092915050565b600081905092915050565b600082825260208201905092915050565b60006137bf826138eb565b91506137ca836138eb565b9250827fffffffffffffffffffffffffffffffffffffffffffffffffffffffffffffffff038211156137ff576137fe6139e2565b5b828201905092915050565b6000613815826138eb565b9150613820836138eb565b9250826138305761382f613a11565b5b828204905092915050565b6000613846826138eb565b9150613851836138eb565b925082821015613864576138636139e2565b5b828203905092915050565b600061387a826138cb565b9050919050565b600061388c826138cb565b9050919050565b60008115159050919050565b60007fffffffff0000000000000000000000000000000000000000000000000000000082169050919050565b600073ffffffffffffffffffffffffffffffffffffffff82169050919050565b6000819050919050565b6000613900826138eb565b9050919050565b60005b8381101561392557808201518184015260208101905061390a565b83811115613934576000848401525b50505050565b6000613945826138eb565b91507fffffffffffffffffffffffffffffffffffffffffffffffffffffffffffffffff821415613978576139776139e2565b5b600182019050919050565b600061398e82613995565b9050919050565b60006139a082613a51565b9050919050565b6000819050919050565b60006139bc826138eb565b91506139c7836138eb565b9250826139d7576139d6613a11565b5b828206905092915050565b7f4e487b7100000000000000000000000000000000000000000000000000000000600052601160045260246000fd5b7f4e487b7100000000000000000000000000000000000000000000000000000000600052601260045260246000fd5b6000601f19601f8301169050919050565b60008160601b9050919050565b613a678161386f565b8114613a7257600080fd5b50565b613a7e81613881565b8114613a8957600080fd5b50565b613a9581613893565b8114613aa057600080fd5b50565b613aac8161389f565b8114613ab757600080fd5b50565b613ac3816138eb565b8114613ace57600080fd5b5056fea2646970667358221220757177a6033d5f4ddb329a60d30891e3a3e8bd23e2c700c0109bbb5098f5565464736f6c63430008000033",
  "immutableReferences": {},
  "source": "// SPDX-License-Identifier: MIT\r\n\r\npragma solidity ^0.8.0;\r\n\r\nimport \"openzeppelin-solidity/contracts/access/Ownable.sol\";\r\nimport \"openzeppelin-solidity/contracts/utils/Address.sol\";\r\nimport \"openzeppelin-solidity/contracts/utils/math/Math.sol\";\r\nimport \"openzeppelin-solidity/contracts/utils/math/SafeMath.sol\";\r\nimport \"openzeppelin-solidity/contracts/utils/introspection/IERC1820Registry.sol\";\r\nimport \"openzeppelin-solidity/contracts/token/ERC20/utils/SafeERC20.sol\";\r\nimport \"openzeppelin-solidity/contracts/token/ERC20/IERC20.sol\";\r\nimport \"openzeppelin-solidity/contracts/token/ERC777/IERC777.sol\";\r\nimport \"openzeppelin-solidity/contracts/token/ERC777/IERC777Recipient.sol\";\r\nimport \"openzeppelin-solidity/contracts/token/ERC1155/IERC1155.sol\";\r\nimport \"openzeppelin-solidity/contracts/token/ERC1155/IERC1155Receiver.sol\";\r\n\r\ncontract NFTBlindBox is IERC777Recipient, IERC1155Receiver, Ownable {\r\n    using SafeMath for uint256;\r\n    using SafeERC20 for IERC20;\r\n\r\n    bytes4 internal constant ERC1155_RECEIVED_VALUE = 0xf23a6e61;\r\n    bytes4 internal constant ERC1155_BATCH_RECEIVED_VALUE = 0xbc197c81;\r\n\r\n    IERC1820Registry private _erc1820 =\r\n        IERC1820Registry(0x88887eD889e776bCBe2f0f9932EcFaBcDfCd1820);\r\n    // keccak256(\"ERC777TokensRecipient\")\r\n    bytes32 private constant TOKENS_RECIPIENT_INTERFACE_HASH =\r\n        0xb281fc8c12954d22544db45de3159a39272895b169a852b314f9cc762e44c53b;\r\n\r\n    address public nft;\r\n\r\n    address public incubator;\r\n    // drepublic coin\r\n    address public drpc;\r\n    // usdt\r\n    address public usdt;\r\n\r\n    struct StageInfo {\r\n        uint256 drpcPrice;\r\n        uint256 usdtPrice;\r\n    }\r\n\r\n    struct InviteInfo {\r\n        uint256 count;\r\n    }\r\n\r\n    // stageNum => NFTs\r\n    mapping(uint256 => uint256[]) private nftIds;\r\n    // stageNum => stageInfo\r\n    mapping(uint256 => StageInfo) public stages;\r\n    mapping(address => address) public inviter;\r\n    mapping(address => InviteInfo) public userInvited;\r\n    mapping(uint256 => bool) public nftOnSale;\r\n\r\n    event LuckyDrawNFT(\r\n        address indexed to,\r\n        uint256 tokenId,\r\n        uint256 value,\r\n        uint256 stageNum\r\n    );\r\n    event BatchUploadNFT(address indexed from, uint256 count);\r\n    event ReturnNFT(address indexed from, uint256 id);\r\n    event BatchReturnNFT(address indexed from, uint256 count);\r\n\r\n    modifier onlyIncubator() {\r\n        require(incubator == _msgSender(), \"caller is not the incubator\");\r\n        _;\r\n    }\r\n\r\n    constructor(address _nft, address _usdt) {\r\n        nft = _nft;\r\n        usdt = _usdt;\r\n\r\n        //        _erc1820.setInterfaceImplementer(\r\n        //            address(this),\r\n        //            TOKENS_RECIPIENT_INTERFACE_HASH,\r\n        //            address(this)\r\n        //        );\r\n    }\r\n\r\n    function getNFTLength(uint256 stageNum) public view returns (uint256) {\r\n        return nftIds[stageNum].length;\r\n    }\r\n\r\n    function getNFTList(uint256 stageNum, uint256 begin)\r\n        public\r\n        view\r\n        returns (uint256[] memory)\r\n    {\r\n        require(\r\n            begin >= 0 && begin < nftIds[stageNum].length,\r\n            \"NFTBlindBox#getNFTList: NFTsList out of range\"\r\n        );\r\n        uint256 range = Math.min(nftIds[stageNum].length, begin.add(100));\r\n        uint256[] memory res = new uint256[](range);\r\n        for (uint256 i = begin; i < range; i++) {\r\n            res[i - begin] = nftIds[stageNum][i];\r\n        }\r\n        return res;\r\n    }\r\n\r\n    function setPrices(\r\n        uint256 stageNum,\r\n        uint256 _drpcPrice,\r\n        uint256 _usdtPrice\r\n    ) external onlyOwner {\r\n        StageInfo storage stageInfo = stages[stageNum];\r\n        stageInfo.drpcPrice = _drpcPrice;\r\n        stageInfo.usdtPrice = _usdtPrice;\r\n    }\r\n\r\n    function setNFT(address _nft) external onlyOwner {\r\n        nft = _nft;\r\n    }\r\n\r\n    function setCurrency(address _drpc) external onlyOwner {\r\n        drpc = _drpc;\r\n    }\r\n\r\n    function setIncubator(address _incubator) external onlyOwner {\r\n        incubator = _incubator;\r\n    }\r\n\r\n    function uploadNFTs(uint256 stageNum, uint256[] calldata _ids)\r\n        external\r\n        onlyOwner\r\n    {\r\n        for (uint256 i = 0; i < _ids.length; i++) {\r\n            require(\r\n                !nftOnSale[_ids[i]],\r\n                \"NFTBlindBox#uploadNfts: nft already on sale\"\r\n            );\r\n            nftIds[stageNum].push(_ids[i]);\r\n            nftOnSale[_ids[i]] = true;\r\n        }\r\n        emit BatchUploadNFT(msg.sender, _ids.length);\r\n    }\r\n\r\n    // Withdraw EMERGENCY ONLY.\r\n    function emergencyWithdraw(\r\n        address _token,\r\n        address to,\r\n        uint256 _amount\r\n    ) external onlyOwner {\r\n        require(\r\n            to != address(0),\r\n            \"NFTBlindBox#emergencyWithdraw: to address is zero\"\r\n        );\r\n        IERC20(_token).safeTransfer(to, _amount);\r\n    }\r\n\r\n    function _seed(address _user, uint256 _supply)\r\n        internal\r\n        view\r\n        returns (uint256)\r\n    {\r\n        return\r\n            uint256(\r\n                uint256(\r\n                    keccak256(\r\n                        abi.encodePacked(\r\n                            _user,\r\n                            block.number,\r\n                            block.timestamp,\r\n                            block.difficulty\r\n                        )\r\n                    )\r\n                ) % _supply\r\n            );\r\n    }\r\n\r\n    function _luckyDraw(uint256 stageNum, address _from)\r\n        internal\r\n        returns (uint256 _tokenId)\r\n    {\r\n        uint256 length = nftIds[stageNum].length;\r\n        require(length > 0, \"NFTBlindBox#_luckyDraw: Already sold out\");\r\n        uint256 _index = _seed(_from, length);\r\n        _tokenId = nftIds[stageNum][_index];\r\n        nftIds[stageNum][_index] = nftIds[stageNum][length - 1];\r\n        nftIds[stageNum].pop();\r\n        nftOnSale[_tokenId] = false;\r\n        IERC1155(nft).safeTransferFrom(address(this), _from, _tokenId, 1, \"\");\r\n        emit LuckyDrawNFT(_from, _tokenId, 1, stageNum);\r\n    }\r\n\r\n    function _invite(address from, address _inviter)\r\n        internal\r\n        returns (address)\r\n    {\r\n        address reward_to = inviter[from];\r\n        if (reward_to == address(0) && _inviter != address(0)) {\r\n            reward_to = _inviter;\r\n            inviter[from] = reward_to;\r\n            userInvited[reward_to].count++;\r\n        }\r\n        require(\r\n            reward_to != from,\r\n            \"NFTBlindBox#_invite: invite can not be self\"\r\n        );\r\n        return reward_to;\r\n    }\r\n\r\n    function openBox(\r\n        address token,\r\n        uint256 amount,\r\n        uint256 stageNum\r\n    ) external returns (uint256 _tokenId) {\r\n        uint256 count;\r\n        if (token == drpc) {\r\n            uint256 drpcPrice = stages[stageNum].drpcPrice;\r\n            require(\r\n                drpcPrice > 0 && amount >= drpcPrice,\r\n                \"NFTBlindBox#openBox: payment amount less than drpc price\"\r\n            );\r\n            count = amount.div(drpcPrice);\r\n        } else if (token == usdt) {\r\n            uint256 usdtPrice = stages[stageNum].usdtPrice;\r\n            require(\r\n                usdtPrice > 0 && amount >= usdtPrice,\r\n                \"NFTBlindBox#openBox: payment amount less than usdt price\"\r\n            );\r\n            count = amount.div(usdtPrice);\r\n        } else {\r\n            revert(\"NFTBlindBox#openBox: pay token is not correct\");\r\n        }\r\n        require(\r\n            count == 1,\r\n            \"NFTBlindBox#openBox: limit one purchase at a time\"\r\n        );\r\n        IERC20(token).safeTransferFrom(msg.sender, address(this), amount);\r\n\r\n        _tokenId = _luckyDraw(stageNum, msg.sender);\r\n    }\r\n\r\n    // erc777 receiveToken\r\n    function tokensReceived(\r\n        address operator,\r\n        address from,\r\n        address, /*to*/\r\n        uint256 amount,\r\n        bytes calldata userData,\r\n        bytes calldata /*_operatorData*/\r\n    ) external override {\r\n        if (userData.length != 64) {\r\n            return;\r\n        }\r\n        require(operator == from, \"NFTBlindBox#tokensReceived: only wallet\");\r\n        uint256 stageNum;\r\n        address _inviter;\r\n        (stageNum, _inviter) = abi.decode(userData, (uint256, address));\r\n        _inviter = _invite(from, _inviter);\r\n        uint256 count;\r\n        if (msg.sender == drpc) {\r\n            uint256 drpcPrice = stages[stageNum].drpcPrice;\r\n            require(\r\n                drpcPrice > 0 && amount >= drpcPrice,\r\n                \"NFTBlindBox#tokensReceived: payment amount less than drpc price\"\r\n            );\r\n            count = amount.div(drpcPrice);\r\n        } else {\r\n            revert(\"NFTBlindBox#tokensReceived: pay token is not correct\");\r\n        }\r\n        for (uint256 i = 0; i < count; i++) {\r\n            _luckyDraw(stageNum, from);\r\n        }\r\n    }\r\n\r\n    function onERC1155Received(\r\n        address _operator,\r\n        address _from,\r\n        uint256 _id,\r\n        uint256, /*_amount*/\r\n        bytes calldata _data\r\n    ) external override returns (bytes4) {\r\n        require(\r\n            msg.sender == nft,\r\n            \"NFTBlindBox#onERC1155Received: only receive nft factory\"\r\n        );\r\n        if (_operator == incubator) {\r\n            require(\r\n                !nftOnSale[_id],\r\n                \"NFTBlindBox#onERC1155Received: nft already on sale\"\r\n            );\r\n            uint256 stageNum = abi.decode(_data, (uint256));\r\n            nftIds[stageNum].push(_id);\r\n            nftOnSale[_id] = true;\r\n            _luckyDraw(stageNum + 1, _from);\r\n            emit ReturnNFT(_from, _id);\r\n        }\r\n\r\n        return ERC1155_RECEIVED_VALUE;\r\n    }\r\n\r\n    function onERC1155BatchReceived(\r\n        address _operator,\r\n        address _from,\r\n        uint256[] calldata _ids,\r\n        uint256[] calldata, /*_amounts*/\r\n        bytes calldata _data\r\n    ) external override returns (bytes4) {\r\n        require(\r\n            msg.sender == nft,\r\n            \"NFTBlindBox#onERC1155Received: only receive nft factory\"\r\n        );\r\n        if (_operator == incubator) {\r\n            uint256 stageNum = abi.decode(_data, (uint256));\r\n            for (uint256 i = 0; i < _ids.length; i++) {\r\n                require(\r\n                    !nftOnSale[_ids[i]],\r\n                    \"NFTBlindBox#onERC1155BatchReceived: nft already on sale\"\r\n                );\r\n                nftIds[stageNum].push(_ids[i]);\r\n                nftOnSale[_ids[i]] = true;\r\n                _luckyDraw(stageNum + 1, _from);\r\n            }\r\n            emit BatchReturnNFT(_from, _ids.length);\r\n        }\r\n\r\n        return ERC1155_BATCH_RECEIVED_VALUE;\r\n    }\r\n\r\n    function supportsInterface(\r\n        bytes4 /*interfaceID*/\r\n    ) external pure override returns (bool) {\r\n        return true;\r\n    }\r\n}\r\n",
  "sourcePath": "D:\\MetaNFT\\MetaNFT\\contracts\\NFTBlindBox.sol",
  "compiler": {
    "name": "solc",
    "version": "0.8.0+commit.c7dfd78e.Emscripten.clang"
  },
  "schemaVersion": "3.4.3",
  "updatedAt": "2021-09-22T09:26:17.250Z",
  "devdoc": {
    "kind": "dev",
    "methods": {
      "owner()": {
        "details": "Returns the address of the current owner."
      },
      "renounceOwnership()": {
        "details": "Leaves the contract without owner. It will not be possible to call `onlyOwner` functions anymore. Can only be called by the current owner. NOTE: Renouncing ownership will leave the contract without an owner, thereby removing any functionality that is only available to the owner."
      },
      "transferOwnership(address)": {
        "details": "Transfers ownership of the contract to a new account (`newOwner`). Can only be called by the current owner."
      }
    },
    "version": 1
  },
  "userdoc": {
    "kind": "user",
    "methods": {},
    "version": 1
  }
}