{
  "contractName": "NFTFactory",
  "abi": [
    {
      "inputs": [
        {
          "internalType": "string",
          "name": "_name",
          "type": "string"
        },
        {
          "internalType": "string",
          "name": "_symbol",
          "type": "string"
        },
        {
          "internalType": "string",
          "name": "_uri",
          "type": "string"
        }
      ],
      "stateMutability": "nonpayable",
      "type": "constructor"
    },
    {
      "anonymous": false,
      "inputs": [
        {
          "indexed": true,
          "internalType": "address",
          "name": "account",
          "type": "address"
        },
        {
          "indexed": true,
          "internalType": "address",
          "name": "operator",
          "type": "address"
        },
        {
          "indexed": false,
          "internalType": "bool",
          "name": "approved",
          "type": "bool"
        }
      ],
      "name": "ApprovalForAll",
      "type": "event"
    },
    {
      "anonymous": false,
      "inputs": [
        {
          "indexed": true,
          "internalType": "address",
          "name": "previousOwner",
          "type": "address"
        },
        {
          "indexed": true,
          "internalType": "address",
          "name": "newOwner",
          "type": "address"
        }
      ],
      "name": "OwnershipTransferred",
      "type": "event"
    },
    {
      "anonymous": false,
      "inputs": [
        {
          "indexed": false,
          "internalType": "address",
          "name": "account",
          "type": "address"
        }
      ],
      "name": "Paused",
      "type": "event"
    },
    {
      "anonymous": false,
      "inputs": [
        {
          "indexed": true,
          "internalType": "address",
          "name": "operator",
          "type": "address"
        },
        {
          "indexed": true,
          "internalType": "address",
          "name": "from",
          "type": "address"
        },
        {
          "indexed": true,
          "internalType": "address",
          "name": "to",
          "type": "address"
        },
        {
          "indexed": false,
          "internalType": "uint256[]",
          "name": "ids",
          "type": "uint256[]"
        },
        {
          "indexed": false,
          "internalType": "uint256[]",
          "name": "values",
          "type": "uint256[]"
        }
      ],
      "name": "TransferBatch",
      "type": "event"
    },
    {
      "anonymous": false,
      "inputs": [
        {
          "indexed": true,
          "internalType": "address",
          "name": "operator",
          "type": "address"
        },
        {
          "indexed": true,
          "internalType": "address",
          "name": "from",
          "type": "address"
        },
        {
          "indexed": true,
          "internalType": "address",
          "name": "to",
          "type": "address"
        },
        {
          "indexed": false,
          "internalType": "uint256",
          "name": "id",
          "type": "uint256"
        },
        {
          "indexed": false,
          "internalType": "uint256",
          "name": "value",
          "type": "uint256"
        }
      ],
      "name": "TransferSingle",
      "type": "event"
    },
    {
      "anonymous": false,
      "inputs": [
        {
          "indexed": false,
          "internalType": "string",
          "name": "value",
          "type": "string"
        },
        {
          "indexed": true,
          "internalType": "uint256",
          "name": "id",
          "type": "uint256"
        }
      ],
      "name": "URI",
      "type": "event"
    },
    {
      "anonymous": false,
      "inputs": [
        {
          "indexed": false,
          "internalType": "address",
          "name": "account",
          "type": "address"
        }
      ],
      "name": "Unpaused",
      "type": "event"
    },
    {
      "inputs": [
        {
          "internalType": "uint16",
          "name": "",
          "type": "uint16"
        }
      ],
      "name": "attributes",
      "outputs": [
        {
          "internalType": "address",
          "name": "",
          "type": "address"
        }
      ],
      "stateMutability": "view",
      "type": "function"
    },
    {
      "inputs": [
        {
          "internalType": "address",
          "name": "account",
          "type": "address"
        },
        {
          "internalType": "uint256",
          "name": "id",
          "type": "uint256"
        }
      ],
      "name": "balanceOf",
      "outputs": [
        {
          "internalType": "uint256",
          "name": "",
          "type": "uint256"
        }
      ],
      "stateMutability": "view",
      "type": "function"
    },
    {
      "inputs": [
        {
          "internalType": "address[]",
          "name": "accounts",
          "type": "address[]"
        },
        {
          "internalType": "uint256[]",
          "name": "ids",
          "type": "uint256[]"
        }
      ],
      "name": "balanceOfBatch",
      "outputs": [
        {
          "internalType": "uint256[]",
          "name": "",
          "type": "uint256[]"
        }
      ],
      "stateMutability": "view",
      "type": "function"
    },
    {
      "inputs": [
        {
          "internalType": "uint256[]",
          "name": "_ids",
          "type": "uint256[]"
        },
        {
          "internalType": "uint256[]",
          "name": "_quantities",
          "type": "uint256[]"
        }
      ],
      "name": "batchBurn",
      "outputs": [],
      "stateMutability": "nonpayable",
      "type": "function"
    },
    {
      "inputs": [
        {
          "internalType": "address",
          "name": "_to",
          "type": "address"
        },
        {
          "internalType": "uint256[]",
          "name": "_ids",
          "type": "uint256[]"
        },
        {
          "internalType": "uint256[]",
          "name": "_quantities",
          "type": "uint256[]"
        },
        {
          "internalType": "bytes",
          "name": "_data",
          "type": "bytes"
        }
      ],
      "name": "batchMint",
      "outputs": [],
      "stateMutability": "nonpayable",
      "type": "function"
    },
    {
      "inputs": [
        {
          "internalType": "uint256",
          "name": "_id",
          "type": "uint256"
        },
        {
          "internalType": "uint256",
          "name": "_quantity",
          "type": "uint256"
        }
      ],
      "name": "burn",
      "outputs": [],
      "stateMutability": "nonpayable",
      "type": "function"
    },
    {
      "inputs": [
        {
          "internalType": "address",
          "name": "_initialOwner",
          "type": "address"
        },
        {
          "internalType": "uint256",
          "name": "_id",
          "type": "uint256"
        },
        {
          "internalType": "uint256",
          "name": "_initialSupply",
          "type": "uint256"
        },
        {
          "internalType": "string",
          "name": "_uri",
          "type": "string"
        },
        {
          "internalType": "bytes",
          "name": "_data",
          "type": "bytes"
        }
      ],
      "name": "create",
      "outputs": [
        {
          "internalType": "uint256",
          "name": "",
          "type": "uint256"
        }
      ],
      "stateMutability": "nonpayable",
      "type": "function"
    },
    {
      "inputs": [
        {
          "internalType": "uint256",
          "name": "_id",
          "type": "uint256"
        }
      ],
      "name": "creatorOf",
      "outputs": [
        {
          "internalType": "address",
          "name": "",
          "type": "address"
        }
      ],
      "stateMutability": "view",
      "type": "function"
    },
    {
      "inputs": [
        {
          "internalType": "uint256",
          "name": "",
          "type": "uint256"
        }
      ],
      "name": "creators",
      "outputs": [
        {
          "internalType": "address",
          "name": "",
          "type": "address"
        }
      ],
      "stateMutability": "view",
      "type": "function"
    },
    {
      "inputs": [
        {
          "internalType": "uint256",
          "name": "",
          "type": "uint256"
        }
      ],
      "name": "customUri",
      "outputs": [
        {
          "internalType": "string",
          "name": "",
          "type": "string"
        }
      ],
      "stateMutability": "view",
      "type": "function"
    },
    {
      "inputs": [
        {
          "internalType": "uint256",
          "name": "_id",
          "type": "uint256"
        }
      ],
      "name": "exists",
      "outputs": [
        {
          "internalType": "bool",
          "name": "",
          "type": "bool"
        }
      ],
      "stateMutability": "view",
      "type": "function"
    },
    {
      "inputs": [
        {
          "internalType": "address",
          "name": "account",
          "type": "address"
        },
        {
          "internalType": "address",
          "name": "operator",
          "type": "address"
        }
      ],
      "name": "isApprovedForAll",
      "outputs": [
        {
          "internalType": "bool",
          "name": "",
          "type": "bool"
        }
      ],
      "stateMutability": "view",
      "type": "function"
    },
    {
      "inputs": [
        {
          "internalType": "address",
          "name": "_to",
          "type": "address"
        },
        {
          "internalType": "uint256",
          "name": "_id",
          "type": "uint256"
        },
        {
          "internalType": "uint256",
          "name": "_quantity",
          "type": "uint256"
        },
        {
          "internalType": "bytes",
          "name": "_data",
          "type": "bytes"
        }
      ],
      "name": "mint",
      "outputs": [],
      "stateMutability": "nonpayable",
      "type": "function"
    },
    {
      "inputs": [],
      "name": "name",
      "outputs": [
        {
          "internalType": "string",
          "name": "",
          "type": "string"
        }
      ],
      "stateMutability": "view",
      "type": "function"
    },
    {
      "inputs": [],
      "name": "owner",
      "outputs": [
        {
          "internalType": "address",
          "name": "",
          "type": "address"
        }
      ],
      "stateMutability": "view",
      "type": "function"
    },
    {
      "inputs": [],
      "name": "pause",
      "outputs": [],
      "stateMutability": "nonpayable",
      "type": "function"
    },
    {
      "inputs": [],
      "name": "paused",
      "outputs": [
        {
          "internalType": "bool",
          "name": "",
          "type": "bool"
        }
      ],
      "stateMutability": "view",
      "type": "function"
    },
    {
      "inputs": [],
      "name": "renounceOwnership",
      "outputs": [],
      "stateMutability": "nonpayable",
      "type": "function"
    },
    {
      "inputs": [
        {
          "internalType": "address",
          "name": "from",
          "type": "address"
        },
        {
          "internalType": "address",
          "name": "to",
          "type": "address"
        },
        {
          "internalType": "uint256[]",
          "name": "ids",
          "type": "uint256[]"
        },
        {
          "internalType": "uint256[]",
          "name": "amounts",
          "type": "uint256[]"
        },
        {
          "internalType": "bytes",
          "name": "data",
          "type": "bytes"
        }
      ],
      "name": "safeBatchTransferFrom",
      "outputs": [],
      "stateMutability": "nonpayable",
      "type": "function"
    },
    {
      "inputs": [
        {
          "internalType": "address",
          "name": "from",
          "type": "address"
        },
        {
          "internalType": "address",
          "name": "to",
          "type": "address"
        },
        {
          "internalType": "uint256",
          "name": "id",
          "type": "uint256"
        },
        {
          "internalType": "uint256",
          "name": "amount",
          "type": "uint256"
        },
        {
          "internalType": "bytes",
          "name": "data",
          "type": "bytes"
        }
      ],
      "name": "safeTransferFrom",
      "outputs": [],
      "stateMutability": "nonpayable",
      "type": "function"
    },
    {
      "inputs": [
        {
          "internalType": "address",
          "name": "operator",
          "type": "address"
        },
        {
          "internalType": "bool",
          "name": "approved",
          "type": "bool"
        }
      ],
      "name": "setApprovalForAll",
      "outputs": [],
      "stateMutability": "nonpayable",
      "type": "function"
    },
    {
      "inputs": [
        {
          "internalType": "address",
          "name": "_to",
          "type": "address"
        },
        {
          "internalType": "uint256[]",
          "name": "_ids",
          "type": "uint256[]"
        }
      ],
      "name": "setCreator",
      "outputs": [],
      "stateMutability": "nonpayable",
      "type": "function"
    },
    {
      "inputs": [
        {
          "internalType": "uint256",
          "name": "_tokenId",
          "type": "uint256"
        },
        {
          "internalType": "string",
          "name": "_newURI",
          "type": "string"
        }
      ],
      "name": "setCustomURI",
      "outputs": [],
      "stateMutability": "nonpayable",
      "type": "function"
    },
    {
      "inputs": [
        {
          "internalType": "string",
          "name": "_newURI",
          "type": "string"
        }
      ],
      "name": "setURI",
      "outputs": [],
      "stateMutability": "nonpayable",
      "type": "function"
    },
    {
      "inputs": [
        {
          "internalType": "bytes4",
          "name": "interfaceId",
          "type": "bytes4"
        }
      ],
      "name": "supportsInterface",
      "outputs": [
        {
          "internalType": "bool",
          "name": "",
          "type": "bool"
        }
      ],
      "stateMutability": "view",
      "type": "function"
    },
    {
      "inputs": [],
      "name": "symbol",
      "outputs": [
        {
          "internalType": "string",
          "name": "",
          "type": "string"
        }
      ],
      "stateMutability": "view",
      "type": "function"
    },
    {
      "inputs": [
        {
          "internalType": "uint256",
          "name": "",
          "type": "uint256"
        }
      ],
      "name": "tokenMetadatas",
      "outputs": [
        {
          "internalType": "string",
          "name": "",
          "type": "string"
        }
      ],
      "stateMutability": "view",
      "type": "function"
    },
    {
      "inputs": [
        {
          "internalType": "uint256",
          "name": "",
          "type": "uint256"
        }
      ],
      "name": "tokenOwners",
      "outputs": [
        {
          "internalType": "address",
          "name": "",
          "type": "address"
        }
      ],
      "stateMutability": "view",
      "type": "function"
    },
    {
      "inputs": [
        {
          "internalType": "uint256",
          "name": "",
          "type": "uint256"
        }
      ],
      "name": "tokenSupply",
      "outputs": [
        {
          "internalType": "uint256",
          "name": "",
          "type": "uint256"
        }
      ],
      "stateMutability": "view",
      "type": "function"
    },
    {
      "inputs": [
        {
          "internalType": "uint256",
          "name": "_id",
          "type": "uint256"
        }
      ],
      "name": "totalSupply",
      "outputs": [
        {
          "internalType": "uint256",
          "name": "",
          "type": "uint256"
        }
      ],
      "stateMutability": "view",
      "type": "function"
    },
    {
      "inputs": [
        {
          "internalType": "address",
          "name": "newOwner",
          "type": "address"
        }
      ],
      "name": "transferOwnership",
      "outputs": [],
      "stateMutability": "nonpayable",
      "type": "function"
    },
    {
      "inputs": [],
      "name": "unpause",
      "outputs": [],
      "stateMutability": "nonpayable",
      "type": "function"
    },
    {
      "inputs": [
        {
          "internalType": "uint16",
          "name": "_class",
          "type": "uint16"
        },
        {
          "internalType": "address",
          "name": "_attr",
          "type": "address"
        }
      ],
      "name": "registerAttribute",
      "outputs": [],
      "stateMutability": "nonpayable",
      "type": "function"
    },
    {
      "inputs": [],
      "name": "getNextTokenID",
      "outputs": [
        {
          "internalType": "uint256",
          "name": "",
          "type": "uint256"
        }
      ],
      "stateMutability": "view",
      "type": "function"
    },
    {
      "inputs": [
        {
          "internalType": "address",
          "name": "holder",
          "type": "address"
        },
        {
          "internalType": "uint256",
          "name": "size",
          "type": "uint256"
        },
        {
          "internalType": "uint256",
          "name": "page",
          "type": "uint256"
        }
      ],
      "name": "getHolderTokens",
      "outputs": [
        {
          "internalType": "uint256[]",
          "name": "",
          "type": "uint256[]"
        }
      ],
      "stateMutability": "view",
      "type": "function"
    },
    {
      "inputs": [
        {
          "internalType": "address",
          "name": "holder",
          "type": "address"
        }
      ],
      "name": "holderTokensCount",
      "outputs": [
        {
          "internalType": "uint256",
          "name": "",
          "type": "uint256"
        }
      ],
      "stateMutability": "view",
      "type": "function"
    },
    {
      "inputs": [
        {
          "internalType": "uint256",
          "name": "_id",
          "type": "uint256"
        }
      ],
      "name": "uri",
      "outputs": [
        {
          "internalType": "string",
          "name": "",
          "type": "string"
        }
      ],
      "stateMutability": "view",
      "type": "function"
    },
    {
      "inputs": [
        {
          "internalType": "address",
          "name": "_initialOwner",
          "type": "address"
        },
        {
          "internalType": "string",
          "name": "_metadata",
          "type": "string"
        },
        {
          "internalType": "uint256[]",
          "name": "_attributes",
          "type": "uint256[]"
        },
        {
          "internalType": "uint256[]",
          "name": "_values",
          "type": "uint256[]"
        },
        {
          "internalType": "bytes[]",
          "name": "_texts",
          "type": "bytes[]"
        }
      ],
      "name": "createNFT",
      "outputs": [
        {
          "internalType": "uint256",
          "name": "tokenId",
          "type": "uint256"
        }
      ],
      "stateMutability": "nonpayable",
      "type": "function"
    },
    {
      "inputs": [
        {
          "internalType": "address[]",
          "name": "_initialOwners",
          "type": "address[]"
        },
        {
          "internalType": "string[]",
          "name": "_metadatas",
          "type": "string[]"
        },
        {
          "internalType": "uint256[]",
          "name": "_attributes",
          "type": "uint256[]"
        },
        {
          "internalType": "uint256[][]",
          "name": "_values",
          "type": "uint256[][]"
        },
        {
          "internalType": "bytes[][]",
          "name": "_texts",
          "type": "bytes[][]"
        }
      ],
      "name": "batchCreateNFT",
      "outputs": [
        {
          "internalType": "uint256[]",
          "name": "tokenIds",
          "type": "uint256[]"
        }
      ],
      "stateMutability": "nonpayable",
      "type": "function"
    }
  ],
  "bytecode": "0x608060405260006009553480156200001657600080fd5b50604051620073763803806200737683398181016040528101906200003c9190620002d7565b828282806200005181620000cb60201b60201c565b506000600360006101000a81548160ff0219169083151502179055506200008d62000081620000e760201b60201c565b620000ef60201b60201c565b8260079080519060200190620000a5929190620001b5565b508160089080519060200190620000be929190620001b5565b50505050505050620004a9565b8060029080519060200190620000e3929190620001b5565b5050565b600033905090565b6000600360019054906101000a900473ffffffffffffffffffffffffffffffffffffffff16905081600360016101000a81548173ffffffffffffffffffffffffffffffffffffffff021916908373ffffffffffffffffffffffffffffffffffffffff1602179055508173ffffffffffffffffffffffffffffffffffffffff168173ffffffffffffffffffffffffffffffffffffffff167f8be0079c531659141344cd1fd0a4f28419497f9722a3daafe3b4186f6b6457e060405160405180910390a35050565b828054620001c39062000415565b90600052602060002090601f016020900481019282620001e7576000855562000233565b82601f106200020257805160ff191683800117855562000233565b8280016001018555821562000233579182015b828111156200023257825182559160200191906001019062000215565b5b50905062000242919062000246565b5090565b5b808211156200026157600081600090555060010162000247565b5090565b60006200027c6200027684620003ac565b62000378565b9050828152602081018484840111156200029557600080fd5b620002a2848285620003df565b509392505050565b600082601f830112620002bc57600080fd5b8151620002ce84826020860162000265565b91505092915050565b600080600060608486031215620002ed57600080fd5b600084015167ffffffffffffffff8111156200030857600080fd5b6200031686828701620002aa565b935050602084015167ffffffffffffffff8111156200033457600080fd5b6200034286828701620002aa565b925050604084015167ffffffffffffffff8111156200036057600080fd5b6200036e86828701620002aa565b9150509250925092565b6000604051905081810181811067ffffffffffffffff82111715620003a257620003a16200047a565b5b8060405250919050565b600067ffffffffffffffff821115620003ca57620003c96200047a565b5b601f19601f8301169050602081019050919050565b60005b83811015620003ff578082015181840152602081019050620003e2565b838111156200040f576000848401525b50505050565b600060028204905060018216806200042e57607f821691505b602082108114156200044557620004446200044b565b5b50919050565b7f4e487b7100000000000000000000000000000000000000000000000000000000600052602260045260246000fd5b7f4e487b7100000000000000000000000000000000000000000000000000000000600052604160045260246000fd5b616ebd80620004b96000396000f3fe608060405234801561001057600080fd5b506004361061023c5760003560e01c8063629bca671161013b578063b48ab8b6116100b8578063e985e9c51161007c578063e985e9c51461070d578063ed16266b1461073d578063f242432a1461076d578063f2fde38b14610789578063f8a14f46146107a55761023c565b8063b48ab8b614610645578063bd85b03914610661578063cd53d08e14610691578063d07cc6ee146106c1578063d2a6b51a146106f15761023c565b80638a28a5a2116100ff5780638a28a5a2146105a15780638da5cb5b146105d157806395d89b41146105ef578063a22cb4651461060d578063b390c0ab146106295761023c565b8063629bca6714610511578063715018a61461054157806372df80781461054b578063731133e91461057b5780638456cb59146105975761023c565b806330805f5f116101c95780634a1981191161018d5780634a198119146104455780634e1273f4146104635780634f558e7914610493578063589a1743146104c35780635c975abb146104f35761023c565b806330805f5f1461038f57806336a100d5146103bf5780633adf80b4146103ef5780633f4ba83a1461040b57806346b487af146104155761023c565b80630e89341c116102105780630e89341c146102db5780630eeae2031461030b57806320ec271b146103275780632693ebf2146103435780632eb2c2d6146103735761023c565b8062fdd58e1461024157806301ffc9a71461027157806302fe5305146102a157806306fdde03146102bd575b600080fd5b61025b60048036038101906102569190614e9b565b6107d5565b60405161026891906166dd565b60405180910390f35b61028b6004803603810190610286919061522e565b61089e565b6040516102989190616320565b60405180910390f35b6102bb60048036038101906102b69190615280565b6108b0565b005b6102c5610938565b6040516102d2919061633b565b60405180910390f35b6102f560048036038101906102f09190615326565b6109c6565b604051610302919061633b565b60405180910390f35b610325600480360381019061032091906152ea565b610ba3565b005b610341600480360381019061033c91906151b9565b610c7d565b005b61035d60048036038101906103589190615326565b610e4c565b60405161036a91906166dd565b60405180910390f35b61038d60048036038101906103889190614b26565b610e64565b005b6103a960048036038101906103a49190614ac1565b610f05565b6040516103b691906166dd565b60405180910390f35b6103d960048036038101906103d49190614fa1565b610f51565b6040516103e691906166dd565b60405180910390f35b6104096004803603810190610404919061534f565b61110c565b005b61041361121a565b005b61042f600480360381019061042a9190614ed7565b6112a0565b60405161043c91906162c7565b60405180910390f35b61044d611493565b60405161045a91906166dd565b60405180910390f35b61047d6004803603810190610478919061514d565b6114b0565b60405161048a91906162c7565b60405180910390f35b6104ad60048036038101906104a89190615326565b611661565b6040516104ba9190616320565b60405180910390f35b6104dd60048036038101906104d89190615326565b611673565b6040516104ea91906161ea565b60405180910390f35b6104fb6116b0565b6040516105089190616320565b60405180910390f35b61052b60048036038101906105269190615326565b6116c7565b604051610538919061633b565b60405180910390f35b610549611767565b005b61056560048036038101906105609190615048565b6117ef565b60405161057291906162c7565b60405180910390f35b61059560048036038101906105909190614f26565b611bc6565b005b61059f611cbf565b005b6105bb60048036038101906105b69190615326565b611d45565b6040516105c8919061633b565b60405180910390f35b6105d9611de5565b6040516105e691906161ea565b60405180910390f35b6105f7611e0f565b604051610604919061633b565b60405180910390f35b61062760048036038101906106229190614d7b565b611e9d565b005b610643600480360381019061063e91906153a3565b61201e565b005b61065f600480360381019061065a9190614c74565b6120c6565b005b61067b60048036038101906106769190615326565b6122ed565b60405161068891906166dd565b60405180910390f35b6106ab60048036038101906106a69190615326565b61230a565b6040516106b891906161ea565b60405180910390f35b6106db60048036038101906106d691906152c1565b61233d565b6040516106e891906161ea565b60405180910390f35b61070b60048036038101906107069190614d27565b612370565b005b61072760048036038101906107229190614aea565b612454565b6040516107349190616320565b60405180910390f35b61075760048036038101906107529190614db7565b6124e8565b60405161076491906166dd565b60405180910390f35b61078760048036038101906107829190614be5565b612790565b005b6107a3600480360381019061079e9190614ac1565b612831565b005b6107bf60048036038101906107ba9190615326565b612929565b6040516107cc91906161ea565b60405180910390f35b60008073ffffffffffffffffffffffffffffffffffffffff168373ffffffffffffffffffffffffffffffffffffffff161415610846576040517f08c379a000000000000000000000000000000000000000000000000000000000815260040161083d906163bd565b60405180910390fd5b60008083815260200190815260200160002060008473ffffffffffffffffffffffffffffffffffffffff1673ffffffffffffffffffffffffffffffffffffffff16815260200190815260200160002054905092915050565b60006108a98261295c565b9050919050565b6108b8612a3e565b73ffffffffffffffffffffffffffffffffffffffff166108d6611de5565b73ffffffffffffffffffffffffffffffffffffffff161461092c576040517f08c379a0000000000000000000000000000000000000000000000000000000008152600401610923906165bd565b60405180910390fd5b61093581612a46565b50565b6007805461094590616c38565b80601f016020809104026020016040519081016040528092919081815260200182805461097190616c38565b80156109be5780601f10610993576101008083540402835291602001916109be565b820191906000526020600020905b8154815290600101906020018083116109a157829003601f168201915b505050505081565b60606109d182612a60565b610a10576040517f08c379a0000000000000000000000000000000000000000000000000000000008152600401610a079061661d565b60405180910390fd5b6000600660008481526020019081526020016000208054610a3090616c38565b80601f0160208091040260200160405190810160405280929190818152602001828054610a5c90616c38565b8015610aa95780601f10610a7e57610100808354040283529160200191610aa9565b820191906000526020600020905b815481529060010190602001808311610a8c57829003601f168201915b50505050509050600081511115610b5e57600660008481526020019081526020016000208054610ad890616c38565b80601f0160208091040260200160405190810160405280929190818152602001828054610b0490616c38565b8015610b515780601f10610b2657610100808354040283529160200191610b51565b820191906000526020600020905b815481529060010190602001808311610b3457829003601f168201915b5050505050915050610b9e565b610b6783612acc565b600a6000858152602001908152602001600020604051602001610b8b9291906161c6565b6040516020818303038152906040529150505b919050565b610bab612a3e565b73ffffffffffffffffffffffffffffffffffffffff16610bc9611de5565b73ffffffffffffffffffffffffffffffffffffffff1614610c1f576040517f08c379a0000000000000000000000000000000000000000000000000000000008152600401610c16906165bd565b60405180910390fd5b80600d60008461ffff1661ffff16815260200190815260200160002060006101000a81548173ffffffffffffffffffffffffffffffffffffffff021916908373ffffffffffffffffffffffffffffffffffffffff1602179055505050565b60005b84849050811015610db8576000858583818110610cc6577f4e487b7100000000000000000000000000000000000000000000000000000000600052603260045260246000fd5b9050602002013590506000610ce2610cdc612a3e565b836107d5565b11610d22576040517f08c379a0000000000000000000000000000000000000000000000000000000008152600401610d199061647d565b60405180910390fd5b6000848484818110610d5d577f4e487b7100000000000000000000000000000000000000000000000000000000600052603260045260246000fd5b905060200201359050610d8c816005600085815260200190815260200160002054612b6090919063ffffffff16565b600560008481526020019081526020016000208190555050508080610db090616c6a565b915050610c80565b50610e4633858580806020026020016040519081016040528093929190818152602001838360200280828437600081840152601f19601f82011690508083019250505050505050848480806020026020016040519081016040528093929190818152602001838360200280828437600081840152601f19601f82011690508083019250505050505050612b76565b50505050565b60056020528060005260406000206000915090505481565b610e6c612a3e565b73ffffffffffffffffffffffffffffffffffffffff168573ffffffffffffffffffffffffffffffffffffffff161480610eb25750610eb185610eac612a3e565b612454565b5b610ef1576040517f08c379a0000000000000000000000000000000000000000000000000000000008152600401610ee8906164fd565b60405180910390fd5b610efe8585858585612e73565b5050505050565b6000600b60008373ffffffffffffffffffffffffffffffffffffffff1673ffffffffffffffffffffffffffffffffffffffff168152602001908152602001600020805490509050919050565b6000610f5b612a3e565b73ffffffffffffffffffffffffffffffffffffffff16610f79611de5565b73ffffffffffffffffffffffffffffffffffffffff1614610fcf576040517f08c379a0000000000000000000000000000000000000000000000000000000008152600401610fc6906165bd565b60405180910390fd5b610fd885612a60565b15611018576040517f08c379a000000000000000000000000000000000000000000000000000000000815260040161100f9061651d565b60405180910390fd5b611020612a3e565b6004600087815260200190815260200160002060006101000a81548173ffffffffffffffffffffffffffffffffffffffff021916908373ffffffffffffffffffffffffffffffffffffffff1602179055506000835111156110dc57826006600087815260200190815260200160002090805190602001906110a29291906145e8565b50847f6bb7ff708619ba0610cba295a58592e0451dee2622938c8755667688daf3529b846040516110d3919061633b565b60405180910390a25b6110e8868686856131d3565b83600560008781526020019081526020016000208190555084905095945050505050565b81611115612a3e565b73ffffffffffffffffffffffffffffffffffffffff166004600083815260200190815260200160002060009054906101000a900473ffffffffffffffffffffffffffffffffffffffff1673ffffffffffffffffffffffffffffffffffffffff16146111b5576040517f08c379a00000000000000000000000000000000000000000000000000000000081526004016111ac906163fd565b60405180910390fd5b816006600085815260200190815260200160002090805190602001906111dc9291906145e8565b50827f6bb7ff708619ba0610cba295a58592e0451dee2622938c8755667688daf3529b8360405161120d919061633b565b60405180910390a2505050565b611222612a3e565b73ffffffffffffffffffffffffffffffffffffffff16611240611de5565b73ffffffffffffffffffffffffffffffffffffffff1614611296576040517f08c379a000000000000000000000000000000000000000000000000000000000815260040161128d906165bd565b60405180910390fd5b61129e613369565b565b6060600082846112b09190616ae6565b9050600081600b60008873ffffffffffffffffffffffffffffffffffffffff1673ffffffffffffffffffffffffffffffffffffffff168152602001908152602001600020805490506113029190616b40565b905060008582116113135781611315565b855b905060008167ffffffffffffffff811115611359577f4e487b7100000000000000000000000000000000000000000000000000000000600052604160045260246000fd5b6040519080825280602002602001820160405280156113875781602001602082028036833780820191505090505b50905060008211156114855760005b8281101561148357600b60008a73ffffffffffffffffffffffffffffffffffffffff1673ffffffffffffffffffffffffffffffffffffffff16815260200190815260200160002081866113e99190616a90565b81548110611420577f4e487b7100000000000000000000000000000000000000000000000000000000600052603260045260246000fd5b9060005260206000200154828281518110611464577f4e487b7100000000000000000000000000000000000000000000000000000000600052603260045260246000fd5b602002602001018181525050808061147b90616c6a565b915050611396565b505b809450505050509392505050565b60006114ab600160095461340b90919063ffffffff16565b905090565b606081518351146114f6576040517f08c379a00000000000000000000000000000000000000000000000000000000081526004016114ed9061667d565b60405180910390fd5b6000835167ffffffffffffffff811115611539577f4e487b7100000000000000000000000000000000000000000000000000000000600052604160045260246000fd5b6040519080825280602002602001820160405280156115675781602001602082028036833780820191505090505b50905060005b8451811015611656576116008582815181106115b2577f4e487b7100000000000000000000000000000000000000000000000000000000600052603260045260246000fd5b60200260200101518583815181106115f3577f4e487b7100000000000000000000000000000000000000000000000000000000600052603260045260246000fd5b60200260200101516107d5565b828281518110611639577f4e487b7100000000000000000000000000000000000000000000000000000000600052603260045260246000fd5b6020026020010181815250508061164f90616c6a565b905061156d565b508091505092915050565b600061166c82612a60565b9050919050565b60006004600083815260200190815260200160002060009054906101000a900473ffffffffffffffffffffffffffffffffffffffff169050919050565b6000600360009054906101000a900460ff16905090565b600a60205280600052604060002060009150905080546116e690616c38565b80601f016020809104026020016040519081016040528092919081815260200182805461171290616c38565b801561175f5780601f106117345761010080835404028352916020019161175f565b820191906000526020600020905b81548152906001019060200180831161174257829003601f168201915b505050505081565b61176f612a3e565b73ffffffffffffffffffffffffffffffffffffffff1661178d611de5565b73ffffffffffffffffffffffffffffffffffffffff16146117e3576040517f08c379a00000000000000000000000000000000000000000000000000000000081526004016117da906165bd565b60405180910390fd5b6117ed6000613421565b565b60606117f9612a3e565b73ffffffffffffffffffffffffffffffffffffffff16611817611de5565b73ffffffffffffffffffffffffffffffffffffffff161461186d576040517f08c379a0000000000000000000000000000000000000000000000000000000008152600401611864906165bd565b60405180910390fd5b888890508b8b9050146118b5576040517f08c379a00000000000000000000000000000000000000000000000000000000081526004016118ac906165fd565b60405180910390fd5b848490508b8b9050146118fd576040517f08c379a00000000000000000000000000000000000000000000000000000000081526004016118f49061663d565b60405180910390fd5b600073ffffffffffffffffffffffffffffffffffffffff16600d6000600261ffff16815260200190815260200160002060009054906101000a900473ffffffffffffffffffffffffffffffffffffffff1673ffffffffffffffffffffffffffffffffffffffff1614156119a5576040517f08c379a000000000000000000000000000000000000000000000000000000000815260040161199c9061653d565b60405180910390fd5b8a8a905067ffffffffffffffff8111156119e8577f4e487b7100000000000000000000000000000000000000000000000000000000600052604160045260246000fd5b604051908082528060200260200182016040528015611a165781602001602082028036833780820191505090505b50905060005b8b8b9050811015611bb757611ba38c8c83818110611a63577f4e487b7100000000000000000000000000000000000000000000000000000000600052603260045260246000fd5b9050602002016020810190611a789190614ac1565b8b8b84818110611ab1577f4e487b7100000000000000000000000000000000000000000000000000000000600052603260045260246000fd5b9050602002810190611ac3919061682f565b8080601f016020809104026020016040519081016040528093929190818152602001838380828437600081840152601f19601f820116905080830192505050505050508a8a8a8a87818110611b41577f4e487b7100000000000000000000000000000000000000000000000000000000600052603260045260246000fd5b9050602002810190611b5391906167d8565b8a8a89818110611b8c577f4e487b7100000000000000000000000000000000000000000000000000000000600052603260045260246000fd5b9050602002810190611b9e9190616781565b6124e8565b508080611baf90616c6a565b915050611a1c565b509a9950505050505050505050565b82611bcf612a3e565b73ffffffffffffffffffffffffffffffffffffffff166004600083815260200190815260200160002060009054906101000a900473ffffffffffffffffffffffffffffffffffffffff1673ffffffffffffffffffffffffffffffffffffffff1614611c6f576040517f08c379a0000000000000000000000000000000000000000000000000000000008152600401611c66906163fd565b60405180910390fd5b611c7b858585856131d3565b611ca183600560008781526020019081526020016000205461340b90919063ffffffff16565b60056000868152602001908152602001600020819055505050505050565b611cc7612a3e565b73ffffffffffffffffffffffffffffffffffffffff16611ce5611de5565b73ffffffffffffffffffffffffffffffffffffffff1614611d3b576040517f08c379a0000000000000000000000000000000000000000000000000000000008152600401611d32906165bd565b60405180910390fd5b611d436134e7565b565b60066020528060005260406000206000915090508054611d6490616c38565b80601f0160208091040260200160405190810160405280929190818152602001828054611d9090616c38565b8015611ddd5780601f10611db257610100808354040283529160200191611ddd565b820191906000526020600020905b815481529060010190602001808311611dc057829003601f168201915b505050505081565b6000600360019054906101000a900473ffffffffffffffffffffffffffffffffffffffff16905090565b60088054611e1c90616c38565b80601f0160208091040260200160405190810160405280929190818152602001828054611e4890616c38565b8015611e955780601f10611e6a57610100808354040283529160200191611e95565b820191906000526020600020905b815481529060010190602001808311611e7857829003601f168201915b505050505081565b8173ffffffffffffffffffffffffffffffffffffffff16611ebc612a3e565b73ffffffffffffffffffffffffffffffffffffffff161415611f13576040517f08c379a0000000000000000000000000000000000000000000000000000000008152600401611f0a9061665d565b60405180910390fd5b8060016000611f20612a3e565b73ffffffffffffffffffffffffffffffffffffffff1673ffffffffffffffffffffffffffffffffffffffff16815260200190815260200160002060008473ffffffffffffffffffffffffffffffffffffffff1673ffffffffffffffffffffffffffffffffffffffff16815260200190815260200160002060006101000a81548160ff0219169083151502179055508173ffffffffffffffffffffffffffffffffffffffff16611fcd612a3e565b73ffffffffffffffffffffffffffffffffffffffff167f17307eab39ab6107e8899845ad3d59bd9653f200f220920489ca2b5937696c31836040516120129190616320565b60405180910390a35050565b81600061203261202c612a3e565b836107d5565b11612072576040517f08c379a00000000000000000000000000000000000000000000000000000000081526004016120699061647d565b60405180910390fd5b61208461207d612a3e565b848461358a565b6120aa826005600086815260200190815260200160002054612b6090919063ffffffff16565b6005600085815260200190815260200160002081905550505050565b60005b8585905081101561225657600086868381811061210f577f4e487b7100000000000000000000000000000000000000000000000000000000600052603260045260246000fd5b905060200201359050612120612a3e565b73ffffffffffffffffffffffffffffffffffffffff166004600083815260200190815260200160002060009054906101000a900473ffffffffffffffffffffffffffffffffffffffff1673ffffffffffffffffffffffffffffffffffffffff16146121c0576040517f08c379a00000000000000000000000000000000000000000000000000000000081526004016121b79061649d565b60405180910390fd5b60008585848181106121fb577f4e487b7100000000000000000000000000000000000000000000000000000000600052603260045260246000fd5b90506020020135905061222a81600560008581526020019081526020016000205461340b90919063ffffffff16565b60056000848152602001908152602001600020819055505050808061224e90616c6a565b9150506120c9565b506122e586868680806020026020016040519081016040528093929190818152602001838360200280828437600081840152601f19601f82011690508083019250505050505050858580806020026020016040519081016040528093929190818152602001838360200280828437600081840152601f19601f82011690508083019250505050505050846137a7565b505050505050565b600060056000838152602001908152602001600020549050919050565b60046020528060005260406000206000915054906101000a900473ffffffffffffffffffffffffffffffffffffffff1681565b600d6020528060005260406000206000915054906101000a900473ffffffffffffffffffffffffffffffffffffffff1681565b600073ffffffffffffffffffffffffffffffffffffffff168273ffffffffffffffffffffffffffffffffffffffff1614156123e0576040517f08c379a00000000000000000000000000000000000000000000000000000000081526004016123d7906165dd565b60405180910390fd5b60005b815181101561244f576000828281518110612427577f4e487b7100000000000000000000000000000000000000000000000000000000600052603260045260246000fd5b6020026020010151905061243b8482613a11565b50808061244790616c6a565b9150506123e3565b505050565b6000600160008473ffffffffffffffffffffffffffffffffffffffff1673ffffffffffffffffffffffffffffffffffffffff16815260200190815260200160002060008373ffffffffffffffffffffffffffffffffffffffff1673ffffffffffffffffffffffffffffffffffffffff16815260200190815260200160002060009054906101000a900460ff16905092915050565b60006124f2612a3e565b73ffffffffffffffffffffffffffffffffffffffff16612510611de5565b73ffffffffffffffffffffffffffffffffffffffff1614612566576040517f08c379a000000000000000000000000000000000000000000000000000000000815260040161255d906165bd565b60405180910390fd5b8484905087879050146125ae576040517f08c379a00000000000000000000000000000000000000000000000000000000081526004016125a59061655d565b60405180910390fd5b600060029050600073ffffffffffffffffffffffffffffffffffffffff16600d60008361ffff1661ffff16815260200190815260200160002060009054906101000a900473ffffffffffffffffffffffffffffffffffffffff1673ffffffffffffffffffffffffffffffffffffffff16141561265f576040517f08c379a00000000000000000000000000000000000000000000000000000000081526004016126569061653d565b60405180910390fd5b60006009600081548092919061267490616c6a565b91905055905089600a600083815260200190815260200160002090805190602001906126a19291906145e8565b50600d60008361ffff1661ffff16815260200190815260200160002060009054906101000a900473ffffffffffffffffffffffffffffffffffffffff1673ffffffffffffffffffffffffffffffffffffffff166345e74373828b8b8b8b8b8b6040518863ffffffff1660e01b815260040161272297969594939291906166f8565b600060405180830381600087803b15801561273c57600080fd5b505af1158015612750573d6000803e3d6000fd5b505050506127808b8260016040518060200160405280600081525060405180602001604052806000815250610f51565b9250505098975050505050505050565b612798612a3e565b73ffffffffffffffffffffffffffffffffffffffff168573ffffffffffffffffffffffffffffffffffffffff1614806127de57506127dd856127d8612a3e565b612454565b5b61281d576040517f08c379a00000000000000000000000000000000000000000000000000000000081526004016128149061645d565b60405180910390fd5b61282a8585858585613b11565b5050505050565b612839612a3e565b73ffffffffffffffffffffffffffffffffffffffff16612857611de5565b73ffffffffffffffffffffffffffffffffffffffff16146128ad576040517f08c379a00000000000000000000000000000000000000000000000000000000081526004016128a4906165bd565b60405180910390fd5b600073ffffffffffffffffffffffffffffffffffffffff168173ffffffffffffffffffffffffffffffffffffffff16141561291d576040517f08c379a0000000000000000000000000000000000000000000000000000000008152600401612914906163dd565b60405180910390fd5b61292681613421565b50565b600c6020528060005260406000206000915054906101000a900473ffffffffffffffffffffffffffffffffffffffff1681565b60007fd9b67a26000000000000000000000000000000000000000000000000000000007bffffffffffffffffffffffffffffffffffffffffffffffffffffffff1916827bffffffffffffffffffffffffffffffffffffffffffffffffffffffff19161480612a2757507f0e89341c000000000000000000000000000000000000000000000000000000007bffffffffffffffffffffffffffffffffffffffffffffffffffffffff1916827bffffffffffffffffffffffffffffffffffffffffffffffffffffffff1916145b80612a375750612a3682613d93565b5b9050919050565b600033905090565b8060029080519060200190612a5c9291906145e8565b5050565b60008073ffffffffffffffffffffffffffffffffffffffff166004600084815260200190815260200160002060009054906101000a900473ffffffffffffffffffffffffffffffffffffffff1673ffffffffffffffffffffffffffffffffffffffff1614159050919050565b606060028054612adb90616c38565b80601f0160208091040260200160405190810160405280929190818152602001828054612b0790616c38565b8015612b545780601f10612b2957610100808354040283529160200191612b54565b820191906000526020600020905b815481529060010190602001808311612b3757829003601f168201915b50505050509050919050565b60008183612b6e9190616b40565b905092915050565b600073ffffffffffffffffffffffffffffffffffffffff168373ffffffffffffffffffffffffffffffffffffffff161415612be6576040517f08c379a0000000000000000000000000000000000000000000000000000000008152600401612bdd9061657d565b60405180910390fd5b8051825114612c2a576040517f08c379a0000000000000000000000000000000000000000000000000000000008152600401612c219061669d565b60405180910390fd5b6000612c34612a3e565b9050612c5481856000868660405180602001604052806000815250613dfd565b60005b8351811015612ded576000848281518110612c9b577f4e487b7100000000000000000000000000000000000000000000000000000000600052603260045260246000fd5b602002602001015190506000848381518110612ce0577f4e487b7100000000000000000000000000000000000000000000000000000000600052603260045260246000fd5b60200260200101519050600080600084815260200190815260200160002060008973ffffffffffffffffffffffffffffffffffffffff1673ffffffffffffffffffffffffffffffffffffffff16815260200190815260200160002054905081811015612d81576040517f08c379a0000000000000000000000000000000000000000000000000000000008152600401612d789061641d565b60405180910390fd5b81810360008085815260200190815260200160002060008a73ffffffffffffffffffffffffffffffffffffffff1673ffffffffffffffffffffffffffffffffffffffff168152602001908152602001600020819055505050508080612de590616c6a565b915050612c57565b50600073ffffffffffffffffffffffffffffffffffffffff168473ffffffffffffffffffffffffffffffffffffffff168273ffffffffffffffffffffffffffffffffffffffff167f4a39dc06d4c0dbc64b70af90fd698a233a518aa5d07e595d983b8c0526c8f7fb8686604051612e659291906162e9565b60405180910390a450505050565b8151835114612eb7576040517f08c379a0000000000000000000000000000000000000000000000000000000008152600401612eae9061669d565b60405180910390fd5b600073ffffffffffffffffffffffffffffffffffffffff168473ffffffffffffffffffffffffffffffffffffffff161415612f27576040517f08c379a0000000000000000000000000000000000000000000000000000000008152600401612f1e906164dd565b60405180910390fd5b6000612f31612a3e565b9050612f41818787878787613dfd565b60005b845181101561313e576000858281518110612f88577f4e487b7100000000000000000000000000000000000000000000000000000000600052603260045260246000fd5b602002602001015190506000858381518110612fcd577f4e487b7100000000000000000000000000000000000000000000000000000000600052603260045260246000fd5b60200260200101519050600080600084815260200190815260200160002060008b73ffffffffffffffffffffffffffffffffffffffff1673ffffffffffffffffffffffffffffffffffffffff1681526020019081526020016000205490508181101561306e576040517f08c379a00000000000000000000000000000000000000000000000000000000081526004016130659061659d565b60405180910390fd5b81810360008085815260200190815260200160002060008c73ffffffffffffffffffffffffffffffffffffffff1673ffffffffffffffffffffffffffffffffffffffff168152602001908152602001600020819055508160008085815260200190815260200160002060008b73ffffffffffffffffffffffffffffffffffffffff1673ffffffffffffffffffffffffffffffffffffffff16815260200190815260200160002060008282546131239190616a90565b925050819055505050508061313790616c6a565b9050612f44565b508473ffffffffffffffffffffffffffffffffffffffff168673ffffffffffffffffffffffffffffffffffffffff168273ffffffffffffffffffffffffffffffffffffffff167f4a39dc06d4c0dbc64b70af90fd698a233a518aa5d07e595d983b8c0526c8f7fb87876040516131b59291906162e9565b60405180910390a46131cb81878787878761405d565b505050505050565b600073ffffffffffffffffffffffffffffffffffffffff168473ffffffffffffffffffffffffffffffffffffffff161415613243576040517f08c379a000000000000000000000000000000000000000000000000000000000815260040161323a906166bd565b60405180910390fd5b600061324d612a3e565b905061326e8160008761325f8861422d565b6132688861422d565b87613dfd565b8260008086815260200190815260200160002060008773ffffffffffffffffffffffffffffffffffffffff1673ffffffffffffffffffffffffffffffffffffffff16815260200190815260200160002060008282546132cd9190616a90565b925050819055508473ffffffffffffffffffffffffffffffffffffffff16600073ffffffffffffffffffffffffffffffffffffffff168273ffffffffffffffffffffffffffffffffffffffff167fc3d58168c5ae7397731d063d5bbf3d657854427343f4c083240f7aacaa2d0f62878760405161334b929190616758565b60405180910390a4613362816000878787876142f3565b5050505050565b6133716116b0565b6133b0576040517f08c379a00000000000000000000000000000000000000000000000000000000081526004016133a79061639d565b60405180910390fd5b6000600360006101000a81548160ff0219169083151502179055507f5db9ee0a495bf2e6ff9c91a7834c1ba4fdd244a5e8aa4e537bd38aeae4b073aa6133f4612a3e565b60405161340191906161ea565b60405180910390a1565b600081836134199190616a90565b905092915050565b6000600360019054906101000a900473ffffffffffffffffffffffffffffffffffffffff16905081600360016101000a81548173ffffffffffffffffffffffffffffffffffffffff021916908373ffffffffffffffffffffffffffffffffffffffff1602179055508173ffffffffffffffffffffffffffffffffffffffff168173ffffffffffffffffffffffffffffffffffffffff167f8be0079c531659141344cd1fd0a4f28419497f9722a3daafe3b4186f6b6457e060405160405180910390a35050565b6134ef6116b0565b1561352f576040517f08c379a0000000000000000000000000000000000000000000000000000000008152600401613526906164bd565b60405180910390fd5b6001600360006101000a81548160ff0219169083151502179055507f62e78cea01bee320cd4e420270b5ea74000d11b0c9f74754ebdbfc544b05a258613573612a3e565b60405161358091906161ea565b60405180910390a1565b600073ffffffffffffffffffffffffffffffffffffffff168373ffffffffffffffffffffffffffffffffffffffff1614156135fa576040517f08c379a00000000000000000000000000000000000000000000000000000000081526004016135f19061657d565b60405180910390fd5b6000613604612a3e565b9050613634818560006136168761422d565b61361f8761422d565b60405180602001604052806000815250613dfd565b600080600085815260200190815260200160002060008673ffffffffffffffffffffffffffffffffffffffff1673ffffffffffffffffffffffffffffffffffffffff168152602001908152602001600020549050828110156136cb576040517f08c379a00000000000000000000000000000000000000000000000000000000081526004016136c29061641d565b60405180910390fd5b82810360008086815260200190815260200160002060008773ffffffffffffffffffffffffffffffffffffffff1673ffffffffffffffffffffffffffffffffffffffff16815260200190815260200160002081905550600073ffffffffffffffffffffffffffffffffffffffff168573ffffffffffffffffffffffffffffffffffffffff168373ffffffffffffffffffffffffffffffffffffffff167fc3d58168c5ae7397731d063d5bbf3d657854427343f4c083240f7aacaa2d0f628787604051613798929190616758565b60405180910390a45050505050565b600073ffffffffffffffffffffffffffffffffffffffff168473ffffffffffffffffffffffffffffffffffffffff161415613817576040517f08c379a000000000000000000000000000000000000000000000000000000000815260040161380e906166bd565b60405180910390fd5b815183511461385b576040517f08c379a00000000000000000000000000000000000000000000000000000000081526004016138529061669d565b60405180910390fd5b6000613865612a3e565b905061387681600087878787613dfd565b60005b845181101561397b578381815181106138bb577f4e487b7100000000000000000000000000000000000000000000000000000000600052603260045260246000fd5b60200260200101516000808784815181106138ff577f4e487b7100000000000000000000000000000000000000000000000000000000600052603260045260246000fd5b6020026020010151815260200190815260200160002060008873ffffffffffffffffffffffffffffffffffffffff1673ffffffffffffffffffffffffffffffffffffffff16815260200190815260200160002060008282546139619190616a90565b92505081905550808061397390616c6a565b915050613879565b508473ffffffffffffffffffffffffffffffffffffffff16600073ffffffffffffffffffffffffffffffffffffffff168273ffffffffffffffffffffffffffffffffffffffff167f4a39dc06d4c0dbc64b70af90fd698a233a518aa5d07e595d983b8c0526c8f7fb87876040516139f39291906162e9565b60405180910390a4613a0a8160008787878761405d565b5050505050565b80613a1a612a3e565b73ffffffffffffffffffffffffffffffffffffffff166004600083815260200190815260200160002060009054906101000a900473ffffffffffffffffffffffffffffffffffffffff1673ffffffffffffffffffffffffffffffffffffffff1614613aba576040517f08c379a0000000000000000000000000000000000000000000000000000000008152600401613ab1906163fd565b60405180910390fd5b826004600084815260200190815260200160002060006101000a81548173ffffffffffffffffffffffffffffffffffffffff021916908373ffffffffffffffffffffffffffffffffffffffff160217905550505050565b600073ffffffffffffffffffffffffffffffffffffffff168473ffffffffffffffffffffffffffffffffffffffff161415613b81576040517f08c379a0000000000000000000000000000000000000000000000000000000008152600401613b78906164dd565b60405180910390fd5b6000613b8b612a3e565b9050613bab818787613b9c8861422d565b613ba58861422d565b87613dfd565b600080600086815260200190815260200160002060008873ffffffffffffffffffffffffffffffffffffffff1673ffffffffffffffffffffffffffffffffffffffff16815260200190815260200160002054905083811015613c42576040517f08c379a0000000000000000000000000000000000000000000000000000000008152600401613c399061659d565b60405180910390fd5b83810360008087815260200190815260200160002060008973ffffffffffffffffffffffffffffffffffffffff1673ffffffffffffffffffffffffffffffffffffffff168152602001908152602001600020819055508360008087815260200190815260200160002060008873ffffffffffffffffffffffffffffffffffffffff1673ffffffffffffffffffffffffffffffffffffffff1681526020019081526020016000206000828254613cf79190616a90565b925050819055508573ffffffffffffffffffffffffffffffffffffffff168773ffffffffffffffffffffffffffffffffffffffff168373ffffffffffffffffffffffffffffffffffffffff167fc3d58168c5ae7397731d063d5bbf3d657854427343f4c083240f7aacaa2d0f628888604051613d74929190616758565b60405180910390a4613d8a8288888888886142f3565b50505050505050565b60007f01ffc9a7000000000000000000000000000000000000000000000000000000007bffffffffffffffffffffffffffffffffffffffffffffffffffffffff1916827bffffffffffffffffffffffffffffffffffffffffffffffffffffffff1916149050919050565b613e0b8686868686866144c3565b60005b83518110156140545784600c6000868481518110613e55577f4e487b7100000000000000000000000000000000000000000000000000000000600052603260045260246000fd5b6020026020010151815260200190815260200160002060006101000a81548173ffffffffffffffffffffffffffffffffffffffff021916908373ffffffffffffffffffffffffffffffffffffffff160217905550600073ffffffffffffffffffffffffffffffffffffffff168673ffffffffffffffffffffffffffffffffffffffff1614613f6657613f65600b60008873ffffffffffffffffffffffffffffffffffffffff1673ffffffffffffffffffffffffffffffffffffffff168152602001908152602001600020858381518110613f58577f4e487b7100000000000000000000000000000000000000000000000000000000600052603260045260246000fd5b6020026020010151614521565b5b600073ffffffffffffffffffffffffffffffffffffffff168573ffffffffffffffffffffffffffffffffffffffff161461404157600b60008673ffffffffffffffffffffffffffffffffffffffff1673ffffffffffffffffffffffffffffffffffffffff168152602001908152602001600020848281518110614012577f4e487b7100000000000000000000000000000000000000000000000000000000600052603260045260246000fd5b602002602001015190806001815401808255809150506001900390600052602060002001600090919091909150555b808061404c90616c6a565b915050613e0e565b50505050505050565b61407c8473ffffffffffffffffffffffffffffffffffffffff166145cd565b15614225578373ffffffffffffffffffffffffffffffffffffffff1663bc197c8187878686866040518663ffffffff1660e01b81526004016140c2959493929190616205565b602060405180830381600087803b1580156140dc57600080fd5b505af192505050801561410d57506040513d601f19601f8201168201806040525081019061410a9190615257565b60015b61419c57614119616d5e565b806141245750614161565b806040517f08c379a0000000000000000000000000000000000000000000000000000000008152600401614158919061633b565b60405180910390fd5b6040517f08c379a00000000000000000000000000000000000000000000000000000000081526004016141939061635d565b60405180910390fd5b63bc197c8160e01b7bffffffffffffffffffffffffffffffffffffffffffffffffffffffff1916817bffffffffffffffffffffffffffffffffffffffffffffffffffffffff191614614223576040517f08c379a000000000000000000000000000000000000000000000000000000000815260040161421a9061637d565b60405180910390fd5b505b505050505050565b60606000600167ffffffffffffffff811115614272577f4e487b7100000000000000000000000000000000000000000000000000000000600052604160045260246000fd5b6040519080825280602002602001820160405280156142a05781602001602082028036833780820191505090505b50905082816000815181106142de577f4e487b7100000000000000000000000000000000000000000000000000000000600052603260045260246000fd5b60200260200101818152505080915050919050565b6143128473ffffffffffffffffffffffffffffffffffffffff166145cd565b156144bb578373ffffffffffffffffffffffffffffffffffffffff1663f23a6e6187878686866040518663ffffffff1660e01b815260040161435895949392919061626d565b602060405180830381600087803b15801561437257600080fd5b505af19250505080156143a357506040513d601f19601f820116820180604052508101906143a09190615257565b60015b614432576143af616d5e565b806143ba57506143f7565b806040517f08c379a00000000000000000000000000000000000000000000000000000000081526004016143ee919061633b565b60405180910390fd5b6040517f08c379a00000000000000000000000000000000000000000000000000000000081526004016144299061635d565b60405180910390fd5b63f23a6e6160e01b7bffffffffffffffffffffffffffffffffffffffffffffffffffffffff1916817bffffffffffffffffffffffffffffffffffffffffffffffffffffffff1916146144b9576040517f08c379a00000000000000000000000000000000000000000000000000000000081526004016144b09061637d565b60405180910390fd5b505b505050505050565b6144d18686868686866145e0565b6144d96116b0565b15614519576040517f08c379a00000000000000000000000000000000000000000000000000000000081526004016145109061643d565b60405180910390fd5b505050505050565b60005b8183828154811061455e577f4e487b7100000000000000000000000000000000000000000000000000000000600052603260045260246000fd5b90600052602060002001541461458157808061457990616c6a565b915050614524565b8281815481106145ba577f4e487b7100000000000000000000000000000000000000000000000000000000600052603260045260246000fd5b9060005260206000200160009055505050565b600080823b905060008111915050919050565b505050505050565b8280546145f490616c38565b90600052602060002090601f016020900481019282614616576000855561465d565b82601f1061462f57805160ff191683800117855561465d565b8280016001018555821561465d579182015b8281111561465c578251825591602001919060010190614641565b5b50905061466a919061466e565b5090565b5b8082111561468757600081600090555060010161466f565b5090565b600061469e614699846168b7565b616886565b905080838252602082019050828560208602820111156146bd57600080fd5b60005b858110156146ed57816146d388826147df565b8452602084019350602083019250506001810190506146c0565b5050509392505050565b600061470a614705846168e3565b616886565b9050808382526020820190508285602086028201111561472957600080fd5b60005b85811015614759578161473f8882614aac565b84526020840193506020830192505060018101905061472c565b5050509392505050565b60006147766147718461690f565b616886565b90508281526020810184848401111561478e57600080fd5b614799848285616bf6565b509392505050565b60006147b46147af8461693f565b616886565b9050828152602081018484840111156147cc57600080fd5b6147d7848285616bf6565b509392505050565b6000813590506147ee81616e14565b92915050565b60008083601f84011261480657600080fd5b8235905067ffffffffffffffff81111561481f57600080fd5b60208301915083602082028301111561483757600080fd5b9250929050565b600082601f83011261484f57600080fd5b813561485f84826020860161468b565b91505092915050565b60008083601f84011261487a57600080fd5b8235905067ffffffffffffffff81111561489357600080fd5b6020830191508360208202830111156148ab57600080fd5b9250929050565b60008083601f8401126148c457600080fd5b8235905067ffffffffffffffff8111156148dd57600080fd5b6020830191508360208202830111156148f557600080fd5b9250929050565b60008083601f84011261490e57600080fd5b8235905067ffffffffffffffff81111561492757600080fd5b60208301915083602082028301111561493f57600080fd5b9250929050565b60008083601f84011261495857600080fd5b8235905067ffffffffffffffff81111561497157600080fd5b60208301915083602082028301111561498957600080fd5b9250929050565b60008083601f8401126149a257600080fd5b8235905067ffffffffffffffff8111156149bb57600080fd5b6020830191508360208202830111156149d357600080fd5b9250929050565b600082601f8301126149eb57600080fd5b81356149fb8482602086016146f7565b91505092915050565b600081359050614a1381616e2b565b92915050565b600081359050614a2881616e42565b92915050565b600081519050614a3d81616e42565b92915050565b600082601f830112614a5457600080fd5b8135614a64848260208601614763565b91505092915050565b600082601f830112614a7e57600080fd5b8135614a8e8482602086016147a1565b91505092915050565b600081359050614aa681616e59565b92915050565b600081359050614abb81616e70565b92915050565b600060208284031215614ad357600080fd5b6000614ae1848285016147df565b91505092915050565b60008060408385031215614afd57600080fd5b6000614b0b858286016147df565b9250506020614b1c858286016147df565b9150509250929050565b600080600080600060a08688031215614b3e57600080fd5b6000614b4c888289016147df565b9550506020614b5d888289016147df565b945050604086013567ffffffffffffffff811115614b7a57600080fd5b614b86888289016149da565b935050606086013567ffffffffffffffff811115614ba357600080fd5b614baf888289016149da565b925050608086013567ffffffffffffffff811115614bcc57600080fd5b614bd888828901614a43565b9150509295509295909350565b600080600080600060a08688031215614bfd57600080fd5b6000614c0b888289016147df565b9550506020614c1c888289016147df565b9450506040614c2d88828901614aac565b9350506060614c3e88828901614aac565b925050608086013567ffffffffffffffff811115614c5b57600080fd5b614c6788828901614a43565b9150509295509295909350565b60008060008060008060808789031215614c8d57600080fd5b6000614c9b89828a016147df565b965050602087013567ffffffffffffffff811115614cb857600080fd5b614cc489828a01614990565b9550955050604087013567ffffffffffffffff811115614ce357600080fd5b614cef89828a01614990565b9350935050606087013567ffffffffffffffff811115614d0e57600080fd5b614d1a89828a01614a43565b9150509295509295509295565b60008060408385031215614d3a57600080fd5b6000614d48858286016147df565b925050602083013567ffffffffffffffff811115614d6557600080fd5b614d71858286016149da565b9150509250929050565b60008060408385031215614d8e57600080fd5b6000614d9c858286016147df565b9250506020614dad85828601614a04565b9150509250929050565b60008060008060008060008060a0898b031215614dd357600080fd5b6000614de18b828c016147df565b985050602089013567ffffffffffffffff811115614dfe57600080fd5b614e0a8b828c01614a6d565b975050604089013567ffffffffffffffff811115614e2757600080fd5b614e338b828c01614990565b9650965050606089013567ffffffffffffffff811115614e5257600080fd5b614e5e8b828c01614990565b9450945050608089013567ffffffffffffffff811115614e7d57600080fd5b614e898b828c016148fc565b92509250509295985092959890939650565b60008060408385031215614eae57600080fd5b6000614ebc858286016147df565b9250506020614ecd85828601614aac565b9150509250929050565b600080600060608486031215614eec57600080fd5b6000614efa868287016147df565b9350506020614f0b86828701614aac565b9250506040614f1c86828701614aac565b9150509250925092565b60008060008060808587031215614f3c57600080fd5b6000614f4a878288016147df565b9450506020614f5b87828801614aac565b9350506040614f6c87828801614aac565b925050606085013567ffffffffffffffff811115614f8957600080fd5b614f9587828801614a43565b91505092959194509250565b600080600080600060a08688031215614fb957600080fd5b6000614fc7888289016147df565b9550506020614fd888828901614aac565b9450506040614fe988828901614aac565b935050606086013567ffffffffffffffff81111561500657600080fd5b61501288828901614a6d565b925050608086013567ffffffffffffffff81111561502f57600080fd5b61503b88828901614a43565b9150509295509295909350565b60008060008060008060008060008060a08b8d03121561506757600080fd5b60008b013567ffffffffffffffff81111561508157600080fd5b61508d8d828e016147f4565b9a509a505060208b013567ffffffffffffffff8111156150ac57600080fd5b6150b88d828e01614946565b985098505060408b013567ffffffffffffffff8111156150d757600080fd5b6150e38d828e01614990565b965096505060608b013567ffffffffffffffff81111561510257600080fd5b61510e8d828e016148b2565b945094505060808b013567ffffffffffffffff81111561512d57600080fd5b6151398d828e01614868565b92509250509295989b9194979a5092959850565b6000806040838503121561516057600080fd5b600083013567ffffffffffffffff81111561517a57600080fd5b6151868582860161483e565b925050602083013567ffffffffffffffff8111156151a357600080fd5b6151af858286016149da565b9150509250929050565b600080600080604085870312156151cf57600080fd5b600085013567ffffffffffffffff8111156151e957600080fd5b6151f587828801614990565b9450945050602085013567ffffffffffffffff81111561521457600080fd5b61522087828801614990565b925092505092959194509250565b60006020828403121561524057600080fd5b600061524e84828501614a19565b91505092915050565b60006020828403121561526957600080fd5b600061527784828501614a2e565b91505092915050565b60006020828403121561529257600080fd5b600082013567ffffffffffffffff8111156152ac57600080fd5b6152b884828501614a6d565b91505092915050565b6000602082840312156152d357600080fd5b60006152e184828501614a97565b91505092915050565b600080604083850312156152fd57600080fd5b600061530b85828601614a97565b925050602061531c858286016147df565b9150509250929050565b60006020828403121561533857600080fd5b600061534684828501614aac565b91505092915050565b6000806040838503121561536257600080fd5b600061537085828601614aac565b925050602083013567ffffffffffffffff81111561538d57600080fd5b61539985828601614a6d565b9150509250929050565b600080604083850312156153b657600080fd5b60006153c485828601614aac565b92505060206153d585828601614aac565b9150509250929050565b60006153ec848484615557565b90509392505050565b600061540183836161a8565b60208301905092915050565b61541681616b74565b82525050565b600061542883856169d9565b93508360208402850161543a8461696f565b8060005b878110156154805784840389526154558284616a39565b6154608682846153df565b955061546b846169bf565b935060208b019a50505060018101905061543e565b50829750879450505050509392505050565b600061549e83856169ea565b93507f07ffffffffffffffffffffffffffffffffffffffffffffffffffffffffffffff8311156154cd57600080fd5b6020830292506154de838584616bf6565b82840190509392505050565b60006154f58261699e565b6154ff81856169ea565b935061550a83616979565b8060005b8381101561553b57815161552288826153f5565b975061552d836169cc565b92505060018101905061550e565b5085935050505092915050565b61555181616b86565b82525050565b600061556383856169fb565b9350615570838584616bf6565b61557983616d40565b840190509392505050565b600061558f826169a9565b6155998185616a0c565b93506155a9818560208601616c05565b6155b281616d40565b840191505092915050565b60006155c8826169b4565b6155d28185616a1d565b93506155e2818560208601616c05565b6155eb81616d40565b840191505092915050565b6000615601826169b4565b61560b8185616a2e565b935061561b818560208601616c05565b80840191505092915050565b6000815461563481616c38565b61563e8186616a2e565b94506001821660008114615659576001811461566a5761569d565b60ff1983168652818601935061569d565b61567385616989565b60005b8381101561569557815481890152600182019150602081019050615676565b838801955050505b50505092915050565b60006156b3603483616a1d565b91507f455243313135353a207472616e7366657220746f206e6f6e204552433131353560008301527f526563656976657220696d706c656d656e7465720000000000000000000000006020830152604082019050919050565b6000615719602883616a1d565b91507f455243313135353a204552433131353552656365697665722072656a6563746560008301527f6420746f6b656e730000000000000000000000000000000000000000000000006020830152604082019050919050565b600061577f601483616a1d565b91507f5061757361626c653a206e6f74207061757365640000000000000000000000006000830152602082019050919050565b60006157bf602b83616a1d565b91507f455243313135353a2062616c616e636520717565727920666f7220746865207a60008301527f65726f20616464726573730000000000000000000000000000000000000000006020830152604082019050919050565b6000615825602683616a1d565b91507f4f776e61626c653a206e6577206f776e657220697320746865207a65726f206160008301527f64647265737300000000000000000000000000000000000000000000000000006020830152604082019050919050565b600061588b602f83616a1d565b91507f455243313135355072657365742363726561746f724f6e6c793a204f4e4c595f60008301527f43524541544f525f414c4c4f57454400000000000000000000000000000000006020830152604082019050919050565b60006158f1602483616a1d565b91507f455243313135353a206275726e20616d6f756e7420657863656564732062616c60008301527f616e6365000000000000000000000000000000000000000000000000000000006020830152604082019050919050565b6000615957602c83616a1d565b91507f455243313135355061757361626c653a20746f6b656e207472616e736665722060008301527f7768696c652070617573656400000000000000000000000000000000000000006020830152604082019050919050565b60006159bd602983616a1d565b91507f455243313135353a2063616c6c6572206973206e6f74206f776e6572206e6f7260008301527f20617070726f76656400000000000000000000000000000000000000000000006020830152604082019050919050565b6000615a23602d83616a1d565b91507f45524331313535507265736574236f776e6572734f6e6c793a204f4e4c595f4f60008301527f574e4552535f414c4c4f574544000000000000000000000000000000000000006020830152604082019050919050565b6000615a89602d83616a1d565b91507f455243313135355072657365742362617463684d696e743a204f4e4c595f435260008301527f4541544f525f414c4c4f574544000000000000000000000000000000000000006020830152604082019050919050565b6000615aef601083616a1d565b91507f5061757361626c653a20706175736564000000000000000000000000000000006000830152602082019050919050565b6000615b2f602583616a1d565b91507f455243313135353a207472616e7366657220746f20746865207a65726f20616460008301527f64726573730000000000000000000000000000000000000000000000000000006020830152604082019050919050565b6000615b95603283616a1d565b91507f455243313135353a207472616e736665722063616c6c6572206973206e6f742060008301527f6f776e6572206e6f7220617070726f76656400000000000000000000000000006020830152604082019050919050565b6000615bfb602e83616a1d565b91507f45524331313535507265736574236372656174653a20746f6b656e205f69642060008301527f616c7265616479206578697374730000000000000000000000000000000000006020830152604082019050919050565b6000615c61602c83616a1d565b91507f4e4654466163746f7279236372656174654e46543a20696e76616c696420617460008301527f74726962757465207479706500000000000000000000000000000000000000006020830152604082019050919050565b6000615cc7603b83616a1d565b91507f4e4654466163746f7279236372656174654e46543a206174747269627574657360008301527f20616e642076616c756573206c656e677468206d69736d6174636800000000006020830152604082019050919050565b6000615d2d602383616a1d565b91507f455243313135353a206275726e2066726f6d20746865207a65726f206164647260008301527f65737300000000000000000000000000000000000000000000000000000000006020830152604082019050919050565b6000615d93602a83616a1d565b91507f455243313135353a20696e73756666696369656e742062616c616e636520666f60008301527f72207472616e73666572000000000000000000000000000000000000000000006020830152604082019050919050565b6000615df9602083616a1d565b91507f4f776e61626c653a2063616c6c6572206973206e6f7420746865206f776e65726000830152602082019050919050565b6000615e39602a83616a1d565b91507f455243313135355072657365742373657443726561746f723a20494e56414c4960008301527f445f414444524553532e000000000000000000000000000000000000000000006020830152604082019050919050565b6000615e9f604683616a1d565b91507f4e4654466163746f72792362617463684372656174654e46543a20696e69746960008301527f616c4f776e65727320616e64206d6574616461746173206c656e677468206d6960208301527f736d6174636800000000000000000000000000000000000000000000000000006040830152606082019050919050565b6000615f2b602183616a1d565b91507f4e4654466163746f7279237572693a206e6f6e6578697374656e7420746f6b6560008301527f6e000000000000000000000000000000000000000000000000000000000000006020830152604082019050919050565b6000615f91604383616a1d565b91507f4e4654466163746f72792362617463684372656174654e46543a20696e69746960008301527f616c4f776e65727320616e642076616c756573206c656e677468206d69736d6160208301527f74636800000000000000000000000000000000000000000000000000000000006040830152606082019050919050565b600061601d602983616a1d565b91507f455243313135353a2073657474696e6720617070726f76616c2073746174757360008301527f20666f722073656c6600000000000000000000000000000000000000000000006020830152604082019050919050565b6000616083602983616a1d565b91507f455243313135353a206163636f756e747320616e6420696473206c656e67746860008301527f206d69736d6174636800000000000000000000000000000000000000000000006020830152604082019050919050565b60006160e9602883616a1d565b91507f455243313135353a2069647320616e6420616d6f756e7473206c656e6774682060008301527f6d69736d617463680000000000000000000000000000000000000000000000006020830152604082019050919050565b600061614f602183616a1d565b91507f455243313135353a206d696e7420746f20746865207a65726f2061646472657360008301527f73000000000000000000000000000000000000000000000000000000000000006020830152604082019050919050565b6161b181616bec565b82525050565b6161c081616bec565b82525050565b60006161d282856155f6565b91506161de8284615627565b91508190509392505050565b60006020820190506161ff600083018461540d565b92915050565b600060a08201905061621a600083018861540d565b616227602083018761540d565b818103604083015261623981866154ea565b9050818103606083015261624d81856154ea565b905081810360808301526162618184615584565b90509695505050505050565b600060a082019050616282600083018861540d565b61628f602083018761540d565b61629c60408301866161b7565b6162a960608301856161b7565b81810360808301526162bb8184615584565b90509695505050505050565b600060208201905081810360008301526162e181846154ea565b905092915050565b6000604082019050818103600083015261630381856154ea565b9050818103602083015261631781846154ea565b90509392505050565b60006020820190506163356000830184615548565b92915050565b6000602082019050818103600083015261635581846155bd565b905092915050565b60006020820190508181036000830152616376816156a6565b9050919050565b600060208201905081810360008301526163968161570c565b9050919050565b600060208201905081810360008301526163b681615772565b9050919050565b600060208201905081810360008301526163d6816157b2565b9050919050565b600060208201905081810360008301526163f681615818565b9050919050565b600060208201905081810360008301526164168161587e565b9050919050565b60006020820190508181036000830152616436816158e4565b9050919050565b600060208201905081810360008301526164568161594a565b9050919050565b60006020820190508181036000830152616476816159b0565b9050919050565b6000602082019050818103600083015261649681615a16565b9050919050565b600060208201905081810360008301526164b681615a7c565b9050919050565b600060208201905081810360008301526164d681615ae2565b9050919050565b600060208201905081810360008301526164f681615b22565b9050919050565b6000602082019050818103600083015261651681615b88565b9050919050565b6000602082019050818103600083015261653681615bee565b9050919050565b6000602082019050818103600083015261655681615c54565b9050919050565b6000602082019050818103600083015261657681615cba565b9050919050565b6000602082019050818103600083015261659681615d20565b9050919050565b600060208201905081810360008301526165b681615d86565b9050919050565b600060208201905081810360008301526165d681615dec565b9050919050565b600060208201905081810360008301526165f681615e2c565b9050919050565b6000602082019050818103600083015261661681615e92565b9050919050565b6000602082019050818103600083015261663681615f1e565b9050919050565b6000602082019050818103600083015261665681615f84565b9050919050565b6000602082019050818103600083015261667681616010565b9050919050565b6000602082019050818103600083015261669681616076565b9050919050565b600060208201905081810360008301526166b6816160dc565b9050919050565b600060208201905081810360008301526166d681616142565b9050919050565b60006020820190506166f260008301846161b7565b92915050565b600060808201905061670d600083018a6161b7565b818103602083015261672081888a615492565b90508181036040830152616735818688615492565b9050818103606083015261674a81848661541c565b905098975050505050505050565b600060408201905061676d60008301856161b7565b61677a60208301846161b7565b9392505050565b6000808335600160200384360303811261679a57600080fd5b80840192508235915067ffffffffffffffff8211156167b857600080fd5b6020830192506020820236038313156167d057600080fd5b509250929050565b600080833560016020038436030381126167f157600080fd5b80840192508235915067ffffffffffffffff82111561680f57600080fd5b60208301925060208202360383131561682757600080fd5b509250929050565b6000808335600160200384360303811261684857600080fd5b80840192508235915067ffffffffffffffff82111561686657600080fd5b60208301925060018202360383131561687e57600080fd5b509250929050565b6000604051905081810181811067ffffffffffffffff821117156168ad576168ac616d11565b5b8060405250919050565b600067ffffffffffffffff8211156168d2576168d1616d11565b5b602082029050602081019050919050565b600067ffffffffffffffff8211156168fe576168fd616d11565b5b602082029050602081019050919050565b600067ffffffffffffffff82111561692a57616929616d11565b5b601f19601f8301169050602081019050919050565b600067ffffffffffffffff82111561695a57616959616d11565b5b601f19601f8301169050602081019050919050565b6000819050919050565b6000819050602082019050919050565b60008190508160005260206000209050919050565b600081519050919050565b600081519050919050565b600081519050919050565b6000602082019050919050565b6000602082019050919050565b600082825260208201905092915050565b600082825260208201905092915050565b600082825260208201905092915050565b600082825260208201905092915050565b600082825260208201905092915050565b600081905092915050565b60008083356001602003843603038112616a5257600080fd5b83810192508235915060208301925067ffffffffffffffff821115616a7657600080fd5b600182023603841315616a8857600080fd5b509250929050565b6000616a9b82616bec565b9150616aa683616bec565b9250827fffffffffffffffffffffffffffffffffffffffffffffffffffffffffffffffff03821115616adb57616ada616cb3565b5b828201905092915050565b6000616af182616bec565b9150616afc83616bec565b9250817fffffffffffffffffffffffffffffffffffffffffffffffffffffffffffffffff0483118215151615616b3557616b34616cb3565b5b828202905092915050565b6000616b4b82616bec565b9150616b5683616bec565b925082821015616b6957616b68616cb3565b5b828203905092915050565b6000616b7f82616bcc565b9050919050565b60008115159050919050565b60007fffffffff0000000000000000000000000000000000000000000000000000000082169050919050565b600061ffff82169050919050565b600073ffffffffffffffffffffffffffffffffffffffff82169050919050565b6000819050919050565b82818337600083830152505050565b60005b83811015616c23578082015181840152602081019050616c08565b83811115616c32576000848401525b50505050565b60006002820490506001821680616c5057607f821691505b60208210811415616c6457616c63616ce2565b5b50919050565b6000616c7582616bec565b91507fffffffffffffffffffffffffffffffffffffffffffffffffffffffffffffffff821415616ca857616ca7616cb3565b5b600182019050919050565b7f4e487b7100000000000000000000000000000000000000000000000000000000600052601160045260246000fd5b7f4e487b7100000000000000000000000000000000000000000000000000000000600052602260045260246000fd5b7f4e487b7100000000000000000000000000000000000000000000000000000000600052604160045260246000fd5b6000601f19601f8301169050919050565b60008160e01c9050919050565b600060443d1015616d6e57616e11565b60046000803e616d7f600051616d51565b6308c379a08114616d905750616e11565b60405160043d036004823e80513d602482011167ffffffffffffffff82111715616dbc57505050616e11565b808201805167ffffffffffffffff811115616ddb575050505050616e11565b8060208301013d8501811115616df657505050505050616e11565b616dff82616d40565b60208401016040528296505050505050505b90565b616e1d81616b74565b8114616e2857600080fd5b50565b616e3481616b86565b8114616e3f57600080fd5b50565b616e4b81616b92565b8114616e5657600080fd5b50565b616e6281616bbe565b8114616e6d57600080fd5b50565b616e7981616bec565b8114616e8457600080fd5b5056fea26469706673582212204c65ef9f198e319a3ae02b99c91dd4b80281f9e87d0e2fe89c6e47f35c43f87464736f6c63430008000033",
  "immutableReferences": {},
  "source": "// SPDX-License-Identifier: MIT\r\n\r\npragma solidity ^0.8.0;\r\n\r\nimport \"./ERC1155/ERC1155Preset.sol\";\r\nimport \"./ERC3664/IERC3664.sol\";\r\nimport \"openzeppelin-solidity/contracts/utils/math/SafeMath.sol\";\r\nimport \"openzeppelin-solidity/contracts/token/ERC1155/extensions/ERC1155Pausable.sol\";\r\n\r\n/**\r\n * @title NFTFactory\r\n * NFTFactory - ERC1155 contract has create and mint functionality, and supports useful standards from OpenZeppelin,\r\n  like _exists(), name(), symbol(), and totalSupply()\r\n */\r\ncontract NFTFactory is ERC1155Preset {\r\n    using SafeMath for uint256;\r\n\r\n    uint256 private _currentNFTId = 0;\r\n\r\n    mapping(uint256 => string) public tokenMetadatas;\r\n    mapping(address => uint256[]) private _holderTokens;\r\n    mapping(uint256 => address) public tokenOwners;\r\n    mapping(uint16 => address) public attributes;\r\n\r\n    constructor(\r\n        string memory _name,\r\n        string memory _symbol,\r\n        string memory _uri\r\n    ) ERC1155Preset(_name, _symbol, _uri) {}\r\n\r\n    function registerAttribute(uint16 _class, address _attr) public onlyOwner {\r\n        attributes[_class] = _attr;\r\n    }\r\n\r\n    function getNextTokenID() public view returns (uint256) {\r\n        return _currentNFTId.add(1);\r\n    }\r\n\r\n    function getHolderTokens(\r\n        address holder,\r\n        uint256 size,\r\n        uint256 page\r\n    ) public view returns (uint256[] memory) {\r\n        uint256 beginIdx = size * page;\r\n        uint256 rest = _holderTokens[holder].length - beginIdx;\r\n        uint256 quantity = rest > size ? size : rest;\r\n        uint256[] memory tokens = new uint256[](quantity);\r\n        if (quantity > 0) {\r\n            uint256 i = 0;\r\n            while (i < quantity) {\r\n                tokens[i] = _holderTokens[holder][beginIdx + i];\r\n                i++;\r\n            }\r\n        }\r\n        return tokens;\r\n    }\r\n\r\n    function holderTokensCount(address holder) public view returns (uint256) {\r\n        return _holderTokens[holder].length;\r\n    }\r\n\r\n    function uri(uint256 _id) public view override returns (string memory) {\r\n        require(_exists(_id), \"NFTFactory#uri: nonexistent token\");\r\n        // We have to convert string to bytes to check for existence\r\n        bytes memory customUriBytes = bytes(customUri[_id]);\r\n        if (customUriBytes.length > 0) {\r\n            return customUri[_id];\r\n        } else {\r\n            return\r\n                string(abi.encodePacked(super.uri(_id), tokenMetadatas[_id]));\r\n        }\r\n    }\r\n\r\n    function createNFT(\r\n        address _initialOwner,\r\n        string memory _metadata,\r\n        uint256[] calldata _attributes,\r\n        uint256[] calldata _values,\r\n        bytes[] calldata _texts\r\n    ) public onlyOwner returns (uint256 tokenId) {\r\n        require(\r\n            _attributes.length == _values.length,\r\n            \"NFTFactory#createNFT: attributes and values length mismatch\"\r\n        );\r\n        // create nft only attach generic attribute.\r\n        uint16 attrType = 2;\r\n        require(\r\n            attributes[attrType] != address(0),\r\n            \"NFTFactory#createNFT: invalid attribute type\"\r\n        );\r\n\r\n        uint256 _id = _currentNFTId++;\r\n        tokenMetadatas[_id] = _metadata;\r\n\r\n        IERC3664(attributes[attrType]).batchAttach(\r\n            _id,\r\n            _attributes,\r\n            _values,\r\n            _texts\r\n        );\r\n\r\n        tokenId = create(_initialOwner, _id, 1, \"\", \"\");\r\n    }\r\n\r\n    function batchCreateNFT(\r\n        address[] calldata _initialOwners,\r\n        string[] calldata _metadatas,\r\n        uint256[] calldata _attributes,\r\n        uint256[][] calldata _values,\r\n        bytes[][] calldata _texts\r\n    ) external onlyOwner returns (uint256[] memory tokenIds) {\r\n        require(\r\n            _initialOwners.length == _metadatas.length,\r\n            \"NFTFactory#batchCreateNFT: initialOwners and metadatas length mismatch\"\r\n        );\r\n        require(\r\n            _initialOwners.length == _values.length,\r\n            \"NFTFactory#batchCreateNFT: initialOwners and values length mismatch\"\r\n        );\r\n        require(\r\n            attributes[2] != address(0),\r\n            \"NFTFactory#createNFT: invalid attribute type\"\r\n        );\r\n\r\n        tokenIds = new uint256[](_initialOwners.length);\r\n        for (uint256 i = 0; i < _initialOwners.length; i++) {\r\n            createNFT(\r\n                _initialOwners[i],\r\n                _metadatas[i],\r\n                _attributes,\r\n                _values[i],\r\n                _texts[i]\r\n            );\r\n        }\r\n    }\r\n\r\n    function _beforeTokenTransfer(\r\n        address operator,\r\n        address from,\r\n        address to,\r\n        uint256[] memory ids,\r\n        uint256[] memory amounts,\r\n        bytes memory data\r\n    ) internal virtual override(ERC1155Pausable) {\r\n        super._beforeTokenTransfer(operator, from, to, ids, amounts, data);\r\n\r\n        for (uint256 i = 0; i < ids.length; i++) {\r\n            tokenOwners[ids[i]] = to;\r\n            if (from != address(0)) {\r\n                _removeByValue(_holderTokens[from], ids[i]);\r\n            }\r\n            if (to != address(0)) {\r\n                _holderTokens[to].push(ids[i]);\r\n            }\r\n        }\r\n    }\r\n\r\n    function _removeByValue(uint256[] storage values, uint256 value) internal {\r\n        uint256 i = 0;\r\n        while (values[i] != value) {\r\n            i++;\r\n        }\r\n        delete values[i];\r\n    }\r\n}\r\n",
  "sourcePath": "D:\\MetaNFT\\MetaNFT\\contracts\\NFTFactory.sol",
  "compiler": {
    "name": "solc",
    "version": "0.8.0+commit.c7dfd78e.Emscripten.clang"
  },
  "schemaVersion": "3.4.3",
  "updatedAt": "2021-09-22T09:26:17.527Z",
  "devdoc": {
    "kind": "dev",
    "methods": {
      "balanceOf(address,uint256)": {
        "details": "See {IERC1155-balanceOf}. Requirements: - `account` cannot be the zero address."
      },
      "balanceOfBatch(address[],uint256[])": {
        "details": "See {IERC1155-balanceOfBatch}. Requirements: - `accounts` and `ids` must have the same length."
      },
      "batchBurn(uint256[],uint256[])": {
        "details": "This will not change the current issuance tracked in _supplyManagerAddr.",
        "params": {
          "_ids": "Asset id to burn",
          "_quantities": "The amount to be burn"
        }
      },
      "batchMint(address,uint256[],uint256[],bytes)": {
        "details": "Mint tokens for each id in _ids",
        "params": {
          "_data": "Data to pass if receiver is contract",
          "_ids": "Array of ids to mint",
          "_quantities": "Array of amounts of tokens to mint per id",
          "_to": "The address to mint tokens to"
        }
      },
      "burn(uint256,uint256)": {
        "details": "This will not change the current issuance tracked in _supplyManagerAddr.",
        "params": {
          "_id": "Asset id to burn",
          "_quantity": "The amount to be burn"
        }
      },
      "create(address,uint256,uint256,string,bytes)": {
        "details": "Creates a new token type and assigns _initialSupply to an address NOTE: remove onlyOwner if you want third parties to create new tokens on       your contract (which may change your IDs) NOTE: The token id must be passed. This allows lazy creation of tokens or       creating NFTs by setting the id's high bits with the method       described in ERC1155 or to use ids representing values other than       successive small integers. If you wish to create ids as successive       small integers you can either subclass this class to count onchain       or maintain the offchain cache of identifiers recommended in       ERC1155 and calculate successive ids from that.",
        "params": {
          "_data": "Data to pass if receiver is contract",
          "_id": "The id of the token to create (must not currenty exist).",
          "_initialOwner": "address of the first owner of the token",
          "_initialSupply": "amount to supply the first owner",
          "_uri": "Optional URI for this token type"
        },
        "returns": {
          "_0": "The newly created token ID"
        }
      },
      "isApprovedForAll(address,address)": {
        "details": "See {IERC1155-isApprovedForAll}."
      },
      "mint(address,uint256,uint256,bytes)": {
        "details": "Mints some amount of tokens to an address",
        "params": {
          "_data": "Data to pass if receiver is contract",
          "_id": "Token ID to mint",
          "_quantity": "Amount of tokens to mint",
          "_to": "Address of the future owner of the token"
        }
      },
      "owner()": {
        "details": "Returns the address of the current owner."
      },
      "pause()": {
        "details": "Pauses all token transfers. See {ERC1155Pausable} and {Pausable-_pause}. Requirements: - the caller must contract owner."
      },
      "paused()": {
        "details": "Returns true if the contract is paused, and false otherwise."
      },
      "renounceOwnership()": {
        "details": "Leaves the contract without owner. It will not be possible to call `onlyOwner` functions anymore. Can only be called by the current owner. NOTE: Renouncing ownership will leave the contract without an owner, thereby removing any functionality that is only available to the owner."
      },
      "safeBatchTransferFrom(address,address,uint256[],uint256[],bytes)": {
        "details": "See {IERC1155-safeBatchTransferFrom}."
      },
      "safeTransferFrom(address,address,uint256,uint256,bytes)": {
        "details": "See {IERC1155-safeTransferFrom}."
      },
      "setApprovalForAll(address,bool)": {
        "details": "See {IERC1155-setApprovalForAll}."
      },
      "setCreator(address,uint256[])": {
        "details": "Change the creator address for given tokens",
        "params": {
          "_ids": "Array of Token IDs to change creator",
          "_to": "Address of the new creator"
        }
      },
      "setCustomURI(uint256,string)": {
        "details": "Will update the base URI for the token",
        "params": {
          "_newURI": "New URI for the token.",
          "_tokenId": "The token to update. _msgSender() must be its creator."
        }
      },
      "setURI(string)": {
        "details": "Sets a new URI for all token types, by relying on the token type ID substitution mechanism https://eips.ethereum.org/EIPS/eip-1155#metadata[defined in the EIP].",
        "params": {
          "_newURI": "New URI for all tokens"
        }
      },
      "supportsInterface(bytes4)": {
        "details": "See {IERC165-supportsInterface}."
      },
      "totalSupply(uint256)": {
        "details": "Returns the total quantity for a token ID",
        "params": {
          "_id": "uint256 ID of the token to query"
        },
        "returns": {
          "_0": "amount of token in existence"
        }
      },
      "transferOwnership(address)": {
        "details": "Transfers ownership of the contract to a new account (`newOwner`). Can only be called by the current owner."
      },
      "unpause()": {
        "details": "Unpauses all token transfers. See {ERC1155Pausable} and {Pausable-_unpause}. Requirements: - the caller must contract owner."
      }
    },
    "title": "NFTFactory NFTFactory - ERC1155 contract has create and mint functionality, and supports useful standards from OpenZeppelin, like _exists(), name(), symbol(), and totalSupply()",
    "version": 1
  },
  "userdoc": {
    "kind": "user",
    "methods": {
      "batchBurn(uint256[],uint256[])": {
        "notice": "Burn _quantities of tokens of given ids from msg.sender"
      },
      "burn(uint256,uint256)": {
        "notice": "Burn _quantity of tokens of a given id from msg.sender"
      }
    },
    "version": 1
  }
}