{
  "contractName": "NFTIncubator",
  "abi": [
    {
      "inputs": [
        {
          "internalType": "address",
          "name": "_nft",
          "type": "address"
        },
        {
          "internalType": "address",
          "name": "_blindBox",
          "type": "address"
        }
      ],
      "stateMutability": "nonpayable",
      "type": "constructor"
    },
    {
      "anonymous": false,
      "inputs": [
        {
          "indexed": true,
          "internalType": "address",
          "name": "from",
          "type": "address"
        },
        {
          "indexed": false,
          "internalType": "uint256",
          "name": "incubatorId",
          "type": "uint256"
        },
        {
          "indexed": false,
          "internalType": "uint256",
          "name": "first",
          "type": "uint256"
        },
        {
          "indexed": false,
          "internalType": "uint256",
          "name": "second",
          "type": "uint256"
        }
      ],
      "name": "IncubatorBreed",
      "type": "event"
    },
    {
      "anonymous": false,
      "inputs": [
        {
          "indexed": true,
          "internalType": "address",
          "name": "from",
          "type": "address"
        },
        {
          "indexed": false,
          "internalType": "uint256",
          "name": "incubatorId",
          "type": "uint256"
        },
        {
          "indexed": false,
          "internalType": "uint256",
          "name": "tokenId",
          "type": "uint256"
        }
      ],
      "name": "IncubatorStore",
      "type": "event"
    },
    {
      "anonymous": false,
      "inputs": [
        {
          "indexed": true,
          "internalType": "address",
          "name": "previousOwner",
          "type": "address"
        },
        {
          "indexed": true,
          "internalType": "address",
          "name": "newOwner",
          "type": "address"
        }
      ],
      "name": "OwnershipTransferred",
      "type": "event"
    },
    {
      "inputs": [],
      "name": "blindBox",
      "outputs": [
        {
          "internalType": "address",
          "name": "",
          "type": "address"
        }
      ],
      "stateMutability": "view",
      "type": "function"
    },
    {
      "inputs": [],
      "name": "incubatorCoolDown",
      "outputs": [
        {
          "internalType": "uint32",
          "name": "",
          "type": "uint32"
        }
      ],
      "stateMutability": "view",
      "type": "function"
    },
    {
      "inputs": [],
      "name": "incubatorMatchWait",
      "outputs": [
        {
          "internalType": "uint32",
          "name": "",
          "type": "uint32"
        }
      ],
      "stateMutability": "view",
      "type": "function"
    },
    {
      "inputs": [
        {
          "internalType": "uint256",
          "name": "",
          "type": "uint256"
        }
      ],
      "name": "incubators",
      "outputs": [
        {
          "internalType": "enum NFTIncubator.IncubatorType",
          "name": "iType",
          "type": "uint8"
        },
        {
          "internalType": "address",
          "name": "owner",
          "type": "address"
        },
        {
          "internalType": "address",
          "name": "storer",
          "type": "address"
        },
        {
          "internalType": "uint256",
          "name": "matchWaitEndTime",
          "type": "uint256"
        },
        {
          "internalType": "uint256",
          "name": "coolDownEndTime",
          "type": "uint256"
        }
      ],
      "stateMutability": "view",
      "type": "function"
    },
    {
      "inputs": [],
      "name": "nft",
      "outputs": [
        {
          "internalType": "address",
          "name": "",
          "type": "address"
        }
      ],
      "stateMutability": "view",
      "type": "function"
    },
    {
      "inputs": [],
      "name": "owner",
      "outputs": [
        {
          "internalType": "address",
          "name": "",
          "type": "address"
        }
      ],
      "stateMutability": "view",
      "type": "function"
    },
    {
      "inputs": [],
      "name": "renounceOwnership",
      "outputs": [],
      "stateMutability": "nonpayable",
      "type": "function"
    },
    {
      "inputs": [
        {
          "internalType": "address",
          "name": "newOwner",
          "type": "address"
        }
      ],
      "name": "transferOwnership",
      "outputs": [],
      "stateMutability": "nonpayable",
      "type": "function"
    },
    {
      "inputs": [
        {
          "internalType": "uint256[]",
          "name": "_ids",
          "type": "uint256[]"
        }
      ],
      "name": "createSharedIncubators",
      "outputs": [],
      "stateMutability": "nonpayable",
      "type": "function"
    },
    {
      "inputs": [
        {
          "internalType": "uint256",
          "name": "_incubatorId",
          "type": "uint256"
        },
        {
          "internalType": "uint256",
          "name": "_tokenId",
          "type": "uint256"
        }
      ],
      "name": "store",
      "outputs": [],
      "stateMutability": "nonpayable",
      "type": "function"
    },
    {
      "inputs": [
        {
          "internalType": "uint256",
          "name": "_incubatorId",
          "type": "uint256"
        },
        {
          "internalType": "uint256",
          "name": "_tokenId",
          "type": "uint256"
        }
      ],
      "name": "breed",
      "outputs": [],
      "stateMutability": "nonpayable",
      "type": "function"
    }
  ],
  "bytecode": "0x6080604052610384600060146101000a81548163ffffffff021916908363ffffffff160217905550613840600060186101000a81548163ffffffff021916908363ffffffff1602179055503480156200005757600080fd5b50604051620021a2380380620021a283398181016040528101906200007d91906200020a565b6200009d620000916200012760201b60201c565b6200012f60201b60201c565b81600160006101000a81548173ffffffffffffffffffffffffffffffffffffffff021916908373ffffffffffffffffffffffffffffffffffffffff16021790555080600260006101000a81548173ffffffffffffffffffffffffffffffffffffffff021916908373ffffffffffffffffffffffffffffffffffffffff160217905550505062000299565b600033905090565b60008060009054906101000a900473ffffffffffffffffffffffffffffffffffffffff169050816000806101000a81548173ffffffffffffffffffffffffffffffffffffffff021916908373ffffffffffffffffffffffffffffffffffffffff1602179055508173ffffffffffffffffffffffffffffffffffffffff168173ffffffffffffffffffffffffffffffffffffffff167f8be0079c531659141344cd1fd0a4f28419497f9722a3daafe3b4186f6b6457e060405160405180910390a35050565b60008151905062000204816200027f565b92915050565b600080604083850312156200021e57600080fd5b60006200022e85828601620001f3565b92505060206200024185828601620001f3565b9150509250929050565b600062000258826200025f565b9050919050565b600073ffffffffffffffffffffffffffffffffffffffff82169050919050565b6200028a816200024b565b81146200029657600080fd5b50565b611ef980620002a96000396000f3fe608060405234801561001057600080fd5b50600436106100a95760003560e01c806388baa3021161007157806388baa3021461012e5780638da5cb5b1461014c578063cdd7dbf01461016a578063d9ecad7b14610186578063f2fde38b146101a2578063f89309f2146101be576100a9565b806347ccca02146100ae5780636a4aeeb8146100cc5780636ed28ed0146100ea578063715018a614610106578063870be72714610110575b600080fd5b6100b66101f2565b6040516100c391906119a9565b60405180910390f35b6100d4610218565b6040516100e191906119a9565b60405180910390f35b61010460048036038101906100ff91906114ad565b61023e565b005b61010e61076f565b005b6101186107f7565b6040516101259190611c75565b60405180910390f35b61013661080d565b6040516101439190611c75565b60405180910390f35b610154610823565b60405161016191906119a9565b60405180910390f35b610184600480360381019061017f9190611416565b61084c565b005b6101a0600480360381019061019b91906114ad565b610aad565b005b6101bc60048036038101906101b791906113ed565b6110bb565b005b6101d860048036038101906101d3919061145b565b6111b3565b6040516101e9959493929190611a47565b60405180910390f35b600160009054906101000a900473ffffffffffffffffffffffffffffffffffffffff1681565b600260009054906101000a900473ffffffffffffffffffffffffffffffffffffffff1681565b60006003600084815260200190815260200160002090506000600281111561028f577f4e487b7100000000000000000000000000000000000000000000000000000000600052602160045260246000fd5b8160000160009054906101000a900460ff1660028111156102d9577f4e487b7100000000000000000000000000000000000000000000000000000000600052602160045260246000fd5b141561031a576040517f08c379a000000000000000000000000000000000000000000000000000000000815260040161031190611aba565b60405180910390fd5b60016002811115610354577f4e487b7100000000000000000000000000000000000000000000000000000000600052602160045260246000fd5b8160000160009054906101000a900460ff16600281111561039e577f4e487b7100000000000000000000000000000000000000000000000000000000600052602160045260246000fd5b1415610442578060000160019054906101000a900473ffffffffffffffffffffffffffffffffffffffff1673ffffffffffffffffffffffffffffffffffffffff166103e7611236565b73ffffffffffffffffffffffffffffffffffffffff161461043d576040517f08c379a000000000000000000000000000000000000000000000000000000000815260040161043490611afa565b60405180910390fd5b61048a565b4281600501541115610489576040517f08c379a000000000000000000000000000000000000000000000000000000000815260040161048090611b7a565b60405180910390fd5b5b6000816002016000600281106104c9577f4e487b7100000000000000000000000000000000000000000000000000000000600052603260045260246000fd5b015414806105265750600081600201600060028110610511577f4e487b7100000000000000000000000000000000000000000000000000000000600052603260045260246000fd5b015414158015610525575042816004015411155b5b610565576040517f08c379a000000000000000000000000000000000000000000000000000000000815260040161055c90611b9a565b60405180910390fd5b6000600160009054906101000a900473ffffffffffffffffffffffffffffffffffffffff1673ffffffffffffffffffffffffffffffffffffffff1662fdd58e6105ac611236565b856040518363ffffffff1660e01b81526004016105ca929190611a1e565b60206040518083038186803b1580156105e257600080fd5b505afa1580156105f6573d6000803e3d6000fd5b505050506040513d601f19601f8201168201806040525081019061061a9190611484565b1161065a576040517f08c379a000000000000000000000000000000000000000000000000000000000815260040161065190611b3a565b60405180910390fd5b600060189054906101000a900463ffffffff1663ffffffff164261067e9190611cbd565b816004018190555081816002016000600281106106c4577f4e487b7100000000000000000000000000000000000000000000000000000000600052603260045260246000fd5b01819055506106d1611236565b8160010160006101000a81548173ffffffffffffffffffffffffffffffffffffffff021916908373ffffffffffffffffffffffffffffffffffffffff16021790555061071b611236565b73ffffffffffffffffffffffffffffffffffffffff167f6d7b604a63c939b76502852dcd3dac172cdb31796acd52a32460e8fa94f80c928484604051610762929190611c15565b60405180910390a2505050565b610777611236565b73ffffffffffffffffffffffffffffffffffffffff16610795610823565b73ffffffffffffffffffffffffffffffffffffffff16146107eb576040517f08c379a00000000000000000000000000000000000000000000000000000000081526004016107e290611b1a565b60405180910390fd5b6107f5600061123e565b565b600060149054906101000a900463ffffffff1681565b600060189054906101000a900463ffffffff1681565b60008060009054906101000a900473ffffffffffffffffffffffffffffffffffffffff16905090565b610854611236565b73ffffffffffffffffffffffffffffffffffffffff16610872610823565b73ffffffffffffffffffffffffffffffffffffffff16146108c8576040517f08c379a00000000000000000000000000000000000000000000000000000000081526004016108bf90611b1a565b60405180910390fd5b60005b82829050811015610aa85760006002811115610910577f4e487b7100000000000000000000000000000000000000000000000000000000600052602160045260246000fd5b6003600085858581811061094d577f4e487b7100000000000000000000000000000000000000000000000000000000600052603260045260246000fd5b90506020020135815260200190815260200160002060000160009054906101000a900460ff1660028111156109ab577f4e487b7100000000000000000000000000000000000000000000000000000000600052602160045260246000fd5b146109eb576040517f08c379a00000000000000000000000000000000000000000000000000000000081526004016109e290611bda565b60405180910390fd5b600060036000858585818110610a2a577f4e487b7100000000000000000000000000000000000000000000000000000000600052603260045260246000fd5b905060200201358152602001908152602001600020905060028160000160006101000a81548160ff02191690836002811115610a8f577f4e487b7100000000000000000000000000000000000000000000000000000000600052602160045260246000fd5b0217905550508080610aa090611dc9565b9150506108cb565b505050565b600060036000848152602001908152602001600020905060006002811115610afe577f4e487b7100000000000000000000000000000000000000000000000000000000600052602160045260246000fd5b8160000160009054906101000a900460ff166002811115610b48577f4e487b7100000000000000000000000000000000000000000000000000000000600052602160045260246000fd5b1415610b89576040517f08c379a0000000000000000000000000000000000000000000000000000000008152600401610b8090611b5a565b60405180910390fd5b600081600201600060028110610bc8577f4e487b7100000000000000000000000000000000000000000000000000000000600052603260045260246000fd5b0154905060008114158015610c1b5750600082600201600160028110610c17577f4e487b7100000000000000000000000000000000000000000000000000000000600052603260045260246000fd5b0154145b610c5a576040517f08c379a0000000000000000000000000000000000000000000000000000000008152600401610c5190611bba565b60405180910390fd5b6000600160009054906101000a900473ffffffffffffffffffffffffffffffffffffffff1673ffffffffffffffffffffffffffffffffffffffff1662fdd58e610ca1611236565b866040518363ffffffff1660e01b8152600401610cbf929190611a1e565b60206040518083038186803b158015610cd757600080fd5b505afa158015610ceb573d6000803e3d6000fd5b505050506040513d601f19601f82011682018060405250810190610d0f9190611484565b11610d4f576040517f08c379a0000000000000000000000000000000000000000000000000000000008152600401610d4690611ada565b60405180910390fd5b600160009054906101000a900473ffffffffffffffffffffffffffffffffffffffff1673ffffffffffffffffffffffffffffffffffffffff1663f242432a8360010160009054906101000a900473ffffffffffffffffffffffffffffffffffffffff16600260009054906101000a900473ffffffffffffffffffffffffffffffffffffffff1684600180604051602001610de99190611bfa565b6040516020818303038152906040526040518663ffffffff1660e01b8152600401610e189594939291906119c4565b600060405180830381600087803b158015610e3257600080fd5b505af1158015610e46573d6000803e3d6000fd5b50505050600160009054906101000a900473ffffffffffffffffffffffffffffffffffffffff1673ffffffffffffffffffffffffffffffffffffffff1663f242432a610e90611236565b600260009054906101000a900473ffffffffffffffffffffffffffffffffffffffff1686600180604051602001610ec79190611bfa565b6040516020818303038152906040526040518663ffffffff1660e01b8152600401610ef69594939291906119c4565b600060405180830381600087803b158015610f1057600080fd5b505af1158015610f24573d6000803e3d6000fd5b5050505060008260010160006101000a81548173ffffffffffffffffffffffffffffffffffffffff021916908373ffffffffffffffffffffffffffffffffffffffff1602179055506040518060400160405280600060ff168152602001600060ff1681525082600201906002610f9b929190611302565b5060008260040181905550600280811115610fdf577f4e487b7100000000000000000000000000000000000000000000000000000000600052602160045260246000fd5b8260000160009054906101000a900460ff166002811115611029577f4e487b7100000000000000000000000000000000000000000000000000000000600052602160045260246000fd5b141561105c57600060149054906101000a900463ffffffff1663ffffffff16426110539190611cbd565b82600501819055505b611064611236565b73ffffffffffffffffffffffffffffffffffffffff167fafabccb3f6dc26fcf63ec7c2fb639650e22c9fec15bb38b557be937f22dd337e8583866040516110ad93929190611c3e565b60405180910390a250505050565b6110c3611236565b73ffffffffffffffffffffffffffffffffffffffff166110e1610823565b73ffffffffffffffffffffffffffffffffffffffff1614611137576040517f08c379a000000000000000000000000000000000000000000000000000000000815260040161112e90611b1a565b60405180910390fd5b600073ffffffffffffffffffffffffffffffffffffffff168173ffffffffffffffffffffffffffffffffffffffff1614156111a7576040517f08c379a000000000000000000000000000000000000000000000000000000000815260040161119e90611a9a565b60405180910390fd5b6111b08161123e565b50565b60036020528060005260406000206000915090508060000160009054906101000a900460ff16908060000160019054906101000a900473ffffffffffffffffffffffffffffffffffffffff16908060010160009054906101000a900473ffffffffffffffffffffffffffffffffffffffff16908060040154908060050154905085565b600033905090565b60008060009054906101000a900473ffffffffffffffffffffffffffffffffffffffff169050816000806101000a81548173ffffffffffffffffffffffffffffffffffffffff021916908373ffffffffffffffffffffffffffffffffffffffff1602179055508173ffffffffffffffffffffffffffffffffffffffff168173ffffffffffffffffffffffffffffffffffffffff167f8be0079c531659141344cd1fd0a4f28419497f9722a3daafe3b4186f6b6457e060405160405180910390a35050565b8260028101928215611336579160200282015b82811115611335578251829060ff16905591602001919060010190611315565b5b5090506113439190611347565b5090565b5b80821115611360576000816000905550600101611348565b5090565b60008135905061137381611e95565b92915050565b60008083601f84011261138b57600080fd5b8235905067ffffffffffffffff8111156113a457600080fd5b6020830191508360208202830111156113bc57600080fd5b9250929050565b6000813590506113d281611eac565b92915050565b6000815190506113e781611eac565b92915050565b6000602082840312156113ff57600080fd5b600061140d84828501611364565b91505092915050565b6000806020838503121561142957600080fd5b600083013567ffffffffffffffff81111561144357600080fd5b61144f85828601611379565b92509250509250929050565b60006020828403121561146d57600080fd5b600061147b848285016113c3565b91505092915050565b60006020828403121561149657600080fd5b60006114a4848285016113d8565b91505092915050565b600080604083850312156114c057600080fd5b60006114ce858286016113c3565b92505060206114df858286016113c3565b9150509250929050565b6114f281611d13565b82525050565b600061150382611c90565b61150d8185611c9b565b935061151d818560208601611d96565b61152681611e70565b840191505092915050565b61153a81611d72565b82525050565b61154981611d84565b82525050565b600061155c602683611cac565b91507f4f776e61626c653a206e6577206f776e657220697320746865207a65726f206160008301527f64647265737300000000000000000000000000000000000000000000000000006020830152604082019050919050565b60006115c2602783611cac565b91507f4e4654496e63756261746f722373746f72652c20696e63756261746f72206e6f60008301527f74206578697374000000000000000000000000000000000000000000000000006020830152604082019050919050565b6000611628602483611cac565b91507f4e4654496e63756261746f722362726565642c206e6f7420647261676f6e206f60008301527f776e6572000000000000000000000000000000000000000000000000000000006020830152604082019050919050565b600061168e602783611cac565b91507f4e4654496e63756261746f722373746f72652c206e6f7420696e63756261746f60008301527f72206f776e6572000000000000000000000000000000000000000000000000006020830152604082019050919050565b60006116f4602083611cac565b91507f4f776e61626c653a2063616c6c6572206973206e6f7420746865206f776e65726000830152602082019050919050565b6000611734602483611cac565b91507f4e4654496e63756261746f722373746f72652c206e6f7420647261676f6e206f60008301527f776e6572000000000000000000000000000000000000000000000000000000006020830152604082019050919050565b600061179a602783611cac565b91507f4e4654496e63756261746f722362726565642c20696e63756261746f72206e6f60008301527f74206578697374000000000000000000000000000000000000000000000000006020830152604082019050919050565b6000611800602d83611cac565b91507f4e4654496e63756261746f722373746f72652c20696e63756261746f7220636f60008301527f6f6c646f776e20706572696f64000000000000000000000000000000000000006020830152604082019050919050565b6000611866602c83611cac565b91507f4e4654496e63756261746f722373746f72652c20696e63756261746f7220616c60008301527f72656164792073746f72656400000000000000000000000000000000000000006020830152604082019050919050565b60006118cc602c83611cac565b91507f4e4654496e63756261746f722362726565642c20696e63756261746f72206e6f60008301527f74207965742073746f72656400000000000000000000000000000000000000006020830152604082019050919050565b6000611932603e83611cac565b91507f4e4654496e63756261746f7223637265617465536861726564496e637562617460008301527f6f72733a20696e63756261746f7220616c7265616479206372656174656400006020830152604082019050919050565b61199481611d58565b82525050565b6119a381611d62565b82525050565b60006020820190506119be60008301846114e9565b92915050565b600060a0820190506119d960008301886114e9565b6119e660208301876114e9565b6119f3604083018661198b565b611a006060830185611540565b8181036080830152611a1281846114f8565b90509695505050505050565b6000604082019050611a3360008301856114e9565b611a40602083018461198b565b9392505050565b600060a082019050611a5c6000830188611531565b611a6960208301876114e9565b611a7660408301866114e9565b611a83606083018561198b565b611a90608083018461198b565b9695505050505050565b60006020820190508181036000830152611ab38161154f565b9050919050565b60006020820190508181036000830152611ad3816115b5565b9050919050565b60006020820190508181036000830152611af38161161b565b9050919050565b60006020820190508181036000830152611b1381611681565b9050919050565b60006020820190508181036000830152611b33816116e7565b9050919050565b60006020820190508181036000830152611b5381611727565b9050919050565b60006020820190508181036000830152611b738161178d565b9050919050565b60006020820190508181036000830152611b93816117f3565b9050919050565b60006020820190508181036000830152611bb381611859565b9050919050565b60006020820190508181036000830152611bd3816118bf565b9050919050565b60006020820190508181036000830152611bf381611925565b9050919050565b6000602082019050611c0f600083018461198b565b92915050565b6000604082019050611c2a600083018561198b565b611c37602083018461198b565b9392505050565b6000606082019050611c53600083018661198b565b611c60602083018561198b565b611c6d604083018461198b565b949350505050565b6000602082019050611c8a600083018461199a565b92915050565b600081519050919050565b600082825260208201905092915050565b600082825260208201905092915050565b6000611cc882611d58565b9150611cd383611d58565b9250827fffffffffffffffffffffffffffffffffffffffffffffffffffffffffffffffff03821115611d0857611d07611e12565b5b828201905092915050565b6000611d1e82611d38565b9050919050565b6000819050611d3382611e81565b919050565b600073ffffffffffffffffffffffffffffffffffffffff82169050919050565b6000819050919050565b600063ffffffff82169050919050565b6000611d7d82611d25565b9050919050565b6000611d8f82611d58565b9050919050565b60005b83811015611db4578082015181840152602081019050611d99565b83811115611dc3576000848401525b50505050565b6000611dd482611d58565b91507fffffffffffffffffffffffffffffffffffffffffffffffffffffffffffffffff821415611e0757611e06611e12565b5b600182019050919050565b7f4e487b7100000000000000000000000000000000000000000000000000000000600052601160045260246000fd5b7f4e487b7100000000000000000000000000000000000000000000000000000000600052602160045260246000fd5b6000601f19601f8301169050919050565b60038110611e9257611e91611e41565b5b50565b611e9e81611d13565b8114611ea957600080fd5b50565b611eb581611d58565b8114611ec057600080fd5b5056fea2646970667358221220b1b2693b61d2355cfb2361bda5e86c7f41a4b5495e0bd56bf1f7f5fcfe3a018a64736f6c63430008000033",
  "immutableReferences": {},
  "source": "// SPDX-License-Identifier: MIT\r\n\r\npragma solidity ^0.8.0;\r\n\r\nimport \"openzeppelin-solidity/contracts/access/Ownable.sol\";\r\nimport \"openzeppelin-solidity/contracts/token/ERC1155/IERC1155.sol\";\r\n\r\ncontract NFTIncubator is Ownable {\r\n    uint32 public incubatorCoolDown = uint32(15 minutes);\r\n\r\n    uint32 public incubatorMatchWait = uint32(4 hours);\r\n\r\n    address public nft;\r\n\r\n    address public blindBox;\r\n\r\n    enum IncubatorType {\r\n        None,\r\n        Private,\r\n        Shared\r\n    }\r\n\r\n    struct IncubatorInfo {\r\n        IncubatorType iType;\r\n        address owner;\r\n        address storer;\r\n        uint256[2] seats;\r\n        uint256 matchWaitEndTime;\r\n        uint256 coolDownEndTime;\r\n    }\r\n\r\n    mapping(uint256 => IncubatorInfo) public incubators;\r\n\r\n    event IncubatorStore(\r\n        address indexed from,\r\n        uint256 incubatorId,\r\n        uint256 tokenId\r\n    );\r\n    event IncubatorBreed(\r\n        address indexed from,\r\n        uint256 incubatorId,\r\n        uint256 first,\r\n        uint256 second\r\n    );\r\n\r\n    constructor(address _nft, address _blindBox) {\r\n        nft = _nft;\r\n        blindBox = _blindBox;\r\n    }\r\n\r\n    function createSharedIncubators(uint256[] calldata _ids) public onlyOwner {\r\n        for (uint256 i = 0; i < _ids.length; i++) {\r\n            require(\r\n                incubators[_ids[i]].iType == IncubatorType.None,\r\n                \"NFTIncubator#createSharedIncubators: incubator already created\"\r\n            );\r\n            IncubatorInfo storage incubator = incubators[_ids[i]];\r\n            incubator.iType = IncubatorType.Shared;\r\n        }\r\n    }\r\n\r\n    function store(uint256 _incubatorId, uint256 _tokenId) public {\r\n        IncubatorInfo storage incubator = incubators[_incubatorId];\r\n        require(\r\n            incubator.iType != IncubatorType.None,\r\n            \"NFTIncubator#store, incubator not exist\"\r\n        );\r\n        if (incubator.iType == IncubatorType.Private) {\r\n            require(\r\n                _msgSender() == incubator.owner,\r\n                \"NFTIncubator#store, not incubator owner\"\r\n            );\r\n        } else {\r\n            require(\r\n                incubator.coolDownEndTime <= block.timestamp,\r\n                \"NFTIncubator#store, incubator cooldown period\"\r\n            );\r\n        }\r\n        require(\r\n            incubator.seats[0] == 0 ||\r\n                (incubator.seats[0] != 0 &&\r\n                    incubator.matchWaitEndTime <= block.timestamp),\r\n            \"NFTIncubator#store, incubator already stored\"\r\n        );\r\n\r\n        require(\r\n            IERC1155(nft).balanceOf(_msgSender(), _tokenId) > 0,\r\n            \"NFTIncubator#store, not dragon owner\"\r\n        );\r\n        incubator.matchWaitEndTime = block.timestamp + incubatorMatchWait;\r\n        incubator.seats[0] = _tokenId;\r\n        incubator.storer = _msgSender();\r\n\r\n        emit IncubatorStore(_msgSender(), _incubatorId, _tokenId);\r\n    }\r\n\r\n    function breed(uint256 _incubatorId, uint256 _tokenId) public {\r\n        IncubatorInfo storage incubator = incubators[_incubatorId];\r\n        require(\r\n            incubator.iType != IncubatorType.None,\r\n            \"NFTIncubator#breed, incubator not exist\"\r\n        );\r\n        uint256 firstToken = incubator.seats[0];\r\n        require(\r\n            firstToken != 0 && incubator.seats[1] == 0,\r\n            \"NFTIncubator#breed, incubator not yet stored\"\r\n        );\r\n        require(\r\n            IERC1155(nft).balanceOf(_msgSender(), _tokenId) > 0,\r\n            \"NFTIncubator#breed, not dragon owner\"\r\n        );\r\n        // TODO  stageNum\r\n\r\n        IERC1155(nft).safeTransferFrom(\r\n            incubator.storer,\r\n            blindBox,\r\n            firstToken,\r\n            1,\r\n            abi.encode(uint256(1))\r\n        );\r\n        IERC1155(nft).safeTransferFrom(\r\n            _msgSender(),\r\n            blindBox,\r\n            _tokenId,\r\n            1,\r\n            abi.encode(uint256(1))\r\n        );\r\n        incubator.storer = address(0);\r\n        incubator.seats = [0, 0];\r\n        incubator.matchWaitEndTime = 0;\r\n        if (incubator.iType == IncubatorType.Shared) {\r\n            incubator.coolDownEndTime = block.timestamp + incubatorCoolDown;\r\n        }\r\n\r\n        emit IncubatorBreed(_msgSender(), _incubatorId, firstToken, _tokenId);\r\n    }\r\n}\r\n",
  "sourcePath": "D:\\MetaNFT\\MetaNFT\\contracts\\NFTIncubator.sol",
  "compiler": {
    "name": "solc",
    "version": "0.8.0+commit.c7dfd78e.Emscripten.clang"
  },
  "schemaVersion": "3.4.3",
  "updatedAt": "2021-09-22T09:26:17.678Z",
  "devdoc": {
    "kind": "dev",
    "methods": {
      "owner()": {
        "details": "Returns the address of the current owner."
      },
      "renounceOwnership()": {
        "details": "Leaves the contract without owner. It will not be possible to call `onlyOwner` functions anymore. Can only be called by the current owner. NOTE: Renouncing ownership will leave the contract without an owner, thereby removing any functionality that is only available to the owner."
      },
      "transferOwnership(address)": {
        "details": "Transfers ownership of the contract to a new account (`newOwner`). Can only be called by the current owner."
      }
    },
    "version": 1
  },
  "userdoc": {
    "kind": "user",
    "methods": {},
    "version": 1
  }
}