{
  "contractName": "UpgradableAttribute",
  "abi": [
    {
      "inputs": [],
      "stateMutability": "nonpayable",
      "type": "constructor"
    },
    {
      "anonymous": false,
      "inputs": [
        {
          "indexed": false,
          "internalType": "uint256",
          "name": "nftId",
          "type": "uint256"
        },
        {
          "indexed": false,
          "internalType": "uint256",
          "name": "attrId",
          "type": "uint256"
        },
        {
          "indexed": false,
          "internalType": "uint8",
          "name": "level",
          "type": "uint8"
        }
      ],
      "name": "AttributeLevelUpgraded",
      "type": "event"
    },
    {
      "anonymous": false,
      "inputs": [
        {
          "indexed": false,
          "internalType": "uint256",
          "name": "nftId",
          "type": "uint256"
        },
        {
          "indexed": false,
          "internalType": "uint256",
          "name": "attrId",
          "type": "uint256"
        },
        {
          "indexed": false,
          "internalType": "uint8",
          "name": "subLevel",
          "type": "uint8"
        }
      ],
      "name": "AttributeSubLevelUpgraded",
      "type": "event"
    },
    {
      "anonymous": false,
      "inputs": [
        {
          "indexed": true,
          "internalType": "address",
          "name": "previousOperator",
          "type": "address"
        },
        {
          "indexed": true,
          "internalType": "address",
          "name": "newOperator",
          "type": "address"
        }
      ],
      "name": "OperatorChanged",
      "type": "event"
    },
    {
      "anonymous": false,
      "inputs": [
        {
          "indexed": true,
          "internalType": "address",
          "name": "previousOwner",
          "type": "address"
        },
        {
          "indexed": true,
          "internalType": "address",
          "name": "newOwner",
          "type": "address"
        }
      ],
      "name": "OwnershipTransferred",
      "type": "event"
    },
    {
      "anonymous": false,
      "inputs": [
        {
          "indexed": false,
          "internalType": "uint256",
          "name": "nftId",
          "type": "uint256"
        },
        {
          "indexed": false,
          "internalType": "uint256",
          "name": "attrId",
          "type": "uint256"
        }
      ],
      "name": "UpgradableAttributeAttached",
      "type": "event"
    },
    {
      "anonymous": false,
      "inputs": [
        {
          "indexed": false,
          "internalType": "string",
          "name": "name",
          "type": "string"
        },
        {
          "indexed": false,
          "internalType": "uint256",
          "name": "id",
          "type": "uint256"
        }
      ],
      "name": "UpgradableAttributeCreated",
      "type": "event"
    },
    {
      "anonymous": false,
      "inputs": [
        {
          "indexed": false,
          "internalType": "uint256",
          "name": "nftId",
          "type": "uint256"
        },
        {
          "indexed": false,
          "internalType": "uint256",
          "name": "attrId",
          "type": "uint256"
        }
      ],
      "name": "UpgradableAttributeRemoved",
      "type": "event"
    },
    {
      "inputs": [
        {
          "internalType": "uint256",
          "name": "",
          "type": "uint256"
        }
      ],
      "name": "attrs",
      "outputs": [
        {
          "internalType": "string",
          "name": "name",
          "type": "string"
        },
        {
          "internalType": "string",
          "name": "description",
          "type": "string"
        },
        {
          "internalType": "uint8",
          "name": "level",
          "type": "uint8"
        },
        {
          "internalType": "uint8",
          "name": "subLevel",
          "type": "uint8"
        }
      ],
      "stateMutability": "view",
      "type": "function"
    },
    {
      "inputs": [
        {
          "internalType": "address",
          "name": "newOperator",
          "type": "address"
        }
      ],
      "name": "changeOperator",
      "outputs": [],
      "stateMutability": "nonpayable",
      "type": "function"
    },
    {
      "inputs": [],
      "name": "class",
      "outputs": [
        {
          "internalType": "uint16",
          "name": "",
          "type": "uint16"
        }
      ],
      "stateMutability": "view",
      "type": "function"
    },
    {
      "inputs": [
        {
          "internalType": "uint256",
          "name": "",
          "type": "uint256"
        },
        {
          "internalType": "uint256",
          "name": "",
          "type": "uint256"
        }
      ],
      "name": "nftAttrs",
      "outputs": [
        {
          "internalType": "uint256",
          "name": "",
          "type": "uint256"
        }
      ],
      "stateMutability": "view",
      "type": "function"
    },
    {
      "inputs": [],
      "name": "operator",
      "outputs": [
        {
          "internalType": "address",
          "name": "",
          "type": "address"
        }
      ],
      "stateMutability": "view",
      "type": "function"
    },
    {
      "inputs": [],
      "name": "owner",
      "outputs": [
        {
          "internalType": "address",
          "name": "",
          "type": "address"
        }
      ],
      "stateMutability": "view",
      "type": "function"
    },
    {
      "inputs": [],
      "name": "renounceOwnership",
      "outputs": [],
      "stateMutability": "nonpayable",
      "type": "function"
    },
    {
      "inputs": [
        {
          "internalType": "address",
          "name": "newOwner",
          "type": "address"
        }
      ],
      "name": "transferOwnership",
      "outputs": [],
      "stateMutability": "nonpayable",
      "type": "function"
    },
    {
      "inputs": [
        {
          "internalType": "uint256",
          "name": "_attrId",
          "type": "uint256"
        }
      ],
      "name": "name",
      "outputs": [
        {
          "internalType": "string",
          "name": "",
          "type": "string"
        }
      ],
      "stateMutability": "view",
      "type": "function"
    },
    {
      "inputs": [
        {
          "internalType": "uint256",
          "name": "_attrId",
          "type": "uint256"
        }
      ],
      "name": "description",
      "outputs": [
        {
          "internalType": "string",
          "name": "",
          "type": "string"
        }
      ],
      "stateMutability": "view",
      "type": "function"
    },
    {
      "inputs": [
        {
          "internalType": "uint256",
          "name": "_nftId",
          "type": "uint256"
        }
      ],
      "name": "getNFTAttrs",
      "outputs": [
        {
          "internalType": "uint256[]",
          "name": "",
          "type": "uint256[]"
        }
      ],
      "stateMutability": "view",
      "type": "function"
    },
    {
      "inputs": [
        {
          "internalType": "uint256",
          "name": "_attrId",
          "type": "uint256"
        }
      ],
      "name": "maxLevel",
      "outputs": [
        {
          "internalType": "uint8",
          "name": "",
          "type": "uint8"
        }
      ],
      "stateMutability": "view",
      "type": "function"
    },
    {
      "inputs": [
        {
          "internalType": "uint256",
          "name": "_attrId",
          "type": "uint256"
        }
      ],
      "name": "maxSubLevel",
      "outputs": [
        {
          "internalType": "uint8",
          "name": "",
          "type": "uint8"
        }
      ],
      "stateMutability": "view",
      "type": "function"
    },
    {
      "inputs": [
        {
          "internalType": "uint256",
          "name": "_id",
          "type": "uint256"
        },
        {
          "internalType": "string",
          "name": "_name",
          "type": "string"
        },
        {
          "internalType": "string",
          "name": "_description",
          "type": "string"
        },
        {
          "internalType": "uint8",
          "name": "_level",
          "type": "uint8"
        },
        {
          "internalType": "uint8",
          "name": "_subLevel",
          "type": "uint8"
        }
      ],
      "name": "create",
      "outputs": [],
      "stateMutability": "nonpayable",
      "type": "function"
    },
    {
      "inputs": [
        {
          "internalType": "uint256",
          "name": "_nftId",
          "type": "uint256"
        },
        {
          "internalType": "uint256",
          "name": "_attrId",
          "type": "uint256"
        }
      ],
      "name": "attach",
      "outputs": [],
      "stateMutability": "nonpayable",
      "type": "function"
    },
    {
      "inputs": [
        {
          "internalType": "uint256",
          "name": "_nftId",
          "type": "uint256"
        },
        {
          "internalType": "uint256",
          "name": "_attrId",
          "type": "uint256"
        }
      ],
      "name": "remove",
      "outputs": [],
      "stateMutability": "nonpayable",
      "type": "function"
    },
    {
      "inputs": [
        {
          "internalType": "uint256",
          "name": "_nftId",
          "type": "uint256"
        },
        {
          "internalType": "uint256",
          "name": "_attrId",
          "type": "uint256"
        },
        {
          "internalType": "uint8",
          "name": "_level",
          "type": "uint8"
        }
      ],
      "name": "upgradeLevel",
      "outputs": [],
      "stateMutability": "nonpayable",
      "type": "function"
    },
    {
      "inputs": [
        {
          "internalType": "uint256",
          "name": "_nftId",
          "type": "uint256"
        },
        {
          "internalType": "uint256",
          "name": "_attrId",
          "type": "uint256"
        },
        {
          "internalType": "uint8",
          "name": "_subLevel",
          "type": "uint8"
        }
      ],
      "name": "upgradeSubLevel",
      "outputs": [],
      "stateMutability": "nonpayable",
      "type": "function"
    }
  ],
  "bytecode": "0x60806040523480156200001157600080fd5b50600262000034620000286200010960201b60201c565b6200011160201b60201c565b6000620000466200010960201b60201c565b905080600160006101000a81548173ffffffffffffffffffffffffffffffffffffffff021916908373ffffffffffffffffffffffffffffffffffffffff1602179055508073ffffffffffffffffffffffffffffffffffffffff16600073ffffffffffffffffffffffffffffffffffffffff167fd58299b712891143e76310d5e664c4203c940a67db37cf856bdaa3c5c76a802c60405160405180910390a35080600160146101000a81548161ffff021916908361ffff16021790555050620001d5565b600033905090565b60008060009054906101000a900473ffffffffffffffffffffffffffffffffffffffff169050816000806101000a81548173ffffffffffffffffffffffffffffffffffffffff021916908373ffffffffffffffffffffffffffffffffffffffff1602179055508173ffffffffffffffffffffffffffffffffffffffff168173ffffffffffffffffffffffffffffffffffffffff167f8be0079c531659141344cd1fd0a4f28419497f9722a3daafe3b4186f6b6457e060405160405180910390a35050565b61258080620001e56000396000f3fe608060405234801561001057600080fd5b50600436106101155760003560e01c8063570ca735116100a25780639ebd36f3116100715780639ebd36f3146102dc578063b7e305f41461030f578063bff852fa1461033f578063c55e0ec51461035d578063f2fde38b1461037957610115565b8063570ca7351461027a5780636526db7a14610298578063715018a6146102b45780638da5cb5b146102be57610115565b80632d8b4f54116100e95780632d8b4f54146101b257806334045d06146101e257806339b60f8c146102125780633b4307dc1461022e5780633d7d674f1461024a57610115565b8062ad800c1461011a57806306394c9b1461014a57806327eca7f2146101665780632c5f13e014610182575b600080fd5b610134600480360381019061012f9190611866565b610395565b6040516101419190611fd9565b60405180910390f35b610164600480360381019061015f919061183d565b61043d565b005b610180600480360381019061017b9190611972565b61056d565b005b61019c60048036038101906101979190611866565b6107ee565b6040516101a99190611fd9565b60405180910390f35b6101cc60048036038101906101c79190611866565b610896565b6040516101d99190612294565b60405180910390f35b6101fc60048036038101906101f79190611866565b6108c3565b6040516102099190611f8e565b60405180910390f35b61022c6004803603810190610227919061188f565b61092e565b005b61024860048036038101906102439190611972565b610af2565b005b610264600480360381019061025f9190611866565b610ded565b6040516102719190612294565b60405180910390f35b610282610e1a565b60405161028f9190611f73565b60405180910390f35b6102b260048036038101906102ad9190611936565b610e44565b005b6102bc61105a565b005b6102c66110e2565b6040516102d39190611f73565b60405180910390f35b6102f660048036038101906102f19190611866565b61110b565b6040516103069493929190611ffb565b60405180910390f35b61032960048036038101906103249190611936565b611265565b6040516103369190612219565b60405180910390f35b610347611296565b60405161035491906121fe565b60405180910390f35b61037760048036038101906103729190611936565b6112ae565b005b610393600480360381019061038e919061183d565b6114b9565b005b60606002600083815260200190815260200160002060000180546103b890612435565b80601f01602080910402602001604051908101604052809291908181526020018280546103e490612435565b80156104315780601f1061040657610100808354040283529160200191610431565b820191906000526020600020905b81548152906001019060200180831161041457829003601f168201915b50505050509050919050565b6104456115b1565b73ffffffffffffffffffffffffffffffffffffffff16610463610e1a565b73ffffffffffffffffffffffffffffffffffffffff16146104b9576040517f08c379a00000000000000000000000000000000000000000000000000000000081526004016104b0906120be565b60405180910390fd5b600073ffffffffffffffffffffffffffffffffffffffff168173ffffffffffffffffffffffffffffffffffffffff161415610529576040517f08c379a0000000000000000000000000000000000000000000000000000000008152600401610520906120fe565b60405180910390fd5b80600160006101000a81548173ffffffffffffffffffffffffffffffffffffffff021916908373ffffffffffffffffffffffffffffffffffffffff16021790555050565b6105756115b1565b73ffffffffffffffffffffffffffffffffffffffff16610593610e1a565b73ffffffffffffffffffffffffffffffffffffffff16146105e9576040517f08c379a00000000000000000000000000000000000000000000000000000000081526004016105e0906120be565b60405180910390fd5b6105f2826115b9565b610631576040517f08c379a00000000000000000000000000000000000000000000000000000000081526004016106289061215e565b60405180910390fd5b61063b83836115eb565b61067a576040517f08c379a0000000000000000000000000000000000000000000000000000000008152600401610671906121de565b60405180910390fd5b6002600083815260200190815260200160002060020160009054906101000a900460ff1660ff168160ff1611156106e6576040517f08c379a00000000000000000000000000000000000000000000000000000000081526004016106dd906120de565b60405180910390fd5b600160036000848152602001908152602001600020600085815260200190815260200160002060000160009054906101000a900460ff166107279190612365565b60ff168160ff161461076e576040517f08c379a00000000000000000000000000000000000000000000000000000000081526004016107659061217e565b60405180910390fd5b8060036000848152602001908152602001600020600085815260200190815260200160002060000160006101000a81548160ff021916908360ff1602179055507f566166c2c3a5078fad3fe4939e44cfcdb8f46bfcfe2731f8048a13576255ed838383836040516107e19392919061225d565b60405180910390a1505050565b606060026000838152602001908152602001600020600101805461081190612435565b80601f016020809104026020016040519081016040528092919081815260200182805461083d90612435565b801561088a5780601f1061085f5761010080835404028352916020019161088a565b820191906000526020600020905b81548152906001019060200180831161086d57829003601f168201915b50505050509050919050565b60006002600083815260200190815260200160002060020160019054906101000a900460ff169050919050565b60606004600083815260200190815260200160002080548060200260200160405190810160405280929190818152602001828054801561092257602002820191906000526020600020905b81548152602001906001019080831161090e575b50505050509050919050565b6109366115b1565b73ffffffffffffffffffffffffffffffffffffffff166109546110e2565b73ffffffffffffffffffffffffffffffffffffffff16146109aa576040517f08c379a00000000000000000000000000000000000000000000000000000000081526004016109a1906121be565b60405180910390fd5b6109b3856115b9565b156109f3576040517f08c379a00000000000000000000000000000000000000000000000000000000081526004016109ea9061213e565b60405180910390fd5b600060405180608001604052808681526020018581526020018460ff1681526020018360ff16815250905080600260008881526020019081526020016000206000820151816000019080519060200190610a4e9291906116f3565b506020820151816001019080519060200190610a6b9291906116f3565b5060408201518160020160006101000a81548160ff021916908360ff16021790555060608201518160020160016101000a81548160ff021916908360ff1602179055509050507f12c1516c30914ff2f2fc819345efee0966867e2b0e57561756b697f34fbe6a878587604051610ae292919061204e565b60405180910390a1505050505050565b610afa6115b1565b73ffffffffffffffffffffffffffffffffffffffff16610b18610e1a565b73ffffffffffffffffffffffffffffffffffffffff1614610b6e576040517f08c379a0000000000000000000000000000000000000000000000000000000008152600401610b65906120be565b60405180910390fd5b610b77826115b9565b610bb6576040517f08c379a0000000000000000000000000000000000000000000000000000000008152600401610bad9061215e565b60405180910390fd5b610bc083836115eb565b610bff576040517f08c379a0000000000000000000000000000000000000000000000000000000008152600401610bf6906121de565b60405180910390fd5b60006003600084815260200190815260200160002060008581526020019081526020016000206040518060400160405290816000820160009054906101000a900460ff1660ff1660ff1681526020016000820160019054906101000a900460ff1660ff1660ff168152505090506002600084815260200190815260200160002060020160019054906101000a900460ff1660ff168260ff161115610cd8576040517f08c379a0000000000000000000000000000000000000000000000000000000008152600401610ccf9061211e565b60405180910390fd5b60018160200151610ce99190612365565b60ff168260ff1614610d30576040517f08c379a0000000000000000000000000000000000000000000000000000000008152600401610d279061219e565b60405180910390fd5b81816020019060ff16908160ff16815250508060036000858152602001908152602001600020600086815260200190815260200160002060008201518160000160006101000a81548160ff021916908360ff16021790555060208201518160000160016101000a81548160ff021916908360ff1602179055509050507f869cb6d2bc15442b561a4990eb75962191656f24c5cd40625143daa6b0337667848484604051610ddf9392919061225d565b60405180910390a150505050565b60006002600083815260200190815260200160002060020160009054906101000a900460ff169050919050565b6000600160009054906101000a900473ffffffffffffffffffffffffffffffffffffffff16905090565b610e4c6115b1565b73ffffffffffffffffffffffffffffffffffffffff16610e6a610e1a565b73ffffffffffffffffffffffffffffffffffffffff1614610ec0576040517f08c379a0000000000000000000000000000000000000000000000000000000008152600401610eb7906120be565b60405180910390fd5b610ec9816115b9565b610f08576040517f08c379a0000000000000000000000000000000000000000000000000000000008152600401610eff9061215e565b60405180910390fd5b610f1282826115eb565b610f51576040517f08c379a0000000000000000000000000000000000000000000000000000000008152600401610f48906121de565b60405180910390fd5b600360008281526020019081526020016000206000838152602001908152602001600020600080820160006101000a81549060ff02191690556000820160016101000a81549060ff021916905550506004600083815260200190815260200160002073__Arrays________________________________63f3c0d2759091836040518363ffffffff1660e01b8152600401610fed929190611fb0565b60006040518083038186803b15801561100557600080fd5b505af4158015611019573d6000803e3d6000fd5b505050507f100e290946f0f652769862609348c46efaca612adc42fade3eaf29fd01cad5c8828260405161104e929190612234565b60405180910390a15050565b6110626115b1565b73ffffffffffffffffffffffffffffffffffffffff166110806110e2565b73ffffffffffffffffffffffffffffffffffffffff16146110d6576040517f08c379a00000000000000000000000000000000000000000000000000000000081526004016110cd906121be565b60405180910390fd5b6110e0600061162f565b565b60008060009054906101000a900473ffffffffffffffffffffffffffffffffffffffff16905090565b600260205280600052604060002060009150905080600001805461112e90612435565b80601f016020809104026020016040519081016040528092919081815260200182805461115a90612435565b80156111a75780601f1061117c576101008083540402835291602001916111a7565b820191906000526020600020905b81548152906001019060200180831161118a57829003601f168201915b5050505050908060010180546111bc90612435565b80601f01602080910402602001604051908101604052809291908181526020018280546111e890612435565b80156112355780601f1061120a57610100808354040283529160200191611235565b820191906000526020600020905b81548152906001019060200180831161121857829003601f168201915b5050505050908060020160009054906101000a900460ff16908060020160019054906101000a900460ff16905084565b6004602052816000526040600020818154811061128157600080fd5b90600052602060002001600091509150505481565b6000600160149054906101000a900461ffff16905090565b6112b66115b1565b73ffffffffffffffffffffffffffffffffffffffff166112d4610e1a565b73ffffffffffffffffffffffffffffffffffffffff161461132a576040517f08c379a0000000000000000000000000000000000000000000000000000000008152600401611321906120be565b60405180910390fd5b611333816115b9565b611372576040517f08c379a00000000000000000000000000000000000000000000000000000000081526004016113699061215e565b60405180910390fd5b61137c82826115eb565b156113bc576040517f08c379a00000000000000000000000000000000000000000000000000000000081526004016113b39061207e565b60405180910390fd5b6040518060400160405280600160ff168152602001600160ff1681525060036000838152602001908152602001600020600084815260200190815260200160002060008201518160000160006101000a81548160ff021916908360ff16021790555060208201518160000160016101000a81548160ff021916908360ff160217905550905050600460008381526020019081526020016000208190806001815401808255809150506001900390600052602060002001600090919091909150557f77965a655d2aad8e5a56a797f5d084f8cbc3073cc5c8921b4757a5164e02543b82826040516114ad929190612234565b60405180910390a15050565b6114c16115b1565b73ffffffffffffffffffffffffffffffffffffffff166114df6110e2565b73ffffffffffffffffffffffffffffffffffffffff1614611535576040517f08c379a000000000000000000000000000000000000000000000000000000000815260040161152c906121be565b60405180910390fd5b600073ffffffffffffffffffffffffffffffffffffffff168173ffffffffffffffffffffffffffffffffffffffff1614156115a5576040517f08c379a000000000000000000000000000000000000000000000000000000000815260040161159c9061209e565b60405180910390fd5b6115ae8161162f565b50565b600033905090565b6000806002600084815260200190815260200160002060020160009054906101000a900460ff1660ff16119050919050565b60008060036000848152602001908152602001600020600085815260200190815260200160002060000160009054906101000a900460ff1660ff1611905092915050565b60008060009054906101000a900473ffffffffffffffffffffffffffffffffffffffff169050816000806101000a81548173ffffffffffffffffffffffffffffffffffffffff021916908373ffffffffffffffffffffffffffffffffffffffff1602179055508173ffffffffffffffffffffffffffffffffffffffff168173ffffffffffffffffffffffffffffffffffffffff167f8be0079c531659141344cd1fd0a4f28419497f9722a3daafe3b4186f6b6457e060405160405180910390a35050565b8280546116ff90612435565b90600052602060002090601f0160209004810192826117215760008555611768565b82601f1061173a57805160ff1916838001178555611768565b82800160010185558215611768579182015b8281111561176757825182559160200191906001019061174c565b5b5090506117759190611779565b5090565b5b8082111561179257600081600090555060010161177a565b5090565b60006117a96117a4846122e0565b6122af565b9050828152602081018484840111156117c157600080fd5b6117cc8482856123f3565b509392505050565b6000813590506117e381612505565b92915050565b600082601f8301126117fa57600080fd5b813561180a848260208601611796565b91505092915050565b6000813590506118228161251c565b92915050565b60008135905061183781612533565b92915050565b60006020828403121561184f57600080fd5b600061185d848285016117d4565b91505092915050565b60006020828403121561187857600080fd5b600061188684828501611813565b91505092915050565b600080600080600060a086880312156118a757600080fd5b60006118b588828901611813565b955050602086013567ffffffffffffffff8111156118d257600080fd5b6118de888289016117e9565b945050604086013567ffffffffffffffff8111156118fb57600080fd5b611907888289016117e9565b935050606061191888828901611828565b925050608061192988828901611828565b9150509295509295909350565b6000806040838503121561194957600080fd5b600061195785828601611813565b925050602061196885828601611813565b9150509250929050565b60008060006060848603121561198757600080fd5b600061199586828701611813565b93505060206119a686828701611813565b92505060406119b786828701611828565b9150509250925092565b60006119cd8383611f37565b60208301905092915050565b6119e28161239c565b82525050565b60006119f382612320565b6119fd8185612343565b9350611a0883612310565b8060005b83811015611a39578151611a2088826119c1565b9750611a2b83612336565b925050600181019050611a0c565b5085935050505092915050565b8082525050565b6000611a588261232b565b611a628185612354565b9350611a72818560208601612402565b611a7b816124f4565b840191505092915050565b6000611a93603383612354565b91507f55706772616461626c654174747269627574653a206e6674206861732061747460008301527f61636865642074686520617474726962757465000000000000000000000000006020830152604082019050919050565b6000611af9602683612354565b91507f4f776e61626c653a206e6577206f776e657220697320746865207a65726f206160008301527f64647265737300000000000000000000000000000000000000000000000000006020830152604082019050919050565b6000611b5f602683612354565b91507f4f706572617461626c653a2063616c6c6572206973206e6f7420746865206f7060008301527f657261746f7200000000000000000000000000000000000000000000000000006020830152604082019050919050565b6000611bc5602f83612354565b91507f55706772616461626c654174747269627574653a20657863656564656420746860008301527f65206d6178696d756d206c6576656c00000000000000000000000000000000006020830152604082019050919050565b6000611c2b602c83612354565b91507f4f706572617461626c653a206e6577206f70657261746f72206973207468652060008301527f7a65726f206164647265737300000000000000000000000000000000000000006020830152604082019050919050565b6000611c91603283612354565b91507f55706772616461626c654174747269627574653a20657863656564656420746860008301527f65206d6178696d756d207375624c6576656c00000000000000000000000000006020830152604082019050919050565b6000611cf7603183612354565b91507f55706772616461626c654174747269627574653a20617474726962757465205f60008301527f696420616c7265616479206578697374730000000000000000000000000000006020830152604082019050919050565b6000611d5d602d83612354565b91507f55706772616461626c654174747269627574653a20617474726962757465205f60008301527f6964206e6f7420657869737473000000000000000000000000000000000000006020830152604082019050919050565b6000611dc3602283612354565b91507f55706772616461626c654174747269627574653a20696e76616c6964206c657660008301527f656c0000000000000000000000000000000000000000000000000000000000006020830152604082019050919050565b6000611e29602583612354565b91507f55706772616461626c654174747269627574653a20696e76616c69642073756260008301527f4c6576656c0000000000000000000000000000000000000000000000000000006020830152604082019050919050565b6000611e8f602083612354565b91507f4f776e61626c653a2063616c6c6572206973206e6f7420746865206f776e65726000830152602082019050919050565b6000611ecf603783612354565b91507f55706772616461626c654174747269627574653a206e667420686173206e6f7460008301527f20617474616368656420746865206174747269627574650000000000000000006020830152604082019050919050565b611f31816123ae565b82525050565b611f40816123dc565b82525050565b611f4f816123dc565b82525050565b611f5e816123dc565b82525050565b611f6d816123e6565b82525050565b6000602082019050611f8860008301846119d9565b92915050565b60006020820190508181036000830152611fa881846119e8565b905092915050565b6000604082019050611fc56000830185611a46565b611fd26020830184611f55565b9392505050565b60006020820190508181036000830152611ff38184611a4d565b905092915050565b600060808201905081810360008301526120158187611a4d565b905081810360208301526120298186611a4d565b90506120386040830185611f64565b6120456060830184611f64565b95945050505050565b600060408201905081810360008301526120688185611a4d565b90506120776020830184611f46565b9392505050565b6000602082019050818103600083015261209781611a86565b9050919050565b600060208201905081810360008301526120b781611aec565b9050919050565b600060208201905081810360008301526120d781611b52565b9050919050565b600060208201905081810360008301526120f781611bb8565b9050919050565b6000602082019050818103600083015261211781611c1e565b9050919050565b6000602082019050818103600083015261213781611c84565b9050919050565b6000602082019050818103600083015261215781611cea565b9050919050565b6000602082019050818103600083015261217781611d50565b9050919050565b6000602082019050818103600083015261219781611db6565b9050919050565b600060208201905081810360008301526121b781611e1c565b9050919050565b600060208201905081810360008301526121d781611e82565b9050919050565b600060208201905081810360008301526121f781611ec2565b9050919050565b60006020820190506122136000830184611f28565b92915050565b600060208201905061222e6000830184611f46565b92915050565b60006040820190506122496000830185611f46565b6122566020830184611f46565b9392505050565b60006060820190506122726000830186611f46565b61227f6020830185611f46565b61228c6040830184611f64565b949350505050565b60006020820190506122a96000830184611f64565b92915050565b6000604051905081810181811067ffffffffffffffff821117156122d6576122d56124c5565b5b8060405250919050565b600067ffffffffffffffff8211156122fb576122fa6124c5565b5b601f19601f8301169050602081019050919050565b6000819050602082019050919050565b600081519050919050565b600081519050919050565b6000602082019050919050565b600082825260208201905092915050565b600082825260208201905092915050565b6000612370826123e6565b915061237b836123e6565b92508260ff0382111561239157612390612467565b5b828201905092915050565b60006123a7826123bc565b9050919050565b600061ffff82169050919050565b600073ffffffffffffffffffffffffffffffffffffffff82169050919050565b6000819050919050565b600060ff82169050919050565b82818337600083830152505050565b60005b83811015612420578082015181840152602081019050612405565b8381111561242f576000848401525b50505050565b6000600282049050600182168061244d57607f821691505b6020821081141561246157612460612496565b5b50919050565b7f4e487b7100000000000000000000000000000000000000000000000000000000600052601160045260246000fd5b7f4e487b7100000000000000000000000000000000000000000000000000000000600052602260045260246000fd5b7f4e487b7100000000000000000000000000000000000000000000000000000000600052604160045260246000fd5b6000601f19601f8301169050919050565b61250e8161239c565b811461251957600080fd5b50565b612525816123dc565b811461253057600080fd5b50565b61253c816123e6565b811461254757600080fd5b5056fea26469706673582212207c069087a7bc60541e0c3d75211a5c046a9740ba1142af5c6fe34ba5a3df4e7e64736f6c63430008000033",
  "immutableReferences": {},
  "source": "// SPDX-License-Identifier: MIT\r\n\r\npragma solidity ^0.8.0;\r\n\r\nimport \"openzeppelin-solidity/contracts/utils/Context.sol\";\r\nimport \"openzeppelin-solidity/contracts/access/Ownable.sol\";\r\nimport \"./IUpgradableAttribute.sol\";\r\nimport \"../utils/AttributeClass.sol\";\r\nimport \"../utils/Operatable.sol\";\r\nimport \"../utils/Arrays.sol\";\r\n\r\ncontract UpgradableAttribute is\r\n    IUpgradableAttribute,\r\n    Context,\r\n    Ownable,\r\n    Operatable,\r\n    AttributeClass\r\n{\r\n    using Arrays for uint256[];\r\n\r\n    struct UpgradableSettings {\r\n        string name;\r\n        string description;\r\n        uint8 level;\r\n        uint8 subLevel;\r\n    }\r\n\r\n    struct UpgradeState {\r\n        uint8 level;\r\n        uint8 subLevel;\r\n    }\r\n\r\n    // attribute ID => settings\r\n    mapping(uint256 => UpgradableSettings) public attrs;\r\n\r\n    // attribute ID => nft ID => Level\r\n    mapping(uint256 => mapping(uint256 => UpgradeState)) private _states;\r\n\r\n    // nft ID => attributes\r\n    mapping(uint256 => uint256[]) public nftAttrs;\r\n\r\n    constructor() AttributeClass(2) {}\r\n\r\n    function name(uint256 _attrId)\r\n        public\r\n        view\r\n        virtual\r\n        override\r\n        returns (string memory)\r\n    {\r\n        return attrs[_attrId].name;\r\n    }\r\n\r\n    function description(uint256 _attrId)\r\n        public\r\n        view\r\n        virtual\r\n        override\r\n        returns (string memory)\r\n    {\r\n        return attrs[_attrId].description;\r\n    }\r\n\r\n    function getNFTAttrs(uint256 _nftId)\r\n        public\r\n        view\r\n        virtual\r\n        override\r\n        returns (uint256[] memory)\r\n    {\r\n        return nftAttrs[_nftId];\r\n    }\r\n\r\n    function maxLevel(uint256 _attrId)\r\n        public\r\n        view\r\n        virtual\r\n        override\r\n        returns (uint8)\r\n    {\r\n        return attrs[_attrId].level;\r\n    }\r\n\r\n    function maxSubLevel(uint256 _attrId)\r\n        public\r\n        view\r\n        virtual\r\n        override\r\n        returns (uint8)\r\n    {\r\n        return attrs[_attrId].subLevel;\r\n    }\r\n\r\n    function create(\r\n        uint256 _id,\r\n        string memory _name,\r\n        string memory _description,\r\n        uint8 _level,\r\n        uint8 _subLevel\r\n    ) public virtual override onlyOwner {\r\n        require(\r\n            !_exists(_id),\r\n            \"UpgradableAttribute: attribute _id already exists\"\r\n        );\r\n        UpgradableSettings memory settings = UpgradableSettings({\r\n            name: _name,\r\n            description: _description,\r\n            level: _level,\r\n            subLevel: _subLevel\r\n        });\r\n        attrs[_id] = settings;\r\n\r\n        emit UpgradableAttributeCreated(_name, _id);\r\n    }\r\n\r\n    function attach(uint256 _nftId, uint256 _attrId)\r\n        public\r\n        virtual\r\n        override\r\n        onlyOperator\r\n    {\r\n        require(\r\n            _exists(_attrId),\r\n            \"UpgradableAttribute: attribute _id not exists\"\r\n        );\r\n        require(\r\n            !_hasAttr(_nftId, _attrId),\r\n            \"UpgradableAttribute: nft has attached the attribute\"\r\n        );\r\n\r\n        _states[_attrId][_nftId] = UpgradeState({level: 1, subLevel: 1});\r\n\r\n        nftAttrs[_nftId].push(_attrId);\r\n\r\n        emit UpgradableAttributeAttached(_nftId, _attrId);\r\n    }\r\n\r\n    function remove(uint256 _nftId, uint256 _attrId)\r\n        public\r\n        virtual\r\n        override\r\n        onlyOperator\r\n    {\r\n        require(\r\n            _exists(_attrId),\r\n            \"UpgradableAttribute: attribute _id not exists\"\r\n        );\r\n        require(\r\n            _hasAttr(_nftId, _attrId),\r\n            \"UpgradableAttribute: nft has not attached the attribute\"\r\n        );\r\n\r\n        delete _states[_attrId][_nftId];\r\n\r\n        nftAttrs[_nftId].removeByValue(_attrId);\r\n\r\n        emit UpgradableAttributeRemoved(_nftId, _attrId);\r\n    }\r\n\r\n    function upgradeLevel(\r\n        uint256 _nftId,\r\n        uint256 _attrId,\r\n        uint8 _level\r\n    ) public virtual override onlyOperator {\r\n        require(\r\n            _exists(_attrId),\r\n            \"UpgradableAttribute: attribute _id not exists\"\r\n        );\r\n        require(\r\n            _hasAttr(_nftId, _attrId),\r\n            \"UpgradableAttribute: nft has not attached the attribute\"\r\n        );\r\n\r\n        require(\r\n            _level <= attrs[_attrId].level,\r\n            \"UpgradableAttribute: exceeded the maximum level\"\r\n        );\r\n        require(\r\n            _level == _states[_attrId][_nftId].level + 1,\r\n            \"UpgradableAttribute: invalid level\"\r\n        );\r\n\r\n        _states[_attrId][_nftId].level = _level;\r\n\r\n        emit AttributeLevelUpgraded(_nftId, _attrId, _level);\r\n    }\r\n\r\n    function upgradeSubLevel(\r\n        uint256 _nftId,\r\n        uint256 _attrId,\r\n        uint8 _subLevel\r\n    ) public virtual override onlyOperator {\r\n        require(\r\n            _exists(_attrId),\r\n            \"UpgradableAttribute: attribute _id not exists\"\r\n        );\r\n        require(\r\n            _hasAttr(_nftId, _attrId),\r\n            \"UpgradableAttribute: nft has not attached the attribute\"\r\n        );\r\n\r\n        UpgradeState memory state = _states[_attrId][_nftId];\r\n\r\n        require(\r\n            _subLevel <= attrs[_attrId].subLevel,\r\n            \"UpgradableAttribute: exceeded the maximum subLevel\"\r\n        );\r\n        require(\r\n            _subLevel == state.subLevel + 1,\r\n            \"UpgradableAttribute: invalid subLevel\"\r\n        );\r\n\r\n        state.subLevel = _subLevel;\r\n        _states[_attrId][_nftId] = state;\r\n\r\n        emit AttributeSubLevelUpgraded(_nftId, _attrId, _subLevel);\r\n    }\r\n\r\n    function _exists(uint256 _id) internal view returns (bool) {\r\n        return attrs[_id].level > 0;\r\n    }\r\n\r\n    function _hasAttr(uint256 _nftId, uint256 _attrId)\r\n        internal\r\n        view\r\n        returns (bool)\r\n    {\r\n        return _states[_attrId][_nftId].level > 0;\r\n    }\r\n}\r\n",
  "sourcePath": "D:\\MetaNFT\\MetaNFT\\contracts\\ERC3664\\UpgradableAttribute.sol",
  "compiler": {
    "name": "solc",
    "version": "0.8.0+commit.c7dfd78e.Emscripten.clang"
  },
  "schemaVersion": "3.4.3",
  "updatedAt": "2021-09-22T09:26:13.307Z",
  "devdoc": {
    "kind": "dev",
    "methods": {
      "changeOperator(address)": {
        "details": "Change operator of the contract. Can only be called by the current operator."
      },
      "class()": {
        "details": "Returns the class of the attribute."
      },
      "operator()": {
        "details": "Returns the address of the current operator."
      },
      "owner()": {
        "details": "Returns the address of the current owner."
      },
      "renounceOwnership()": {
        "details": "Leaves the contract without owner. It will not be possible to call `onlyOwner` functions anymore. Can only be called by the current owner. NOTE: Renouncing ownership will leave the contract without an owner, thereby removing any functionality that is only available to the owner."
      },
      "transferOwnership(address)": {
        "details": "Transfers ownership of the contract to a new account (`newOwner`). Can only be called by the current owner."
      }
    },
    "version": 1
  },
  "userdoc": {
    "kind": "user",
    "methods": {},
    "version": 1
  }
}